:1020000000800020754300003D4300005D43000058
:1020100000000000000000000000000000000000C0
:102020000000000000000000000000005D43000010
:1020300000000000000000005D430000C9430000F4
:102040005D4300005D4300005D4300005D43000010
:10205000014300005D430000ED3C000061430000CF
:102060005D430000DD4000005D4300005D43000073
:10207000B54000005D430000ED4000005D430000FE
:102080005D4300005D4300005D4300005D430000D0
:10209000000000005D4300005D4300005D43000060
:1020A0005D4300005D4300005D4300005D430000B0
:1020B0000000000010B5064C2378002B07D1054B1B
:1020C000002B02D0044800E000BF0123237010BDA4
:1020D000F00200200000000004C00000044B10B516
:1020E000002B03D00349044800E000BF10BDC046E8
:1020F00000000000F402002004C0000010B500F051
:10210000F1F900F0A9FC10BD10B500F09DFD00F044
:102110009DFA00F097FE00F043FE00F053F900F046
:10212000EBFA00F0FBFC10BD10B500F049FA00F02E
:10213000A3F9FFF7E9FF00F0F1FC10BD074B10B564
:102140000400417182710649186804F01BFBFA23F0
:102150009B005843E060200010BDC04654000020A2
:1021600040420F0070B504000D004079022102F0DA
:1021700093FB02F037F9024B6574C018A06070BD84
:1021800030F8FFFF70B505000E000024687902F0FA
:10219000DFFBB04205D1EA68631CA24203D80124E8
:1021A0006442200070BD1C00F0E7000070B5D0B0A4
:1021B0000D00040002F016F9002D07D1A3683F4A74
:1021C000C31A934202D8207C50B070BD0025022172
:1021D000A06025606079257102F05EFB012002F0AD
:1021E00037F96079012102F057FB6079290002F08C
:1021F00083FBA379153B012B1BD8314B013BFDD150
:102200006079022102F048FB637C002B06D030206D
:102210000321584304F0B6FA0138FDD172B600210B
:102220002000FFF7AFFF431C07D10020207462B6E7
:10223000CAE7142002F00CF9E2E701212000FFF7C1
:10224000A1FF431CF1D0A02600257600002120002C
:10225000FFF798FF6B460121E8502000FFF792FF3F
:102260002B0008356B445860B542EFD162B60022AE
:1022700001216846D300C0586B445E68431C01D0FE
:10228000731C02D1002020749EE7D510635D5B00B3
:10229000DBB2B04210D301326355282AE9D161780C
:1022A000237822795B18A1785B18E1785B18DBB2A0
:1022B0009A42E7D10120E6E70B43ECE7CF070000A5
:1022C000C044000030B5094D094CAB685B035B0F9F
:1022D0009B001C590460AB6801619BB2436063437F
:1022E000A4008360C460426130BDC046004000412C
:1022F00014B30000F7B580261A4D01916F680333BF
:102300003E439B086E60002B2BD0174E2E802E7DF7
:10231000F107FCD51E000768991BBF088F4219D929
:10232000002E17D0FF2117788C433C430F49577874
:102330000C403F023C439778013E39040C4F274044
:10234000D478BFB20F43240601993C4310C10191D8
:102350000432E0E7074B2B802B7DDB07FCD53300F5
:10236000D1E7F7BD0040004144A5FFFFFF00FFFF9C
:10237000FFFF00FF04A5FFFF044B054A4908D96190
:102380001A801A7DD207FCD57047C0460040004134
:1023900002A5FFFF70B504000D001600E3682900D8
:1023A0002000B34205D2FFF7E7FFE368ED18F61A05
:1023B000F4E7FFF7E1FF70BD10B510001A0006F05A
:1023C000C9F910BD10B537210748FFF7CBFE02F061
:1023D00009F80522054B09211860054B1A750022E2
:1023E00019765A755A7610BD0C030020240300207C
:1023F0009704002010B5154C00212000FFF7D6FEF1
:10240000002822D0FE23A278DB0112021A40E378D2
:102410000F491A430F4B1A80237860781B02184328
:1024200000B283B20B800C49141288751812C8755B
:102430000120CC76094C487548768A7620000849F8
:1024400007F002F8200000F0A3F810BD0C030020F4
:1024500020030020220300209704002034030020E2
:1024600034B3000010B50623162205210148FFF7FA
:1024700065FE10BD0C03002010B501210D2002F0F7
:102480000BFA0C2002F02AF900212D2002F004FAA8
:102490003222044B1A60044B243A1A7000225A70FC
:1024A00010BDC0462C0300209704002010B52D203D
:1024B00002F07EF980B210BD10B5FFF7F7FF064BB2
:1024C000188006F045F8054A054B05F035FA06F088
:1024D00009F880B210BDC0462803002044696FF09F
:1024E00085C9F93F70B501F07DFF0F4C0F4D236892
:1024F000C01A2B68984215D90D2002F029FA4142E2
:1025000041410D2002F0F8F90D2002F021FA431E9E
:102510009841074B40421840064BC018286001F014
:1025200061FF206070BDC046300300202C030020F6
:10253000DCECFFFF5613000070B5FFF7B7FF0E4B42
:102540000400188006F004F80C4A0D4B05F0F4F96D
:1025500005F0C8FF0B4B0212DA7001220A4D987089
:102560005A700A4983B22200280006F06DFF280045
:1025700000F00EF870BDC0462803002044696FF0DB
:1025800085C9F93F970400203403002051B30000AF
:1025900070B505000400FF352178002905D00648F4
:1025A000013402F0AAFAAC42F6D1FF22002103481E
:1025B00006F0ECF870BDC046D00D002034030020BA
:1025C000E12110B54902094802F01EFEFA20800000
:1025D00001F03EFFFF220021054806F0D7F805482C
:1025E000FFF7D6FF0448FFF7D3FF10BDD00D002042
:1025F00034030020000000201E00002070B5124CA3
:10260000060020000D0002F071FD00280BDD200007
:1026100002F06CFDA84206DC2A003100200002F026
:10262000F4FD012070BD200002F060FDA84208DD2D
:10263000200002F05BFD002803D0200002F086FDA0
:10264000F6E70020EEE7C046D00D002010B509489F
:1026500001F0CCFB002323221021074800F05CFC92
:1026600001F0C0FE0C22054B1860054B1A710022C8
:102670005A7110BD74060020380400204804002060
:102680009704002010B50021014800F04FFC10BD58
:102690003804002010B5FFF7F5FF094B0112188030
:1026A000084B094CD9710121020098715971200021
:1026B000064906F0C9FE2000FFF76AFF10BDC046BC
:1026C00034040020970400203403002073B300007A
:1026D00010B52321014800F0E9FB10BD38040020AB
:1026E00000220121034B1A735A739973DA73197418
:1026F0007047C0464C040020962110B589010B4854
:1027000003F056FD0B210A4B5A1DD1770022981D6C
:10271000C27718002C30017018002D30027018009C
:102720002933283001701A7010BDC046A808002057
:102730009704002070B5094E08220949300002F0C4
:10274000C8F9084D082807D10024300003F030FFF5
:1027500028550134072CF8D1287970BDA80800202D
:10276000BCB300008C04002070B5094E0822094952
:10277000300002F0AEF9084D082807D100243000DF
:1027800003F016FF28550134072CF8D1287970BDC5
:10279000A8080020ACB300008C04002070B5094EDE
:1027A00008220949300002F094F9084D082807D1A1
:1027B0000024300003F0FCFE28550134072CF8D12A
:1027C000287970BDA8080020B4B300008C04002054
:1027D000F7B5FA2001F03CFEFFF7ACFF0400FA2049
:1027E00001F036FEFFF7C0FF0500FA2001F030FED1
:1027F000FFF7D4FF0600FA2001F02AFE134B002158
:10280000DA1DD4771A000832D1770122981DC277D9
:1028100018002A30057018002B300170180029307C
:10282000027018002E3006701800094F2F302D331B
:1028300001701A7007492B0000962200380006F03C
:1028400003FE3800FFF7A4FEF7BDC0469704002042
:10285000340300207EB30000F8B5184D3C2200215F
:10286000280005F093FF12230C2215492B70281D18
:10287000113B0231AB70EA70002605F06BFF1024AB
:1028800010498F197B78012B11D10222735CA01C97
:102890002B55631CDBB2C0B20231EA5428188919E7
:1028A000022205F057FF00230434E4B27B700436A3
:1028B000302EE5D16C702000F8BDC046CC0400205D
:1028C000280500209704002010B503780100427805
:1028D000142B32D005D8012B12D0132B22D000207C
:1028E00017E0162B16D032D3182BF8D10020022A6D
:1028F0000FD1CA788B78120213431A4A53821AE016
:1029000000200C2A05D117480231023005F022FFC1
:102910000E2010BD0020012AFBD18A78114B033014
:102920005A70F6E70020022AF3D1CA788B78120297
:1029300013430C4A13820430EBE70020022AE8D14B
:10294000CA788B7812021343064AD381F3E700203A
:10295000042ADED1CA788B7812021343014A06306A
:102960005361D6E75C050020F0B597B007AE0021B3
:102970003C22300005F00AFF3C213000FFF73EFE0C
:1029800001284CD13378102B49D17378254D264C32
:10299000059322002B0083CA83C383CA83C3022703
:1029A000059B9F4207D2F019FFF78EFF002836D013
:1029B0003F18FFB2F4E71821280000F023F92B009C
:1029C0006A462870103303CB03C20FCD00F0B0F974
:1029D000002824D00125200000F022F91348FFF739
:1029E000D7FD134E371F01350E2D06D06800625DEE
:1029F000C019104906F028FDF5E73000FFF7C8FDC3
:102A0000618A238AE28902916178300001916169CB
:102A10000091094906F018FD3000FFF7B9FD17B025
:102A2000F0BDC0465C05002028050020D4B300009E
:102A300034030020E7B30000ECB3000010B5FFF74B
:102A40007BFDFFF727FE00F011FA00F0BBF9FFF75E
:102A5000D1FCFFF7BDFE10BDF8B5214D6B78422BC0
:102A60003AD16C8AFFF728FD844235D201F0BAFCD6
:102A70001C4C1D4E2368C01A1C4B984208D9336861
:102A80001B4801333360FFF783FD01F0ABFC20608E
:102A90006B69326893421FD800243460FFF7CEFF81
:102AA000FFF7DAFE07001348FFF772FD124EA74248
:102AB0000ADD325D114E1249300006F0C5FC3000CF
:102AC000FFF766FD0134F1E70E48FFF761FDE88985
:102AD0003A00310000F064F8FFF746FFF8BDC04649
:102AE00028050020C804002008050020E703000096
:102AF000C4B30000C6B30000CC040020340300209F
:102B0000E7B3000043B4000010B5012303220821FD
:102B1000014800F06BFA10BD0C05002070B50024D0
:102B20001A4D012104202C7001F0B6FE0121042071
:102B300001F0E2FE642001F08BFC2100042001F092
:102B4000DBFE642001F084FC114C0E21200000F01B
:102B5000ABFB104B104A1B78128A5B21200000F05F
:102B60002DFC01212870200000F08CFE20000D2299
:102B7000032100F021FB05222000042100F01CFBB2
:102B80000649200000F0E6FB70BDC0462405002089
:102B90000C0500203E0000202805002045B4000060
:102BA0001300002213B5054C00920A00010020001A
:102BB00000F0ECFD200000F0C3FD13BD0C0500206B
:102BC00010B50A4C0C22A01C094905F0C3FD0023D6
:102BD0006370084B1B88E381074B1B882382074BDC
:102BE0001B886382064B1B68636110BD440500208F
:102BF0004600002040050020520000204400002034
:102C000040000020002310B5421CC9B2141AA14292
:102C100003DD147801321B19F8E7D8B210BD0000AB
:102C200030B587B06C46050006482200436901694B
:102C3000FFF7C2FB2B0007CC07C307CC07C307B0C5
:102C400030BDC04674050020F0B58BB004ADFFF771
:102C5000B7FF2800FFF7E4FF18212800FFF7D2FF95
:102C60002B782B4C834201D1002B15D12200294B0C
:102C700043CB43C243CB43C201272748FFF788FC1D
:102C8000264E01370E2F0ED0254B7800E25DC0187E
:102C9000244906F0D9FBF4E723002A0043CA43C3C2
:102CA00043CA43C3E8E73000FFF772FC618A238A16
:102CB000E2890291617830000191616901270091F8
:102CC000194906F0C1FB3000FFF762FC1748FFF717
:102CD0005FFC01370E2F07D0311F7B005818EA5DCB
:102CE000104906F0B1FBF4E73000FFF751FC618AB0
:102CF0002B8AEA8902916978300001916969009113
:102D0000094906F0A1FB3000FFF742FC0BB0F0BD13
:102D10002805002044050020D4B30000340300201F
:102D200030030020E7B30000ECB3000056B400000D
:102D300084B030B58DB006AD13932B001090119177
:102D4000129210AA13CA13C313CA13C30D4C62699B
:102D500021692000FFF71EFB63692A00216920001A
:102D6000FFF7C8FA6846FFF75BFF6B46187810ABB1
:102D70001B78C01A43425841C0B20DB030BC08BCE9
:102D800004B018477405002010B518220249034802
:102D9000FFF798FA10BDC04600B50000740500208A
:102DA00010B501F01FFB0622044B0A211860044BEA
:102DB0001A73002219745A735A7410BD90050020BA
:102DC00097040020002370B5134C144D144E2B8033
:102DD000238030000C330A22052100F035FE0C233D
:102DE00020800A223000032100F02EFE23880200FA
:102DF0000C4928801812C87301201412CC740A4C94
:102E00008B738A74487348740849200006F01CFBD1
:102E10002000FFF7BDFB70BD8C050020940500204D
:102E200096050020970400203403002000B600001F
:102E300010B503230C220A21014800F055FD10BDF6
:102E40009605002010B50021102001F025FD01F0AD
:102E5000C9FA0422034B1860034B1A7200225A72FB
:102E600010BDC046A005002097040020002310B527
:102E70000A4C1020238001F09BFC094B82B21112F6
:102E8000D97201212080074C98725972200006499E
:102E900006F0DAFA2000FFF77BFB10BD9C0500204E
:102EA00097040020340300201DB600004523437022
:102EB000034B0170436000230372024BC3607047F1
:102EC0009A99993F740600200B00103BDBB2F7B5CE
:102ED00004000D000026132B1AD801273A009A404F
:102EE0000C4B1A4214D00178C06800F09FFFE068D4
:102EF000290003681B689847E06801F042F80190D8
:102F00000A2001F0A5FA019BB34201D13E002572CF
:102F10003000FEBD0B000B0010B5002B00D0C360CD
:102F2000002A00D00270FFF7CFFF10BD70B5037A02
:102F300004000D00002B01D1002070BD0178C06895
:102F400000F074FFE068217A03681B689847E06826
:102F500001F017F8237A202B0DD3212B1ED9232B18
:102F600009D160780B3B002D1DD10001452103F0F4
:102F700093FC01F06DFA21780222E06800F09FFFD7
:102F80000228D9D1E06803685B6998470502E068C8
:102F900003685B699847284380B2CEE76378B42022
:102FA000002D00D178205843E0E770470122014B03
:102FB0001A707047EE05002010B5040042690169DF
:102FC000034800F0DFFD2079002101F095FC10BDE1
:102FD000F005002010B50121007901F08DFC0248B8
:102FE00000F0ECFD10BDC046F0050020017101218C
:102FF00010B5084C427108340460074A074C117040
:1030000004611F220024C272447504758472037324
:1030100010BDC04630B60000E805002000093D00A4
:10302000036810B59B680C00984700280BD0064B2E
:103030001B88A34202D00020844204D1034B18789D
:10304000431E9841C0B210BDEA050020A50500202E
:10305000F0B505000E00002487B003930CAB1B787D
:10306000029204930DAB1B78059301222B6800920A
:103070001F68029A039B31002800B84701F0B2F99B
:10308000070001F0AFF9059BC01B984207D2310041
:103090002800FFF7C5FF0028F3D007B0F0BD0134CA
:1030A000049BE4B2A342E0D20020F6E7036870B5C7
:1030B000DB6A04000D0098477F212940074D280056
:1030C00000F090FD0021280000F08CFD0500236831
:1030D00020001B6B9847280070BDC046F0050020FB
:1030E000F0B585B01F000AAB1B78019103930BABC1
:1030F0001E78036802925B6A012104009847272129
:103100002000FFF7D3FF0306F9D53D1C3D2F00D962
:103110003D25EDB28027002E03D1039F7B1E9F41EA
:10312000BF01019BFF2B03D90C229B1113401F43AE
:103130002389FF2B02D99B059B0F1F432368200087
:10314000DB6A98471B4E8021300000F04BFDE91CE4
:10315000C9B2300000F046FD6B463000197900F02E
:1031600041FD217A300000F03DFD3900300000F0D3
:1031700039FD029F7D19AF4205D03978300000F04B
:1031800031FD0137F7E7236820001B6B9847236860
:1031900004215B6A20009847082528212000FFF7BA
:1031A00085FF2842F9D0236801215B6A20009847F7
:1031B00005B0F0BDF0050020036870B5DB6A1600AD
:1031C00004000D00984780212943064D280000F097
:1031D00009FD3100280000F005FD236820001B6B6D
:1031E000984770BDF005002070B52E4E040033786E
:1031F0000D008B4220D004291ED80800012103F0C5
:10320000B7FA433C2F1C03002000FFF74FFF1C239D
:103210000C2298430243D2B201212000FFF7CCFFD9
:10322000237B002B04D0012123689B6A2000984750
:103230003378002B2ED0357070BD2000FFF736FF9D
:103240001C23102298430243D2B201212000FFF731
:10325000B3FF237B002BEBD0236800219B6AE5E7BB
:103260002000FFF723FF1C23082298430243D2B219
:1032700001212000FFF7A0FFDAE72000FFF716FF8B
:103280001C2304229843F1E72000FFF70FFFE322FD
:103290000240EDE727212000FFF708FF0306C7D50E
:1032A000C9E7C046E805002010B50A1C04001F2924
:1032B00000D91F22D3B2E272227B002A01D05B0820
:1032C000E37211212000FFF7F1FE1F230200E07AD4
:1032D0009A430243D2B211212000FFF76DFF10BDC7
:1032E0000023154A70B51370144A28211380144A1C
:1032F00004001380134A04251370134A1370134AF1
:103300001370134A1380FFF7D1FE284209D03D21E4
:103310002000FFF7CBFE0543EAB23D212000FFF776
:103320004BFF402220002521FFF746FF23680321A1
:103330005B6A2000984770BDE9050020EA0500207F
:10334000EC050020A4050020A6050020A50500200E
:10335000E60500200368F7B55B6A0C000121050053
:103360009847002C18D02B682800DB6A9847124F2A
:10337000BE21380000F036FC2300260010330193F4
:103380003178380000F02EFC019B01369E42F7D1C7
:103390002B6828001B6B984728003D21FFF786FE0D
:1033A00001230200601E84419A4322432800D2B2C6
:1033B0003D21FFF701FFF7BDF0050020F0B58FB00C
:1033C000019343790400837102AB9E1C0D0017002A
:1033D00000212C22300005F0D9F95F4B02AA13809E
:1033E000022393705D4B03935D4B04930723137388
:1033F00001339373013313745A4B53825A4B9382A4
:103400005A4BD3825A4B13835A4B53835A4B938351
:103410005A4BD383130030220133DA77584B02AA78
:103420005384584B9384584BD384584B1385584B33
:103430005385FF220DAB1A704E231F2D06D01E336D
:103440002B2D03D06D33562D00D00B3302AA5373AE
:10345000C0231F2D06D0803B2B2D03D08033562D4B
:1034600000D1002302AAD3736B461B790121F377A5
:10347000207901F041FA0121207901F00DFA454847
:1034800000F058FB09220023627434322374A274C2
:10349000E3742375637500F0A5FF2F25060029004E
:1034A0002000AA22FFF788FE29002000FFF7FEFD7A
:1034B000AA2804D000F096FF801B3128EFD900F035
:1034C00091FF2F250600290020005522FFF774FEEA
:1034D00029002000FFF7EAFD552804D000F082FF04
:1034E000801B3128EFD900256B0002AAD15CFF298F
:1034F00007D09B185A7820000135FFF75DFEEDB22A
:10350000F2E700212000FFF725FF2368217B1B69DC
:1035100020009847236801215B6A2000984700F04B
:1035200061FF050027212000FFF7C0FD030604D43A
:1035300000F058FF401B3128F4D900F053FF451B21
:103540000020312D06D8A0790422134900F020FE76
:10355000012027810FB0F0BD0104000003020440E8
:10356000050306331942000025400000260700002D
:103570002810000029DCFFFF2E88FFFF2F2D000000
:103580003790FFFF384200003C8FFFFF3D120000E4
:103590006F300000F0050020AD2F000070B5040072
:1035A00000290AD001222321FFF706FE022523214C
:1035B0002000FFF77BFD2842F9D024212000FFF7EF
:1035C00075FD404200B2401070BD000010B50B4BBD
:1035D00004001B78032B01D0002010BD084B197884
:1035E0000029F9D1FFF7DAFF5A30F5DA2368200015
:1035F0005B6A012198470120EFE7C046E8050020FB
:10360000A4050020F8B5444B04001B78032B00D020
:103610007BE02821FFF74AFD430700D475E02368CB
:1036200001215B6A2000984723682000DB6A9847E5
:103630003A4D0021280000F0D5FA0021280000F0C2
:10364000D1FA031C422800D94223354A0021280020
:10365000137000F0C7FA334F00213880280000F0C3
:10366000C1FA314E00213080280000F0BBFA010081
:103670008301C0203A888000034013430A020240BD
:1036800030883B8002433280A27A002A04D122890A
:103690009A4201D0002B03D1214B1B78022B0BD86F
:1036A00000231F4A2000137023681B6B9847236870
:1036B00020001B6A9847F8BD1C4F033B2268080096
:1036C0003B707F2398431A4B0026187040231948FB
:1036D0000B4003709369200098473B78B34208D9A8
:1036E0000021280000F07EFA134B98550136F6B2FF
:1036F000F3E7002210492000CA5423681B6B984747
:10370000236803215B6A2000984700212000FFF70F
:1037100045FF0A4B1880CEE7E8050020F0050020A1
:10372000A4050020EC050020EA050020E9050020A2
:10373000A5050020A6050020A7050020E60500201D
:103740000F4B10B51A780400002A03D000221A701B
:10375000FFF758FF0B4B1B78032B0BD100200A4BB4
:103760001B78834205D0236820005B6A01219847BB
:10377000012010BD236820001B6A98470020F8E74D
:10378000EE050020E8050020A4050020F0B585B076
:1037900002930AAB1B780D003D2103930400160031
:1037A000FFF784FC04220243D2B23D212000FFF740
:1037B00003FD00F017FE07002000FFF707FF0028B9
:1037C0000AD100F00FFE0B4BC01B984204D82368AF
:1037D00020009B689847EFE700220192039A236834
:1037E0000092DF693200029B29002000B84705B033
:1037F000F0BDC046E7030000F0B587B00592002297
:103800001C4B1D4E1A701D4B049100229B5E3D21E6
:10381000039304003588FFF749FC04220243D2B227
:103820003D212000FFF7C8FC00F0DCFD0700200070
:10383000FFF7CCFE00280AD100F0D4FD104BC01BCE
:10384000984204D8236820009B689847EFE701223C
:1038500035800192002223680092DE69049A059B5C
:1038600029002000B0476A46044B92891A8007B0AD
:10387000F0BDC046A6050020EA050020E6050020B0
:10388000E703000010B50F2204000173002900D1E6
:103890000B3213212000FFF78FFC237B002B0CD071
:1038A00011212000FFF702FC1F2210404132024389
:1038B00011212000FFF780FC10BD8023E27A1A431B
:1038C000F6E770B55D2204000D1E00D1083A5A21BA
:1038D0002000FFF771FC7C22002D00D10C3A5C2106
:1038E0002000FFF769FC70BD8370002301704270F7
:1038F000C3700371704770B51D0014000E001000F6
:10390000012100F0C9FF0121280000F0C5FF0121BD
:10391000200000F0F1FF0121280000F0EDFF002160
:10392000200000F0E9FF0021280000F0E5FF012160
:10393000280000F0E1FF0121200000F0DDFF002160
:10394000280000F0D9FF330001222900200001F0F7
:103950009CF80121280000F0CFFF0021200000F09A
:103960009BFF200000F0F4FF0021884209D12800CD
:1039700000F0C2FF200000F0EBFF0138414241415E
:10398000C9B2080070BD70B50D000021280000F01C
:1039900083FF64240A2000F05BFD280000F0D8FFBC
:1039A000002808D0013CE4B2002CF3D10138431EBA
:1039B0009841C0B270BD0120FCE770B50C00150045
:1039C0002000002100F068FF01222900200001F002
:1039D00039F801210600200000F05EFF20000021E0
:1039E00000F08AFF2800012100F056FF2800012185
:1039F00000F082FF2800002100F07EFF200000215F
:103A000000F04AFF29000122200001F01BF83602D5
:103A1000C0B2304380B270BD70B50D0014002800F4
:103A2000012100F039FF2000012100F035FF2800BE
:103A3000012100F061FF2000012100F05DFF002165
:103A4000200000F059FF70BDF8B5150004001E00FD
:103A5000FFF751FF29002000FFF795FF32002900F2
:103A60002000FFF7AAFF0700320029002000FFF71F
:103A7000D3FF3800F8BD0000F0B5040085B01E008B
:103A80000AAB1B78103001930BAB1B781700029325
:103A90000CAB1B780D00039300F0F4F820002430E9
:103AA00000F0F0F8220000234032A363E3631370B8
:103AB00063729D4205D10A4B0A4A22210A4804F04A
:103AC000D1FD6B461B79200063716B461B7A256024
:103AD000E3716B461B7B2771A671237205B0F0BDA5
:103AE0006CB60000EBB600007DB60000437A002BF8
:103AF00004D18372C372C36001334372704730B51F
:103B0000040085B002AD00680291039201F0E4F870
:103B10006B79227AE17900932068002301F086FA1C
:103B20002979029A206801F0FBF8206801F0CAF8B0
:103B300005B030BD70B518260400FFF7D7FF33007D
:103B4000082120790D4D4343EB18595600F018FF1A
:103B500033000821A0794343EB18595600F010FFB9
:103B6000082160794643AD19695600F009FF044BFE
:103B7000200006CBFFF7C3FF70BDC04664B700004E
:103B80003406002007B5837A00910192002B07D0FC
:103B90009A070AD5EFF310835A425341C37272B6A3
:103BA0000099019AFFF7ABFF07BDDB07F8D5C368A3
:103BB000014A9BB29360F3E700180040837A002B20
:103BC00005D09A0704D5C37A002B00D062B670479F
:103BD000DB07FCD5C368024A9BB2D360F7E7C04657
:103BE0000018004010B5006801F07FF810BD00001B
:103BF0001FB5094A094B0A49136000235371137119
:103C000002930133019316330093162201330548C2
:103C1000FFF732FF05B000BD3406002000093D006B
:103C2000300D0020F0050020094B1868002809D14C
:103C3000EFF310820749002A08D172B6BFF35F8FF5
:103C400001320A701A6801321A6070470870F9E789
:103C5000400600203C060020084B1A68002A0CD0C1
:103C60001A68013A1A601B68002B06D1044B1B78B6
:103C7000002B02D0BFF35F8F62B670474006002072
:103C80003C060020FF23002110B504000370FC3B1C
:103C900041708170C170017143710C22083004F0D1
:103CA00075FD200010BD000001220B0010B513406F
:103CB00008D00D4B1A70042343708368002B00D08A
:103CC000984710BD0222114204D007490A70437080
:103CD000C368F3E704231942F3D0034A1370033394
:103CE00043700369EAE7C0464E48004110B5FFF74C
:103CF0009BFF0C4B1B8C1B071B0F0B2B0FD80A4A6F
:103D00009900885800280AD00F2408490A78A2434D
:103D100013430B70064B1978C9B2FFF7C5FFFFF7C5
:103D20009BFF10BD00480041440600203F48004171
:103D30004E48004100207047F8B505000E001700FE
:103D40000024BC4208D02B68315D1B6828009847CE
:103D5000002801D00134F4E72000F8BD70470300CB
:103D6000FC33196ADA69914203D01B6AC018007EDD
:103D7000704701204042FBE70300FC33D8691B6A0F
:103D8000C01A01D50130FF3070470000F7B501932C
:103D9000FA238026002504009B008360124B7600E6
:103DA00008330F004560290000920360320018308C
:103DB00004F0ECFC23002000FC332130DD613200F4
:103DC0001D622900FF3004F0E1FC87239B00E3180B
:103DD0005D609D606B461B78276123756B461B7980
:103DE000A57520006375FEBD40B7000070B50600E4
:103DF00018250C49006901F043F9306900F0B0FF63
:103E00002B000821307D084C4343E318595600F03D
:103E1000B7FD0821707D45436419615600F0B0FD7F
:103E200070BDC046A086010064B700008A2300224E
:103E30009B00C1540C3BC3185A609A6001238375E0
:103E40007047020010B5FC32536894680133DBB24E
:103E50009C4202D054680155536010BDF7B5002450
:103E60000500170001932000A24227D02B00FC334D
:103E7000DC611C620122286900F0B0FFA0421CD066
:103E80002E001836286901F018F8013401003000BE
:103E9000FFF7D7FF2869A74206D000F07FFF022175
:103EA000286900F085FFEDE700F06FFF019B002B14
:103EB00003D00321286900F07BFFE0B2FEBD10B5FE
:103EC0000123FFF7CBFF10BD002210B5837D934285
:103ED0000DD087239B00C4186368A4680133DBB24C
:103EE000A34204D02130FF30FFF7ABFF01221000C6
:103EF00010BD0300FC3399685A68914206D09A6855
:103F0000805C9A680132D2B29A60704701204042C8
:103F1000FBE700228A2370B59B00827505000E0026
:103F2000C15C006900F05AFF002806D1032128690E
:103F300000F03EFF0224200070BD872328009B0074
:103F4000EA18536894682130FF301C1B01D50134F6
:103F5000FF34002C0ED02C69FFF7CBFFC1B220003C
:103F600000F069FF0028E8D10321286900F020FF54
:103F70000324E0E7002EDED00321286900F018FFBB
:103F8000D9E710B50121FFF7C4FF10BD10B51830F7
:103F9000FFF7AFFF10BD70B50400006900F06BFFC4
:103FA000002814D0206900F074FF002810D0206988
:103FB00000F0F4FE0321206900F0FAFE8C239B0040
:103FC000E558002D39D10023FC34E361236270BD34
:103FD000206900F068FF002809D0206900F05EFF2A
:103FE000002804D0206900F063FF0028DFD020699A
:103FF00000F059FF002826D1206900F045FF002875
:10400000E5D0206900F054FF002837D087239B00BB
:10401000E218536892689B1A01D50133FF33FF21E0
:10402000002B05D020002130FF30FFF762FFC1B226
:10403000206900F012FFA075C9E7236820001B6902
:104040009847A847BFE7206900F0A8FE2069032130
:1040500000F0AEFE206900F02BFF0028B7D08723C8
:1040600000229B00E3185A609A600123A3758B23FA
:104070009B00E3589342AAD09847A8E72200FC325D
:10408000D369126A0133DBB22069934206D100F092
:104090007CFE0321206900F08BFE98E700F00DFF05
:1040A000010020001830FFF7CCFE206900F076FEFA
:1040B000EFE7000010B50248FFF76DFF10BDC046E6
:1040C0007406002010B51523142202490248FFF798
:1040D0005DFE10BD2C0D00207406002010B50248B6
:1040E00002F0A5F910BDC046A808002010B502488E
:1040F00002F09DF910BDC046E40A0020F7B5012486
:104100000326154F1549380000F046FD144915489F
:1041100000F042FD1449154800F03EFD14491548D1
:1041200000F03AFD1449154800F036FD144D1549CC
:10413000280000F031FD3900009623000194002290
:10414000114802F009F90096290001941E231F224C
:104150000E4802F001F9F7BD200D002000080042D2
:10416000000C0042240D002000100042280D002009
:10417000001400422C0D002000180042300D0020D9
:10418000340D0020001C0042A8080020E40A002092
:10419000F7B500921822162542434F4B07009B1893
:1041A0005D5701916B1C4ED04C4B4D4C1E68002E40
:1041B00027D1310044224B4804F0E8FA3100442270
:1041C000494804F0E3FA1022484B49491E60CA6787
:1041D000C021C120474B49005A5080001958FF3672
:1041E000B14319501A60444B444A5A800223227842
:1041F000134323706378DB09012BFBD00122374B7B
:104200001A6001231E00AE40626932436261019A66
:10421000002A18D0102D1FD1E2781343E370009BC1
:10422000042B0BD818000723A2789A4302F0A0FAB7
:10423000030C0E10120005231343A3702A4B019A9E
:104240001A64B6B2E660F7BD0423F5E70323F3E78B
:104250000223F1E70123EFE738000027002100F0F7
:104260008FFB224B1F499C461B68BA00BB421DD1E5
:104270006046013303608E501B4B01999950072D06
:1042800019DD0123083DAD000721A940144A9B0018
:104290009B189A698A439A61009A042AD1D810001F
:1042A000996902F065FA0B10121416008858B04292
:1042B000E1D00137D9E7AD000023E5E70522AA40A8
:1042C0000A439A61BDE70422F9E70322F7E70222D5
:1042D000F5E70122F3E7C04664B70000C00D0020F7
:1042E000001800407C0D0020380D0020C40D002077
:1042F00004E100E000E100E0000C004005400000A7
:10430000F8B50024094B1B68A34200D8F8BD084E3D
:10431000084FA5003369EA591A4204D0064BEB58FE
:104320009847EB5933610134ECE7C046C40D0020D7
:10433000001800407C0D0020380D0020054B10B502
:104340001B6C002B00D098470123034AD1780B4304
:10435000D37010BD380D002000180040FEE70000AB
:10436000034B10B51B68002B00D0984710BDC0460A
:10437000C80D002070B50F490F4CA14204D100F0C8
:104380008DF802F03DF9FEE70C4D00238D42F6D08A
:10439000CA18E818A24205D3094B8242EFD0094956
:1043A000002204E0006804331060F1E704C38B428C
:1043B000FCD3E4E700000020F002002008C0000069
:1043C000F0020020C413002010B500F064F80028AB
:1043D00001D100F055F810BD014B18607047C04680
:1043E000C80D0020014B18687047C046CC0D002056
:1043F000F7B51348012284461249134C8E6863684E
:1044000005689B0E1340019288686268019F920EB6
:104410003A4067463F6893420ED1BD420CD1864276
:104420000AD35B19FA254868AD00861B07486B4321
:104430007043000DC018FEBD3D0013000600E3E709
:10444000CC0D002010E000E000ED00E0555500002C
:1044500070B5041E10D0FFF7CBFF050000F01AF86E
:10446000FFF7C6FF054B401B9842F7D9FA23013CE2
:104470009B00ED18002CF3D170BDC046E70300008F
:1044800010B5034A13680133136000F049FB10BDF7
:10449000CC0D002070470020704700001E2270B530
:1044A00046484749436893431C3A134343600823F3
:1044B0008C6923438B61434C434B9C829C8A1443FD
:1044C0009C82DC681442FCD00124404A14701578A8
:1044D000254203D055786DB2002DF8DB012494609D
:1044E000547864B2002CFBDB394C5460547864B2CD
:1044F000002CFBDB8224E4015480547864B2002C4D
:10450000FBDB02249C840E34DD682542FCD0314C58
:10451000DC621024DD682542FCD09D8C2E4C2C439F
:104520009C841024DD682542FCD002249D8C8026CA
:104530002C439C844024DD683542FCD0DD68254254
:10454000F9D01024DD682542FCD000249460547812
:1045500064B2002CFBDB214C5460547864B2002C14
:10456000FBDB1C6A1E4D2C4080251C621C6AAC4380
:104570001C62032393601B4B536053785BB2002B88
:10458000FBDB0023FF240B72174A4B728B72CB723A
:10459000164B1A60164B174A1B6811689A065B0186
:1045A000C90E2340520F12020B431343124A1385C4
:1045B000802342681343436070BDC0460040004101
:1045C000000400400C06000000080040000C004001
:1045D00001050100B905FF7D040A00000007030082
:1045E000FFFCFFFF03060100006CDC02540000200A
:1045F000246080002060800000400042FA212D4BA2
:1046000010B51868890002F0BDF82B4B01389842AC
:104610004FD82A492A4A4860C020136A00061B0264
:104620001B0A0343136200238B6007330B60802156
:10463000136A09061B021B0A0B431362FC22214B5F
:10464000196A0A431A62FF22196A12020A431A629D
:10465000A022196AD2020A431A621B4B1C005A7824
:1046600052B2002AFBDB194A5A80194B1A00597EB4
:10467000C9090129FBD0C821890099800521D97079
:10468000537EDB09012BFBD0C02300205B011361AB
:10469000907000F049F863785BB2002BFBDB0D4BA8
:1046A0000D4A6380D379DB09012BFBD04123537082
:1046B00010BDFEE754000020FFFFFF0010E000E007
:1046C00000ED00E000040040000C00401E4000002F
:1046D0000040004221400000004800420F4B3022C1
:1046E00018600F490F4B0A2809DD9888904398807D
:1046F000243A0A605A7ED209012AFBD07047082862
:1047000006DD98889043202202439A800A22F0E72F
:10471000988802439A800822EBE7C0465C0000209C
:1047200058000020004000421F4900B50B004A7E9F
:10473000D209012AFBD001380A282FD802F018F834
:104740001B2E2E2E2E2E062E2E2411001A691749EE
:104750000A400F211A615A788A43110001220A4344
:1047600010E01A6911490A400F211A615A788A43E8
:1047700011000322F3E71A690C490A400F211A615C
:104780005A788A435A7000BD1A6908490A400F21B5
:104790001A615A788A4311000222E0E7F02219696F
:1047A00012050A43F3E7C04600400042FFFFFFF056
:1047B00010B5040006285ED007285ED0052800D872
:1047C0000E340121200000F0DBF80E2C0DD12D4B12
:1047D0001900DA79D209012AFBD002201A78824323
:1047E0001A70CB79DB09012BFBD027490B004A7EDD
:1047F000D209012AFBD018226243244CA418207C41
:104800001F240A692040A24302430A615A7ED2094A
:10481000012AFBD0022219780A431A705A7ED20963
:10482000012AFBD00222197B0A431A7301221A764D
:104830005A7ED209012AFBD00222197B0A431A733D
:104840001A7ED207FCD5588B80B25A7ED209012A33
:10485000FBD002211A788A431A705A7ED209012AA3
:10486000FBD00B4B1A680B4B1B689A4202D006D93F
:10487000D31AD84010BD2C24A3E72D24A1E79B1AFE
:104880009840F7E7004800420040004264B700004B
:10489000580000205C000020182310B50824434372
:1048A000134AD0180457013412D001249A56436891
:1048B0009C4003290CD808000E49D2015218D31885
:1048C000403301F055FF0210060B022119705460AD
:1048D00010BD0621197054609461F9E70621197022
:1048E00054605461F4E7022119709460F0E7C04607
:1048F00064B70000004400411823F0B50824584371
:10490000114A13181C5701341BD0012635005F686B
:104910008356BD400D4ADB019A18906805420BD1C1
:104920000C00601E8441D2194032107834400336A6
:10493000A400B04320431070044A9B18002901D101
:104940005D61F0BD9D61FCE764B70000004400417B
:10495000182310B50824434307490020CA181457E8
:10496000013408D05B560549DB015B18186A5368AF
:10497000D8400123184010BD64B700000044004136
:104980001822424370B52D4E0300B218127A52B26B
:10499000140001320ED0481C00240C280AD801F063
:1049A000E7FE071F1F1F1F1F1F1F1F0B0B0B0B00F7
:1049B00001246442200070BD092905D1002118009E
:1049C000FFF76AFF0024F5E70A2901D10839F6E765
:1049D00000240B29EED10A391800FFF75DFFE9E743
:1049E000182201205343F218F3565568144ADB018C
:1049F0006C089B18C9B228401C1900280ED00F2043
:104A0000303422780901024011434122C9B25B19B6
:104A10002170403319780A431A70D3E722000F2619
:104A2000303214785B19B443214311704122403372
:104A3000197804000A431A70BCE7C04664B7000046
:104A400000440041F7B5002507000E002C0001923C
:104A500030000121FFF750FF019B64B23800002BAA
:104A60000DD1FFF775FFA840044300213000013548
:104A7000E4B2FFF741FF082DEAD12000FEBDFFF7A9
:104A800067FF07235B1B9840EEE7F7B507000E00B2
:104A90000024012501920093019B002B14D12900D1
:104AA000A140009B380019404B1E9941FFF724FF9D
:104AB00029003000FFF720FF013400213000FFF70C
:104AC0001BFF082CE8D1F7BD072329001B1B9940C9
:104AD000E7E7F7B506000D000C008B180193019B6A
:104AE000671B9C4207D0336821781B6830009847C9
:104AF00001340028F3D13800FEBD10B503681B68EF
:104B0000984710BD014B18607047C04660000020F8
:104B10000122024B52421A607047C04660000020DA
:104B2000164A10B51368591C26D0013B1360002BA0
:104B300022D172B6124B134A0433934213D9124A4C
:104B400001211000147D0C42FCD02021148BFF3178
:104B50009B085B0021431183D3610C4B138001231D
:104B6000027D1A42FCD0BFF34F8F094B094ADA602D
:104B7000BFF34F8FC046FDE710BDC0466000002068
:104B800000200000030200000040004102A5FFFFDA
:104B900000ED00E00400FA05016070479446F0B5AE
:104BA0009E1E721E96416246056892072F68360661
:104BB0003A4332432A60072505AC24780068A401F3
:104BC0002940214342680024022B00D05C0311439A
:104BD00021434160F0BD30B5C0250368AD031C68BA
:104BE00012052A402243C0240904A4022140114393
:104BF000196003685A6814435C6030BD0123026881
:104C000011680B43136003681A68D207FCD4DA6991
:104C1000D207F9D470470223026811680B4313606E
:104C20000268D3699B07FCD4704703681A7ED207D9
:104C300002D41A7E9207FCD57047002203685A837B
:104C400070470368187E4007C00F70470368187EDE
:104C5000C0097047802302685B42117E0B431376C4
:104C600070470368588B8007C00F704702230268A3
:104C7000518B0B43538370470368187EC007C00FE6
:104C800070470368188DC0B2704703681A7ED20758
:104C9000FCD589B2012019857047012203689A75F5
:104CA0007047012203681A75704701230268116872
:104CB0000B43136003681A68D207FCD4DA69D20781
:104CC000F9D470470223026811680B43136002682D
:104CD000D3699B07FCD470470368DA699207FCD458
:104CE00002211A688A431A6070470268936A5B0A55
:104CF0005B021943916203681A7E5207FCD5986AD9
:104D0000C0B2704710B54900044801F03BFD80B2C5
:104D1000002801D0013880B2C0B210BD006CDC02A6
:104D200070B54B080C00012105680B400C402E6843
:104D300024075B07234333432B6011000468FFF70C
:104D4000E1FF207370BD0123026811680B431360FB
:104D500003681A68D207FCD4DA69D207F9D470471D
:104D60000223026811680B4313600368DA69920733
:104D7000FCD430215A8B8A43110010220A435A83F3
:104D80000268D3695B07FCD4704780230268DB02AA
:104D9000116851680B435360704700000368034972
:104DA0001A685A680A405A607047C046FFFFFBFF06
:104DB000032230B5036811401C68074D5A68090486
:104DC0002A40E4061143640F5960052C03D10268A0
:104DD000D3695B07FCD430BDFFFFFCFF490010B571
:104DE00011430468CBB2618B8906890F012904D075
:104DF000618B8906890F0229F5D1616AC90AC90246
:104E0000194361620368002A08D11A7ED207FCD5D3
:104E1000588B4007C30F012058400BE0187E8007D5
:104E2000C00FF5D11A7ED207F8D5C0225968920278
:104E30000A435A6010BD0368283319700368187E4E
:104E4000C007C00F03D15A8BD207F8D57047588BD3
:104E50004007C30F01205840F8E703682833197052
:104E6000036800201A7E520704D5588B012340079F
:104E7000C00F5840704703681868C006400F0438D8
:104E800043425841C0B270470368187E4007C00FC4
:104E900070470368187EC007C00F70470368588BBF
:104EA000C006C00F70470368187E8007C00F7047A8
:104EB0000368588B0007C00F704703681A68D20652
:104EC000520F052A02D11A7E9207FCD52833187892
:104ED000C0B270470368104A934213D00F4A9342FE
:104EE00012D00F4A934211D00E4A934210D00E4A6C
:104EF00093420FD001200D4A4042934201D1063027
:104F000040B270470020FBE70120F9E70220F7E7F5
:104F10000320F5E70420F3E700080042000C0042FC
:104F2000001000420014004200180042001C004221
:104F3000F8B5FFF7CFFF00282EDBC3001C481F2267
:104F4000C01805230579C35601201A409040032656
:104F5000C022184952001E40F6008850813AB240E3
:104F6000C024D243B440002B17DA0F263340083B4D
:104F7000114E9B089B009B19DE6932401443DC6193
:104F80003F231D408023DB011D430C4B08605D80E7
:104F90005A7852B2002AFBDBF8BD064E9B089B00F4
:104FA0009B19C026B6009F593A4014439C51E7E72D
:104FB000B4BB000000E100E000ED00E0000C0040A8
:104FC000F8B504000F0016001D00FFF7B1FF200028
:104FD000FFF714FE1C21BB000B4071072268090C6F
:104FE0000B431360842322689375012F1AD110217B
:104FF000012E00D008390C4B69431868C00001F03D
:10500000C1FB0722216802408B895203DB04DB0CC1
:1050100013438B81226803049089DB0C400B40030F
:1050200018439081F8BDC04654000020F7B5050034
:10503000019308AB1F780E001400FFF736FE28001E
:10504000FFF776FFC022240592031440BA070C270D
:1050500017433C43C02707223604BF022B683E405B
:1050600026431E60019B296813401A0080239B027F
:1050700013434B602A68D3695B07FCD4F7BD00007B
:10508000F8B504000F00FFF753FF2000FFF75BFEA9
:105090001422236879001A600C4B25681E683000C2
:1050A00001F070FB0A490400300001F06BFB7D2326
:1050B000FA215843C90001F065FBFF23241AE86870
:1050C000053C1C4098430443EC60F8BD54000020AC
:1050D00040420F003F20704713B56B460268D971FC
:1050E0000733546819000122A04716BD10B50221EC
:1050F000006900F057FC10BD10B50321006900F0F5
:1051000067FC10BD10B51300084A0400D279002ACC
:1051100003D101230020636010BD0A000069032150
:1051200000F04EFD0028F4D0F6E7C04668000020ED
:1051300010B5054C23685A1C04D103685B69984775
:1051400003002060180010BDB4000020074B0200CF
:10515000186810B5411C03D0012252421A6010BDDC
:105160000221106900F01EFDF9E7C046B4000020DE
:1051700010B503784222023303700249024800F05E
:10518000CBFD10BD70000020EC0D002010B50178A3
:10519000020043780020A12908D1212B05D1072244
:1051A0001649174800F0B8FD012010BD2129FCD197
:1051B000202B13D107221149114800F04DFC9622F3
:1051C0000E4BD200196891420ED10124D8790440C7
:1051D0000AD1FA20FFF796FC0020E6E7222B06D141
:1051E0009278064BDA71EAE7FFF792FCF4E7232B9B
:1051F000DBD15288034B1A60D7E7C0466800002015
:10520000EC0D0020640000207047F7B50500019107
:105210001700FFF7E7F80024E860BC4211D2019ABA
:105220003B1B12190221286900F050FC061E01D018
:10523000A419F2E7FFF7D6F8EB68C01AAB689842FA
:10524000F6D32000FEBD0000FA220021054B92009B
:105250009A60054A596008321A60044A19761A6140
:105260007047C046D00D0020E4BB0000EC0D0020CC
:10527000704770B50F26CB1D013902003240D5B200
:105280002C0000093034092A00DD07341C70013B72
:105290008B42F2D170BD10B50400806903F03EFA74
:1052A000A06A03F03BFA200010BD10B50400FFF720
:1052B000F2FF200001F0CAF9200010BD70B50329EB
:1052C00008D1324B8000C058002802D00368DB6848
:1052D000984770BD82291FD1C3B22D4D5A01AA181B
:1052E00091692C4C80010C40C021890521439161BA
:1052F000294908334018802150612A685B01D01881
:1053000004794942214301717020995C814308006E
:10531000302101439954DCE70029DAD1C024C1B21D
:105320001B4E4A01B21893681A4DA4052B40234323
:1053300093601A4B8001C0180B005060306807263C
:1053400008335B01195CB1430E000121314319544C
:1053500091690D402C43946170240F495161195C8F
:10536000A1430C0010212143195491680C4CC3181F
:105370000C4080214903214391609168890B890386
:105380009160402259790A435A71A2E7F00D00203A
:10539000A4120020FFFFFF8F180E0020D80F00205E
:1053A000FF3F00F0EFF3108303600123436072B608
:1053B00070470368002B02D162B6BFF36F8F70474E
:1053C00037B5056904006846002D14D1FFF7EAFFE0
:1053D000019B621D013B02D3D57FEDB2FAE768461F
:1053E0000193FFF7E6FF002D01D100203EBD206AAA
:1053F000E369C01AFAE7FFF7D5FF22000025019BF9
:105400003432013B02D31578EDB2FAE768460193D6
:10541000FFF7CFFF002DE8D0206BE36AE9E700003B
:10542000FF2130B54368164D1A6883680B405B0155
:10543000D21801235218947A2343937283684268E6
:105440000B405B01D418C268A36892042B40120978
:105450001343A360836842680B405B01D3189A68CA
:10546000920B92039A6043681A6883680B40083372
:105470005B01D318402219790A431A7130BDC04626
:10548000FF3F00F0F7B5036904000E0017006846FF
:10549000002B45D1FFF786FF019B611D013B5A1C84
:1054A0000CD0CD7F5A1EEDB2002D05D16846019378
:1054B000FFF77FFF2800FEBD1300F0E76846019369
:1054C0000025FFF776FFE369AF420AD0226A9A42CD
:1054D00007D95A1CE261A269D3181B7873550135AC
:1054E000F1E7226A9A42E5D10023E36101332361A7
:1054F0006846FFF757FF22000021019B671D013B13
:105500003532581CD2D0F97710785E1E002805D0AD
:10551000117020000193FFF783FFECE73300F0E701
:10552000FFF740FF2100019B3431013B5A1C06D09C
:105530000D785A1EEDB2002DB8D01300F6E768467C
:1055400001930025FFF735FFE36ABD4202D0226BCD
:105550009A421CD8226B9A42ACD100236846E3627F
:105560002361FFF71FFF270022000021019B343732
:10557000013B3532581C99D0397010785E1E0028D6
:105580000DD0117020000193FFF74AFFEBE75A1C82
:10559000E262A26AD3181B7873550135D4E7330051
:1055A000E8E7F7B5FF21826843680A401B680832C4
:1055B00052019A18D3790400DB072AD50125D57149
:1055C000836842680B405B01D3189A684069920473
:1055D000920C002821D12262226A002A3ED0A26ABF
:1055E000656168465A60FFF7DDFE27002100019BD8
:1055F000661D013B343735315A1C2BD0F5773A788C
:10560000581ED2B2002A05D0019368460D70FFF7EC
:10561000D0FEF7BD0A700300EEE72263226B002A7A
:105620001CD000226261A26968465A60FFF7BAFE88
:1056300026002100019B3436013B671D35315A1C81
:1056400008D03570FA7F581ED2B2002ADCD10A7019
:105650000300F4E768460193FFF7ABFE2000FFF775
:10566000DFFED6E737B56B46DC1D00230D002000BA
:105670002370FFF77DFD2B681818286001F01EF8D5
:10568000210000F0E7FF2B681818286020783EBD45
:1056900003290ED180220E4B62311B68FF31585C0A
:1056A000524202435A5468226339FF32FF399954F7
:1056B00070470129FCD18022054B24311B68FF3142
:1056C000585C524202435A5428222339FF32EDE7F4
:1056D000A412002070B50025304B012104001A20CF
:1056E0001D70FFF7D9F801211A20FFF705F92C4B9F
:1056F000012119201D70FFF7CFF801211920FFF7B4
:10570000FBF82023274A0F20D1690B43D3610122E4
:1057100025490B7813430B70244B1978814319707A
:1057200006211D782943197021490D782A430A70F2
:105730001A7802401A70602219780A431A701D4BB9
:105740001D4A5A805A78D209FCD11C48FEF744FE03
:105750001B4D280000F0C4FF280000F0D9FF7F2176
:105760002A68C120137880000B40137004232A6834
:1057700011780B430C2113702A6813898B4311494C
:1057800013810B581B021B0A0B5080230B601178EE
:105790007E3B0B4313700123237070BD0D0E002060
:1057A0000C0E002000040040584400413C440041DD
:1057B00059440041000C0040064000008D6100008B
:1057C000A412002000E100E00078002810D00121A0
:1057D000084B1B681A898A431A810822198B0A43CD
:1057E0001A830422198B0A431A830022024B1A607F
:1057F0007047C046A41200209C12002010B50F4A2A
:1058000093699B0B9B03936113680222FF331A7207
:105810009879823A02439A711A7A9207FCD57F24CA
:10582000074A2140937A0800A343190080230143CB
:105830009172917A5B420B43937210BDA4120020C7
:105840000050004110B50B790C00002B0CD1080062
:10585000FFF79CFC002801D0012010BD094A936984
:105860009B0B9B039361F7E700F028FF210000F0FA
:1058700015FF0028F0D1034A93699B0B9B039361AA
:10588000EBE7C046A4120020F8B50D00832A19D119
:10589000CBB2364C5A01A21891693548AD01084087
:1058A000C021890501439161324920686D1870213A
:1058B000083355615B011A5C8A43110040220A4398
:1058C0001A54F8BD022A4CD12B4A8B009858002854
:1058D00002D003685B699847382000F0B3FE274B7D
:1058E000802703600023214E7F00421D0362036175
:1058F0004361C36146608560C760D3772F3204007F
:10590000C362036313703800537002F0FDFEA061A0
:10591000380002F0F9FE2A00A062FF200240510187
:1059200071188B68124FAD001F40C0239B053B438D
:105930008B6013003168072608335B015A5CB24361
:105940001600032232435A54A368626803405B0185
:10595000D318A26920005A60FFF762FD064B5C5124
:10596000AFE711002800FFF7A9FCAAE7A412002066
:10597000FFFFFF8F180E0020F00D002010BC00006C
:1059800070B505000124064BA200D258002A05D0AC
:1059900021002800FFF778FF0134F4E770BDC0460E
:1059A000B8000020084B8A00D05810B5002803D05A
:1059B00003689B68984710BDC9B2044B4901591848
:1059C00088688004800CF6E7F00D0020A412002007
:1059D00010B50C00FFF7E6FF00280CD0064BE4B230
:1059E0001B68083464011C19802362795B421343ED
:1059F00063710223E37110BDA412002070B5CBB215
:105A0000124A13485C018901891802195160916892
:105A1000104D08330D4080218902294340259160B3
:105A20009168890B8903916001685A018A18167977
:105A30003543157195796D06FCD55B01C918CB7995
:105A4000DB07FCD500198068C0B270BDD80F0020FC
:105A5000A4120020FF3F00F070B5140040220B4B51
:105A60000D001B68FF3359790A435A710021FFF773
:105A7000C5FFA04200D9200000230549A34203D05E
:105A8000CA5CEA540133F9E770BDC046A412002095
:105A9000D80F002010B5C9B20B48490142189368CD
:105AA0009B049B0C3F2B0BD99468403B9B04A40B9D
:105AB0009B0CA4032343936041188868C0B210BDB7
:105AC00093689B0B9B03F6E7A4120020F0B51C0023
:105AD0002F4B85B01B6806000D000192002B54D09F
:105AE0002C4F3978C9B2002902D11920FEF704FFE2
:105AF00064233B70284BAA00D058002808D00368C4
:105B000022005B68019998470400200005B0F0BDB1
:105B100029003000FFF746FF844204D929003000F5
:105B2000FFF740FF040029003000FFF7B3FF012119
:105B3000EBB21A4F03935B010293029A3B68019800
:105B40009B18FF335A7A0A435A72154BA901C91898
:105B5000220002F0FFFD002CD7D029003000FFF713
:105B600021FF0028D1D14021039B3A6808335B0113
:105B7000D3181879014319710121D971029BD318E7
:105B8000FF339A7A0A439A72BFE701246442BCE762
:105B90009C1200200C0E0020F00D0020A41200200A
:105BA000D80F002013B56B46DC1D22000123FFF740
:105BB0008DFF012801D1207816BD01204042FBE76E
:105BC000F0B51E003A4B85B01B680F000192002B08
:105BD0003FD08023DB019E423BD8364C2178C9B2AE
:105BE000002902D11A20FEF787FE642300252370C6
:105BF000314BBA01D3180293002E2CD02F4B1B68C7
:105C00000393FF233B401C0000930834039B640173
:105C10001C19A379DB0921D0294B2A49186800F007
:105C2000B1FD294B1721584300F0ACFD274BE27919
:105C3000920713D4DA5D002A01D10138F7D201228C
:105C4000DA55009B5A011D4B9B189A69920B9203DF
:105C50009A6101256D42280005B0F0BD00221B4B62
:105C60003400DA55402E00D94024220001990298D0
:105C700002F070FD009BA1045A01104B890C9B1887
:105C8000029A2D195A619A69361B920B92030A43A4
:105C90009A61009B039A08335B01D3180222DA71E0
:105CA0005979823A0A435A71019B1B190193A3E760
:105CB0009C1200200D0E0020180E0020A4120020BF
:105CC0005400002040420F00701101000F0E002010
:105CD00070B50D001C000D4BAE01F6181100300020
:105CE000220002F037FDEDB209496D014D196E61D8
:105CF000AB69084A20001340AB61AB69A2049B0B5F
:105D0000920C9B031343AB6170BDC046180E00207C
:105D1000A4120020FF3F00F0F7B5104B01901B7854
:105D20000F001500002B0CD10D4B16001C78002C19
:105D300009D00C4E0C4834882018641902F00AFD72
:105D400034802800FEBD002EFBD03A19330000211C
:105D50000198FFF7BDFF2418361AF4E798110020C8
:105D6000991200209A12002099110020F8B5002005
:105D700000AF0E001500012A27D9D31D6A46DB08A3
:105D8000DB00D31A9D46080003F07EFB6C4603231C
:105D9000022200210130400020706370AA420DD21F
:105DA000307800280AD0531CDBB20136A0549D4243
:105DB00003D00232E154D2B2F0E72A0021000448B5
:105DC000FFF7AAFF431E9841C0B2BD46F8BDC046CA
:105DD000EC0D0020F0B50024012685B0184B0F0013
:105DE00069461E7005000094FFF73CFC154B01A9A5
:105DF0000B806A3BFF3BCB716E3B0B72009B8C713F
:105E000009334B800E4B4E7108711C703A00092FFC
:105E10000FD00D4F09223E700C4E280000943480A4
:105E2000FFF77AFF69462800FFF71CFC3288084913
:105E30003C702800FFF770FF012005B0F0BDC046A0
:105E40009811002009020000991200209A120020E7
:105E500099110020F0B5CF7893B005000E00022F05
:105E600009D1C9882B48FFF7B5FF441EA041C4B231
:105E7000200013B0F0BD00F021FC310000F0FEFB6B
:105E8000002803D0C417241AE40FF1E7012F0BD127
:105E9000F2882149112A11D8D2B2002A0ED0280046
:105EA000FFF73AFF0124E3E70400032FE0D1B378C2
:105EB000002B05D1F2881949032AEDD90A78EEE7BB
:105EC000022B06D1B27916492800FFF74FFF0400D4
:105ED000CEE7012B02D1B2791249F5E7032BC7D1E6
:105EE000114B01A91868FFF7C4F9104B03A91868F2
:105EF000FFF7BFF90E4B05A91868FFF7BAF90D4B6C
:105F000007A91868FFF7B5F96B460533DC77B27956
:105F100001A9D9E7EC0D002041BC000034BC000011
:105F200028BC000038BC00000CA0800040A080000D
:105F300044A0800048A0800037B5050048780C00D8
:105F40000B2810D800F014FC061B0F2B0F41466ED7
:105F50004A4D676A097801AA002906D102231180F7
:105F60002800FFF7B5FE01203EBD002313802E4B15
:105F70001B78012B00D1137002230021F0E78A78EF
:105F80000023012A03D101AA1380284BF0E7264AF7
:105F90001370274A93699B0B9B039361E3E78C780B
:105FA000012C06D10021214B01AA1C701170230085
:105FB000D6E700208442D7D11B4B01301C4A187011
:105FC00093699B0B9B039361CEE789782800FFF7C9
:105FD00015FCC8E72800FFF73DFFC5E70123154A78
:105FE000CBE70B780020DB06BED12800FFF7C8FC0A
:105FF0002A200221A2780F4BFF301A600C4A136846
:106000001C5C21434A241954FF34195D2938FF3898
:1060100001431955D4E70123074AAEE78A78064BB6
:106020001A60B6E700209FE70E0E0020160E002033
:10603000A41200209C120020A01200204B4BF7B5A8
:106040001C780700002C00D083E0494E33689B8BFE
:106050001B070ED521002000FFF730F9326810230E
:106060001100FF31887A03438B72424B1C60082376
:10607000938333689A8B52071FD504229A833E4A32
:106080001378002B0AD01378013BDBB2137013781E
:10609000002B03D101211A20FEF72EFC374A13787A
:1060A000002B0AD01378013BDBB213701378002B5E
:1060B00003D101211920FEF71FFC3368FF331A7A40
:1060C000D2061ED510221A72597930320A435A71FB
:1060D00060232B4938000A781A423BD1FFF72CFF86
:1060E0003368FF33002838D08022997952420A431E
:1060F0009A711A7A520604D540221A72597A0A43C2
:106100005A72336800241D8C01239D43EDB2019324
:10611000E1B2002D1DD02B002341019A134215D06E
:106120002300326808335B01D318DA79D20702D42E
:10613000DB799B0707D5134BA200D058002810D05D
:1061400003681B689847019BA3409D430134092CB9
:10615000DED1F7BDFFF776FBC2E720210A4A917135
:10616000C7E73800FFF794FAEDE7C0469912002020
:10617000A41200209C1200200D0E00200C0E002006
:10618000D80F0020F00D0020FF50004110B502484C
:10619000FFF754FF10BDC046EC0D0020014B024A32
:1061A0001A607047A412002000500041012070477F
:1061B00010B50368014A1B6A984710BD130400001C
:1061C0000300FC33D9699A69914203D0DB69C01896
:1061D000007D704701204042FBE710B504000069D4
:1061E000FEF70CFD22000023FC329361D36186226E
:1061F0009200A4186360A36010BDF0200140303904
:10620000484248417047F0231B0119408023062073
:106210009B0099420AD00133FF330130994205D0E7
:10622000802302385B00994200D0002070470F2085
:1062300001400020012903D00239481E8141481C39
:10624000704700008923F0B5182685B002919B00A5
:106250000400C05C330008214343324D1700EB18A3
:106260005956FEF78DFB304B0821E05C3300434369
:10627000EB185956FEF784FB2C4BE25C0393022A81
:1062800009D11133E05CFF2805D008214643AE193F
:106290007156FEF775FB8A26B600A05DFF2819D05F
:1062A0000121FEF7F9FA1822A35D21495A43AB56A2
:1062B000AD18DB0158188B21890060501D4901225F
:1062C0005B188C218900635069688A408D218900A0
:1062D00062501A600122029B11002069FEF770FED5
:1062E00039002000FFF78FFF390005002000FFF77D
:1062F0009EFF390006002000FFF77FFF330000906B
:10630000290020690122FEF749FC0B4B2069E25C61
:10631000039BE15CFEF75FFC2069FEF77CFC05B0A7
:10632000F0BDC04664B7000025020000270200004F
:10633000184400411444004126020000802210B598
:1063400004005200002102F021FA23000022FC3355
:106350005A6020009A6010BDF7B51D0008AB1B788D
:106360000400009309AB1B781600019300234360DF
:10637000FA239B008360114B0F0008330360143035
:10638000FFF7DCFF20001D30FF30FFF7D7FF892328
:106390006A469B002761E654094B1278E554094B85
:1063A0002000E2546A46084B1279E2548A22293BC3
:1063B000FF3B9200A3541032A354FEBD54BC000016
:1063C0002502000026020000270200000300FC3323
:1063D00058689B68C01A01D50130FF30704710B56E
:1063E000040020001D30FF30FFF7F0FF0028F8D137
:1063F0002069FEF71AFC10BD10B51430FFF7E6FF58
:1064000010BD0300FC3359689A68914204DB5A6856
:106410009868801AFF30704798685B68C01A013826
:10642000F9E710B51D30FF30FFF7EBFF10BD10B5D9
:1064300004000069FEF715FC002805D02069FEF76E
:1064400020FC2069FEF712FC2069FEF7FAFB002809
:1064500020D02069FEF715FC2200FC329369D16937
:106460000133DBB28B4203D09169611808759361E7
:106470008A239B00E35CFF2B0CD020001430FFF735
:10648000C0FF092806DC8B238D229B009200E35875
:10649000A2581A602069FEF7EFFB00281AD02000EE
:1064A0001D30FF30FFF792FF002822D086239B008B
:1064B000E31899685A68914218D08E219A68490069
:1064C000A218515C9A680132D2B29A60C9B22069AE
:1064D000FEF7DBFB2069FEF7B9FB002805D0206939
:1064E000FEF7B8FB2069FEF7A8FB10BD0121494269
:1064F000ECE72069FEF7D5FBECE7000070B504007F
:1065000000690D00FEF7B8FB00283ED1FF26862368
:106510009B00E3185A689968013232408A4223D1BD
:10652000EFF31083DB0710D41E4B5B68DB05DB0D3C
:10653000EDD0103B5BB2002B10DA0F221340083B6A
:106540009B08194A9B009B181B682069FEF794FB67
:106550000028DCD02000FFF76AFFD8E79B08C03393
:10656000124A9B009B58F0E75A68013216409A681D
:10657000964205D08E215A684900A21855545E6093
:106580002069FEF78AFB012070BD20001D30FF301E
:10659000FFF71CFF0028B9D129002069FEF775FB21
:1065A000F1E7C04600ED00E01CED00E000E100E096
:1065B000030070B5FC33D9699A69040091421AD07E
:1065C000DA698218157DDA690132D2B2DA618A237A
:1065D0009B00E35CFF2B0CD020001430FFF711FF71
:1065E0000A2806DD8C238D229B009200E358A258D6
:1065F0001A60280070BD01256D42E8E77047000071
:1066000010B5FDF7FBFF02F05BF8FFF7F7FF012085
:10661000FDF71EFF094C2000FFF75CF82000FFF794
:10662000D3F8FBF781FDFBF769FDFDF733FF044B62
:10663000002BF8D000E000BFF5E7C046EC0D0020CD
:106640000000000010B502F05FF810BD10B502F0B8
:1066500065F810BD70B50E0000254468002C0BD005
:10666000236831005B6820009847002802DB2D1862
:10667000E468F3E701256D42280070BD70B50D0098
:106680004468002C08D0236829009B6820009847A4
:10669000002802D1E468F4E7200070BD70B50D0059
:1066A0004468002C08D0236829001B682000984704
:1066B000002802D1E468F4E7200070BD0121054AFA
:1066C00010B5136804480B4003D1044C43600480A8
:1066D000116010BDA8130020AC13002002040000BC
:1066E00070B50400012304CC0500117820000B4391
:1066F000137080220021520002F048F82B689A782B
:10670000D207FCD49A789207F9D45C6270BD00007D
:106710001F22144BF0B51B68590B9C0C9B011140B8
:1067200014405B0F914200D105211F2C00D1023C87
:10673000072B00D1043B02688F01158D0A491F26E3
:1067400029403943118505683440298D0A00B24338
:1067500022432A8500681903028D044B13400B4322
:106760000385F0BD246080003FF8FFFFFF8FFFFF2F
:1067700002B4714649084900095C49008E4402BCD4
:106780007047C046002243088B4274D303098B42F2
:106790005FD3030A8B4244D3030B8B4228D3030CF1
:1067A0008B420DD3FF22090212BA030C8B4202D393
:1067B0001212090265D0030B8B4219D300E0090ABB
:1067C000C30B8B4201D3CB03C01A5241830B8B42C4
:1067D00001D38B03C01A5241430B8B4201D34B03AD
:1067E000C01A5241030B8B4201D30B03C01A524112
:1067F000C30A8B4201D3CB02C01A5241830A8B4297
:1068000001D38B02C01A5241430A8B4201D34B027F
:10681000C01A5241030A8B4201D30B02C01A5241E3
:10682000CDD2C3098B4201D3CB01C01A5241830997
:106830008B4201D38B01C01A524143098B4201D3D1
:106840004B01C01A524103098B4201D30B01C01AFC
:106850005241C3088B4201D3CB00C01A5241830876
:106860008B4201D38B00C01A524143088B4201D3A3
:106870004B00C01A5241411A00D201465241104603
:106880007047FFE701B5002000F0F0F802BDC046F8
:106890000029F7D076E7704703460B437FD40022E8
:1068A00043088B4274D303098B425FD3030A8B42A4
:1068B00044D3030B8B4228D3030C8B420DD3FF220E
:1068C000090212BA030C8B4202D31212090265D0DC
:1068D000030B8B4219D300E0090AC30B8B4201D38F
:1068E000CB03C01A5241830B8B4201D38B03C01AD6
:1068F0005241430B8B4201D34B03C01A5241030B4D
:106900008B4201D30B03C01A5241C30A8B4201D3FD
:10691000CB02C01A5241830A8B4201D38B02C01AA8
:106920005241430A8B4201D34B02C01A5241030A1F
:106930008B4201D30B02C01A5241CDD2C3098B4204
:1069400001D3CB01C01A524183098B4201D38B0181
:10695000C01A524143098B4201D34B01C01A524124
:1069600003098B4201D30B01C01A5241C3088B4269
:1069700001D3CB00C01A524183088B4201D38B0054
:10698000C01A524143088B4201D34B00C01A5241F6
:10699000411A00D201465241104670475DE0CA0FCD
:1069A00000D04942031000D34042534000229C468D
:1069B00003098B422DD3030A8B4212D3FC22890197
:1069C00012BA030A8B420CD3890192118B4208D36D
:1069D000890192118B4204D389013AD0921100E0CF
:1069E0008909C3098B4201D3CB01C01A52418309E3
:1069F0008B4201D38B01C01A524143098B4201D310
:106A00004B01C01A524103098B4201D30B01C01A3A
:106A10005241C3088B4201D3CB00C01A52418308B4
:106A20008B4201D38B00C01A5241D9D243088B420A
:106A300001D34B00C01A5241411A00D201466346AD
:106A400052415B10104601D34042002B00D5494211
:106A5000704763465B1000D3404201B5002000F050
:106A600005F802BD0029F8D016E770477047C04608
:106A70008446101C62468C46191C634600E0C046E2
:106A80001FB500F0F1FE002801D40021C8421FBD4F
:106A900010B500F049FE4042013010BD10B500F0C5
:106AA000E3FE002801DB002010BD012010BDC04620
:106AB00010B500F0D9FE002801DD002010BD012036
:106AC00010BDC04610B500F06BFE002801DC0020B0
:106AD00010BD012010BDC04610B500F061FE0028B9
:106AE00001DA002010BD012010BDC046F0B54F46B0
:106AF0004646D6460C000903C0B5490A470F5E005A
:106B000039431F03DB0F9C4665007B0A570F1F4369
:106B10006D0DE40F760DA146C000B846D200AB1B48
:106B200064457BD0002B5FDD002E00D0A4E03E004A
:106B3000164300D112E15E1E002E00D09EE1871A9E
:106B40004346B84280410125C91A4042091A0B0246
:106B500000D431E149024E0A002E00D16EE130002E
:106B600001F062FD0300083B1F2B00DD61E12022E4
:106B70003900D21A9E40D1409F400E439D4200DD15
:106B800051E15D1B6B1C1F2B00DD7CE12021C91A2C
:106B90003D0030008F408840DD40791E8F4131003C
:106BA00007222843D940002507433A40002A09D04C
:106BB0000F233B40042B05D03B1DBB42BF417F420E
:106BC000C9191F000B0200D426E26A1CC64B5505EA
:106BD0006D0D9A4200D106E1C44AFF080A405307EE
:106BE00052023B43120B8EE0002B00D0B8E06B1C2E
:106BF0005B055B0D012B00DC30E1871A4346B84290
:106C0000B641CB1A76429E1B330200D54CE13B00C5
:106C10003343A1D100220024002570E0002B00DCCA
:106C2000E5E0002E00D183E0AF4EB54260D0802673
:106C300036043743B846382B00DC3EE14346134365
:106C40001F007A1E97413F18874280414042091831
:106C50000B0200D4B0E0A44B01359D4200D1C3E04B
:106C6000A24A7B080A4001210F401F435108D30765
:106C700007221F433A4099E79B4EB54238D0802601
:106C800036043743B846382B00DDDCE01F2B00DC30
:106C900030E11E004746203EF740BC46202B04D082
:106CA0004026F31A46469E403243170063467A1E3A
:106CB00097411F43CCE0002B00D104E2434613432D
:106CC00000D159E14B07C00818438023C9081B03B2
:106CD000194208D04546ED081D4204D14346D0086C
:106CE000590708432900420FC9007F4D1143C000D6
:106CF0004B07CA087C49C00803438D4268D0120381
:106D00006D05120B6D0D002112031800130B0A0DF7
:106D100012051A43764B2D0513402B435B00E40705
:106D20005B08234319001CBC90469946A246F0BD5F
:106D30003E00164312D05E1E002E00D000E18718E0
:106D40008742804141444042091801250B0233D556
:106D5000022585E764463300414610001D00C7E761
:106D6000002D00D0DAE00C000443F3D05C1C00D10D
:106D70009FE15D4CA64200D12FE1DB43382B00DDC3
:106D800066E11F2B00DD83E120240500E41A0F00DB
:106D9000DD40D940A0404346A7405B1A441EA041B5
:106DA00098462F433843171ABA42924143465242FB
:106DB000991A64463500CAE607223A40002A00D0F4
:106DC000F6E64B07CA084849FF083B438D4296D177
:106DD0001900114300D19EE1802109030A431203E7
:106DE000120B414D8FE71500002200238BE7002B8B
:106DF00000D0C7E06B1C5F057F0D012F00DCF1E0C8
:106E0000394DAB4200D1B9E085180A00854289416D
:106E10004244494251180722CF076D082F434908C1
:106E20003A401D00C2E607223049ED1A31403A408F
:106E3000BCE63E002838864000279FE6380001F077
:106E4000F3FB20308EE6434613431F007A1E974122
:106E5000C71BB84280414042091A78E60E003B0049
:106E600006431343002D61D1002E00D0F4E0002B27
:106E700000D11BE164463900100039E71A4FBB42CC
:106E80007AD03300FFE630001F3DE840202B03D0CE
:106E90004021CB1A9E4037437B1E9F410722074368
:106EA0003A400021002589E7171A4346BA42B64105
:106EB000591A76428E1B64464EE61F2B00DDADE06C
:106EC00020264746F61AB740B9461700B246DF40BB
:106ED0004E463E4337005646B240561EB241174317
:106EE0004246DA408918AEE6FF070000FFFF7FFF49
:106EF000FFFF0F8020264746F61AB740B946170015
:106F0000B246DF404E463E4337005646B240561E1C
:106F1000B24117434246DA40891A99E77F4CA642AC
:106F20005BD0802424045B42214327E7002E0CD150
:106F3000002B00D1CBE0644639001000774DD7E636
:106F4000764FBB4218D0330075E6002B14D04B07A8
:106F5000C00818438023C9081B03194207D0FC0846
:106F60001C4204D17907D0080843E14621004C4671
:106F7000420FC9001143C000684DB9E61D00002250
:106F80000023C0E6002D5BD10D00054300D1E2E6F1
:106F90005D1C00D1B0E0614DAE421FD0DB43382B09
:106FA00071DC1F2B00DD96E020250F00ED1AAF40AD
:106FB000B9460700AA46DF404D463D432F005546DF
:106FC000A840D940451EA84188440743BF189742AE
:106FD00092415142414435003AE66446350041460B
:106FE000100085E60B000343002D00D063E6002B64
:106FF000F5D04346134300D17AE687188742804193
:1070000007224144404209183A400B0200D4D5E619
:10701000434B01351940C9E5380069E61E00474673
:10702000203EF740BC46202B04D04026F31A4646AB
:107030009E403243170063467A1E97411F4302E683
:10704000364DAE42CAD080252D045B422943A6E7C7
:107050000843411E8841A6E6002B00D148E6871A66
:107060004346B842B641CB1A76429E1B33024BD5FB
:10707000171A4346BA429241591A5242891A0722B4
:1070800064463A4092E501430F00791E8F419DE727
:107090001C000F00203CE740202B03D04024E31AC3
:1070A00099400843411E884138437CE60022002471
:1070B00025E6171A4346BA429241591A5242891A92
:1070C0006446350043E541461000144D10E6802229
:1070D0000024120380E61D000F00203DEF40BC4657
:1070E000202B03D04025EB1A994008430700634644
:1070F000781E87411F4369E7871897429B414144A7
:107100005B42C9183500A3E53B003343CED00722CC
:1071100031003A4052E600231A00F4E5FF07000070
:10712000FFFF7FFFF0B55746DE464E464546E0B5C9
:10713000834607000E03480085B092461C00360BBC
:10714000400DCD0F002800D19DE0954B984239D0DD
:107150008023F6001B041E43924A7B0F334399465B
:10716000944603006344009300230026FF0002932B
:1071700023031B0B98466300E40F52465B0D0194FA
:1071800000D1B3E086498B4200D19EE04246D10057
:10719000802212040A435146490F11438B4681490C
:1071A00052468C4600996344CB1A0021D2000093CA
:1071B0002B0063409A460F2E00D905E17A4BB600AA
:1071C0009B599F465B463343994600D0B8E0022363
:1071D0000826002700900293CAE7CB463A0002999E
:1071E0000195019B9A46022927D0032900D180E20C
:1071F000012944D06D49009B8C4663441C00002C3F
:1072000038DD530700D013E2D2085B46DB0109D515
:107210005946674B19408B468021C9008C46009B1C
:1072200063441C00634B9C4207DC5B4664055F07BC
:107230005B0217431B0B620D02E000230027584A34
:1072400000211B031C0B0B0D1B05234314055A4A7D
:10725000380013401C4353466400DB0764081C439A
:10726000210005B03CBC90469946A246AB46F0BD15
:107270000122524201231B1B382B00DCADE100220E
:1072800000230027DCE75B46334399465ED0002E9F
:1072900000D18AE1300001F0C7F903000B3B1C2B41
:1072A00000DD7BE11D22D31A5A460100DA4008397D
:1072B0008E4013005F46334399468F403F4B002674
:1072C0001B1A00930023029352E7414653460B4397
:1072D0003B499B468C46009B634400935B46002BD6
:1072E0003BD1022300221E43022161E743461343A0
:1072F0009B4637D04346002B00D162E1404601F067
:1073000093F903000B3B1C2B00DD53E102004146C7
:10731000083A914088461D21CB1A5146D9400B00AE
:1073200041460B439B46534693401A00009B254918
:107330009C46604403008C4663440093002137E779
:107340000323B14600900C26029311E7002300931B
:1073500001330426002702930AE70323C3461E4392
:10736000032125E701331E430022012120E70023EA
:107370009A46802300271B03094A61E78023494678
:107380001B03194200D1E2E05946194200D0DEE069
:107390000B431B0317001B0BA246014A50E7C046D4
:1073A000FF07000001FCFFFF88BC0000FF03000096
:1073B000FFFFFFFEFE070000FFFF0F800DFCFFFF39
:1073C00001F8FFFFF3030000D94500D9CBE000D15D
:1073D000C6E03C0048460027009B013B00935B460B
:1073E000160E1B021E431302984633041B0C9946CB
:1073F000310C0191FFF74CFA4A4642430B04210C31
:10740000050019438A4207D98919013D8E4203D8E4
:107410008A4201D9851E8919881A0199FFF738FA1D
:1074200009048C464A46210464464243090C030081
:1074300021438A4204D98919013B8E4200D8F1E0E8
:107440002D041D43AB464346891A4246280C1204BC
:107450001D0C5B46140C22001B041B0C5A430394A6
:107460006B434443029568431B19150CEB189C426F
:1074700003D980246402A44660441C0C15041B0438
:107480002D0C20185D19814277D373D00C1AA24AB3
:107490007D1BAF42BF419446009B7F426344E01B8B
:1074A0001C00864200D1DBE00199FFF7F1F94A4662
:1074B00042430B04290C070019438A4207D9891952
:1074C000013F8E4203D88A4201D9871E8919881A42
:1074D0000199FFF7DDF909044A46894629044D461A
:1074E0004243090C030029438A4207D98919013B09
:1074F0008E4203D88A4201D9831E89193F04891A12
:107500003A00039F1A43380013041B0C584381466A
:107510000298150C6F43434345434846000C84468C
:10752000DB1963449F4203D98020400284466544AE
:1075300048461F0C00041B04000C7D191818A942B2
:1075400000D284E000D17FE001231A4357E6802374
:107550004A461B0313431B031B0BAA466F4A6FE6E5
:10756000BA4200D935E74B46DC0758087B081C4374
:10757000FF0734E70024AF4289D247444745A4417E
:107580005B466442A4196418013BA6421ED2A04285
:107590006DD800D1B6E0241A9B4678E703005A461E
:1075A000283B9A400027914688E6584601F03CF86F
:1075B000203072E603005246283B9A409346002250
:1075C000B4E6504601F030F820309AE6A642E2D107
:1075D000B845DCD9341A9B4659E71F2B65DC504C63
:1075E0000099A4465C46614408008C40110082402A
:1075F000D940501E82410C4314435A46DA401300CE
:10760000620709D00F222240042A05D02200141D4F
:107610009442894149425B181A0262D50122002333
:1076200000270DE68A4200D80AE7831E891907E77A
:107630000F231340042B00D1E6E5171D974292411A
:1076400053429B44FA08E0E5002800D1D7E57118C1
:10765000531EB14227D3A94215D358D01A0073E75D
:10766000002B00DC04E6012300229B44CDE502232D
:107670004744474589415B429C46494289190C1958
:10768000E344241A03E743465F0047459B41B8465D
:107690005B429E19023A8919A94200D054E740453D
:1076A00000D051E7ABE51A00F6E71F215F464942DB
:1076B0000C1BE740202B07D01A49009B8C466344E3
:1076C00018005B4683401A43501E82413A43072705
:1076D0000023174009D00F21002311401400042972
:1076E00095D122005F075B021B0BD20817430022D3
:1076F000A6E5802359461B030B431B0317001B0BF6
:10770000064A9DE5BD42B2D89B460024BFE68045AF
:10771000B9D31A00C3E7C046FF030000FF0700000B
:107720001E0400003E040000F0B54F464646D64613
:107730008446C0B58046194E18030F034D00000B58
:107740005C0082463F0B6D0DC90F9146640DDB0F47
:107750000120B5420AD0B44203D0A54201D1574519
:107760000CD01CBC90469946A246F0BD66463E43EE
:10777000F7D1AC42F5D154461443F2D10120C845AB
:10778000EFD1994207D0002DEBD163461F4338005B
:10779000471EB841E5E70020E3E7C046FF070000C9
:1077A000F0B54F464646D6464D00C0B50E03C90F4C
:1077B0008A462C491F035C008046360B6D0D9146AE
:1077C0003F0B640DDB0F8D421ED08C4216D0002D76
:1077D0001ED130438446002C01D13A4323D0624667
:1077E000002A1AD09A4529D0514602200139084072
:1077F00001381CBC90469946A246F0BD39001143A1
:10780000E5D002204042F4E73043FAD1AC420FD039
:10781000002C0FD13A43E7D00CE00122013B934307
:1078200018000130E5E763460020002BE1D0DBE7DC
:107830003A43E6D19A45D7D1A542D5DCA54205DB2E
:10784000BE42D1D808D00020BE42D2D25046012339
:10785000013898430130CCE7C845C5D80020C84559
:10786000F4D3C6E7FF070000F0B54F464646D646BC
:107870004D00C0B50E03C90F8A462E491F035C0098
:107880008046360B6D0D91463F0B640DDB0F8D422C
:1078900018D08C4211D0002D18D130438446002CD2
:1078A0001ED13A431CD163460020002B30D05146F4
:1078B00002200139084001382AE039001143EAD09A
:1078C000022025E03043FBD1AC4226D0002C26D14B
:1078D0003A4324D15146022001390840013817E0CB
:1078E0006246002A0FD09A45E1D1A54205DBBE428F
:1078F000DDD819D00020BE420AD2504601230138FB
:107900009843013004E00122013B93431800013009
:107910001CBC90469946A246F0BD3A43D0D19A4548
:10792000C5D1A542C3DCE0E7C845C0D80020C845A2
:10793000E3D3EDE7FF070000F0B55746DE464E46BD
:107940004546E0B5834606000F03480087B09246DF
:107950001D003F0B400DCC0F002800D16FE0DE4B27
:10796000984238D08023FF001B041F43730F3B4312
:107970000193DA4B0027994600239B46F600814489
:107980002B0369001B0B52469846490DED0F002949
:1079900000D185E0D04B994200D173E04346DA0034
:1079A00080231B0413435246CC48520F8446134392
:1079B000524600206144D200894421006940009170
:1079C0008C46012149448A460F2F00D990E0C449D2
:1079D000BF00CF59BF465B463B43019300D06AE1ED
:1079E00002230827002681469B46C9E732005846F5
:1079F000019B61460091022800D175E0032800D167
:107A0000FEE1012800D02CE10023002700260025FC
:107A10003F032A0D3F0BB34812053A4302401B05B2
:107A20001343009A5B00D1075B080B433000190039
:107A300007B03CBC90469946A246AB46F0BD5B46BB
:107A40003B43019300D12FE1002F00D1A5E1380085
:107A500000F0EAFD03000B3B1C2B00DD96E11D222C
:107A6000D31A5A460100DA405E4608398F401300A7
:107A70008E403B4301939C4B00271B1A99460023E1
:107A80009B467DE7414653460B4393498C46E14470
:107A9000002B00D01AE102220220174300228CE7BB
:107AA000134300D10DE14346002B00D181E1404654
:107AB00000F0BAFD02000B3A1C2A00DD72E1010061
:107AC000434608398B4098461D239A1A5346D340A3
:107AD0001A004346134352468A404946081A8249CF
