:1020000000800020753A00003D3A00005D3A000073
:1020100000000000000000000000000000000000C0
:102020000000000000000000000000005D3A000019
:1020300000000000000000005D3A0000C93A000006
:102040005D3A00005D3A00005D3A00005D3A000034
:10205000013A00005D3A0000ED330000613A0000F3
:102060005D3A0000DD3700005D3A00005D3A000097
:10207000B53700005D3A0000ED3700005D3A000022
:102080005D3A00005D3A00005D3A00005D3A0000F4
:10209000000000005D3A00005D3A00005D3A00007B
:1020A0005D3A00005D3A00005D3A00005D3A0000D4
:1020B0000000000010B5064C2378002B07D1054B1B
:1020C000002B02D0044800E000BF0123237010BDA4
:1020D00030010020000000002C7E0000044B10B5F1
:1020E000002B03D00349044800E000BF10BDC046E8
:1020F00000000000340100202C7E000010B500F02C
:1021000037F800F08DF800F00FF900F0B7F800F0A4
:1021100013FA00F0B1F900F0E7F800F019FA00F056
:10212000B3F910BD10B500F03BF800F063F800F013
:1021300065F900F0C1F800F01DFA00F0C7F910BD14
:1021400030B5094D094CAB685B035B0F9B001C5914
:102150000460AB6801619BB243606343A400836089
:10216000C460426130BDC04600400041507500006F
:1021700010B501210D2001F00FFF0C2001F02EFE03
:1021800000212D2001F008FF3222014B1A6010BD02
:102190005001002010B52D2001F08AFE80B210BD44
:1021A00070B501F09FFC0F4C0F4D2368C01A2B68CF
:1021B000984215D90D2001F04BFF414241410D20BD
:1021C00001F01AFF0D2001F043FF431E9841074B19
:1021D00040421840064BC018286001F083FC206084
:1021E00070BDC04654010020500100207CFCFFFF60
:1021F000B603000010B501F075FC074C2368C01A47
:10220000FA239B00984206D9FFF7C4FF034B1880BE
:1022100001F068FC206010BD580100204C01002036
:10222000E12110B5074C4902200002F06DFB2000AF
:1022300002F06CFB0028FAD0FF220021024804F0D3
:102240000BF810BDE40A00205C01002070B5050009
:102250000400FF352178002905D00648013401F03B
:10226000CCFFAC42F6D1FF220021034803F0F4FF7B
:1022700070BDC046E40A00205C01002010B507488C
:1022800001F034F9002323221021054800F0C4F99D
:1022900001F028FC034B186010BDC04688030020E5
:1022A000600200207002002010B50021014800F0FB
:1022B000BDF910BD6002002010B501F013FC074C01
:1022C0002368C01A064B1B68984206D9FFF7ECFF3B
:1022D000044B188001F006FC206010BD7002002045
:1022E000000000205C020020044B10B5186801F0CB
:1022F0002FFCFFF7D9FF024B188010BD0000002013
:102300005C02002010B52321014800F04FF910BDF8
:102310006002002010B5012303220821014800F0CB
:10232000E5F910BD7402002010B50121042001F070
:1023300033FE0121042001F05FFE642001F008FC5F
:102340000021042001F058FE642001F001FC104C33
:102350000E21200000F028FB0E4B0F4A1B7812883C
:102360005B21200000F0AAFB2000012100F00AFE02
:1023700020000D22032100F09FFA052220000421F5
:1023800000F09AFA0549200000F064FB10BDC04639
:102390007402002004000020060000207075000078
:1023A0001300002213B5054C00920A000100200022
:1023B00000F06CFD200000F043FD13BD740200200E
:1023C00070B50A4D0600280000F03AFD0024A04236
:1023D00007D0074B07491A78300003F034FF064B4B
:1023E0001C88280000F02CFD200070BD7402002025
:1023F000FD020020BB020020FE02002030B597B095
:102400000722124901A803F01EFF0A22104903A85F
:1024100003F019FF06A8FFF7D3FF041E14D007220C
:102420000C4901A803F000FF00280DD10A4D22003D
:102430000A49280004F086FA2800FFF707FF0A225D
:1024400003A92000FFF7ACFF17B030BD9175000065
:1024500098750000BB0200205C010020817500001F
:1024600010B50D2202490348FFF76AFE10BDC046B1
:10247000007600008C02002010B501F033FB014B08
:10248000186010BDA40200200C4B70B5186801F054
:102490005FFB00230A4E0B4D0B4C3380238028003A
:1024A0000C330A22052100F04FFE0C2330800A2253
:1024B0002800032100F048FE208070BD08000020A5
:1024C000B0020020AA020020A8020020F8B501F006
:1024D00009FB0F4C2368C01A0E4B1B68984216D993
:1024E00000230D4F0D4D0E4E3B802B800A220C33E6
:1024F0000521300000F028FE0C2338800A22032139
:10250000300000F021FE288001F0ECFA2060F8BDD8
:10251000A402002008000020B0020020A802002031
:10252000AA02002010B500230C220A21014800F065
:102530005BFD10BDAA02002010B50021102001F0A3
:102540002BFD01F0CFFA014B186010BDB402002042
:10255000002310B5054C2380054B186801F0F8FAEC
:10256000102001F0A5FC208010BDC046B202002062
:102570000C00002070B501F0B5FA094C2368C01AB0
:10258000084B1B68984209D90023074D10202B8067
:1025900001F08EFC288001F0A5FA206070BDC046D5
:1025A000B40200200C000020B2020020452343703A
:1025B000034B0170436000230372024BC3607047FA
:1025C0009A99993F880300200B00103BDBB2F7B5C6
:1025D00004000D000026132B1AD801273A009A4058
:1025E0000C4B1A4214D00178C06800F09FFFE068DD
:1025F000290003681B689847E06801F042F80190E1
:102600000A2001F0A5FA019BB34201D13E002572D8
:102610003000FEBD0B000B0010B5002B00D0C360D6
:10262000002A00D00270FFF7CFFF10BD70B5037A0B
:1026300004000D00002B01D1002070BD0178C0689E
:1026400000F074FFE068217A03681B689847E0682F
:1026500001F017F8237A202B0DD3212B1ED9232B21
:1026600009D160780B3B002D1DD10001452103F0FD
:1026700089FC01F06DFA21780222E06800F09FFFEA
:102680000228D9D1E06803685B6998470502E068D1
:1026900003685B699847284380B2CEE76378B4202B
:1026A000002D00D178205843E0E770470122014B0C
:1026B0001A7070470203002010B5040042690169D6
:1026C000034800F0DFFD2079002101F095FC10BDEA
:1026D0000403002010B50121007901F08DFC0248AF
:1026E00000F0ECFD10BDC046040300200171012183
:1026F00010B5084C427108340460074A074C117049
:1027000004611F220024C27244750475847203732D
:1027100010BDC04600770000FC02002000093D000B
:10272000036810B59B680C00984700280BD0064B37
:102730001B88A34202D00020844204D1034B1878A6
:10274000431E9841C0B210BDFE020020B902002015
:10275000F0B505000E00002487B003930CAB1B7886
:10276000029204930DAB1B78059301222B68009213
:102770001F68029A039B31002800B84701F0B2F9A4
:10278000070001F0AFF9059BC01B984207D231004A
:102790002800FFF7C5FF0028F3D007B0F0BD0134D3
:1027A000049BE4B2A342E0D20020F6E7036870B5D0
:1027B000DB6A04000D0098477F212940074D28005F
:1027C00000F090FD0021280000F08CFD050023683A
:1027D00020001B6B9847280070BDC04604030020F2
:1027E000F0B585B01F000AAB1B78019103930BABCA
:1027F0001E78036802925B6A012104009847272132
:102800002000FFF7D3FF0306F9D53D1C3D2F00D96B
:102810003D25EDB28027002E03D1039F7B1E9F41F3
:10282000BF01019BFF2B03D90C229B1113401F43B7
:102830002389FF2B02D99B059B0F1F432368200090
:10284000DB6A98471B4E8021300000F04BFDE91CED
:10285000C9B2300000F046FD6B463000197900F037
:1028600041FD217A300000F03DFD3900300000F0DC
:1028700039FD029F7D19AF4205D03978300000F054
:1028800031FD0137F7E7236820001B6B9847236869
:1028900004215B6A20009847082528212000FFF7C3
:1028A00085FF2842F9D0236801215B6A2000984700
:1028B00005B0F0BD04030020036870B5DB6A1600A4
:1028C00004000D00984780212943064D280000F0A0
:1028D00009FD3100280000F005FD236820001B6B76
:1028E000984770BD0403002070B52E4E0400337865
:1028F0000D008B4220D004291ED80800012103F0CE
:10290000ADFA433C2F1C03002000FFF74FFF1C23B0
:102910000C2298430243D2B201212000FFF7CCFFE2
:10292000237B002B04D0012123689B6A2000984759
:102930003378002B2ED0357070BD2000FFF736FFA6
:102940001C23102298430243D2B201212000FFF73A
:10295000B3FF237B002BEBD0236800219B6AE5E7C4
:102960002000FFF723FF1C23082298430243D2B222
:1029700001212000FFF7A0FFDAE72000FFF716FF94
:102980001C2304229843F1E72000FFF70FFFE32206
:102990000240EDE727212000FFF708FF0306C7D517
:1029A000C9E7C046FC02002010B50A1C04001F291C
:1029B00000D91F22D3B2E272227B002A01D05B0829
:1029C000E37211212000FFF7F1FE1F230200E07ADD
:1029D0009A430243D2B211212000FFF76DFF10BDD0
:1029E0000023154A70B51370144A28211380144A25
:1029F00004001380134A04251370134A1370134AFA
:102A00001370134A1380FFF7D1FE284209D03D21ED
:102A10002000FFF7CBFE0543EAB23D212000FFF77F
:102A20004BFF402220002521FFF746FF23680321AA
:102A30005B6A2000984770BDFD020020FE02002066
:102A400000030020B8020020BA020020B9020020D2
:102A5000FA0200200368F7B55B6A0C00012105004B
:102A60009847002C18D02B682800DB6A9847124F33
:102A7000BE21380000F036FC2300260010330193FD
:102A80003178380000F02EFC019B01369E42F7D1D0
:102A90002B6828001B6B984728003D21FFF786FE16
:102AA00001230200601E84419A4322432800D2B2CF
:102AB0003D21FFF701FFF7BD04030020F0B58FB003
:102AC000019343790400837102AB9E1C0D00170033
:102AD00000212C22300003F0BFFB5F4B02AA1380C1
:102AE000022393705D4B03935D4B04930723137391
:102AF00001339373013313745A4B53825A4B9382AD
:102B00005A4BD3825A4B13835A4B53835A4B93835A
:102B10005A4BD383130030220133DA77584B02AA81
:102B20005384584B9384584BD384584B1385584B3C
:102B30005385FF220DAB1A704E231F2D06D01E3376
:102B40002B2D03D06D33562D00D00B3302AA5373B7
:102B5000C0231F2D06D0803B2B2D03D08033562D54
:102B600000D1002302AAD3736B461B790121F377AE
:102B7000207901F041FA0121207901F00DFA454850
:102B800000F058FB09220023627434322374A274CB
:102B9000E3742375637500F0A5FF2F250600290057
:102BA0002000AA22FFF788FE29002000FFF7FEFD83
:102BB000AA2804D000F096FF801B3128EFD900F03E
:102BC00091FF2F250600290020005522FFF774FEF3
:102BD00029002000FFF7EAFD552804D000F082FF0D
:102BE000801B3128EFD900256B0002AAD15CFF2998
:102BF00007D09B185A7820000135FFF75DFEEDB233
:102C0000F2E700212000FFF725FF2368217B1B69E5
:102C100020009847236801215B6A2000984700F054
:102C200061FF050027212000FFF7C0FD030604D443
:102C300000F058FF401B3128F4D900F053FF451B2A
:102C40000020312D06D8A0790422134900F020FE7F
:102C5000012027810FB0F0BD0104000003020440F1
:102C60000503063319420000254000002607000036
:102C70002810000029DCFFFF2E88FFFF2F2D000009
:102C80003790FFFF384200003C8FFFFF3D120000ED
:102C90006F30000004030020AD26000070B5040072
:102CA00000290AD001222321FFF706FE0225232155
:102CB0002000FFF77BFD2842F9D024212000FFF7F8
:102CC00075FD404200B2401070BD000010B50B4BC6
:102CD00004001B78032B01D0002010BD084B19788D
:102CE0000029F9D1FFF7DAFF5A30F5DA236820001E
:102CF0005B6A012198470120EFE7C046FC020020F3
:102D0000B8020020F8B5444B04001B78032B00D018
:102D10007BE02821FFF74AFD430700D475E02368D4
:102D200001215B6A2000984723682000DB6A9847EE
:102D30003A4D0021280000F0D5FA0021280000F0CB
:102D4000D1FA031C422800D94223354A0021280029
:102D5000137000F0C7FA334F00213880280000F0CC
:102D6000C1FA314E00213080280000F0BBFA01008A
:102D70008301C0203A888000034013430A020240C6
:102D800030883B8002433280A27A002A04D1228913
:102D90009A4201D0002B03D1214B1B78022B0BD878
:102DA00000231F4A2000137023681B6B9847236879
:102DB00020001B6A9847F8BD1C4F033B226808009F
:102DC0003B707F2398431A4B002618704023194804
:102DD0000B4003709369200098473B78B34208D9B1
:102DE0000021280000F07EFA134B98550136F6B208
:102DF000F3E7002210492000CA5423681B6B984750
:102E0000236803215B6A2000984700212000FFF718
:102E100045FF0A4B1880CEE7FC0200200403002087
:102E2000B802002000030020FE020020FD02002066
:102E3000B9020020BA020020BB020020FA020020E2
:102E40000F4B10B51A780400002A03D000221A7024
:102E5000FFF758FF0B4B1B78032B0BD100200A4BBD
:102E60001B78834205D0236820005B6A01219847C4
:102E7000012010BD236820001B6A98470020F8E756
:102E800002030020FC020020B8020020F0B585B04B
:102E900002930AAB1B780D003D210393040016003A
:102EA000FFF784FC04220243D2B23D212000FFF749
:102EB00003FD00F017FE07002000FFF707FF0028C2
:102EC0000AD100F00FFE0B4BC01B984204D82368B8
:102ED00020009B689847EFE700220192039A23683D
:102EE0000092DF693200029B29002000B84705B03C
:102EF000F0BDC046E7030000F0B587B005920022A0
:102F00001C4B1D4E1A701D4B049100229B5E3D21EF
:102F1000039304003588FFF749FC04220243D2B230
:102F20003D212000FFF7C8FC00F0DCFD0700200079
:102F3000FFF7CCFE00280AD100F0D4FD104BC01BD7
:102F4000984204D8236820009B689847EFE7012245
:102F500035800192002223680092DE69049A059B65
:102F600029002000B0476A46044B92891A8007B0B6
:102F7000F0BDC046BA020020FE020020FA02002086
:102F8000E703000010B50F2204000173002900D1EF
:102F90000B3213212000FFF78FFC237B002B0CD07A
:102FA00011212000FFF702FC1F2210404132024392
:102FB00011212000FFF780FC10BD8023E27A1A4324
:102FC000F6E770B55D2204000D1E00D1083A5A21C3
:102FD0002000FFF771FC7C22002D00D10C3A5C210F
:102FE0002000FFF769FC70BD837000230170427000
:102FF000C3700371704770B51D0014000E001000FF
:10300000012100F0C9FF0121280000F0C5FF0121C6
:10301000200000F0F1FF0121280000F0EDFF002169
:10302000200000F0E9FF0021280000F0E5FF012169
:10303000280000F0E1FF0121200000F0DDFF002169
:10304000280000F0D9FF330001222900200001F000
:103050009CF80121280000F0CFFF0021200000F0A3
:103060009BFF200000F0F4FF0021884209D12800D6
:1030700000F0C2FF200000F0EBFF01384142414167
:10308000C9B2080070BD70B50D000021280000F025
:1030900083FF64240A2000F05BFD280000F0D8FFC5
:1030A000002808D0013CE4B2002CF3D10138431EC3
:1030B0009841C0B270BD0120FCE770B50C0015004E
:1030C0002000002100F068FF01222900200001F00B
:1030D00039F801210600200000F05EFF20000021E9
:1030E00000F08AFF2800012100F056FF280001218E
:1030F00000F082FF2800002100F07EFF2000002168
:1031000000F04AFF29000122200001F01BF83602DE
:10311000C0B2304380B270BD70B50D0014002800FD
:10312000012100F039FF2000012100F035FF2800C7
:10313000012100F061FF2000012100F05DFF00216E
:10314000200000F059FF70BDF8B5150004001E0006
:10315000FFF751FF29002000FFF795FF32002900FB
:103160002000FFF7AAFF0700320029002000FFF728
:10317000D3FF3800F8BD0000F0B5040085B01E0094
:103180000AAB1B78103001930BAB1B78170002932E
:103190000CAB1B780D00039300F0F4F820002430F2
:1031A00000F0F0F8220000234032A363E3631370C1
:1031B00063729D4205D10A4B0A4A22210A4802F055
:1031C000CDFF6B461B79200063716B461B7A25602F
:1031D000E3716B461B7B2771A671237205B0F0BDAE
:1031E0003C770000BB7700004D770000437A002B4E
:1031F00004D18372C372C36001334372704730B528
:10320000040085B002AD00680291039201F0E4F879
:103210006B79227AE17900932068002301F086FA25
:103220002979029A206801F0FBF8206801F0CAF8B9
:1032300005B030BD70B518260400FFF7D7FF330086
:10324000082120790D4D4343EB18595600F018FF23
:1032500033000821A0794343EB18595600F010FFC2
:10326000082160794643AD19695600F009FF044B07
:10327000200006CBFFF7C3FF70BDC04634780000C6
:103280004803002007B5837A00910192002B07D0F4
:103290009A070AD5EFF310835A425341C37272B6AC
:1032A0000099019AFFF7ABFF07BDDB07F8D5C368AC
:1032B000014A9BB29360F3E700180040837A002B29
:1032C00005D09A0704D5C37A002B00D062B67047A8
:1032D000DB07FCD5C368024A9BB2D360F7E7C04660
:1032E0000018004010B5006801F07FF810BD000024
:1032F0001FB5094A094B0A49136000235371137122
:1033000002930133019316330093162201330548CB
:10331000FFF732FF05B000BD4803002000093D0063
:10332000440A002004030020094B1868002809D132
:10333000EFF310820749002A08D172B6BFF35F8FFE
:1033400001320A701A6801321A6070470870F9E792
:103350005403002050030020084B1A68002A0CD0A8
:103360001A68013A1A601B68002B06D1044B1B78BF
:10337000002B02D0BFF35F8F62B67047540300206A
:1033800050030020FF23002110B504000370FC3B14
:1033900041708170C170017143710C22083002F0DC
:1033A0005BFF200010BD000001220B0010B5134090
:1033B00008D00D4B1A70042343708368002B00D093
:1033C000984710BD0222114204D007490A70437089
:1033D000C368F3E704231942F3D0034A137003339D
:1033E00043700369EAE7C0464E48004110B5FFF755
:1033F0009BFF0C4B1B8C1B071B0F0B2B0FD80A4A78
:103400009900885800280AD00F2408490A78A24356
:1034100013430B70064B1978C9B2FFF7C5FFFFF7CE
:103420009BFF10BD00480041580300203F48004169
:103430004E48004100207047F8B505000E00170007
:103440000024BC4208D02B68315D1B6828009847D7
:10345000002801D00134F4E72000F8BD70470300D4
:10346000FC33196ADA69914203D01B6AC018007EE6
:10347000704701204042FBE70300FC33D8691B6A18
:10348000C01A01D50130FF3070470000F7B5019335
:10349000FA238026002504009B008360124B7600EF
:1034A00008330F0045602900009203603200183095
:1034B00002F0D2FE23002000FC332130DD61320017
:1034C0001D622900FF3002F0C7FE87239B00E3182E
:1034D0005D609D606B461B78276123756B461B7989
:1034E000A57520006375FEBD1078000070B506005C
:1034F00018250C49006901F043F9306900F0B0FF6C
:103500002B000821307D084C4343E318595600F046
:10351000B7FD0821707D45436419615600F0B0FD88
:1035200070BDC046A0860100347800008A230022C6
:103530009B00C1540C3BC3185A609A6001238375E9
:103540007047020010B5FC32536894680133DBB257
:103550009C4202D054680155536010BDF7B5002459
:103560000500170001932000A24227D02B00FC3356
:10357000DC611C620122286900F0B0FFA0421CD06F
:103580002E001836286901F018F8013401003000C7
:10359000FFF7D7FF2869A74206D000F07FFF02217E
:1035A000286900F085FFEDE700F06FFF019B002B1D
:1035B00003D00321286900F07BFFE0B2FEBD10B507
:1035C0000123FFF7CBFF10BD002210B5837D93428E
:1035D0000DD087239B00C4186368A4680133DBB255
:1035E000A34204D02130FF30FFF7ABFF01221000CF
:1035F00010BD0300FC3399685A68914206D09A685E
:10360000805C9A680132D2B29A60704701204042D1
:10361000FBE700228A2370B59B00827505000E002F
:10362000C15C006900F05AFF002806D10321286917
:1036300000F03EFF0224200070BD872328009B007D
:10364000EA18536894682130FF301C1B01D50134FF
:10365000FF34002C0ED02C69FFF7CBFFC1B2200045
:1036600000F069FF0028E8D10321286900F020FF5D
:103670000324E0E7002EDED00321286900F018FFC4
:10368000D9E710B50121FFF7C4FF10BD10B5183000
:10369000FFF7AFFF10BD70B50400006900F06BFFCD
:1036A000002814D0206900F074FF002810D0206991
:1036B00000F0F4FE0321206900F0FAFE8C239B0049
:1036C000E558002D39D10023FC34E361236270BD3D
:1036D000206900F068FF002809D0206900F05EFF33
:1036E000002804D0206900F063FF0028DFD02069A3
:1036F00000F059FF002826D1206900F045FF00287E
:10370000E5D0206900F054FF002837D087239B00C4
:10371000E218536892689B1A01D50133FF33FF21E9
:10372000002B05D020002130FF30FFF762FFC1B22F
:10373000206900F012FFA075C9E7236820001B690B
:103740009847A847BFE7206900F0A8FE2069032139
:1037500000F0AEFE206900F02BFF0028B7D08723D1
:1037600000229B00E3185A609A600123A3758B2303
:103770009B00E3589342AAD09847A8E72200FC3266
:10378000D369126A0133DBB22069934206D100F09B
:103790007CFE0321206900F08BFE98E700F00DFF0E
:1037A000010020001830FFF7CCFE206900F076FE03
:1037B000EFE7000010B50248FFF76DFF10BDC046EF
:1037C0008803002010B51523142202490248FFF790
:1037D0005DFE10BD400A00208803002010B502489D
:1037E00002F09BF910BDC046BC05002010B5024890
:1037F00002F093F910BDC046F8070020F7B5012488
:103800000326154F1549380000F046FD14491548A8
:1038100000F042FD1449154800F03EFD14491548DA
:1038200000F03AFD1449154800F036FD144D1549D5
:10383000280000F031FD3900009623000194002299
:10384000114802F0FFF80096290001941E231F2260
:103850000E4802F0F7F8F7BD340A002000080042D5
:10386000000C0042380A0020001000423C0A0020F0
:1038700000140042400A002000180042440A0020C0
:10388000480A0020001C0042BC050020F807002068
:10389000F7B500921822162542434F4B07009B189C
:1038A0005D5701916B1C4ED04C4B4D4C1E68002E49
:1038B00027D1310044224B4802F0CEFC3100442293
:1038C000494802F0C9FC1022484B49491E60CA67AA
:1038D000C021C120474B49005A5080001958FF367B
:1038E000B14319501A60444B444A5A80022322784B
:1038F000134323706378DB09012BFBD00122374B84
:103900001A6001231E00AE40626932436261019A6F
:10391000002A18D0102D1FD1E2781343E370009BCA
:10392000042B0BD818000723A2789A4302F096FACA
:10393000030C0E10120005231343A3702A4B019AA7
:103940001A64B6B2E660F7BD0423F5E70323F3E794
:103950000223F1E70123EFE738000027002100F000
:103960008FFB224B1F499C461B68BA00BB421DD1EE
:103970006046013303608E501B4B01999950072D0F
:1039800019DD0123083DAD000721A940144A9B0021
:103990009B189A698A439A61009A042AD1D8100028
:1039A000996902F05BFA0B10121416008858B042A5
:1039B000E1D00137D9E7AD000023E5E70522AA40B1
:1039C0000A439A61BDE70422F9E70322F7E70222DE
:1039D000F5E70122F3E7C04634780000D40A00205E
:1039E00000180040900A00204C0A0020D80A00204D
:1039F00004E100E000E100E0000C004005400000B0
:103A0000F8B50024094B1B68A34200D8F8BD084E46
:103A1000084FA5003369EA591A4204D0064BEB5807
:103A20009847EB5933610134ECE7C046D80A0020CF
:103A300000180040900A00204C0A0020054B10B5E9
:103A40001B6C002B00D098470123034AD1780B430D
:103A5000D37010BD4C0A002000180040FEE70000A3
:103A6000034B10B51B68002B00D0984710BDC04613
:103A7000DC0A002070B50F490F4CA14204D100F0C0
:103A80008DF802F033F9FEE70C4D00238D42F6D09D
:103A9000CA18E818A24205D3094B8242EFD009495F
:103AA000002204E0006804331060F1E704C38B4295
:103AB000FCD3E4E70000002030010020307E00004D
:103AC00030010020D810002010B500F064F8002864
:103AD00001D100F055F810BD014B18607047C04689
:103AE000DC0A0020014B18687047C046E00A00203D
:103AF000F7B51348012284461249134C8E68636857
:103B000005689B0E1340019288686268019F920EBF
:103B10003A4067463F6893420ED1BD420CD186427F
:103B20000AD35B19FA254868AD00861B07486B432A
:103B30007043000DC018FEBD3D0013000600E3E712
:103B4000E00A002010E000E000ED00E05555000024
:103B500070B5041E10D0FFF7CBFF050000F01AF877
:103B6000FFF7C6FF054B401B9842F7D9FA23013CEB
:103B70009B00ED18002CF3D170BDC046E703000098
:103B800010B5034A13680133136000F049FB10BD00
:103B9000E00A002070470020704700001E2270B528
:103BA00046484749436893431C3A134343600823FC
:103BB0008C6923438B61434C434B9C829C8A144306
:103BC0009C82DC681442FCD00124404A14701578B1
:103BD000254203D055786DB2002DF8DB01249460A6
:103BE000547864B2002CFBDB394C5460547864B2D6
:103BF000002CFBDB8224E4015480547864B2002C56
:103C0000FBDB02249C840E34DD682542FCD0314C61
:103C1000DC621024DD682542FCD09D8C2E4C2C43A8
:103C20009C841024DD682542FCD002249D8C8026D3
:103C30002C439C844024DD683542FCD0DD6825425D
:103C4000F9D01024DD682542FCD00024946054781B
:103C500064B2002CFBDB214C5460547864B2002C1D
:103C6000FBDB1C6A1E4D2C4080251C621C6AAC4389
:103C70001C62032393601B4B536053785BB2002B91
:103C8000FBDB0023FF240B72174A4B728B72CB7243
:103C9000164B1A60164B174A1B6811689A065B018F
:103CA000C90E2340520F12020B431343124A1385CD
:103CB000802342681343436070BDC046004000410A
:103CC000000400400C06000000080040000C00400A
:103CD00001050100B905FF7D040A0000000703008B
:103CE000FFFCFFFF03060100006CDC021000002057
:103CF000246080002060800000400042FA212D4BAB
:103D000010B51868890002F0B3F82B4B01389842BF
:103D10004FD82A492A4A4860C020136A00061B026D
:103D20001B0A0343136200238B6007330B6080215F
:103D3000136A09061B021B0A0B431362FC22214B68
:103D4000196A0A431A62FF22196A12020A431A62A6
:103D5000A022196AD2020A431A621B4B1C005A782D
:103D600052B2002AFBDB194A5A80194B1A00597EBD
:103D7000C9090129FBD0C821890099800521D97082
:103D8000537EDB09012BFBD0C02300205B011361B4
:103D9000907000F049F863785BB2002BFBDB0D4BB1
:103DA0000D4A6380D379DB09012BFBD0412353708B
:103DB00010BDFEE710000020FFFFFF0010E000E054
:103DC00000ED00E000040040000C00401E40000038
:103DD0000040004221400000004800420F4B3022CA
:103DE00018600F490F4B0A2809DD98889043988086
:103DF000243A0A605A7ED209012AFBD0704708286B
:103E000006DD98889043202202439A800A22F0E738
:103E1000988802439A800822EBE7C04618000020E9
:103E200014000020004000421F4900B50B004A7EEC
:103E3000D209012AFBD001380A282FD802F00EF847
:103E40001B2E2E2E2E2E062E2E2411001A691749F7
:103E50000A400F211A615A788A43110001220A434D
:103E600010E01A6911490A400F211A615A788A43F1
:103E700011000322F3E71A690C490A400F211A6165
:103E80005A788A435A7000BD1A6908490A400F21BE
:103E90001A615A788A4311000222E0E7F022196978
:103EA00012050A43F3E7C04600400042FFFFFFF05F
:103EB00010B5040006285ED007285ED0052800D87B
:103EC0000E340121200000F0DBF80E2C0DD12D4B1B
:103ED0001900DA79D209012AFBD002201A7882432C
:103EE0001A70CB79DB09012BFBD027490B004A7EE6
:103EF000D209012AFBD018226243244CA418207C4A
:103F00001F240A692040A24302430A615A7ED20953
:103F1000012AFBD0022219780A431A705A7ED2096C
:103F2000012AFBD00222197B0A431A7301221A7656
:103F30005A7ED209012AFBD00222197B0A431A7346
:103F40001A7ED207FCD5588B80B25A7ED209012A3C
:103F5000FBD002211A788A431A705A7ED209012AAC
:103F6000FBD00B4B1A680B4B1B689A4202D006D948
:103F7000D31AD84010BD2C24A3E72D24A1E79B1A07
:103F80009840F7E7004800420040004234780000C3
:103F90001400002018000020182310B50824434303
:103FA000134AD0180457013412D001249A5643689A
:103FB0009C4003290CD808000E49D2015218D3188E
:103FC000403301F04BFF0210060B022119705460C0
:103FD00010BD0621197054609461F9E7062119702B
:103FE00054605461F4E7022119709460F0E7C04610
:103FF00034780000004400411823F0B508245843E9
:10400000114A13181C5701341BD0012635005F6874
:104010008356BD400D4ADB019A18906805420BD1CA
:104020000C00601E8441D2194032107834400336AF
:10403000A400B04320431070044A9B18002901D10A
:104040005D61F0BD9D61FCE73478000000440041F3
:10405000182310B50824434307490020CA181457F1
:10406000013408D05B560549DB015B18186A5368B8
:10407000D8400123184010BD3478000000440041AE
:104080001822424370B52D4E0300B218127A52B274
:10409000140001320ED0481C00240C280AD801F06C
:1040A000DDFE071F1F1F1F1F1F1F1F0B0B0B0B000A
:1040B00001246442200070BD092905D100211800A7
:1040C000FFF76AFF0024F5E70A2901D10839F6E76E
:1040D00000240B29EED10A391800FFF75DFFE9E74C
:1040E000182201205343F218F3565568144ADB0195
:1040F0006C089B18C9B228401C1900280ED00F204C
:10410000303422780901024011434122C9B25B19BF
:104110002170403319780A431A70D3E722000F2622
:10412000303214785B19B44321431170412240337B
:10413000197804000A431A70BCE7C04634780000BE
:1041400000440041F7B5002507000E002C00019245
:1041500030000121FFF750FF019B64B23800002BB3
:104160000DD1FFF775FFA840044300213000013551
:10417000E4B2FFF741FF082DEAD12000FEBDFFF7B2
:1041800067FF07235B1B9840EEE7F7B507000E00BB
:104190000024012501920093019B002B14D12900DA
:1041A000A140009B380019404B1E9941FFF724FFA6
:1041B00029003000FFF720FF013400213000FFF715
:1041C0001BFF082CE8D1F7BD072329001B1B9940D2
:1041D000E7E7F7B506000D000C008B180193019B73
:1041E000671B9C4207D0336821781B6830009847D2
:1041F00001340028F3D13800FEBD10B503681B68F8
:10420000984710BD014B18607047C0461C00002045
:104210000122024B52421A607047C0461C00002027
:10422000164A10B51368591C26D0013B1360002BA9
:1042300022D172B6124B134A0433934213D9124A55
:1042400001211000147D0C42FCD02021148BFF3181
:104250009B085B0021431183D3610C4B1380012326
:10426000027D1A42FCD0BFF34F8F094B094ADA6036
:10427000BFF34F8FC046FDE710BDC0461C000020B5
:1042800000200000030200000040004102A5FFFFE3
:1042900000ED00E00400FA05016070479446F0B5B7
:1042A0009E1E721E96416246056892072F6836066A
:1042B0003A4332432A60072505AC24780068A401FC
:1042C0002940214342680024022B00D05C031143A3
:1042D00021434160F0BD30B5C0250368AD031C68C3
:1042E00012052A402243C0240904A402214011439C
:1042F000196003685A6814435C6030BD012302688A
:1043000011680B43136003681A68D207FCD4DA699A
:10431000D207F9D470470223026811680B43136077
:104320000268D3699B07FCD4704703681A7ED207E2
:1043300002D41A7E9207FCD57047002203685A8384
:1043400070470368187E4007C00F70470368187EE7
:10435000C0097047802302685B42117E0B431376CD
:1043600070470368588B8007C00F704702230268AC
:10437000518B0B43538370470368187EC007C00FEF
:1043800070470368188DC0B2704703681A7ED20761
:10439000FCD589B2012019857047012203689A75FE
:1043A0007047012203681A7570470123026811687B
:1043B0000B43136003681A68D207FCD4DA69D2078A
:1043C000F9D470470223026811680B431360026836
:1043D000D3699B07FCD470470368DA699207FCD461
:1043E00002211A688A431A6070470268936A5B0A5E
:1043F0005B021943916203681A7E5207FCD5986AE2
:10440000C0B2704710B54900044801F031FD80B2D8
:10441000002801D0013880B2C0B210BD006CDC02AF
:1044200070B54B080C00012105680B400C402E684C
:1044300024075B07234333432B6011000468FFF715
:10444000E1FF207370BD0123026811680B43136004
:1044500003681A68D207FCD4DA69D207F9D4704726
:104460000223026811680B4313600368DA6992073C
:10447000FCD430215A8B8A43110010220A435A83FC
:104480000268D3695B07FCD4704780230268DB02B3
:10449000116851680B43536070470000036803497B
:1044A0001A685A680A405A607047C046FFFFFBFF0F
:1044B000032230B5036811401C68074D5A6809048F
:1044C0002A40E4061143640F5960052C03D10268A9
:1044D000D3695B07FCD430BDFFFFFCFF490010B57A
:1044E00011430468CBB2618B8906890F012904D07E
:1044F000618B8906890F0229F5D1616AC90AC9024F
:10450000194361620368002A08D11A7ED207FCD5DC
:10451000588B4007C30F012058400BE0187E8007DE
:10452000C00FF5D11A7ED207F8D5C0225968920281
:104530000A435A6010BD0368283319700368187E57
:10454000C007C00F03D15A8BD207F8D57047588BDC
:104550004007C30F01205840F8E70368283319705B
:10456000036800201A7E520704D5588B01234007A8
:10457000C00F5840704703681868C006400F0438E1
:1045800043425841C0B270470368187E4007C00FCD
:1045900070470368187EC007C00F70470368588BC8
:1045A000C006C00F70470368187E8007C00F7047B1
:1045B0000368588B0007C00F704703681A68D2065B
:1045C000520F052A02D11A7E9207FCD5283318789B
:1045D000C0B270470368104A934213D00F4A934207
:1045E00012D00F4A934211D00E4A934210D00E4A75
:1045F00093420FD001200D4A4042934201D1063030
:1046000040B270470020FBE70120F9E70220F7E7FE
:104610000320F5E70420F3E700080042000C004205
:10462000001000420014004200180042001C00422A
:10463000F8B5FFF7CFFF00282EDBC3001C481F2270
:10464000C01805230579C35601201A40904003265F
:10465000C022184952001E40F6008850813AB240EC
:10466000C024D243B440002B17DA0F263340083B56
:10467000114E9B089B009B19DE6932401443DC619C
:104680003F231D408023DB011D430C4B08605D80F0
:104690005A7852B2002AFBDBF8BD064E9B089B00FD
:1046A0009B19C026B6009F593A4014439C51E7E736
:1046B000847C000000E100E000ED00E0000C004020
:1046C000F8B504000F0016001D00FFF7B1FF200031
:1046D000FFF714FE1C21BB000B4071072268090C78
:1046E0000B431360842322689375012F1AD1102184
:1046F000012E00D008390C4B69431868C00001F046
:10470000B7FB0722216802408B895203DB04DB0CD4
:1047100013438B81226803049089DB0C400B400318
:1047200018439081F8BDC04610000020F7B5050081
:10473000019308AB1F780E001400FFF736FE280027
:10474000FFF776FFC022240592031440BA070C2716
:1047500017433C43C02707223604BF022B683E4064
:1047600026431E60019B296813401A0080239B0288
:1047700013434B602A68D3695B07FCD4F7BD000084
:10478000F8B504000F00FFF753FF2000FFF75BFEB2
:104790001422236879001A600C4B25681E683000CB
:1047A00001F066FB0A490400300001F061FB7D2343
:1047B000FA215843C90001F05BFBFF23241AE86883
:1047C000053C1C4098430443EC60F8BD10000020F9
:1047D00040420F003F20704713B56B460268D97105
:1047E0000733546819000122A04716BD10B50221F5
:1047F000006900F04DFC10BD10B50321006900F008
:104800005DFC10BD10B51300084A0400D279002ADF
:1048100003D101230020636010BD0A000069032159
:1048200000F044FD0028F4D0F6E7C0462400002044
:1048300010B5054C23685A1C04D103685B6998477E
:1048400003002060180010BD70000020074B02001C
:10485000186810B5411C03D0012252421A6010BDE5
:104860000221106900F014FDF9E7C0467000002035
:1048700010B503784222023303700249024800F067
:10488000C1FD10BD2C000020000B002010B50178E8
:10489000020043780020A12908D1212B05D107224D
:1048A0001649174800F0AEFD012010BD2129FCD1AA
:1048B000202B13D107221149114800F043FC962206
:1048C0000E4BD200196891420ED10124D8790440D0
:1048D0000AD1FA20FFF796FC0020E6E7222B06D14A
:1048E0009278064BDA71EAE7FFF792FCF4E7232BA4
:1048F000DBD15288034B1A60D7E7C0462400002062
:10490000000B0020200000207047000010B5FFF7CA
:10491000E9F8F423FF330024984207D9044B0A2016
:10492000DC79631E9C41E4B2FFF712F9200010BD50
:1049300024000020FA220021054B92009A60054ACB
:10494000596008321A60044A19761A617047C046E5
:10495000E40A0020B47C0000000B0020704770B512
:104960000F26CB1D013902003240D5B22C000009C0
:104970003034092A00DD07341C70013B8B42F2D130
:1049800070BD10B50400806901F044FCA06A01F01C
:1049900041FC200010BD10B50400FFF7F2FF20001D
:1049A00001F0CAF9200010BD70B5032908D1324BBF
:1049B0008000C058002802D00368DB68984770BDAB
:1049C00082291FD1C3B22D4D5A01AA1891692C4CCE
:1049D00080010C40C0218905214391612949083398
:1049E0004018802150612A685B01D018047949423F
:1049F000214301717020995C8143080030210143FB
:104A00009954DCE70029DAD1C024C1B21B4E4A0117
:104A1000B21893681A4DA4052B40234393601A4B98
:104A20008001C0180B0050603068072608335B0116
:104A3000195CB1430E0001213143195491690D40B5
:104A40002C43946170240F495161195CA1430C00FF
:104A500010212143195491680C4CC3180C4080213B
:104A60004903214391609168890B89039160402239
:104A700059790A435A71A2E7040B0020B80F0020AD
:104A8000FFFFFF8F2C0B0020EC0C0020FF3F00F0FD
:104A9000EFF3108303600123436072B6704703682D
:104AA000002B02D162B6BFF36F8F704737B505692F
:104AB00004006846002D14D1FFF7EAFF019B621D38
:104AC000013B02D3D57FEDB2FAE768460193FFF7C9
:104AD000E6FF002D01D100203EBD206AE369C01A27
:104AE000FAE7FFF7D5FF22000025019B3432013B96
:104AF00002D31578EDB2FAE768460193FFF7CFFFCE
:104B0000002DE8D0206BE36AE9E70000FF2130B513
:104B10004368164D1A6883680B405B01D218012365
:104B20005218947A23439372836842680B405B0166
:104B3000D418C268A36892042B4012091343A360DF
:104B4000836842680B405B01D3189A68920B92030A
:104B50009A6043681A6883680B4008335B01D31876
:104B6000402219790A431A7130BDC046FF3F00F058
:104B7000F7B5036904000E0017006846002B45D105
:104B8000FFF786FF019B611D013B5A1C0CD0CD7FB6
:104B90005A1EEDB2002D05D168460193FFF77FFF45
:104BA0002800FEBD1300F0E7684601930025FFF7DB
:104BB00076FFE369AF420AD0226A9A4207D95A1CAB
:104BC000E261A269D3181B7873550135F1E7226AB7
:104BD0009A42E5D10023E361013323616846FFF780
:104BE00057FF22000021019B671D013B3532581CF5
:104BF000D2D0F97710785E1E002805D01170200001
:104C00000193FFF783FFECE73300F0E7FFF740FF86
:104C10002100019B3431013B5A1C06D00D785A1EED
:104C2000EDB2002DB8D01300F6E7684601930025D9
:104C3000FFF735FFE36ABD4202D0226B9A421CD8CF
:104C4000226B9A42ACD100236846E3622361FFF7EE
:104C50001FFF270022000021019B3437013B353222
:104C6000581C99D0397010785E1E00280DD0117034
:104C700020000193FFF74AFFEBE75A1CE262A26AA9
:104C8000D3181B7873550135D4E73300E8E7F7B53F
:104C9000FF21826843680A401B68083252019A1853
:104CA000D3790400DB072AD50125D57183684268D2
:104CB0000B405B01D3189A6840699204920C00285B
:104CC00021D12262226A002A3ED0A26A656168462A
:104CD0005A60FFF7DDFE27002100019B661D013BA6
:104CE000343735315A1C2BD0F5773A78581ED2B26A
:104CF000002A05D0019368460D70FFF7D0FEF7BD7E
:104D00000A700300EEE72263226B002A1CD0002207
:104D10006261A26968465A60FFF7BAFE2600210068
:104D2000019B3436013B671D35315A1C08D0357064
:104D3000FA7F581ED2B2002ADCD10A700300F4E7D1
:104D400068460193FFF7ABFE2000FFF7DFFED6E7D2
:104D500037B56B46DC1D00230D0020002370FFF7E4
:104D600087FD2B681818286001F01EF8210000F05C
:104D7000E7FF2B681818286020783EBD03290ED164
:104D800080220E4B62311B68FF31585C5242024355
:104D90005A5468226339FF32FF3999547047012908
:104DA000FCD18022054B24311B68FF31585C5242F4
:104DB00002435A5428222339FF32EDE7B80F00206E
:104DC00070B50025304B012104001A201D70FFF73B
:104DD000E3F801211A20FFF70FF92C4B01211920CC
:104DE0001D70FFF7D9F801211920FFF705F92023DD
:104DF000274A0F20D1690B43D361012225490B7843
:104E000013430B70244B19788143197006211D78C8
:104E10002943197021490D782A430A701A780240F3
:104E20001A70602219780A431A701D4B1D4A5A8065
:104E30005A78D209FCD11C48FEF74EFE1B4D2800C3
:104E400000F0C4FF280000F0D9FF7F212A68C120AC
:104E5000137880000B40137004232A6811780B43E9
:104E60000C2113702A6813898B43114913810B5845
:104E70001B021B0A0B5080230B6011787E3B0B43F7
:104E800013700123237070BD210B0020200B002024
:104E900000040040584400413C4400415944004152
:104EA000000C00400640000079580000B80F0020B8
:104EB00000E100E00078002810D00121084B1B68B9
:104EC0001A898A431A810822198B0A431A830422F9
:104ED000198B0A431A830022024B1A607047C0469E
:104EE000B80F0020B00F002010B50F4A93699B0B3C
:104EF0009B03936113680222FF331A729879823AF6
:104F000002439A711A7A9207FCD57F24074A2140FE
:104F1000937A0800A3431900802301439172917A88
:104F20005B420B43937210BDB80F0020005000414C
:104F300010B50B790C00002B0CD10800FFF7A6FC74
:104F4000002801D0012010BD094A93699B0B9B03E7
:104F50009361F7E700F028FF210000F015FF00281B
:104F6000F0D1034A93699B0B9B039361EBE7C04627
:104F7000B80F0020F8B50D00832A19D1CBB2364CFA
:104F80005A01A21891693548AD010840C021890530
:104F900001439161324920686D18702108335561D1
:104FA0005B011A5C8A43110040220A431A54F8BD7F
:104FB000022A4CD12B4A8B009858002802D0036853
:104FC0005B699847382000F0B3FE274B80270360C9
:104FD0000023214E7F00421D036203614361C361D0
:104FE00046608560C760D3772F320400C3620363D5
:104FF00013703800537001F003F9A061380001F01C
:10500000FFF82A00A062FF200240510171188B684E
:10501000124FAD001F40C0239B053B438B60130024
:105020003168072608335B015A5CB243160003223D
:1050300032435A54A368626803405B01D318A269E3
:1050400020005A60FFF762FD064B5C51AFE711008C
:105050002800FFF7A9FCAAE7B80F0020FFFFFF8F89
:105060002C0B0020040B0020E07C000070B5050034
:105070000124064BA200D258002A05D021002800A6
:10508000FFF778FF0134F4E770BDC04674000020DC
:10509000084B8A00D05810B5002803D003689B68DD
:1050A000984710BDC9B2044B49015918886880045B
:1050B000800CF6E7040B0020B80F002010B50C00A0
:1050C000FFF7E6FF00280CD0064BE4B21B6808345B
:1050D00064011C19802362795B42134363710223CC
:1050E000E37110BDB80F002070B5CBB2124A13485F
:1050F0005C0189018918021951609168104D0833CB
:105100000D40802189022943402591609168890BD7
:105110008903916001685A018A181679354315711F
:1051200095796D06FCD55B01C918CB79DB07FCD5F9
:1051300000198068C0B270BDEC0C0020B80F0020D0
:10514000FF3F00F070B5140040220B4B0D001B68B0
:10515000FF3359790A435A710021FFF7C5FFA04276
:1051600000D9200000230549A34203D0CA5CEA54B9
:105170000133F9E770BDC046B80F0020EC0C0020E9
:1051800010B5C9B20B484901421893689B049B0CA7
:105190003F2B0BD99468403B9B04A40B9B0CA403AE
:1051A0002343936041188868C0B210BD93689B0B7D
:1051B0009B03F6E7B80F0020F0B51C002F4B85B01D
:1051C0001B6806000D000192002B54D02C4F39783B
:1051D000C9B2002902D11920FEF70EFF64233B70EB
:1051E000284BAA00D058002808D0036822005B682A
:1051F000019998470400200005B0F0BD2900300057
:10520000FFF746FF844204D929003000FFF740FF32
:10521000040029003000FFF7B3FF0121EBB21A4F61
:1052200003935B010293029A3B6801989B18FF333A
:105230005A7A0A435A72154BA901C918220001F083
:1052400002F8002CD7D029003000FFF721FF0028FA
:10525000D1D14021039B3A6808335B01D3181879F8
:10526000014319710121D971029BD318FF339A7A36
:105270000A439A72BFE701246442BCE7B00F0020E2
:10528000200B0020040B0020B80F0020EC0C0020A5
:1052900013B56B46DC1D22000123FFF78DFF0128AB
:1052A00001D1207816BD01204042FBE7F0B51E0079
:1052B0003A4B85B01B680F000192002B3FD0802332
:1052C000DB019E423BD8364C2178C9B2002902D17D
:1052D0001A20FEF791FE642300252370314BBA019A
:1052E000D3180293002E2CD02F4B1B680393FF235F
:1052F0003B401C0000930834039B64011C19A379F4
:10530000DB0921D0294B2A49186800F0B1FD294B4F
:105310001721584300F0ACFD274BE279920713D4D4
:10532000DA5D002A01D10138F7D20122DA55009B5B
:105330005A011D4B9B189A69920B92039A610125A1
:105340006D42280005B0F0BD00221B4B3400DA5539
:10535000402E00D9402422000199029800F073FFEA
:10536000009BA1045A01104B890C9B18029A2D191D
:105370005A619A69361B920B92030A439A61009B09
:10538000039A08335B01D3180222DA715979823A01
:105390000A435A71019B1B190193A3E7B00F002028
:1053A000210B00202C0B0020B80F00201000002043
:1053B00040420F0070110100230B002070B50D005A
:1053C0001C000D4BAE01F61811003000220000F059
:1053D0003AFFEDB209496D014D196E61AB69084A9A
:1053E00020001340AB61AB69A2049B0B920C9B03A2
:1053F0001343AB6170BDC0462C0B0020B80F0020DA
:10540000FF3F00F0F7B5104B01901B780F0015001F
:10541000002B0CD10D4B16001C78002C09D00C4E23
:105420000C4834882018641900F00DFF34802800DF
:10543000FEBD002EFBD03A19330000210198FFF782
:10544000BDFF2418361AF4E7AC0E0020AD0F002083
:10545000AE0F0020AD0E0020F8B5002000AF0E000A
:105460001500012A27D9D31D6A46DB08DB00D31AB1
:105470009D46080001F086FA6C46032302220021B3
:105480000130400020706370AA420DD230780028AD
:105490000AD0531CDBB20136A0549D4203D0023225
:1054A000E154D2B2F0E72A0021000448FFF7AAFF36
:1054B000431E9841C0B2BD46F8BDC046000B002057
:1054C000F0B50024012685B0184B0F0069461E7008
:1054D00005000094FFF73CFC154B01A90B806A3BCB
:1054E000FF3BCB716E3B0B72009B8C7109334B8081
:1054F0000E4B4E7108711C703A00092F0FD00D4FE2
:1055000009223E700C4E280000943480FFF77AFF89
:1055100069462800FFF71CFC328808493C702800C7
:10552000FFF770FF012005B0F0BDC046AC0E0020B3
:1055300009020000AD0F0020AE0F0020AD0E0020CC
:10554000F0B5CF7893B005000E00022F09D1C988BD
:105550002B48FFF7B5FF441EA041C4B2200013B092
:10556000F0BD00F021FC310000F0FEFB002803D06C
:10557000C417241AE40FF1E7012F0BD1F288214957
:10558000112A11D8D2B2002A0ED02800FFF73AFF14
:105590000124E3E70400032FE0D1B378002B05D109
:1055A000F2881949032AEDD90A78EEE7022B06D1D1
:1055B000B27916492800FFF74FFF0400CEE7012B10
:1055C00002D1B2791249F5E7032BC7D1114B01A9DA
:1055D0001868FFF7C4F9104B03A91868FFF7BFF963
:1055E0000E4B05A91868FFF7BAF90D4B07A9186803
:1055F000FFF7B5F96B460533DC77B27901A9D9E736
:10560000000B0020117D0000047D0000F87C0000EC
:10561000087D00000CA0800040A0800044A0800015
:1056200048A0800037B5050048780C000B2810D83A
:1056300000F014FC061B0F2B0F41466E4A4D676AA3
:10564000097801AA002906D1022311802800FFF75A
:10565000B5FE01203EBD002313802E4B1B78012B8D
:1056600000D1137002230021F0E78A780023012A79
:1056700003D101AA1380284BF0E7264A1370274A6A
:1056800093699B0B9B039361E3E78C78012C06D114
:105690000021214B01AA1C7011702300D6E70020C5
:1056A0008442D7D11B4B01301C4A187093699B0B65
:1056B0009B039361CEE789782800FFF715FCC8E7C4
:1056C0002800FFF73DFFC5E70123154ACBE70B781C
:1056D0000020DB06BED12800FFF7C8FC2A200221EB
:1056E000A2780F4BFF301A600C4A13681C5C2143F0
:1056F0004A241954FF34195D2938FF3801431955DC
:10570000D4E70123074AAEE78A78064B1A60B6E76A
:1057100000209FE7220B00202A0B0020B80F00205A
:10572000B00F0020B40F00204B4BF7B51C780700DA
:10573000002C00D083E0494E33689B8B1B070ED5AD
:1057400021002000FFF730F9326810231100FF31EB
:10575000887A03438B72424B1C600823938333681F
:105760009A8B52071FD504229A833E4A1378002B46
:105770000AD01378013BDBB213701378002B03D1EE
:1057800001211A20FEF738FC374A1378002B0AD083
:105790001378013BDBB213701378002B03D1012186
:1057A0001920FEF729FC3368FF331A7AD2061ED57A
:1057B00010221A72597930320A435A7160232B49E8
:1057C00038000A781A423BD1FFF72CFF3368FF33C9
:1057D000002838D08022997952420A439A711A7A65
:1057E000520604D540221A72597A0A435A72336813
:1057F00000241D8C01239D43EDB20193E1B2002DE5
:105800001DD02B002341019A134215D0230032688A
:1058100008335B01D318DA79D20702D4DB799B070E
:1058200007D5134BA200D058002810D003681B687E
:105830009847019BA3409D430134092CDED1F7BD5D
:10584000FFF776FBC2E720210A4A9171C7E73800CB
:10585000FFF794FAEDE7C046AD0F0020B80F002027
:10586000B00F0020210B0020200B0020EC0C0020AA
:10587000040B0020FF50004110B50248FFF754FF11
:1058800010BDC046000B0020014B024A1A60704751
:10589000B80F0020005000410120704710B5036888
:1058A000014A1B6A984710BD130400000300FC3333
:1058B000D9699A69914203D0DB69C018007D7047AD
:1058C00001204042FBE710B504000069FEF716FD19
:1058D00022000023FC329361D36186229200A41837
:1058E0006360A36010BDF020014030394842484158
:1058F0007047F0231B011940802306209B0099422A
:105900000AD00133FF330130994205D08023023899
:105910005B00994200D0002070470F20014000201A
:10592000012903D00239481E8141481C70470000FC
:105930008923F0B5182685B002919B000400C05C55
:10594000330008214343324D1700EB185956FEF738
:1059500097FB304B0821E05C33004343EB1859566A
:10596000FEF78EFB2C4BE25C0393022A09D1113324
:10597000E05CFF2805D008214643AE197156FEF7BA
:105980007FFB8A26B600A05DFF2819D00121FEF713
:1059900003FB1822A35D21495A43AB56AD18DB0126
:1059A00058188B21890060501D4901225B188C21F9
:1059B0008900635069688A408D21890062501A60AD
:1059C0000122029B11002069FEF77AFE39002000B7
:1059D000FFF78FFF390005002000FFF79EFF390019
:1059E00006002000FFF77FFF3300009029002069A8
:1059F0000122FEF753FC0B4B2069E25C039BE15C48
:105A0000FEF769FC2069FEF786FC05B0F0BDC046D4
:105A100034780000250200002702000018440041ED
:105A20001444004126020000802210B504005200F8
:105A3000002100F011FC23000022FC335A602000FA
:105A40009A6010BDF7B51D0008AB1B7804000093E9
:105A500009AB1B781600019300234360FA239B00D7
:105A60008360114B0F00083303601430FFF7DCFF35
:105A700020001D30FF30FFF7D7FF89236A469B00C7
:105A80002761E654094B1278E554094B2000E25493
:105A90006A46084B1279E2548A22293BFF3B920066
:105AA000A3541032A354FEBD247D00002502000043
:105AB00026020000270200000300FC3358689B68A0
:105AC000C01A01D50130FF30704710B50400200026
:105AD0001D30FF30FFF7F0FF0028F8D12069FEF7F6
:105AE00024FC10BD10B51430FFF7E6FF10BD030015
:105AF000FC3359689A68914204DB5A689868801AA6
:105B0000FF30704798685B68C01A0138F9E710B534
:105B10001D30FF30FFF7EBFF10BD10B5040000692A
:105B2000FEF71FFC002805D02069FEF72AFC20693B
:105B3000FEF71CFC2069FEF704FC002820D0206939
:105B4000FEF71FFC2200FC329369D1690133DBB2FE
:105B50008B4203D091696118087593618A239B0079
:105B6000E35CFF2B0CD020001430FFF7C0FF0928A6
:105B700006DC8B238D229B009200E358A2581A600A
:105B80002069FEF7F9FB00281AD020001D30FF30F5
:105B9000FFF792FF002822D086239B00E318996824
:105BA0005A68914218D08E219A684900A218515C17
:105BB0009A680132D2B29A60C9B22069FEF7E5FB59
:105BC0002069FEF7C3FB002805D02069FEF7C2FB61
:105BD0002069FEF7B2FB10BD01214942ECE72069C4
:105BE000FEF7DFFBECE7000070B5040000690D0074
:105BF000FEF7C2FB00283ED1FF2686239B00E31858
:105C00005A689968013232408A4223D1EFF31083F7
:105C1000DB0710D41E4B5B68DB05DB0DEDD0103BC2
:105C20005BB2002B10DA0F221340083B9B08194A85
:105C30009B009B181B682069FEF79EFB0028DCD0A8
:105C40002000FFF76AFFD8E79B08C033124A9B0089
:105C50009B58F0E75A68013216409A68964205D080
:105C60008E215A684900A21855545E602069FEF7DB
:105C700094FB012070BD20001D30FF30FFF71CFF9A
:105C80000028B9D129002069FEF77FFBF1E7C04663
:105C900000ED00E01CED00E000E100E0030070B565
:105CA000FC33D9699A69040091421AD0DA698218E2
:105CB000157DDA690132D2B2DA618A239B00E35C96
:105CC000FF2B0CD020001430FFF711FF0A2806DD4F
:105CD0008C238D229B009200E358A2581A60280062
:105CE00070BD01256D42E8E77047000010B5FEF772
:105CF00005F800F061FAFFF7F7FF0120FDF728FF34
:105D0000094C2000FFF75CF82000FFF7D3F8FCF700
:105D1000F5F9FCF707FAFDF73DFF044B002BF8D02F
:105D200000E000BFF5E7C046000B002000000000C7
:105D300010B500F065FA10BD10B500F06BFA10BD9B
:105D400070B50E0000254468002C0BD0236831008C
:105D50005B6820009847002802DB2D18E468F3E711
:105D600001256D42280070BD70B50D004468002CFF
:105D700008D0236829009B6820009847002802D19A
:105D8000E468F4E7200070BD70B50D004468002C95
:105D900008D0236829001B6820009847002802D1FA
:105DA000E468F4E7200070BD0121054A10B51368CE
:105DB00004480B4003D1044C43600480116010BDC3
:105DC000BC100020C01000200204000070B50400C8
:105DD000012304CC0500117820000B4313708022AE
:105DE0000021520000F038FA2B689A78D207FCD4D0
:105DF0009A789207F9D45C6270BD00001F22144BA0
:105E0000F0B51B68590B9C0C9B01114014405B0FB3
:105E1000914200D105211F2C00D1023C072B00D15B
:105E2000043B02688F01158D0A491F26294039431A
:105E3000118505683440298D0A00B24322432A8522
:105E400000681903028D044B13400B430385F0BD1A
:105E5000246080003FF8FFFFFF8FFFFF02B4714610
:105E600049084900095C49008E4402BC7047C0469D
:105E7000002243088B4274D303098B425FD3030A89
:105E80008B4244D3030B8B4228D3030C8B420DD39C
:105E9000FF22090212BA030C8B4202D3121209022A
:105EA00065D0030B8B4219D300E0090AC30B8B4268
:105EB00001D3CB03C01A5241830B8B4201D38B0316
:105EC000C01A5241430B8B4201D34B03C01A5241BB
:105ED000030B8B4201D30B03C01A5241C30A8B42FE
:105EE00001D3CB02C01A5241830A8B4201D38B02E9
:105EF000C01A5241430A8B4201D34B02C01A52418D
:105F0000030A8B4201D30B02C01A5241CDD2C309FE
:105F10008B4201D3CB01C01A524183098B4201D37A
:105F20008B01C01A524143098B4201D34B01C01A65
:105F3000524103098B4201D30B01C01A5241C308DD
:105F40008B4201D3CB00C01A524183088B4201D34C
:105F50008B00C01A524143088B4201D34B00C01A38
:105F60005241411A00D20146524110467047FFE7A4
:105F700001B5002000F0F0F802BDC0460029F7D0BE
:105F800076E7704703460B437FD4002243088B42D9
:105F900074D303098B425FD3030A8B4244D3030BB0
:105FA0008B4228D3030C8B420DD3FF22090212BA75
:105FB000030C8B4202D31212090265D0030B8B42F1
:105FC00019D300E0090AC30B8B4201D3CB03C01ADB
:105FD0005241830B8B4201D38B03C01A5241430BB6
:105FE0008B4201D34B03C01A5241030B8B4201D3A6
:105FF0000B03C01A5241C30A8B4201D3CB02C01A11
:106000005241830A8B4201D38B02C01A5241430A88
:106010008B4201D34B02C01A5241030A8B4201D377
:106020000B02C01A5241CDD2C3098B4201D3CB011E
:10603000C01A524183098B4201D38B01C01A5241CD
:1060400043098B4201D34B01C01A524103098B42D1
:1060500001D30B01C01A5241C3088B4201D3CB00BC
:10606000C01A524183088B4201D38B00C01A52419F
:1060700043088B4201D34B00C01A5241411A00D24F
:1060800001465241104670475DE0CA0F00D04942B8
:10609000031000D34042534000229C4603098B4228
:1060A0002DD3030A8B4212D3FC22890112BA030AB0
:1060B0008B420CD3890192118B4208D38901921132
:1060C0008B4204D389013AD0921100E08909C309B7
:1060D0008B4201D3CB01C01A524183098B4201D3B9
:1060E0008B01C01A524143098B4201D34B01C01AA4
:1060F000524103098B4201D30B01C01A5241C3081C
:106100008B4201D3CB00C01A524183088B4201D38A
:106110008B00C01A5241D9D243088B4201D34B00A5
:10612000C01A5241411A00D20146634652415B10E7
:10613000104601D34042002B00D5494270476346C8
:106140005B1000D3404201B5002000F005F802BD0D
:106150000029F8D016E770477047C04630B51C00DC
:10616000094B05001B6885B0D868084B002A01D18F
:10617000074B1A000292019300912B00220005495F
:1061800000F00AF800F0D2FC9C000020587D0000CE
:1061900090750000657D00000EB403B5010003ABEF
:1061A000044804CB0068019300F02EF902B008BC4B
:1061B00003B018479C00002070B500260C4D0D4C14
:1061C000641BA410A64209D1002601F0B5F90A4DBE
:1061D0000A4C641BA410A64205D170BDB300EB5855
:1061E00098470136EEE7B300EB5898470136F2E7DF
:1061F00000010020000100200001002028010020F3
:1062000010B5034B0100186800F078F810BDC046C7
:106210009C00002010B5034B0100186800F024F822
:1062200010BDC0469C00002030B50024A24201D120
:10623000002005E0035D651C0C5DA34201D0181B26
:1062400030BD2C00F2E7002310B59A4200D110BDFA
:10625000CC5CC4540133F8E703001218934200D118
:10626000704719700133F9E770B50500002910D0A7
:106270000C1F2368002B00DAE418280000F074FEDD
:106280001D4A1368002B05D163601460280000F0DC
:106290006CFE70BDA34209D9216860188342F3D116
:1062A00018685B6841182160EEE713005A68002AFD
:1062B00001D0A242F9D919685818A0420BD1206820
:1062C0000918581819608242E0D1106852684118C4
:1062D00019605A60DAE7A04202D90C232B60D5E797
:1062E00021686018824203D1106852684118216009
:1062F00062605C60CAE7C046C8100020032370B526
:10630000CD1C9D43083506000C2D1ED20C25A9423C
:106310001DD8300000F028FE254A1468210000290D
:1063200019D1244C2368002B03D1300000F0F8FA77
:1063300020602900300000F0F3FA431C2BD10C231D
:106340003000336000F011FE03E0002DDFDA0C2393
:106350003360002070BD0B685B1B19D40B2B03D975
:106360000B60CC18256003E04B688C420DD11360A4
:10637000300000F0FAFD200007220B30231D90436F
:10638000C31AE7D05A42E250E4E763600C00EFE73B
:106390000C004968C3E70323C41C9C43A042E1D01E
:1063A000211A300000F0BCFA431CDBD1C7E7C0461D
:1063B000C8100020CC100020936810B5013B9360FA
:1063C000002B04DA9469A34207DB0A2905D013687D
:1063D000581C10601970080010BD00F0DBFA0100B5
:1063E000F9E7F8B506000F001400D518AC4201D14A
:1063F000002007E021783A003000FFF7DDFF01348C
:10640000431CF3D1F8BD0000F0B59FB002900F001F
:1064100016000593002805D083690493002B01D151
:1064200000F084FC7B4B9F425BD1029B5F68BB8981
:106430001B0762D53B69002B5FD0002306AC63616C
:10644000203363761033A37635002B78002B01D0F0
:10645000252B5CD1AB1B04930CD032003900029881
:10646000FFF7BFFF431C00D1C4E06269049B944660
:10647000634463612B78002B00D1BBE00122002331
:106480005242626002A9543252186E1C2360E360CB
:10649000A3601370A365317805225F4800F046FDC4
:1064A000751C002835D12268D30604D5532302A9D0
:1064B0005B1820211970130704D5532302A95B1818
:1064C0002B21197033782A2B2CD0350000210A207B
:1064D000E3682A786E1C303A092A64D900292ED044
:1064E00026E04E4B9F4202D1029B9F689FE74C4B98
:1064F0009F429CD1029BDF6899E73900029800F027
:106500009FFA002899D0012040421FB0F0BD01350C
:106510009BE7414B2268C01A012383401343236049
:106520002E00B8E7059B191D1B680591002B01DBA8
:10653000099304E05B42E3600223134323602B785A
:106540002E2B0AD16B782A2B35D1059B02351A1DCB
:106550001B680592002B2BDB0793324E2978032210
:10656000300000F0E3FC002806D04023801B83406D
:106570002268013513432360297806222A486E1CBD
:10658000217600F0D3FC00283AD0284B002B25D1EF
:106590000722059B07339343083305936369039AE6
:1065A0009B18636150E7434301219B18350090E736
:1065B00001235B42D0E700230A201A000135636003
:1065C00029786E1C3039092903D9002BC5D00792D0
:1065D000C3E74243012352183500F1E705AB0093AE
:1065E0003A00134B2100029800E000BF0390039B88
:1065F0000133D3D1BB895B0600D584E70B9884E7D0
:1066000005AB00933A000A4B2100029800F080F895
:10661000ECE7C046EC7D0000987D00000C7E000099
:10662000CC7D00009E7D0000A27D000000000000E7
:10663000E3630000F7B5150001938A680B690090C9
:106640000C00934200DA130022002B6043321278D0
:10665000002A01D001332B6023689B0602D52B68EA
:1066600002332B60062723681F4027D023004333C3
:106670001B785A1E93412268920630D42200019959
:1066800043320098089EB047431C25D0062320685B
:106690002A68E16803400025042B03D18D1AEB43DF
:1066A000DB171D40A3682269934201DD9B1AED1898
:1066B0000027BD4220D1002010E00137E3682A689E
:1066C0009B1ABB42D2DD22000123193201990098A6
:1066D000089EB047431CF0D101204042FEBD30204F
:1066E000E1184331087021005A1C45310978A2187D
:1066F000433202331170C1E7220001231A3201999B
:106700000098089EB047431CE6D00137D1E700004F
:10671000F0B589B004920A004332059303900292C7
:106720000A7E0C000E9B6E2A00D186E01FD8632AD9
:1067300033D008D8002A00D18CE0582A4DD025004B
:1067400042352A7030E0642A01D0692AF7D11968ED
:1067500025680A1D280629D508681A60002803DA6A
:106760002D23029A404213706B4E0A274FE0732A82
:1067700074D008D86F2A1FD0702AE0D1202209686F
:106780000A43226003E0752A16D0782AD7D1220066
:10679000782145321170614E22E025001A68423599
:1067A000111D196013682B70012365E008681A60D9
:1067B0006906D3D500B2D1E719682568081D1860AD
:1067C00008682E0605D5544E08276F2A1BD00A27C5
:1067D00019E06D06F7D580B2F5E745314E4E0A70E7
:1067E00018682268011D00681960150621D5D307B5
:1067F00002D520231A4322601027002803D120232A
:1068000022689A4322602300002243331A7063688F
:10681000A360002B58DB04222168914321600028EB
:1068200054D1029D002B5AD02500337842352B706D
:1068300055E05506DBD580B2D9E71A680D68101D02
:106840004969186013682E0601D5196002E06D06CB
:10685000FBD519800023029D23614FE01A68111DAA
:106860001960156800216268280000F05FFB0028AD
:1068700001D0401B6060636823610023029A13709B
:106880003CE023692A0004990398059DA847431C0E
:106890003ED023689B0715D4079BE068984239DAFD
:1068A000180037E022000123193204990398059E4D
:1068B000B047431C2CD00135E368079A9B1AAB42C2
:1068C000F0DCE9E70025F7E70028ADD0029D3900AC
:1068D000FFF754FB735C013D2B700028F7D1082FA4
:1068E00009D12368DB0706D563682269934202DC7D
:1068F0003023013D2B70029B5B1B2361059B07AA84
:1069000000932100049B0398FFF794FE431CB8D129
:106910000120404209B0F0BDA97D0000BA7D000011
:10692000002370B5064C05000800236000F0ECFD64
:10693000431C03D12368002B00D02B6070BDC046E0
:10694000D41000200EB400B50B499CB01DAB0290D2
:106950000690079104910948094904CB0591006804
:1069600002A9019300F08AFB0023029A13701CB065
:1069700008BC03B01847C046FFFFFF7F9C00002003
:106980000802FFFF0023C25C0133002AFBD1581E1E
:1069900070470000F8B505000E001400002804D070
:1069A0008369002B01D100F0C1F9224B9C422DD10B
:1069B0006C68A369A360A3891B0731D52369002BE9
:1069C0002ED023682269F7B2981A6369F6B283421F
:1069D00005DC2100280000F03BF9002826D1A3683F
:1069E0000130013BA36023685A1C22601F70636959
:1069F000834204D0A389DB071AD50A2E18D12100BF
:106A0000280000F025F9002812D00FE00A4B9C4224
:106A100001D1AC68CDE7094B9C42CAD1EC68C8E70C
:106A20002100280000F00CF80028CAD00126764288
:106A30003000F8BDEC7D00000C7E0000CC7D000035
:106A4000364B70B51D6806000C00002D05D0AB69F3
:106A5000002B02D1280000F069F9314B9C420FD184
:106A60006C680C23E25E93B219072DD4D90611D4B9
:106A700009230120336037331343A381404270BDA3
:106A8000284B9C4201D1AC68EBE7274B9C42E8D1F4
:106A9000EC68E6E75B0713D5616B002908D023009B
:106AA0004433994202D03000FFF7DEFB00236363DA
:106AB0002422A3899343A381002363602369236075
:106AC0000823A2891343A3812369002B0BD1A021A2
:106AD0008022A389890092000B40934203D02100B9
:106AE000300000F0DFF90123A289134011D0002308
:106AF000A36063695B42A361002023698342BED126
:106B00000C23E25E1306BAD540231343A381013858
:106B1000B5E7920700D46369A360EDE79C0000200D
:106B2000EC7D00000C7E0000CC7D000010B506203E
:106B300000F0CCFB012000F0FDFC0000F7B58A89D5
:106B400005000C00130760D44B68002B04DC0B6CB1
:106B5000002B01DC0020FEBDE76A002FFAD00023E5
:106B60002E682B6080235B01216A1A4034D0606D4F
:106B7000A3895B0706D56368C01A636B002B01D03D
:106B8000236CC01A0200216A00232800E76AB84774
:106B9000A189431C06D12B681D2B30D82B4ADA4023
:106BA000D3072CD50023636023692360CB0405D56C
:106BB000431C02D12B68002B00D16065616B2E60F5
:106BC0000029C7D023004433994202D02800FFF7A0
:106BD0004BFB00206063BEE701232800B847431C3D
:106BE000C6D12B68002BC3D01D2B01D0162B01D191
:106BF0002E60AFE74023A2891343A381ABE7402374
:106C00000B430120A3814042A5E70F69002FA1D0CB
:106C10000B680F60DB1B01930023920700D14B69C7
:106C2000A360019B002B00DC94E7019B3A00216AE2
:106C30002800A66AB047002803DC4023A28913433A
:106C4000DFE7019B3F181B1A0193EAE70100402090
:106C50000B6970B505000C00002B01D1002070BD40
:106C6000002804D08369002B01D100F05FF80B4BA2
:106C70009C4209D16C680C22A35E002BEED021004F
:106C80002800FFF75BFFEAE7054B9C4201D1AC68A7
:106C9000F1E7044B9C42EED1EC68ECE7EC7D0000A0
:106CA0000C7E0000CC7D0000002310B504000360C2
:106CB0004360836081814366C28103614361836174
:106CC000190008225C30FFF7C7FA054B24626362A3
:106CD000044BA362044BE362044B236310BDC04624
:106CE0000D730000357300006D7300009973000090
:106CF00010B5024900F08CF810BDC046516C000080
:106D000070B568254A1E55430E0029007431FFF7FF
:106D1000F5FA041E08D000212A00016046600C30FC
:106D2000A0606832FFF798FA200070BD836913B540
:106D30000400002B28D18364C3640365134B144AF9
:106D40001B6882620193984201D101238361200074
:106D500000F020F86060200000F01CF8A060200027
:106D600000F018F80022E06004216068FFF79CFF43
:106D700001220921A068FFF797FF02221221E06893
:106D8000FFF792FF0123A36113BDC046947D00006D
:106D9000F16C0000F8B51C4B07001E68B369002BAE
:106DA00002D13000FFF7C2FF4836B4687368013B78
:106DB00004D53368002B07D03668F6E70C22A55EB1
:106DC000002D0DD06834F2E704213800FFF798FF5A
:106DD00030600028F0D10C2304003B602000F8BD97
:106DE00020000A4B656625606560A560E36025614B
:106DF0006561A561082229005C30FFF72DFA656303
:106E0000A563A564E564E9E7947D00000100FFFF48
:106E1000F7B504000700002601914834002C01D189
:106E20003000FEBD6368A5680093009B013B0093A2
:106E300001D52468F2E7AB89012B08D90E22AB5E9D
:106E4000013304D029003800019B98470643683578
:106E5000EBE7000070B50E001D000E23C95E96B072
:106E60001400002907DA00232B60B3891B0611D414
:106E70008023DB000FE06A4600F0BAFA0028F2DB5C
:106E8000F022019B12021340054A9B185A425341BB
:106E90002B60EDE740230020236016B070BDC04694
:106EA00000E0FFFFF7B502268B8905000C00334296
:106EB00006D0230047332360236101236361F7BDBC
:106EC00001AB6A46FFF7C6FF009907002800FFF7ED
:106ED00015FA002808D10C22A35E9A05EFD40322EC
:106EE00093431E43A681E4E70F4BAB628023A28944
:106EF00020601343A381009B20616361019B002BF1
:106F00000DD00E23E15E280000F084FA002806D0A0
:106F10000322A38993431A0001231343A381A08969
:106F20003843A081CBE7C046F16C0000C9B282189B
:106F3000904201D10020704703788B42FBD0013092
:106F4000F6E710B5884202D98B18984203D3002384
:106F500007E08B5C8354013AFBD210BDCC5CC45477
:106F600001339A42FAD1F8E770477047F8B5070045
:106F70000D001600002905D11100FFF7BFF904002C
:106F80002000F8BD002A03D1FFF76EF93400F7E7BF
:106F900000F066FA2C00B042F2D231003800FFF760
:106FA000ADF9041EECD029003200FFF74CF929009E
:106FB0003800FFF759F9E3E7F0B58E6885B00700B0
:106FC0000C00039201939E423CD890238A89DB00F7
:106FD0001A4234D00325096923685B1A0293636956
:106FE00002985D43EB0F5D19019B6D1001331B1877
:106FF000AB4200D91D00530532D529003800FFF7F8
:107000007DF9061E09D10C233B6040230120A28993
:1070100040421343A38105B0F0BD029A2169FFF7F6
:1070200012F9A389144A1A4080231343A381029BB7
:107030002661F61826606561019EED1AA560019B28
:107040009E4200D9019E320003992068FFF779FF24
:10705000A36800209B1BA36023689E192660DAE7C3
:107060002A003800FFF782FF061EE0D121693800B0
:10707000FFF7FAF8C7E7C0467FFBFFFFF0B59FB008
:10708000029005938B890F0016001B0611D50B6922
:10709000002B0ED14021FFF731F93860386100280C
:1070A00005D10C23029A013813601FB0F0BD4023B4
:1070B0007B61002306AC6361203363761033A376D3
:1070C00035002B78002B01D0252B46D1AB1B049328
:1070D0000CD0320039000298FFF76EFF431C00D13C
:1070E000AEE06269049B9446634463612B78002B95
:1070F00000D1A5E0012200235242626002A954326D
:1071000052186E1C2360E360A3601370A36531788E
:1071100005225448FFF70AFF751C00281FD122687A
:10712000D30604D5532302A95B1820211970130735
:1071300004D5532302A95B182B21197033782A2B0D
:1071400016D0350000210A20E3682A786E1C303AF8
:10715000092A4ED9002918D010E00135B1E7414B7A
:107160002268C01A01238340134323602E00CEE718
:10717000059B191D1B680591002B01DB099304E099
:107180005B42E3600223134323602B782E2B0AD14A
:107190006B782A2B35D1059B02351A1D1B68059289
:1071A000002B2BDB0793304E297803223000FFF7AA
:1071B000BDFE002806D04023801B83402268013595
:1071C000134323602978062228486E1C2176FFF796
:1071D000ADFE00283CD0264B002B25D10722059B75
:1071E00007339343083305936369039A9B186361DC
:1071F00066E7434301219B183500A6E701235B4264
:10720000D0E700230A201A000135636029786E1C3C
:107210003039092903D9002BC5D00792C3E742436F
:10722000012352183500F1E705AB00933A00114BEA
:107230002100029800E000BF0390039B0133D3D1EB
:10724000BB890B985B0600D42FE7012040422CE756
:1072500005AB00933A00074B21000298FFF758FA5C
:10726000EAE7C046987D00009E7D0000A27D0000F8
:1072700000000000B96F000070B504000D001F2968
:1072800004D9162303600120404270BD436C002BDB
:1072900004D08A009B181A68002A08D1200000F048
:1072A00031F82A000100200000F01AF8EDE7002074
:1072B000012AEAD0511C03D1162301302360E4E7F0
:1072C000002428001C6090472000DEE710B5034B27
:1072D00001001868FFF7D0FF10BDC0469C000020D9
:1072E000002370B5064C050008001100236000F073
:1072F000F3F8431C03D12368002B00D02B6070BD32
:10730000D410002010B500F0D7F810BD70B50C00F7
:107310000E25495F00F0ACF8002803DB636D1B18F5
:10732000636570BDA389024A1340A381F9E7C04693
:10733000FFEFFFFFF8B51F008B8905000C0016005A
:10734000DB0505D50E23C95E0022022300F074F888
:10735000A389054A28001340A38132000E23E15E71
:107360003B0000F01FF8F8BDFFEFFFFF70B50C0009
:107370000E25495F00F060F8A389421C03D1054A3D
:107380001340A38170BD802252011343A381606525
:10739000F8E7C046FFEFFFFF10B50E23C95E00F00F
:1073A00015F810BD70B50500080011000022064C4C
:1073B00022601A0000F0B6F8431C03D12368002BAA
:1073C00000D02B6070BDC046D4100020002370B5E3
:1073D000064C05000800236000F05EF8431C03D152
:1073E0002368002B00D02B6070BDC046D410002055
:1073F000002370B5064C050008001100236000F062
:1074000053F8431C03D12368002B00D02B6070BDC0
:10741000D4100020002370B5064C0500080023603E
:1074200000F052F8431C03D12368002B00D02B60DE
:1074300070BDC046D410002070B5050008001100D2
:107440000022064C22601A0000F04EF8431C03D1C3
:107450002368002B00D02B6070BDC046D4100020E4
:107460000B1F1B68181F002B01DA0B58C018704740
:1074700070B50500080011000022064C22601A00B9
:1074800000F03AF8431C03D12368002B00D02B6096
:1074900070BDC046D410002058220120014B40424C
:1074A0001A607047D410002058220120014B40423E
:1074B0001A607047D410002058220120014B40422E
:1074C0001A607047D41000205822024B00201A6026
:1074D0007047C046D410002058220120014B404282
:1074E0001A607047D410002058220120014B4042FE
:1074F0001A607047D410002058220120014B4042EE
:107500001A607047D4100020044A1368002B00D181
:10751000034B1818106018007047C046D0100020A8
:10752000D810002058220120014B40421A607047B9
:10753000D4100020FEE7C046F8B5C046F8BC08BC31
:107540009E467047F8B5C046F8BC08BC9E467047DA
:1075500008000000100000002000000040000000B3
:107560008000000000010000000200000004000094
:107570004947482D52464D36394843572D4B4559BA
:1075800000444556494345202564203A204F4B0A84
:10759000003C544553543E003C544553543A4F4BE1
:1075A0003E0000000000000000000000000000009D
:1075B00000000000000000000000000000000000CB
:1075C00000000000000000000000000000000000BB
:1075D00000000000000000000000000000000000AB
:1075E000000000000000000000000000000000009B
:1075F000000000000000000000000000000000008B
:10760000000000000000000000000000000000007A
:10761000000000000000000000000000000000006A
:10762000000000000000000000000000000000005A
:10763000000000000000000000000000000000004A
:10764000000000000000000000000000000000003A
:10765000000000000000000000000000000000002A
:10766000000000000000000000000000000000001A
:10767000000000000000000000000000000000000A
:1076800000000000000000000000000000000000FA
:1076900000000000000000000000000000000000EA
:1076A00000000000000000000000000000000000DA
:1076B00000000000000000000000000000000000CA
:1076C00000000000000000000000000000000000BA
:1076D00000000000000000000000000000000000AA
:1076E000000000000000000000000000000000009A
:1076F000000000000000000000000000000000008A
:1077000000000000000000008D2E00005127000046
:10771000412E0000F92E0000852F0000A92900004D
:10772000AB260000E1270000E1290000E928000065
:10773000C32F0000B9260000D5260000705F7365D6
:1077400072636F6D20213D204E554C4C00433A5CD6
:1077500055736572735C636C6172656E63652E61EF
:107760006C7563686F5C417070446174615C4C6FF0
:1077700063616C5C41726475696E6F31355C706118
:10778000636B616765735C61646166727569745C83
:1077900068617264776172655C73616D645C312EDF
:1077A000352E31345C6C69627261726965735C5349
:1077B00050495C5350492E63707000535049436CDC
:1077C0006173733A3A535049436C6173732853455C
:1077D00052434F4D2A2C2075696E74385F742C20EB
:1077E00075696E74385F742C2075696E74385F74B7
:1077F0002C20536572636F6D5370695458506164E7
:107800002C20536572636F6D5258506164290000DB
:107810000000000000000000C935000039340000FD
:10782000353400005D340000793400008D360000EE
:107830005F340000000000000B00000002000000A8
:107840001C000000FF00010101010B00000000000E
:107850000A000000020000001C000000FF00000100
:1078600000010A00000000000E00000008000000F7
:1078700004000000FF00000000000E0000000000F7
:1078800009000000040000001C000000FF000100CF
:1078900001000900000000000800000004000000D2
:1078A0001C000000FF0000000000100000000000AD
:1078B0000F000000040000001C000000FF00010396
:1078C00001030F000000000014000000050000008C
:1078D0002C000000FF000200020004000000000075
:1078E000150000000800000004000000FF00FFFF7A
:1078F000FFFF05000000000006000000040000007B
:107900001C0000000600000100010600000000004D
:1079100007000000040000001C0000000700010137
:107920000101070000000000120000000400000038
:107930001C000000FF000003000302000000000024
:1079400010000000040000001C000000FF00000206
:10795000000200000000000013000000050000000D
:107960002C000000FF0003000300030000000000E3
:1079700011000000040000001C000000FF000102D4
:1079800001020100000000000200000001000000F0
:10799000020000000000FFFFFFFF020001000000E6
:1079A00008000000010000001800000002000004B0
:1079B00000040800010000000900000001000000B0
:1079C0001800000003000104010409000000000089
:1079D0000400000001000000180000000400000086
:1079E000000004000000000005000000010000008D
:1079F0001800000005000100010005000100000062
:107A00000200000001000000000000000A00FFFF6B
:107A1000FFFF02000000000016000000020000004E
:107A200004000000FF00FFFFFFFF06000000000051
:107A3000170000000200000004000000FF00FFFF2C
:107A4000FFFF0700000000000C0000000300000022
:107A500004000000FF00FFFFFFFF0C00010000001A
:107A60000A0000000300000004000000FF00FFFF08
:107A7000FFFF0A00010000000B00000003000000EF
:107A800004000000FF00FFFFFFFF0B0001000000EB
:107A9000030000000B00000004000000FF00FFFFD7
:107AA000FFFFFF00000000001B0000000B000000B3
:107AB00004000000FF00FFFFFFFFFF0000000000C8
:107AC0001C0000000600000000000000FF00FFFF97
:107AD000FFFFFF000000000018000000060000008B
