:1020000000800020454200000D4200002D420000EB
:1020100000000000000000000000000000000000C0
:102020000000000000000000000000002D42000041
:1020300000000000000000002D4200009942000056
:102040002D4200002D4200002D4200002D420000D4
:10205000D14100002D420000BD3B00003142000094
:102060002D420000AD3F00002D4200002D42000037
:10207000853F00002D420000BD3F00002D420000C2
:102080002D4200002D4200002D4200002D42000094
:10209000000000002D4200002D4200002D420000F3
:1020A0002D4200002D4200002D4200002D42000074
:1020B0000000000010B5064C2378002B07D1054B1B
:1020C000002B02D0044800E000BF0123237010BDA4
:1020D000C0020020000000001CC70000044B10B527
:1020E000002B03D00349044800E000BF10BDC046E8
:1020F00000000000C40200201CC7000010B500F062
:102100005BF900F0B1F900F0A5FA00F0DBF900F09E
:10211000A9FB00F047FB00F0FBF800F07BFA00F0B1
:1021200007FA00F0ABFB00F045FB00F0FFF800F011
:1021300015FA10BD10B500F057F900F07FF900F066
:10214000F3FA00F0DDF900F0ABFB00F055FB00F016
:10215000FBF800F025FA10BD074B10B504004171E3
:1021600082710649186804F0FFFAFA239B0058436D
:10217000E060200010BDC0462800002040420F0053
:1021800070B504000D004079022102F0EDFA02F072
:1021900091F8024B6574C018A06070BD30F8FFFF65
:1021A00070B505000E000024687902F039FBB042DA
:1021B00005D1EA68631CA24203D8012464422000CE
:1021C00070BD1C00F0E7000070B5D0B00D00040039
:1021D00002F070F8002D07D1A3683F4AC31A93425A
:1021E00002D8207C50B070BD00250221A06025607F
:1021F0006079257102F0B8FA012002F091F8607957
:10220000012102F0B1FA6079290002F0DDFAA37928
:10221000153B012B1BD8314B013BFDD160790221CD
:1022200002F0A2FA637C002B06D030200321584331
:1022300004F09AFA0138FDD172B600212000FFF7B0
:10224000AFFF431C07D10020207462B6CAE71420F8
:1022500002F066F8E2E701212000FFF7A1FF431C2E
:10226000F1D0A0260025760000212000FFF798FF7E
:102270006B460121E8502000FFF792FF2B00083544
:102280006B445860B542EFD162B600220121684626
:10229000D300C0586B445E68431C01D0731C02D14C
:1022A000002020749EE7D510635D5B00DBB2B04276
:1022B00010D301326355282AE9D161782378227935
:1022C0005B18A1785B18E1785B18DBB29A42E7D122
:1022D0000120E6E70B43ECE7CF070000C044000015
:1022E00030B5094D094CAB685B035B0F9B001C5973
:1022F0000460AB6801619BB243606343A4008360E8
:10230000C460426130BDC0460040004190B9000049
:1023100010B537210348FFF733FF01F0CBFF024B25
:10232000186010BDDC020020F402002010B5044B40
:10233000186801F0F5FF00210248FFF745FF10BDC6
:1023400000000020DC02002070B501F0B3FF104D4A
:102350002B68C01A0F4B1B68984218D90E4C0021ED
:102360002000FFF731FF002811D001F0A3FFFE226B
:102370002860A378D2011B021340E2781343074A76
:1023800013802278637812021343054A138070BDCC
:10239000F402002000000020DC020020F2020020F5
:1023A000F002002010B50623162205210148FFF790
:1023B000D3FE10BDDC02002010B501210D2002F07B
:1023C000D3F90C2002F0F2F800212D2002F0CCF914
:1023D0003222014B1A6010BDFC02002010B52D20E6
:1023E00002F04EF980B210BD70B501F063FF0F4CE2
:1023F0000F4D2368C01A2B68984215D90D2002F0A2
:102400000FFA414241410D2002F0DEF90D2002F0A9
:1024100007FA431E9841074B40421840064BC0182C
:10242000286001F047FF206070BDC0460003002017
:10243000FC0200207CFCFFFFB603000010B501F099
:1024400039FF074C2368C01AFA239B00984206D92B
:10245000FFF7C4FF034B188001F02CFF206010BD74
:1024600004030020F8020020E12110B5074C4902C6
:10247000200002F0C5FE200002F0C4FE0028FAD0C1
:10248000FF220021024806F0BEFC10BDD80C00203F
:102490000803002070B505000400FF3521780029ED
:1024A00005D00648013402F0A9FAAC42F6D1FF2269
:1024B0000021034806F0A7FC70BDC046D80C0020E0
:1024C0000803002010B5074801F0F8FB0023232281
:1024D0001021054800F036FA01F0ECFE034B1860BD
:1024E00010BDC0467C0500200C0400201C04002008
:1024F00010B50021014800F02FFA10BD0C04002097
:1025000010B501F0D7FE074C2368C01A064B1B68B4
:10251000984206D9FFF7ECFF044B188001F0CAFE81
:10252000206010BD1C0400200400002008040020CE
:10253000044B10B5186801F0F3FEFFF7D9FF024B0A
:10254000188010BD040000200804002010B52321CD
:10255000014800F0C1F910BD0C0400200B4B10B570
:10256000186801F0DDFE0023094C01210948238091
:1025700000F06AFC04F0E6FA80B22080002803D064
:102580000548FFF787FF10BD0448FAE70800002060
:102590002004002028040020C3B90000CDB90000A9
:1025A00070B501F087FE0F4C2368C01A0E4B1B68F4
:1025B000984215D900230D4D01210D482B8000F0C4
:1025C00043FC04F0BFFA82B22A800A4D0A4928006F
:1025D00007F078FA2800FFF75DFF01F06BFE20603E
:1025E00070BDC04624040020080000202004002004
:1025F0002804002008030020B0B9000000220121B7
:10260000034B1A735A739973DA7319747047C0467F
:1026100028040020962110B5064C8901200003F003
:10262000B9FD2100044800F0C9FB01F043FE034B53
:10263000186010BDB00700202804002024040020EA
:1026400010B5012303220821014800F037FC10BD1A
:102650006804002010B50121042002F085F8012152
:10266000042002F0B1F8642001F05AFE0021042099
:1026700002F0AAF8642001F053FE104C0E21200055
:1026800000F07AFD0E4B0F4A1B7812885B21200068
:1026900000F0FCFD2000012101F05CF820000D227B
:1026A000032100F0F1FC05222000042100F0ECFCE5
:1026B0000549200000F0B6FD10BDC04668040020AA
:1026C0000C0000200E000020DAB9000013000022E8
:1026D00013B5054C00920A000100200000F0BEFF77
:1026E000200000F095FF13BD6804002070B50A4D6E
:1026F0000600280000F08CFF0024A04207D0074B02
:1027000007491A78300006F062FB064B1C88280047
:1027100000F07EFF200070BD68040020F10400205E
:10272000AF040020F204002030B597B00722124910
:1027300001A806F04CFB0A22104903A806F047FB4B
:1027400006A8FFF7D3FF041E14D007220C4901A8E6
:1027500006F02EFB00280DD10A4D22000A49280060
:1027600007F0B0F92800FFF795FE0A2203A9200020
:10277000FFF7ACFF17B030BDFBB9000002BA000094
:10278000AF04002008030020EBB9000010B50D22B3
:1027900002490348FFF7A4FD10BDC04600BB00007E
:1027A0008004002010B501F085FD014B186010BDBC
:1027B000980400200C4B70B5186801F0B1FD00239F
:1027C0000A4E0B4D0B4C3380238028000C330A2219
:1027D000052101F0A1F80C2330800A2228000321F2
:1027E00001F09AF8208070BD10000020A4040020A1
:1027F0009E0400209C040020F8B501F05BFD0F4C06
:102800002368C01A0E4B1B68984216D900230D4F3F
:102810000D4D0E4E3B802B800A220C3305213000DB
:1028200001F07AF80C2338800A220321300001F0ED
:1028300073F8288001F03EFD2060F8BD9804002068
:1028400010000020A40400209C0400209E0400200E
:1028500010B500230C220A21014800F0ADFF10BD85
:102860009E04002010B50021102001F07DFF01F032
:1028700021FD014B186010BDA8040020002310B5F5
:10288000054C2380054B186801F04AFD102001F02B
:10289000F7FE208010BDC046A604002014000020D2
:1028A00070B501F007FD094C2368C01A084B1B687E
:1028B000984209D90023074D10202B8001F0E0FE3B
:1028C000288001F0F7FC206070BDC046A8040020FD
:1028D00014000020A604002045234370034B017020
:1028E000436000230372024BC36070479A99993F7B
:1028F0007C0500200B00103BDBB2F7B504000D0097
:102900000026132B1AD801273A009A400C4B1A4282
:1029100014D00178C06801F0F1F9E068290003687B
:102920001B689847E06801F094FA01900A2001F0D2
:10293000F7FC019BB34201D13E0025723000FEBD81
:102940000B000B0010B5002B00D0C360002A00D094
:102950000270FFF7CFFF10BD70B5037A04000D00C1
:10296000002B01D1002070BD0178C06801F0C6F9CC
:10297000E068217A03681B689847E06801F069FA0B
:10298000237A202B0DD3212B1ED9232B09D160783C
:102990000B3B002D1DD10001452103F06FFF01F01D
:1029A000BFFC21780222E06801F0F1F90228D9D1B8
:1029B000E06803685B6998470502E06803685B6943
:1029C0009847284380B2CEE76378B420002D00D129
:1029D00078205843E0E70000F7B501930B00093376
:1029E0000093019B07000D003D4C3E4E012B3DD056
:1029F000002A3ED13C49200001F0FCFF3B7C2F0027
:102A0000002B1AD03949200001F0F4FF29780A225E
:102A1000200002F03BF83100200001F0EBFF009BAA
:102A20000135AB42F2D13249200001F0E3FF0A2226
:102A30000199200002F02EF8F7BD2E49200001F088
:102A4000D9FF3B780F2B03D82B49200001F0D2FF90
:102A500039781022200002F019F83100200001F02E
:102A6000C9FF009B01379F42E7D1DCE71E49002ADE
:102A700000D02249200001F0BDFF3B7C2F00002B3D
:102A800015D01A49200001F0B5FF29780A2220004C
:102A900001F0FCFF3100200001F0ACFF009B01358C
:102AA0009D42F2D13100200001F0B6FFC4E7114988
:102AB000200001F09FFF3B780F2B03D80E49200028
:102AC00001F098FF39781022200001F0DFFF31007B
:102AD000200001F08FFF009B01379F42E7D1E1E723
:102AE000D80C00206CC4000000BC00000DBC00002D
:102AF00018BC000013BC000016BC000025BC000080
:102B000070B5C37B04000D00002B03D003780122B5
:102B1000FFF762FFA0682900036809225B689847F5
:102B2000A0680368DB68984770BD00204B1C083123
:102B30001A7801338018C0B28B42F9D14042C0B23A
:102B400070470000F8B50D00040001F0B3FB092246
:102B500006000021280006F056F900232370A06823
:102B600003681B699847082829DC01F0A3FBF423BC
:102B7000FF33801B9842F2D9264F2749380001F0D5
:102B80004BFF0223A0682370036800261B69984747
:102B900068706B78B34201D80220F8BDA068013696
:102BA0000368F6B25B6998471C492870380001F049
:102BB00021FF29780A22380001F06CFFE9E7092299
:102BC0002900A06802F06FFA2378022BE4D02900D4
:102BD0002000FFF7AAFF2B7A834201D00423237041
:102BE0002A78637C9A4203D16A78E37C9A4201D0C6
:102BF000032323702378002B01D101332370E37B5F
:102C0000002B05D02378002229002000FFF7E4FEE6
:102C10002078C2E7D80C00202EBC000055BC000074
:102C200010B50A000C49C37C8C789C4204D1010089
:102C30002C31FFF787FF10BDCC789C4202D10100F8
:102C40001A31F6E70979994202D101002331F0E700
:102C500001003531EDE7C04618000020F0B5060050
:102C6000370087B002AB981D0191140000210722A4
:102C7000113706F0C8F809220021380006F0C3F821
:102C80001F4B03AD019A2B801E4B501E9B5CAB70FB
:102C9000062809D803F05EFD040808081418260069
:102CA000337B002B00D1EC7029003000FFF73DFF93
:102CB000092228722900380006F089F807B0F0BD13
:102CC000002CF1D0AC71EFE7E317DBB21B191B123C
:102CD000EB700D4B1C4003D50C4B013C1C430134E5
:102CE0002C71E1E7E317DBB21B191B12AB71064B2A
:102CF0001C4003D5054B013C1C430134EC71D3E768
:102D0000FF01000018000020FF00008000FFFFFF0F
:102D100070B5040001F0CEFA250003210600002260
:102D200020001135FFF79AFF29002000FFF7E8FE89
:102D3000210003221A312000FFF704FF01280BD0E5
:102D400001F0B8FAF423FF33801B9842F0D91749F9
:102D5000174801F061FE70BD00220B212000FFF733
:102D60007DFF29002000FFF7CBFE01F0A3FA05004C
:102D700021000B2235312000FFF7E4FE012808D0A6
:102D800001F098FAF423FF33401B9842F0D9094927
:102D9000DEE7230020341C331978DA7E914201D01B
:102DA0000549D5E70133A342F6D1D4E7A0BC000022
:102DB000D80C0020D2BC000004BD000010B50400F7
:102DC0008160FFF7A5FF2378012B03D00249034858
:102DD00001F022FE10BDC0466FBC0000D80C0020E0
:102DE00010B5040001F066FA6368C01A05F018FF18
:102DF00000220B4B03F062FE00280FD0237B002B38
:102E00000CD001F057FA0121606000222000FFF78A
:102E100025FF210020001131FFF772FE10BDC046D2
:102E20007099844170B504000D00FFF717FF210071
:102E300020001131FFF764FE29002000FFF7F0FEAB
:102E40002000FFF7CDFF70BD70B504000D1E03D04C
:102E500000220221FFF7E6FF2378012B02D0002099
:102E6000002D08D123002E3318782F342378000248
:102E7000C01804F029F970BD704700000122014B11
:102E80001A707047F604002010B504004269016909
:102E9000034800F0DFFD2079002101F095FC10BD12
:102EA000F804002010B50121007901F08DFC0248E2
:102EB00000F0ECFD10BDC046F804002001710121B6
:102EC00010B5084C427108340460074A074C117071
:102ED00004611F220024C272447504758472037356
:102EE00010BDC04644BD0000F004002000093D00B4
:102EF000036810B59B680C00984700280BD0064B60
:102F00001B88A34202D00020844204D1034B1878CE
:102F1000431E9841C0B210BDF2040020AD04002051
:102F2000F0B505000E00002487B003930CAB1B78AE
:102F3000029204930DAB1B78059301222B6800923B
:102F40001F68029A039B31002800B84701F0B2F9CC
:102F5000070001F0AFF9059BC01B984207D2310072
:102F60002800FFF7C5FF0028F3D007B0F0BD0134FB
:102F7000049BE4B2A342E0D20020F6E7036870B5F8
:102F8000DB6A04000D0098477F212940074D280087
:102F900000F090FD0021280000F08CFD0500236862
:102FA00020001B6B9847280070BDC046F804002025
:102FB000F0B585B01F000AAB1B78019103930BABF2
:102FC0001E78036802925B6A01210400984727215A
:102FD0002000FFF7D3FF0306F9D53D1C3D2F00D994
:102FE0003D25EDB28027002E03D1039F7B1E9F411C
:102FF000BF01019BFF2B03D90C229B1113401F43E0
:103000002389FF2B02D99B059B0F1F4323682000B8
:10301000DB6A98471B4E8021300000F04BFDE91C15
:10302000C9B2300000F046FD6B463000197900F05F
:1030300041FD217A300000F03DFD3900300000F004
:1030400039FD029F7D19AF4205D03978300000F07C
:1030500031FD0137F7E7236820001B6B9847236891
:1030600004215B6A20009847082528212000FFF7EB
:1030700085FF2842F9D0236801215B6A2000984728
:1030800005B0F0BDF8040020036870B5DB6A1600D7
:1030900004000D00984780212943064D280000F0C8
:1030A00009FD3100280000F005FD236820001B6B9E
:1030B000984770BDF804002070B52E4E0400337898
:1030C0000D008B4220D004291ED80800012103F0F6
:1030D00041FB433C2F1C03002000FFF74FFF1C2344
:1030E0000C2298430243D2B201212000FFF7CCFF0B
:1030F000237B002B04D0012123689B6A2000984782
:103100003378002B2ED0357070BD2000FFF736FFCE
:103110001C23102298430243D2B201212000FFF762
:10312000B3FF237B002BEBD0236800219B6AE5E7EC
:103130002000FFF723FF1C23082298430243D2B24A
:1031400001212000FFF7A0FFDAE72000FFF716FFBC
:103150001C2304229843F1E72000FFF70FFFE3222E
:103160000240EDE727212000FFF708FF0306C7D53F
:10317000C9E7C046F004002010B50A1C04001F294E
:1031800000D91F22D3B2E272227B002A01D05B0851
:10319000E37211212000FFF7F1FE1F230200E07A05
:1031A0009A430243D2B211212000FFF76DFF10BDF8
:1031B0000023154A70B51370144A28211380144A4D
:1031C00004001380134A04251370134A1370134A22
:1031D0001370134A1380FFF7D1FE284209D03D2116
:1031E0002000FFF7CBFE0543EAB23D212000FFF7A8
:1031F0004BFF402220002521FFF746FF23680321D3
:103200005B6A2000984770BDF1040020F2040020A2
:10321000F4040020AC040020AE040020AD04002023
:10322000EE0400200368F7B55B6A0C00012105007D
:103230009847002C18D02B682800DB6A9847124F5B
:10324000BE21380000F036FC230026001033019325
:103250003178380000F02EFC019B01369E42F7D1F8
:103260002B6828001B6B984728003D21FFF786FE3E
:1032700001230200601E84419A4322432800D2B2F7
:103280003D21FFF701FFF7BDF8040020F0B58FB036
:10329000019343790400837102AB9E1C0D0017005B
:1032A00000212C22300005F0AEFD5F4B02AA1380F6
:1032B000022393705D4B03935D4B049307231373B9
:1032C00001339373013313745A4B53825A4B9382D5
:1032D0005A4BD3825A4B13835A4B53835A4B938383
:1032E0005A4BD383130030220133DA77584B02AAAA
:1032F0005384584B9384584BD384584B1385584B65
:103300005385FF220DAB1A704E231F2D06D01E339E
:103310002B2D03D06D33562D00D00B3302AA5373DF
:10332000C0231F2D06D0803B2B2D03D08033562D7C
:1033300000D1002302AAD3736B461B790121F377D6
:10334000207901F041FA0121207901F00DFA454878
:1033500000F058FB09220023627434322374A274F3
:10336000E3742375637500F0A5FF2F25060029007F
:103370002000AA22FFF788FE29002000FFF7FEFDAB
:10338000AA2804D000F096FF801B3128EFD900F066
:1033900091FF2F250600290020005522FFF774FE1B
:1033A00029002000FFF7EAFD552804D000F082FF35
:1033B000801B3128EFD900256B0002AAD15CFF29C0
:1033C00007D09B185A7820000135FFF75DFEEDB25B
:1033D000F2E700212000FFF725FF2368217B1B690E
:1033E00020009847236801215B6A2000984700F07D
:1033F00061FF050027212000FFF7C0FD030604D46C
:1034000000F058FF401B3128F4D900F053FF451B52
:103410000020312D06D8A0790422134900F020FEA7
:10342000012027810FB0F0BD010400000302044019
:10343000050306331942000025400000260700005E
:103440002810000029DCFFFF2E88FFFF2F2D000031
:103450003790FFFF384200003C8FFFFF3D12000015
:103460006F300000F80400207D2E000070B50400CD
:1034700000290AD001222321FFF706FE022523217D
:103480002000FFF77BFD2842F9D024212000FFF720
:1034900075FD404200B2401070BD000010B50B4BEE
:1034A00004001B78032B01D0002010BD084B1978B5
:1034B0000029F9D1FFF7DAFF5A30F5DA2368200046
:1034C0005B6A012198470120EFE7C046F004002025
:1034D000AC040020F8B5444B04001B78032B00D04B
:1034E0007BE02821FFF74AFD430700D475E02368FD
:1034F00001215B6A2000984723682000DB6A984717
:103500003A4D0021280000F0D5FA0021280000F0F3
:10351000D1FA031C422800D94223354A0021280051
:10352000137000F0C7FA334F00213880280000F0F4
:10353000C1FA314E00213080280000F0BBFA0100B2
:103540008301C0203A888000034013430A020240EE
:1035500030883B8002433280A27A002A04D122893B
:103560009A4201D0002B03D1214B1B78022B0BD8A0
:1035700000231F4A2000137023681B6B98472368A1
:1035800020001B6A9847F8BD1C4F033B22680800C7
:103590003B707F2398431A4B00261870402319482C
:1035A0000B4003709369200098473B78B34208D9D9
:1035B0000021280000F07EFA134B98550136F6B230
:1035C000F3E7002210492000CA5423681B6B984778
:1035D000236803215B6A2000984700212000FFF741
:1035E00045FF0A4B1880CEE7F0040020F8040020C5
:1035F000AC040020F4040020F2040020F1040020B8
:10360000AD040020AE040020AF040020EE04002032
:103610000F4B10B51A780400002A03D000221A704C
:10362000FFF758FF0B4B1B78032B0BD100200A4BE5
:103630001B78834205D0236820005B6A01219847EC
:10364000012010BD236820001B6A98470020F8E77E
:10365000F6040020F0040020AC040020F0B585B092
:1036600002930AAB1B780D003D2103930400160062
:10367000FFF784FC04220243D2B23D212000FFF771
:1036800003FD00F017FE07002000FFF707FF0028EA
:103690000AD100F00FFE0B4BC01B984204D82368E0
:1036A00020009B689847EFE700220192039A236865
:1036B0000092DF693200029B29002000B84705B064
:1036C000F0BDC046E7030000F0B587B005920022C8
:1036D0001C4B1D4E1A701D4B049100229B5E3D2118
:1036E000039304003588FFF749FC04220243D2B259
:1036F0003D212000FFF7C8FC00F0DCFD07002000A2
:10370000FFF7CCFE00280AD100F0D4FD104BC01BFF
:10371000984204D8236820009B689847EFE701226D
:1037200035800192002223680092DE69049A059B8D
:1037300029002000B0476A46044B92891A8007B0DE
:10374000F0BDC046AE040020F2040020EE040020CC
:10375000E703000010B50F2204000173002900D117
:103760000B3213212000FFF78FFC237B002B0CD0A2
:1037700011212000FFF702FC1F22104041320243BA
:1037800011212000FFF780FC10BD8023E27A1A434C
:10379000F6E770B55D2204000D1E00D1083A5A21EB
:1037A0002000FFF771FC7C22002D00D10C3A5C2137
:1037B0002000FFF769FC70BD837000230170427028
:1037C000C3700371704770B51D0014000E00100027
:1037D000012100F0C9FF0121280000F0C5FF0121EF
:1037E000200000F0F1FF0121280000F0EDFF002192
:1037F000200000F0E9FF0021280000F0E5FF012192
:10380000280000F0E1FF0121200000F0DDFF002191
:10381000280000F0D9FF330001222900200001F028
:103820009CF80121280000F0CFFF0021200000F0CB
:103830009BFF200000F0F4FF0021884209D12800FE
:1038400000F0C2FF200000F0EBFF0138414241418F
:10385000C9B2080070BD70B50D000021280000F04D
:1038600083FF64240A2000F05BFD280000F0D8FFED
:10387000002808D0013CE4B2002CF3D10138431EEB
:103880009841C0B270BD0120FCE770B50C00150076
:103890002000002100F068FF01222900200001F033
:1038A00039F801210600200000F05EFF2000002111
:1038B00000F08AFF2800012100F056FF28000121B6
:1038C00000F082FF2800002100F07EFF2000002190
:1038D00000F04AFF29000122200001F01BF8360207
:1038E000C0B2304380B270BD70B50D001400280026
:1038F000012100F039FF2000012100F035FF2800F0
:10390000012100F061FF2000012100F05DFF002196
:10391000200000F059FF70BDF8B5150004001E002E
:10392000FFF751FF29002000FFF795FF3200290023
:103930002000FFF7AAFF0700320029002000FFF750
:10394000D3FF3800F8BD0000F0B5040085B01E00BC
:103950000AAB1B78103001930BAB1B781700029356
:103960000CAB1B780D00039300F0F4F8200024301A
:1039700000F0F0F8220000234032A363E3631370E9
:1039800063729D4205D10A4B0A4A22210A4805F07A
:1039900097F96B461B79200063716B461B7A256093
:1039A000E3716B461B7B2771A671237205B0F0BDD6
:1039B00080BD0000FFBD000091BD0000437A002BD8
:1039C00004D18372C372C36001334372704730B550
:1039D000040085B002AD00680291039201F04EF937
:1039E0006B79227AE17900932068002301F0F0FAE4
:1039F0002979029A206801F065F9206801F034F90C
:103A000005B030BD70B518260400FFF7D7FF3300AE
:103A1000082120790D4D4343EB18595600F018FF4B
:103A200033000821A0794343EB18595600F010FFEA
:103A3000082160794643AD19695600F009FF044B2F
:103A4000200006CBFFF7C3FF70BDC04678BE000064
:103A50003C05002007B5837A00910192002B07D026
:103A60009A070AD5EFF310835A425341C37272B6D4
:103A70000099019AFFF7ABFF07BDDB07F8D5C368D4
:103A8000014A9BB29360F3E700180040837A002B51
:103A900005D09A0704D5C37A002B00D062B67047D0
:103AA000DB07FCD5C368024A9BB2D360F7E7C04688
:103AB0000018004010B5006801F0E9F810BD0000E2
:103AC0001FB5094A094B0A4913600023537113714A
:103AD00002930133019316330093162201330548F4
:103AE000FFF732FF05B000BD3C05002000093D0096
:103AF000380C0020F8040020094B1868002809D170
:103B0000EFF310820749002A08D172B6BFF35F8F26
:103B100001320A701A6801321A6070470870F9E7BA
:103B20004805002044050020084B1A68002A0CD0E4
:103B30001A68013A1A601B68002B06D1044B1B78E7
:103B4000002B02D0BFF35F8F62B67047480500209C
:103B500044050020FF23002110B504000370FC3B46
:103B600041708170C170017143710C22083005F001
:103B70004AF9200010BD000001220B0010B51340CF
:103B800008D00D4B1A70042343708368002B00D0BB
:103B9000984710BD0222114204D007490A704370B1
:103BA000C368F3E704231942F3D0034A13700333C5
:103BB00043700369EAE7C0464E48004110B5FFF77D
:103BC0009BFF0C4B1B8C1B071B0F0B2B0FD80A4AA0
:103BD0009900885800280AD00F2408490A78A2437F
:103BE00013430B70064B1978C9B2FFF7C5FFFFF7F7
:103BF0009BFF10BD004800414C0500203F4800419C
:103C00004E48004100207047F8B505000E0017002F
:103C10000024BC4208D02B68315D1B6828009847FF
:103C2000002801D00134F4E72000F8BD70470300FC
:103C3000FC33196ADA69914203D01B6AC018007E0E
:103C4000704701204042FBE70300FC33D8691B6A40
:103C5000C01A01D50130FF3070470000F7B501935D
:103C6000FA238026002504009B008360124B760017
:103C700008330F00456029000092036032001830BD
:103C800005F0C1F823002000FC332130DD61320053
:103C90001D622900FF3005F0B6F887239B00E3186A
:103CA0005D609D606B461B78276123756B461B79B1
:103CB000A57520006375FEBD54BE000070B50600FA
:103CC00018250C49006901F0ADF9306901F01AF8C6
:103CD0002B000821307D084C4343E318595600F06F
:103CE000B7FD0821707D45436419615600F0B0FDB1
:103CF00070BDC046A086010078BE00008A23002265
:103D00009B00C1540C3BC3185A609A600123837511
:103D10007047020010B5FC32536894680133DBB27F
:103D20009C4202D054680155536010BDF7B5002481
:103D30000500170001932000A24227D02B00FC337E
:103D4000DC611C620122286901F01AF8A0421CD033
:103D50002E001836286901F082F801340100300085
:103D6000FFF7D7FF2869A74206D000F0E9FF02213C
:103D7000286900F0EFFFEDE700F0D9FF019B002B71
:103D800003D00321286900F0E5FFE0B2FEBD10B5C5
:103D90000123FFF7CBFF10BD002210B5837D9342B6
:103DA0000DD087239B00C4186368A4680133DBB27D
:103DB000A34204D02130FF30FFF7ABFF01221000F7
:103DC00010BD0300FC3399685A68914206D09A6886
:103DD000805C9A680132D2B29A60704701204042FA
:103DE000FBE700228A2370B59B00827505000E0058
:103DF000C15C006900F0C4FF002806D103212869D6
:103E000000F0A8FF0224200070BD872328009B003B
:103E1000EA18536894682130FF301C1B01D5013427
:103E2000FF34002C0ED02C69FFF7CBFFC1B220006D
:103E300000F0D3FF0028E8D10321286900F08AFFB1
:103E40000324E0E7002EDED00321286900F082FF82
:103E5000D9E710B50121FFF7C4FF10BD10B5183028
:103E6000FFF7AFFF10BD70B50400006900F0D5FF8B
:103E7000002814D0206900F0DEFF002810D020694F
:103E800000F05EFF0321206900F064FF8C239B009B
:103E9000E558002D39D10023FC34E361236270BD65
:103EA000206900F0D2FF002809D0206900F0C8FF87
:103EB000002804D0206900F0CDFF0028DFD0206961
:103EC00000F0C3FF002826D1206900F0AFFF0028D2
:103ED000E5D0206900F0BEFF002837D087239B0083
:103EE000E218536892689B1A01D50133FF33FF2112
:103EF000002B05D020002130FF30FFF762FFC1B258
:103F0000206900F07CFFA075C9E7236820001B69C9
:103F10009847A847BFE7206900F012FF20690321F6
:103F200000F018FF206900F095FF0028B7D0872324
:103F300000229B00E3185A609A600123A3758B232B
:103F40009B00E3589342AAD09847A8E72200FC328E
:103F5000D369126A0133DBB22069934206D100F0C3
:103F6000E6FE0321206900F0F5FE98E700F077FFF8
:103F7000010020001830FFF7CCFE206900F0E0FEC1
:103F8000EFE7000010B50248FFF76DFF10BDC04617
:103F90007C05002010B51523142202490248FFF7C2
:103FA0005DFE10BD340C00207C05002010B50248D9
:103FB00002F02FFA10BDC046B007002010B502482D
:103FC00002F027FA10BDC046EC090020F7B5012425
:103FD0000326154F1549380000F0B0FD1449154867
:103FE00000F0ACFD1449154800F0A8FD144915482F
:103FF00000F0A4FD1449154800F0A0FD144D15492A
:10400000280000F09BFD3900009623000194002257
:10401000114802F093F90096290001941E231F22F3
:104020000E4802F08BF9F7BD280C00200008004272
:10403000000C00422C0C002000100042300C00202C
:1040400000140042340C002000180042380C0020FC
:104050003C0C0020001C0042B0070020EC090020AE
:10406000F7B500921822162542434F4B07009B18C4
:104070005D5701916B1C4ED04C4B4D4C1E68002E71
:1040800027D1310044224B4804F0BDFE31004422C8
:10409000494804F0B8FE1022484B49491E60CA67DF
:1040A000C021C120474B49005A5080001958FF36A3
:1040B000B14319501A60444B444A5A800223227873
:1040C000134323706378DB09012BFBD00122374BAC
:1040D0001A6001231E00AE40626932436261019A98
:1040E000002A18D0102D1FD1E2781343E370009BF3
:1040F000042B0BD818000723A2789A4302F02AFB5E
:10410000030C0E10120005231343A3702A4B019ACF
:104110001A64B6B2E660F7BD0423F5E70323F3E7BC
:104120000223F1E70123EFE738000027002100F028
:104130008FFB224B1F499C461B68BA00BB421DD116
:104140006046013303608E501B4B01999950072D37
:1041500019DD0123083DAD000721A940144A9B0049
:104160009B189A698A439A61009A042AD1D8100050
:10417000996902F0EFFA0B10121416008858B04239
:10418000E1D00137D9E7AD000023E5E70522AA40D9
:104190000A439A61BDE70422F9E70322F7E7022206
:1041A000F5E70122F3E7C04678BE0000C80C002006
:1041B00000180040840C0020400C0020CC0C002093
:1041C00004E100E000E100E0000C004005400000D8
:1041D000F8B50024094B1B68A34200D8F8BD084E6F
:1041E000084FA5003369EA591A4204D0064BEB5830
:1041F0009847EB5933610134ECE7C046CC0C002002
:1042000000180040840C0020400C0020054B10B525
:104210001B6C002B00D098470123034AD1780B4335
:10422000D37010BD400C002000180040FEE70000D5
:10423000034B10B51B68002B00D0984710BDC0463B
:10424000D00C002070B50F490F4CA14204D100F0F2
:104250008DF802F0C7F9FEE70C4D00238D42F6D031
:10426000CA18E818A24205D3094B8242EFD0094987
:10427000002204E0006804331060F1E704C38B42BD
:10428000FCD3E4E700000020C002002020C70000AB
:10429000C0020020CC12002010B500F064F8002805
:1042A00001D100F055F810BD014B18607047C046B1
:1042B000D00C0020014B18687047C046D40C002079
:1042C000F7B51348012284461249134C8E6863687F
:1042D00005689B0E1340019288686268019F920EE8
:1042E0003A4067463F6893420ED1BD420CD18642A8
:1042F0000AD35B19FA254868AD00861B07486B4353
:104300007043000DC018FEBD3D0013000600E3E73A
:10431000D40C002010E000E000ED00E05555000056
:1043200070B5041E10D0FFF7CBFF050000F01AF89F
:10433000FFF7C6FF054B401B9842F7D9FA23013C13
:104340009B00ED18002CF3D170BDC046E7030000C0
:1043500010B5034A13680133136000F0B3FB10BDBE
:10436000D40C002070470020704700001E2270B55A
:1043700046484749436893431C3A13434360082324
:104380008C6923438B61434C434B9C829C8A14432E
:104390009C82DC681442FCD00124404A14701578D9
:1043A000254203D055786DB2002DF8DB01249460CE
:1043B000547864B2002CFBDB394C5460547864B2FE
:1043C000002CFBDB8224E4015480547864B2002C7E
:1043D000FBDB02249C840E34DD682542FCD0314C8A
:1043E000DC621024DD682542FCD09D8C2E4C2C43D1
:1043F0009C841024DD682542FCD002249D8C8026FC
:104400002C439C844024DD683542FCD0DD68254285
:10441000F9D01024DD682542FCD000249460547843
:1044200064B2002CFBDB214C5460547864B2002C45
:10443000FBDB1C6A1E4D2C4080251C621C6AAC43B1
:104440001C62032393601B4B536053785BB2002BB9
:10445000FBDB0023FF240B72174A4B728B72CB726B
:10446000164B1A60164B174A1B6811689A065B01B7
:10447000C90E2340520F12020B431343124A1385F5
:10448000802342681343436070BDC0460040004132
:10449000000400400C06000000080040000C004032
:1044A00001050100B905FF7D040A000000070300B3
:1044B000FFFCFFFF03060100006CDC022800002067
:1044C000246080002060800000400042FA212D4BD3
:1044D00010B51868890002F047F92B4B0138984253
:1044E0004FD82A492A4A4860C020136A00061B0296
:1044F0001B0A0343136200238B6007330B60802188
:10450000136A09061B021B0A0B431362FC22214B90
:10451000196A0A431A62FF22196A12020A431A62CE
:10452000A022196AD2020A431A621B4B1C005A7855
:1045300052B2002AFBDB194A5A80194B1A00597EE5
:10454000C9090129FBD0C821890099800521D970AA
:10455000537EDB09012BFBD0C02300205B011361DC
:10456000907000F049F863785BB2002BFBDB0D4BD9
:104570000D4A6380D379DB09012BFBD041235370B3
:1045800010BDFEE728000020FFFFFF0010E000E064
:1045900000ED00E000040040000C00401E40000060
:1045A0000040004221400000004800420F4B3022F2
:1045B00018600F490F4B0A2809DD988890439880AE
:1045C000243A0A605A7ED209012AFBD07047082893
:1045D00006DD98889043202202439A800A22F0E761
:1045E000988802439A800822EBE7C04630000020FA
:1045F0002C000020004000421F4900B50B004A7EFD
:10460000D209012AFBD001380A282FD802F0A2F8DB
:104610001B2E2E2E2E2E062E2E2411001A6917491F
:104620000A400F211A615A788A43110001220A4375
:1046300010E01A6911490A400F211A615A788A4319
:1046400011000322F3E71A690C490A400F211A618D
:104650005A788A435A7000BD1A6908490A400F21E6
:104660001A615A788A4311000222E0E7F0221969A0
:1046700012050A43F3E7C04600400042FFFFFFF087
:1046800010B5040006285ED007285ED0052800D8A3
:104690000E340121200000F0DBF80E2C0DD12D4B43
:1046A0001900DA79D209012AFBD002201A78824354
:1046B0001A70CB79DB09012BFBD027490B004A7E0E
:1046C000D209012AFBD018226243244CA418207C72
:1046D0001F240A692040A24302430A615A7ED2097C
:1046E000012AFBD0022219780A431A705A7ED20995
:1046F000012AFBD00222197B0A431A7301221A767F
:104700005A7ED209012AFBD00222197B0A431A736E
:104710001A7ED207FCD5588B80B25A7ED209012A64
:10472000FBD002211A788A431A705A7ED209012AD4
:10473000FBD00B4B1A680B4B1B689A4202D006D970
:10474000D31AD84010BD2C24A3E72D24A1E79B1A2F
:104750009840F7E7004800420040004278BE000061
:104760002C00002030000020182310B508244343FB
:10477000134AD0180457013412D001249A564368C2
:104780009C4003290CD808000E49D2015218D318B6
:10479000403301F0DFFF0210060B02211970546054
:1047A00010BD0621197054609461F9E70621197053
:1047B00054605461F4E7022119709460F0E7C04638
:1047C00078BE0000004400411823F0B50824584387
:1047D000114A13181C5701341BD0012635005F689D
:1047E0008356BD400D4ADB019A18906805420BD1F3
:1047F0000C00601E8441D2194032107834400336D8
:10480000A400B04320431070044A9B18002901D132
:104810005D61F0BD9D61FCE778BE00000044004191
:10482000182310B50824434307490020CA18145719
:10483000013408D05B560549DB015B18186A5368E0
:10484000D8400123184010BD78BE0000004400414C
:104850001822424370B52D4E0300B218127A52B29C
:10486000140001320ED0481C00240C280AD801F094
:1048700071FF071F1F1F1F1F1F1F1F0B0B0B0B009D
:1048800001246442200070BD092905D100211800CF
:10489000FFF76AFF0024F5E70A2901D10839F6E796
:1048A00000240B29EED10A391800FFF75DFFE9E774
:1048B000182201205343F218F3565568144ADB01BD
:1048C0006C089B18C9B228401C1900280ED00F2074
:1048D000303422780901024011434122C9B25B19E8
:1048E0002170403319780A431A70D3E722000F264B
:1048F000303214785B19B4432143117041224033A4
:10490000197804000A431A70BCE7C04678BE00005C
:1049100000440041F7B5002507000E002C0001926D
:1049200030000121FFF750FF019B64B23800002BDB
:104930000DD1FFF775FFA840044300213000013579
:10494000E4B2FFF741FF082DEAD12000FEBDFFF7DA
:1049500067FF07235B1B9840EEE7F7B507000E00E3
:104960000024012501920093019B002B14D1290002
:10497000A140009B380019404B1E9941FFF724FFCE
:1049800029003000FFF720FF013400213000FFF73D
:104990001BFF082CE8D1F7BD072329001B1B9940FA
:1049A000E7E7F7B506000D000C008B180193019B9B
:1049B000671B9C4207D0336821781B6830009847FA
:1049C00001340028F3D13800FEBD70B504000800A2
:1049D0000D0005F097F82368020029005B682000AD
:1049E000984770BD10B50B1E02D0FFF7EEFF030015
:1049F000180010BD10B5FFF7F5FF10BD10B5036826
:104A00001B68984710BD000010B50249FFF7DDFF95
:104A100010BDC046C8C2000070B50400FFF7E2FF39
:104A200005002000FFF7F0FF401970BDF0B58BB016
:104A30006B461500002205330600DA770800012DC9
:104A400000D80A2509AC290001F014FFCAB21300EE
:104A500037330700DBB2092902D813003033DBB249
:104A6000013C2370002FEED121003000FFF7BAFF88
:104A70000BB0F0BD10B5002A04D10368C9B21B68A1
:104A8000984710BDD2B2FFF7D1FFFAE710B5FFF794
:104A9000F1FF10BD70B50400FFF7ECFF050020002A
:104AA000FFF7B2FF401970BD014B18607047C04658
:104AB000340000200122024B52421A607047C04667
:104AC00034000020164A10B51368591C26D0013B4B
:104AD0001360002B22D172B6124B134A0433934257
:104AE00013D9124A01211000147D0C42FCD0202160
:104AF000148BFF319B085B0021431183D3610C4B66
:104B000013800123027D1A42FCD0BFF34F8F094B63
:104B1000094ADA60BFF34F8FC046FDE710BDC046BB
:104B2000340000200020000003020000004000418B
:104B300002A5FFFF00ED00E00400FA0501607047E8
:104B40009446F0B59E1E721E964162460568920715
:104B50002F6836063A4332432A60072505AC24788D
:104B60000068A4012940214342680024022B00D0A0
:104B70005C03114321434160F0BD30B5C02503689B
:104B8000AD031C6812052A402243C0240904A40274
:104B900021401143196003685A6814435C6030BDBA
:104BA0000123026811680B43136003681A68D20777
:104BB000FCD4DA69D207F9D470470223026811687D
:104BC0000B4313600268D3699B07FCD470470368EA
:104BD0001A7ED20702D41A7E9207FCD570470022B3
:104BE00003685A8370470368187E4007C00F7047F8
:104BF0000368187EC0097047802302685B42117EFB
:104C00000B43137670470368588B8007C00F7047BB
:104C100002230268518B0B43538370470368187E4D
:104C2000C007C00F70470368188DC0B27047036893
:104C30001A7ED207FCD589B201201985704701225E
:104C400003689A757047012203681A75704701233B
:104C5000026811680B43136003681A68D207FCD41A
:104C6000DA69D207F9D470470223026811680B434E
:104C700013600268D3699B07FCD470470368DA6944
:104C80009207FCD402211A688A431A6070470268AE
:104C9000936A5B0A5B021943916203681A7E5207AA
:104CA000FCD5986AC0B2704710B54900044801F0BD
:104CB0005BFD80B2002801D0013880B2C0B210BDC7
:104CC000006CDC0270B54B080C00012105680B403C
:104CD0000C402E6824075B07234333432B601100ED
:104CE0000468FFF7E1FF207370BD012302681168BB
:104CF0000B43136003681A68D207FCD4DA69D20741
:104D0000F9D470470223026811680B4313600368EB
:104D1000DA699207FCD430215A8B8A4311001022A1
:104D20000A435A830268D3695B07FCD47047802327
:104D30000268DB02116851680B4353607047000042
:104D4000036803491A685A680A405A607047C046A7
:104D5000FFFFFBFF032230B5036811401C68074DBD
:104D60005A6809042A40E4061143640F5960052C6F
:104D700003D10268D3695B07FCD430BDFFFFFCFFA1
:104D8000490010B511430468CBB2618B8906890FC5
:104D9000012904D0618B8906890F0229F5D1616A46
:104DA000C90AC902194361620368002A08D11A7E40
:104DB000D207FCD5588B4007C30F012058400BE0A9
:104DC000187E8007C00FF5D11A7ED207F8D5C02211
:104DD000596892020A435A6010BD0368283319705B
:104DE0000368187EC007C00F03D15A8BD207F8D5CD
:104DF0007047588B4007C30F01205840F8E70368FD
:104E000028331970036800201A7E520704D5588B86
:104E100001234007C00F5840704703681868C00658
:104E2000400F043843425841C0B270470368187EAF
:104E30004007C00F70470368187EC007C00F704757
:104E40000368588BC006C00F70470368187E800740
:104E5000C00F70470368588B0007C00F7047036886
:104E60001A68D206520F052A02D11A7E9207FCD583
:104E700028331878C0B270470368104A934213D0A1
:104E80000F4A934212D00F4A934211D00E4A9342D6
:104E900010D00E4A93420FD001200D4A4042934257
:104EA00001D1063040B270470020FBE70120F9E74E
:104EB0000220F7E70320F5E70420F3E700080042AB
:104EC000000C004200100042001400420018004292
:104ED000001C0042F8B5FFF7CFFF00282EDBC3000F
:104EE0001C481F22C01805230579C35601201A400B
:104EF00090400326C022184952001E40F6008850F8
:104F0000813AB240C024D243B440002B17DA0F26B6
:104F10003340083B114E9B089B009B19DE693240D1
:104F20001443DC613F231D408023DB011D430C4BF8
:104F300008605D805A7852B2002AFBDBF8BD064E4D
:104F40009B089B009B19C026B6009F593A4014430A
:104F50009C51E7E7CCC2000000E100E000ED00E07A
:104F6000000C0040F8B504000F0016001D00FFF70C
:104F7000B1FF2000FFF714FE1C21BB000B4071079E
:104F80002268090C0B431360842322689375012F58
:104F90001AD11021012E00D008390C4B6943186832
:104FA000C00001F0E1FB0722216802408B89520317
:104FB000DB04DB0C13438B81226803049089DB0C38
:104FC000400B400318439081F8BDC04628000020E4
:104FD000F7B50500019308AB1F780E001400FFF72A
:104FE00036FE2800FFF776FFC02224059203144006
:104FF000BA070C2717433C43C02707223604BF02D9
:105000002B683E4026431E60019B296813401A000E
:1050100080239B0213434B602A68D3695B07FCD44F
:10502000F7BD0000F8B504000F00FFF753FF2000A4
:10503000FFF75BFE1422236879001A600C4B256889
:105040001E68300001F090FB0A490400300001F0B6
:105050008BFB7D23FA215843C90001F085FBFF2318
:10506000241AE868053C1C4098430443EC60F8BDF2
:105070002800002040420F0010B50400FFF71AF985
:10508000E060236820005B69984700280ADAFFF790
:1050900069F9FFF70FF9E368C01AA3689842F0D3E3
:1050A0000120404210BDF7B50E000C0001908D1894
:1050B000A71BAC4207D00198FFF7DEFF002802DBF8
:1050C00020700134F4E73800FEBD3F20704713B56F
:1050D0006B460268D9710733546819000122A04752
:1050E00016BD10B50221006900F04EFC10BD10B5D0
:1050F0000321006900F05EFC10BD000010B5130034
:10510000084A0400D279002A03D1012300206360F9
:1051100010BD0A000069032100F044FD0028F4D00E
:10512000F6E7C0463C00002010B5054C23685A1C29
:1051300004D103685B69984703002060180010BD24
:1051400088000020074B0200186810B5411C03D0EE
:10515000012252421A6010BD0221106900F014FDB4
:10516000F9E7C0468800002010B5037842220233D8
:1051700003700249024800F0C1FD10BD4400002048
:10518000F40C002010B50178020043780020A1291A
:1051900008D1212B05D107221649174800F0AEFD92
:1051A000012010BD2129FCD1202B13D10722114948
:1051B000114800F043FC96220E4BD2001968914230
:1051C0000ED10124D87904400AD1FA20FFF76CFCF3
:1051D0000020E6E7222B06D19278064BDA71EAE747
:1051E000FFF768FCF4E7232BDBD15288034B1A60EE
:1051F000D7E7C0463C000020F40C00203800002017
:105200007047000010B5FFF755F8F423FF33002472
:10521000984207D9044B0A20DC79631E9C41E4B212
:10522000FFF77EF8200010BD3C000020FA2200218C
:10523000054B92009A60054A596008321A60044A88
:1052400019761A617047C046D80C0020FCC20000D5
:10525000F40C0020704770B50F26CB1D01390200F9
:105260003240D5B22C0000093034092A00DD073461
:105270001C70013B8B42F2D170BD10B504008069F7
:1052800003F07AFDA06A03F077FD200010BD10B591
:105290000400FFF7F2FF200001F0CAF9200010BD62
:1052A00070B5032908D1324B8000C058002802D0C5
:1052B0000368DB68984770BD82291FD1C3B22D4DAA
:1052C0005A01AA1891692C4C80010C40C021890513
:1052D00021439161294908334018802150612A688F
:1052E0005B01D01804794942214301717020995C17
:1052F00081430800302101439954DCE70029DAD1C9
:10530000C024C1B21B4E4A01B21893681A4DA405BD
:105310002B40234393601A4B8001C0180B00506050
:105320003068072608335B01195CB1430E00012188
:105330003143195491690D402C43946170240F49F5
:105340005161195CA1430C0010212143195491684B
:105350000C4CC3180C408021490321439160916893
:10536000890B89039160402259790A435A71A2E757
:10537000F80C0020AC110020FFFFFF8F200D002053
:10538000E00E0020FF3F00F0EFF3108303600123E5
:10539000436072B670470368002B02D162B6BFF358
:1053A0006F8F704737B5056904006846002D14D12A
:1053B000FFF7EAFF019B621D013B02D3D57FEDB2EF
:1053C000FAE768460193FFF7E6FF002D01D10020C0
:1053D0003EBD206AE369C01AFAE7FFF7D5FF220055
:1053E0000025019B3432013B02D31578EDB2FAE778
:1053F00068460193FFF7CFFF002DE8D0206BE36AEA
:10540000E9E70000FF2130B54368164D1A6883684C
:105410000B405B01D21801235218947A23439372F4
:10542000836842680B405B01D418C268A368920489
:105430002B4012091343A360836842680B405B0151
:10544000D3189A68920B92039A6043681A6883682B
:105450000B4008335B01D318402219790A431A71B3
:1054600030BDC046FF3F00F0F7B5036904000E00F1
:1054700017006846002B45D1FFF786FF019B611D91
:10548000013B5A1C0CD0CD7F5A1EEDB2002D05D128
:1054900068460193FFF77FFF2800FEBD1300F0E789
:1054A000684601930025FFF776FFE369AF420AD013
:1054B000226A9A4207D95A1CE261A269D3181B7862
:1054C00073550135F1E7226A9A42E5D10023E36181
:1054D000013323616846FFF757FF22000021019B3B
:1054E000671D013B3532581CD2D0F97710785E1E0B
:1054F000002805D0117020000193FFF783FFECE72F
:105500003300F0E7FFF740FF2100019B3431013BFE
:105510005A1C06D00D785A1EEDB2002DB8D01300DB
:10552000F6E7684601930025FFF735FFE36ABD42C1
:1055300002D0226B9A421CD8226B9A42ACD1002333
:105540006846E3622361FFF71FFF27002200002166
:10555000019B3437013B3532581C99D03970107893
:105560005E1E00280DD0117020000193FFF74AFF46
:10557000EBE75A1CE262A26AD3181B787355013517
:10558000D4E73300E8E7F7B5FF21826843680A40B3
:105590001B68083252019A18D3790400DB072AD518
:1055A0000125D571836842680B405B01D3189A6866
:1055B00040699204920C002821D12262226A002ABA
:1055C0003ED0A26A656168465A60FFF7DDFE27009B
:1055D0002100019B661D013B343735315A1C2BD00D
:1055E000F5773A78581ED2B2002A05D00193684662
:1055F0000D70FFF7D0FEF7BD0A700300EEE72263DF
:10560000226B002A1CD000226261A26968465A609F
:10561000FFF7BAFE26002100019B3436013B671DCF
:1056200035315A1C08D03570FA7F581ED2B2002A84
:10563000DCD10A700300F4E768460193FFF7ABFE84
:105640002000FFF7DFFED6E737B56B46DC1D0023F1
:105650000D0020002370FFF787FD2B6818182860C5
:1056600001F01EF8210000F0E7FF2B6818182860F1
:1056700020783EBD03290ED180220E4B62311B687B
:10568000FF31585C524202435A5468226339FF3258
:10569000FF39995470470129FCD18022054B2431F0
:1056A0001B68FF31585C524202435A542822233966
:1056B000FF32EDE7AC11002070B50025304B012121
:1056C00004001A201D70FFF74FF801211A20FFF780
:1056D0007BF82C4B012119201D70FFF745F80121A3
:1056E0001920FFF771F82023274A0F20D1690B43B7
:1056F000D361012225490B7813430B70244B197891
:105700008143197006211D782943197021490D78AC
:105710002A430A701A7802401A70602219780A43E4
:105720001A701D4B1D4A5A805A78D209FCD11C4868
:10573000FEF7BAFD1B4D280000F0C4FF280000F062
:10574000D9FF7F212A68C120137880000B40137095
:1057500004232A6811780B430C2113702A681389DB
:105760008B43114913810B581B021B0A0B508023DA
:105770000B6011787E3B0B4313700123237070BDC7
:10578000150D0020140D0020000400405844004175
:105790003C44004159440041000C004006400000D8
:1057A00071610000AC11002000E100E000780028E9
:1057B00010D00121084B1B681A898A431A810822DC
:1057C000198B0A431A830422198B0A431A83002275
:1057D000024B1A607047C046AC110020A411002093
:1057E00010B50F4A93699B0B9B03936113680222C8
:1057F000FF331A729879823A02439A711A7A9207A1
:10580000FCD57F24074A2140937A0800A34319005E
:10581000802301439172917A5B420B43937210BDD6
:10582000AC1100200050004110B50B790C00002B8A
:105830000CD10800FFF7A6FC002801D0012010BD04
:10584000094A93699B0B9B039361F7E700F028FFDC
:10585000210000F015FF0028F0D1034A93699B0B4B
:105860009B039361EBE7C046AC110020F8B50D0037
:10587000832A19D1CBB2364C5A01A2189169354806
:10588000AD010840C021890501439161324920687A
:105890006D187021083355615B011A5C8A43110051
:1058A00040220A431A54F8BD022A4CD12B4A8B00DD
:1058B0009858002802D003685B699847382000F0A8
:1058C000B3FE274B802703600023214E7F00421D3B
:1058D000036203614361C36146608560C760D3773B
:1058E0002F320400C362036313703800537003F057
:1058F00039FAA061380003F035FA2A00A062FF20CF
:105900000240510171188B68124FAD001F40C02337
:105910009B053B438B6013003168072608335B010E
:105920005A5CB2431600032232435A54A368626899
:1059300003405B01D318A26920005A60FFF762FDA3
:10594000064B5C51AFE711002800FFF7A9FCAAE75E
:10595000AC110020FFFFFF8F200D0020F80C00206D
:1059600028C3000070B505000124064BA200D258E0
:10597000002A05D021002800FFF778FF0134F4E762
:1059800070BDC0468C000020084B8A00D05810B56E
:10599000002803D003689B68984710BDC9B2044B28
:1059A0004901591888688004800CF6E7F80C00203B
:1059B000AC11002010B50C00FFF7E6FF00280CD05A
:1059C000064BE4B21B68083464011C198023627919
:1059D0005B42134363710223E37110BDAC110020DD
:1059E00070B5CBB2124A13485C01890189180219BB
:1059F00051609168104D08330D4080218902294380
:105A0000402591609168890B8903916001685A0172
:105A10008A1816793543157195796D06FCD55B01A9
:105A2000C918CB79DB07FCD500198068C0B270BDFE
:105A3000E00E0020AC110020FF3F00F070B5140014
:105A400040220B4B0D001B68FF3359790A435A71F2
:105A50000021FFF7C5FFA04200D92000002305491F
:105A6000A34203D0CA5CEA540133F9E770BDC046D3
:105A7000AC110020E00E002010B5C9B20B4849015E
:105A8000421893689B049B0C3F2B0BD99468403BB6
:105A90009B04A40B9B0CA4032343936041188868C8
:105AA000C0B210BD93689B0B9B03F6E7AC110020BE
:105AB000F0B51C002F4B85B01B6806000D0001924D
:105AC000002B54D02C4F3978C9B2002902D11920AB
:105AD000FEF77AFE64233B70284BAA00D0580028BA
:105AE00008D0036822005B680199984704002000F1
:105AF00005B0F0BD29003000FFF746FF844204D90D
:105B000029003000FFF740FF040029003000FFF7B4
:105B1000B3FF0121EBB21A4F03935B010293029A88
:105B20003B6801989B18FF335A7A0A435A72154B07
:105B3000A901C918220003F04AF9002CD7D0290086
:105B40003000FFF721FF0028D1D14021039B3A68A4
:105B500008335B01D3181879014319710121D971F8
:105B6000029BD318FF339A7A0A439A72BFE7012443
:105B70006442BCE7A4110020140D0020F80C0020A2
:105B8000AC110020E00E002013B56B46DC1D220096
:105B90000123FFF78DFF012801D1207816BD0120D8
:105BA0004042FBE7F0B51E003A4B85B01B680F0082
:105BB0000192002B3FD08023DB019E423BD8364C24
:105BC0002178C9B2002902D11A20FEF7FDFD642315
:105BD00000252370314BBA01D3180293002E2CD02C
:105BE0002F4B1B680393FF233B401C00009308349A
:105BF000039B64011C19A379DB0921D0294B2A4995
:105C0000186800F0B1FD294B1721584300F0ACFD96
:105C1000274BE279920713D4DA5D002A01D10138CB
:105C2000F7D20122DA55009B5A011D4B9B189A6945
:105C3000920B92039A6101256D42280005B0F0BDD8
:105C400000221B4B3400DA55402E00D9402422009C
:105C50000199029803F0BBF8009BA1045A01104B74
:105C6000890C9B18029A2D195A619A69361B920B5E
:105C700092030A439A61009B039A08335B01D3188D
:105C80000222DA715979823A0A435A71019B1B192F
:105C90000193A3E7A4110020150D0020200D002082
:105CA000AC1100202800002040420F0070110100BC
:105CB000170D002070B50D001C000D4BAE01F6183D
:105CC00011003000220003F082F8EDB209496D01A5
:105CD0004D196E61AB69084A20001340AB61AB6996
:105CE000A2049B0B920C9B031343AB6170BDC04697
:105CF000200D0020AC110020FF3F00F0F7B5104B45
:105D000001901B780F001500002B0CD10D4B1600D5
:105D10001C78002C09D00C4E0C48348820186419CB
:105D200003F055F834802800FEBD002EFBD03A1950
:105D3000330000210198FFF7BDFF2418361AF4E75D
:105D4000A0100020A1110020A2110020A11000200D
:105D5000F8B5002000AF0E001500012A27D9D31D89
:105D60006A46DB08DB00D31A9D46080003F0CAFE32
:105D70006C46032302220021013040002070637032
:105D8000AA420DD2307800280AD0531CDBB201366B
:105D9000A0549D4203D00232E154D2B2F0E72A006F
:105DA00021000448FFF7AAFF431E9841C0B2BD4638
:105DB000F8BDC046F40C0020F0B50024012685B0E3
:105DC000184B0F0069461E7005000094FFF73CFC5D
:105DD000154B01A90B806A3BFF3BCB716E3B0B72ED
:105DE000009B8C7109334B800E4B4E7108711C70F7
:105DF0003A00092F0FD00D4F09223E700C4E28009B
:105E000000943480FFF77AFF69462800FFF71CFCF6
:105E1000328808493C702800FFF770FF012005B068
:105E2000F0BDC046A010002009020000A111002012
:105E3000A2110020A1100020F0B5CF7893B005008A
:105E40000E00022F09D1C9882B48FFF7B5FF441E69
:105E5000A041C4B2200013B0F0BD00F021FC31001D
:105E600000F0FEFB002803D0C417241AE40FF1E76A
:105E7000012F0BD1F2882149112A11D8D2B2002A60
:105E80000ED02800FFF73AFF0124E3E70400032FB8
:105E9000E0D1B378002B05D1F2881949032AEDD956
:105EA0000A78EEE7022B06D1B27916492800FFF7EF
:105EB0004FFF0400CEE7012B02D1B2791249F5E77A
:105EC000032BC7D1114B01A91868FFF7C4F9104B78
:105ED00003A91868FFF7BFF90E4B05A91868FFF76B
:105EE000BAF90D4B07A91868FFF7B5F96B460533EA
:105EF000DC77B27901A9D9E7F40C002059C300007E
:105F00004CC3000040C3000050C300000CA0800040
:105F100040A0800044A0800048A0800037B5050064
:105F200048780C000B2810D800F014FC061B0F2B2F
:105F30000F41466E4A4D676A097801AA002906D1C9
:105F4000022311802800FFF7B5FE01203EBD00238B
:105F500013802E4B1B78012B00D1137002230021DC
:105F6000F0E78A780023012A03D101AA1380284B85
:105F7000F0E7264A1370274A93699B0B9B039361B2
:105F8000E3E78C78012C06D10021214B01AA1C707B
:105F900011702300D6E700208442D7D11B4B01307B
:105FA0001C4A187093699B0B9B039361CEE7897819
:105FB0002800FFF715FCC8E72800FFF73DFFC5E7FD
:105FC0000123154ACBE70B780020DB06BED1280061
:105FD000FFF7C8FC2A200221A2780F4BFF301A607D
:105FE0000C4A13681C5C21434A241954FF34195D80
:105FF0002938FF3801431955D4E70123074AAEE792
:106000008A78064B1A60B6E700209FE7160D00203D
:106010001E0D0020AC110020A4110020A8110020AA
:106020004B4BF7B51C780700002C00D083E0494E9D
:1060300033689B8B1B070ED521002000FFF730F93A
:10604000326810231100FF31887A03438B72424B70
:106050001C600823938333689A8B52071FD5042250
:106060009A833E4A1378002B0AD01378013BDBB2A7
:1060700013701378002B03D101211A20FEF7A4FB23
:10608000374A1378002B0AD01378013BDBB2137028
:106090001378002B03D101211920FEF795FB3368FB
:1060A000FF331A7AD2061ED510221A72597930326D
:1060B0000A435A7160232B4938000A781A423BD1AF
:1060C000FFF72CFF3368FF33002838D080229979FE
:1060D00052420A439A711A7A520604D540221A7221
:1060E000597A0A435A72336800241D8C01239D4358
:1060F000EDB20193E1B2002D1DD02B002341019A96
:10610000134215D02300326808335B01D318DA79C3
:10611000D20702D4DB799B0707D5134BA200D058D6
:10612000002810D003681B689847019BA3409D433B
:106130000134092CDED1F7BDFFF776FBC2E7202141
:106140000A4A9171C7E73800FFF794FAEDE7C046B5
:10615000A1110020AC110020A4110020150D002079
:10616000140D0020E00E0020F80C0020FF5000412C
:1061700010B50248FFF754FF10BDC046F40C0020D4
:10618000014B024A1A607047AC11002000500041D8
:106190000120704710B50368014A1B6A984710BD7B
:1061A000130400000300FC33D9699A69914203D0BB
:1061B000DB69C018007D704701204042FBE710B545
:1061C00004000069FEF7ECFC22000023FC3293611E
:1061D000D36186229200A4186360A36010BDF020F2
:1061E00001403039484248417047F0231B011940B3
:1061F000802306209B0099420AD00133FF330130EF
:10620000994205D0802302385B00994200D00020DB
:1062100070470F2001400020012903D00239481E99
:106220008141481C704700008923F0B5182685B0CD
:1062300002919B000400C05C330008214343324DAF
:106240001700EB185956FEF703FB304B0821E05CB2
:1062500033004343EB185956FEF7FAFA2C4BE25C35
:106260000393022A09D11133E05CFF2805D00821ED
:106270004643AE197156FEF7EBFA8A26B600A05DCA
:10628000FF2819D00121FEF76FFA1822A35D2149DA
:106290005A43AB56AD18DB0158188B21890060506A
:1062A0001D4901225B188C218900635069688A406E
:1062B0008D21890062501A600122029B1100206921
:1062C000FEF750FE39002000FFF78FFF3900050070
:1062D0002000FFF79EFF390006002000FFF77FFF38
:1062E00033000090290020690122FEF729FC0B4BA6
:1062F0002069E25C039BE15CFEF73FFC2069FEF74E
:106300005CFC05B0F0BDC04678BE00002502000070
:1063100027020000184400411444004126020000F6
:10632000802210B504005200002102F06CFD230011
:106330000022FC335A6020009A6010BDF7B51D00A2
:1063400008AB1B780400009309AB1B78160001937F
:1063500000234360FA239B008360114B0F00083336
:1063600003601430FFF7DCFF20001D30FF30FFF723
:10637000D7FF89236A469B002761E654094B1278B0
:10638000E554094B2000E2546A46084B1279E25466
:106390008A22293BFF3B9200A3541032A354FEBD36
:1063A0006CC3000025020000260200002702000046
:1063B0000300FC3358689B68C01A01D50130FF30D8
:1063C000704710B5040020001D30FF30FFF7F0FFCC
:1063D0000028F8D12069FEF7FAFB10BD10B5143083
:1063E000FFF7E6FF10BD0300FC3359689A6891423D
:1063F00004DB5A689868801AFF30704798685B68B9
:10640000C01A0138F9E710B51D30FF30FFF7EBFF78
:1064100010BD10B504000069FEF7F5FB002805D09B
:106420002069FEF700FC2069FEF7F2FB2069FEF709
:10643000DAFB002820D02069FEF7F5FB2200FC32B1
:106440009369D1690133DBB28B4203D09169611842
:10645000087593618A239B00E35CFF2B0CD020001E
:106460001430FFF7C0FF092806DC8B238D229B0028
:106470009200E358A2581A602069FEF7CFFB00286B
:106480001AD020001D30FF30FFF792FF002822D0E5
:1064900086239B00E31899685A68914218D08E2190
:1064A0009A684900A218515C9A680132D2B29A6087
:1064B000C9B22069FEF7BBFB2069FEF799FB0028F3
:1064C00005D02069FEF798FB2069FEF788FB10BD18
:1064D00001214942ECE72069FEF7B5FBECE700003B
:1064E00070B5040000690D00FEF798FB00283ED14E
:1064F000FF2686239B00E3185A68996801323240D0
:106500008A4223D1EFF31083DB0710D41E4B5B6864
:10651000DB05DB0DEDD0103B5BB2002B10DA0F2258
:106520001340083B9B08194A9B009B181B68206975
:10653000FEF774FB0028DCD02000FFF76AFFD8E7E5
:106540009B08C033124A9B009B58F0E75A680132FF
:1065500016409A68964205D08E215A684900A218C2
:1065600055545E602069FEF76AFB012070BD200073
:106570001D30FF30FFF71CFF0028B9D1290020692A
:10658000FEF755FBF1E7C04600ED00E01CED00E032
:1065900000E100E0030070B5FC33D9699A6904009A
:1065A00091421AD0DA698218157DDA690132D2B2C5
:1065B000DA618A239B00E35CFF2B0CD020001430AF
:1065C000FFF711FF0A2806DD8C238D229B00920025
:1065D000E358A2581A60280070BD01256D42E8E713
:1065E0007047000010B5FDF771FF02F097FBFFF751
:1065F000F7FF0120FDF794FE094C2000FFF75CF83F
:106600002000FFF7D3F8FBF779FDFBF793FDFDF7CB
:10661000A9FE044B002BF8D000E000BFF5E7C04610
:10662000F40C00200000000010B502F09BFB10BD30
:1066300010B502F0A1FB10BD70B50E000025446836
:10664000002C0BD0236831005B682000984700289D
:1066500002DB2D18E468F3E701256D42280070BDC8
:1066600070B50D004468002C08D0236829009B6891
:1066700020009847002802D1E468F4E7200070BDAC
:1066800070B50D004468002C08D0236829001B68F1
:1066900020009847002802D1E468F4E7200070BD8C
:1066A0000121054A10B5136804480B4003D1044C7E
:1066B00043600480116010BDB0120020B4120020AD
:1066C0000204000070B50400012304CC0500117819
:1066D00020000B43137080220021520002F093FB34
:1066E0002B689A78D207FCD49A789207F9D45C6226
:1066F00070BD00001F22144BF0B51B68590B9C0C99
:106700009B01114014405B0F914200D105211F2CC9
:1067100000D1023C072B00D1043B02688F01158D8C
:106720000A491F2629403943118505683440298DBF
:106730000A00B24322432A8500681903028D044BE4
:1067400013400B430385F0BD246080003FF8FFFF3A
:10675000FF8FFFFF02B4714649084900095C4900F8
:106760008E4402BC7047C046002243088B4274D35B
:1067700003098B425FD3030A8B4244D3030B8B4242
:1067800028D3030C8B420DD3FF22090212BA030C4B
:106790008B4202D31212090265D0030B8B4219D32C
:1067A00000E0090AC30B8B4201D3CB03C01A52414C
:1067B000830B8B4201D38B03C01A5241430B8B4294
:1067C00001D34B03C01A5241030B8B4201D30B037D
:1067D000C01A5241C30A8B4201D3CB02C01A5241A4
:1067E000830A8B4201D38B02C01A5241430A8B4267
:1067F00001D34B02C01A5241030A8B4201D30B0250
:10680000C01A5241CDD2C3098B4201D3CB01C01A69
:10681000524183098B4201D38B01C01A5241430973
:106820008B4201D34B01C01A524103098B4201D361
:106830000B01C01A5241C3088B4201D3CB00C01ACE
:10684000524183088B4201D38B00C01A5241430846
:106850008B4201D34B00C01A5241411A00D201466B
:10686000524110467047FFE701B5002000F0F0F8F4
:1068700002BDC0460029F7D076E7704703460B43B8
:106880007FD4002243088B4274D303098B425FD329
:10689000030A8B4244D3030B8B4228D3030C8B4255
:1068A0000DD3FF22090212BA030C8B4202D312123B
:1068B000090265D0030B8B4219D300E0090AC30B10
:1068C0008B4201D3CB03C01A5241830B8B4201D3BD
:1068D0008B03C01A5241430B8B4201D34B03C01AA6
:1068E0005241030B8B4201D30B03C01A5241C30A1E
:1068F0008B4201D3CB02C01A5241830A8B4201D38F
:106900008B02C01A5241430A8B4201D34B02C01A78
:106910005241030A8B4201D30B02C01A5241CDD21D
:10692000C3098B4201D3CB01C01A524183098B4268
:1069300001D38B01C01A524143098B4201D34B0151
:10694000C01A524103098B4201D30B01C01A5241B4
:10695000C3088B4201D3CB00C01A524183088B423B
:1069600001D38B00C01A524143088B4201D34B0024
:10697000C01A5241411A00D2014652411046704796
:106980005DE0CA0F00D04942031000D3404253409B
:1069900000229C4603098B422DD3030A8B4212D35B
:1069A000FC22890112BA030A8B420CD3890192118D
:1069B0008B4208D3890192118B4204D389013AD0CA
:1069C000921100E08909C3098B4201D3CB01C01A9F
:1069D000524183098B4201D38B01C01A52414309B2
:1069E0008B4201D34B01C01A524103098B4201D3A0
:1069F0000B01C01A5241C3088B4201D3CB00C01A0D
:106A0000524183088B4201D38B00C01A5241D9D224
:106A100043088B4201D34B00C01A5241411A00D2A5
:106A20000146634652415B10104601D34042002BA1
:106A300000D54942704763465B1000D3404201B520
:106A4000002000F005F802BD0029F8D016E77047D5
:106A50007047C0468446101C62468C46191C63462B
:106A600000E0C0461FB501F02DFA002801D4002136
:106A7000C8421FBD10B501F085F94042013010BD7C
:106A800010B501F01FFA002801DB002010BD012025
:106A900010BDC04610B501F015FA002801DD002038
:106AA00010BD012010BDC04610B501F0A7F90028A7
:106AB00001DC002010BD012010BDC04610B501F062
:106AC0009DF9002801DA002010BD012010BDC0464C
:106AD0008446081C6146FFE71FB500F0C1F8002896
:106AE00001D40021C8421FBD10B500F043F8404258
:106AF000013010BD10B500F0B3F8002801DB002014
:106B000010BD012010BDC04610B500F0A9F8002846
:106B100001DD002010BD012010BDC04610B500F001
:106B200051F8002801DC002010BD012010BDC04636
:106B300010B500F047F8002801DA002010BD012050
:106B400010BDC0469E2110B5C905041CFFF7F0FF1B
:106B5000002803D1201C00F097FA10BD9E21201CB4
:106B6000C90500F0CDF800F08FFA80231B069C4683
:106B70006044F2E770B542004E024C0045026D0AD7
:106B8000120EC30F760A240EC90FFF2A0FD0FF2C56
:106B900011D00120A24200D070BDB542FCD18B4281
:106BA0000DD0002AF8D12800451EA841F4E70120A5
:106BB000002DF1D1EBE70120002EEDD1E9E7002017
:106BC000EAE7C04670B54A004E02450244006D0A2D
:106BD000240EC30F760A120EC90FFF2C15D0FF2A00
:106BE0000ED0002C15D1002A01D1002E1CD0002D72
:106BF00014D08B4227D00220013B1840013870BDD1
:106C0000002EEED002204042F9E7002DFAD1FF2AF3
:106C10000ED0002A0ED1002EEDD00BE00123013959
:106C2000994308000130EAE70020002DE7D0E2E7B1
:106C3000002EE7D18B42DED1944205DD0221581EA1
:106C400008400138DBE70024A24204DCB542D2D878
:106C50000020B542D3D2581E012398430130CEE71D
:106C600030B5420044024D02C30F4800640A120EC0
:106C70006D0A000EC90FFF2A12D0FF280CD0002A7F
:106C800012D1002819D1002D17D1002C2BD00220B1
:106C9000013B1840013826E0002DF0D0022022E010
:106CA000002CFBD1FF281FD000281FD1002D1DD1A3
:106CB0000220013B1840013815E0002C0ED08B4219
:106CC000E5D10022904204DCAC42E0D80020AC4286
:106CD00009D2581E01239843013004E001230139F1
:106CE00099430800013030BD002DD7D18B42CED161
:106CF0008242E7DD0221581E08400138F3E7C04612
:106D0000F8B54746CE464400C20F80B54702480258
:106D1000400A8446664648007F0A240EF600250095
:106D20009046FB00000EC90FB146FF2800D185E058
:106D300001267140261A914257D0002E43DD0028CB
:106D400000D07FE04946002900D1AAE0013E002E94
:106D500000D0F7E05B1A5A0100D48BE09B019C093C
:106D6000200001F08FFF05388440854200DDD3E02C
:106D7000451B230020200135EB40451BAC40621E23
:106D800094412343072400251C40012241460A4028
:106D9000002C04D00F211940042900D004335901DC
:106DA00000D480E00135ECB2FF2D00D0A3E0FF2439
:106DB00000235B02E405580AD207204310430CBCB1
:106DC00090469946F8BD002E74D1601CC0B20128CF
:106DD00000DCA7E04A469C1A620100D5B6E0002C10
:106DE000BED1002200240023E3E7002E00DC85E072
:106DF000002846D0FF2C49D080224846D2041043B8
:106E0000814601221B2E09DC20204C46801B844039
:106E10004A462000F240441EA04102439B185A01FA
:106E200028D50135FF2D00D1A8E00122072494497F
:106E30001A405B080B4013431C40A6E7002E00D00D
:106E400078E775E7FF2C54D080224946D2041143DD
:106E5000894601221B2E09DC20214846891B8840D7
:106E60004A460100F240481E81410A439B1A5A01DA
:106E700000D573E7012241460A40590700D089E74F
:106E800011E04846002858D1FF2C0CD1DB08002B1C
:106E900000D18CE78020C00303435B025B0AFF2420
:106EA00087E7FF2C25D0DB08FF2DF0D05B025B0AC3
:106EB000ECB27EE7002C4DD0FF2818D08024E404EB
:106EC000724223431B2A00DDC4E01C002025D4406D
:106ED000AA1A93405A1E934123434A460500D31AE7
:106EE000884638E7721CF8D0F243FF28EAD10A003E
:106EF0004B46FF25D7E79B015B0A5AE7002E41D19D
:106F0000651CE9B2012945DDFF2D00D14FE70724BB
:106F10004B445B081C4038E707225A4B2D1A23408C
:106F2000144032E7002C1DD1002B7AD14B46002BA8
:106F300000D191E00A000025B5E7013E002E19D1ED
:106F40004B446CE7FF2C84D1FF25ACE74A468846CA
:106F5000D41A05E7002BC5D10A00FF28C8D00500C8
:106F60004B46A0E7002B49D14B46002B77D00A00B7
:106F7000FF2598E7FF2C00D043E787E70A00FF24AE
:106F8000002316E7002C15D1002B57D1FF28E6D19E
:106F90004B467BE7002C20D1002B57D049460029D7
:106FA00053D04B445A0168D50724364A1C4001256A
:106FB0001340EAE6FF28EBD08022D2047642134346
:106FC0001B2E53DC2025AD1B1A00AB40F2405C1E8B
:106FD000A34113434B44050021E7002BD8D0494679
:106FE000002900D152E78021C9030F4200D14DE7AB
:106FF0006046084200D049E74B4647E74846FF2530
:10700000002800D14FE78022D203174204D0604607
:10701000104201D14B46884601224146FF250A40D5
:1070200041E7484600281FD01A1A500120D54A4689
:107030000724D31A1C4088460025A6E6741CC9D034
:10704000F643FF28BCD14B4620E799464B46002526
:10705000DB082BE7012340E700220023A9E6802379
:107060000022DB03FF24A4E600251CE70123B1E78F
:10707000002AF1D013000025FCE60025FAE6C04600
:10708000FFFFFF7DFFFFFFFB41024200C30F490AE4
:10709000120E00207E2A0DD99D2A0CD880200004D3
:1070A0000143952A0ADC9620821AD1404842002BDF
:1070B00000D108007047034A9818FBE7963A9140C0
:1070C000F4E7C046FFFFFF7F70B5041E34D001F027
:1070D000D9FD9E22121A962A07DCD2B208282EDD8C
:1070E000083884406002400A21E0992A09DD030043
:1070F00021001B3399404B1E994105231B1ADC408C
:107100000C43052801DD431F9C4023000D490B4023
:10711000650709D00F252C40042C05D004335C01F1
:1071200002D59F220B40121A9B01580AD2B240028C
:10713000D205400A104370BD00220020F7E760022C
:10714000400AF4E7FFFFFFFBF0B54F464646D64640
:107150000C000903C0B5490A470F5E0039431F03FD
:10716000DB0F9C4665007B0A570F1F436D0DE40F34
:10717000760DA146C000B846D200AB1B64457BD05B
:10718000002B5FDD002E00D0A4E03E00164300D1AE
:1071900012E15E1E002E00D09EE1871A4346B842DF
:1071A00080410125C91A4042091A0B0200D431E17D
:1071B00049024E0A002E00D16EE1300001F062FD5E
:1071C0000300083B1F2B00DD61E120223900D21AA9
:1071D0009E40D1409F400E439D4200DD51E15D1B2A
:1071E0006B1C1F2B00DD7CE12021C91A3D00300003
:1071F0008F408840DD40791E8F41310007222843AF
:10720000D940002507433A40002A09D00F233B40CC
:10721000042B05D03B1DBB42BF417F42C9191F0053
:107220000B0200D426E26A1CC64B55056D0D9A422E
:1072300000D106E1C44AFF080A40530752023B430B
:10724000120B8EE0002B00D0B8E06B1C5B055B0DD1
:10725000012B00DC30E1871A4346B842B641CB1A15
:1072600076429E1B330200D54CE13B003343A1D153
:1072700000220024002570E0002B00DCE5E0002E59
:1072800000D183E0AF4EB54260D08026360437434C
:10729000B846382B00DC3EE1434613431F007A1EFC
:1072A00097413F1887428041404209180B0200D4A1
:1072B000B0E0A44B01359D4200D1C3E0A24A7B0857
:1072C0000A4001210F401F435108D30707221F43E3
:1072D0003A4099E79B4EB54238D080263604374372
:1072E000B846382B00DDDCE01F2B00DC30E11E004F
:1072F0004746203EF740BC46202B04D04026F31AD8
:1073000046469E403243170063467A1E97411F430C
:10731000CCE0002B00D104E24346134300D159E1F5
:107320004B07C00818438023C9081B03194208D023
:107330004546ED081D4204D14346D008590708438D
:107340002900420FC9007F4D1143C0004B07CA08F6
:107350007C49C00803438D4268D012036D05120BAF
:107360006D0D002112031800130B0A0D12051A43AC
:10737000764B2D0513402B435B00E4075B0823434A
:1073800019001CBC90469946A246F0BD3E0016432B
:1073900012D05E1E002E00D000E187188742804187
:1073A00041444042091801250B0233D5022585E7E7
:1073B00064463300414610001D00C7E7002D00D091
:1073C000DAE00C000443F3D05C1C00D19FE15D4C7B
:1073D000A64200D12FE1DB43382B00DD66E11F2BF5
:1073E00000DD83E120240500E41A0F00DD40D940D0
:1073F000A0404346A7405B1A441EA04198462F4335
:107400003843171ABA42924143465242991A644687
:107410003500CAE607223A40002A00D0F6E64B07BC
:10742000CA084849FF083B438D4296D119001143D1
:1074300000D19EE1802109030A431203120B414D42
:107440008FE71500002200238BE7002B00D0C7E058
:107450006B1C5F057F0D012F00DCF1E0394DAB4265
:1074600000D1B9E085180A00854289414244494269
:1074700051180722CF076D082F4349083A401D00D5
:10748000C2E607223049ED1A31403A40BCE63E00E0
:107490002838864000279FE6380001F0F3FB2030B3
:1074A0008EE6434613431F007A1E9741C71BB8421E
:1074B00080414042091A78E60E003B000643134320
:1074C000002D61D1002E00D0F4E0002B00D11BE193
:1074D00064463900100039E71A4FBB427AD03300B6
:1074E000FFE630001F3DE840202B03D04021CB1A9F
:1074F0009E4037437B1E9F41072207433A400021AD
:10750000002589E7171A4346BA42B641591A76420E
:107510008E1B64464EE61F2B00DDADE0202647465D
:10752000F61AB740B9461700B246DF404E463E4312
:1075300037005646B240561EB24117434246DA4023
:107540008918AEE6FF070000FFFF7FFFFFFF0F80F7
:1075500020264746F61AB740B9461700B246DF4024
:107560004E463E4337005646B240561EB241174380
:107570004246DA40891A99E77F4CA6425BD08024C4
:1075800024045B42214327E7002E0CD1002B00D1BD
:10759000CBE0644639001000774DD7E6764FBB420A
:1075A00018D0330075E6002B14D04B07C0081843E1
:1075B0008023C9081B03194207D0FC081C4204D1D0
:1075C0007907D0080843E14621004C46420FC90024
:1075D0001143C000684DB9E61D0000220023C0E63B
:1075E000002D5BD10D00054300D1E2E65D1C00D10A
:1075F000B0E0614DAE421FD0DB43382B71DC1F2B56
:1076000000DD96E020250F00ED1AAF40B9460700D7
:10761000AA46DF404D463D432F005546A840D9407D
:10762000451EA84188440743BF18974292415142E2
:10763000414435003AE6644635004146100085E68F
:107640000B000343002D00D063E6002BF5D043462A
:10765000134300D17AE687188742804107224144CC
:10766000404209183A400B0200D4D5E6434B01359D
:107670001940C9E5380069E61E004746203EF7403C
:10768000BC46202B04D04026F31A46469E40324387
:10769000170063467A1E97411F4302E6364DAE42FD
:1076A000CAD080252D045B422943A6E70843411E2A
:1076B0008841A6E6002B00D148E6871A4346B84227
:1076C000B641CB1A76429E1B33024BD5171A43465E
:1076D000BA429241591A5242891A072264463A40E4
:1076E00092E501430F00791E8F419DE71C000F00BA
:1076F000203CE740202B03D04024E31A9940084364
:10770000411E884138437CE60022002425E6171AF2
:107710004346BA429241591A5242891A6446350088
:1077200043E541461000144D10E680220024120368
:1077300080E61D000F00203DEF40BC46202B03D00B
:107740004025EB1A9940084307006346781E87419D
:107750001F4369E7871897429B4141445B42C91820
:107760003500A3E53B003343CED0072231003A4039
:1077700052E600231A00F4E5FF070000FFFF7FFF39
:10778000F0B55746DE464E464546E0B5834607000F
:107790000E03480085B092461C00360B400DCD0FFD
:1077A000002800D19DE0954B984239D08023F60007
:1077B0001B041E43924A7B0F3343994694460300B1
:1077C0006344009300230026FF00029323031B0B56
:1077D00098466300E40F52465B0D019400D1B3E07C
:1077E00086498B4200D19EE04246D100802212049D
:1077F0000A435146490F11438B46814952468C46F4
:1078000000996344CB1A0021D20000932B006340FF
:107810009A460F2E00D905E17A4BB6009B599F4638
:107820005B463343994600D0B8E002230826002780
:1078300000900293CAE7CB463A0002990195019B5A
:107840009A46022927D0032900D180E2012944D099
:107850006D49009B8C4663441C00002C38DD5307A7
:1078600000D013E2D2085B46DB0109D55946674BCD
:1078700019408B468021C9008C46009B63441C0044
:10788000634B9C4207DC5B4664055F075B02174362
:107890001B0B620D02E000230027584A00211B0346
:1078A0001C0B0B0D1B05234314055A4A38001340CB
:1078B0001C4353466400DB0764081C43210005B0E9
:1078C0003CBC90469946A246AB46F0BD01225242CE
:1078D00001231B1B382B00DCADE100220023002715
:1078E000DCE75B46334399465ED0002E00D18AE147
:1078F000300001F0C7F903000B3B1C2B00DD7BE1DE
:107900001D22D31A5A460100DA4008398E4013006E
:107910005F46334399468F403F4B00261B1A009326
:107920000023029352E7414653460B433B499B4693
:107930008C46009B634400935B46002B3BD10223A3
:1079400000221E43022161E7434613439B4637D082
:107950004346002B00D162E1404601F093F9030059
:107960000B3B1C2B00DD53E102004146083A9140DD
:1079700088461D21CB1A5146D9400B0041460B4386
:107980009B46534693401A00009B25499C46604401
:1079900003008C4663440093002137E70323B1467C
:1079A00000900C26029311E7002300930133042674
:1079B000002702930AE70323C3461E43032125E75A
:1079C00001331E430022012120E700239A46802331
:1079D00000271B03094A61E7802349461B0319421C
:1079E00000D1E2E05946194200D0DEE00B431B0310
:1079F00017001B0BA246014A50E7C046FF070000D4
:107A000001FCFFFFA0C30000FF030000FFFFFFFE1B
:107A1000FE070000FFFF0F800DFCFFFF01F8FFFFD6
:107A2000F3030000D94500D9CBE000D1C6E03C000B
:107A300048460027009B013B00935B46160E1B0245
:107A40001E431302984633041B0C9946310C0191D6
:107A5000FEF710FF4A4642430B04210C0500194370
:107A60008A4207D98919013D8E4203D88A4201D939
:107A7000851E8919881A0199FEF7FCFE09048C46B7
:107A80004A46210464464243090C030021438A42CA
:107A900004D98919013B8E4200D8F1E02D041D4321
:107AA000AB464346891A4246280C12041D0C5B461D
:107AB000140C22001B041B0C5A4303946B434443D5
:107AC000029568431B19150CEB189C4203D98024BE
:107AD0006402A44660441C0C15041B042D0C2018E1
