:1020000000800020953300005D3300007D33000028
:1020100000000000000000000000000000000000C0
:102020000000000000000000000000007D33000000
:1020300000000000000000007D330000E9330000D4
:102040007D3300007D3300007D3300007D330000D0
:10205000213300007D330000B530000081330000E3
:102060007D330000FD3000007D3300007D33000033
:102070007D3300007D3300000D3100007D33000012
:102080007D3300007D3300007D3300007D33000090
:10209000000000007D3300007D3300007D33000030
:1020A0007D3300007D3300007D3300007D33000070
:1020B0000000000010B5064C2378002B07D1054B1B
:1020C000002B02D0044800E000BF0123237010BDA4
:1020D000100100200000000080890000044B10B5B2
:1020E000002B03D00349044800E000BF10BDC046E8
:1020F00000000000140100208089000010B500F0ED
:10210000AFFD10BD10B500F027FE10BD01207047D7
:10211000002070478171704741717047C1727047EC
:102120000173704741737047837B934319438173F5
:102130007047C079C0B27047007AC0B27047407A29
:10214000C0B27047807AC0B27047008A00B2704750
:102150000079C0B2704701717047408A80B2704701
:10216000808A80B27047C08A80B2704710B5040080
:10217000236820005B689847002802D101F09AF993
:10218000F6E710BD10B504002379032B02D101F04E
:1021900091F9F9E7012010BD70B504000E0001F0BF
:1021A00031F9050001F02EF9401BB04208D2236836
:1021B00020005B689847002803D101F07BF9F1E724
:1021C000002070BD70B505000E0001F01BF9040081
:1021D00001F018F9001BB04205D22B79032B04D172
:1021E00001F068F9F4E7002070BD0120FCE7C36945
:1021F00070B50400002B17D001F004F96425060027
:10220000236820009B6A984700280DD001F0FAF857
:10221000E369801B984209D80A21012003F0B1F834
:10222000684301F025F9EBE7012070BD0020FCE7D1
:10223000074BFF2208330360002342710371C2720F
:1022400043820273838243738373C382C361704783
:10225000A87E000070477047704770477047417113
:1022600070478171704701717047000010B5034CD1
:102270000171083404604271837110BD207F000039
:102280007047000010B5024800F08EFE10BDC04639
:10229000C001002010B5024800F08BFE10BDC04602
:1022A000C001002010B5024800F084FE10BDC046F9
:1022B000C001002010B50279042A13D0032A13D0DC
:1022C000022A13D0013A53425A41154B52421A4046
:1022D000D21843798179013B002909D15C426341DD
:1022E000DBB20FE00F4AF4E70F4AF2E70F4AF0E7DC
:1022F0000129F3D00229F1D00329EFD059424B41F3
:102300000021DBB2140A02724472140C120E8472A1
:10231000C27201734373064800F0E6FD10BDC0466B
:1023200040420F000024F40000127A0000093D0032
:10233000C001002010B5024800F0FEFD10BDC046EF
:10234000C001002010B58168C268024800F0FCFDA1
:1023500010BDC046C001002010B5024800F010FEBC
:1023600010BDC046C001002010B50400FFF77EFF7D
:10237000044B200008332360034BA36000236373E6
:10238000237310BD547F000000093D00002310B5E9
:102390001A0019000148FFF7E7FF10BD2C010020CB
:1023A00072B6BFF35F8FBFF34F8FBFF36F8F012004
:1023B000704710B50400006A05340368DB6898476D
:1023C000E07F012101F01AFAE07F012101F046FAD5
:1023D000642001F04DF8012010BD80F31088BFF398
:1023E0005F8FBFF34F8FBFF36F8FBFF35F8FBFF36D
:1023F0004F8FBFF36F8F704770B504000D0016004C
:10240000FFF716FF034B266208332360631DDD7759
:10241000200070BD887F0000F7B504000191EFF344
:102420001087FFF7BDFF00281ED0206A651D0368D6
:102430001B6A9847E87F002101F010FA7F21019B79
:10244000206A0B40190003681B689847206A002126
:1024500003681B68984701210600E87F01F0FEF938
:10246000206A03685B6A98473800FFF7B6FF3000C0
:10247000FEBDF7B5040000910192EFF31087FFF75E
:102480008FFF0025A8421ED0206A661D03681B6AC4
:1024900098472900F07F01F0E1F98021009B206A34
:1024A0000B43190003681B6898470500206A0199CF
:1024B00003681B689847F07F012101F0CFF9206A7B
:1024C00003685B6A98473800FFF787FF2800FEBD66
:1024D000F0B585B004000F0001920293EFF310866F
:1024E000FFF75EFF0025A84229D0206A03681B6A17
:1024F0009847631D0393D87F290001F0AFF980212D
:10250000206A4942036839431B68C9B298470500ED
:10251000019F029BFB180193019BBB4206D0206ADE
:102520003978036801371B689847F5E7039B012159
:10253000D87F01F093F9206A03685B6A98473000FE
:10254000FFF74BFF280005B0F0BD10B5006A036827
:102550009B6A984710BD72B6BFF35F8FBFF34F8F72
:10256000BFF36F8F012070473C20704780F31088C5
:10257000BFF35F8FBFF34F8FBFF36F8FBFF35F8FDB
:10258000BFF34F8FBFF36F8F704710B5037904000F
:10259000012B05D000220121FFF76BFF01232371DE
:1025A000012010BDF7B5036804005B680F0015003B
:1025B0009847061E1ED0002F19D0002D17D0EFF31C
:1025C00010830193FFF7C7FF00280DD023002B33A2
:1025D0001A782978914201D91B782B7021002A782A
:1025E0002C31380004F03EFC0198FFF7BFFF0023B8
:1025F000683423703000FEBD10B53D210400FFF7A4
:102600000BFFFE223D2102402000FFF732FF10BDEC
:1026100070B5040015001A00FFF7EEFE2200042139
:10262000054B283208332360E31DDD771170FF224C
:1026300001332000DA7770BDDC800000F7B50400BC
:10264000EFF31087FFF787FF002866D0631D019323
:10265000D87F002101F002F9206A03681B6A9847BD
:10266000206A002103681B689847206A00210368DC
:102670001B689847031FDBB206003C2B44D8206A36
:10268000002103681B689847A379E071002B06D1ED
:10269000E37962799A4202D0E379FF2B34D1206A40
:1026A000002103681B6898472072206A0021036894
:1026B0001B6898476072206A002103681B6898476E
:1026C000230000222B33A0721A7025002B352A78A4
:1026D000331F9A4210DA2B78206ADBB2009303682A
:1026E00000211B689847009BE3182C3318702B7847
:1026F0000133DBB22B70E8E7A38A012201339BB2DE
:10270000A382230068331A70019B0121D87F01F056
:10271000A5F8206A03685B6A98473800FFF726FF30
:10272000F7BD000070B50500081C04F0C5FA0022D2
:102730000E4B03F0D1FC0E4B002203F0C3F803F064
:10274000A3F80400020CD2B228000721FFF791FE83
:10275000220A2800D2B20821FFF78BFE2800E2B23D
:102760000921FFF786FE012070BDC04680842E41FE
:1027700080844E4070B50D0001210400FFF74CFE2F
:102780001C239843C2B21D402A4301212000FFF7B9
:1027900070FE27212000FFF73FFE0306F9D570BD2C
:1027A00010B503790400022B16D003002A331B78DE
:1027B0005BB2112B08DD55225A21FFF75AFE702219
:1027C0005C212000FFF755FE2300283319782000F4
:1027D000FFF7D0FF0223237110BD70B5040028213C
:1027E000FFF71AFE23790500032B08D1030706D54E
:1027F0002000FFF7D5FFE38A01339BB2E382237900
:10280000DBB2042B12D11D4210D024212000FFF78F
:1028100003FE4010404200B2208200F0F3FDE0666B
:102820002000FFF7BDFF2000FFF708FF70BD00008C
:10283000034B10B51868002801D0FFF7CEFF10BD7C
:1028400040010020034B10B55868002801D0FFF765
:10285000C4FF10BD40010020034B10B5986800284C
:1028600001D0FFF7BAFF10BD4001002010B5037979
:102870000400042B19D003002A331B785BB2112B00
:1028800008DD55225A21FFF7F4FD70225C2120005B
:10289000FFF7EFFD402225212000FFF7EAFD102180
:1028A0002000FFF767FF0423237110BD10B50379E3
:1028B00004000020032B05D020006834FFF7D6FF6A
:1028C0002078C0B210BD10B503790400032B19D0D5
:1028D00003002A331B785BB2112B08DD5D225A21DD
:1028E000FFF7C7FD7C225C212000FFF7C2FD00221C
:1028F00025212000FFF7BDFD0C212000FFF73AFF46
:102900000323237110BDF7B504000D0016003C2A07
:1029100002D900273800FEBD03689B699847200054
:10292000FFF73EFF236820005B6A9847071EF0D040
:10293000EFF310830093FFF70EFE002833D0631DE2
:102940000193D87F002100F089FF206A802103686D
:102950001B689847206A311D0368C9B21B689847F5
:10296000206AE17A0368AE191B689847206A217BC8
:1029700003681B689847206A617B03681B68984757
:10298000206AA17B03681B689847AE4206D0206A84
:102990002978036801351B689847F6E7019B0121F8
:1029A000D87F00F05BFF0098FFF7E0FD2000FFF705
:1029B0008AFFAFE703002A3310B51970002A1CD034
:1029C0008A1C01DAFE221A7000215956CBB20D2959
:1029D00005DC1F221233134021321A4309E0602222
:1029E000112903DD1F210B330B40F6E70E331A4389
:1029F000D2B21121FFF73DFD10BD123101DAEE22F6
:102A00001A7000229A560D2A01DD0D221A701A78CA
:102A10001F2312321A406133DFE770B50D00040046
:102A20000A0005230221FFF753FD6A1D0223192125
:102A30002000FFF74DFDEA7937212000FFF719FD4F
:102A400070BD000013B5040000201B290BD8064BF5
:102A5000C90059180822684604F004FA20006946A3
:102A6000FFF7DBFF012016BD0280000070B50500F6
:102A70000C000A0A2C21FFF7FCFC2800E2B22D21F1
:102A8000FFF7F7FC70BDF7B517000E002E2105000B
:102A9000FFF7C2FC7B1E04000193002E18D06B468A
:102AA0001B79032B14D832003B002F212800FFF79D
:102AB0000FFD802252421443E4B2019B2800DA0049
:102AC00038239C432243D2B22E21FFF7D2FCF7BD1C
:102AD0007F221440F1E710B50A00040000290FD04E
:102AE00010233E21FFF7F4FC3D212000FFF794FC6A
:102AF00001220243D2B23D212000FFF7BAFC10BDF3
:102B0000FFF77AFDFBE70000F7B50400FFF751FC83
:102B1000061E02D100263000FEBDE71DFD7F20000D
:102B20002900FFF712FD10212000FFF775FC23009C
:102B3000293318700138C0B2FD28EBD8F87F002186
:102B400000F05CFE23000833DA7FFF2A06D12A4911
:102B50000A78032ADED8501C0870DA77DB7F274A10
:102B600099008C50002B3BD104222549280000F00D
:102B70001FFB2000FFF714FE8F223C212000FFF7EF
:102B800078FC30226F212000FFF773FC55225A2178
:102B90002000FFF76EFC70225C212000FFF769FC2B
:102BA0000222184901A804F05DF9022201A92000BF
:102BB000FFF769FF12212000FFF744FF20000421E6
:102BC000FFF754FF104A11492000FFF7ABFD20002A
:102BD000FFF712FD00220D212000FFF7EBFE9AE720
:102BE000012B02D104220A49C0E7022B00D091E751
:102BF00004220849BAE7C0463C01002040010020F9
:102C00003128000000800000CDCC4C3D0000D943AD
:102C10004528000059280000F8B506000D001700EF
:102C20000024BC420FD00121300000F017FE280024
:102C300000F01EFC0021300000F010FE280000F023
:102C400017FC0134EDE7F8BD10B5034B0322082152
:102C50000248FFF7DDFC10BD2C01002050010020D0
:102C6000E12130B5304C85B04902200001F0A2F9D5
:102C700001210D2000F0C2FD0121042000F0BEFD65
:102C80000021042000F0EAFD2849200000F0AEFEFB
:102C9000200000F0A3FE0121042000F0DFFD0A2047
:102CA00000F0E6FB0021042000F0D8FD0A2000F02F
:102CB000DFFB1F4D2800FFF727FF002804D11D4927
:102CC000200000F093FEFEE71B49200000F08EFE7E
:102CD0001A4A1B492800FFF725FD002803D119498E
:102CE000200000F083FE280001221421FFF762FE7D
:102CF00010221549684604F0B5F869462800FFF728
:102D0000EAFE01210D2000F079FD1049200000F0BD
:102D10005CFE0A220E49200000F0B5FE0D4920009D
:102D200000F064FE05B030BD6C0700207881000023
:102D3000500100208F810000A7810000CDCC4C3DC8
:102D400000C06444BC81000054810000D0810000B8
:102D500093030000DE810000FA2070B5800096B079
:102D600000F086FB29490E22103102A804F07AF8FF
:102D7000162006220021684404F07DF81521244B1A
:102D800069440022985E421C1A800A2200F0CEFBA1
:102D9000204C2149200000F018FE02A9200000F07C
:102DA00025FE02A804F010FC1C4DC2B202A92800A6
:102DB000FFF7A9FD2800FFF7E5F96B46FA21DE1DB4
:102DC0003C23490028003370FFF7E6F900281AD0A9
:102DD000320007A92800FFF7E5FB00280ED01049B4
:102DE000200000F0F2FD07A9200000F0FFFD032203
:102DF00032210D20FFF710FF16B070BD09492000E9
:102E000000F0F4FDF8E70849F9E7C04654810000F6
:102E10004C0100206C070020E381000050010020DD
:102E2000EC810000FA81000009820000F0B5040086
:102E300085B01E000AAB1B78103001930BAB1B78DA
:102E4000170002930CAB1B780D00039300F0FEF803
:102E50002000243000F0FAF8220000234032A3635F
:102E6000E363137063729D4205D10A4B0A4A222123
:102E70000A4803F091FF6B461B79200063716B4693
:102E80001B7A2560E3716B461B7B2771A671237249
:102E900005B0F0BD2F820000AE820000408200002D
:102EA000437A002B04D18372C372C360013343722F
:102EB000704730B5040085B002AD006802910392FE
:102EC00000F0D0FE6B79227AE1790093206800232C
:102ED00000F0ACFF2979029A206800F0E7FE206834
:102EE00000F0B6FE05B030BD70B518260400FFF73F
:102EF000D7FF3300082120790D4D4343EB18595675
:102F000000F0D8FC33000821A0794343EB18595650
:102F100000F0D0FC082160794643AD19695600F0F5
:102F2000C9FC044B200006CBFFF7C3FF70BDC046B1
:102F3000048300000402002010B50400006800F0C3
:102F40007AFE0023637210BD07B5837A0091019267
:102F5000002B07D09A070AD5EFF310835A4253414A
:102F6000C37272B60099019AFFF7A3FF07BDDB0792
:102F7000F8D5C368014A9BB29360F3E7001800409C
:102F8000837A002B05D09A0704D5C37A002B00D092
:102F900062B67047DB07FCD5C368024A9BB2D360B8
:102FA000F7E7C0460018004010B5006800F063FE67
:102FB00010BD7047704700001FB5094A094B0A4908
:102FC000136000235371137102930133019316337D
:102FD0000093162201330548FFF728FF05B000BD16
:102FE0000402002000093D00CC060020C0010020A2
:102FF000094B1868002809D1EFF310820749002A0D
:1030000008D172B6BFF35F8F01320A701A680132BD
:103010001A6070470870F9E7100200200C020020C7
:10302000084B1A68002A0CD01A68013A1A601B680B
:10303000002B06D1044B1B78002B02D0BFF35F8F0F
:1030400062B67047100200200C020020FF2300210E
:1030500010B504000370FC3B41708170C1700171B8
:1030600043710C22083003F006FF200010BD000061
:1030700001220B0010B5134008D00D4B1A70042329
:1030800043708368002B00D0984710BD0222114284
:1030900004D007490A704370C368F3E70423194258
:1030A000F3D0034A1370033343700369EAE7C04661
:1030B0004E48004110B5FFF79BFF0C4B1B8C1B07C4
:1030C0001B0F0B2B0FD80A4A9900885800280AD0EA
:1030D0000F2408490A78A24313430B70064B197852
:1030E000C9B2FFF7C5FFFFF79BFF10BD00480041C5
:1030F000140200203F4800414E48004110B50248EC
:1031000002F04DF810BDC0464402002010B5024840
:1031100002F045F810BDC04680040020F7B5012438
:103120000326154F1549380000F0FCFC14491548DA
:1031300000F0F8FC1449154800F0F4FC1449154857
:1031400000F0F0FC1449154800F0ECFC144D154952
:10315000280000F0E7FC39000096230001940022CB
:10316000114801F0B1FF0096290001941E231F228F
:103170000E4801F0A9FFF7BDBC0600200008004280
:10318000000C0042C006002000100042C4060020CF
:1031900000140042C806002000180042CC0600209F
:1031A000D0060020001C00424402002080040020C1
:1031B000F7B500921822162542434F4B07009B1883
:1031C0005D5701916B1C4ED04C4B4D4C1E68002E30
:1031D00027D1310044224B4803F04DFE31004422F8
:1031E000494803F048FE1022484B49491E60CA670F
:1031F000C021C120474B49005A5080001958FF3662
:10320000B14319501A60444B444A5A800223227831
:10321000134323706378DB09012BFBD00122374B6A
:103220001A6001231E00AE40626932436261019A56
:10323000002A18D0102D1FD1E2781343E370009BB1
:10324000042B0BD818000723A2789A4302F05EF9EA
:10325000030C0E10120005231343A3702A4B019A8E
:103260001A64B6B2E660F7BD0423F5E70323F3E77B
:103270000223F1E70123EFE738000027002100F0E7
:1032800019FB224B1F499C461B68BA00BB421DD14B
:103290006046013303608E501B4B01999950072DF6
:1032A00019DD0123083DAD000721A940144A9B0008
:1032B0009B189A698A439A61009A042AD1D810000F
:1032C000996902F023F90B10121416008858B042C5
:1032D000E1D00137D9E7AD000023E5E70522AA4098
:1032E0000A439A61BDE70422F9E70322F7E70222C5
:1032F000F5E70122F3E7C046048300005C070020E5
:103300000018004018070020D406002060070020A5
:1033100004E100E000E100E0000C00400540000096
:10332000F8B50024094B1B68A34200D8F8BD084E2D
:10333000084FA5003369EA591A4204D0064BEB58EE
:103340009847EB5933610134ECE7C0466007002031
:103350000018004018070020D4060020054B10B5C7
:103360001B6C002B00D098470123034AD1780B43F4
:10337000D37010BDD406002000180040FEE7000006
:10338000034B10B51B68002B00D0984710BDC046FA
:103390006407002070B50F490F4CA14204D100F022
:1033A000C9F801F0FBFFFEE70C4D00238D42F6D07B
:1033B000CA18E818A24205D3094B8242EFD0094946
:1033C000002204E0006804331060F1E704C38B427C
:1033D000FCD3E4E7000000201001002084890000F5
:1033E00010010020600D002010B500F064F80028E6
:1033F00001D100F055F810BD014B18607047C04670
:1034000064070020014B18687047C0466807002019
:10341000F7B51348012284461249134C8E6863683D
:1034200005689B0E1340019288686268019F920EA6
:103430003A4067463F6893420ED1BD420CD1864266
:103440000AD35B19FA254868AD00861B07486B4311
:103450007043000DC018FEBD3D0013000600E3E7F9
:103460006807002010E000E000ED00E05555000086
:1034700070B5041E10D0FFF7CBFF050000F01AF85E
:10348000FFF7C6FF054B401B9842F7D9FA23013CD2
:103490009B00ED18002CF3D170BDC046E70300007F
:1034A00010B5034A13680133136000F0FFFA10BD32
:1034B00068070020704700207047F0B50C008BB003
:1034C0001600002926D0931E222B2DD80A2A05D1BA
:1034D000002803DA0127404201AD0AE00027FBE79C
:1034E000310002F0A3F8CBB2092916D830332B7083
:1034F00001352A000028F3D101ABAB42F0D0230004
:10350000002F02D02D21631C217001A98A4206D808
:1035100000221A7020000BB0F0BD5733E7E7013AE4
:10352000117819700133F0E70024F3E710B5FFF7C5
:10353000C4FF10BD1E2270B54648474943689343F7
:103540001C3A1343436008238C6923438B61434C2B
:10355000434B9C829C8A14439C82DC681442FCD0BE
:103560000124404A14701578254203D055786DB275
:10357000002DF8DB01249460547864B2002CFBDB4E
:10358000394C5460547864B2002CFBDB8224E40193
:103590005480547864B2002CFBDB02249C840E34EB
:1035A000DD682542FCD0314CDC621024DD68254208
:1035B000FCD09D8C2E4C2C439C841024DD6825422D
:1035C000FCD002249D8C80262C439C844024DD6802
:1035D0003542FCD0DD682542F9D01024DD68254253
:1035E000FCD000249460547864B2002CFBDB214CA6
:1035F0005460547864B2002CFBDB1C6A1E4D2C40D6
:1036000080251C621C6AAC431C62032393601B4B25
:10361000536053785BB2002BFBDB0023FF240B725B
:10362000174A4B728B72CB72164B1A60164B174AA5
:103630001B6811689A065B01C90E2340520F1202E3
:103640000B431343124A138580234268134343609C
:1036500070BDC04600400041000400400C06000060
:1036600000080040000C004001050100B905FF7D85
:10367000040A000000070300FFFCFFFF030601002F
:10368000006CDC02000000202460800020608000CC
:1036900000400042FA212D4B10B51868890001F056
:1036A0003FFF2B4B013898424FD82A492A4A48609D
:1036B000C020136A00061B021B0A03431362002387
:1036C0008B6007330B608021136A09061B021B0AFB
:1036D0000B431362FC22214B196A0A431A62FF2230
:1036E000196A12020A431A62A022196AD2020A4314
:1036F0001A621B4B1C005A7852B2002AFBDB194A93
:103700005A80194B1A00597EC9090129FBD0C821DA
:10371000890099800521D970537EDB09012BFBD0EC
:10372000C02300205B011361907000F023F86378E0
:103730005BB2002BFBDB0D4B0D4A6380D379DB09B9
:10374000012BFBD04123537010BDFEE70000002089
:10375000FFFFFF0010E000E000ED00E0000400408B
:10376000000C00401E4000000040004221400000CC
:10377000004800421F4900B50B004A7ED209012AC9
:10378000FBD001380A282FD801F0C0FE1B2E2E2EA8
:103790002E2E062E2E2411001A6917490A400F21D9
:1037A0001A615A788A43110001220A4310E01A690B
:1037B00011490A400F211A615A788A4311000322E5
:1037C000F3E71A690C490A400F211A615A788A43B3
:1037D0005A7000BD1A6908490A400F211A615A78C7
:1037E0008A4311000222E0E7F022196912050A4318
:1037F000F3E7C04600400042FFFFFFF0182310B57A
:1038000008244343134AD0180457013412D001242A
:103810009A5643689C4003290CD808000E49D201EF
:103820005218D318403301F071FE0210060B02212A
:103830001970546010BD0621197054609461F9E745
:103840000621197054605461F4E7022119709460E4
:10385000F0E7C04604830000004400411823F0B59F
:1038600008245843114A13181C5701341BD0012651
:1038700035005F688356BD400D4ADB019A18906899
:1038800005420BD10C00601E8441D21940321078E1
:1038900034400336A400B04320431070044A9B1800
:1038A000002901D15D61F0BD9D61FCE7048300004A
:1038B000004400411822424370B52D4E0300B21857
:1038C000127A52B2140001320ED0481C00240C2887
:1038D0000AD801F01BFE071F1F1F1F1F1F1F1F0BF2
:1038E0000B0B0B0001246442200070BD092905D197
:1038F00000211800FFF782FF0024F5E70A2901D113
:103900000839F6E700240B29EED10A391800FFF731
:1039100075FFE9E7182201205343F218F356556862
:10392000144ADB016C089B18C9B228401C190028F6
:103930000ED00F2030342278090102401143412279
:10394000C9B25B192170403319780A431A70D3E762
:1039500022000F26303214785B19B44321431170D2
:1039600041224033197804000A431A70BCE7C0466C
:103970000483000000440041F7B506000D000C0070
:103980008B180193019B671B9C4207D033682178F9
:103990001B683000984701340028F3D13800FEBD81
:1039A00070B5040008000D0003F00EFE236802004D
:1039B00029005B682000984770BD10B50B1E02D02F
:1039C000FFF7EEFF0300180010BD10B5FFF7F5FF7D
:1039D00010BD10B503681B68984710BD10B50249AB
:1039E000FFF7DEFF10BDC0465487000070B504002D
:1039F000FFF7E3FF05002000FFF7F0FF401970BD5F
:103A0000F0B58BB06B461500002205330600DA775F
:103A10000800012D00D80A2509AC290001F006FE96
:103A2000CAB2130037330700DBB2092902D81300EA
:103A30003033DBB2013C2370002FEED12100300087
:103A4000FFF7BBFF0BB0F0BDF8B506000C00151E6C
:103A500004D10368C9B21B689847F8BD0A2A0CD183
:103A600000290BDA2D21FFF7B4FF614207002A007D
:103A70003000FFF7C5FF3818EFE7D2B22100300061
:103A8000FFF7BEFFE9E710B5FFF7DEFF10BD00004E
:103A9000014B18607047C046040000200122024B11
:103AA00052421A607047C04604000020164A10B502
:103AB0001368591C26D0013B1360002B22D172B62B
:103AC000124B134A0433934213D9124A01211000B6
:103AD000147D0C42FCD02021148BFF319B085B002D
:103AE00021431183D3610C4B13800123027D1A42C1
:103AF000FCD0BFF34F8F094B094ADA60BFF34F8FF9
:103B0000C046FDE710BDC0460400002000200000B4
:103B1000030200000040004102A5FFFF00ED00E0AD
:103B20000400FA05016070479446F0B59E1E721EAF
:103B300096416246056892072F6836063A4332433B
:103B40002A60072505AC24780068A4012940214398
:103B500042680024022B00D05C03114321434160E2
:103B6000F0BD30B5C0250368AD031C6812052A40BE
:103B70002243C0240904A4022140114319600368B0
:103B80005A6814435C6030BD0123026811680B431E
:103B9000136003681A68D207FCD4DA69D207F9D433
:103BA00070470223026811680B4313600268D369EF
:103BB0009B07FCD4704703681A7ED20702D41A7E92
:103BC0009207FCD57047002203685A837047036848
:103BD000187E4007C00F70470368187EC009704701
:103BE000802302685B42117E0B43137670470368A3
:103BF000588B8007C00F704702230268518B0B431C
:103C0000538370470368187EC007C00F704703686E
:103C1000188DC0B2704703681A7ED207FCD589B2EE
:103C2000012019857047012203689A7570470122A7
:103C300003681A7570470123026811680B4313600B
:103C400003681A68D207FCD4DA69D207F9D470473E
:103C50000223026811680B4313600268D3699B0753
:103C6000FCD470470368DA699207FCD402211A6811
:103C70008A431A6070470268936A5B0A5B021943C1
:103C8000916203681A7E5207FCD5986AC0B27047E9
:103C900010B54900044801F043FC80B2002801D06F
:103CA000013880B2C0B210BD006CDC0270B54B08A8
:103CB0000C00012105680B400C402E6824075B07AF
:103CC000234333432B6011000468FFF7E1FF2073A7
:103CD00070BD00000368104A934213D00F4A93420C
:103CE00012D00F4A934211D00E4A934210D00E4A7E
:103CF00093420FD001200D4A4042934201D1063039
:103D000040B270470020FBE70120F9E70220F7E707
:103D10000320F5E70420F3E700080042000C00420E
:103D2000001000420014004200180042001C004233
:103D3000F8B5FFF7CFFF00282EDBC3001C481F2279
:103D4000C01805230579C35601201A409040032668
:103D5000C022184952001E40F6008850813AB240F5
:103D6000C024D243B440002B17DA0F263340083B5F
:103D7000114E9B089B009B19DE6932401443DC61A5
:103D80003F231D408023DB011D430C4B08605D80F9
:103D90005A7852B2002AFBDBF8BD064E9B089B0006
:103DA0009B19C026B6009F593A4014439C51E7E73F
:103DB0005887000000E100E000ED00E0000C00404A
:103DC000F8B504000F0016001D00FFF7B1FF20003A
:103DD000FFF7DAFE1C21BB000B4071072268090CBB
:103DE0000B431360842322689375012F1AD110218D
:103DF000012E00D008390C4B69431868C00001F04F
:103E00008FFB0722216802408B895203DB04DB0C05
:103E100013438B81226803049089DB0C400B400321
:103E200018439081F8BDC04600000020F7B505009A
:103E3000019308AB1F780E001400FFF7FCFE28006A
:103E4000FFF776FFC022240592031440BA070C271F
:103E500017433C43C02707223604BF022B683E406D
:103E600026431E60019B296813401A0080239B0291
:103E700013434B602A68D3695B07FCD4F7BD3F202E
:103E8000704713B56B460268D9710733546819003F
:103E90000122A04716BD10B50221006900F03AFCCE
:103EA00010BD10B50321006900F04AFC10BD0000F0
:103EB00010B51300084A0400D279002A03D1012367
:103EC0000020636010BD0A000069032100F030FD8E
:103ED0000028F4D0F6E7C0460C00002010B5054CD1
:103EE00023685A1C04D103685B699847030020606B
:103EF000180010BD58000020074B0200186810B5CC
:103F0000411C03D0012252421A6010BD02211069E7
:103F100000F000FDF9E7C0465800002010B5037816
:103F20004222023303700249024800F0ADFD10BD89
:103F3000140000208807002010B5017802004378A3
:103F40000020A12908D1212B05D1072216491748A5
:103F500000F09AFD012010BD2129FCD1202B13D1A6
:103F600007221149114800F02FFC96220E4BD20077
:103F7000196891420ED10124D87904400AD1FA205F
:103F8000FFF786FD0020E6E7222B06D19278064B4C
:103F9000DA71EAE7FFF782FDF4E7232BDBD15288E1
:103FA000034B1A60D7E7C0460C00002088070020AA
:103FB0000800002070470000FA220021054B920003
:103FC0009A60054A596008321A60044A19761A61E3
:103FD0007047C0466C0700208887000088070020D3
:103FE000704770B50F26CB1D013902003240D5B2A3
:103FF0002C0000093034092A00DD07341C70013B15
:104000008B42F2D170BD10B50400806902F020FF30
:10401000A06A02F01DFF200010BD10B50400FFF7DC
:10402000F2FF200001F0E0F9200010BD70B5032977
:1040300008D1324B8000C058002802D00368DB68EA
:10404000984770BD82291FD1C3B22D4D5A01AA18BD
:1040500091692C4C80010C40C0218905214391615C
:10406000294908334018802150612A685B01D01823
:1040700004794942214301717020995C8143080011
:10408000302101439954DCE70029DAD1C024C1B2C0
:104090001B4E4A01B21893681A4DA4052B402343C6
:1040A00093601A4B8001C0180B00506030680726DF
:1040B00008335B01195CB1430E00012131431954EF
:1040C00091690D402C43946170240F495161195C32
:1040D000A1430C0010212143195491680C4CC318C2
:1040E0000C4080214903214391609168890B890329
:1040F0009160402259790A435A71A2E78C07002047
:10410000400C0020FFFFFF8FB4070020740900203F
:10411000FF3F00F0EFF3108303600123436072B6AA
:1041200070470368002B02D162B6BFF36F8F7047F0
:1041300037B5056904006846002D14D1FFF7EAFF82
:10414000019B621D013B02D3D57FEDB2FAE76846C1
:104150000193FFF7E6FF002D01D100203EBD206A4C
:10416000E369C01AFAE7FFF7D5FF22000025019B9B
:104170003432013B02D31578EDB2FAE76846019379
:10418000FFF7CFFF002DE8D0206BE36AE9E70000DE
:10419000FF2130B54368164D1A6883680B405B01F8
:1041A000D21801235218947A234393728368426889
:1041B0000B405B01D418C268A36892042B4012091B
:1041C0001343A360836842680B405B01D3189A686D
:1041D000920B92039A6043681A6883680B40083315
:1041E0005B01D318402219790A431A7130BDC046C9
:1041F000FF3F00F0F7B5036904000E0017006846A2
:10420000002B45D1FFF786FF019B611D013B5A1C26
:104210000CD0CD7F5A1EEDB2002D05D1684601931A
:10422000FFF77FFF2800FEBD1300F0E7684601930B
:104230000025FFF776FFE369AF420AD0226A9A426F
:1042400007D95A1CE261A269D3181B78735501354E
:10425000F1E7226A9A42E5D10023E3610133236149
:104260006846FFF757FF22000021019B671D013BB5
:104270003532581CD2D0F97710785E1E002805D050
:10428000117020000193FFF783FFECE73300F0E7A4
:10429000FFF740FF2100019B3431013B5A1C06D03F
:1042A0000D785A1EEDB2002DB8D01300F6E768461F
:1042B00001930025FFF735FFE36ABD4202D0226B70
:1042C0009A421CD8226B9A42ACD100236846E36222
:1042D0002361FFF71FFF270022000021019B3437D5
:1042E000013B3532581C99D0397010785E1E002879
:1042F0000DD0117020000193FFF74AFFEBE75A1C25
:10430000E262A26AD3181B7873550135D4E73300F3
:10431000E8E7F7B5FF21826843680A401B68083266
:1043200052019A18D3790400DB072AD50125D571EB
:10433000836842680B405B01D3189A684069920415
:10434000920C002821D12262226A002A3ED0A26A61
:10435000656168465A60FFF7DDFE27002100019B7A
:10436000661D013B343735315A1C2BD0F5773A782E
:10437000581ED2B2002A05D0019368460D70FFF78F
:10438000D0FEF7BD0A700300EEE72263226B002A1D
:104390001CD000226261A26968465A60FFF7BAFE2B
:1043A00026002100019B3436013B671D35315A1C24
:1043B00008D03570FA7F581ED2B2002ADCD10A70BC
:1043C0000300F4E768460193FFF7ABFE2000FFF718
:1043D000DFFED6E737B56B46DC1D00230D0020005D
:1043E0002370FFF79BFD2B681818286001F034F844
:1043F000210000F0FDFF2B681818286020783EBDD2
:1044000003290ED180220E4B62311B68FF31585CAC
:10441000524202435A5468226339FF32FF39995499
:1044200070470129FCD18022054B24311B68FF31E4
:10443000585C524202435A5428222339FF32EDE796
:10444000400C002070B50025304B012104001A20DB
:104450001D70FFF7D3F901211A20FFF7FFF92C4B4C
:10446000012119201D70FFF7C9F901211920FFF75B
:10447000F5F92023274A0F20D1690B43D36101228C
:1044800025490B7813430B70244B1978814319701D
:1044900006211D782943197021490D782A430A7095
:1044A0001A7802401A70602219780A431A701D4B5C
:1044B0001D4A5A805A78D209FCD11C48FEF79CFF4D
:1044C0001B4D280000F0DAFF280000F0EFFF7F21ED
:1044D0002A68C120137880000B40137004232A68D7
:1044E00011780B430C2113702A6813898B431149EF
:1044F00013810B581B021B0A0B5080230B60117891
:104500007E3B0B4313700123237070BDA90700206D
:10451000A807002000040040584400413C440041EA
:1045200059440041000C004006400000FD4E0000D0
:10453000400C002000E100E00078002810D00121AC
:10454000084B1B681A898A431A810822198B0A436F
:104550001A830422198B0A431A830022024B1A6021
:104560007047C046400C0020380C002010B50F4AA0
:1045700093699B0B9B03936113680222FF331A72AA
:104580009879823A02439A711A7A9207FCD57F246D
:10459000074A2140937A0800A3431900802301436E
:1045A0009172917A5B420B43937210BD400C0020D4
:1045B0000050004110B50B790C00002B0CD1080005
:1045C000FFF7BAFC002801D0012010BD094A936909
:1045D0009B0B9B039361F7E700F03EFF210000F087
:1045E0002BFF0028F0D1034A93699B0B9B03936137
:1045F000EBE7C046400C0020F8B50D00832A19D126
:10460000CBB2364C5A01A21891693548AD01084029
:10461000C021890501439161324920686D187021DC
:10462000083355615B011A5C8A43110040220A433A
:104630001A54F8BD022A4CD12B4A8B0098580028F6
:1046400002D003685B699847382000F0C9FE274B09
:10465000802703600023214E7F00421D0362036117
:104660004361C36146608560C760D3772F32040021
:10467000C362036313703800537002F0DFFBA06164
:10468000380002F0DBFB2A00A062FF20024051014B
:1046900071188B68124FAD001F40C0239B053B4330
:1046A0008B6013003168072608335B015A5CB24304
:1046B0001600032232435A54A368626803405B0128
:1046C000D318A26920005A60FFF762FD064B5C51C7
:1046D000AFE711002800FFF7A9FCAAE7400C002073
:1046E000FFFFFF8FB40700208C070020B487000075
:1046F00070B505000124064BA200D258002A05D04F
:1047000021002800FFF778FF0134F4E770BDC046B0
:104710005C000020084B8A00D05810B5002803D058
:1047200003689B68984710BDC9B2044B49015918EA
:1047300088688004800CF6E78C070020400C00207D
:1047400010B50C00FFF7E6FF00280CD0064BE4B2D2
:104750001B68083464011C19802362795B4213438F
:1047600063710223E37110BD400C002070B5CBB221
:10477000124A13485C018901891802195160916835
:10478000104D08330D408021890229434025916056
:104790009168890B8903916001685A018A1816791A
:1047A0003543157195796D06FCD55B01C918CB7938
:1047B000DB07FCD500198068C0B270BD7409002009
:1047C000400C0020FF3F00F070B5140040220B4B5E
:1047D0000D001B68FF3359790A435A710021FFF716
:1047E000C5FFA04200D9200000230549A34203D001
:1047F000CA5CEA540133F9E770BDC046400C0020A2
:104800007409002010B5C9B20B48490142189368D9
:104810009B049B0C3F2B0BD99468403B9B04A40B3F
:104820009B0CA4032343936041188868C0B210BD59
:1048300093689B0B9B03F6E7400C0020F0B51C002F
:104840002F4B85B01B6806000D000192002B54D041
:104850002C4F3978C9B2002902D11920FEF7FEFF8A
:1048600064233B70284BAA00D058002808D0036866
:1048700022005B68019998470400200005B0F0BD54
:1048800029003000FFF746FF844204D92900300098
:10489000FFF740FF040029003000FFF7B3FF0121BC
:1048A000EBB21A4F03935B010293029A3B680198A3
:1048B0009B18FF335A7A0A435A72154BA901C9183B
:1048C000220002F0CFFA002CD7D029003000FFF7E9
:1048D00021FF0028D1D14021039B3A6808335B01B6
:1048E000D3181879014319710121D971029BD3188A
:1048F000FF339A7A0A439A72BFE701246442BCE705
:10490000380C0020A80700208C070020400C002055
:104910007409002013B56B46DC1D22000123FFF74C
:104920008DFF012801D1207816BD01204042FBE710
:10493000F0B51E003A4B85B01B680F000192002BAA
:104940003FD08023DB019E423BD8364C2178C9B250
:10495000002902D11A20FEF781FF6423002523706D
:10496000314BBA01D3180293002E2CD02F4B1B6869
:104970000393FF233B401C0000930834039B640116
:104980001C19A379DB0921D0294B2A49186800F0AA
:10499000C7FD294B1721584300F0C2FD274BE27990
:1049A000920713D4DA5D002A01D10138F7D201222F
:1049B000DA55009B5A011D4B9B189A69920B920382
:1049C0009A6101256D42280005B0F0BD00221B4B05
:1049D0003400DA55402E00D9402422000199029873
:1049E00002F040FA009BA1045A01104B890C9B185D
:1049F000029A2D195A619A69361B920B92030A4347
:104A00009A61009B039A08335B01D3180222DA7182
:104A10005979823A0A435A71019B1B190193A3E702
:104A2000380C0020A9070020B4070020400C00200B
:104A30000000002040420F0070110100AB07002071
:104A400070B50D001C000D4BAE01F61811003000C2
:104A5000220002F007FAEDB209496D014D196E61AD
:104A6000AB69084A20001340AB61AB69A2049B0B01
:104A7000920C9B031343AB6170BDC046B40700208A
:104A8000400C0020FF3F00F0F7B5104B01901B7861
:104A90000F001500002B0CD10D4B16001C78002CBC
:104AA00009D00C4E0C4834882018641902F0DAF949
:104AB00034802800FEBD002EFBD03A1933000021BF
:104AC0000198FFF7BDFF2418361AF4E7340B0020D5
:104AD000350C0020360C0020350B0020F8B50020E6
:104AE00000AF0E001500012A27D9D31D6A46DB0846
:104AF000DB00D31A9D46080002F066FD6C460323D6
:104B0000022200210130400020706370AA420DD2C1
:104B1000307800280AD0531CDBB20136A0549D42E5
:104B200003D00232E154D2B2F0E72A002100044857
:104B3000FFF7AAFF431E9841C0B2BD46F8BDC0466C
:104B400088070020F0B50024012685B0184B0F001F
:104B500069461E7005000094FFF73CFC154B01A947
:104B60000B806A3BFF3BCB716E3B0B72009B8C71E1
:104B700009334B800E4B4E7108711C703A00092F9F
:104B80000FD00D4F09223E700C4E28000094348047
:104B9000FFF77AFF69462800FFF71CFC32880849B6
:104BA0003C702800FFF770FF012005B0F0BDC04643
:104BB000340B002009020000350C0020360C0020C8
:104BC000350B0020F0B5CF7893B005000E00022F12
:104BD00009D1C9882B48FFF7B5FF441EA041C4B2D4
:104BE000200013B0F0BD00F037FC310000F014FCE1
:104BF000002803D0C417241AE40FF1E7012F0BD1CA
:104C0000F2882149112A11D8D2B2002A0ED02800E8
:104C1000FFF73AFF0124E3E70400032FE0D1B37864
:104C2000002B05D1F2881949032AEDD90A78EEE75D
:104C3000022B06D1B27916492800FFF74FFF040076
:104C4000CEE7012B02D1B2791249F5E7032BC7D188
:104C5000114B01A91868FFF7C4F9104B03A9186894
:104C6000FFF7BFF90E4B05A91868FFF7BAF90D4B0E
:104C700007A91868FFF7B5F96B460533DC77B279F9
:104C800001A9D9E788070020E5870000D887000040
:104C9000CC870000DC8700000CA0800040A08000D2
:104CA00044A0800048A0800037B5050048780C007B
:104CB0000B2810D800F02AFC061B0F2B0F41466E64
:104CC0004A4D676A097801AA002906D1022311809A
:104CD0002800FFF7B5FE01203EBD002313802E4BB8
:104CE0001B78012B00D1137002230021F0E78A7892
:104CF0000023012A03D101AA1380284BF0E7264A9A
:104D00001370274A93699B0B9B039361E3E78C78AD
:104D1000012C06D10021214B01AA1C701170230027
:104D2000D6E700208442D7D11B4B01301C4A1870B3
:104D300093699B0B9B039361CEE789782800FFF76B
:104D400015FCC8E72800FFF73DFFC5E70123154A1A
:104D5000CBE70B780020DB06BED12800FFF7C8FCAC
:104D60002A200221A2780F4BFF301A600C4A1368E8
:104D70001C5C21434A241954FF34195D2938FF383B
:104D800001431955D4E70123074AAEE78A78064B59
:104D90001A60B6E700209FE7AA070020B2070020AC
:104DA000400C0020380C00203C0C00204B4BF7B589
:104DB0001C780700002C00D083E0494E33689B8BA1
:104DC0001B070ED521002000FFF730F932681023B1
:104DD0001100FF31887A03438B72424B1C60082319
:104DE000938333689A8B52071FD504229A833E4AD5
:104DF0001378002B0AD01378013BDBB213701378C1
:104E0000002B03D101211A20FEF728FD374A137821
:104E1000002B0AD01378013BDBB213701378002B00
:104E200003D101211920FEF719FD3368FF331A7AE7
:104E3000D2061ED510221A72597930320A435A719D
:104E400060232B4938000A781A423BD1FFF72CFF28
:104E50003368FF33002838D08022997952420A43C0
:104E60009A711A7A520604D540221A72597A0A4364
:104E70005A72336800241D8C01239D43EDB20193C7
:104E8000E1B2002D1DD02B002341019A134215D011
:104E90002300326808335B01D318DA79D20702D4D1
:104EA000DB799B0707D5134BA200D058002810D000
:104EB00003681B689847019BA3409D430134092C5C
:104EC000DED1F7BDFFF776FBC2E720210A4A9171D8
:104ED000C7E73800FFF794FAEDE7C046350C00202D
:104EE000400C0020380C0020A9070020A807002053
:104EF000740900208C070020FF50004110B50248C3
:104F0000FFF754FF10BDC04688070020014B024A3E
:104F10001A607047400C002000500041012070478B
:104F200010B50368014A1B6A984710BD13040000BE
:104F30000300FC33D9699A69914203D0DB69C01838
:104F4000007D704701204042FBE710B50400006976
:104F5000FEF71AFE22000023FC329361D361862201
:104F60009200A4186360A36010BDF02001403039A6
:104F7000484248417047F0231B0119408023062016
:104F80009B0099420AD00133FF330130994205D08A
:104F9000802302385B00994200D0002070470F2028
:104FA00001400020012903D00239481E8141481CDC
:104FB000704700008923F0B5182685B002919B0048
:104FC0000400C05C330008214343324D1700EB1846
:104FD0005956FEF76FFC304B0821E05C3300434329
:104FE000EB185956FEF766FC2C4BE25C0393022A41
:104FF00009D11133E05CFF2805D008214643AE19E2
:105000007156FEF757FC8A26B600A05DFF2819D01E
:105010000121FEF7F3FB1822A35D21495A43AB5649
:10502000AD18DB0158188B21890060501D49012201
:105030005B188C218900635069688A408D21890042
:1050400062501A600122029B11002069FEF7B8FE2F
:1050500039002000FFF78FFF390005002000FFF71F
:105060009EFF390006002000FFF77FFF330000900D
:10507000290020690122FEF757FD0B4B2069E25CF5
:10508000039BE15CFEF76DFD2069FEF78AFD05B02C
:10509000F0BDC04604830000250200002702000086
:1050A000184400411444004126020000802210B53B
:1050B00004005200002101F0DEFE23000022FC3338
:1050C0005A6020009A6010BDF7B51D0008AB1B7830
:1050D0000400009309AB1B78160001930023436082
:1050E000FA239B008360114B0F00083303601430D8
:1050F000FFF7DCFF20001D30FF30FFF7D7FF8923CB
:105100006A469B002761E654094B1278E554094B27
:105110002000E2546A46084B1279E2548A22293B65
:10512000FF3B9200A3541032A354FEBDF887000049
:105130002502000026020000270200000300FC33C5
:1051400058689B68C01A01D50130FF30704710B510
:10515000040020001D30FF30FFF7F0FF0028F8D1D9
:105160002069FEF728FD10BD10B51430FFF7E6FFEB
:1051700010BD0300FC3359689A68914204DB5A68F9
:105180009868801AFF30704798685B68C01A0138C9
:10519000F9E710B51D30FF30FFF7EBFF10BD10B57C
:1051A00004000069FEF723FD002805D02069FEF702
:1051B0002EFD2069FEF720FD2069FEF708FD00287E
:1051C00020D02069FEF723FD2200FC329369D169CB
:1051D0000133DBB28B4203D091696118087593618A
:1051E0008A239B00E35CFF2B0CD020001430FFF7D8
:1051F000C0FF092806DC8B238D229B009200E35818
:10520000A2581A602069FEF7FDFC00281AD0200081
:105210001D30FF30FFF792FF002822D086239B002D
:10522000E31899685A68914218D08E219A6849000B
:10523000A218515C9A680132D2B29A60C9B2206950
:10524000FEF7E9FC2069FEF7C7FC002805D02069BD
:10525000FEF7C6FC2069FEF7B6FC10BD01214942ED
:10526000ECE72069FEF7E3FCECE7000070B5040012
:1052700000690D00FEF7C6FC00283ED1FF268623FC
:105280009B00E3185A689968013232408A4223D160
:10529000EFF31083DB0710D41E4B5B68DB05DB0DDF
:1052A000EDD0103B5BB2002B10DA0F221340083B0D
:1052B0009B08194A9B009B181B682069FEF7A2FCFB
:1052C0000028DCD02000FFF76AFFD8E79B08C03336
:1052D000124A9B009B58F0E75A68013216409A68C0
:1052E000964205D08E215A684900A21855545E6036
:1052F0002069FEF798FC012070BD20001D30FF30B2
:10530000FFF71CFF0028B9D129002069FEF783FCB4
:10531000F1E7C04600ED00E01CED00E000E100E038
:10532000030070B5FC33D9699A69040091421AD020
:10533000DA698218157DDA690132D2B2DA618A231C
:105340009B00E35CFF2B0CD020001430FFF711FF13
:105350000A2806DD8C238D229B009200E358A25878
:105360001A60280070BD01256D42E8E710B5041EE3
:1053700005D002F0E5F8210000F042FA0C00200010
:1053800010BD10B50400884203DA081AFFF7EEFFDB
:105390002418200010BDFEE77047000010B5FEF78E
:1053A00079F901F027FDFFF7F7FF0120FEF760F81C
:1053B000094C2000FFF746F82000FFF7BDF8FCF786
:1053C0009DFEFCF79FFEFEF775F8044B002BF8D00E
:1053D00000E000BFF5E7C04688070020000000009D
:1053E00010B501F02BFD10BD10B501F031FD10BD61
:1053F00070B50E0000254468002C0BD023683100E6
:105400005B6820009847002802DB2D18E468F3E76A
:1054100001256D42280070BD70B50D004468002C58
:1054200008D0236829009B6820009847002802D1F3
:10543000E468F4E7200070BD70B50D004468002CEE
:1054400008D0236829001B6820009847002802D153
:10545000E468F4E7200070BD0121054A10B5136827
:1054600004480B4003D1044C43600480116010BD1C
:10547000440D0020480D00200204000070B5040017
:10548000012304CC0500117820000B431370802207
:105490000021520001F0EFFC2B689A78D207FCD46F
:1054A0009A789207F9D45C6270BD00001F22144BF9
:1054B000F0B51B68590B9C0C9B01114014405B0F0D
:1054C000914200D105211F2C00D1023C072B00D1B5
:1054D000043B02688F01158D0A491F262940394374
:1054E000118505683440298D0A00B24322432A857C
:1054F00000681903028D044B13400B430385F0BD74
:10550000246080003FF8FFFFFF8FFFFF02B4714669
:1055100049084900095C49008E4402BC7047C046F6
:10552000002243088B4274D303098B425FD3030AE2
:105530008B4244D3030B8B4228D3030C8B420DD3F5
:10554000FF22090212BA030C8B4202D31212090283
:1055500065D0030B8B4219D300E0090AC30B8B42C1
:1055600001D3CB03C01A5241830B8B4201D38B036F
:10557000C01A5241430B8B4201D34B03C01A524114
:10558000030B8B4201D30B03C01A5241C30A8B4257
:1055900001D3CB02C01A5241830A8B4201D38B0242
:1055A000C01A5241430A8B4201D34B02C01A5241E6
:1055B000030A8B4201D30B02C01A5241CDD2C30958
:1055C0008B4201D3CB01C01A524183098B4201D3D4
:1055D0008B01C01A524143098B4201D34B01C01ABF
:1055E000524103098B4201D30B01C01A5241C30837
:1055F0008B4201D3CB00C01A524183088B4201D3A6
:105600008B00C01A524143088B4201D34B00C01A91
:105610005241411A00D20146524110467047FFE7FD
:1056200001B5002000F0F0F802BDC0460029F7D017
:1056300076E7704703460B437FD4002243088B4232
:1056400074D303098B425FD3030A8B4244D3030B09
:105650008B4228D3030C8B420DD3FF22090212BACE
:10566000030C8B4202D31212090265D0030B8B424A
:1056700019D300E0090AC30B8B4201D3CB03C01A34
:105680005241830B8B4201D38B03C01A5241430B0F
:105690008B4201D34B03C01A5241030B8B4201D3FF
:1056A0000B03C01A5241C30A8B4201D3CB02C01A6A
:1056B0005241830A8B4201D38B02C01A5241430AE2
:1056C0008B4201D34B02C01A5241030A8B4201D3D1
:1056D0000B02C01A5241CDD2C3098B4201D3CB0178
:1056E000C01A524183098B4201D38B01C01A524127
:1056F00043098B4201D34B01C01A524103098B422B
:1057000001D30B01C01A5241C3088B4201D3CB0015
:10571000C01A524183088B4201D38B00C01A5241F8
:1057200043088B4201D34B00C01A5241411A00D2A8
:1057300001465241104670475DE0CA0F00D0494211
:10574000031000D34042534000229C4603098B4281
:105750002DD3030A8B4212D3FC22890112BA030A09
:105760008B420CD3890192118B4208D3890192118B
:105770008B4204D389013AD0921100E08909C30910
:105780008B4201D3CB01C01A524183098B4201D312
:105790008B01C01A524143098B4201D34B01C01AFD
:1057A000524103098B4201D30B01C01A5241C30875
:1057B0008B4201D3CB00C01A524183088B4201D3E4
:1057C0008B00C01A5241D9D243088B4201D34B00FF
:1057D000C01A5241411A00D20146634652415B1041
:1057E000104601D34042002B00D549427047634622
:1057F0005B1000D3404201B5002000F005F802BD67
:105800000029F8D016E770477047C0468446101C40
:1058100062468C46191C634600E0C0461FB500F086
:10582000F3FB002801D40021C8421FBD10B500F0D1
:105830004BFB4042013010BD10B500F0E5FB0028E5
:1058400001DB002010BD012010BDC04610B500F0E6
:10585000DBFB002801DD002010BD012010BDC0468B
:1058600010B500F06DFB002801DC002010BD012008
:1058700010BDC04610B500F063FB002801DA00201F
:1058800010BD012010BDC04670B500220C4B0400B5
:105890000D00FFF7EFFF002804D12000290001F0E0
:1058A000D5F970BD064B00222000290000F086FECD
:1058B00001F0CCF980231B069C466044F1E7C0460A
:1058C0000000E041F0B55746DE464E464546E0B59D
:1058D000834607000E03480085B092461C00360B35
:1058E000400DCD0F002800D19DE0954B984239D056
:1058F0008023F6001B041E43924A7B0F33439946D4
:10590000944603006344009300230026FF000293A3
:1059100023031B0B98466300E40F52465B0D019472
:1059200000D1B3E086498B4200D19EE04246D100CF
:10593000802212040A435146490F11438B46814984
:1059400052468C4600996344CB1A0021D200009342
:105950002B0063409A460F2E00D905E17A4BB60022
:105960009B599F465B463343994600D0B8E00223DB
:105970000826002700900293CAE7CB463A00029916
:105980000195019B9A46022927D0032900D180E284
:10599000012944D06D49009B8C4663441C00002CB7
:1059A00038DD530700D013E2D2085B46DB0109D58E
:1059B0005946674B19408B468021C9008C46009B95
:1059C00063441C00634B9C4207DC5B4664055F0735
:1059D0005B0217431B0B620D02E000230027584AAD
:1059E00000211B031C0B0B0D1B05234314055A4AF6
:1059F000380013401C4353466400DB0764081C4313
:105A0000210005B03CBC90469946A246AB46F0BD8D
:105A10000122524201231B1B382B00DCADE1002286
:105A200000230027DCE75B46334399465ED0002E17
:105A300000D18AE1300001F091F903000B3B1C2BEF
:105A400000DD7BE11D22D31A5A460100DA400839F5
:105A50008E4013005F46334399468F403F4B0026EC
:105A60001B1A00930023029352E7414653460B430F
:105A70003B499B468C46009B634400935B46002B4E
:105A80003BD1022300221E43022161E74346134318
:105A90009B4637D04346002B00D162E1404601F0DF
:105AA0005DF903000B3B1C2B00DD53E10200414676
:105AB000083A914088461D21CB1A5146D9400B0027
:105AC00041460B439B46534693401A00009B254991
:105AD0009C46604403008C4663440093002137E7F2
:105AE0000323B14600900C26029311E70023009394
:105AF00001330426002702930AE70323C3461E430B
:105B0000032125E701331E430022012120E7002362
:105B10009A46802300271B03094A61E780234946F0
:105B20001B03194200D1E2E05946194200D0DEE0E1
:105B30000B431B0317001B0BA246014A50E7C0464C
:105B4000FF07000001FCFFFF2C880000FF0300009E
:105B5000FFFFFFFEFE070000FFFF0F800DFCFFFFB1
:105B600001F8FFFFF3030000D94500D9CBE000D1D5
:105B7000C6E03C0048460027009B013B00935B4683
:105B8000160E1B021E431302984633041B0C994643
:105B9000310C0191FFF74AFD4A4642430B04210CA8
:105BA000050019438A4207D98919013D8E4203D85D
:105BB0008A4201D9851E8919881A0199FFF736FD95
:105BC00009048C464A46210464464243090C0300FA
:105BD00021438A4204D98919013B8E4200D8F1E061
:105BE0002D041D43AB464346891A4246280C120435
:105BF0001D0C5B46140C22001B041B0C5A4303941F
:105C00006B434443029568431B19150CEB189C42E7
:105C100003D980246402A44660441C0C15041B04B0
:105C20002D0C20185D19814277D373D00C1AA24A2B
:105C30007D1BAF42BF419446009B7F426344E01B03
:105C40001C00864200D1DBE00199FFF7EFFC4A46D9
:105C500042430B04290C070019438A4207D98919CA
:105C6000013F8E4203D88A4201D9871E8919881ABA
:105C70000199FFF7DBFC09044A46894629044D4691
:105C80004243090C030029438A4207D98919013B81
:105C90008E4203D88A4201D9831E89193F04891A8A
:105CA0003A00039F1A43380013041B0C58438146E3
:105CB0000298150C6F43434345434846000C844605
:105CC000DB1963449F4203D9802040028446654427
:105CD00048461F0C00041B04000C7D191818A9422B
:105CE00000D284E000D17FE001231A4357E68023ED
:105CF0004A461B0313431B031B0BAA466F4A6FE65E
:105D0000BA4200D935E74B46DC0758087B081C43EC
:105D1000FF0734E70024AF4289D247444745A441F6
:105D20005B466442A4196418013BA6421ED2A042FD
:105D30006DD800D1B6E0241A9B4678E703005A4696
:105D4000283B9A400027914688E6584601F006F81D
:105D5000203072E603005246283B9A4093460022C8
:105D6000B4E6504600F0FAFF20309AE6A642E2D1AF
:105D7000B845DCD9341A9B4659E71F2B65DC504CDB
:105D80000099A4465C46614408008C4011008240A2
:105D9000D940501E82410C4314435A46DA40130046
:105DA000620709D00F222240042A05D02200141DC8
:105DB0009442894149425B181A0262D501220023AC
:105DC00000270DE68A4200D80AE7831E891907E7F3
:105DD0000F231340042B00D1E6E5171D9742924193
:105DE00053429B44FA08E0E5002800D1D7E571183A
:105DF000531EB14227D3A94215D358D01A0073E7D6
:105E0000002B00DC04E6012300229B44CDE50223A5
:105E10004744474589415B429C46494289190C19D0
:105E2000E344241A03E743465F0047459B41B846D5
:105E30005B429E19023A8919A94200D054E74045B5
:105E400000D051E7ABE51A00F6E71F215F46494253
:105E50000C1BE740202B07D01A49009B8C4663445B
:105E600018005B4683401A43501E82413A4307277D
:105E70000023174009D00F210023114014000429EA
:105E800095D122005F075B021B0BD208174300224B
:105E9000A6E5802359461B030B431B0317001B0B6E
:105EA000064A9DE5BD42B2D89B460024BFE6804528
:105EB000B9D31A00C3E7C046FF030000FF07000084
:105EC0001E0400003E040000F0B54F464646D6468C
:105ED0008446C0B58046194E18030F034D00000BD1
:105EE0005C0082463F0B6D0DC90F9146640DDB0FC0
:105EF0000120B5420AD0B44203D0A54201D1574592
:105F00000CD01CBC90469946A246F0BD66463E4366
:105F1000F7D1AC42F5D154461443F2D10120C84523
:105F2000EFD1994207D0002DEBD163461F433800D3
:105F3000471EB841E5E70020E3E7C046FF07000041
:105F4000F0B54F464646D6464D00C0B50E03C90FC4
:105F50008A462C491F035C008046360B6D0D914626
:105F60003F0B640DDB0F8D421ED08C4216D0002DEE
:105F70001ED130438446002C01D13A4323D06246DF
:105F8000002A1AD09A4529D05146022001390840EA
:105F900001381CBC90469946A246F0BD3900114319
:105FA000E5D002204042F4E73043FAD1AC420FD0B2
:105FB000002C0FD13A43E7D00CE00122013B934380
:105FC00018000130E5E763460020002BE1D0DBE755
:105FD0003A43E6D19A45D7D1A542D5DCA54205DBA7
:105FE000BE42D1D808D00020BE42D2D250460123B2
:105FF000013898430130CCE7C845C5D80020C845D2
:10600000F4D3C6E7FF070000F0B54F464646D64634
:106010004D00C0B50E03C90F8A462E491F035C0010
:106020008046360B6D0D91463F0B640DDB0F8D42A4
:1060300018D08C4211D0002D18D130438446002C4A
:106040001ED13A431CD163460020002B30D051466C
:1060500002200139084001382AE039001143EAD012
:10606000022025E03043FBD1AC4226D0002C26D1C3
:106070003A4324D15146022001390840013817E043
:106080006246002A0FD09A45E1D1A54205DBBE4207
:10609000DDD819D00020BE420AD250460123013873
:1060A0009843013004E00122013B93431800013082
:1060B0001CBC90469946A246F0BD3A43D0D19A45C1
:1060C000C5D1A542C3DCE0E7C845C0D80020C8451B
:1060D000E3D3EDE7FF070000F0B55746DE464E4636
:1060E0004546E0B5834606000F03480087B0924658
:1060F0001D003F0B400DCC0F002800D16FE0DE4BA0
:10610000984238D08023FF001B041F43730F3B438A
:106110000193DA4B0027994600239B46F600814401
:106120002B0369001B0B52469846490DED0F0029C1
:1061300000D185E0D04B994200D173E04346DA00AC
:1061400080231B0413435246CC48520F844613430A
:10615000524600206144D2008944210069400091E8
:106160008C46012149448A460F2F00D990E0C4494A
:10617000BF00CF59BF465B463B43019300D06AE165
:1061800002230827002681469B46C9E7320058466D
:10619000019B61460091022800D175E0032800D1DF
:1061A000FEE1012800D02CE1002300270026002575
:1061B0003F032A0D3F0BB34812053A4302401B052B
:1061C0001343009A5B00D1075B080B4330001900B2
:1061D00007B03CBC90469946A246AB46F0BD5B4634
:1061E0003B43019300D12FE1002F00D1A5E13800FE
:1061F00000F0B4FD03000B3B1C2B00DD96E11D22DB
:10620000D31A5A460100DA405E4608398F4013001F
:106210008E403B4301939C4B00271B1A9946002359
:106220009B467DE7414653460B4393498C46E144E8
:10623000002B00D01AE102220220174300228CE733
:10624000134300D10DE14346002B00D181E14046CC
:1062500000F084FD02000B3A1C2A00DD72E101000F
:10626000434608398B4098461D239A1A5346D3401B
:106270001A004346134352468A404946081A824947
:1062800089468144002068E77B4B002700268EE783
:10629000140C1204120C1100370C3604350C79431F
:1062A00028008C462E0060436044834656432100FC
:1062B000300C80465846794340440291844506D9C3
:1062C0008846802149028C46E044414602913604CA
:1062D000010C360C00048B4681191E0C1B041B0C90
:1062E0000391190079438C46280075436544A846FC
:1062F0005843050C45447743A94203D980214902FC
:106300008C466744290C8C4639000004000C2D048F
:106310002D186144AB4405915946049101990F042D
:106320003F0C080C390051434243904602008C4612
:10633000090C8B4662437C4344445C44A04503D92A
:106340008021490288464244210C8846614609045E
:10635000090C8C4639005943434370437E430F0C6C
:10636000F6182404BE19644442448C46B34203D94F
:1063700080235B0298464044029B61469846049BFA
:10638000370443449B46AB45AD416B420D04059930
:106390002D0C8C467F196744FD18A8465D462D19C3
:1063A000A542A44193466442A446C344DC448F42C0
:1063B000BF4198459B4193459241A445A4415B420E
:1063C0007F421F43360C52426442BF192243BF181A
:1063D000624638184302D20D039913436A020A43F6
:1063E000501E82416146ED0D2A434E023243D901CF
:1063F00000D4B3E00126500832400243DE073243A6
:106400005B08224C5444002C62DD510709D00F2058
:106410001040042805D0101D9042924152429B1812
:106420000200D90104D580241948E40003405444F3
:106430001848844200DD27E75E075B02D2081F0B85
:10644000630516435B0DB2E600239946013304272A
:1064500000269B4664E60323019781460C279B4652
:106460005EE6012201201743002276E60323032083
:106470001F43434671E6C046FF07000001FCFFFFD3
:106480006C880000FFFF0F800DFCFFFFFF03000082
:10649000FFFFFFFEFE0700000023802700933F035D
:1064A0000026434B83E6019B3200A446584670E623
:1064B000AC466EE6802701993F0339422DD03B421E
:1064C0002BD11F433F033F0B00951600384B6EE660
:1064D00001252D1B382D00DD66E61F2D40DC3548DB
:1064E0001C005044160082408440EE40501E824101
:1064F00034431443EB40620709D00F222240042AA0
:1065000005D02200141D9442804140421B181A02FB
:106510003ED501230027002649E68027019B3F0343
:106520001F433F033F0B0094214B40E603005A46B4
:10653000283B9A40002601926DE6584600F00EFC7A
:10654000203057E603005246283B9A4013000022B1
:1065500093E6504600F002FC20307BE6CA4650E746
:106560001F201E004042041BE640202D03D0124C89
:106570005444A3401A43501E824132430726002749
:10658000164009D00F200023104014000428B9D170
:1065900022005E075B021F0BD2081643002306E6AB
:1065A00080273F031F433F033F0B1600004BFEE5D0
:1065B000FF0700001E0400003E040000F8B5574627
:1065C0004E464546DE460C000903E0B5490A460F33
:1065D0005F0031431E03DB0F760A9B46530F3343A4
:1065E000C84E6500C000E40FD2006D0DA246814682
:1065F0007F0D9C469046B74200D1B9E05B4601262C
:1066000073409B46EE1BA34500D183E0002E63DD63
:10661000002F00D0B1E06346134300D123E1731E85
:10662000002B00D0BAE1861A6346B04280410125B2
:10663000C91A4042091A0B0200D447E149024B0A29
:1066400098464346002B00D189E1404600F086FB86
:106650000300083B1F2B00DD7CE120223000D21A12
:106660004146D040994002009E400A439D4200DDD1
:106670006AE15D1B6B1C1F2B00DD94E120211000E3
:106680003500C91A8E40DA408840DD40711E8E41C7
:10669000110007222843002506433240002A09D072
:1066A0000F233340042B05D0331DB342B64176424D
:1066B00089191E000B0200D43DE26A1C914B55055E
:1066C0006D0D9A4200D119E18F4AF6080A4057072A
:1066D00052023743120B9BE0002E00D0C5E06E1C27
:1066E0007605760D012E00DC48E16746861ACB1B45
:1066F000B042BF417F42B8461F004346FF1A3B00ED
:10670000B8461B0200D55FE137439AD1002200242E
:10671000002579E0002E00DCFAE0002F00D18DE0AA
:10672000784B9D4267D0802367461B041F43BC46BD
:10673000382E00DC52E1634613435A1E93411E1863
:1067400086428041404209180B0200D4BEE06D4BE6
:1067500001359D4200D1D2E06B4A73080A40012105
:106760000E401E435108D30707221E43324095E7CF
:106770001E00164300D045E740E7624B9D423AD0E9
:10678000802367461B041F43BC46382E00DDEBE028
:106790001F2E00DC3AE133006746203BDF403B0020
:1067A000202E05D04027BF1B6646BE403243904690
:1067B0004646721E96413343DAE0002B00D114E2C4
:1067C0006346134300D168E180234E07C008C9081F
:1067D0001B030643194208D06046C008184204D182
:1067E00063460100D2085E071643F3009946C900CC
:1067F000720F444D11434B46DE08424B4F0737435F
:10680000CA089D4200D16EE012036D05120B6D0D9A
:1068100000211203130B0A0D12051A433B4B2D05E1
:1068200013402B435B00E4075B0823433800190047
:106830003CBC90469946A246AB46F8BD634613431E
:1068400011D0731E002B00D007E1861886428041CC
:1068500061444042091801250B0237D502257BE728
:106860003E00614691463500C5E75C46002D00D0EC
:10687000E1E00B000343F3D0731C00D1ACE1214BEA
:106880009F4200D13AE1F343382B00DD6FE11F2B2B
:1068900000DD8CE120250E00ED1AAE40B04606006A
:1068A000AA46DE40454635432E005546D940A8400D
:1068B0006346451EA8415B1A9C463043161AB242F5
:1068C000924163465242991A3D00B4E60722324093
:1068D000002A00D0E4E60B4BF6084F073743CA08FE
:1068E0009D4200D090E73B00134300D1A6E18023F6
:1068F0001B031A431203120B024D89E715000022F5
:10690000002785E7FF070000FFFF7FFFFFFF0F80E5
:10691000002E00D0C7E06B1C5E05760D012E00DC5A
:10692000F0E0C84DAB4200D1B9E085180A008542BD
:1069300089416244494251180722CE076D082E430F
:10694000490832401D00A9E6BF49ED1A114007224F
:106950003240A3E6320028388240002686E6300026
:1069600000F0FCF9203073E6634613435A1E93414E
:10697000C61AB04280414042091A5CE60E006746E2
:1069800006431743002D5ED1002E00D0F3E0002F08
:1069900000D11EE15C46614691462CE7A94FBE42FC
:1069A0007BD01E00F1E610001F3DE840202B03D0F5
:1069B0004021CB1A9A401643731E9E41072206437C
:1069C00032400021002583E7161A6346B242804117
:1069D000591A40420B1A98465C4632E61F2E00DDDB
:1069E000ABE02027BB1B9A4663465746BB409946FF
:1069F00013004F46F3401F433B005746BA40571E13
:106A0000BA4113436246F240891898E62027BB1B1F
:106A10009A4663465746BB40994613004F46F3409B
:106A20001F433B005746BA40571EBA4113436246C4
:106A3000F240891A9CE7834B9F425FD080252D044A
:106A40007342294320E7002E0CD1002F00D1D0E063
:106A50005C46614691467B4DCDE67A4FBE421CD0E6
:106A60001E0065E6002F18D0C0084E0706438020A0
:106A7000C9080003014208D06346DC08044204D17F
:106A80002100DA46D2085E071643F3009946012436
:106A90005346C900720F11431C406A4DABE61D00FE
:106AA00000220027B4E6002D59D10B00034300D18A
:106AB000D6E6731C00D1B2E0624B9F421ED0F34376
:106AC000382B6FDC1F2B00DD97E020250E00ED1A20
:106AD000AE40B0460600AA46DE40454635432E008D
:106AE0005546A840D940451EA8418C440643B618D7
:106AF00096429241514261443D0025E63D00614687
:106B0000914678E60B000343002D00D055E6002B9C
:106B1000F5D06346134300D16DE686188642804166
:106B200061444042091800220B0200D4D0E6464BD3
:106B300001351940B2E5B1465DE633006746203BBA
:106B4000DF403B00202E05D04027BF1B6646BE40DD
:106B5000324390464646721E96413343EFE5394B29
:106B60009F42CBD080252D0473422943A8E70843D8
:106B7000411E8841A2E6002F00D13CE66346861AFA
:106B8000CF1AB0429B415B42FB1A98461B024ED57E
:106B9000161A6346B2429241591A5242891A5C4609
:106BA00000227BE501430E00711E8E419FE71D0010
:106BB0000E00203DEE40B046202B04D04025EB1ABD
:106BC00099400843814648464346411E8841184340
:106BD00074E60022002417E6161A6346B242924178
:106BE000591A5242891A3D0025E561469146154DD4
:106BF00001E680220024120379E61D000E00203DEC
:106C0000EE40B046202B04D04025EB1A99400843B3
:106C100081464E464346711E8E411E4367E78618E5
:106C200096429B4161445B42C9183D008CE5474652
:106C30003743CED007224146324049E600273A008A
:106C4000E6E5C046FF070000FFFF7FFF30B5144DAB
:106C50000A034B00120B5B0DC90F0024AB4211DD80
:106C6000104CA34210DC8024640322430E4CE41A2F
:106C70001F2C0CDD0D48C31ADA4013005C420029BA
:106C800000D11C00200030BD094BCC18FAE7094D9B
:106C9000E040AC4663449A4013000343EEE7C0462D
:106CA000FE0300001D040000330400001304000074
:106CB000FFFFFF7FEDFBFFFF4100090E4B1C70B58E
:106CC000DBB24602750AC40F012B14DDE0239B00E2
:106CD0006D07360BCB1800210A0D280012051C4D3C
:106CE00032435B052A405B0813435B00E4075B0803
:106CF0002343190070BD002914D1002D1ED0280097
:106D000000F02CF80A281CDC0B232A001B1ADA409E
:106D1000030015339D400F4B12031B1A5B05160B26
:106D20005B0DD8E7002D06D0320B802636036D07A9
:106D30001643094BCFE7084B0026CCE7002300267B
:106D4000C9E703002A000B3B9A400025E3E7C04651
:106D5000FFFF0F8089030000FF0700001C210123B3
:106D60001B04984201D3000C10391B0A984201D32E
:106D7000000A08391B09984201D30009043902A20C
:106D8000105C40187047C046040302020101010173
:106D9000000000000000000030B51C00094B050099
:106DA0001B6885B0D868084B002A01D1074B1A0030
:106DB0000292019300912B002200054900F00AF88D
:106DC00000F0D6FC84000020AC880000568700004C
:106DD000B98800000EB403B5010003AB044804CB2E
:106DE0000068019300F020F902B008BC03B0184716
:106DF0008400002070B500260C4D0D4C641BA410BF
:106E0000A64209D1002601F043F80A4D0A4C641B42
:106E1000A410A64205D170BDB300EB5898470136C7
:106E2000EEE7B300EB5898470136F2E7E8000020A0
:106E3000E8000020E80000200401002010B5034B0A
:106E40000100186800F06AF810BDC04684000020F8
:106E500010B5034B0100186800F016F810BDC046CD
:106E600084000020002310B59A4200D110BDCC5CF4
:106E7000C4540133F8E703001218934200D170475D
:106E800019700133F9E7000070B50500002910D032
:106E90000C1F2368002B00DAE418280000F073FEB2
:106EA0001D4A1368002B05D163601460280000F0B0
:106EB0006BFE70BDA34209D9216860188342F3D1EB
:106EC00018685B6841182160EEE713005A68002AD1
:106ED00001D0A242F9D919685818A0420BD12068F4
:106EE0000918581819608242E0D110685268411898
:106EF00019605A60DAE7A04202D90C232B60D5E76B
:106F000021686018824203D11068526841182160DC
:106F100062605C60CAE7C046500D0020032370B574
:106F2000CD1C9D43083506000C2D1ED20C25A94210
:106F30001DD8300000F027FE254A146821000029E2
:106F400019D1244C2368002B03D1300000F02AFB18
:106F500020602900300000F025FB431C2BD10C23BE
:106F60003000336000F010FE03E0002DDFDA0C2368
:106F70003360002070BD0B685B1B19D40B2B03D949
:106F80000B60CC18256003E04B688C420DD1136078
:106F9000300000F0F9FD200007220B30231D904344
:106FA000C31AE7D05A42E250E4E763600C00EFE70F
:106FB0000C004968C3E70323C41C9C43A042E1D0F2
:106FC000211A300000F0EEFA431CDBD1C7E7C046BF
:106FD000500D0020540D0020936810B5013B9360C4
:106FE000002B04DA9469A34207DB0A2905D0136851
:106FF000581C10601970080010BD00F0EDFA010077
:10700000F9E7F8B506000F001400D518AC4201D11D
:10701000002007E021783A003000FFF7DDFF01345F
:10702000431CF3D1F8BD0000F0B59FB002900F00F3
:1070300016000593002805D083690493002B01D125
:1070400000F096FC7B4B9F425BD1029B5F68BB8943
:107050001B0762D53B69002B5FD0002306AC636140
:10706000203363761033A37635002B78002B01D0C4
:10707000252B5CD1AB1B04930CD032003900029855
:10708000FFF7BFFF431C00D1C4E06269049B944634
:10709000634463612B78002B00D1BBE00122002305
:1070A0005242626002A9543252186E1C2360E3609F
:1070B000A3601370A365317805225F4800F058FD86
:1070C000751C002835D12268D30604D5532302A9A4
:1070D0005B1820211970130704D5532302A95B18EC
:1070E0002B21197033782A2B2CD0350000210A204F
:1070F000E3682A786E1C303A092A64D900292ED018
:1071000026E04E4B9F4202D1029B9F689FE74C4B6B
:107110009F429CD1029BDF6899E73900029800F0FA
:10712000B1FA002899D0012040421FB0F0BD0135CE
:107130009BE7414B2268C01A01238340134323601D
:107140002E00B8E7059B191D1B680591002B01DB7C
:10715000099304E05B42E3600223134323602B782E
:107160002E2B0AD16B782A2B35D1059B02351A1D9F
:107170001B680592002B2BDB0793324E29780322E4
:10718000300000F0F5FC002806D04023801B83402F
:107190002268013513432360297806222A486E1C91
:1071A000217600F0E5FC00283AD0284B002B25D1B1
:1071B0000722059B07339343083305936369039ABA
:1071C0009B18636150E7434301219B18350090E70A
:1071D00001235B42D0E700230A201A0001356360D7
:1071E00029786E1C3039092903D9002BC5D00792A4
:1071F000C3E74243012352183500F1E705AB009382
:107200003A00134B2100029800E000BF0390039B5B
:107210000133D3D1BB895B0600D584E70B9884E7A3
:1072200005AB00933A000A4B2100029800F080F869
:10723000ECE7C04640890000EC880000608900004F
:1072400020890000F2880000F6880000000000009D
:1072500003700000F7B5150001938A680B69009070
:107260000C00934200DA130022002B6043321278A4
:10727000002A01D001332B6023689B0602D52B68BE
:1072800002332B60062723681F4027D02300433397
:107290001B785A1E93412268920630D4220001992D
:1072A00043320098089EB047431C25D0062320682F
:1072B0002A68E16803400025042B03D18D1AEB43B3
:1072C000DB171D40A3682269934201DD9B1AED186C
:1072D0000027BD4220D1002010E00137E3682A6872
:1072E0009B1ABB42D2DD220001231932019900987A
:1072F000089EB047431CF0D101204042FEBD302023
:10730000E1184331087021005A1C45310978A21850
:10731000433202331170C1E7220001231A3201996E
:107320000098089EB047431CE6D00137D1E7000023
:10733000F0B589B004920A0043320593039002929B
:107340000A7E0C000E9B6E2A00D186E01FD8632AAD
:1073500033D008D8002A00D18CE0582A4DD025001F
:1073600042352A7030E0642A01D0692AF7D11968C1
:1073700025680A1D280629D508681A60002803DA3E
:107380002D23029A404213706B4E0A274FE0732A56
:1073900074D008D86F2A1FD0702AE0D12022096843
:1073A0000A43226003E0752A16D0782AD7D122003A
:1073B000782145321170614E22E025001A6842356D
:1073C000111D196013682B70012365E008681A60AD
:1073D0006906D3D500B2D1E719682568081D186081
:1073E00008682E0605D5544E08276F2A1BD00A2799
:1073F00019E06D06F7D580B2F5E745314E4E0A70BB
:1074000018682268011D00681960150621D5D30788
:1074100002D520231A4322601027002803D12023FD
:1074200022689A4322602300002243331A70636863
:10743000A360002B58DB04222168914321600028BF
:1074400054D1029D002B5AD02500337842352B7041
:1074500055E05506DBD580B2D9E71A680D68101DD6
:107460004969186013682E0601D5196002E06D069F
:10747000FBD519800023029D23614FE01A68111D7E
:107480001960156800216268280000F071FB00286F
:1074900001D0401B6060636823610023029A13706F
:1074A0003CE023692A0004990398059DA847431CE2
:1074B0003ED023689B0715D4079BE068984239DAD1
:1074C000180037E022000123193204990398059E21
:1074D000B047431C2CD00135E368079A9B1AAB4296
:1074E000F0DCE9E70025F7E70028ADD0029D390080
:1074F000FEF79CF8735C013D2B700028F7D1082F34
:1075000009D12368DB0706D563682269934202DC50
:107510003023013D2B70029B5B1B2361059B07AA57
:1075200000932100049B0398FFF794FE431CB8D1FD
:107530000120404209B0F0BDFD8800000E89000026
:10754000124B10B51C68A36B002B0FD11820FFF74E
:1075500075FC0F4BA06303600E4B012243600E4B82
:1075600083600B238381002302614361A46B0B4A78
:10757000206961690A4B00F011FC01220023801888
:107580005941206161614800400810BD840000201D
:107590000E33CDAB34126DE6ECDE05002D7F954C3D
:1075A0002DF45158002370B5064C050008002360E7
:1075B00000F056FC431C03D12368002B00D02B6045
:1075C00070BDC0465C0D00200023C25C0133002A60
:1075D000FBD1581E70470000F8B505000E001400DE
:1075E000002804D08369002B01D100F0C1F9224B9F
:1075F0009C422DD16C68A369A360A3891B0731D578
:107600002369002B2ED023682269F7B2981A636988
:10761000F6B2834205DC2100280000F03BF9002887
:1076200026D1A3680130013BA36023685A1C226065
:107630001F706369834204D0A389DB071AD50A2E21
:1076400018D12100280000F025F9002812D00FE001
:107650000A4B9C4201D1AC68CDE7094B9C42CAD190
:10766000EC68C8E72100280000F00CF80028CAD018
:10767000012676423000F8BD408900006089000094
:1076800020890000364B70B51D6806000C00002DE7
:1076900005D0AB69002B02D1280000F069F9314B0D
:1076A0009C420FD16C680C23E25E93B219072DD473
:1076B000D90611D409230120336037331343A38142
:1076C000404270BD284B9C4201D1AC68EBE7274B90
:1076D0009C42E8D1EC68E6E75B0713D5616B0029B3
:1076E00008D023004433994202D03000FFF7CCFB8E
:1076F000002363632422A3899343A381002363604F
:10770000236923600823A2891343A3812369002BE3
:107710000BD1A0218022A389890092000B409342C3
:1077200003D02100300000F0DFF90123A2891340CB
:1077300011D00023A36063695B42A3610020236929
:107740008342BED10C23E25E1306BAD54023134315
:10775000A3810138B5E7920700D46369A360EDE720
:10776000840000204089000060890000208900001A
:1077700010B5062000F034FA012000F087FB00006D
:10778000F7B58A8905000C00130760D44B68002BFD
:1077900004DC0B6C002B01DC0020FEBDE76A002F2F
:1077A000FAD000232E682B6080235B01216A1A40E7
:1077B00034D0606DA3895B0706D56368C01A636B1C
:1077C000002B01D0236CC01A0200216A002328007C
:1077D000E76AB847A189431C06D12B681D2B30D816
:1077E0002B4ADA40D3072CD500236360236923603A
:1077F000CB0405D5431C02D12B68002B00D160655A
:10780000616B2E600029C7D023004433994202D017
:107810002800FFF739FB00206063BEE70123280042
:10782000B847431CC6D12B68002BC3D01D2B01D0F9
:10783000162B01D12E60AFE74023A2891343A38109
:10784000ABE740230B430120A3814042A5E70F692A
:10785000002FA1D00B680F60DB1B01930023920760
:1078600000D14B69A360019B002B00DC94E7019BD6
:107870003A00216A2800A66AB047002803DC4023AA
:10788000A2891343DFE7019B3F181B1A0193EAE724
:10789000010040200B6970B505000C00002B01D1E0
:1078A000002070BD002804D08369002B01D100F0B6
:1078B0005FF80B4B9C4209D16C680C22A35E002B35
:1078C000EED021002800FFF75BFFEAE7054B9C4262
:1078D00001D1AC68F1E7044B9C42EED1EC68ECE7D7
:1078E000408900006089000020890000002310B555
:1078F000040003604360836081814366C281036149
:1079000043618361190008225C30FFF7B4FA054B2C
:1079100024626362044BA362044BE362044B23635F
:1079200010BDC046217C0000497C0000817C000025
:10793000AD7C000010B5024900F08CF810BDC046C7
:107940009578000070B568254A1E55430E00290041
:107950007431FFF7E3FA041E08D000212A00016009
:1079600046600C30A0606832FFF785FA200070BDD9
:10797000836913B50400002B28D18364C3640365B5
:10798000134B144A1B6882620193984201D1012370
:107990008361200000F020F86060200000F01CF8F7
:1079A000A060200000F018F80022E0600421606868
:1079B000FFF79CFF01220921A068FFF797FF022231
:1079C0001221E068FFF792FF0123A36113BDC046B7
:1079D000E888000035790000F8B51C4B07001E68E8
:1079E000B369002B02D13000FFF7C2FF4836B468FC
:1079F0007368013B04D53368002B07D03668F6E77F
:107A00000C22A55E002D0DD06834F2E70421380069
:107A1000FFF798FF30600028F0D10C2304003B6092
:107A20002000F8BD20000A4B656625606560A560F2
:107A3000E36025616561A561082229005C30FFF7DC
:107A40001AFA6563A563A564E564E9E7E8880000C0
:107A50000100FFFFF7B5040007000026019148343C
:107A6000002C01D13000FEBD6368A5680093009B27
:107A7000013B009301D52468F2E7AB89012B08D9BB
:107A80000E22AB5E013304D029003800019B9847D9
:107A900006436835EBE7000070B50E001D000E23AD
:107AA000C95E96B01400002907DA00232B60B38961
:107AB0001B0611D48023DB000FE06A4600F022F998
:107AC0000028F2DBF022019B12021340054A9B18AA
:107AD0005A4253412B60EDE740230020236016B04B
