:10200000008000204D4700001547000035470000C4
:1020100000000000000000000000000000000000C0
:102020000000000000000000000000003547000034
:10203000000000000000000035470000A14700003C
:1020400035470000354700003547000035470000A0
:10205000D946000035470000C54000003947000060
:1020600035470000B5440000354700003547000003
:102070008D44000035470000C5440000354700008E
:102080003547000035470000354700003547000060
:1020900000000000354700003547000035470000CC
:1020A0003547000035470000354700003547000040
:1020B0000000000010B5064C2378002B07D1054B1B
:1020C000002B02D0044800E000BF0123237010BDA4
:1020D00000030020000000004CCC0000044B10B5B1
:1020E000002B03D00349044800E000BF10BDC046E8
:1020F00000000000040300204CCC000010B500F0EC
:10210000F1F900F043FC10BD10B500F037FD00F010
:102110009DFA00F031FE00F0DDFD00F053F900F013
:1021200017FB00F095FC10BD10B500F049FA00F067
:10213000A3F9FFF7E9FF00F08BFC10BD074B10B5CA
:102140000400417182710649186804F09BFDFA236E
:102150009B005843E060200010BDC0466400002092
:1021600040420F0070B504000D004079022102F0DA
:102170007FFD02F023FB024B6574C018A06070BDA8
:1021800030F8FFFF70B505000E000024687902F0FA
:10219000CBFDB04205D1EA68631CA24203D80124FA
:1021A0006442200070BD1C00F0E7000070B5D0B0A4
:1021B0000D00040002F002FB002D07D1A3683F4A86
:1021C000C31A934202D8207C50B070BD0025022172
:1021D000A06025606079257102F04AFD012002F0BF
:1021E00023FB6079012102F043FD6079290002F0B0
:1021F0006FFDA379153B012B1BD8314B013BFDD162
:102200006079022102F034FD637C002B06D030207F
:102210000321584304F036FD0138FDD172B6002188
:102220002000FFF7AFFF431C07D10020207462B6E7
:10223000CAE7142002F0F8FAE2E701212000FFF7D4
:10224000A1FF431CF1D0A02600257600002120002C
:10225000FFF798FF6B460121E8502000FFF792FF3F
:102260002B0008356B445860B542EFD162B60022AE
:1022700001216846D300C0586B445E68431C01D0FE
:10228000731C02D1002020749EE7D510635D5B00B3
:10229000DBB2B04210D301326355282AE9D161780C
:1022A000237822795B18A1785B18E1785B18DBB2A0
:1022B0009A42E7D10120E6E70B43ECE7CF070000A5
:1022C000C044000030B5094D094CAB685B035B0F9F
:1022D0009B001C590460AB6801619BB2436063437F
:1022E000A4008360C460426130BDC046004000412C
:1022F0008CBE0000F7B580261A4D01916F6803333C
:102300003E439B086E60002B2BD0174E2E802E7DF7
:10231000F107FCD51E000768991BBF088F4219D929
:10232000002E17D0FF2117788C433C430F49577874
:102330000C403F023C439778013E39040C4F274044
:10234000D478BFB20F43240601993C4310C10191D8
:102350000432E0E7074B2B802B7DDB07FCD53300F5
:10236000D1E7F7BD0040004144A5FFFFFF00FFFF9C
:10237000FFFF00FF04A5FFFF044B054A4908D96190
:102380001A801A7DD207FCD57047C0460040004134
:1023900002A5FFFF70B504000D001600E3682900D8
:1023A0002000B34205D2FFF7E7FFE368ED18F61A05
:1023B000F4E7FFF7E1FF70BD10B510001A0006F05A
:1023C00085FF10BD10B537210748FFF7CBFE02F09F
:1023D000F5F90522054B09211860054B1A750022F5
:1023E00019765A755A7610BD1C030020340300205C
:1023F000A404002010B5154C00212000FFF7D6FEE4
:10240000002822D0FE23A278DB0112021A40E378D2
:102410000F491A430F4B1A80237860781B02184328
:1024200000B283B20B800C49141288751812C8755B
:102430000120CC76094C487548768A7620000849F8
:1024400007F0BEFD200000F0A3F810BD1C03002023
:102450003003002032030020A404002044030020A5
:10246000ACBE000010B50623162205210148FFF777
:1024700065FE10BD1C03002010B501210D2002F0E7
:10248000F7FB0C2002F016FB00212D2002F0F0FBE0
:102490003222044B1A60044B243A1A7000225A70FC
:1024A00010BDC0463C030020A404002010B52D2020
:1024B00002F06AFB80B210BD10B5FFF7F7FF064BC4
:1024C000188006F001FE054A054B05F0F1FF06F005
:1024D000C5FD80B210BDC0463803002044696FF0CE
:1024E00085C9F93F70B502F069F90F4C0F4D2368AB
:1024F000C01A2B68984215D90D2002F015FC4142F4
:1025000041410D2002F0E4FB0D2002F00DFC431EC2
:102510009841074B40421840064BC018286002F013
:102520004DF9206070BDC046400300203C030020F0
:10253000DCECFFFF5613000070B5FFF7B7FF0E4B42
:102540000400188006F0C0FD0C4A0D4B05F0B0FFEA
:1025500006F084FD0B4B0212DA7001220A4D9870CE
:102560005A700A4983B22200280007F029FD28008A
:1025700000F00EF870BDC0463803002044696FF0CB
:1025800085C9F93FA404002044030020C9BE00000F
:1025900070B505000400FF352178002905D00648F4
:1025A000013402F0AFFCAC42F6D1FF220021034817
:1025B00006F0A8FE70BDC046D40D002044030020E4
:1025C000E12110B54902094803F09EF8FA20800085
:1025D00002F02AF9FF220021054806F093FE054883
:1025E000FFF7D6FF0448FFF7D3FF10BDD40D00203E
:1025F00044030020000000201E00002070B5124C93
:10260000060020000D0002F0F0FF00280BDD200086
:1026100002F0EBFFA84206DC2A003100200003F0A4
:1026200074F8012070BD200002F0DFFFA84208DD31
:10263000200002F0DAFF002803D0200003F006F8A3
:10264000F6E70020EEE7C046D40D002010B509489B
:1026500001F0B8FD002323221021074800F0F6FB0B
:1026600002F0ACF80C22054B1860054B1A710022E1
:102670005A7110BD7806002048040020580400203C
:10268000A404002010B50021014800F0E9FB10BDB2
:102690004804002010B5FFF7F5FF094B0112188020
:1026A000084B094CD9710121020098715971200021
:1026B000064907F085FC2000FFF76AFF10BDC04601
:1026C00044040020A404002044030020EBBE0000CA
:1026D00010B52321014800F083FB10BD4804002001
:1026E000002310B50E4C01210E48238000F030FE6F
:1026F00004F0B6FC0C4B82B21112D9770121228072
:102700000A4C9A7759772000094907F059FC2000B4
:10271000FFF73EFF02F052F8064B186010BDC046AE
:102720005C04002064040020A40400204403002072
:10273000F6BE00006004002000220121034B1A7342
:102740005A739973DA7319747047C0466404002091
:10275000962110B5094C8901200003F0A9FF210042
:10276000074800F0AFFD02F029F80822054B186079
:10277000054B1A7700225A7710BDC046AC080020DE
:102780006404002060040020A4040020F8B5184D63
:102790003C220021280006F0B5FD12230C22154929
:1027A0002B70281D113B0231AB70EA70002606F039
:1027B0008DFD102410498F197B78012B11D1022235
:1027C000735CA01C2B55631CDBB2C0B20231EA540F
:1027D00028188919022206F079FD00230434E4B296
:1027E0007B700436282EE5D16C702000F8BDC04601
:1027F000D00400202C050020A404002010B503788C
:1028000001004278142B32D005D8012B12D0132BA3
:1028100022D0002017E0162B16D032D3182BF8D177
:102820000020022A0FD1CA788B78120213431A4A69
:1028300053821AE000200C2A05D1174802310230D9
:1028400006F044FD0E2010BD0020012AFBD18A783D
:10285000114B03305A70F6E70020022AF3D1CA78F0
:102860008B78120213430C4A13820430EBE70020EA
:10287000022AE8D1CA788B7812021343064AD38120
:10288000F3E70020042ADED1CA788B7812021343C2
:10289000014A06305361D6E760050020F0B597B0D5
:1028A00007AE00213C22300006F02CFD3C21300018
:1028B000FFF7A4FE01284CD13378102B49D173784F
:1028C000254D264C059322002B0083CA83C383CA5F
:1028D00083C30227059B9F4207D2F019FFF78EFFA3
:1028E000002836D03F18FFB2F4E71821280000F086
:1028F00023F92B006A462870103303CB03C20FCD97
:1029000000F0B0F9002824D00125200000F022F9C1
:102910001348FFF73DFE134E371F01350E2D06D02D
:102920006800625DC019104907F04AFBF5E7300006
:10293000FFF72EFE618A238AE289029161783000D6
:10294000019161690091094907F03AFB3000FFF7F6
:102950001FFE17B0F0BDC046600500202C0500200A
:1029600017BF0000440300202ABF00002FBF000053
:1029700010B5FFF7E1FDFFF78DFE00F011FA00F052
:10298000BBF9FFF737FDFFF7ABFE10BDF8B5214DE2
:102990006B78422B3AD16C8AFFF78EFD844235D298
:1029A00001F00CFF1C4C1D4E2368C01A1C4B9842B2
:1029B00008D933681B4801333360FFF7E9FD01F0A4
:1029C000FDFE20606B69326893421FD8002434609A
:1029D000FFF7CEFFFFF7DAFE07001348FFF7D8FD39
:1029E000124EA7420ADD325D114E1249300007F047
:1029F000E7FA3000FFF7CCFD0134F1E70E48FFF7AE
:102A0000C7FDE8893A00310000F064F8FFF746FF9F
:102A1000F8BDC0462C050020CC0400200C05002089
:102A2000E703000071C2000009BF0000D0040020CD
:102A3000440300202ABF0000F9C7000010B501239D
:102A400003220821014800F0BDFC10BD1005002044
:102A500070B500241A4D012104202C7002F008F9F1
:102A60000121042002F034F9642001F0DDFE210090
:102A7000042002F02DF9642001F0D6FE114C0E2145
:102A8000200000F0FDFD104B104A1B78128A5B21DC
:102A9000200000F07FFE01212870200001F0DEF808
:102AA00020000D22032100F073FD052220000421E7
:102AB00000F06EFD0649200000F038FE70BDC046F3
:102AC00028050020100500203E0000202C050020D5
:102AD00088BF00001300002213B5054C00920A00C5
:102AE0000100200001F03EF8200001F015F813BDB0
:102AF0001005002010B50A4C0C22A01C094906F054
:102B0000E5FB00236370084B1B88E381074B1B88A0
:102B10002382074B1B886382064B1B68636110BDD1
:102B200048050020460000204405002052000020F7
:102B30004400002040000020002310B5421CC9B210
:102B4000141AA14203DD147801321B19F8E7D8B238
:102B500010BD000030B587B06C4605000648220065
:102B600043690169FFF728FC2B0007CC07C307CC9A
:102B700007C307B030BDC04678050020F0B58BB064
:102B800004ADFFF7B7FF2800FFF7E4FF1821280086
:102B9000FFF7D2FF2B782B4C834201D1002B15D1AC
:102BA0002200294B43CB43C243CB43C201272748D2
:102BB000FFF7EEFC264E01370E2F0ED0254B780086
:102BC000E25DC018244907F0FBF9F4E723002A006E
:102BD00043CA43C343CA43C3E8E73000FFF7D8FC06
:102BE000618A238AE28902916178300001916169EA
:102BF00001270091194907F0E3F93000FFF7C8FCFD
:102C00001748FFF7C5FC01370E2F07D0311F7B0097
:102C10005818EA5D104907F0D3F9F4E73000FFF7E0
:102C2000B7FC618A2B8AEA890291697830000191A8
:102C300069690091094907F0C3F93000FFF7A8FC62
:102C40000BB0F0BD2C0500204805002017BF000088
:102C500044030020400300202ABF00002FBF0000D3
:102C600099BF000084B030B58DB006AD13932B0032
:102C700010901191129210AA13CA13C313CA13C34E
:102C80000D4C626921692000FFF784FB63692A000B
:102C900021692000FFF72EFB6846FFF75BFF6B46BC
:102CA000187810AB1B78C01A43425841C0B20DB01F
:102CB00030BC08BC04B018477805002010B51822B5
:102CC00002490348FFF7FEFA10BDC04600C00000ED
:102CD0007805002010B501F071FD0622044B0A2191
:102CE0001860044B1A73002219745A735A7410BD79
:102CF00094050020A4040020002370B5134C144D4B
:102D0000144E2B80238030000C330A22052101F061
:102D100087F80C2320800A223000032101F080F87C
:102D2000238802000C4928801812C873012014124D
:102D3000CC740A4C8B738A74487348740849200019
:102D400007F03EF92000FFF723FC70BD900500203E
:102D5000980500209A050020A404002044030020C8
:102D600000C1000010B503230C220A21014800F025
:102D7000A7FF10BD9A05002010B50021102001F01A
:102D800077FF01F01BFD0422034B1860034B1A72FE
:102D900000225A7210BDC046A4050020A4040020E1
:102DA000002310B50A4C1020238001F0EDFE094BE2
:102DB00082B21112D97201212080074C9872597287
:102DC0002000064907F0FCF82000FFF7E1FB10BDEA
:102DD000A0050020A4040020440300201DC1000021
:102DE00045234370034B0170436000230372024B81
:102DF000C36070479A99993F780600200B00103BFA
:102E0000DBB2F7B504000D000026132B1AD80127FA
:102E10003A009A400C4B1A4214D00178C06801F075
:102E2000F1F9E068290003681B689847E06801F041
:102E300094FA01900A2001F0F7FC019BB34201D102
:102E40003E0025723000FEBD0B000B0010B5002BBC
:102E500000D0C360002A00D00270FFF7CFFF10BD82
:102E600070B5037A04000D00002B01D1002070BD65
:102E70000178C06801F0C6F9E068217A03681B6830
:102E80009847E06801F069FA237A202B0DD3212BB3
:102E90001ED9232B09D160780B3B002D1DD10001D9
:102EA000452103F079FF01F0BFFC21780222E068A0
:102EB00001F0F1F90228D9D1E06803685B6998470D
:102EC0000502E06803685B699847284380B2CEE753
:102ED0006378B420002D00D178205843E0E700004B
:102EE000F7B501930B0009330093019B07000D0018
:102EF0003D4C3E4E012B3DD0002A3ED13C492000A6
:102F000001F0FCFF3B7C2F00002B1AD03949200038
:102F100001F0F4FF29780A22200002F03BF831008A
:102F2000200001F0EBFF009B0135AB42F2D13249AA
:102F3000200001F0E3FF0A220199200002F02EF8A0
:102F4000F7BD2E49200001F0D9FF3B780F2B03D8A5
:102F50002B49200001F0D2FF39781022200002F026
:102F600019F83100200001F0C9FF009B01379F4292
:102F7000E7D1DCE71E49002A00D02249200001F0F9
:102F8000BDFF3B7C2F00002B15D01A49200001F01B
:102F9000B5FF29780A22200001F0FCFF3100200053
:102FA00001F0ACFF009B01359D42F2D131002000C1
:102FB00001F0B6FFC4E71149200001F09FFF3B7804
:102FC0000F2B03D80E49200001F098FF397810220A
:102FD000200001F0DFFF3100200001F08FFF009B97
:102FE00001379F42E7D1E1E7D40D00209CC90000E2
:102FF00030C100003DC1000048C1000043C10000D5
:1030000046C1000055C1000070B5C37B04000D002F
:10301000002B03D003780122FFF762FFA06829008C
:10302000036809225B689847A0680368DB689847D3
:1030300070BD00204B1C08311A7801338018C0B2D3
:103040008B42F9D14042C0B270470000F8B50D0084
:10305000040001F0B3FB092206000021280006F05D
:1030600051F900232370A06803681B69984708285A
:1030700029DC01F0A3FBF423FF33801B9842F2D933
:10308000264F2749380001F04BFF0223A068237028
:10309000036800261B69984768706B78B34201D8B3
:1030A0000220F8BDA06801360368F6B25B69984754
:1030B0001C492870380001F021FF29780A223800C5
:1030C00001F06CFFE9E709222900A06802F06FFA1D
:1030D0002378022BE4D029002000FFF7AAFF2B7AE7
:1030E000834201D0042323702A78637C9A4203D15F
:1030F0006A78E37C9A4201D0032323702378002B63
:1031000001D101332370E37B002B05D0237800220B
:1031100029002000FFF7E4FE2078C2E7D40D00204C
:103120005EC1000085C1000010B50A000C49C37CD7
:103130008C789C4204D101002C31FFF787FF10BD31
:10314000CC789C4202D101001A31F6E70979994204
:1031500002D101002331F0E701003531EDE7C0462F
:1031600054000020F0B50600370087B002AB981D70
:103170000191140000210722113706F0C3F809223B
:103180000021380006F0BEF81F4B03AD019A2B80DA
:103190001E4B501E9B5CAB70062809D803F068FDDF
:1031A0000408080814182600337B002B00D1EC70AB
:1031B00029003000FFF73DFF09222872290038005E
:1031C00006F084F807B0F0BD002CF1D0AC71EFE749
:1031D000E317DBB21B191B12EB700D4B1C4003D520
:1031E0000C4B013C1C4301342C71E1E7E317DBB2CB
:1031F0001B191B12AB71064B1C4003D5054B013C40
:103200001C430134EC71D3E7FF010000540000209F
:10321000FF00008000FFFFFF70B5040001F0CEFA50
:10322000250003210600002220001135FFF79AFF38
:1032300029002000FFF7E8FE210003221A312000B8
:10324000FFF704FF01280BD001F0B8FAF423FF3395
:10325000801B9842F0D91749174801F061FE70BDF4
:1032600000220B212000FFF77DFF29002000FFF73F
:10327000CBFE01F0A3FA050021000B22353120001E
:10328000FFF7E4FE012808D001F098FAF423FF3399
:10329000401B9842F0D90949DEE7230020341C3353
:1032A0001978DA7E914201D00549D5E70133A3426E
:1032B000F6D1D4E7D0C10000D40D002002C2000036
:1032C00034C2000010B504008160FFF7A5FF237829
:1032D000012B03D00249034801F022FE10BDC04675
:1032E0009FC10000D40D002010B5040001F066FA63
:1032F0006368C01A05F022FF00220B4B03F06CFE3E
:1033000000280FD0237B002B0CD001F057FA0121AD
:10331000606000222000FFF725FF2100200011310E
:10332000FFF772FE10BDC0467099844170B504006D
:103330000D00FFF717FF210020001131FFF764FE99
:1033400029002000FFF7F0FE2000FFF7CDFF70BD41
:1033500070B504000D1E03D000220221FFF7E6FF26
:103360002378012B02D00020002D08D123002E331A
:1033700018782F3423780002C01804F033F970BD98
:10338000704700000122014B1A707047F2050020BF
:1033900010B5040042690169034800F0DFFD20799F
:1033A000002101F095FC10BDF405002010B50121AD
:1033B000007901F08DFC024800F0ECFD10BDC04624
:1033C000F40500200171012110B5084C4271083448
:1033D0000460074A074C117004611F220024C27266
:1033E000447504758472037310BDC04674C2000036
:1033F000EC05002000093D00036810B59B680C0037
:10340000984700280BD0064B1B88A34202D000200F
:10341000844204D1034B1878431E9841C0B210BDBA
:10342000EE050020A9050020F0B505000E000024DF
:1034300087B003930CAB1B78029204930DAB1B78FF
:10344000059301222B6800921F68029A039B3100AA
:103450002800B84701F0B2F9070001F0AFF9059B69
:10346000C01B984207D231002800FFF7C5FF002893
:10347000F3D007B0F0BD0134049BE4B2A342E0D224
:103480000020F6E7036870B5DB6A04000D0098477A
:103490007F212940074D280000F090FD00212800E1
:1034A00000F08CFD0500236820001B6B9847280066
:1034B00070BDC046F4050020F0B585B01F000AAB12
:1034C0001B78019103930BAB1E78036802925B6A31
:1034D00001210400984727212000FFF7D3FF0306AE
:1034E000F9D53D1C3D2F00D93D25EDB28027002E9A
:1034F00003D1039F7B1E9F41BF01019BFF2B03D97B
:103500000C229B1113401F432389FF2B02D99B05DB
:103510009B0F1F4323682000DB6A98471B4E8021C6
:10352000300000F04BFDE91CC9B2300000F046FD50
:103530006B463000197900F041FD217A300000F02F
:103540003DFD3900300000F039FD029F7D19AF428A
:1035500005D03978300000F031FD0137F7E72368F6
:1035600020001B6B9847236804215B6A2000984762
:10357000082528212000FFF785FF2842F9D023687D
:1035800001215B6A2000984705B0F0BDF4050020DA
:10359000036870B5DB6A160004000D0098478021AF
:1035A0002943064D280000F009FD3100280000F0F5
:1035B00005FD236820001B6B984770BDF4050020B3
:1035C00070B52E4E040033780D008B4220D00429B4
:1035D0001ED80800012103F04BFB433C2F1C0300C5
:1035E0002000FFF74FFF1C230C2298430243D2B266
:1035F00001212000FFF7CCFF237B002B04D0012109
:1036000023689B6A200098473378002B2ED03570B2
:1036100070BD2000FFF736FF1C23102298430243A1
:10362000D2B201212000FFF7B3FF237B002BEBD0A8
:10363000236800219B6AE5E72000FFF723FF1C2396
:10364000082298430243D2B201212000FFF7A0FFD5
:10365000DAE72000FFF716FF1C2304229843F1E766
:103660002000FFF70FFFE3220240EDE727212000B3
:10367000FFF708FF0306C7D5C9E7C046EC050020E1
:1036800010B50A1C04001F2900D91F22D3B2E27210
:10369000227B002A01D05B08E37211212000FFF792
:1036A000F1FE1F230200E07A9A430243D2B21121B5
:1036B0002000FFF76DFF10BD0023154A70B5137091
:1036C000144A28211380144A04001380134A042545
:1036D0001370134A1370134A1370134A1380FFF7C1
:1036E000D1FE284209D03D212000FFF7CBFE054343
:1036F000EAB23D212000FFF74BFF402220002521A8
:10370000FFF746FF236803215B6A2000984770BDDE
:10371000ED050020EE050020F0050020A8050020A2
:10372000AA050020A9050020EA0500200368F7B5D6
:103730005B6A0C00012105009847002C18D02B680B
:103740002800DB6A9847124FBE21380000F036FC93
:1037500023002600103301933178380000F02EFC4E
:10376000019B01369E42F7D12B6828001B6B9847BE
:1037700028003D21FFF786FE01230200601E8441E0
:103780009A4322432800D2B23D21FFF701FFF7BD43
:10379000F4050020F0B58FB00193437904008371E4
:1037A00002AB9E1C0D00170000212C22300005F0FA
:1037B000A9FD5F4B02AA1380022393705D4B039314
:1037C0005D4B049307231373013393730133137415
:1037D0005A4B53825A4B93825A4BD3825A4B138380
:1037E0005A4B53835A4B93835A4BD3831300302243
:1037F0000133DA77584B02AA5384584B9384584BC1
:10380000D384584B1385584B5385FF220DAB1A7048
:103810004E231F2D06D01E332B2D03D06D33562D76
:1038200000D00B3302AA5373C0231F2D06D0803B58
:103830002B2D03D08033562D00D1002302AAD37341
:103840006B461B790121F377207901F041FA0121C0
:10385000207901F00DFA454800F058FB09220023B9
:10386000627434322374A274E3742375637500F0B8
:10387000A5FF2F25060029002000AA22FFF788FEB9
:1038800029002000FFF7FEFDAA2804D000F096FFD3
:10389000801B3128EFD900F091FF2F250600290069
:1038A00020005522FFF774FE29002000FFF7EAFDF3
:1038B000552804D000F082FF801B3128EFD9002565
:1038C0006B0002AAD15CFF2907D09B185A78200010
:1038D0000135FFF75DFEEDB2F2E700212000FFF7B2
:1038E00025FF2368217B1B6920009847236801215D
:1038F0005B6A2000984700F061FF05002721200047
:10390000FFF7C0FD030604D400F058FF401B312828
:10391000F4D900F053FF451B0020312D06D8A079C3
:103920000422134900F020FE012027810FB0F0BDD2
:10393000010400000302044005030633194200009D
:1039400025400000260700002810000029DCFFFFAA
:103950002E88FFFF2F2D00003790FFFF3842000018
:103960003C8FFFFF3D1200006F300000F405002087
:103970008533000070B5040000290AD001222321FC
:10398000FFF706FE022523212000FFF77BFD2842DA
:10399000F9D024212000FFF775FD404200B240100D
:1039A00070BD000010B50B4B04001B78032B01D039
:1039B000002010BD084B19780029F9D1FFF7DAFF74
:1039C0005A30F5DA236820005B6A0121984701200C
:1039D000EFE7C046EC050020A8050020F8B5444BF1
:1039E00004001B78032B00D07BE02821FFF74AFD61
:1039F000430700D475E0236801215B6A20009847E3
:103A000023682000DB6A98473A4D0021280000F027
:103A1000D5FA0021280000F0D1FA031C422800D971
:103A20004223354A00212800137000F0C7FA334FB3
:103A300000213880280000F0C1FA314E002130808A
:103A4000280000F0BBFA01008301C0203A88800002
:103A5000034013430A02024030883B800243328015
:103A6000A27A002A04D122899A4201D0002B03D1E4
:103A7000214B1B78022B0BD800231F4A2000137008
:103A800023681B6B9847236820001B6A9847F8BD82
:103A90001C4F033B226808003B707F2398431A4B5E
:103AA00000261870402319480B40037093692000CA
:103AB00098473B78B34208D90021280000F07EFAED
:103AC000134B98550136F6B2F3E700221049200057
:103AD000CA5423681B6B9847236803215B6A200044
:103AE000984700212000FFF745FF0A4B1880CEE7DA
:103AF000EC050020F4050020A8050020F0050020BA
:103B0000EE050020ED050020A9050020AA050020F3
:103B1000AB050020EA0500200F4B10B51A78040011
:103B2000002A03D000221A70FFF758FF0B4B1B78B6
:103B3000032B0BD100200A4B1B78834205D023684E
:103B400020005B6A01219847012010BD23682000F6
:103B50001B6A98470020F8E7F2050020EC050020DA
:103B6000A8050020F0B585B002930AAB1B780D00C4
:103B70003D21039304001600FFF784FC0422024356
:103B8000D2B23D212000FFF703FD00F017FE070031
:103B90002000FFF707FF00280AD100F00FFE0B4BB3
:103BA000C01B984204D8236820009B689847EFE721
:103BB00000220192039A23680092DF693200029B7F
:103BC00029002000B84705B0F0BDC046E70300005B
:103BD000F0B587B0059200221C4B1D4E1A701D4B8C
:103BE000049100229B5E3D21039304003588FFF77A
:103BF00049FC04220243D2B23D212000FFF7C8FC59
:103C000000F0DCFD07002000FFF7CCFE00280AD101
:103C100000F0D4FD104BC01B984204D8236820004C
:103C20009B689847EFE701223580019200222368C4
:103C30000092DE69049A059B29002000B0476A467D
:103C4000044B92891A8007B0F0BDC046AA05002037
:103C5000EE050020EA050020E703000010B50F2262
:103C600004000173002900D10B3213212000FFF75B
:103C70008FFC237B002B0CD011212000FFF702FCCE
:103C80001F2210404132024311212000FFF780FC27
:103C900010BD8023E27A1A43F6E770B55D22040076
:103CA0000D1E00D1083A5A212000FFF771FC7C223A
:103CB000002D00D10C3A5C212000FFF769FC70BD9B
:103CC0008370002301704270C3700371704770B538
:103CD0001D0014000E001000012100F0C9FF012199
:103CE000280000F0C5FF0121200000F0F1FF0121B4
:103CF000280000F0EDFF0021200000F0E9FF002186
:103D0000280000F0E5FF0121280000F0E1FF01217B
:103D1000200000F0DDFF0021280000F0D9FF330073
:103D200001222900200001F09CF80121280000F068
:103D3000CFFF0021200000F09BFF200000F0F4FFE7
:103D40000021884209D1280000F0C2FF200000F0C5
:103D5000EBFF013841424141C9B2080070BD70B566
:103D60000D000021280000F083FF64240A2000F0E9
:103D70005BFD280000F0D8FF002808D0013CE4B229
:103D8000002CF3D10138431E9841C0B270BD012010
:103D9000FCE770B50C0015002000002100F068FF62
:103DA00001222900200001F039F80121060020003D
:103DB00000F05EFF2000002100F08AFF28000121B2
:103DC00000F056FF2800012100F082FF28000021AA
:103DD00000F07EFF2000002100F04AFF29000122B0
:103DE000200001F01BF83602C0B2304380B270BD33
:103DF00070B50D0014002800012100F039FF2000EB
:103E0000012100F035FF2800012100F061FF2000B2
:103E1000012100F05DFF0021200000F059FF70BD7E
:103E2000F8B5150004001E00FFF751FF290020001F
:103E3000FFF795FF320029002000FFF7AAFF0700D7
:103E4000320029002000FFF7D3FF3800F8BD000042
:103E5000F0B5040085B01E000AAB1B78103001934A
:103E60000BAB1B78170002930CAB1B780D00039370
:103E700000F0F4F82000243000F0F0F822000023D5
:103E80004032A363E363137063729D4205D10A4B12
:103E90000A4A22210A4805F0A1F96B461B79200045
:103EA00063716B461B7A2560E3716B461B7B277140
:103EB000A671237205B0F0BDB0C200002FC3000090
:103EC000C1C20000437A002B04D18372C372C36065
:103ED00001334372704730B5040085B002AD00680D
:103EE0000291039201F04EF96B79227AE179009305
:103EF0002068002301F0F0FA2979029A206801F085
:103F000065F9206801F034F905B030BD70B51826A8
:103F10000400FFF7D7FF3300082120790D4D4343FC
:103F2000EB18595600F018FF33000821A0794343DD
:103F3000EB18595600F010FF082160794643AD197F
:103F4000695600F009FF044B200006CBFFF7C3FFC2
:103F500070BDC046A8C300003806002007B5837AAC
:103F600000910192002B07D09A070AD5EFF3108336
:103F70005A425341C37272B60099019AFFF7ABFFE0
:103F800007BDDB07F8D5C368014A9BB29360F3E72E
:103F900000180040837A002B05D09A0704D5C37A15
:103FA000002B00D062B67047DB07FCD5C368024A1D
:103FB0009BB2D360F7E7C0460018004010B5006818
:103FC00001F0E9F810BD00001FB5094A094B0A4984
:103FD000136000235371137102930133019316335D
:103FE0000093162201330548FFF732FF05B000BDEC
:103FF0003806002000093D00340D0020F4050020A3
:10400000094B1868002809D1EFF310820749002AEC
:1040100008D172B6BFF35F8F01320A701A6801329D
:104020001A6070470870F9E7440600204006002037
:10403000084B1A68002A0CD01A68013A1A601B68EB
:10404000002B06D1044B1B78002B02D0BFF35F8FEF
:1040500062B670474406002040060020FF2300217E
:1040600010B504000370FC3B41708170C170017198
:1040700043710C22083005F045F9200010BD000006
:1040800001220B0010B5134008D00D4B1A70042309
:1040900043708368002B00D0984710BD0222114264
:1040A00004D007490A704370C368F3E70423194238
:1040B000F3D0034A1370033343700369EAE7C04641
:1040C0004E48004110B5FFF79BFF0C4B1B8C1B07A4
:1040D0001B0F0B2B0FD80A4A9900885800280AD0CA
:1040E0000F2408490A78A24313430B70064B197832
:1040F000C9B2FFF7C5FFFFF79BFF10BD00480041A5
:10410000480600203F4800414E48004100207047CB
:10411000F8B505000E0017000024BC4208D02B683B
:10412000315D1B6828009847002801D00134F4E76E
:104130002000F8BD70470300FC33196ADA69914228
:1041400003D01B6AC018007E704701204042FBE785
:104150000300FC33D8691B6AC01A01D50130FF3057
:1041600070470000F7B50193FA238026002504006C
:104170009B008360124B760008330F0045602900D6
:10418000009203603200183005F0BCF823002000D4
:10419000FC332130DD6132001D622900FF3005F063
:1041A000B1F887239B00E3185D609D606B461B7828
:1041B000276123756B461B79A57520006375FEBDCD
:1041C00084C3000070B5060018250C49006901F091
:1041D000ADF9306901F01AF82B000821307D084C48
:1041E0004343E318595600F0B7FD0821707D45435D
:1041F0006419615600F0B0FD70BDC046A086010094
:10420000A8C300008A2300229B00C1540C3BC318A2
:104210005A609A60012383757047020010B5FC3222
:10422000536894680133DBB29C4202D05468015554
:10423000536010BDF7B5002405001700019320005E
:10424000A24227D02B00FC33DC611C6201222869CA
:1042500001F01AF8A0421CD02E001836286901F08F
:1042600082F8013401003000FFF7D7FF2869A74228
:1042700006D000F0E9FF0221286900F0EFFFEDE72A
:1042800000F0D9FF019B002B03D00321286900F027
:10429000E5FFE0B2FEBD10B50123FFF7CBFF10BD77
:1042A000002210B5837D93420DD087239B00C41854
:1042B0006368A4680133DBB2A34204D02130FF302D
:1042C000FFF7ABFF0122100010BD0300FC3399681B
:1042D0005A68914206D09A68805C9A680132D2B2DC
:1042E0009A60704701204042FBE700228A2370B5A4
:1042F0009B00827505000E00C15C006900F0C4FFE0
:10430000002806D10321286900F0A8FF022420001C
:1043100070BD872328009B00EA18536894682130F9
:10432000FF301C1B01D50134FF34002C0ED02C694A
:10433000FFF7CBFFC1B2200000F0D3FF0028E8D187
:104340000321286900F08AFF0324E0E7002EDED075
:104350000321286900F082FFD9E710B50121FFF79A
:10436000C4FF10BD10B51830FFF7AFFF10BD70B51A
:104370000400006900F0D5FF002814D0206900F087
:10438000DEFF002810D0206900F05EFF03212069C5
:1043900000F064FF8C239B00E558002D39D10023E9
:1043A000FC34E361236270BD206900F0D2FF002875
:1043B00009D0206900F0C8FF002804D0206900F06F
:1043C000CDFF0028DFD0206900F0C3FF002826D1F0
:1043D000206900F0AFFF0028E5D0206900F0BEFFA3
:1043E000002837D087239B00E218536892689B1AF5
:1043F00001D50133FF33FF21002B05D020002130F0
:10440000FF30FFF762FFC1B2206900F07CFFA075AA
:10441000C9E7236820001B699847A847BFE72069C0
:1044200000F012FF2069032100F018FF206900F05E
:1044300095FF0028B7D0872300229B00E3185A601D
:104440009A600123A3758B239B00E3589342AAD063
:104450009847A8E72200FC32D369126A0133DBB225
:104460002069934206D100F0E6FE0321206900F0A6
:10447000F5FE98E700F077FF010020001830FFF705
:10448000CCFE206900F0E0FEEFE7000010B5024826
:10449000FFF76DFF10BDC0467806002010B515234C
:1044A000142202490248FFF75DFE10BD300D0020C6
:1044B0007806002010B5024802F039FA10BDC04657
:1044C000AC08002010B5024802F031FA10BDC04619
:1044D000E80A0020F7B501240326154F15493800D6
:1044E00000F0B0FD1449154800F0ACFD1449154822
:1044F00000F0A8FD1449154800F0A4FD1449154822
:1045000000F0A0FD144D1549280000F09BFD390076
:104510000096230001940022114802F09DF90096B4
:10452000290001941E231F220E4802F095F9F7BDC1
:10453000240D002000080042000C0042280D00203D
:10454000001000422C0D002000140042300D00200D
:1045500000180042340D0020380D0020001C0042DD
:10456000AC080020E80A0020F7B5009218221625B2
:1045700042434F4B07009B185D5701916B1C4ED077
:104580004C4B4D4C1E68002E27D1310044224B4825
:1045900004F0B8FE31004422494804F0B3FE102272
:1045A000484B49491E60CA67C021C120474B49009A
:1045B0005A5080001958FF36B14319501A60444BC5
:1045C000444A5A8002232278134323706378DB091C
:1045D000012BFBD00122374B1A6001231E00AE4095
:1045E000626932436261019A002A18D0102D1FD1EE
:1045F000E2781343E370009B042B0BD818000723C9
:10460000A2789A4302F034FB030C0E10120005232B
:104610001343A3702A4B019A1A64B6B2E660F7BD41
:104620000423F5E70323F3E70223F1E70123EFE790
:1046300038000027002100F08FFB224B1F499C46C9
:104640001B68BA00BB421DD16046013303608E5027
:104650001B4B01999950072D19DD0123083DAD0031
:104660000721A940144A9B009B189A698A439A61C2
:10467000009A042AD1D81000996902F0F9FA0B10B7
:10468000121416008858B042E1D00137D9E7AD00C6
:104690000023E5E70522AA400A439A61BDE7042208
:1046A000F9E70322F7E70222F5E70122F3E7C04624
:1046B000A8C30000C40D002000180040800D002099
:1046C0003C0D0020C80D002004E100E000E100E006
:1046D000000C004005400000F8B50024094B1B68A1
:1046E000A34200D8F8BD084E084FA5003369EA5927
:1046F0001A4204D0064BEB589847EB59336101340A
:10470000ECE7C046C80D002000180040800D0020D6
:104710003C0D0020054B10B51B6C002B00D09847BA
:104720000123034AD1780B43D37010BD3C0D002008
:1047300000180040FEE70000034B10B51B68002B7B
:1047400000D0984710BDC046CC0D002070B50F4971
:104750000F4CA14204D100F08DF802F0D1F9FEE730
:104760000C4D00238D42F6D0CA18E818A24205D39A
:10477000094B8242EFD00949002204E0006804336B
:104780001060F1E704C38B42FCD3E4E70000002093
:104790000003002050CC000000030020C8130020BC
:1047A00010B500F064F8002801D100F055F810BDF4
:1047B000014B18607047C046CC0D0020014B1868B3
:1047C0007047C046D00D0020F7B51348012284463B
:1047D0001249134C8E68636805689B0E1340019262
:1047E00088686268019F920E3A4067463F6893422C
:1047F0000ED1BD420CD186420AD35B19FA25486816
:10480000AD00861B07486B437043000DC018FEBD0A
:104810003D0013000600E3E7D00D002010E000E0AB
:1048200000ED00E05555000070B5041E10D0FFF7F4
:10483000CBFF050000F01AF8FFF7C6FF054B401B41
:104840009842F7D9FA23013C9B00ED18002CF3D1D4
:1048500070BDC046E703000010B5034A136801337A
:10486000136000F0B3FB10BDD00D00207047002096
:10487000704700001E2270B546484749436893437D
:104880001C3A1343436008238C6923438B61434CD8
:10489000434B9C829C8A14439C82DC681442FCD06B
:1048A0000124404A14701578254203D055786DB222
:1048B000002DF8DB01249460547864B2002CFBDBFB
:1048C000394C5460547864B2002CFBDB8224E40140
:1048D0005480547864B2002CFBDB02249C840E3498
:1048E000DD682542FCD0314CDC621024DD682542B5
:1048F000FCD09D8C2E4C2C439C841024DD682542DA
:10490000FCD002249D8C80262C439C844024DD68AE
:104910003542FCD0DD682542F9D01024DD682542FF
:10492000FCD000249460547864B2002CFBDB214C52
:104930005460547864B2002CFBDB1C6A1E4D2C4082
:1049400080251C621C6AAC431C62032393601B4BD2
:10495000536053785BB2002BFBDB0023FF240B7208
:10496000174A4B728B72CB72164B1A60164B174A52
:104970001B6811689A065B01C90E2340520F120290
:104980000B431343124A1385802342681343436049
:1049900070BDC04600400041000400400C0600000D
:1049A00000080040000C004001050100B905FF7D32
:1049B000040A000000070300FFFCFFFF03060100DC
:1049C000006CDC0264000020246080002060800015
:1049D00000400042FA212D4B10B51868890002F002
:1049E00051F92B4B013898424FD82A492A4A48603E
:1049F000C020136A00061B021B0A03431362002334
:104A00008B6007330B608021136A09061B021B0AA7
:104A10000B431362FC22214B196A0A431A62FF22DC
:104A2000196A12020A431A62A022196AD2020A43C0
:104A30001A621B4B1C005A7852B2002AFBDB194A3F
:104A40005A80194B1A00597EC9090129FBD0C82187
:104A5000890099800521D970537EDB09012BFBD099
:104A6000C02300205B011361907000F049F8637867
:104A70005BB2002BFBDB0D4B0D4A6380D379DB0966
:104A8000012BFBD04123537010BDFEE764000020D2
:104A9000FFFFFF0010E000E000ED00E00004004038
:104AA000000C00401E400000004000422140000079
:104AB000004800420F4B302218600F490F4B0A2864
:104AC00009DD988890439880243A0A605A7ED2097A
:104AD000012AFBD07047082806DD988890432022E1
:104AE00002439A800A22F0E7988802439A800822BB
:104AF000EBE7C0466C000020680000200040004248
:104B00001F4900B50B004A7ED209012AFBD00138AB
:104B10000A282FD802F0ACF81B2E2E2E2E2E062E91
:104B20002E2411001A6917490A400F211A615A7878
:104B30008A43110001220A4310E01A6911490A4010
:104B40000F211A615A788A4311000322F3E71A6988
:104B50000C490A400F211A615A788A435A7000BDE5
:104B60001A6908490A400F211A615A788A431100CC
:104B70000222E0E7F022196912050A43F3E7C04672
:104B800000400042FFFFFFF010B5040006285ED091
:104B900007285ED0052800D80E340121200000F03F
:104BA000DBF80E2C0DD12D4B1900DA79D209012A30
:104BB000FBD002201A7882431A70CB79DB09012BD3
:104BC000FBD027490B004A7ED209012AFBD01822CC
:104BD0006243244CA418207C1F240A692040A2436D
:104BE00002430A615A7ED209012AFBD002221978B7
:104BF0000A431A705A7ED209012AFBD00222197B7D
:104C00000A431A7301221A765A7ED209012AFBD06E
:104C10000222197B0A431A731A7ED207FCD5588BDD
:104C200080B25A7ED209012AFBD002211A788A4327
:104C30001A705A7ED209012AFBD00B4B1A680B4B13
:104C40001B689A4202D006D9D31AD84010BD2C2432
:104C5000A3E72D24A1E79B1A9840F7E700480042FC
:104C600000400042A8C30000680000206C00002043
:104C7000182310B508244343134AD01804570134AD
:104C800012D001249A5643689C4003290CD808008E
:104C90000E49D2015218D318403301F0E9FF021037
:104CA000060B02211970546010BD06211970546062
:104CB0009461F9E70621197054605461F4E7022108
:104CC00019709460F0E7C046A8C30000004400419A
:104CD0001823F0B508245843114A13181C570134FF
:104CE0001BD0012635005F688356BD400D4ADB01AD
:104CF0009A18906805420BD10C00601E8441D219AD
:104D00004032107834400336A400B0432043107082
:104D1000044A9B18002901D15D61F0BD9D61FCE74B
:104D2000A8C3000000440041182310B508244343E1
:104D300007490020CA181457013408D05B560549AA
:104D4000DB015B18186A5368D8400123184010BD76
:104D5000A8C30000004400411822424370B52D4E04
:104D60000300B218127A52B2140001320ED0481C5D
:104D700000240C280AD801F07BFF071F1F1F1F1FEC
:104D80001F1F1F0B0B0B0B0001246442200070BD82
:104D9000092905D100211800FFF76AFF0024F5E773
:104DA0000A2901D10839F6E700240B29EED10A3986
:104DB0001800FFF75DFFE9E7182201205343F218BE
:104DC000F3565568144ADB016C089B18C9B2284099
:104DD0001C1900280ED00F2030342278090102401F
:104DE00011434122C9B25B192170403319780A433B
:104DF0001A70D3E722000F26303214785B19B443BF
:104E00002143117041224033197804000A431A707B
:104E1000BCE7C046A8C3000000440041F7B5002528
:104E200007000E002C00019230000121FFF750FF17
:104E3000019B64B23800002B0DD1FFF775FFA8402D
:104E40000443002130000135E4B2FFF741FF082D93
:104E5000EAD12000FEBDFFF767FF07235B1B9840E8
:104E6000EEE7F7B507000E0000240125019200933C
:104E7000019B002B14D12900A140009B3800194050
:104E80004B1E9941FFF724FF29003000FFF720FF58
:104E9000013400213000FFF71BFF082CE8D1F7BDDB
:104EA000072329001B1B9940E7E7F7B506000D0013
:104EB0000C008B180193019B671B9C4207D0336841
:104EC00021781B683000984701340028F3D138005E
:104ED000FEBD70B5040008000D0005F091F82368D0
:104EE000020029005B682000984770BD10B50B1EBA
:104EF00002D0FFF7EEFF0300180010BD10B5FFF75A
:104F0000F5FF10BD10B503681B68984710BD000081
:104F100010B50249FFF7DDFF10BDC046F8C700001D
:104F200070B50400FFF7E2FF05002000FFF7F0FF77
:104F3000401970BDF0B58BB06B46150000220533EB
:104F40000600DA770800012D00D80A2509AC2900EF
:104F500001F01EFFCAB2130037330700DBB2092984
:104F600002D813003033DBB2013C2370002FEED1A6
:104F700021003000FFF7BAFF0BB0F0BD10B5002ADA
:104F800004D10368C9B21B68984710BDD2B2FFF7BD
:104F9000D1FFFAE710B5FFF7F1FF10BD70B50400BF
:104FA000FFF7ECFF05002000FFF7B2FF401970BDCE
:104FB000014B18607047C046700000200122024B70
:104FC00052421A607047C04670000020164A10B561
:104FD0001368591C26D0013B1360002B22D172B6F6
:104FE000124B134A0433934213D9124A0121100081
:104FF000147D0C42FCD02021148BFF319B085B00F8
:1050000021431183D3610C4B13800123027D1A428B
:10501000FCD0BFF34F8F094B094ADA60BFF34F8FC3
:10502000C046FDE710BDC046700000200020000013
:10503000030200000040004102A5FFFF00ED00E078
:105040000400FA05016070479446F0B59E1E721E7A
:1050500096416246056892072F6836063A43324306
:105060002A60072505AC24780068A4012940214363
:1050700042680024022B00D05C03114321434160AD
:10508000F0BD30B5C0250368AD031C6812052A4089
:105090002243C0240904A40221401143196003687B
:1050A0005A6814435C6030BD0123026811680B43E9
:1050B000136003681A68D207FCD4DA69D207F9D4FE
:1050C00070470223026811680B4313600268D369BA
:1050D0009B07FCD4704703681A7ED20702D41A7E5D
:1050E0009207FCD57047002203685A837047036813
:1050F000187E4007C00F70470368187EC0097047CC
:10510000802302685B42117E0B431376704703686D
:10511000588B8007C00F704702230268518B0B43E6
:10512000538370470368187EC007C00F7047036839
:10513000188DC0B2704703681A7ED207FCD589B2B9
:10514000012019857047012203689A757047012272
:1051500003681A7570470123026811680B431360D6
:1051600003681A68D207FCD4DA69D207F9D4704709
:105170000223026811680B4313600268D3699B071E
:10518000FCD470470368DA699207FCD402211A68DC
:105190008A431A6070470268936A5B0A5B0219438C
:1051A000916203681A7E5207FCD5986AC0B27047B4
:1051B00010B54900044801F065FD80B2002801D017
:1051C000013880B2C0B210BD006CDC0270B54B0873
:1051D0000C00012105680B400C402E6824075B077A
:1051E000234333432B6011000468FFF7E1FF207372
:1051F00070BD0123026811680B43136003681A68CD
:10520000D207FCD4DA69D207F9D4704702230268C6
:1052100011680B4313600368DA699207FCD43021EC
:105220005A8B8A43110010220A435A830268D369B9
:105230005B07FCD4704780230268DB021168516869
:105240000B43536070470000036803491A685A68AB
:105250000A405A607047C046FFFFFBFF032230B58B
:10526000036811401C68074D5A6809042A40E40687
:105270001143640F5960052C03D10268D3695B07A1
:10528000FCD430BDFFFFFCFF490010B5114304689A
:10529000CBB2618B8906890F012904D0618B890605
:1052A000890F0229F5D1616AC90AC90219436162ED
:1052B0000368002A08D11A7ED207FCD5588B400714
:1052C000C30F012058400BE0187E8007C00FF5D1B6
:1052D0001A7ED207F8D5C022596892020A435A6052
:1052E00010BD0368283319700368187EC007C00F0B
:1052F00003D15A8BD207F8D57047588B4007C30F9C
:1053000001205840F8E7036828331970036800202B
:105310001A7E520704D5588B01234007C00F58400E
:10532000704703681868C006400F0438434258416C
:10533000C0B270470368187E4007C00F704703680B
:10534000187EC007C00F70470368588BC006C00F97
:1053500070470368187E8007C00F70470368588B3A
:105360000007C00F704703681A68D206520F052A5B
:1053700002D11A7E9207FCD528331878C0B2704744
:105380000368104A934213D00F4A934212D00F4A37
:10539000934211D00E4A934210D00E4A93420FD03E
:1053A00001200D4A4042934201D1063040B270477D
:1053B0000020FBE70120F9E70220F7E70320F5E7EB
:1053C0000420F3E700080042000C004200100042F5
:1053D0000014004200180042001C0042F8B5FFF71C
:1053E000CFFF00282EDBC3001C481F22C018052356
:1053F0000579C35601201A4090400326C02218495F
:1054000052001E40F6008850813AB240C024D24378
:10541000B440002B17DA0F263340083B114E9B088F
:105420009B009B19DE6932401443DC613F231D4021
:105430008023DB011D430C4B08605D805A7852B21B
:10544000002AFBDBF8BD064E9B089B009B19C0267B
:10545000B6009F593A4014439C51E7E7FCC700004F
:1054600000E100E000ED00E0000C0040F8B50400B1
:105470000F0016001D00FFF7B1FF2000FFF714FE1C
:105480001C21BB000B4071072268090C0B43136001
:10549000842322689375012F1AD11021012E00D088
:1054A00008390C4B69431868C00001F0EBFB072278
:1054B000216802408B895203DB04DB0C13438B8190
:1054C000226803049089DB0C400B40031843908151
:1054D000F8BDC04664000020F7B50500019308AB95
:1054E0001F780E001400FFF736FE2800FFF776FF46
:1054F000C022240592031440BA070C2717433C43EB
:10550000C02707223604BF022B683E4026431E6098
:10551000019B296813401A0080239B0213434B60B0
:105520002A68D3695B07FCD4F7BD0000F8B5040016
:105530000F00FFF753FF2000FFF75BFE14222368E4
:1055400079001A600C4B25681E68300001F09AFB48
:105550000A490400300001F095FB7D23FA215843ED
:10556000C90001F08FFBFF23241AE868053C1C40AA
:1055700098430443EC60F8BD6400002040420F00F3
:1055800010B50400FFF71AF9E060236820005B699A
:10559000984700280ADAFFF769F9FFF70FF9E3687F
:1055A000C01AA3689842F0D30120404210BDF7B55D
:1055B0000E000C0001908D18A71BAC4207D001987B
:1055C000FFF7DEFF002802DB20700134F4E738002B
:1055D000FEBD3F20704713B56B460268D971073393
:1055E000546819000122A04716BD10B502210069B8
:1055F00000F058FC10BD10B50321006900F068FCF4
:1056000010BD000010B51300084A0400D279002A2A
:1056100003D101230020636010BD0A00006903214B
:1056200000F04EFD0028F4D0F6E7C04678000020D8
:1056300010B5054C23685A1C04D103685B69984770
:1056400003002060180010BDC4000020074B0200BA
:10565000186810B5411C03D0012252421A6010BDD7
:105660000221106900F01EFDF9E7C046C4000020C9
:1056700010B503784222023303700249024800F059
:10568000CBFD10BD80000020F00D002010B501788A
:10569000020043780020A12908D1212B05D107223F
:1056A0001649174800F0B8FD012010BD2129FCD192
:1056B000202B13D107221149114800F04DFC9622EE
:1056C0000E4BD200196891420ED10124D8790440C2
:1056D0000AD1FA20FFF76CFC0020E6E7222B06D166
:1056E0009278064BDA71EAE7FFF768FCF4E7232BC0
:1056F000DBD15288034B1A60D7E7C0467800002000
:10570000F00D0020740000207047F7B505000191EE
:105710001700FFF753F80024E860BC4211D2019A49
:105720003B1B12190221286900F050FC061E01D013
:10573000A419F2E7FFF742F8EB68C01AAB68984289
:10574000F6D32000FEBD0000FA220021054B920096
:105750009A60054A596008321A60044A19761A613B
:105760007047C046D40D00202CC80000F00D00206A
:10577000704770B50F26CB1D013902003240D5B2FB
:105780002C0000093034092A00DD07341C70013B6D
:105790008B42F2D170BD10B50400806903F07AFD30
:1057A000A06A03F077FD200010BD10B50400FFF7DC
:1057B000F2FF200001F0CAF9200010BD70B50329E6
:1057C00008D1324B8000C058002802D00368DB6843
:1057D000984770BD82291FD1C3B22D4D5A01AA1816
:1057E00091692C4C80010C40C021890521439161B5
:1057F000294908334018802150612A685B01D0187C
:1058000004794942214301717020995C8143080069
:10581000302101439954DCE70029DAD1C024C1B218
:105820001B4E4A01B21893681A4DA4052B4023431E
:1058300093601A4B8001C0180B0050603068072637
:1058400008335B01195CB1430E0001213143195447
:1058500091690D402C43946170240F495161195C8A
:10586000A1430C0010212143195491680C4CC3181A
:105870000C4080214903214391609168890B890381
:105880009160402259790A435A71A2E7F40D002031
:10589000A8120020FFFFFF8F1C0E0020DC0F00204D
:1058A000FF3F00F0EFF3108303600123436072B603
:1058B00070470368002B02D162B6BFF36F8F704749
:1058C00037B5056904006846002D14D1FFF7EAFFDB
:1058D000019B621D013B02D3D57FEDB2FAE768461A
:1058E0000193FFF7E6FF002D01D100203EBD206AA5
:1058F000E369C01AFAE7FFF7D5FF22000025019BF4
:105900003432013B02D31578EDB2FAE768460193D1
:10591000FFF7CFFF002DE8D0206BE36AE9E7000036
:10592000FF2130B54368164D1A6883680B405B0150
:10593000D21801235218947A2343937283684268E1
:105940000B405B01D418C268A36892042B40120973
:105950001343A360836842680B405B01D3189A68C5
:10596000920B92039A6043681A6883680B4008336D
:105970005B01D318402219790A431A7130BDC04621
:10598000FF3F00F0F7B5036904000E0017006846FA
:10599000002B45D1FFF786FF019B611D013B5A1C7F
:1059A0000CD0CD7F5A1EEDB2002D05D16846019373
:1059B000FFF77FFF2800FEBD1300F0E76846019364
:1059C0000025FFF776FFE369AF420AD0226A9A42C8
:1059D00007D95A1CE261A269D3181B7873550135A7
:1059E000F1E7226A9A42E5D10023E36101332361A2
:1059F0006846FFF757FF22000021019B671D013B0E
:105A00003532581CD2D0F97710785E1E002805D0A8
:105A1000117020000193FFF783FFECE73300F0E7FC
:105A2000FFF740FF2100019B3431013B5A1C06D097
:105A30000D785A1EEDB2002DB8D01300F6E7684677
:105A400001930025FFF735FFE36ABD4202D0226BC8
:105A50009A421CD8226B9A42ACD100236846E3627A
:105A60002361FFF71FFF270022000021019B34372D
:105A7000013B3532581C99D0397010785E1E0028D1
:105A80000DD0117020000193FFF74AFFEBE75A1C7D
:105A9000E262A26AD3181B7873550135D4E733004C
:105AA000E8E7F7B5FF21826843680A401B680832BF
:105AB00052019A18D3790400DB072AD50125D57144
:105AC000836842680B405B01D3189A68406992046E
:105AD000920C002821D12262226A002A3ED0A26ABA
:105AE000656168465A60FFF7DDFE27002100019BD3
:105AF000661D013B343735315A1C2BD0F5773A7887
:105B0000581ED2B2002A05D0019368460D70FFF7E7
:105B1000D0FEF7BD0A700300EEE72263226B002A75
:105B20001CD000226261A26968465A60FFF7BAFE83
:105B300026002100019B3436013B671D35315A1C7C
:105B400008D03570FA7F581ED2B2002ADCD10A7014
:105B50000300F4E768460193FFF7ABFE2000FFF770
:105B6000DFFED6E737B56B46DC1D00230D002000B5
:105B70002370FFF77DFD2B681818286001F01EF8D0
:105B8000210000F0E7FF2B681818286020783EBD40
:105B900003290ED180220E4B62311B68FF31585C05
:105BA000524202435A5468226339FF32FF399954F2
:105BB00070470129FCD18022054B24311B68FF313D
:105BC000585C524202435A5428222339FF32EDE7EF
:105BD000A812002070B50025304B012104001A20C6
:105BE0001D70FFF745F801211A20FFF771F82C4BC3
:105BF000012119201D70FFF73BF801211920FFF743
:105C000067F82023274A0F20D1690B43D361012273
:105C100025490B7813430B70244B19788143197075
:105C200006211D782943197021490D782A430A70ED
:105C30001A7802401A70602219780A431A701D4BB4
:105C40001D4A5A805A78D209FCD11C48FEF7B0FD93
:105C50001B4D280000F0C4FF280000F0D9FF7F2171
:105C60002A68C120137880000B40137004232A682F
:105C700011780B430C2113702A6813898B43114947
:105C800013810B581B021B0A0B5080230B601178E9
:105C90007E3B0B4313700123237070BD110E002057
:105CA000100E002000040040584400413C440041D4
:105CB00059440041000C0040064000008D66000081
:105CC000A812002000E100E00078002810D0012197
:105CD000084B1B681A898A431A810822198B0A43C8
:105CE0001A830422198B0A431A830022024B1A607A
:105CF0007047C046A8120020A012002010B50F4A1D
:105D000093699B0B9B03936113680222FF331A7202
:105D10009879823A02439A711A7A9207FCD57F24C5
:105D2000074A2140937A0800A343190080230143C6
:105D30009172917A5B420B43937210BDA8120020BE
:105D40000050004110B50B790C00002B0CD108005D
:105D5000FFF79CFC002801D0012010BD094A93697F
:105D60009B0B9B039361F7E700F028FF210000F0F5
:105D700015FF0028F0D1034A93699B0B9B039361A5
:105D8000EBE7C046A8120020F8B50D00832A19D110
:105D9000CBB2364C5A01A21891693548AD01084082
:105DA000C021890501439161324920686D18702135
:105DB000083355615B011A5C8A43110040220A4393
:105DC0001A54F8BD022A4CD12B4A8B00985800284F
:105DD00002D003685B699847382000F0B3FE274B78
:105DE000802703600023214E7F00421D0362036170
:105DF0004361C36146608560C760D3772F3204007A
:105E0000C362036313703800537003F039FAA06162
:105E1000380003F035FA2A00A062FF200240510149
:105E200071188B68124FAD001F40C0239B053B4388
:105E30008B6013003168072608335B015A5CB2435C
:105E40001600032232435A54A368626803405B0180
:105E5000D318A26920005A60FFF762FD064B5C511F
:105E6000AFE711002800FFF7A9FCAAE7A81200205D
:105E7000FFFFFF8F1C0E0020F40D002058C800000B
:105E800070B505000124064BA200D258002A05D0A7
:105E900021002800FFF778FF0134F4E770BDC04609
:105EA000C8000020084B8A00D05810B5002803D045
:105EB00003689B68984710BDC9B2044B4901591843
:105EC00088688004800CF6E7F40D0020A8120020FA
:105ED00010B50C00FFF7E6FF00280CD0064BE4B22B
:105EE0001B68083464011C19802362795B421343E8
:105EF00063710223E37110BDA812002070B5CBB20C
:105F0000124A13485C01890189180219516091688D
:105F1000104D08330D4080218902294340259160AE
:105F20009168890B8903916001685A018A18167972
:105F30003543157195796D06FCD55B01C918CB7990
:105F4000DB07FCD500198068C0B270BDDC0F0020F3
:105F5000A8120020FF3F00F070B5140040220B4B48
:105F60000D001B68FF3359790A435A710021FFF76E
:105F7000C5FFA04200D9200000230549A34203D059
:105F8000CA5CEA540133F9E770BDC046A81200208C
:105F9000DC0F002010B5C9B20B48490142189368C4
:105FA0009B049B0C3F2B0BD99468403B9B04A40B98
:105FB0009B0CA4032343936041188868C0B210BDB2
:105FC00093689B0B9B03F6E7A8120020F0B51C001A
:105FD0002F4B85B01B6806000D000192002B54D09A
:105FE0002C4F3978C9B2002902D11920FEF770FE72
:105FF00064233B70284BAA00D058002808D00368BF
:1060000022005B68019998470400200005B0F0BDAC
:1060100029003000FFF746FF844204D929003000F0
:10602000FFF740FF040029003000FFF7B3FF012114
:10603000EBB21A4F03935B010293029A3B680198FB
:106040009B18FF335A7A0A435A72154BA901C91893
:10605000220003F03BF9002CD7D029003000FFF7D5
:1060600021FF0028D1D14021039B3A6808335B010E
:10607000D3181879014319710121D971029BD318E2
:10608000FF339A7A0A439A72BFE701246442BCE75D
:10609000A0120020100E0020F40D0020A8120020F5
:1060A000DC0F002013B56B46DC1D22000123FFF737
:1060B0008DFF012801D1207816BD01204042FBE769
:1060C000F0B51E003A4B85B01B680F000192002B03
:1060D0003FD08023DB019E423BD8364C2178C9B2A9
:1060E000002902D11A20FEF7F3FD64230025237056
:1060F000314BBA01D3180293002E2CD02F4B1B68C2
:106100000393FF233B401C0000930834039B64016E
:106110001C19A379DB0921D0294B2A49186800F002
:10612000B1FD294B1721584300F0ACFD274BE27914
:10613000920713D4DA5D002A01D10138F7D2012287
:10614000DA55009B5A011D4B9B189A69920B9203DA
:106150009A6101256D42280005B0F0BD00221B4B5D
:106160003400DA55402E00D94024220001990298CB
:1061700003F0ACF8009BA1045A01104B890C9B184A
:10618000029A2D195A619A69361B920B92030A439F
:106190009A61009B039A08335B01D3180222DA71DB
:1061A0005979823A0A435A71019B1B190193A3E75B
:1061B000A0120020110E00201C0E0020A8120020AA
:1061C0006400002040420F0070110100130E0020F7
:1061D00070B50D001C000D4BAE01F618110030001B
:1061E000220003F073F8EDB209496D014D196E619B
:1061F000AB69084A20001340AB61AB69A2049B0B5A
:10620000920C9B031343AB6170BDC0461C0E002073
:10621000A8120020FF3F00F0F7B5104B01901B784B
:106220000F001500002B0CD10D4B16001C78002C14
:1062300009D00C4E0C4834882018641903F046F835
:1062400034802800FEBD002EFBD03A193300002117
:106250000198FFF7BDFF2418361AF4E79C110020BF
:106260009D1200209E1200209D110020F8B50020F4
:1062700000AF0E001500012A27D9D31D6A46DB089E
:10628000DB00D31A9D46080003F0BAFE6C460323D8
:10629000022200210130400020706370AA420DD21A
:1062A000307800280AD0531CDBB20136A0549D423E
:1062B00003D00232E154D2B2F0E72A0021000448B0
:1062C000FFF7AAFF431E9841C0B2BD46F8BDC046C5
:1062D000F00D0020F0B50024012685B0184B0F000A
:1062E00069461E7005000094FFF73CFC154B01A9A0
:1062F0000B806A3BFF3BCB716E3B0B72009B8C713A
:1063000009334B800E4B4E7108711C703A00092FF7
:106310000FD00D4F09223E700C4E2800009434809F
:10632000FFF77AFF69462800FFF71CFC328808490E
:106330003C702800FFF770FF012005B0F0BDC0469B
:106340009C110020090200009D1200209E120020D6
:106350009D110020F0B5CF7893B005000E00022FFC
:1063600009D1C9882B48FFF7B5FF441EA041C4B22C
:10637000200013B0F0BD00F021FC310000F0FEFB66
:10638000002803D0C417241AE40FF1E7012F0BD122
:10639000F2882149112A11D8D2B2002A0ED0280041
:1063A000FFF73AFF0124E3E70400032FE0D1B378BD
:1063B000002B05D1F2881949032AEDD90A78EEE7B6
:1063C000022B06D1B27916492800FFF74FFF0400CF
:1063D000CEE7012B02D1B2791249F5E7032BC7D1E1
:1063E000114B01A91868FFF7C4F9104B03A91868ED
:1063F000FFF7BFF90E4B05A91868FFF7BAF90D4B67
:1064000007A91868FFF7B5F96B460533DC77B27951
:1064100001A9D9E7F00D002089C800007CC8000060
:1064200070C8000080C800000CA0800040A0800060
:1064300044A0800048A0800037B5050048780C00D3
:106440000B2810D800F014FC061B0F2B0F41466ED2
:106450004A4D676A097801AA002906D102231180F2
:106460002800FFF7B5FE01203EBD002313802E4B10
:106470001B78012B00D1137002230021F0E78A78EA
:106480000023012A03D101AA1380284BF0E7264AF2
:106490001370274A93699B0B9B039361E3E78C7806
:1064A000012C06D10021214B01AA1C701170230080
:1064B000D6E700208442D7D11B4B01301C4A18700C
:1064C00093699B0B9B039361CEE789782800FFF7C4
:1064D00015FCC8E72800FFF73DFFC5E70123154A73
:1064E000CBE70B780020DB06BED12800FFF7C8FC05
:1064F0002A200221A2780F4BFF301A600C4A136841
:106500001C5C21434A241954FF34195D2938FF3893
:1065100001431955D4E70123074AAEE78A78064BB1
:106520001A60B6E700209FE7120E00201A0E002026
:10653000A8120020A0120020A41200204B4BF7B597
:106540001C780700002C00D083E0494E33689B8BF9
:106550001B070ED521002000FFF730F93268102309
:106560001100FF31887A03438B72424B1C60082371
:10657000938333689A8B52071FD504229A833E4A2D
:106580001378002B0AD01378013BDBB21370137819
:10659000002B03D101211A20FEF79AFB374A13780A
:1065A000002B0AD01378013BDBB213701378002B59
:1065B00003D101211920FEF78BFB3368FF331A7AD0
:1065C000D2061ED510221A72597930320A435A71F6
:1065D00060232B4938000A781A423BD1FFF72CFF81
:1065E0003368FF33002838D08022997952420A4319
:1065F0009A711A7A520604D540221A72597A0A43BD
:106600005A72336800241D8C01239D43EDB201931F
:10661000E1B2002D1DD02B002341019A134215D069
:106620002300326808335B01D318DA79D20702D429
:10663000DB799B0707D5134BA200D058002810D058
:1066400003681B689847019BA3409D430134092CB4
:10665000DED1F7BDFFF776FBC2E720210A4A917130
:10666000C7E73800FFF794FAEDE7C0469D12002017
:10667000A8120020A0120020110E0020100E0020F1
:10668000DC0F0020F40D0020FF50004110B502483F
:10669000FFF754FF10BDC046F00D0020014B024A29
:1066A0001A607047A8120020005000410120704776
:1066B00010B50368014A1B6A984710BD1304000017
:1066C0000300FC33D9699A69914203D0DB69C01891
:1066D000007D704701204042FBE710B504000069CF
:1066E000FEF7E2FC22000023FC329361D361862294
:1066F0009200A4186360A36010BDF02001403039FF
:10670000484248417047F0231B011940802306206E
:106710009B0099420AD00133FF330130994205D0E2
:10672000802302385B00994200D0002070470F2080
:1067300001400020012903D00239481E8141481C34
:10674000704700008923F0B5182685B002919B00A0
:106750000400C05C330008214343324D1700EB189E
:106760005956FEF7F9FA304B0821E05C33004343F9
:10677000EB185956FEF7F0FA2C4BE25C0393022A11
:1067800009D11133E05CFF2805D008214643AE193A
:106790007156FEF7E1FA8A26B600A05DFF2819D0EF
:1067A0000121FEF765FA1822A35D21495A43AB5631
:1067B000AD18DB0158188B21890060501D4901225A
:1067C0005B188C218900635069688A408D2189009B
:1067D00062501A600122029B11002069FEF746FEFA
:1067E00039002000FFF78FFF390005002000FFF778
:1067F0009EFF390006002000FFF77FFF3300009066
:10680000290020690122FEF71FFC0B4B2069E25C86
:10681000039BE15CFEF735FC2069FEF752FC05B0F6
:10682000F0BDC046A8C300002502000027020000FA
:10683000184400411444004126020000802210B593
:1068400004005200002102F05DFD23000022FC3311
:106850005A6020009A6010BDF7B51D0008AB1B7888
:106860000400009309AB1B781600019300234360DA
:10687000FA239B008360114B0F0008330360143030
:10688000FFF7DCFF20001D30FF30FFF7D7FF892323
:106890006A469B002761E654094B1278E554094B80
:1068A0002000E2546A46084B1279E2548A22293BBE
:1068B000FF3B9200A3541032A354FEBD9CC80000BD
:1068C0002502000026020000270200000300FC331E
:1068D00058689B68C01A01D50130FF30704710B569
:1068E000040020001D30FF30FFF7F0FF0028F8D132
:1068F0002069FEF7F0FB10BD10B51430FFF7E6FF7E
:1069000010BD0300FC3359689A68914204DB5A6851
:106910009868801AFF30704798685B68C01A013821
:10692000F9E710B51D30FF30FFF7EBFF10BD10B5D4
:1069300004000069FEF7EBFB002805D02069FEF794
:10694000F6FB2069FEF7E8FB2069FEF7D0FB002884
:1069500020D02069FEF7EBFB2200FC329369D1695D
:106960000133DBB28B4203D09169611808759361E2
:106970008A239B00E35CFF2B0CD020001430FFF730
:10698000C0FF092806DC8B238D229B009200E35870
:10699000A2581A602069FEF7C5FB00281AD0200013
:1069A0001D30FF30FFF792FF002822D086239B0086
:1069B000E31899685A68914218D08E219A68490064
:1069C000A218515C9A680132D2B29A60C9B22069A9
:1069D000FEF7B1FB2069FEF78FFB002805D0206988
:1069E000FEF78EFB2069FEF77EFB10BD01214942B8
:1069F000ECE72069FEF7ABFBECE7000070B50400A4
:106A000000690D00FEF78EFB00283ED1FF2686238D
:106A10009B00E3185A689968013232408A4223D1B8
:106A2000EFF31083DB0710D41E4B5B68DB05DB0D37
:106A3000EDD0103B5BB2002B10DA0F221340083B65
:106A40009B08194A9B009B181B682069FEF76AFB8C
:106A50000028DCD02000FFF76AFFD8E79B08C0338E
:106A6000124A9B009B58F0E75A68013216409A6818
:106A7000964205D08E215A684900A21855545E608E
:106A80002069FEF760FB012070BD20001D30FF3043
:106A9000FFF71CFF0028B9D129002069FEF74BFB46
:106AA000F1E7C04600ED00E01CED00E000E100E091
:106AB000030070B5FC33D9699A69040091421AD079
:106AC000DA698218157DDA690132D2B2DA618A2375
:106AD0009B00E35CFF2B0CD020001430FFF711FF6C
:106AE0000A2806DD8C238D229B009200E358A258D1
:106AF0001A60280070BD01256D42E8E7704700006C
:106B000010B5FDF767FF02F097FBFFF7F7FF0120D5
:106B1000FDF78AFE094C2000FFF75CF82000FFF724
:106B2000D3F8FBF701FBFBF7E9FAFDF79FFE044BF7
:106B3000002BF8D000E000BFF5E7C046F00D0020C4
:106B40000000000010B502F09BFB10BD10B502F074
:106B5000A1FB10BD70B50E0000254468002C0BD0C1
:106B6000236831005B6820009847002802DB2D185D
:106B7000E468F3E701256D42280070BD70B50D0093
:106B80004468002C08D0236829009B68200098479F
:106B9000002802D1E468F4E7200070BD70B50D0054
:106BA0004468002C08D0236829001B6820009847FF
:106BB000002802D1E468F4E7200070BD0121054AF5
:106BC00010B5136804480B4003D1044C43600480A3
:106BD000116010BDAC130020B013002002040000AF
:106BE00070B50400012304CC0500117820000B438C
:106BF000137080220021520002F084FB2B689A78E7
:106C0000D207FCD49A789207F9D45C6270BD000078
:106C10001F22144BF0B51B68590B9C0C9B011140B3
:106C200014405B0F914200D105211F2C00D1023C82
:106C3000072B00D1043B02688F01158D0A491F26DE
:106C400029403943118505683440298D0A00B24333
:106C500022432A8500681903028D044B13400B431D
:106C60000385F0BD246080003FF8FFFFFF8FFFFF2A
:106C700002B4714649084900095C49008E4402BCCF
:106C80007047C046002243088B4274D303098B42ED
:106C90005FD3030A8B4244D3030B8B4228D3030CEC
:106CA0008B420DD3FF22090212BA030C8B4202D38E
:106CB0001212090265D0030B8B4219D300E0090AB6
:106CC000C30B8B4201D3CB03C01A5241830B8B42BF
:106CD00001D38B03C01A5241430B8B4201D34B03A8
:106CE000C01A5241030B8B4201D30B03C01A52410D
:106CF000C30A8B4201D3CB02C01A5241830A8B4292
:106D000001D38B02C01A5241430A8B4201D34B027A
:106D1000C01A5241030A8B4201D30B02C01A5241DE
:106D2000CDD2C3098B4201D3CB01C01A5241830992
:106D30008B4201D38B01C01A524143098B4201D3CC
:106D40004B01C01A524103098B4201D30B01C01AF7
:106D50005241C3088B4201D3CB00C01A5241830871
:106D60008B4201D38B00C01A524143088B4201D39E
:106D70004B00C01A5241411A00D2014652411046FE
:106D80007047FFE701B5002000F0F0F802BDC046F3
:106D90000029F7D076E7704703460B437FD40022E3
:106DA00043088B4274D303098B425FD3030A8B429F
:106DB00044D3030B8B4228D3030C8B420DD3FF2209
:106DC000090212BA030C8B4202D31212090265D0D7
:106DD000030B8B4219D300E0090AC30B8B4201D38A
:106DE000CB03C01A5241830B8B4201D38B03C01AD1
:106DF0005241430B8B4201D34B03C01A5241030B48
:106E00008B4201D30B03C01A5241C30A8B4201D3F8
:106E1000CB02C01A5241830A8B4201D38B02C01AA3
:106E20005241430A8B4201D34B02C01A5241030A1A
:106E30008B4201D30B02C01A5241CDD2C3098B42FF
:106E400001D3CB01C01A524183098B4201D38B017C
:106E5000C01A524143098B4201D34B01C01A52411F
:106E600003098B4201D30B01C01A5241C3088B4264
:106E700001D3CB00C01A524183088B4201D38B004F
:106E8000C01A524143088B4201D34B00C01A5241F1
:106E9000411A00D201465241104670475DE0CA0FC8
:106EA00000D04942031000D34042534000229C4688
:106EB00003098B422DD3030A8B4212D3FC22890192
:106EC00012BA030A8B420CD3890192118B4208D368
:106ED000890192118B4204D389013AD0921100E0CA
:106EE0008909C3098B4201D3CB01C01A52418309DE
:106EF0008B4201D38B01C01A524143098B4201D30B
:106F00004B01C01A524103098B4201D30B01C01A35
:106F10005241C3088B4201D3CB00C01A52418308AF
:106F20008B4201D38B00C01A5241D9D243088B4205
:106F300001D34B00C01A5241411A00D201466346A8
:106F400052415B10104601D34042002B00D549420C
:106F5000704763465B1000D3404201B5002000F04B
:106F600005F802BD0029F8D016E770477047C04603
:106F70008446101C62468C46191C634600E0C046DD
:106F80001FB501F02DFA002801D40021C8421FBD11
:106F900010B501F085F94042013010BD10B501F087
:106FA0001FFA002801DB002010BD012010BDC046E3
:106FB00010B501F015FA002801DD002010BD0120F8
:106FC00010BDC04610B501F0A7F9002801DC002073
:106FD00010BD012010BDC04610B501F09DF900287C
:106FE00001DA002010BD012010BDC0468446081CF7
:106FF0006146FFE71FB500F0C1F8002801D4002169
:10700000C8421FBD10B500F043F84042013010BD2A
:1070100010B500F0B3F8002801DB002010BD0120FE
:1070200010BDC04610B500F0A9F8002801DD002011
:1070300010BD012010BDC04610B500F051F8002869
:1070400001DC002010BD012010BDC04610B500F0CD
:1070500047F8002801DA002010BD012010BDC0460D
:107060009E2110B5C905041CFFF7F0FF002803D1CD
:10707000201C00F097FA10BD9E21201CC90500F0CD
:10708000CDF800F08FFA80231B069C466044F2E79F
:1070900070B542004E024C0045026D0A120EC30F3D
:1070A000760A240EC90FFF2A0FD0FF2C11D0012021
:1070B000A24200D070BDB542FCD18B420DD0002A57
:1070C000F8D12800451EA841F4E70120002DF1D198
:1070D000EBE70120002EEDD1E9E70020EAE7C0460A
:1070E00070B54A004E02450244006D0A240EC30FDB
:1070F000760A120EC90FFF2C15D0FF2A0ED0002CD5
:1071000015D1002A01D1002E1CD0002D14D08B42A5
:1071100027D00220013B1840013870BD002EEED070
:1071200002204042F9E7002DFAD1FF2A0ED0002AB2
:107130000ED1002EEDD00BE0012301399943080058
:107140000130EAE70020002DE7D0E2E7002EE7D18A
:107150008B42DED1944205DD0221581E08400138E1
:10716000DBE70024A24204DCB542D2D80020B542BD
:10717000D3D2581E012398430130CEE730B54200E8
:1071800044024D02C30F4800640A120E6D0A000E3D
:10719000C90FFF2A12D0FF280CD0002A12D10028D4
:1071A00019D1002D17D1002C2BD00220013B184003
:1071B000013826E0002DF0D0022022E0002CFBD187
:1071C000FF281FD000281FD1002D1DD10220013B18
:1071D0001840013815E0002C0ED08B42E5D100227A
:1071E000904204DCAC42E0D80020AC4209D2581EE8
:1071F00001239843013004E0012301399943080039
:10720000013030BD002DD7D18B42CED18242E7DD97
:107210000221581E08400138F3E7C046F8B547463A
:10722000CE464400C20F80B547024802400A844659
:10723000664648007F0A240EF60025009046FB00B3
:10724000000EC90FB146FF2800D185E0012671402C
:10725000261A914257D0002E43DD002800D07FE04F
:107260004946002900D1AAE0013E002E00D0F7E0F7
:107270005B1A5A0100D48BE09B019C09200001F0AD
:107280008FFF05388440854200DDD3E0451B230095
:1072900020200135EB40451BAC40621E9441234346
:1072A000072400251C40012241460A40002C04D03E
:1072B0000F211940042900D00433590100D480E083
:1072C0000135ECB2FF2D00D0A3E0FF2400235B02C8
:1072D000E405580AD207204310430CBC9046994657
:1072E000F8BD002E74D1601CC0B2012800DCA7E0FC
:1072F0004A469C1A620100D5B6E0002CBED100229D
:1073000000240023E3E7002E00DC85E0002846D0BF
:10731000FF2C49D080224846D204104381460122E6
:107320001B2E09DC20204C46801B84404A4620004E
:10733000F240441EA04102439B185A0128D5013552
:10734000FF2D00D1A8E00122072494491A405B08D0
:107350000B4013431C40A6E7002E00D078E775E7EA
:10736000FF2C54D080224946D20411438946012281
:107370001B2E09DC20214846891B88404A46010013
:10738000F240481E81410A439B1A5A0100D573E717
:10739000012241460A40590700D089E711E04846DA
:1073A000002858D1FF2C0CD1DB08002B00D18CE732
:1073B0008020C00303435B025B0AFF2487E7FF2CA6
:1073C00025D0DB08FF2DF0D05B025B0AECB27EE734
:1073D000002C4DD0FF2818D08024E40472422343AF
:1073E0001B2A00DDC4E01C002025D440AA1A9340CB
:1073F0005A1E934123434A460500D31A884638E76C
:10740000721CF8D0F243FF28EAD10A004B46FF2550
:10741000D7E79B015B0A5AE7002E41D1651CE9B210
:10742000012945DDFF2D00D14FE707244B445B08C0
:107430001C4038E707225A4B2D1A2340144032E7EC
:10744000002C1DD1002B7AD14B46002B00D191E0AE
:107450000A000025B5E7013E002E19D14B446CE728
:10746000FF2C84D1FF25ACE74A468846D41A05E7AD
:10747000002BC5D10A00FF28C8D005004B46A0E765
:10748000002B49D14B46002B77D00A00FF2598E707
:10749000FF2C00D043E787E70A00FF24002316E70C
:1074A000002C15D1002B57D1FF28E6D14B467BE7A6
:1074B000002C20D1002B57D04946002953D04B44F3
:1074C0005A0168D50724364A1C4001251340EAE6D4
:1074D000FF28EBD08022D204764213431B2E53DCCC
:1074E0002025AD1B1A00AB40F2405C1EA3411343A4
:1074F0004B44050021E7002BD8D04946002900D194
:1075000052E78021C9030F4200D14DE7604608428F
:1075100000D049E74B4647E74846FF25002800D101
:107520004FE78022D203174204D06046104201D1B7
:107530004B46884601224146FF250A4041E748461E
:1075400000281FD01A1A500120D54A460724D31A02
:107550001C4088460025A6E6741CC9D0F643FF28C7
:10756000BCD14B4620E799464B460025DB082BE76C
:10757000012340E700220023A9E680230022DB0349
:10758000FF24A4E600251CE70123B1E7002AF1D07F
:1075900013000025FCE60025FAE6C046FFFFFF7D4C
:1075A000FFFFFFFB41024200C30F490A120E0020F9
:1075B0007E2A0DD99D2A0CD8802000040143952AEB
:1075C0000ADC9620821AD1404842002B00D10800E4
:1075D0007047034A9818FBE7963A9140F4E7C04693
:1075E000FFFFFF7F70B5041E34D001F0D9FD9E224D
:1075F000121A962A07DCD2B208282EDD08388440F9
:107600006002400A21E0992A09DD030021001B33B2
:1076100099404B1E994105231B1ADC400C43052859
:1076200001DD431F9C4023000D490B40650709D035
:107630000F252C40042C05D004335C0102D59F2279
:107640000B40121A9B01580AD2B24002D205400ADE
:10765000104370BD00220020F7E76002400AF4E703
:10766000FFFFFFFBF0B54F464646D6460C00090328
:10767000C0B5490A470F5E0039431F03DB0F9C4624
:1076800065007B0A570F1F436D0DE40F760DA14671
:10769000C000B846D200AB1B64457BD0002B5FDD39
:1076A000002E00D0A4E03E00164300D112E15E1E81
:1076B000002E00D09EE1871A4346B8428041012542
:1076C000C91A4042091A0B0200D431E149024E0A9C
:1076D000002E00D16EE1300001F062FD0300083B96
:1076E0001F2B00DD61E120223900D21A9E40D140DB
:1076F0009F400E439D4200DD51E15D1B6B1C1F2B23
:1077000000DD7CE12021C91A3D0030008F40884017
:10771000DD40791E8F41310007222843D9400025E2
:1077200007433A40002A09D00F233B40042B05D0E1
:107730003B1DBB42BF417F42C9191F000B0200D451
:1077400026E26A1CC64B55056D0D9A4200D106E132
:10775000C44AFF080A40530752023B43120B8EE013
:10776000002B00D0B8E06B1C5B055B0D012B00DC2F
:1077700030E1871A4346B842B641CB1A76429E1B87
:10778000330200D54CE13B003343A1D10022002459
:10779000002570E0002B00DCE5E0002E00D183E046
:1077A000AF4EB54260D0802636043743B846382BFA
:1077B00000DC3EE1434613431F007A1E97413F1809
:1077C00087428041404209180B0200D4B0E0A44B2C
:1077D00001359D4200D1C3E0A24A7B080A40012145
:1077E0000F401F435108D30707221F433A4099E730
:1077F0009B4EB54238D0802636043743B846382BE6
:1078000000DDDCE01F2B00DC30E11E004746203E9F
:10781000F740BC46202B04D04026F31A46469E4033
:107820003243170063467A1E97411F43CCE0002B7A
:1078300000D104E24346134300D159E14B07C0088D
:1078400018438023C9081B03194208D04546ED0898
:107850001D4204D14346D008590708432900420F6E
:10786000C9007F4D1143C0004B07CA087C49C008BE
:1078700003438D4268D012036D05120B6D0D00217C
:1078800012031800130B0A0D12051A43764B2D052F
:1078900013402B435B00E4075B08234319001CBC27
:1078A00090469946A246F0BD3E00164312D05E1E99
:1078B000002E00D000E187188742804141444042B9
:1078C000091801250B0233D5022585E764463300EC
:1078D000414610001D00C7E7002D00D0DAE00C0083
:1078E0000443F3D05C1C00D19FE15D4CA64200D163
:1078F0002FE1DB43382B00DD66E11F2B00DD83E148
:1079000020240500E41A0F00DD40D940A040434682
:10791000A7405B1A441EA04198462F433843171ACC
:10792000BA42924143465242991A64463500CAE629
:1079300007223A40002A00D0F6E64B07CA08484919
:10794000FF083B438D4296D11900114300D19EE1BF
:10795000802109030A431203120B414D8FE71500E2
:10796000002200238BE7002B00D0C7E06B1C5F05D3
:107970007F0D012F00DCF1E0394DAB4200D1B9E0C1
:1079800085180A008542894142444942511807221C
:10799000CF076D082F4349083A401D00C2E6072271
:1079A0003049ED1A31403A40BCE63E002838864066
:1079B00000279FE6380001F0F3FB20308EE64346B7
:1079C00013431F007A1E9741C71BB84280414042B3
:1079D000091A78E60E003B0006431343002D61D1DF
:1079E000002E00D0F4E0002B00D11BE164463900EA
:1079F000100039E71A4FBB427AD03300FFE630005F
:107A00001F3DE840202B03D04021CB1A9E40374336
:107A10007B1E9F41072207433A400021002589E74A
:107A2000171A4346BA42B641591A76428E1B64462B
:107A30004EE61F2B00DDADE020264746F61AB74084
:107A4000B9461700B246DF404E463E433700564621
:107A5000B240561EB24117434246DA408918AEE69C
:107A6000FF070000FFFF7FFFFFFF0F802026474634
:107A7000F61AB740B9461700B246DF404E463E43BD
:107A800037005646B240561EB24117434246DA40CE
:107A9000891A99E77F4CA6425BD0802424045B427C
:107AA000214327E7002E0CD1002B00D1CBE0644608
:107AB00039001000774DD7E6764FBB4218D033001F
:107AC00075E6002B14D04B07C00818438023C90863
:107AD0001B03194207D0FC081C4204D17907D008C7
