:02000002D0002C
:1040000000400D0088550D00000006000D00050160
:084010000401DE0500000000C0
:04401800D0510D0076
:10401C0009480A49884208B505D0094A824202D0AB
:10402C00121A01F08BF80748074A0021121A01F006
:10403C0090F8014808BD00BF5CE20320F4540D0069
:10404C00C8E20320C8E20320F0E7032070B500F0BB
:10405C00C5FB074C074BE41AA40800251E46A542D5
:10406C0004D056F8253098470135F8E770BD00BFED
:10407C00E4540D00A8540D0000F013B808B500F07E
:10408C001BF8BDE8084000F06BBB00F02DBA00F047
:10409C002BBA0078B0FA80F0400970470123037006
:1040AC00704708B500F0B4F800F098FC4FF4E1311B
:1040BC00BDE8084000F086BC2DE9F8431D4B1E4CB2
:1040CC0018782568C31D23F0070300AFADEB030D73
:1040DC0069460023834205DADA0005FA02F2CA5473
:1040EC000133F7E7012000F04DF800F093F8DFF80A
:1040FC004C90DFF84C80002599F800309D4209DA8D
:10410C0015F8086000F06AFC1022314600F0B7FA8E
:10411C000135F1E700F062FC00F09BFA4FF47A7085
:10412C0000F0E0FA00F060F8236801332360BD462C
:10413C00BDE8F8835CE20320CCE203205DE20320BF
:10414C00D0E2032008B500F08BF800210120BDE877
:10415C00084000F04DB9000070B5084A084D0C46F7
:10416C00631A984208DD137814F8016BEE54137837
:10417C000133DBB21370F3E770BD00BF5DE20320C7
:10418C00D0E2032038B5012804BF134B1C78134B25
:10419C000CBF02460024187804F10205284418BF0D
:1041AC00FF22FF2811DC1D780D4842551A78013288
:1041BC00D2B21A701A7884541A780132D2B21A70A8
:1041CC002046BDE83840FFF7C7BF00F007FC0549A3
:1041DC00BDE8384000F049BA5CE203205DE2032000
:1041EC00D0E20320E4510D00074A1346FE2103F8E8
:1041FC00011B0A44002103F8011F9342FBD1034B1E
:10420C0002221A70704700BFD0E203205DE2032047
:10421C00FFF7EABF074B08491A780132D2B21A707D
:10422C001A78FE2088541A780132D2B21A701B7890
:10423C004B7070475DE20320D0E2032000F010B811
:10424C0008B5024B1B689B68019308BD680203000C
:10425C0008B5024B1B68DB68019308BD68020300BC
:10426C0008B5024B1B681B68019308BD2C020300A8
:10427C0008B5024B1B685B68019308BD180203006C
:10428C0008B5024B1B685B69019308BD180203005B
:10429C0008B5024B1B689B68019308BD48020300DC
:1042AC0008B5024B1B681B69019308BD480203004B
:1042BC0008B5024B1B685B69019308BD48020300FB
:1042CC0008B5024B1B685B6C019308BD48020300E8
:1042DC0008B5024B1B689B6C019308BD4802030098
:1042EC0008B5024B1B685B69019308BD64020300AF
:1042FC0008B5024B1B681B68019308BD3C02030008
:10430C0008B5024B1B68DB68019308BD3C02030037
:10431C0008B5024B1B681B69019308BD3C020300E6
:10432C0008B5024B1B685B69019308BD3C02030096
:10433C0008B5024B1B689B69019308BD3C02030046
:10434C0008B5024B1B68DB69019308BD3C020300F6
:10435C0008B5024B1B689B6A019308BD3C02030025
:10436C0008B5024B1B681B68019308BD4C02030087
:10437C0008B5024B1B685B68019308BD4C02030037
:10438C0008B5024B1B681B69019308BD4C02030066
:10439C0008B5024B1B685B69019308BD4C02030016
:1043AC0008B5024B1B689B69019308BD4C020300C6
:1043BC0008B5024B1B68DB69019308BD4C02030076
:1043CC0008B5024B1B681B6A019308BD4C02030025
:1043DC0008B5024B1B685B68019308BD2002030003
:1043EC0008B5024B1B685B69019308BD20020300F2
:1043FC0008B5024B1B68DB6A019308BD2002030061
:10440C0008B5034B1B68D3F88830019308BD000036
:10441C002002030008B5034B1B68D3F894300193BA
:10442C0008BD00002002030008B5024B1B685B6846
:10443C00019308BD4002030008B5024B1B689B6842
:10444C00019308BD4002030008B5024B1B68DB68F2
:10445C00019308BD4002030008B5024B1B681B69A1
:10446C00019308BD4002030008B5024B1B685B6951
:10447C00019308BD4002030008B5024B1B689B6901
:10448C00019308BD4002030008B5024B1B68DB69B1
:10449C00019308BD4002030008B5024B1B681B6A60
:1044AC00019308BD4002030008B5024B1B681B6B4F
:1044BC00019308BD4002030008B5024B1B685B6BFF
:1044CC00019308BD4002030008B5024B1B68DB6B6F
:1044DC00019308BD4402030008B5024B1B681B681E
:1044EC00019308BD1C02030008B5024B1B685B68F6
:1044FC00019308BD1C020300002211464068FFF71F
:10450C00CBBF002211464068FFF7D6BF002240689F
:10451C00FFF7CABF002281F001014068FFF7B4BF6A
:10452C0000231A4619464068FFF7A6BF00231A4617
:10453C0019464068FFF798BF002211464068FFF704
:10454C008BBF002211464068FFF776BF0022022184
:10455C004068FFF779BF00231A464068FFF764BF35
:10456C00024B03225A60024A1A607047D0E30320C0
:10457C00FC510D0010B50446006818B1FFF7B4FFEC
:10458C000023236010BD10B50446FFF7F3FF20464F
:10459C0010BD000010B5094C00204FF6FF732060D1
:1045AC00A080A07120816381FFF712FF2046044A8E
:1045BC000449BDE8104000F063BC00BFD8E3032001
:1045CC00C8E2032093450D0010B50446006808B1FD
:1045DC00FFF77EFE204610BD10B5064C002320468A
:1045EC002360FFF76DFE2046034A0449BDE81040E6
:1045FC0000F046BCE4E30320C8E20320D5450D00DF
:10460C00F8B506460D468F180024BD420CD0336811
:10461C0015F8011B9B6830469847002801DB0444C1
:10462C00F3E7002C08BF04462046F8BD70B50546DC
:10463C000C46084649B100F0BDFD2B6802462146E8
:10464C002846DB68BDE87040184770BD03689B685E
:10465C00184738B50D210546FFF7F8FF0A21044627
:10466C002846FFF7F3FF204438BD38B50546FFF761
:10467C00DDFF04462846FFF7ECFF204438BD30B57B
:10468C008BB00B4600218DF82410012A98BF0A220A
:10469C000DF12304B3FBF2F505FB123303F0FF031A
:1046AC00092B94BF30333733DBB2214604F8013980
:1046BC002B46002DEED1FFF7B9FF0BB030BD00003B
:1046CC00014B024A1A607047E8E303209B520D002D
:1046DC00024B1A68024B1A60704700BF60E203205D
:1046EC00ECE303200021FFF77BBE10B58368044682
:1046FC0013B1032201469847204610BD10B504465D
:10470C00FFF7F3FF204610BD0348044A0449002379
:10471C00836000F0B5BB00BFF0E30320C8E20320C8
:10472C0009470D0008B50C4B33B100F057F903687D
:10473C001B699847002809DC084B63B100F018FA94
:10474C0003681B699847002803DC08BDAFF30080A1
:10475C00F2E7AFF3008008BD00000000000000008D
:10476C0008B5FFF7DFFFFFF78BFD014B186008BDA5
:10477C004CE703200248034A0349121A00F0DEBC3E
:10478C0000F4032004F40320F0540D0007B50023BB
:10479C0000931A466FF07701FFF73CFE03B05DF80B
:1047AC0004FB000007B543880A2B08D0502B09D115
:1047BC00094B1B683BB103B05DF804EB1847FFF7DE
:1047CC00E5FF06E0002300931A466FF07701FFF730
:1047DC0021FE03B05DF804FB00E4032038B5104C57
:1047EC00104D2368AB42104B0CBF012200221A70F3
:1047FC0002D0FFF7BFFF2560FFF73AFD044600F03B
:10480C00B1FC0A4B13B12046AFF3008000210748DE
:10481C00FFF75AFE00210648BDE83840FFF7F0BD0F
:10482C0000F403201E1C279A04E40320000000005F
:10483C00B1470D00704710B51821044600F025FB58
:10484C00204610BDF0B5037D062B8DB00E4600F151
:10485C0004074FF0000402D000F1080518E00CAD7D
:10486C00394605F8304D2F232A460A20FFF738FD2C
:10487C00284600F09FFC33680246DB682946304628
:10488C0098470FE024B12E213046FFF7DFFE044499
:10489C0015F8011D0A223046FFF7F1FEBD42044413
:1048AC00F0D120460DB0F0BD10B5054B04461122D9
:1048BC0040F8043B002100F04CFC204610BD00BF2A
:1048CC003C530D000346074A10B543F8042B01F185
:1048DC00100251F8044B43F8044B9142F9D10A7879
:1048EC001A7010BD3C530D0010B59DF8084044EAF9
:1048FC00032343EA024242EA016104234160037547
:10490C0010BD37B50D788B784A78C9780091294657
:10491C00FFF7EAFF03B030BD41747047704708B52C
:10492C000021007CFFF73CFD30EA200028BF4FF04F
:10493C00FF3008BD08B50121007CFFF731FD30EADE
:10494C00200028BF4FF0FF3008BD08B5007CFFF7F2
:10495C001FFD20EAE07008BD08B5007CFFF710FDD4
:10496C0020EAE07008BD007CFFF72ABD10B51421C9
:10497C00044600F08AFA204610BD38B50446007C87
:10498C000D46FFF705FD002801DC607C28B12946A7
:10499C00207CFFF70DFD20EAE07038BD10B5044611
:1049AC00002363604FF47A73A360054B23600123EB
:1049BC000846217463741146FFF7D2FC204610BDE3
:1049CC0050530D000022007CFFF7D2BC10B514220E
:1049DC000446002100F0BDFB204610BD30B50E4D45
:1049EC0087B001A8FFF7F2FF296811F0010410D17C
:1049FC002846FFF74EFB60B101AA21460748FFF796
:104A0C00CDFF2846FFF74AFB054A0649034800F04C
:104A1C0037FA024807B030BD08E403200CE4032049
:104A2C00C8E2032029490D00002211464068FFF717
:104A3C0013BD002211464068FFF72EBD002211461F
:104A4C004068FFF739BD00224068FFF72DBD0022FA
:104A5C0081F001014068FFF717BD00231A46194683
:104A6C004068FFF709BD00231A4619464068FFF756
:104A7C00FBBC002211464068FFF7DEBC002202217D
:104A8C004068FFF7E1BC00231A464068FFF7CCBC36
:104A9C0038B5084C28252A460021204600F059FB41
:104AAC004FF0FF336360044B258004225A60034AA5
:104ABC001A6038BD28E4032020E4032080530D0045
:104ACC0070474174704708B5007CFFF741FC20EA41
:104ADC00E07008BD08B5007CFFF71AFC20EAE07016
:104AEC0008BD08B5007CFFF723FC30EA200028BF86
:104AFC004FF0FF3008BD08B5007CFFF711FC30EA21
:104B0C00200028BF4FF0FF3008BD007CFFF718BC19
:104B1C0010B51421044600F0B8F9204610BD70B54C
:104B2C00457C04460E4625B9007CFFF711FC002895
:104B3C0005DD3146207CBDE87040FFF7E1BB28461F
:104B4C0070BD000010B50446084611460022626094
:104B5C004FF47A72A260054A2260012220746274BA
:104B6C001A46FFF7C5FB204610BD00BFB4530D001D
:104B7C0038B50C4D296811F0010411D12846FFF706
:104B8C0088FA68B1084A094B09482146FFF7DAFF51
:104B9C002846FFF783FA074A0749054800F070F9E1
:104BAC00034838BDE8E40320ECE4032064E403206C
:104BBC0050E40320C8E20320CD4A0D000022114628
:104BCC004068FFF769BC002211464068FFF774BCCF
:104BDC0000224068FFF768BC002281F001014068A8
:104BEC00FFF752BC00231A4601214068FFF744BC72
:104BFC0000231A4619464068FFF736BC00221146BE
:104C0C004068FFF729BC002211464068FFF714BC2E
:104C1C00002202214068FFF717BC00231A464068A7
:104C2C00FFF702BC38B5054688B104684CB1A368DF
:104C3C001BB103222146204698471021204600F044
:104C4C0024F928461421BDE8384000F01EB938BDBF
:104C5C0010B103685B681847704710B503680446C9
:104C6C00BBB15868FFF714FB78B923685A7C12B9AA
:104C7C005868FFF715FB23685868FFF719FB206885
:104C8C000023236028B1FFF7CDFF206808B1FFF7A0
:104C9C00C9FF204610BD38B50446D0F8C40108B190
:104CAC00FFF7F5F9D4F8C00108B1FFF711FBD4F800
:104CBC00BC5135B12846FFF7D0FF0421284600F03F
:104CCC00E4F8206808B1FFF7C3FF204638BD0000A8
:104CDC0010B5044B044640F8083BFFF7DCFF2046B8
:104CEC0010BD00BFE4530D0038B50E4C0E4B2360C5
:104CFC000025022304F5E4706360A560C4F8C45178
:104D0C00C4F8C851FFF7DCFA084BC4F8CC5184F84E
:104D1C00D05123602046064A0649BDE8384000F0D1
:104D2C00AFB800BF70E5032018540D00E4530D001C
:104D3C00C8E20320DD4C0D0000231A464068FFF743
:104D4C0073BB002202214068FFF77EBB0022114694
:104D5C004068FFF771BB002211464068FFF77CBB2F
:104D6C0000231A4619464068FFF77EBB00231A46FB
:104D7C0019464068FFF780BB002281F001014068B2
:104D8C00FFF782BB00224068FFF78EBB0022114662
:104D9C004068FFF791BB002211464068FFF77CBBCF
:104DAC002DE9F043002495B016460D460746FFF753
:104DBC007BFD214620220CA8009400F0CAF9402368
:104DCC000C9321466B460CAA3046FFF741FA044679
:104DDC00002844D1024601216868FFF73DFB0221FF
:104DEC00804622466868FFF737FB009E81462146C5
:104DFC00002E34D0002932D17368022B02D00A2B3A
:104E0C0009D02AE0B8F1000F27D071693846043177
:104E1C00FFF777FD20E0B9F1000F1ED07469112265
:104E2C0001A800F096F906238DF8143001AD04F1B9
:104E3C0008031834186859682A4603C20833A34279
:104E4C001546F7D101A906A807ADFFF73BFD0FCD1D
:104E5C003C1D0FC42B6823700121F669C8E700982C
:104E6C00FFF7EEF9384615B0BDE8F083024B034A64
:104E7C001A6000225A60704744E7032018540D0052
:104E8C000B460146184600F04BB9FFF7FEB8000080
:104E9C00184B1A68D1075CBF01221A60164B1A68AE
:104EAC00D2075CBF01221A60144B1A68D0075CBF92
:104EBC0001221A60124B1A68D1075CBF01221A60DA
:104ECC00104B1A68D2075CBF01221A600E4B1A688D
:104EDC00D0075CBF01221A600C4B1A68D1075CBF6B
:104EEC0001221A600A4B1A68D2075CBF01221A60B1
:104EFC00704700BF6CE7032068E7032064E70320DA
:104F0C0060E703205CE7032058E7032054E7032005
:104F1C0050E70320244B1A68D0075CBF01221A60AB
:104F2C00224B1A68D1075CBF01221A60204B1A6809
:104F3C00D2075CBF01221A601E4B1A68D0075CBFF7
:104F4C0001221A601C4B1A68D1075CBF01221A603F
:104F5C001A4B1A68D2075CBF01221A60184B1A68E8
:104F6C00D0075CBF01221A60164B1A68D1075CBFD0
:104F7C0001221A60144B1A68D2075CBF01221A6016
:104F8C00124B1A68D0075CBF01221A60104B1A68CA
:104F9C00D1075CBF01221A600E4B1A68D2075CBFA6
:104FAC0001221A60704700BF9CE7032098E703209A
:104FBC0094E7032090E703208CE7032088E7032085
:104FCC0084E7032080E703207CE7032078E70320B5
:104FDC0074E7032070E70320244B1A68D0075CBFEA
:104FEC0001221A60224B1A68D1075CBF01221A6099
:104FFC00204B1A68D2075CBF01221A601E4B1A683C
:10500C00D0075CBF01221A601C4B1A68D1075CBF29
:10501C0001221A601A4B1A68D2075CBF01221A606F
:10502C00184B1A68D0075CBF01221A60164B1A681D
:10503C00D1075CBF01221A60144B1A68D2075CBFFF
:10504C0001221A60124B1A68D0075CBF01221A6049
:10505C00104B1A68D1075CBF01221A600E4B1A68FC
:10506C00D2075CBF01221A60704700BFCCE7032057
:10507C00C8E70320C4E70320C0E70320BCE70320F4
:10508C00B8E70320B4E70320B0E70320ACE7032024
:10509C00A8E70320A4E70320A0E70320184B1A6815
:1050AC00D1075CBF01221A60164B1A68D2075CBF8D
:1050BC0001221A60144B1A68D0075CBF01221A60D7
:1050CC00124B1A68D1075CBF01221A60104B1A6888
:1050DC00D2075CBF01221A600E4B1A68D0075CBF66
:1050EC0001221A600C4B1A68D1075CBF01221A60AE
:1050FC000A4B1A68D2075CBF01221A60704700BFC6
:10510C00ECE70320E8E70320E4E70320E0E70320D3
:10511C00DCE70320D8E70320D4E70320D0E7032003
:10512C0010B5054C13462CB10A4601460220AFF3CC
:10513C00008010BD204610BD0000000010B5431EBD
:10514C000A44914204D011F8014B03F8014FF8E7DF
:10515C0010BD02440346934202D003F8011BFAE748
:10516C007047000038B5124B1C68A36B0546D3B9C9
:10517C001820FFF7B1F943F20E33A06303804AF60F
:10518C00CD33438041F2342383804EF26D63C38070
:10519C004DF6EC630381052343810B2383810122AC
:1051AC000023C0E90423A36B00221D615A6138BDA2
:1051BC00C4E20320034613F8012B002AFBD1181A72
:1051CC00013870471D400D0059400D0085400D0001
:1051DC0089400D00000000005468697320686170FC
:1051EC0070656E65640000000000000000000000A7
:1051FC0063450D0059450D004F450D0045450D000B
:10520C0039450D002D450D0021450D0019450D00AA
:10521C000F450D0005450D00AD4D0D006261756427
:10522C000053657269616C0053657269616C310081
:10523C007479706500706172616D00636D640069F2
:10524C006400686E64007374726D0066696C74003F
:10525C006C766C0061646448616E646C657200729B
:10526C00656D6F766548616E646C657200656E7510
:10527C006D48616E646C657273004A534F4E537483
:10528C007265616D4C6F6748616E646C657200612C
:10529C00707000253031307520005D2000256400D1
:1052AC002C200028293A2000205B00636F646520C5
:1052BC003D200025690064657461696C73203D2094
:1052CC00000D0A0066006C6E00666E00636F64650C
:1052DC000064657461696C006E6F6E650074726158
:1052EC00636500696E666F007761726E006572723D
:1052FC006F720070616E696300616C6C005A0025FE
:10530C002B3033643A253032750025592D256D2DFF
:10531C0025645425483A254D3A2553257A00617366
:10532C006374696D6500000000000000000000005F
:10533C0051480D0041480D0043480D00000000008D
:10534C000000000029490D0079490D0087490D0026
:10535C000D460D0065490D002B490D0041490D000E
:10536C0073490D0057490D0025490D000000000040
:10537C0000000000934A0D00894A0D007F4A0D0081
:10538C00354A0D00734A0D00674A0D005B4A0D004B
:10539C00534A0D00494A0D003F4A0D00AD4D0D001A
:1053AC000000000000000000CD4A0D001D4B0D0058
:1053BC002B4B0D000D460D00E14A0D00034B0D006B
:1053CC00EF4A0D00174B0D00CF4A0D00D34A0D00CC
:1053DC000000000000000000274C0D001D4C0D00CB
:1053EC00134C0D00094C0D00FD4B0D00F14B0D0045
:1053FC00E54B0D00DD4B0D00D34B0D00C94B0D00E3
:10540C00AD4D0D000000000000000000454D0D00EA
:10541C004F4D0D00594D0D00634D0D006D4D0D00A0
:10542C00794D0D00854D0D00914D0D00994D0D00E0
:10543C00A34D0D00AD4D0D0000000000000000005C
:10544C000000000000000000000000000000000050
:10545C000000000000000000000000000000000040
:10546C000000000000000000000000000000000030
:10547C000000000000000000000000000000000020
:10548C000000000000000000000000000000000010
:10549C0000000000000000004300000051410D001E
:1054AC0049420D006D450D00A1450D00E5450D006F
:1054BC00CD460D00DD460D0015470D009D4A0D0033
:1054CC00F54C0D00794E0D009D4E0D00214F0D0039
:1054DC00E54F0D00A9500D00000000000000000079
:0454EC0000000000BC
:0454F00000000000B8
:1054F400040200002A530D000000000044540D0073
:1055040064540D0084540D000000000000000000ED
:105514000000000000000000A4540D000000000082
:105524000000000000000000000000000000000077
:105534000000000000000000000000000000000067
:105544000000000000000000000000000000000057
:0C555400000000000000000064E20320E2
:10556000FFFFFFFF00000102030405060708090A08
:105570000B0C0D0E0F101112131415161718191A03
:085580001B1C1D1E1F2028004A
:04558800785634120B
:04000003D000401CCD
:00000001FF
