:02000002D0002C
:1040000000400D000CA00D00000006000D00050191
:084010000401E80500000000B6
:04401800A0970D0060
:10401C0009480A49884208B505D0094A824202D0AB
:10402C00121A05F073FB0748074A0021121A05F013
:10403C0078FB014808BD00BF60DA0320F49E0D0038
:10404C0050DB032050DB0320F0E7032070B503F0B6
:10405C00CBFD074C074BE41AA40800251E46A542CD
:10406C0004D056F8253098470135F8E770BD00BFED
:10407C00E89E0D00449E0D0000F03CBA08B500F01F
:10408C003BFABDE8084003F071BD03F001B903F041
:10409C00FFB803F005B903F003B90078B0FA80F06B
:1040AC004009704701230370704700002DE9F84F59
:1040BC00A84FDFF8B082DFF8B09205468B469246E7
:1040CC00D34580F0918105EB0B030BF102045E7874
:1040DC0015F80B30013BE4B2392B00F27F81DFE89D
:1040EC0013F03A00520063004400740086007D0116
:1040FC007D017D017D017D017D017D017D017D01C4
:10410C009400A800BC00D000E400F80015011E01CA
:10411C0030014E0160017D017D017D017D017D013C
:10412C007D017D017D017D017D017D017D017D0193
:10413C007D017D017D017D017D017D017D017D0183
:10414C009E00B200C600DA00EE0002010C0127014D
:10415C00450157016F01012E40F049812B5D032B66
:10416C0000F23C8188F8013038E10C2E40F03F81A0
:10417C002C44794B2068616803C3A0681860774BA6
:10418C0001221A702AE1042E40F0318129192A5D8E
:10419C004B781B0403EB0263CA7813448A7803EB55
:1041AC000223C8F8043019E1042E40F020812919AB
:1041BC002A5D4B781B0403EB0263CA7813448A789C
:1041CC0003EB0223C8F8083008E11F2E00F20F8120
:1041DC0020220021624805F0A4FA324629196048D1
:1041EC0005F094FA08EB060300221A7609E0022E79
:1041FC0040F0FD802B192A5D5B7803EB0223A8F8B5
:10420C003830012389F80030E8E0022E40F0EF80CE
:10421C002B192A5D5B7803EB02237B80DEE0022EF8
:10422C0040F0E5802B192A5D5B7803EB0223BB83FE
:10423C00D4E0022E40F0DB802B192A5D5B7803EB77
:10424C000223BB80CAE0022E40F0D1802B192A5DDC
:10425C005B7803EB0223FB83C0E0022E40F0C780A7
:10426C002B192A5D5B7803EB0223FB80B6E0022E50
:10427C0040F0BD802B192A5D5B7803EB02233B8455
:10428C00ACE0022E40F0B3802B192A5D5B7803EB77
:10429C0002233B81A2E0022E40F0A9802B192A5D5B
:1042AC005B7803EB02237B8498E0022E40F09F8026
:1042BC002B192A5D5B7803EB02237B818EE0022EA7
:1042CC0040F095802B192A5D5B7803EB0223BB84AD
:1042DC0084E0022E40F08B802B192A5D5B7803EB77
:1042EC000223BB817AE0022E40F081802B192A5DDB
:1042FC005B7803EB0223FB8470E0022E77D12B1941
:10430C002A5D5B7803EB02233B8567E0022E6ED1BE
:10431C002B192A5D5B7803EB0223FB815EE0022EF6
:10432C0065D12B192A5D5B7803EB02233B8255E0A8
:10433C00022E5CD12B192A5D5B7803EB02237B8563
:10434C004CE0022E53D12B192A5D5B7803EB022330
:10435C007B8243E080E603204CE6032054DB032001
:10436C0058E6032040E6032060DA0320022E3ED1FB
:10437C002B192A5D5B7803EB0223BB852EE0022E02
:10438C0035D12B192A5D5B7803EB0223BB8225E028
:10439C00022E2CD12B192A5D5B7803EB0223FB85B3
:1043AC001CE0042E23D129192A5D4B781B0403EB46
:1043BC000263CA7813448A7803EB0223BB610DE0D5
:1043CC00042E14D129192A5D4B781B0403EB0263CC
:1043DC00CA7813448A7803EB02233B63B31C0BEBC0
:1043EC0003065FFA86FB6BE60120BDE8F88F002020
:1043FC00BDE8F88F10B5421C0023C9B2141AA142B3
:10440C0003DD12F8014B2344F8E7D8B210BD0000CD
:10441C00F8B5324C3C220021204605F082F9304A96
:10442C004FF4E1631068516863604FF41673A36036
:10443C0004F10C0303C3906818602A4B04F11802B2
:10444C0003F1100618685968154603C50833B342C2
:10445C002A46F7D11B882B803C2140F25B731F4806
:10446C002387FFF7C7FF20701F4C1C4E1F4F3422B1
:10447C000021204605F055F9FF2334212046A38363
:10448C00E38323846384A384E38423856385A385E6
:10449C00E3852363FFF7AEFF20700FCE3D460FC5BB
:1044AC000FCE0FC50FCE0FC596E8070085E80700A5
:1044BC000FCC0F4E35460FC50FCC0FC50FCC0FC50B
:1044CC0023682B603C213846FFF794FF3421387069
:1044DC003046FFF78FFF3070F8BD00BFB4E6032005
:1044EC0073DA032061DA032008E6032040E6032098
:1044FC0080E6032000F00CB800F082BA08B502F098
:10450C0093FB00210120BDE8084002F025BE00000D
:10451C0008B503F089FC4FF4964103F079FC03F0E5
:10452C0083FC064903F033F900F096FD00F062FBC2
:10453C0000F0F6FDBDE8084000F074BAB4970D0029
:10454C000B46452170B5C154591C0246C9B25520C1
:10455C0050540A4C9D1C03CCEDB25619505171604D
:10456C0007492068B0600878441C0C7003F10E01F8
:10457C00C9B2505403F10F00C0B270BD4CE6032019
:10458C0055DB03202DE9F8430C4605469946904629
:10459C0000F05AFD074600F059FDFE232B55A31CD5
:1045AC00DBB20222EA54E31CDBB20422EA54A31865
:1045BC00DBB2390AEF54631DDBB210EE106AE9541A
:1045CC00A31DDBB2390CE954E31DDBB23F0EEF54F3
:1045DC0004F10803DBB20D21E95404F10903DBB249
:1045EC00310AEA5404F10A03DBB204F11700EE5469
:1045FC0004F10B03DBB2C0B2E95404F10C03DBB2DF
:10460C00310CE95404F10D03DBB2360EEE5404F117
:10461C000E03DBB20F21E9546318DBB20121E9541C
:10462C001A4B197804F11003DBB209EB0006E954BC
:10463C0004F11103DBB20721E95404F11203DBB2DC
:10464C0004F11601EA5404F11303DBB26122EA54BB
:10465C0004F11403DBB2AC22EA5404F11503DBB20F
:10466C00BC22C9B2EA54FD2E4FF000036B5405DC9A
:10467C004A464146284405F049F8F0B22544C4F1B5
:10468C00FE0404446C70BDE8F88300BF7CE6032094
:10469C0070B590B03D21684600F094FD05460028A9
:1046AC003BD01F4CFF220021204605F03AF83C235A
:1046BC0023704522552302212046FFF741FF2B464C
:1046CC0001466A462046FFF75DFF451C3E23EDB2CE
:1046DC002354657003F0A8FB124903F045F86B1ED8
:1046EC00661E1C44A6420FD016F8013F0F2B04D8AF
:1046FC0003F09AFB0C4903F037F803F095FB1022FA
:10470C00317803F04EF8EDE703F08EFB074903F028
:10471C002BF82946024800F0EBF910B070BD00BF31
:10472C00F1E60320D8970D00BA970D00BC970D0049
:10473C00F7B5264B1D78012D1F4644D1244CFF2282
:10474C000021204604F0EDFFFD238DF804303C23BE
:10475C00237045225523022120468DF805508DF8F3
:10476C000650FFF7EDFE01AA014603232046FFF792
:10477C0009FF451C3E23EDB22354657003F054FB36
:10478C00144902F0F1FF6B1E661E1C44A6420FD0AA
:10479C0016F8013F0F2B04D803F046FB0E4902F02C
:1047AC00E3FF03F041FB1022317802F0FAFFEDE752
:1047BC0003F03AFB094902F0D7FF2946044800F000
:1047CC0097F900233B7003B0F0BD00BF7FDA0320E4
:1047DC00F1E60320D8970D00BA970D00BC970D0099
:1047EC0070B50D46064603F01FFB03681B6998471E
:1047FC00C4B20CB9002419E0AC420CD8354603F015
:10480C0013FB03685B69984705F8010BAB1BDBB224
:10481C009C42F4D80AE0002503F006FB036801353E
:10482C005B699847EBB29C42F6D8E3E7204670BD33
:10483C00F8B5634CFF220021204604F072FFFF21E3
:10484C002046FFF7CDFF0646002800F0B88003F0A5
:10485C00EBFA5C4902F088FF771E651E2744AF42D5
:10486C000FD015F8013F0F2B04D803F0DDFA564991
:10487C0002F07AFF03F0D8FA1022297802F091FFA7
:10488C00EDE703F0D1FA514902F06EFF2378102BBB
:10489C0040F09580324602214948FFF707FC012879
:1048AC0040F086804A4C3C212046FFF7A3FD207047
:1048BC0003F0BAFA474902F057FF03F0B5FA0A229F
:1048CC006178054602F06DFF284602F054FF03F0B4
:1048DC00ABFA414902F048FF03F0A6FA0A226168DC
:1048EC00054602F05EFF284602F045FF03F09CFAF5
:1048FC003A4902F039FF03F097FA0A22A1680546FB
:10490C0002F04FFF284602F036FF03F08DFA3449CF
:10491C0002F02AFF04F10B0504F1170615F8013F0C
:10492C000F2B04D803F080FA274902F01DFF03F087
:10493C007BFA1022297802F034FFB542EED103F055
:10494C0073FA284D284902F00FFF03F06DFA27493E
:10495C0002F00AFF03F068FA294602F018FF03F090
:10496C0063FA234902F000FF03F05EFA0A22218F5A
:10497C00064602F016FF304602F0FDFE03F054FA34
:10498C001C4902F0F1FE03F04FFA0A2215F8181C2C
:10499C00044602F006FF204602F0EDFEA5F11800D9
:1049AC0000F05AF901280AD103F03EFA124902E04C
:1049BC0003F03AFA1149BDE8F84002F0E8BEF8BD40
:1049CC00F1E60320BF970D00BA970D00BC970D00C0
:1049DC0040E60320DA970D00E4970D00F9970D00DF
:1049EC000B980D0058E603208B9B0D001B980D00B7
:1049FC0029980D003C980D0047980D0063980D0008
:104A0C0008B5FFF715FF00F02FFBFFF791FEFFF73E
:104A1C003FFE00F00FF8BDE8084000F0EFBB02F0DD
:104A2C0003B970470149024800F034BE9EDA0320F6
:104A3C005CDB03202DE9F041264B1A78012A00AFEC
:104A4C001D4627D12449E8460022501CD2B28B18AF
:104A5C00214E1C7E0CB10246F7E702F1080323F04D
:104A6C000703ADEB030D013206F11801684604F0A3
:104A7C004DFE03F0D9F9194902F076FE03F0D4F992
:104A8C00694602F084FE6946328F154800F018FD25
:104A9C002C70C546124800F005FD18B1104800F006
:104AAC00B6FE14E00F4C02F087F92368C01A42F2EC
:104ABC00107398420BD903F0B7F90B4902F067FE5B
:104ACC000A49074800F0E6FD02F076F92060BD4681
:104ADC00BDE8F08160DA032040E6032073980D00F6
:104AEC005CDB032058DB032089980D009EDA032041
:104AFC0070B505460C480E4600F0D4FC044658B17F
:104B0C0033462A460949084800F044FE084906483D
:104B1C0000F0A9FF012070BD03F086F9054902F0F1
:104B2C0036FE204670BD00BF5CDB032080DA03201C
:104B3C00B2DA0320A0980D0010B502F075F8074CFE
:104B4C00074A08491288084B204600F0C3FB204650
:104B5C00064A0749BDE8104004F046B85CDB032068
:104B6C00B0DA0320D4DA03202F4A0D0050DB0320E7
:104B7C00795A0D0010B5074C02F056F8064920463C
:104B8C0002F09BFD2046054A0549BDE8104004F0A3
:104B9C002BB800BFB4DB03208C9B0D0050DB032033
:104BAC0039760D0030B591B03C220021054601A8A4
:104BBC0004F0B7FD03F084FF3C2201A9002002F0B1
:104BCC0013F93C2101A8FFF715FC9DF80430834232
:104BDC000CD101AC0FCC0FC50FCC0FC50FCC0FC532
:104BEC0094E8070085E80700012000E0002011B0E0
:104BFC0030BD000030B591B001A8FFF7D3FF3C21C8
:104C0C00044601A8FFF7F6FB24B19DF8043083425B
:104C1C0000D13BB903F008F90C4902F0B8FDFFF7DD
:104C2C00F7FB10E003F000F901AC0949094D02F063
:104C3C00AEFD0FCC0FC50FCC0FC50FCC0FC594E834
:104C4C00070085E8070011B030BD00BF3E990D008C
:104C5C0055990D0040E6032010B5044690B003F0C2
:104C6C002FFF3C222146002002F0C6F801A8FFF7D6
:104C7C0099FF9DF804002378C31A5842584110B08C
:104C8C0010BD01F0D1BF03681847012A02D0022AD7
:104C9C0002D004E0016002E00B6800B10360002068
:104CAC007047436913B183690C301847704713B5CB
:104CBC0000210446084602F0CFF802A90023204642
:104CCC0041F8043D02F0E0F8019C0CB10123237182
:104CDC000021012002F0C0F82CB1236820469B680B
:104CEC0098470023237102B010BD10B583680446A9
:104CFC0013B1032201469847204610BD07B58068C2
:104D0C00002338B18DE80A00022102F0C5F8B0FA90
:104D1C0080F0400903B05DF804FB000038B5104B7F
:104D2C00036083680446A3B16FF000410022FFF7D3
:104D3C00E5FF0021A06802F0C7F8237903F0FF0516
:104D4C0013B102F071F8F8E72946A06802F094F864
:104D5C00A56004F10C00FFF7C8FF204638BD00BF6A
:104D6C0088990D0010B50446FFF7D8FF20461C218A
:104D7C0003F048FF204610BD08B50F2003F08CFE51
:104D8C00C0B208BD08B5FFF7F7FF044B10B91A788D
:104D9C00013200E000221A7008BD00BFC4DB032002
:104DAC0070B588B001F040FF194B049304AD194C59
:104DBC00194B236095E8030004F10C0202AE86E85F
:104DCC00030092E8030085E8030096E8030082E8FC
:104DDC000300124A6261A26907920023104A2371F0
:104DEC00A3600693A261019300930E4A23464FF4ED
:104DFC007A7104F1080002F037F82846FFF775FFC6
:104E0C00094A0A49204603F0EFFE08B070BD00BF06
:104E1C00914D0D00C8DB032088990D00974C0D00B7
:104E2C00934C0D00BB4C0D0050DB0320294D0D00A5
:104E3C00037C03F00803024603F0FF002BB1D36A96
:104E4C00506A181A48BF6FF000407047704770479F
:104E5C007FB5024608461379956833B13DB90C49C4
:104E6C0004B0BDE8704002F07FBC0A4B00E00A4B76
:104E7C00167B0A4C0A49527B0292012E08BF21462E
:104E8C0001910095074A002102F0ABFC04B070BD03
:104E9C00F1990D008C9B0D00E0990D00E9990D0026
:104EAC00ED990D00079A0D00103000F037BF10304F
:104EBC0000F0D8BE103000F067BF083000F064BFBF
:104ECC0007B502AB012203F8011D1030194600F0A2
:104EDC005BFF03B05DF804FB10B52C21044603F016
:104EEC0091FE204610BD10B53421044603F08AFE15
:104EFC00204610BD07B502AB012203F8011D083096
:104F0C00194600F041FF03B05DF804FB07B5012220
:104F1C000DF1070100F0F3FD01280CBF9DF807000F
:104F2C004FF0FF3003B05DF804FB08B51030FFF70D
:104F3C00EDFF08BD70B501F077FE274B274E6421BD
:104F4C0083F860142649C3F87014012183F8741493
:104F5C003168002211F00105DA7183F83C2483F8E2
:104F6C003D2483F86A24C3F8782483F87C2483F8DE
:104F7C007D241C460AD13046FFF78FF830B1294604
:104F8C00184802F0F1F93046FFF78CF81648154B2B
:104F9C00C4F86C3400244FF47A7304744474446081
:104FAC008360124A124B1349036003F01DFE124832
:104FBC00124D0472447244600C4A1149056003F0AE
:104FCC0013FE1048094A04724472446005600C498F
:104FDC00BDE8704003F008BE1CDC0320E4DB0320BA
:104FEC009C990D00E8DB0320CCE0032050DB032070
:104FFC00A8990D005B4E0D00A0E00320D0990D0088
:10500C00594E0D00F0DB0320704710B528210446E3
:10501C0003F0F8FD204610BD10B501F0CDFE084B95
:10502C001A68801A074A90421C4608D902F010F9F7
:10503C0010B1002002F014F901F0BEFE206010BD8A
:10504C0028E10320005C260502F03CBC014802F07C
:10505C0049BD00BF2CE1032008B501F0ADFE014BAA
:10506C00186008BD28E10320FFF7D6BF70B501F02A
:10507C00DBFD104C104B23600025283329460F4EC6
:10508C006360182204F11000A560E56004F049FB90
:10509C0020460B4C0B49324603F0A6FD2946204610
:1050AC0002F0E0FC324620460749BDE8704003F0B0
:1050BC009BBD00BF00E10320F89B0D0050DB0320DB
:1050CC002CE1032015500D008F7A0D0038B5074CDC
:1050DC000D4602460321204601F0ACFA2A46204632
:1050EC000421BDE8384001F0A5BA00BF34E103202B
:1050FC000146014801F0B0BA34E1032008B50121A2
:10510C00062003F0B0FC642002F0EEFB0620002128
:10511C0003F0A9FC6420BDE8084002F0E5BB0000E8
:10512C0038B5214C0121062003F08CFCFFF7E6FF7B
:10513C00A37DE27D1D485B2101F052FC20B902F0F9
:10514C0073FE1B4902F023FB02F06EFE194902F0BC
:10515C000BFB02F069FE0A22E17D054602F021FB01
:10516C00284602F008FB02F05FFE134902F0FCFA3D
:10517C0002F05AFE0A22A17D054602F012FB2846D7
:10518C0002F0F9FA0121094801F050FB05210D202C
:10519C00FFF79CFF094B1878FFF7AAFF0849034853
:1051AC00BDE8384001F0F0BB40E6032034E10320B9
:1051BC003C9A0D004D9A0D005B9A0D00E6DA032027
:1051CC006C9A0D0070B5054609480E4601F00EFBB1
:1051DC0060B1084C2378B34207D822780649284698
:1051EC0004F094FA2078C0B270BD002070BD00BFEE
:1051FC0034E10320A7E103206AE1032010B5044C3D
:10520C002378012B03D1FFF78BFF0023237010BDF4
:10521C0054DB032008B501F007FD084B084A1A605F
:10522C00112208491A7108225A719A7101220A70C6
:10523C00002119721F2159729A7208BD34E10320A2
:10524C00A89A0D00A8E1032038B584690A4B0360C5
:10525C0005467CB16368013B63605BB923682046FB
:10526C009B689847A368013BA3601BB92368204641
:10527C00DB689847284638BD4C9D0D0010B5044698
:10528C00FFF7E2FF20461C2103F0BCFC204610BDBA
:10529C0038B51D46059B036300230446436302B1E6
:1052AC00826419B104F1380002F01AFA049B2365E8
:1052BC00069BE069A4F84C50FF2BB8BFFF23A4F861
:1052CC00543008B1FEF7E7FEB4F85400FEF7DFFEE9
:1052DC00E06138BD2DE9FF4104460025174698468C
:1052EC000E4603F0B7FAE5610A4904F1380002F002
:1052FC00E4F9FF2302930F2300932046A564CDF815
:10530C0004803B462A463146FFF7C2FF204604B0D4
:10531C00BDE8F0818C9B0D0010B50446204603F0CF
:10532C00FDF90028FAD0204603F0A1F8C0B210BD58
:10533C002DE9F0470546C4698846FFF7EDFF20705C
:10534C00EB6993F800A04FF001090AF0F00A00276E
:10535C004E462846FFF7E0FFEB69985500F07F03B7
:10536C0013FB09F31F44741C0306A4B2BFB24FEA2B
:10537C00C91901D52646ECE7631EBAF1300F88F83F
:10538C00003013D12846D5F81C80FFF7C5FF08F86C
:10539C0004002846F41CD5F81C800236FFF7BCFF2D
:1053AC00B6B2A4B208F80600022300E000231B1BCF
:1053BC009EB2A3199BB29F420BD92846FFF7ACFFB4
:1053CC00B5F85430A34284BFEB6918550134A4B22C
:1053DC00EFE7B5F85400A0422CBF20460020BDE8F2
:1053EC00F087F7B507468E461E461D46002402A9D7
:1053FC0005F07F032144ED0918BF43F0800301340D
:10540C0001F8043CE4B2002DF1D1C4F10403D1182D
:10541C0002F803E0A54206DA2B1B01A81344285C12
:10542C0058710135F6E7721C2244384602F075FFBC
:10543C00054601F0C1FC013478623444A8B2231A49
:10544C005842584103B0F0BD10B5C369E0221A7040
:10545C00C36900225A7004460222C16902F05DFF42
:10546C00204603F043F901F0A7FC6062A06210BD76
:10547C000233F0B59BB20D466C1A15F8016BA4B251
:10548C003EB1B0F854709F4203D95C1CD654A3B201
:10549C00F2E7191B0A44211202F8021C02F8014C13
:1054AC001846F0BD38B5054602F04DFF002814BF74
:1054BC000124002402D1284603F018F9204638BDF7
:1054CC0070B504460E461546FFF7ECFF10B12046AA
:1054DC00FFF7BAFF314604F1380002F001F900235E
:1054EC00A364A4F84C5070BD2DE9F04387B004467A
:1054FC00894617461E46DDF83880FFF7D3FF054670
:10550C00002840F0BD80A16C39B90346B4F84C209A
:10551C00A16B204602F0EEFF09E0684602F018FC91
:10552C002B46B4F84C206946204603F065F8002859
:10553C0000F0A280012323849DF84C30042B15D15C
:10554C00524B18689A88ADF804200090E2699B7958
:10555C0000988DF80630531DC2F80500BDF80410F4
:10556C009DF806209A7199800C2312E0484BD4F8D0
:10557C001CC0186859681B7A6A4603C213706B46C4
:10558C0003CBCCF80500CCF8091013788CF80D304F
:10559C000E23B8F1000F0AD09DF840209DF83C1066
:1055AC00520142F0060242EAC102D2B200E00222EB
:1055BC009DF8481009B902F0FD022FB116B942F05E
:1055CC00800201E042F0C002E169CA54226DE16937
:1055DC00581C12120A549A1CE169206D885403332A
:1055EC00E26949462046FFF743FFB8F1000F0BD0A4
:1055FC000346E26941462046FFF73AFFE2691199FA
:10560C0003462046FFF734FF67B10346E26939468B
:10561C002046FFF72DFF2EB10346E26931462046A6
:10562C00FFF726FF431F9BB2E26910212046FFF7CC
:10563C00D8FE01F0C1FB4FF47A766062A06220467E
:10564C0003F06CF840B901F0B7FBA36AC01A236DE4
:10565C0073439842F3D90FE069462046FFF768FE82
:10566C00042809D1E369DE7836B901F0A5FB0125E0
:10567C00A06284F82C6004E0204603F037F800E0C8
:10568C000025284607B0BDE8F08300BF8E9A0D00B8
:10569C00959A0D007FB504230593012304930023F1
:1056AC0003930293019300931A46FFF71DFF07B073
:1056BC005DF804FB2DE9F14F0D9E9DF828809DF8B7
:1056CC002C509DF8307004468B4691469A46FFF755
:1056DC00E9FE00284CD0B4F85420E069002104F015
:1056EC0020F80523E26959462046FFF7C1FE6B1EE0
:1056FC00012B12D8238CE26901339BB223841B1239
:10570C001354411C89B2E369228C5A54023080B282
:10571C001EB1238C5A1C22843380002291B2831830
:10572C008A459BB20AD9B4F854609E4202F1010238
:10573C0004D919F80160E169CE54EFE7B8F1000F14
:10574C000CBF302131210FB141F00801022D02D1E3
:10575C0041F0040103E0012D08BF41F00201053BBB
:10576C00E2699BB2204601B0BDE8F04FFFF739BEAD
:10577C0001B0BDE8F08F1FB5089C0394002402947F
:10578C009DF81C4001949DF818400094FFF792FF7F
:10579C0004B010BD1FB50024029401940094FFF7CF
:1057AC00EAFF04B010BD38B504460D46FFF77AFE8B
:1057BC0090B1E36962221A70E36902225A70E369BC
:1057CC002A129A70E369DD700422E169204602F026
:1057DC00A4FD003018BF012038BD38B504460D4675
:1057EC00FFF760FE90B1E36972221A70E36902223E
:1057FC005A70E3692A129A70E369DD700422E16938
:10580C00204602F08AFD003018BF012038BD2DE97A
:10581C00F04F83B000AF0446FFF744FE81460028EA
:10582C0000F0F68001F0C8FA226D4FF47A735343FE
:10583C00A26A821A9A42054603D8626A821A934275
:10584C0017D294F82C302BB1204602F04FFF4FF0BA
:10585C000009DDE0E269C0211170E2695370E16971
:10586C000222204602F059FD01236562A56284F8EC
:10587C002C30204602F052FF002800F0C980F91DA0
:10588C002046FFF755FD0246002800F0C180E36971
:10589C00A562187800F0F00130297DD1D4F830B031
:1058AC00BBF1000F00F0B48097F807C003EB0C00BD
:1058BC00EA46817890F801E001EB0E2E1FFA8EFE7D
:1058CC000EF1080121F00701ADEB010D6846002136
:1058DC008EB2B64506D90CEB01061E44F67846543A
:1058EC000131F5E7002100F80E101E7806F00606CF
:1058FC00022E0CF10301CCEB02021ED17144CEEB53
:10590C00020213F801801944053A497801EB082882
:10591C000CF1050171441944D847E36940221A700F
:10592C00E3695E70E3691FFA88F84FEA28229A70DF
:10593C00E369042283F8038020E0042E24D171440F
:10594C00CEEB020213F801801944053A497801EBB9
:10595C0008280CF1050171441944D847E369502219
:10596C001A70E36902225A70E3691FFA88F84FEA49
:10597C0028229A70E369324683F80380E169204655
:10598C0002F0CBFC656205E0033A7144CEEB0202F7
:10599C001944D847D5463BE0502908D19978DB7893
:1059AC0003EB012189B22046FFF7FDFE30E04029D0
:1059BC000CD0602908D19978DB7803EB012189B2EE
:1059CC002046FFF70AFF23E070290DD1616BF9B176
:1059DC00042A1DD110F0060F1AD19878DB7803EB4E
:1059EC00002080B2884713E0902911D0C0290AD139
:1059FC00D0221A70E36900225A70E1690222204613
:105A0C0002F08BFC04E0D02904BF002384F82C3076
:105A1C0048460C37BD46BDE8F08F70B504460E46BF
:105A2C001546FFF73FFDE8B1238C01339BB203B958
:105A3C0001232384238CE2691B125371E369228CAA
:105A4C009A71E269314607232046FFF711FDE3699D
:105A5C001D54031FE26920469BB28221BDE87040B1
:105A6C00FFF7BFBC70BD0022FFF7D7BF10B50446CF
:105A7C00FFF718FD10B12046FFF7E6FCE06908B10E
:105A8C00FEF709FB04F1380001F0D0FD2046FFF7CA
:105A9C00DBFB204610BD01F0C7B801F0C5B801F022
:105AAC00C3B810B50446243000F050FA28B104F500
:105ABC000C70BDE8104000F049BA10BD01F0B4B84C
:105ACC0001F0B2B801F0B0B801F0AEB8837801695A
:105ADC0043F00403837000F11002806800F0ECBA0C
:105AEC0010B5044680680A462430A16900F055FAC6
:105AFC0020B1A38803F00F0300EB431010BD2DE978
:105B0C00F74F03780446894615464BB18278D10786
:105B1C0006D50CE05A46216900F069FA00283DDAF6
:105B2C00637843F0020363704FF0FF3097E01A077D
:105B3C0003D5E36962699B1A07E09A0608D5A36846
:105B4C001A896369C3EB42139BB29D4228BF1D4661
:105B5C002E464FF0000804F1100B002E35D02278A1
:105B6C006369A06812F0200FC3F3080A4FEA5321AF
:105B7C0002D0036A19441DE090F8058001EA080878
:105B8C00BAF1000F10D1B8F1000F0DD1002BC1D11B
:105B9C0053064CBF036A236A236105E004D12378C2
:105BAC0013F0700F11D1BBE72169A06800F019FA4E
:105BBC0008EB0001A068BAF1000F35D1B6F5007FF3
:105BCC0032D3C36A994202D12EE0A81B47E0B6F546
:105BDC00806F1BD3227897064FEA562A06D4027997
:105BEC00C8EB0202D2B2924528BF924699424FEAC4
:105BFC004A2707D2A06853464A46006800F0A7FB24
:105C0C0060B98DE75344994221D3F3E74A460068C3
:105C1C0000F055FB002883D04FF4007763693B44B8
:105C2C00B9446361F61B98E70022243000F0B5F903
:105C3C0000283FF475AFCAF50077B74228BF374646
:105C4C0000EB0A013A46484603F060FDE6E72430D3
:105C5C00019100F07BF901990028CBD160E703B0EA
:105C6C00BDE8F08F73B501220DF1070104464669BA
:105C7C000569FFF744FF012805BF9DF80700666121
:105C8C004FF0FF30256102B070BD2DE9F0410E469A
:105C9C00017807690446002939D04569B5423AD0E4
:105CAC000EB9066131E00B0703D5C3699E422ED8AD
:105CBC0007E0880605D5A3681B89B6EB431F26D8D9
:105CCC0023E0D4F808E09EF806306A1E03F10900C0
:105CDC00731EC240C3409A4200D84DB94A064CBF0D
:105CEC00DEF82020226A22611D4604F110080AE029
:105CFC009B1AF9E742462169A06800F078F9002860
:105D0C0005F1FF3503DD002DF4D1666103E0276159
:105D1C000020BDE8F0810120BDE8F08138B50378A2
:105D2C0004460BB9012038BD83785A0723D50121CD
:105D3C00FFF7D6FE054628B9637843F0010363707C
:105D4C00002038BD0378E52BF6D023781B0744BF21
:105D5C00E369C361238C4383638C8382094B1B6887
:105D6C002BB100F11601183098472B8B6B82A3785E
:105D7C0023F00403A370A068FFF793FE0028DBD088
:105D8C00D0E700BF44E103202DE9F04703788946B2
:105D9C0019070446904608D583789A0705D51B0742
:105DAC000BD5E169FFF771FF38B9637843F0010354
:105DBC0063704FF0FF30BDE8F0876369DB439845B3
:105DCC00F3D846464FF0000A6369002E00F081803C
:105DDC00A068427912EA5325C3F308071CD1DFB936
:105DEC00216971B104F1100200F001F90028DCDB2B
:105DFC0040F08E802046FFF769FE002840F0888036
:105E0C00D3E7236A3BB92046FFF760FE0028CCD0CD
:105E1C002369236200E023612169A06800F0E1F8A6
:105E2C00291817B9B6F5007F21D2C7F50075B54210
:105E3C0028BF354637B96369E269934234BF012202
:105E4C00052200E00122A068243000F0A6F800280A
:105E5C00ABD038442A4649462F4403F057FCB7F5DB
:105E6C00007F30D1A068243000F070F817E0B6F550
:105E7C00806FA06815D30279521B730AD2B2934279
:105E8C0028BF1346C26A91424FEA432502D31A44F3
:105E9C00914237D3A7684A46386800F00CFB90B99A
:105EAC0083E7C36A994202BF4FF0FF3380F824A006
:105EBC00C362A3684A46186800F08BFA00283FF4C6
:105ECC0074AF4FF4007563692B446361A944761B6E
:105EDC007AE7E269934201D9E36102E00F4B1B6858
:105EEC001BB1A37843F00403A37094F90230002B88
:105EFC0002DB4046BDE8F0872046FFF70FFF002885
:105F0C00F7D152E74FF0FF3280F824A0C262C1E70C
:105F1C002169A06800F065F8014683E744E103209D
:105F2C0000F082BE70B505460C46084649B103F038
:105F3C0029FC2B68024621462846DB68BDE87040E8
:105F4C00184770BD00F070BE00F06EBE70B50378DF
:105F5C00DA0704461ED54368816800F10C06324608
:105F6C00186800F036FA054608B9002513E02378C6
:105F7C009B0704D4237823F0010323700BE06368A0
:105F8C00A068196932460144186800F022FA00280A
:105F9C00F0D1EAE70125284670BD70B583688B42C5
:105FAC0004460E46154614D0FFF7D0FF08B9002062
:105FBC0070BD6B0703D500232370A66009E06368EE
:105FCC0004F10C023146186800F079F90028F2D17E
:105FDC00EDE72378204605F003051D4300F80C5B24
:105FEC0070BD837940690239994008447047012992
:105FFC0070B505460C46164602D84FF0FF3070BD02
:10600C00C3699942F9D8C379202B10D18169022236
:10601C0001EBD41100F50C70FFF7BFFF0028ECD09A
:10602C0004F07F0450F8243023F070430FE0102B61
:10603C00E3D18369C1F307210222194400F50C70E6
:10604C00FFF7ABFF0028D8D0E4B230F81430EA697F
:10605C0093429ABF33600120002070BD012938B5EE
:10606C000C46154601D8002038BDC3699942FAD8B0
:10607C00C379202B0ED18169032201EBD41100F5D9
:10608C000C70FFF78AFF0028EDD004F07F0440F875
:10609C0024500FE0102BE6D18369C1F307210322B2
:1060AC00194400F50C70FFF778FF0028DBD0E4B240
:1060BC0020F81450012038BD2DE9F341C4688C42FE
:1060CC0005460E46904607D20C460027EB69013474
:1060DC009C4203D9CFB9EC680127F7E7A64214D04C
:1060EC0001AA21462846FFF782FF00280DDBEDD0E0
:1060FC00019B002BEAD107B1EC606FF07042214696
:10610C002846FFF7ABFF074608B900270BE016B986
:10611C00C8F8004007E0224631462846FFF79EFFAC
:10612C000028F5D1F1E7384602B0BDE8F08100F067
:10613C007BBD00F079BD00F077BD000070B50E4C52
:10614C000E46154600F030FE2368C01A0B4B9842E1
:10615C0008D900F031FE0A4B186001F071F800F01C
:10616C0023FE206000F028FE80B2801BA842D4BF22
:10617C000020012070BD00BF48E10320A086010073
:10618C0028E5032038B5057A04464DB9406800F07F
:10619C00B9F963682946187D02F065FC0123237266
:1061AC0038BD10B5037A04466BB143680121187DE4
:1061BC0002F059FCFF21606800F0C6F9606800F03D
:1061CC00A5F90023237210BDF8B504460D461646FA
:1061DC0000F0F2FD87B2606800F09BF9FF28607256
:1061EC0009D14FF47A7239462046FFF7A7FF0028F1
:1061FC00F1D055230BE0FE2801D0502307E03246A6
:10620C002946606800F08AF9607230B1602320463C
:10621C002370FFF7C6FF0020F8BD606800F079F925
:10622C00606800F076F90120F8BD70B504460E46A2
:10623C0000F0C2FD85B2324629462046FFF77EFFAC
:10624C0030B9606800F065F9FF28F4D1012070BD09
:10625C00002070BDF7B5037A019204460D460BB9C8
:10626C00FFF790FF25B14FF496712046FFF7DDFF45
:10627C0045F04001606800F067F90DF107060DF17B
:10628C00030716F80119606800F05EF9BE42F8D1F8
:10629C00002D0CBF95218721606800F055F96068CE
:1062AC0000F037F90B25606800F033F903066072D3
:1062BC0003D5013D15F0FF05F5D103B0F0BD38B5A0
:1062CC00837A032B18BF490215460A46112104464E
:1062DC00FFF7C0FF10B1302323700BE029464FF4B9
:1062EC0000722046FFF770FF054618B12046FFF7F5
:1062FC0058FF03E02046FFF754FF0025284638BD21
:10630C0010B5837A032B0A4618BF4A0212210446A1
:10631C00FFF7A0FF30B1312320462370FFF741FF78
:10632C00002010BD012010BD10B500220C21044628
:10633C00FFF790FF30B1282320462370FFF731FF81
:10634C00002010BD2046FFF72CFF012010BDF8B532
:10635C00054616461F46FFF7D3FF98B10024A3B29B
:10636C009F4206EB442108D94FF400722846FFF7F0
:10637C002BFF01340028F2D104E02846BDE8F84098
:10638C00FFF7D2BF0020F8BD38B50446154640686B
:10639C0000F0DAF84FF400722946606800F0D8F883
:1063AC00FF21606800F0D0F8FF21606800F0CCF8A5
:1063BC00606800F0AEF8607200F01F00052806D08F
:1063CC00572320462370FFF7ECFE002038BD012038
:1063DC0038BD70B5837A032B18BF490215460A469F
:1063EC0018210446FFF736FF064608B132231DE09C
:1063FC002A46FE212046FFF7C7FFC0B14FF4FA61D1
:10640C002046FFF712FF054608B95A230EE0324624
:10641C000D212046FFF71EFF38B9606800F079F8AF
:10642C0018B92046FFF7BDFE05E02923237020464E
:10643C00FFF7B7FE0025284670BD38B50D464FF462
:10644C00FA610446FFF7F1FE10B95B23237005E0F7
:10645C002A46FC212046FFF797FF18B92046FFF784
:10646C00A0FE002038BD10B5837A032B0A4618BF56
:10647C004A0219210446FFF7EDFE30B133232046C2
:10648C002370FFF78EFE002010BD012010BD38B523
:10649C004FF4FA610446FFF7C8FE054620B1FD2112
:1064AC00606800F051F801E0562323702046FFF796
:1064BC0078FE284638BDF8B5054616461F46FFF748
:1064CC00D2FF70B10024BC4206EB4421284604D014
:1064DC00FFF7B3FF28B10134F5E7BDE8F840FFF74B
:1064EC00D6BF2846FFF75DFE0020F8BD00F09CBB30
:1064FC0000F09ABB00F098BB014B01221A70704758
:10650C004CE10320011D006800F084BF006800F01E
:10651C0068BFFF21006801F043B8000037B5084B95
:10652C0000930025074C0068257013460A4629463F
:10653C0001F03CF82378002BFCD0002003B030BDD8
:10654C0005650D004CE10320006801F029B800003E
:10655C0037B5074B00930025064C00682570134691
:10656C002A4601F023F82378002BFCD003B030BD71
:10657C0005650D004CE1032000F056BB024B18687A
:10658C0003681B68184700BF64E1032008B50121AC
:10659C00007902F068FABDE8084001F097BC0000F1
:1065AC0010B5084C2368DB070AD42046FDF775FDAF
:1065BC0030B10121044800F0D7FE2046FDF772FDF2
:1065CC00014810BD50E1032054E1032010B50446EE
:1065DC00FFF7E6FF2146BDE8104000F0E1BF10B523
:1065EC00044601F071FCFFF7DBFF002100F0E8FE30
:1065FC00FFF7D6FF012100F0D2FEFFF7D1FF1821E3
:10660C0000F0AAFF20790021BDE8104002F02BBA5F
:10661C0038B50C460546FFF7E2FF04F07F00FFF7A4
:10662C00D5FF0020FFF7D2FF04462846FFF7AEFF48
:10663C00204638BD70B50E4615460446FFF7CFFF11
:10664C0046F08000FFF7C2FF2846FFF7BFFF204649
:10665C00BDE87040FFF79ABF10B541721121044696
:10666C00FFF7D6FF627A00F0E0001F2A94BF0243C6
:10667C0040F01F0211212046BDE81040FFF7DABFA1
:10668C0010B5044649B101222321FFF7D3FF232182
:10669C002046FFF7BDFF8307F9D524212046FFF7DD
:1066AC00B7FF4042401010BD38B5002914BF5D2221
:1066BC0055220C465A210546FFF7BCFF002C2846F4
:1066CC0014BF7C2270225C21BDE83840FFF7B2BFBA
:1066DC0070B5284D2B788B4204460E4649D00429C0
:1066EC0047D8DFE801F0342C241203000121FFF716
:1066FC008FFF00F0E30242F00C0201212046FFF76D
:10670C0099FFA37A63B301210DE00121FFF780FF0C
:10671C0000F0E30242F0100201212046FFF78AFF4D
:10672C00A37AEBB100212046FFF7BEFF18E0012150
:10673C00FFF76EFF00F0E30242F008020CE00121CB
:10674C00FFF766FF00F0E30242F0040204E00121CF
:10675C00FFF75EFF00F0E30201212046FFF76AFF1E
:10676C002B782BB927212046FFF752FF0306F7D5CC
:10677C002E7070BDA8E10320154A002310B51370CC
:10678C00144A1370144A1370144A1370144A137079
:10679C00144A1370144A282113600446FFF738FF7B
:1067AC0043070AD53D212046FFF732FF40F0040293
:1067BC00D2B23D212046FFF73DFF20462521402245
:1067CC00FFF738FF20460321BDE81040FFF780BFDC
:1067DC00A7E1032062E1032060E1032068E10320CC
:1067EC0061E1032069E103205CE1032010B504465C
:1067FC0001F06AFB0B4B1A78032A02D10A4A127871
:10680C0052B91B78032B02D101F060FB02E0204649
:10681C00FFF7B2FF002010BD20460121FFF758FF03
:10682C00012010BDA8E1032068E10320002910B568
:10683C000446817214BF0F221A221321FFF7FAFEAD
:10684C00A37A43B111212046FFF7E2FE00F01F02AC
:10685C0042F0600202E0627A42F08002204611218E
:10686C00BDE81040FFF7E6BE2DE9F0413D4B1B782B
:10687C00032B044614D12821FFF7CAFE430717D473
:10688C000EE013783C2B04D81378374ADBB2002186
:10689C00D1542046FFF77AFE03212046FFF718FF5C
:1068AC0000212046FFF7ECFE304B1860BDE8F0816C
:1068BC0001212046FFF70CFF2046FFF790FE002039
:1068CC00FFF784FE0020FFF781FE294D28702B78FE
:1068DC00422B14D82B78DBB200202B70FFF776FEFE
:1068EC00244B227A187032B91A78E179914202D08D
:1068FC001B78FF2B05D12B78022B02D90BE04223FE
:10690C00EAE7204600232B70FFF740FE2046BDE847
:10691C00F041FFF731BF164B174E1B78124F033B5C
:10692C00DBB200203370FFF751FE144B18700020BF
:10693C00FFF74CFE124A20F07F03DBB2137000F01D
:10694C004000104BC0B21870002331780A4ADDB2F7
:10695C008D4203F1010894D20020FFF737FE434625
:10696C007855F2E7A8E103206AE103205CE10320FB
:10697C0068E1032060E10320A7E1032062E103202A
:10698C0069E1032061E10320F8B50D4601210446BD
:10699C00FFF79EFE8DB12046FFF721FEBE20FFF7CC
:1069AC0015FE6E1E05F10F0716F8010FFFF70EFE10
:1069BC00BE42F9D12046FFF7E9FD3D212046FFF705
:1069CC0027FE20F00100002D0CBF024640F0010212
:1069DC00D2B220463D21BDE8F840FFF72BBE0000A7
:1069EC00F0B58FB00D4604460021164603A82A22A6
:1069FC001F4602F096FE01238DF80C3003238DF810
:106A0C0010308DF8153006238DF8163033238DF8A1
:106A1C00173007238DF8183008238DF81A30092306
:106A2C008DF81C3019238DF81E3025238DF820305D
:106A3C0029238DF82230DC238DF823302E238DF87A
:106A4C00243088238DF825302F238DF826302D23E4
:106A5C008DF8273037238DF82A3090238DF82B3082
:106A6C0038238DF82C303C23042202218DF82E3053
:106A7C008F238DF80D208DF80E108DF811108DF8D8
:106A8C001220052140228DF82F303D238DF8132044
:106A9C008DF814108DF82120422130228DF83030E1
:106AAC0012238DF81F108DF828208DF82D108DF8DD
:106ABC0031306F238DF832301F2D4FF0FF038DF8DE
:106ACC0033208DF8343006D02B2D06D0562D0CBF2C
:106ADC00D922E42202E04E2200E06C221F2D8DF818
:106AEC00192006D02B2D06D0562D14BFC022002203
:106AFC0002E0C02200E04022012120798DF81B2009
:106B0C008DF8297001F09EFFFFF74AFD00F036FC6E
:106B1C0000F052F90546AA222F212046FFF78AFDE4
:106B2C002F212046FFF774FDAA2804D000F044F969
:106B3C00401B3128EFD900F03FF9401B31282DD8EC
:106B4C0000F03AF9054655222F212046FFF772FD39
:106B5C002F212046FFF75CFD552821D000F02CF9A1
:106B6C00401B3128EFD91BE000212046FFF70CFF1A
:106B7C00A17A2046FFF75AFE01212046FFF7A8FD17
:106B8C0000F01AF9054627212046FFF741FD0306C0
:106B9C001BD500F011F9401B31281CD9002028E02E
:106BAC0000F00AF9401B3128F8D80025EBB20EAAE8
:106BBC0002EB4303013513F82C1CFF29D4D013F836
:106BCC002B2C2046FFF736FDF0E700F0F5F8401BC4
:106BDC003128D8D9DDE700230093A07906494FF07E
:106BEC00FF33012201F048F90028D7D0034BE6719E
:106BFC001C600FB0F0BD00BF89650D0064E103207F
:106C0C0000F012B800F010B808B5024B1B689B6876
:106C1C00019308BD6802030008B5024B1B68DB68D2
:106C2C00019308BD6802030008B5024B1B681B6882
:106C3C00019308BD2C02030008B5024B1B689B682E
:106C4C00019308BD2C02030008B5024B1B68DB68DE
:106C5C00019308BD2C02030008B5024B1B681B698D
:106C6C00019308BD2C02030008B5024B1B685B693D
:106C7C00019308BD2C02030008B5024B1B689B69ED
:106C8C00019308BD2C02030008B5024B1B68DB699D
:106C9C00019308BD2C02030008B5024B1B681B6A4C
:106CAC00019308BD2C02030008B5024B1B685B6AFC
:106CBC00019308BD2C02030008B5024B1B681B682E
:106CCC00019308BD3002030008B5024B1B689B689A
:106CDC00019308BD3002030008B5024B1B68DB684A
:106CEC00019308BD3002030008B5024B1B681B69F9
:106CFC00019308BD3002030008B5024B1B685B69A9
:106D0C00019308BD3002030008B5024B1B68DB6918
:106D1C00019308BD3002030008B5024B1B681B6AC7
:106D2C00019308BD3002030008B5024B1B685B6A77
:106D3C00019308BD3002030008B5024B1B689B6A27
:106D4C00019308BD3002030008B5024B1B689B6B16
:106D5C00019308BD3002030008B5024B1B68DB6BC6
:106D6C00019308BD3002030008B5024B1B681B6C75
:106D7C00019308BD3002030008B5024B1B685B6C25
:106D8C00019308BD3002030008B5024B1B685B6918
:106D9C00019308BD6C02030008B5024B1B685B68CD
:106DAC00019308BD1802030008B5024B1B681B6950
:106DBC00019308BD1802030008B5024B1B685B6900
:106DCC00019308BD1802030008B5024B1B68DB6970
:106DDC00019308BD1802030008B5024B1B689B6A9F
:106DEC00019308BD1802030008B5024B1B685B6CCD
:106DFC00019308BD1802030008B5024B1B689B6C7D
:106E0C00019308BD1802030008B5024B1B689B6D6B
:106E1C00019308BD1802030008B5024B1B689B6860
:106E2C00019308BD4802030008B5024B1B68DB68E0
:106E3C00019308BD4802030008B5024B1B681B698F
:106E4C00019308BD4802030008B5024B1B685B693F
:106E5C00019308BD4802030008B5024B1B68DB69AF
:106E6C00019308BD4802030008B5024B1B681B6A5E
:106E7C00019308BD4802030008B5024B1B685B6A0E
:106E8C00019308BD4802030008B5024B1B689B6ABE
:106E9C00019308BD4802030008B5024B1B68DB6A6E
:106EAC00019308BD4802030008B5024B1B685B6CDC
:106EBC00019308BD4802030008B5024B1B689B6C8C
:106ECC00019308BD4802030008B5024B1B681B6FF9
:106EDC00019308BD4802030008B5024B1B685B69AF
:106EEC00019308BD6402030008B5024B1B681B6AC2
:106EFC00019308BD6402030008B5024B1B689B6A32
:106F0C00019308BD6402030008B5024B1B681B68A3
:106F1C00019308BD3C02030008B5024B1B68DB68FB
:106F2C00019308BD3C02030008B5024B1B681B69AA
:106F3C00019308BD3C02030008B5024B1B685B695A
:106F4C00019308BD3C02030008B5024B1B689B690A
:106F5C00019308BD3C02030008B5024B1B68DB69BA
:106F6C00019308BD3C02030008B5024B1B681B6A69
:106F7C00019308BD3C02030008B5024B1B689B6AD9
:106F8C00019308BD3C02030008B5024B1B689B69CA
:106F9C00019308BD2802030008B5024B1B68DB698E
:106FAC00019308BD2802030008B5024B1B681B6A3D
:106FBC00019308BD2802030008B5024B1B685B6AED
:106FCC00019308BD2802030008B5024B1B689B6A9D
:106FDC00019308BD2802030008B5024B1B68DB6A4D
:106FEC00019308BD2802030008B5024B1B681B6BFC
:106FFC00019308BD2802030008B5024B1B685B6BAC
:10700C00019308BD2802030008B5024B1B681B6CDA
:10701C00019308BD2802030008B5024B1B689B6C4A
:10702C00019308BD2802030008B5024B1B68DB6CFA
:10703C00019308BD2802030008B5024B1B681B6DA9
:10704C00019308BD2802030008B5024B1B689B691D
:10705C00019308BD3802030008B5024B1B68DB69BD
:10706C00019308BD3802030008B5024B1B681B6A6C
:10707C00019308BD3802030008B5024B1B689B6ADC
:10708C00019308BD3802030008B5024B1B681B6B4B
:10709C00019308BD3802030008B5024B1B689B6BBB
:1070AC00019308BD3802030008B5024B1B681B682E
:1070BC00019308BD4C02030008B5024B1B685B68CA
:1070CC00019308BD4C02030008B5024B1B681B69F9
:1070DC00019308BD4C02030008B5024B1B685B69A9
:1070EC00019308BD4C02030008B5024B1B689B6959
:1070FC00019308BD4C02030008B5024B1B68DB6909
:10710C00019308BD4C02030008B5024B1B681B6AB7
:10711C00019308BD4C02030008B5024B1B681B6DA4
:10712C00019308BD6002030008B5024B1B681B6885
:10713C00019308BD2002030008B5024B1B685B6875
:10714C00019308BD2002030008B5024B1B685B6964
:10715C00019308BD2002030008B5024B1B68DB6AD3
:10716C00019308BD2002030008B5024B1B689B6D00
:10717C00019308BD2002030008B5034B1B68D3F82C
:10718C008830019308BD00002002030008B5034BB2
:10719C001B68D3F89430019308BD00002002030053
:1071AC0008B5024B1B685B68019308BD40020300E5
:1071BC0008B5024B1B689B68019308BD4002030095
:1071CC0008B5024B1B68DB68019308BD4002030045
:1071DC0008B5024B1B681B69019308BD40020300F4
:1071EC0008B5024B1B685B69019308BD40020300A4
:1071FC0008B5024B1B689B69019308BD4002030054
:10720C0008B5024B1B68DB69019308BD4002030003
:10721C0008B5024B1B681B6A019308BD40020300B2
:10722C0008B5024B1B681B6B019308BD40020300A1
:10723C0008B5024B1B685B6B019308BD4002030051
:10724C0008B5024B1B689B68019308BD4402030000
:10725C0008B5024B1B685B69019308BD440203002F
:10726C0008B5024B1B68DB6A019308BD440203009E
:10727C0008B5024B1B681B6B019308BD440203004D
:10728C0008B5024B1B68DB6B019308BD440203007D
:10729C0008B5024B1B681B68019308BD1C02030058
:1072AC0008B5024B1B685B68019308BD1C02030008
:1072BC0008B5024B1B689B68019308BD1C020300B8
:1072CC0008B5024B1B685B6A019308BD1C020300E6
:1072DC0008B5024B1B68DB6B019308BD1C02030055
:1072EC00002211464068FFF793BF00221146406808
:1072FC00FFF79EBF00224068FFF792BF002281F08B
:10730C0001014068FFF77CBF00231A46194640680C
:10731C00FFF76EBF00231A4619464068FFF760BF9F
:10732C00002211464068FFF753BF00221146406807
:10733C00FFF73EBF002202214068FFF741BF002348
:10734C001A464068FFF72CBF024B03225A60024AD0
:10735C001A607047ACE10320B49A0D000021FFF7CE
:10736C0003BD0021FFF708BD10B5044601700846A7
:10737C00FFF7CAFC00236360204610BD10B504461D
:10738C000078FFF7EBFF48B920784FF6FF71FFF755
:10739C0093FC2078BDE81040FFF7E3BF10BD38B573
:1073AC00044600780D46FFF7D9FF40B920782946EE
:1073BC00FFF78AFC2078BDE83840FFF7D2BF38BD14
:1073CC0038B5044600780D46FFF7C8FF40B9207861
:1073DC002946FFF781FC2078BDE83840FFF7C1BF94
:1073EC0038BD0078FFF7BDBF400830B518600024E9
:1073FC0018688842E5B206D90134082C02D040083E
:10740C001860F5E70725024B5B5D137030BD00BFBC
:10741C00E09A0D002DE9F04307468FB000780E4638
:10742C00FFF79CFF002862DB3C781422002109A89E
:10743C0002F077F90B232046002209A9ADF824307D
:10744C00FFF772FC9DF82D4054B19DF82C5035B9C6
:10745C00DDF830809DF834909DF8354003E0002431
:10746C00A146A0460125337905B1BBB99D420BD18C
:10747C00B268424508D18DF820908DF82140BDF8B6
:10748C002010B289914209D053B10024387801946C
:10749C000094234622460121FFF75EFC002026E0E3
:1074AC008DF80F30B1680A9804AB0DF10F02FFF79D
:1074BC009BFF317905B1B1B9A94208D000243878C5
:1074CC000194747B337B9DF80F200094E4E7B36840
:1074DC004345F3D38DF820908DF82140BDF8202042
:1074EC00B3899A42EAD1049B4345E7D1D6E70FB062
:1074FC00BDE8F0832DE9F04188B000230446007804
:10750C0002930E461746FFF729FF054600BB94F879
:10751C0000800146142203A802F003F90B232A462B
:10752C0003A94046ADF80C30FFF7FEFB02AB0DF1A2
:10753C00070207FB06F104988DF80750FFF754FF7C
:10754C0020789DF80710FFF7CFFB2078FFF709FF95
:10755C00029808B0BDE8F08138B5044600780D46B5
:10756C00FFF7FCFEC8B9616871B10C4BC25CAA4252
:10757C0002D001300828F9D10130C0B2C14001223B
:10758C002046FFF7B7FF03E029462078FFF7ACFB56
:10759C002078BDE83840FFF7E4BE38BDE09A0D0016
:1075AC0008B50078FFF7A8FBC0B208BD30B587B0AE
:1075BC0004460A9D00780095FFF7BEFB3DB902A971
:1075CC002078FFF7C1FB9DF81430DB07F7D407B028
:1075DC0030BD0078FFF7A0BB10B50446006818B1A9
:1075EC00FFF75EFE0023236010BD10B50446FFF7C5
:1075FC00F3FF204610BD000010B5094C00204FF6DB
:10760C00FF732060A080A07120816381FFF794FD3F
:10761C002046044A0449BDE8104001F0E5BA00BF19
:10762C00B4E1032050DB0320F7750D0010B50446C0
:10763C000068FFF735FE204610BD10B50446006803
:10764C0008B1FFF72DFE00232360A360636010BD1B
:10765C0038B504460D4600680131FFF729FE10B11C
:10766C0084E82100012038BD10B50368044613B12D
:10767C0043688B4207D22046FFF7EAFF20B1A3688C
:10768C000BB922681370012010BD70B50E4611465F
:10769C0004461546FFF7E8FF18B92046FFF7CDFF63
:1076AC0009E02A463146A560206802F02FF82268CE
:1076BC00A3680021D154204670BD38B50023044680
:1076CC0003604360836003730D4639B1084602F0D2
:1076DC0059F8294602462046FFF7D7FF204638BD09
:1076EC0038B505460C4641B1084602F04BF8214628
:1076FC0002462846FFF7C9FF01E0FFF79EFF284628
:10770C0038BD10B50446006808B1FFF7D5FB20461C
:10771C0010BD000010B5064C002320462360FFF777
:10772C00C3FB2046034A0449BDE8104001F05CBA93
:10773C00C0E1032050DB03200F770D00F8B506469F
:10774C000D468F180024BD420CD0336815F8011B70
:10775C009B6830469847002801DB0444F3E7002C73
:10776C0008BF04462046F8BD08B5FEF7DBFB08BD94
:10777C0003689B68184738B50D210546FFF7F8FFDD
:10778C000A2104462846FFF7F3FF204438BD38B5DC
:10779C000546FEF7C7FB04462846FFF7ECFF2044DE
:1077AC0038BD30B58BB00B4600218DF82410012A62
:1077BC0098BF0A220DF12304B3FBF2F505FB12333B
:1077CC0003F0FF03092B94BF30333733DBB2214670
:1077DC0004F801392B46002DEED1FEF7A3FB0BB0BC
:1077EC0030BD0CB42DE9F04387B000AF07F138047D
:1077FC00054654F8049B3C600E4623464A46142129
:10780C00381DFFF75DFD132805D8391D2846FEF7F6
:10781C0089FB044613E000F1080323F00703E84654
:10782C00ADEB030D411C23464A4668463C60FFF70E
:10783C0047FD69462846FEF775FB0446C5461EB152
:10784C002846FFF798FF044420461C37BD46BDE888
:10785C00F04302B070470000014B024A1A607047B7
:10786C00C4E103205B9B0D0008B50020FFF700FD71
:10787C0028B1FFF7EDFC80F00100C0B208BD01207B
:10788C0008BD10B50020FFF7BFFA044668B9FFF732
:10789C004BFC01280BD12046FFF766FC38B9FFF7EB
:1078AC00E3FF30B9FFF7CCFCF9E7012010BD002055
:1078BC0010BDFFF7D9FF0020FFF7A6FA003018BF64
:1078CC00012010BD08B5FFF7DCFFBDE80840FFF74D
:1078DC007BBA0000024B1A68024B1A60704700BF5B
:1078EC00E8DA0320C8E103200021FFF72DBC10B516
:1078FC000446FDF7FAF9204610BD00000348044A7F
:10790C0004490023836001F06FB900BFCCE1032070
:10791C0050DB0320FB780D00007D7047037D1BB10D
:10792C008369B3F1004F02D19FED050A704707EE52
:10793C00903A9FED047AF8EEE77A87EE870A704763
:10794C00000000000000C842037D1BB1036AB3F1C4
:10795C00004F02D19FED050A704707EE903A9FED5C
:10796C00047AF8EEE77A87EE870A70470000000089
:10797C000000C842037D7BB1436A002B0CDB07EE91
:10798C00903ADFED076A9FED070AB8EEE77AC7EE8B
:10799C00267A27EE800A7047BFEE000A704700BFB8
:1079AC0000FF7F470000C842037D7BB1C369002BF9
:1079BC000CDB07EE903ADFED076A9FED070AB8EE95
:1079CC00E77AC7EE267A27EE800A7047BFEE000AE8
:1079DC00704700BF00FF7F470000C8422DE9F0410F
:1079EC0007460C4615462AB90368C9B29B68BDE820
:1079FC00F0411847002907DA0A2A05D12D21FFF793
:107A0C00B7FE6142064601E021460026EAB238463E
:107A1C00FFF7C7FE3044BDE8F08170B50D46064651
:107A2C000A2281682846FFF7D9FF2C2104462846F4
:107A3C00FFF79EFE0A220444F1682846FFF7CEFFAA
:107A4C00204470BDA0F10400FFF7E7BF006800F010
:107A5C0088BB10B50446016002710AB1FFF7F6FF4E
:107A6C00204610BD38B504460D4601F097F82A465D
:107A7C0001462046FFF7EDFF204638BD006800F0B8
:107A8C0079BB10B5037904460BB1FFF7F7FF20461D
:107A9C0010BDF8B5044616461D460F46FFF7D6FF37
:107AAC002068362100F052FB2068036839469B6839
:107ABC0098470121206800F04CFB0222362101235B
:107ACC00206800F02DFB206803685B6998473070D4
:107ADC00206803685B69984728702046BDE8F84029
:107AEC00FFF7CCBF07B502AB002203F8012D8DF8D0
:107AFC00062004210DF10602FFF7CBFF9DF80700CD
:107B0C0001F02EFB0022094B01F090FB01F0A0FDCF
:107B1C009DF8063000EE103A07EE900AB8EEC00A57
:107B2C0037EE800A03B05DF804FB00BF0000703F25
:107B3C0008B50C4B33B100F077F903681B69984713
:107B4C00002809DC084B63B100F06AFA03681B6972
:107B5C009847002803DC08BDAFF30080F2E7AFF3D1
:107B6C00008008BD000000000000000008B5FFF711
:107B7C00DFFFFFF721F9014B186008BD28E5032052
:107B8C000248034A0349121A01F0C0BD00F4032055
:107B9C0004F40320F09E0D0007B5002300931A4651
:107BAC006FF07701FFF7F2FA03B05DF804FB000009
:107BBC0007B543880A2B08D0502B09D1094B1B68F9
:107BCC003BB103B05DF804EB1847FFF7E5FF06E0A7
:107BDC00002300931A466FF07701FFF7D7FA03B032
:107BEC005DF804FBDCE1032038B5104C104D236824
:107BFC00AB42104B0CBF012200221A7002D0FFF7CF
:107C0C00BFFF2560FFF7C8F8044601F093FD0A4B4F
:107C1C0013B12046AFF3008000210748FFF730FB7B
:107C2C0000210648BDE83840FFF7A6BA00F403204F
:107C3C001E1C279AE0E1032000000000BD7B0D0014
:107C4C00704710B51821044600F0DCFF204610BD2B
:107C5C00F0B5037D062B8DB00E4600F104074FF0F6
:107C6C00000402D000F1080518E00CAD394605F807
:107C7C00304D2F232A460A20FFF72EF9284601F013
:107C8C0081FD33680246DB682946304698470FE091
:107C9C0024B12E213046FFF76BFD044415F8011D6D
:107CAC000A223046FFF77DFDBD420444F0D1204648
:107CBC000DB0F0BD10B5054B0446112240F8043B45
:107CCC00002101F02EFD204610BD00BF2C9C0D00A4
:107CDC000346074A10B543F8042B01F1100251F882
:107CEC00044B43F8044B9142F9D10A781A7010BD39
:107CFC002C9C0D00037D042B01D1406808E0062B61
:107D0C000AD1436853B9836843B9C36833B900696E
:107D1C00003018BF012070470020704701207047C9
:107D2C0010B59DF8084044EA032343EA024242EAB4
:107D3C00016104234160037510BD37B50D788B7854
:107D4C004A78C97800912946FFF7EAFF03B030BDA5
:107D5C0010B5034B03600446FFF7EFFF204610BD40
:107D6C002C9C0D0041747047704708B50021007CB5
:107D7C00FFF7BAF930EA200028BF4FF0FF3008BDFA
:107D8C0008B50121007CFFF7AFF930EA200028BFCD
:107D9C004FF0FF3008BD08B5007CFFF79DF920EAD5
:107DAC00E07008BD08B5007CFFF78EF920EAE070A2
:107DBC0008BD007CFFF7A8B910B51421044600F0EB
:107DCC0021FF204610BD38B50446007C0D46FFF758
:107DDC0083F9002801DC607C28B12946207CFFF760
:107DEC008BF920EAE07038BD10B5044600236360BF
:107DFC004FF47A73A360054B23600123084621746A
:107E0C0063741146FFF750F9204610BD409C0D00DD
:107E1C000022007CFFF750B910B514220446002153
:107E2C0001F07FFC204610BD30B50E4D87B001A887
:107E3C00FFF7F2FF296811F0010410D12846FCF776
:107E4C002CF960B101AA21460748FFF7CDFF28465F
:107E5C00FCF728F9054A0649034800F0C5FE02481C
:107E6C0007B030BDE4E10320E8E1032050DB032040
:107E7C00757D0D0000470000F0B585B01C460E4620
:107E8C0017460546FEF700FF002084424FF004031E
:107E9C0003908DF80C30A5BF9DF828308DF80E306E
:107EAC00034603AB009332463B460649A8BF8DF808
:107EBC000D402846FEF7E0FEB0FA80F0400905B010
:107ECC00F0BD00BF817E0D00FEF7EEBEFEF7E4BEF6
:107EDC00002211464068FFF77BB90022114640682A
:107EEC00FFF796B9002211464068FFF7A1B90022AE
:107EFC004068FFF795B9002281F001014068FFF757
:107F0C007FB900231A4619464068FFF771B9002360
:107F1C001A4619464068FFF763B9002211464068BB
:107F2C00FFF746B9002202214068FFF749B9002348
:107F3C001A464068FFF734B938B5084C28252A464C
:107F4C000021204601F0EDFB4FF0FF336360044B42
:107F5C00258004225A60034A1A6038BD04E20320CB
:107F6C00FCE10320709C0D0070474174704708B50C
:107F7C00007CFFF701F820EAE07008BD08B5007C32
:107F8C00FEF7D2FF20EAE07008BD08B5007CFEF7D2
:107F9C00DBFF30EA200028BF4FF0FF3008BD08B5EA
:107FAC00007CFEF7C9FF30EA200028BF4FF0FF30FD
:107FBC0008BD007CFEF7D0BF10B51421044600F0BC
:107FCC0021FE204610BD70B5457C04460E4625B9F1
:107FDC00007CFEF7D1FF002805DD3146207CBDE892
:107FEC007040FEF799BF284670BD000010B50446DE
:107FFC0008461146002262604FF47A72A260054A6C
:10800C0022600122207462741A46FEF77DFF20461E
:10801C0010BD00BFA49C0D00007CFEF7A5BF0000A6
:10802C0038B50C4D296811F0010411D12846FCF724
:10803C0034F868B1084A094B09482146FFF7D6FFC6
:10804C002846FCF72FF8074A0749054800F0CCFDF5
:10805C00034838BDC4E20320C8E2032040E20320F9
:10806C002CE2032050DB0320757F0D007047F8B520
:10807C00064615460C468F18BC4206D0336814F8D9
:10808C00011B9B6830469847F6E72846F8BD00224E
:10809C00007CFEF789BF0021007CFEF78DBF00211C
:1080AC00007CFEF791BF0021007CFEF795BF0021FC
:1080BC00007CFEF799BF10B51421044600F0A2FD18
:1080CC00204610BD10B50446002363604FF47A734C
:1080DC00A360044B2174084623601146FEF794FFFD
:1080EC00204610BDD49C0D0070B50C4686B01425EE
:1080FC0006462A46002101A801F013FB23788DF8CF
:10810C00083063680393E36804930022237A307C7D
:10811C00ADF8045001A90593FEF78EFF06B070BDB3
:10812C001FB500338DF800104FF06401039118BF98
:10813C000123694601928DF80830FFF7D5FF05B091
:10814C005DF804FB0022007CFEF71EBFC9B2FFF7EE
:10815C00F9BF0022007CFEF71FBF0021007CFEF758
:10816C004BBF08B50021007CFEF756FFB0FA80F03B
:10817C00400908BD08B50021007CFEF755FFB0FA98
:10818C0080F0400908BD002211464068FFF740B856
:10819C00002211464068FFF74BB800224068FFF7F9
:1081AC003FB8002281F001014068FFF729B8002395
:1081BC001A4601214068FFF71BB800231A461946DE
:1081CC004068FFF70DB8002211464068FFF700B871
:1081DC00002211464068FEF7EBBF002202214068E6
:1081EC00FEF7EEBF00231A464068FEF7D9BF38B53C
:1081FC00054688B104684CB1A3681BB10322214623
:10820C00204698471021204600F0FCFC28461421FB
:10821C00BDE8384000F0F6BC38BD10B103685B68AF
:10822C001847704710B503680446BBB15868FEF791
:10823C00F3FD78B923685A7C12B95868FEF7FCFD37
:10824C0023685868FEF700FE20680023236028B1DD
:10825C00FFF7CDFF206808B1FFF7C9FF204610BD1E
:10826C0038B50446D0F8C40108B1FBF714FFD4F8B4
:10827C00C00108B1FEF720FED4F8BC5135B1284638
:10828C00FFF7D0FF0421284600F0BCFC206808B1A1
:10829C00FFF7C3FF204638BD10B5044B044640F829
:1082AC00083BFFF7DDFF204610BD00BFFC9C0D0016
:1082BC0038B50E4C0E4B23600025022304F5E470F8
:1082CC006360A560C4F8C451C4F8C851FEF7ECFD56
:1082DC00084BC4F8CC5184F8D05123602046064A90
:1082EC000649BDE8384000F07FBC00BF4CE30320DA
:1082FC00B09D0D00FC9C0D0050DB0320A5820D00F1
:10830C0037B502AC036804F8011DDD6B01224FF098
:10831C00FF332146A84703B030BD10B40368DC6BB3
:10832C004FF0FF33A4465DF8044B604737B502AC01
:10833C00036804F8011DDD6B214613460122A84792
:10834C0003B030BD704738B543691A68002A04463B
:10835C0005DAB3F88620B3F884309A4201D00125AF
:10836C000BE003681B699847002814BF0125002502
:10837C0003D123682046DB6A9847284638BD4369F9
:10838C001868C043C00F704770470020704710B585
:10839C001421044600F036FC204610BDFBF779BED4
:1083AC007FB5164600224260029203925A1C044684
:1083BC000D4608D04FF47A72B3FBF2F1029102FB36
:1083CC0011314A43039260690823009341F205027C
:1083DC006B4440F6FF710068FEF736FE002808DBA0
:1083EC0060690023324629460068FEF74DFE0028DE
:1083FC0004DAFEF76DFF03686360002004B070BD03
:10840C0010B5036804469B689847A368013BA360BA
:10841C002BB923682046DB68BDE81040184710BD17
:10842C0070B504464D69054B44F8043B8C35064643
:10843C000FCD0FC42B682370304670BD2C9C0D00E3
:10844C0010B54369B3F88620B3F884309A420446D9
:10845C0005D06269B2F884301344187910BD0368F2
:10846C001B6998470028F4D14FF0FF3010BD10B5B0
:10847C004369B3F88620B3F884309A42044608D096
:10848C006269B2F88430591C1344A2F8841018792C
:10849C0010BD03681B6998470028F1D14FF0FF30DD
:1084AC0010BDF8B543691746B3F88620B3F884308D
:1084BC009A4205460E4606D103681B69984710B9C7
:1084CC004FF0FF3414E06969B1F88430B1F886409C
:1084DC00E41ABC4228BF3C461944224604313046BB
:1084EC0001F014F96A69B2F884302344A2F884309C
:1084FC002046F8BD2DE9F0439846036893B0DB6A3B
:10850C000D4606461746984712AB002443F8484DD3
:10851C00224621462846FEF77FFB814600283DD1A6
:10852C00009B002B56D05B69002B53D006A8FFF79D
:10853C00C1FB009B5C696378022B01D1211D13E008
:10854C000A2B14D11122494601A801F0EAF8A368BC
:10855C0033BBE36823BB4FF6FF702569FEF7C4FC01
:10856C0085421DD104F1140106A8FFF7E6FB06A80D
:10857C00FFF7C0FB00282DD0336807ADD3F820904F
:10858C00184B0C930FCD0DAC0FC42B6823703A46CF
:10859C0043460CA93046C84781461BE0A14619E06A
:1085AC0004F1080301AD1834186859682A4603C24F
:1085BC000833A3421546F7D1062301A90CA80DAD2B
:1085CC008DF81430FFF784FB0FCD07AC0FC42B686C
:1085DC002370CCE70098FEF717FB484613B0BDE8B4
:1085EC00F08300BF2C9C0D0042690023A2F884305C
:1085FC004269A2F8863070472DE9F0411E460368A7
:10860C000C468AB0DB6A054617469847237DD5F899
:10861C001480042B0CBF02200A2006220121FEF735
:10862C003BFDC8F800006B691B68002B18DB284663
:10863C00FFF7DAFFD6B1002303A9F0B20393ADF82C
:10864C001030FEF7A1FB58B968690623009341F27C
:10865C000B0203AB40F6FF710068FEF7F5FC28B186
:10866C002B682846DB6A002498473BE01C263246E0
:10867C00002103A801F055F8237D8DF80C60042B24
:10868C000CD1022338468DF80D30FEF735FCADF8D1
:10869C000E006068FEF728FC049013E00A233846AD
:1086AC008DF80D30FEF728FC05AEADF80E00231D3D
:1086BC0004F1140718685968324603C20833BB42E8
:1086CC001646F7D16B691C2203A91868FEF7CCFC7F
:1086DC000028C5D104340FCC6D698C350FC52368C7
:1086EC002B70012420460AB0BDE8F08110B5436917
:1086FC0004461868002801DBFEF7AEFC63694FF0F6
:10870C00FF321A606069112200218C3001F009F8E7
:10871C002046BDE81040FFF767BF000030B5426946
:10872C00B2F886308BB004461BB1B2F884209A4262
:10873C0040D06369186800283FDBB3F886507F2D62
:10874C003BD8191DC5F1800208232944FEF794FC7F
:10875C0000280CDD6369B3F886200AB9A3F88420DD
:10876C006269B2F886301844A2F8860025E0FEF75C
:10877C00AFFD03680B2B20D0FEF7AAFD03680B2B73
:10878C001BD02023002502930395FEF7A1FD03685F
:10879C0001930E4B009302AA2B460D493220FEF793
:1087AC00BBFC63691868FEF757FC63694FF0FF3236
:1087BC001A6002E0FFF718FFBBE76269B2F8863077
:1087CC00B2F88400181A0BB030BD00BF979D0D0095
:1087DC00909D0D0010B5002304460160A0F8843074
:1087EC00A0F886308830FFF765FA204610BD0000EF
:1087FC004FF47A7270B500238260144A43600260B1
:10880C00436183610446A0200E46FBF73EFC0546FF
:10881C0010B13146FFF7DEFF1420FBF736FC0346A0
:10882C0028B1012242608260094A02600561A06998
:10883C006561A36128B14368013B43600BB9FFF745
:10884C00DFFD2046FFF7D0FE204670BD4C9D0D008D
:10885C00309D0D0010B54FF0FF310446FFF7C8FFF7
:10886C00204610BD10B504460068002801DBFEF759
:10887C00F3FB204610BD10B504692046FFF7F2FF4C
:10888C0024B12046BDE81040FBF703BC10BD00230B
:10889C001A464068FEF784BC002202214068FEF7AD
:1088AC008FBC002211464068FEF782BC00221146A4
:1088BC004068FEF78DBC00231A4619464068FEF747
:1088CC008FBC00231A4619464068FEF791BC002263
:1088DC0081F001014068FEF793BC00224068FEF76E
:1088EC009FBC002211464068FEF7A2BC0022114634
:1088FC004068FEF78DBC2DE9F043002495B0164678
:10890C000D460746FFF7D6F9214620220CA8009405
:10891C0000F007FF40230C9321466B460CAA30460F
:10892C00FEF77AF90446002844D102460121686812
:10893C00FEF74EFC0221804622466868FEF748FC92
:10894C00009E81462146002E34D0002932D1736816
:10895C00022B02D00A2B09D02AE0B8F1000F27D045
:10896C00716938460431FFF7E8F920E0B9F1000FDE
:10897C001ED07469112201A800F0D3FE06238DF8D5
:10898C00143001AD04F108031834186859682A46EC
:10899C0003C20833A3421546F7D101A906A807ADB7
:1089AC00FFF796F90FCD3C1D0FC42B6823700121E6
:1089BC00F669C8E70098FEF727F9384615B0BDE808
:1089CC00F0830000024B034A1A6000225A60704781
:1089DC0020E50320B09D0D0070B5184E316811F0E4
:1089EC00010504460AD13046FBF757FB30B1294646
:1089FC001348FEF7B9FC3046FBF754FB1048FEF762
:108A0C00E8FD28B1A4F10B03022B01D8002070BDA6
:108A1C0000F09EF8FFF7A1FB08B1012CF6D9FFF787
:108A2C00FFFAFFF7F9FA18B1A4F10903012BEDD9FC
:108A3C00232C8CBF0020012070BD00BFE4DB032081
:108A4C00E8DB0320232838B504460D460AD8FF2955
:108A5C0008D0FFF7C1FF28B129462046BDE83840B1
:108A6C00FEF7EAB838BD38B504460D46FEF7ECF80B
:108A7C00FF2810D0062804D84D2323FA00F0C30792
:108A8C0009D42046FFF7A8FF28B129462046BDE8A7
:108A9C003840FEF7E1B838BD10B50446FEF7D4F8FF
:108AAC000438C0B2012808D92046FFF795FF20B141
:108ABC002046BDE81040FEF7D7B8002010BD0000DE
:108ACC0010B5074C2368DB0708D42046FBF7E5FA02
:108ADC0020B1FEF781F92046FBF7E4FA014810BDFE
:108AEC002CE5032030E5032070B5044614252A46F6
:108AFC00094E002100F015FE258020253146A56089
:108B0C002561284600F080F831466060284600F068
:108B1C007BF8E060204670BDDC9D0D0070B504460E
:108B2C0014252A46094E002100F0FBFD2580202546
:108B3C003146A5602561284600F066F83146606034
:108B4C00284600F061F8E060204670BDDC9D0D0009
:108B5C0030B50E4D296811F0010487B013D12846A9
:108B6C00FBF79BFA78B101A8FFF7BEFF01AA2146DB
:108B7C000748FFF7A7FA2846FBF794FA054A064977
:108B8C00034800F031F8024807B030BD34E503204B
:108B9C004CE5032050DB032079800D0010B50E4C02
:108BAC002368DB0786B013D42046FBF776FA78B13E
:108BBC0001A8FFF7B3FF01AA01210848FFF782FAC9
:108BCC002046FBF76FFA064A0649044800F00CF8F9
:108BDC00024806B010BD00BF60E5032038E5032055
:108BEC0050DB032079800D000B460146184600F03F
:108BFC007FBD0000024B1868BFF35F8F704700BF4A
:108C0C0064E50320FBF745BA00F000B810B5002866
:108C1C0014BF044601242046FEF73AFB20B9FFF7A7
:108C2C00E9FF08B18047F6E710BD0000184B1A6841
:108C3C00D1075CBF01221A60164B1A68D2075CBFC1
:108C4C0001221A60144B1A68D0075CBF01221A600B
:108C5C00124B1A68D1075CBF01221A60104B1A68BC
:108C6C00D2075CBF01221A600E4B1A68D0075CBF9A
:108C7C0001221A600C4B1A68D1075CBF01221A60E2
:108C8C000A4B1A68D2075CBF01221A60704700BFFA
:108C9C0084E5032080E503207CE5032078E50320B0
:108CAC0074E5032070E503206CE5032068E50320E0
:108CBC00244B1A68D0075CBF01221A60224B1A6839
:108CCC00D1075CBF01221A60204B1A68D2075CBF27
:108CDC0001221A601E4B1A68D0075CBF01221A6071
:108CEC001C4B1A68D1075CBF01221A601A4B1A6818
:108CFC00D2075CBF01221A60184B1A68D0075CBF00
:108D0C0001221A60164B1A68D1075CBF01221A6047
:108D1C00144B1A68D2075CBF01221A60124B1A68F6
:108D2C00D0075CBF01221A60104B1A68D1075CBFD8
:108D3C0001221A600E4B1A68D2075CBF01221A601E
:108D4C00704700BFB4E50320B0E50320ACE5032079
:108D5C00A8E50320A4E50320A0E503209CE503205F
:108D6C0098E5032094E5032090E503208CE503208F
:108D7C0088E50320244B1A68D0075CBF01221A60D7
:108D8C00224B1A68D1075CBF01221A60204B1A686B
:108D9C00D2075CBF01221A601E4B1A68D0075CBF59
:108DAC0001221A601C4B1A68D1075CBF01221A60A1
:108DBC001A4B1A68D2075CBF01221A60184B1A684A
:108DCC00D0075CBF01221A60164B1A68D1075CBF32
:108DDC0001221A60144B1A68D2075CBF01221A6078
:108DEC00124B1A68D0075CBF01221A60104B1A682C
:108DFC00D1075CBF01221A600E4B1A68D2075CBF08
:108E0C0001221A60704700BFE4E50320E0E503206F
:108E1C00DCE50320D8E50320D4E50320D0E50320CE
:108E2C00CCE50320C8E50320C4E50320C0E50320FE
:108E3C00BCE50320B8E50320184B1A68D1075CBFCA
:108E4C0001221A60164B1A68D2075CBF01221A6005
:108E5C00144B1A68D0075CBF01221A60124B1A68B7
:108E6C00D1075CBF01221A60104B1A68D2075CBF95
:108E7C0001221A600E4B1A68D0075CBF01221A60DF
:108E8C000C4B1A68D1075CBF01221A600A4B1A6896
:108E9C00D2075CBF01221A60704700BF04E60320B2
:108EAC0000E60320FCE50320F8E50320F4E50320AD
:108EBC00F0E50320ECE50320E8E5032081F0004118
:108ECC0002E000BF83F0004330B54FEA41044FEAA3
:108EDC00430594EA050F08BF90EA020F1FBF54EA3E
:108EEC00000C55EA020C7FEA645C7FEA655C00F0DA
:108EFC00E2804FEA5454D4EB5555B8BF6D420CDDAB
:108F0C002C4480EA020281EA030382EA000083EA2D
:108F1C00010180EA020281EA0303362D88BF30BDCD
:108F2C0011F0004F4FEA01314FF4801C4CEA113123
:108F3C0002D0404261EB410113F0004F4FEA033382
:108F4C004CEA133302D0524263EB430394EA050F0D
:108F5C0000F0A780A4F10104D5F1200E0DDB02FA7C
:108F6C000EFC22FA05F2801841F1000103FA0EF210
:108F7C00801843FA05F359410EE0A5F120050EF1D6
:108F8C00200E012A03FA0EFC28BF4CF0020C43FA07
:108F9C0005F3C01851EBE37101F0004507D54FF014
:108FAC00000EDCF1000C7EEB00006EEB0101B1F564
:108FBC00801F1BD3B1F5001F0CD349085FEA3000AA
:108FCC004FEA3C0C04F101044FEA445212F5800FB5
:108FDC0080F09A80BCF1004F08BF5FEA500C50F152
:108FEC00000041EB045141EA050130BD5FEA4C0C35
:108FFC00404141EB010111F4801FA4F10104E9D1BE
:10900C0091F0000F04BF01460020B1FA81F308BFB4
:10901C002033A3F10B03B3F120020CDA0C3208DD80
:10902C0002F1140CC2F10C0201FA0CF021FA02F15B
:10903C000CE002F11402D8BFC2F1200C01FA02F1CB
:10904C0020FA0CFCDCBF41EA0C019040E41AA2BFF0
:10905C0001EB0451294330BD6FEA04041F3C1CDAB8
:10906C000C340EDC04F11404C4F1200220FA04F0D8
:10907C0001FA02F340EA030021FA04F345EA030182
:10908C0030BDC4F10C04C4F1200220FA02F001FA44
:10909C0004F340EA0300294630BD21FA04F02946C6
:1090AC0030BD94F0000F83F4801306BF81F480115F
:1090BC000134013D4EE77FEA645C18BF7FEA655CD2
:1090CC0029D094EA050F08BF90EA020F05D054EAA4
:1090DC00000C04BF1946104630BD91EA030F1EBFA9
:1090EC000021002030BD5FEA545C05D140004941AD
:1090FC0028BF41F0004130BD14F580043CBF01F5A0
:10910C00801130BD01F0004545F0FE4141F4700185
:10911C004FF0000030BD7FEA645C1ABF1946104660
:10912C007FEA655C1CBF0B46024650EA013406BF61
:10913C0052EA033591EA030F41F4002130BD00BF20
:10914C0090F0000F04BF0021704730B54FF48064DD
:10915C0004F132044FF000054FF0000150E700BF5E
:10916C0090F0000F04BF0021704730B54FF48064BD
:10917C0004F1320410F0004548BF40424FF00001AA
:10918C003EE700BF42004FEAE2014FEA31014FEAED
:10919C0002701FBF12F07F4393F07F4F81F060513C
:1091AC00704792F0000F14BF93F07F4F704730B5AB
:1091BC004FF4607401F0004521F0004120E700BF3E
:1091CC0050EA010208BF704730B54FF000050AE0C5
:1091DC0050EA010208BF704730B511F0004502D5C6
:1091EC00404261EB41014FF4806404F132045FEAC8
:1091FC00915C3FF4DCAE4FF003025FEADC0C18BF6D
:10920C0003325FEADC0C18BF033202EBDC02C2F162
:10921C00200300FA03FC20FA02F001FA03FE40EAF4
:10922C000E0021FA02F11444C1E600BF70B54FF0F4
:10923C00FF0C4CF4E06C1CEA11541DBF1CEA1355D6
:10924C0094EA0C0F95EA0C0F00F0DEF82C4481EA3E
:10925C00030621EA4C5123EA4C5350EA013518BF5E
:10926C0052EA033541F4801143F4801338D0A0FB4B
:10927C0002CE4FF00005E1FB02E506F00042E0FBF8
:10928C0003E54FF00006E1FB03569CF0000F18BFFE
:10929C004EF0010EA4F1FF04B6F5007F64F54074A6
:1092AC0004D25FEA4E0E6D4146EB060642EAC62139
:1092BC0041EA55514FEAC52040EA5E504FEACE2EA6
:1092CC00B4F1FD0C88BFBCF5E06F1ED8BEF1004FA9
:1092DC0008BF5FEA500E50F1000041EB045170BD25
:1092EC0006F0004646EA010140EA020081EA030169
:1092FC00B4EB5C04C2BFD4EB0C0541EA045170BD65
:10930C0041F480114FF0000E013C00F3AB8014F1DE
:10931C00360FDEBF002001F0004170BDC4F1000427
:10932C00203C35DA0C341BDC04F11404C4F12005A8
:10933C0000FA05F320FA04F001FA05F240EA020003
:10934C0001F0004221F0004110EBD37021FA04F639
:10935C0042EB06015EEA430E08BF20EAD37070BDF3
:10936C00C4F10C04C4F1200500FA04F320FA05F052
:10937C0001FA04F240EA020001F0004110EBD37054
:10938C0041F100015EEA430E08BF20EAD37070BDC4
:10939C00C4F1200500FA05F24EEA020E20FA04F39D
:1093AC0001FA05F243EA020321FA04F001F000414C
:1093BC0021FA04F220EA020000EBD3705EEA430EBD
:1093CC0008BF20EAD37070BD94F0000F0FD101F0EC
:1093DC000046400041EB010111F4801F08BF013C25
:1093EC00F7D041EA060195F0000F18BF704703F063
:1093FC000046520043EB030313F4801F08BF013DEA
:10940C00F7D043EA0603704794EA0C0F0CEA1355A5
:10941C0018BF95EA0C0F0CD050EA410618BF52EA5F
:10942C004306D1D181EA030101F000414FF0000065
:10943C0070BD50EA410606BF1046194652EA430673
:10944C0019D094EA0C0F02D150EA013613D195EAE7
:10945C000C0F05D152EA03361CBF104619460AD12F
:10946C0081EA030101F0004141F0FE4141F4700139
:10947C004FF0000070BD41F0FE4141F4780170BD29
:10948C0070B54FF0FF0C4CF4E06C1CEA11541DBF8E
:10949C001CEA135594EA0C0F95EA0C0F00F0A7F890
:1094AC00A4EB050481EA030E52EA03354FEA0131BD
:1094BC0000F088804FEA03334FF0805545EA1313D0
:1094CC0043EA12634FEA022245EA111545EA106598
:1094DC004FEA00260EF000419D4208BF964244F12F
:1094EC00FD0404F5407402D25B084FEA3202B61A4E
:1094FC0065EB03055B084FEA32024FF480104FF422
:10950C00002CB6EB020E75EB030E22BFB61A754695
:10951C0040EA0C005B084FEA3202B6EB020E75EB28
:10952C00030E22BFB61A754640EA5C005B084FEA90
:10953C003202B6EB020E75EB030E22BFB61A75465D
:10954C0040EA9C005B084FEA3202B6EB020E75EB68
:10955C00030E22BFB61A754640EADC0055EA060E29
:10956C0018D04FEA051545EA16754FEA06164FEA6C
:10957C00C30343EA52734FEAC2025FEA1C1CC0D118
:10958C0011F4801F0BD141EA00014FF000004FF0A5
:10959C00004CB6E711F4801F04BF01430020B4F166
:1095AC00FD0C88BFBCF5E06F3FF6AFAEB5EB030C1E
:1095BC0004BFB6EB020C5FEA500C50F1000041EB1B
:1095CC00045170BD0EF0004E4EEA113114EB5C04E8
:1095DC00C2BFD4EB0C0541EA045170BD41F48011BB
:1095EC004FF0000E013C90E645EA060E8DE60CEAC3
:1095FC00135594EA0C0F08BF95EA0C0F3FF43BAFE0
:10960C0094EA0C0F0AD150EA01347FF434AF95EA96
:10961C000C0F7FF425AF104619462CE795EA0C0F7A
:10962C0006D152EA03353FF4FDAE1046194622E747
:10963C0050EA410618BF52EA43067FF4C5AE50EA21
:10964C0041047FF40DAF52EA43057FF4EBAE12E711
:10965C004FEA4102B2F1E04324BFB3F5001CDCF148
:10966C00FE5C0DD901F0004C4FEAC0024CEA507080
:10967C00B2F1004F40EB830008BF20F001007047AF
:10968C0011F0804F21D113F13872BCBF01F00040B2
:10969C00704741F480114FEA5252C2F11802C2F1E4
:1096AC00200C10FA0CF320FA02F018BF40F0010065
:1096BC004FEAC1234FEAD32303FA0CFC40EA0C0017
:1096CC0023FA02F34FEA4303CCE77FEA625307D154
:1096DC0050EA01331EBF4FF0FE4040F4400070478B
:1096EC0001F0004040F0FE4040F40000704700BF25
:1096FC0010B5054C13462CB10A4601460220AFF3B7
:10970C00008010BD204610BD0000000010B5431EA7
:10971C000A44914204D011F8014B03F8014FF8E7C9
:10972C0010BD02440346934202D003F8011BFAE732
:10973C007047000038B5124B1C68A36B0546D3B9B3
:10974C001820FDF7A5FD43F20E33A06303804AF603
:10975C00CD33438041F2342383804EF26D63C3805A
:10976C004DF6EC630381052343810B238381012296
:10977C000023C0E90423A36B00221D615A6138BD8C
:10978C004CDB0320034613F8012B002AFBD1181ADB
:10979C00013870471D400D0059400D0085400D00EB
:1097AC0089400D0000000000535441525400300019
:1097BC007D0A0053455249414C20444154412053A9
:1097CC00455454494E4753202D2D3E207B004F507D
:1097DC002053544154453A005245504F5254494E2F
:1097EC004720494E54455256414C3A20004441546E
:1097FC0041205245534F4C5554494F4E3A2000533B
:10980C00455249414C204E554D4245523A20004D4F
:10981C005154542042524F4B45523A20004D515412
:10982C00542042524F4B455220504F52543A200034
:10983C00434845434B53554D3A2000536574746966
:10984C006E6773205361766564207375636365730B
:10985C007366756C6C790053455454494E475320CC
:10986C004641494C4544004E4557204D51545420D7
:10987C0042524F4B4552205345543A200052656397
:10988C006F6E6E656374696E6720746F2042726FC1
:10989C006B6572005055424C495348204641494C27
:1098AC004544000A4465766963652049443A2000C2
:1098BC000A54657374696E6720454550524F4D3A92
:1098CC00000A507265737320627574746F6E206633
:1098DC006F723A2000205365636F6E6473000A54F4
:1098EC00657374696E6720427574746F6E3A000A02
:1098FC0054657374696E672056616C76653A000A1C
:10990C0054657374696E6720534420436172643AE2
:10991C00000A54657374696E6720526164696F3A0A
:10992C00000A556E6B6E6F776E20636F6D6D616E96
:10993C0064005553494E472044454641554C5420EC
:10994C0053455454494E4753005553494E472053A1
:10995C00455454494E47532046524F4D204D454D8A
:10996C004F525900746573742E62726F6B65722E50
:10997C00636F6D000000000000000000294D0D0019
:10998C00714D0D00AF4C0D000000000000000000F8
:10999C005D4E0D0000000000000000005B4E0D004D
:1099AC00F34E0D00CD4E0D00C14E0D003D4E0D0081
:1099BC00374F0D00BB4E0D00B54E0D0000000000E2
:1099CC0000000000594E0D00E54E0D00014F0D003A
:1099DC00C74E0D0064656661756C7420004D534272
:1099EC00004C5342003C53504953657474696E6784
:1099FC00732064656661756C743E003C535049532A
:109A0C00657474696E6773202573256C75202573D6
:109A1C00204D4F444525643E0025303258253032C8
:109A2C005825303258253032582E4C4F47002F00D5
:109A3C0052464D363920494E4954204552524F52C8
:109A4C00004E4557204E4F44452049443A20004E85
:109A5C004557204E4554574F524B2049443A20000D
:109A6C004947482D52464D36394843572D4B455999
:109A7C00003C544553543E003C544553543A4F4BD0
:109A8C003E0000044D5154540400064D514973647A
:109A9C0070030000000000000000000075680D005D
:109AAC0000000000000000004B730D0041730D001E
:109ABC0037730D002D730D0021730D0015730D0000
:109ACC0009730D0001730D00F7720D00ED720D009E
