:02000002D0002C
:1040000000400D0008B60D00000006000D0005017F
:084010000401E80500000000B6
:044018004CAD0D009E
:10401C0009480A49884208B505D0094A824202D0AB
:10402C00121A06F034FE0748074A0021121A06F04D
:10403C0039FE014808BD00BF54DA032044B50D0019
:10404C00F0DA0320F0DA0320F0E7032070B505F076
:10405C007DF8074C074BE41AA40800251E46A54220
:10406C0004D056F8253098470135F8E770BD00BFED
:10407C0038B50D0094B40D0000F0A4BA08B500F0EA
:10408C00A3FABDE8084005F023B804F055BB04F0D2
:10409C0053BB04F059BB04F057BB0078B0FA80F066
:1040AC004009704701230370704700002DE9F84F59
:1040BC00A84FDFF8B082DFF8B09205468B469246E7
:1040CC00D34580F0918105EB0B030BF102045E7874
:1040DC0015F80B30013BE4B2392B00F27F81DFE89D
:1040EC0013F03A00520063004400740086007D0116
:1040FC007D017D017D017D017D017D017D017D01C4
:10410C009400A800BC00D000E400F80015011E01CA
:10411C0030014E0160017D017D017D017D017D013C
:10412C007D017D017D017D017D017D017D017D0193
:10413C007D017D017D017D017D017D017D017D0183
:10414C009E00B200C600DA00EE0002010C0127014D
:10415C00450157016F01012E40F049812B5D032B66
:10416C0000F23C8188F8013038E10C2E40F03F81A0
:10417C002C44794B2068616803C3A0681860774BA6
:10418C0001221A702AE1042E40F0318129192A5D8E
:10419C004B781B0403EB0263CA7813448A7803EB55
:1041AC000223C8F8043019E1042E40F020812919AB
:1041BC002A5D4B781B0403EB0263CA7813448A789C
:1041CC0003EB0223C8F8083008E11F2E00F20F8120
:1041DC0020220021624806F065FD3246291960480C
:1041EC0006F055FD08EB060300221A7609E0022EB4
:1041FC0040F0FD802B192A5D5B7803EB0223A8F8B5
:10420C003830012389F80030E8E0022E40F0EF80CE
:10421C002B192A5D5B7803EB02237B80DEE0022EF8
:10422C0040F0E5802B192A5D5B7803EB0223BB83FE
:10423C00D4E0022E40F0DB802B192A5D5B7803EB77
:10424C000223BB80CAE0022E40F0D1802B192A5DDC
:10425C005B7803EB0223FB83C0E0022E40F0C780A7
:10426C002B192A5D5B7803EB0223FB80B6E0022E50
:10427C0040F0BD802B192A5D5B7803EB02233B8455
:10428C00ACE0022E40F0B3802B192A5D5B7803EB77
:10429C0002233B81A2E0022E40F0A9802B192A5D5B
:1042AC005B7803EB02237B8498E0022E40F09F8026
:1042BC002B192A5D5B7803EB02237B818EE0022EA7
:1042CC0040F095802B192A5D5B7803EB0223BB84AD
:1042DC0084E0022E40F08B802B192A5D5B7803EB77
:1042EC000223BB817AE0022E40F081802B192A5DDB
:1042FC005B7803EB0223FB8470E0022E77D12B1941
:10430C002A5D5B7803EB02233B8567E0022E6ED1BE
:10431C002B192A5D5B7803EB0223FB815EE0022EF6
:10432C0065D12B192A5D5B7803EB02233B8255E0A8
:10433C00022E5CD12B192A5D5B7803EB02237B8563
:10434C004CE0022E53D12B192A5D5B7803EB022330
:10435C007B8243E05CE6032028E60320F5DA0320A9
:10436C0034E603201CE6032054DA0320022E3ED14F
:10437C002B192A5D5B7803EB0223BB852EE0022E02
:10438C0035D12B192A5D5B7803EB0223BB8225E028
:10439C00022E2CD12B192A5D5B7803EB0223FB85B3
:1043AC001CE0042E23D129192A5D4B781B0403EB46
:1043BC000263CA7813448A7803EB0223BB610DE0D5
:1043CC00042E14D129192A5D4B781B0403EB0263CC
:1043DC00CA7813448A7803EB02233B63B31C0BEBC0
:1043EC0003065FFA86FB6BE60120BDE8F88F002020
:1043FC00BDE8F88F10B5421C0023C9B2141AA142B3
:10440C0003DD12F8014B2344F8E7D8B210BD0000CD
:10441C0010B5827C0AB9002010BD1332D2B2132120
:10442C00FFF744FE0028F6D0074C3C212046FFF74E
:10443C00E1FF2070054C34212046FFF7DBFF044BD5
:10444C0020700120187010BD1CE603205CE60320D0
:10445C00F4DA0320427C0F2A03D0102A08D1FFF78C
:10446C00D7BFC37C012B03D8024A012013707047BD
:10447C000020704758E60320F8B5324C3C2200214E
:10448C00204606F00FFC304A4FF4E1631068516887
:10449C0063604FF41673A36004F10C0303C39068BC
:1044AC0018602A4B04F1180203F1100618685968B9
:1044BC00154603C50833B3422A46F7D11B882B8017
:1044CC003C2140F25B731F482387FFF793FF20705A
:1044DC001F4C1C4E1F4F34220021204606F0E2FBDD
:1044EC00FF2334212046A383E38323846384A384A2
:1044FC00E38423856385A385E3852363FFF77AFF34
:10450C0020700FCE3D460FC50FCE0FC50FCE0FC579
:10451C0096E8070085E807000FCC0F4E35460FC50F
:10452C000FCC0FC50FCC0FC523682B603C21384630
:10453C00FFF760FF342138703046FFF75BFF3070B7
:10454C00F8BD00BFB4E6032067DA032055DA032078
:10455C00E4E503201CE603205CE6032038B5437831
:10456C0004463BB302783C2A24D1034413F8013CA3
:10457C003E2B1FD1011D0C22104806F079FBC8B947
:10458C00A578412D10D1637C0D4A13B9A37C012B66
:10459C0002D01378013B05E01378E17C013BDBB2E0
:1045AC00994208D0137005E0532D03D12046FFF734
:1045BC0051FF00B90025284638BD00BFA8E60320EE
:1045CC00F6DA032000F082B800F06CBB08B503F0FB
:1045DC0077FD00210120BDE8084004F009B8000077
:1045EC0030B5C9B004F0D2FE2F4904F06FFB2F4B4D
:1045FC001B78012B51D1684600F0C2FF01284CD129
:10460C00FF2208A9684600F07BFF012845D104F081
:10461C00BDFE274904F05AFB04F0B8FE6946044677
:10462C0004A804F0A6FA0499204604F062FB04A83E
:10463C0004F058FA04F0AAFE1E4904F047FB0DF1F1
:10464C001F040DF58F7514F8013F0F2B04D804F0DF
:10465C009DFE194904F03AFB04F098FE10222178D3
:10466C0004F051FBAC42EED104F090FE134904F07F
:10467C0040FB9DF8211008A800F022FC68B16846A8
:10468C0000F038FF012803D104F080FE0C4902E051
:10469C0004F07CFE0B4904F02CFB03F0D9FD0A4B13
:1046AC00186049B030BD00BF60AD0D0089DB032040
:1046BC0062AD0D0076AD0D0081AD0D0083AD0D002A
:1046CC0085AD0D0092AD0D00F8DA032008B504F0AD
:1046DC005DFE4FF4964104F04DFE04F057FE074981
:1046EC0004F007FB01F01AF800F098FC01F0A6F8B2
:1046FC0000F030FBBDE8084000F030BEA3AD0D006B
:10470C00452330B543544B1CDBB25522C2540B4CE1
:10471C008A1CD2B223688350851863686B60A368C7
:10472C00AB60074B1A78541C1C7001F10E03DBB202
:10473C00C25401F10F00C0B230BD00BFA8E6032087
:10474C00F7DA03202DE9F8430C46054699469046C6
:10475C0000F0D0FF074600F0CFFFFE232B55A31C23
:10476C00DBB21722EA54E31CDBB20C22EA54464BB0
:10477C00221D03CBD2B205EB020EA850CEF80410CA
:10478C001868CEF8080004F11003DBB20222EA54D8
:10479C0004F11103DBB20422EA5404F11203DBB27C
:1047AC00390AEF5404F11303DBB210EE106AE9542A
:1047BC0004F11403DBB2390CE95404F11503DBB238
:1047CC003F0EEF5404F11603DBB20D21E95404F152
:1047DC001703DBB2310AEA5404F11803DBB204F11B
:1047EC002500EE5404F11903DBB2C0B2E95404F114
:1047FC001A03DBB2310CE95404F11B03DBB2360EA5
:10480C00EE5404F11C03DBB20F21E95404F11D0337
:10481C00DBB20121E9541D4B197804F11E03DBB204
:10482C0009EB0006E95404F11F03DBB20721E9543C
:10483C0004F12003DBB2FD2EEA5404F12103DBB2B8
:10484C004FF06102EA5404F12203DBB24FF0AC02E8
:10485C00EA5404F12303DBB24FF0BC02EA5404F136
:10486C002403DBB24FF00002EA5405DC4A46414611
:10487C00284406F00CFAF0B22544C4F1FE040444BA
:10488C006C70BDE8F88300BF28E6032058E60320CF
:10489C002DE9F34100F02EFF294B1D78012D074621
:1048AC00984649D1274B984246D9274CFF220021E4
:1048BC00204606F0F7F9FD238DF804303C232370D5
:1048CC0045225523022120468DF805508DF80650BF
:1048DC00FFF716FF01AA014603232046FFF732FF1C
:1048EC00451C3E23EDB22354657004F04FFD17496F
:1048FC0004F0ECF96B1E661E1C44A6420FD016F891
:10490C00013F0F2B04D804F041FD114904F0DEF9EE
:10491C0004F03CFD1022317804F0F5F9EDE704F0D9
:10492C0035FD0C4904F0D2F92A460749384600F007
:10493C0075FD002388F8003002B0BDE8F08100BF9F
:10494C0073DA032080436D38F1E603207FAD0D0050
:10495C0081AD0D00A9AD0D0070B590B03D2168463C
:10496C0000F0BEFF0546002852D02A4CFF22002141
:10497C00204606F097F93C2323704522552302214B
:10498C002046FFF7BDFE6A4601462B462046FFF740
:10499C00D9FE451C3E23EDB22354657004F0F6FCA1
:1049AC001D4904F093F904F0F1FC064600F0A2FE58
:1049BC000A220146304604F0A6F9304604F08DF97F
:1049CC0004F0E4FC154904F081F96B1E661E1C44CE
:1049DC00A6420FD016F8013F0F2B04D804F0D6FCDA
:1049EC000F4904F073F904F0D1FC1022317804F073
:1049FC008AF9EDE704F0CAFC0A4904F067F900F003
:104A0C0079FE094B984203D92A46024900F006FD6B
:104A1C0010B070BDF1E60320ACAD0D007FAD0D0004
:104A2C0081AD0D00A9AD0D0080436D38F8B5454B37
:104A3C001A78012A1E4640F0848004F0A7FC4249F3
:104A4C00424C04F043F904F0A1FC0A2261780546BB
:104A5C0004F059F9284604F040F904F097FC3C495D
:104A6C0004F034F904F092FC0A226168054604F063
:104A7C004AF9284604F031F904F088FC354904F071
:104A8C0025F904F083FC0A22A168054604F03BF9E1
:104A9C00284604F022F904F079FC2F4904F016F9A9
:104AAC0004F10B0504F1170715F8013F0F2B04D87F
:104ABC0004F06CFC294904F009F904F067FC10229D
:104ACC00297804F020F9AF42EED104F05FFC244DBC
:104ADC00244904F0FBF804F059FC234904F0F6F8DF
:104AEC0004F054FC294604F004F904F04FFC1F496F
:104AFC0004F0ECF804F04AFC0A22218F074604F07B
:104B0C0002F9384604F0E9F804F040FC184904F0C6
:104B1C00DDF804F03BFC0A2215F8181C044604F0DE
:104B2C00F2F8204604F0D9F8A5F1180000F0A8FA24
:104B3C00012804D104F02AFC0E4904F0DAF8002311
:104B4C003370F8BDF4DA0320B9AD0D001CE6032078
:104B5C00C3AD0D00D8AD0D00EAAD0D0081AD0D005B
:104B6C0034E60320DBB10D00FAAD0D0008AE0D00EC
:104B7C001BAE0D0026AE0D0070B50D46064604F0BA
:104B8C0005FC03681B699847C4B20CB9002419E0F2
:104B9C00AC420CD8354604F0F9FB03685B699847C6
:104BAC0005F8010BAB1BDBB29C42F4D80AE00025E4
:104BBC0004F0ECFB036801355B699847EBB29C424F
:104BCC00F6D8E3E7204670BDF8B5264CFF2200214D
:104BDC00204606F067F8FF212046FFF7CDFF06467A
:104BEC0000283ED004F0D2FB1F4904F06FF8771E6A
:104BFC00651E2744BD420FD015F8013F0F2B04D87A
:104C0C0004F0C4FB194904F061F804F0BFFB102256
:104C1C00297804F078F8EDE704F0B8FB144904F0B7
:104C2C0055F82378102B1CD1324602210D48FFF782
:104C3C003DFA01280ED10F4B0F4C18703C21204629
:104C4C00FFF7D8FB20700D4C34212046FFF7D2FB28
:104C5C002070F8BD04F09AFB0949BDE8F84004F057
:104C6C0048B8F8BDF1E6032042AE0D0081AD0D0051
:104C7C00A9AD0D00F4DA03201CE603205CE603204A
:104C8C005DAE0D0008B503F0E3FA054B1B68C01AC6
:104C9C00B0F57A7F03D9BDE80840FFF7A1BC08BD89
:104CAC00F8DA032008B5FFF78FFFFFF7BFFE00F01F
:104CBC0069FDFFF7EDFDFFF74FFE00F095F800F0F2
:104CCC002BFEBDE80840FFF7DDBF03F0F9B900008B
:104CDC002DE9F041D31D23F0070300AFADEB030D1D
:104CEC006846904605F0D3FF04F050FB164903F0DC
:104CFC00EDFF6C460025EEB2B0450FD9A35D0F2B2E
:104D0C0004D804F043FB114903F0E0FF04F03EFB30
:104D1C001022A15D03F0F7FF0135ECE72046FFF709
:104D2C001DFC054604F032FB094903F0CFFF04F0EB
:104D3C002DFB0A220446294603F0E5FF204603F02A
:104D4C00CCFFBD46BDE8F0816DAE0D0081AD0D0010
:104D5C007CAE0D0010B51E4C88B004A803F0CCFC42
:104D6C0004A9204603F044FF04A803F0BBFE194934
:104D7C0004A803F0FEFE684603F0BEFC694604A8D6
:104D8C0003F066FF0146144803F023FF684603F066
:104D9C00A9FE04A803F0A6FE104904A803F0E9FE3E
:104DAC00684603F0A9FC694604A803F051FF0146CC
:104DBC000B4803F00EFF684603F094FE04A803F0C2
:104DCC0091FE2168074800F0F3FF08B010BD00BF4A
:104DDC0020DB03208CAE0D0000DB03208FAE0D001A
:104DEC0010DB032030DB03202DE9F0412B4B1A782C
:104DFC00012A00AF1D4627D12949E8460022501C44
:104E0C00D2B28B18264E1C7E0CB10246F7E702F18B
:104E1C00080323F00703ADEB030D013206F1180173
:104E2C00684605F034FF04F0B1FA1E4903F04EFF5A
:104E3C0004F0ACFA694603F05CFF6946328F1A48FD
:104E4C0000F0CCFE2C70C5461748184C00F0B8FE8C
:104E5C0070B11548012501F068F82570144C2378C1
:104E6C00C3B9144B1048196801F08BF9257011E087
:104E7C002070114C03F0ECF92368C01A42F2107345
:104E8C00984207D90D4B0848196800F091FF03F0C0
:104E9C00DFF92060BD46BDE8F08100BF54DA032085
:104EAC001CE6032092AE0D0030DB032089DB0320CF
:104EBC0088DB032000DB0320FCDA032020DB03204B
:104ECC0070B505460D480E4600F07AFE044668B1F2
:104EDC000B490A48096833462A4600F0E9FF094B9A
:104EEC000648196801F04DF9012070BD04F04EFA26
:104EFC00054903F0FEFE204670BD00BF30DB0320E9
:104F0C0010DB032000DB0320A8AE0D00F8B5194E12
:104F1C00194F1A4C1A4D03F0D3F83146384603F0AA
:104F2C0028FE3846174F2246294605F00FF9314620
:104F3C00384603F01EFE3846134F2246294605F02C
:104F4C0005F93146384603F014FE29460F4D22462A
:104F5C00384605F0FBF80E4B0E4940F25B722846C2
:104F6C0000F046FD224628460B49BDE8F84005F006
:104F7C00EDB800BFDCB10D0020DB0320F0DA03201C
:104F8C00F18A0D0000DB032010DB032030DB032053
:104F9C00DD4C0D00B7AE0D0095610D0010B5074C42
:104FAC0003F08EF80649204603F0E3FD2046054A3F
:104FBC000549BDE8104005F0C9B800BF8CDB0320E3
:104FCC00DCB10D00F0DA0320F18A0D0030B591B0A0
:104FDC003C220021054601A805F064FE05F022F8EC
:104FEC003C2201A9002003F04BF93C2101A8FFF75A
:104FFC0001FA9DF8043083420CD101AC0FCC0FC5E3
:10500C000FCC0FC50FCC0FC594E8070085E807003F
:10501C00012000E0002011B030BD000030B591B08F
:10502C0001A8FFF7D3FF3C21044601A8FFF7E2F9E2
:10503C0024B19DF80430834200D13BB904F0A6F9A9
:10504C000C4903F056FEFFF717FA10E004F09EF936
:10505C0001AC0949094D03F04CFE0FCC0FC50FCC28
:10506C000FC50FCC0FC594E8070085E8070011B0F9
:10507C0030BD00BF58AF0D006FAF0D001CE6032014
:10508C0010B5044690B004F0CDFF3C222146002020
:10509C0003F0FEF801A8FFF799FF9DF804002378B0
:1050AC00C31A5842584110B010BD03F009B8036838
:1050BC001847012A02D0022A02D004E0016002E063
:1050CC000B6800B1036000207047436913B183691A
:1050DC000C301847704713B500210446084603F0FE
:1050EC0007F902A90023204641F8043D03F018F902
:1050FC00019C0CB1012323710021012003F0F8F86D
:10510C002CB1236820469B6898470023237102B07A
:10511C0010BD10B58368044613B1032201469847AD
:10512C00204610BD07B58068002338B18DE80A0011
:10513C00022103F0FDF8B0FA80F0400903B05DF8ED
:10514C0004FB000038B5104B036083680446A3B120
:10515C006FF000410022FFF7E5FF0021A06803F08B
:10516C00FFF8237903F0FF0513B103F0A9F8F8E772
:10517C002946A06803F0CCF8A56004F10C00FFF7F9
:10518C00C8FF204638BD00BFA4AF0D0010B50446C3
:10519C00FFF7D8FF20461C2104F0E6FF204610BD87
:1051AC0008B50F2004F02AFFC0B208BD08B5FFF700
:1051BC00F7FF044B10B91A78013200E000221A7084
:1051CC0008BD00BF9CDB032070B588B002F078FFEF
:1051DC00194B049304AD194C194B236095E803004B
:1051EC0004F10C0202AE86E8030092E8030085E8A5
:1051FC00030096E8030082E80300124A6261A26988
:10520C0007920023104A2371A3600693A2610193B5
:10521C0000930E4A23464FF47A7104F1080003F010
:10522C006FF82846FFF775FF094A0A49204604F033
:10523C008DFF08B070BD00BFB9510D00A0DB03207D
:10524C00A4AF0D00BF500D00BB500D00E3500D007E
:10525C00F0DA032051510D00037C03F008030246E1
:10526C0003F0FF002BB1D36A506A181A48BF6FF0D5
:10527C0000407047704770477FB502460846137967
:10528C00956833B13DB90C4904B0BDE8704003F0EA
:10529C001DBD0A4B00E00A4B167B0A4C0A49527B97
:1052AC000292012E08BF214601910095074A002168
:1052BC0003F049FD04B070BD0DB00D00DCB10D0064
:1052CC00FCAF0D0005B00D0009B00D0023B00D00B2
:1052DC00103001F093BD103001F06ABC103001F0B9
:1052EC002DBE083001F02ABE07B502AB012203F82F
:1052FC00011D0830194601F021FE03B05DF804FBD6
:10530C0010B52C21044604F02FFF204610BD10B51B
:10531C003421044604F028FF204610BD07B502AB2B
:10532C00012203F8011D1030194601F007FE03B0ED
:10533C005DF804FB07B501220DF1070101F085FBB7
:10534C0001280CBF9DF807004FF0FF3003B05DF84B
:10535C0004FB08B51030FFF7EDFF08BD7FB5204802
:10536C00037A13B1083001F07FFD1E4C1E4B1F4A0F
:10537C00009304F58C6600238DF80430029201250D
:10538C008DF80D300E226B4604F26C4130468DF8D0
:10539C000C5002F01BF900B304F23C40266001F003
:1053AC0063FD2946204601F0BAFF014680B10D4C41
:1053BC0004F23C452146284601F02FFB68B194F8D5
:1053CC003C3413F0700316BF094B18461D6005E002
:1053DC00204601F0A4FF0028E9D1002004B070BDE4
:1053EC0078E00320F4DB0320B8AF0D0080F0FA0264
:1053FC001CE1032007B50246D3B20193C2F3072385
:10540C0000930846C2F307430349120E03F0ACF9AC
:10541C0003B05DF804FB00BF41B00D002DE9F04175
:10542C0092B0884601A91746FFF7E4FF00238DF8D8
:10543C0024308DF8253006934FF47A730793264B5E
:10544C00059301AA44F202232449254E09A809AC6C
:10545C0001F011FD0FCC06F110050FC50FCC0FC5D7
:10546C0023682B60069B7360079BB360089BF360FB
:10547C0003F08CFF1B4903F029FC03F087FF01A903
:10548C0003F024FC03F082FF174903F01FFC03F028
:10549C007DFF0A220446394603F035FC204603F012
:1054AC001CFC347C7CB13A4641463046FFF716FF73
:1054BC00A5F1200001F0D8FC03F068FF0B4903F0C4
:1054CC0018FC012005E003F061FF094903F011FC11
:1054DC00204612B0BDE8F081C4AF0D0030E00320CF
:1054EC00A4E0032056B00D0062B00D006AB00D00B0
:1054FC007BB00D000146014801F00CBD30E00320EB
:10550C002DE9F0418EB090464FF47A720392184A0E
:10551C000192002302460F4605A816498DF8143057
:10552C0005AC8DF81530029301F0A5FC0FCC124E92
:10553C0006F110050FC50FCC0FC523682B60029B1D
:10554C007360307C039BB360049BF36060B13C469A
:10555C00E31B9845094804DDFFF7ECFE04F8010B4A
:10556C00F6E701F081FC01200EB0BDE8F08100BF30
:10557C00C4AF0D0030E00320A4E00320B4E003200E
:10558C0010B50446FFF7EAFE08B9002010BD10491B
:10559C00104A09681048002301F06DFC0028F4D073
:1055AC0000220D490D4801F0EAFB0C4801F05CFCAF
:1055BC0000220949094801F0E2FB0028E5D0214608
:1055CC00064801F08DF9054801F04EFC012010BD94
:1055DC001CE103208AB00D0080E00320D0DB032007
:1055EC0070B502F06DFD274B274E642183F86014D3
:1055FC002649C3F87014012183F874143168002211
:10560C0011F00105DA7183F83C2483F83D2483F80A
:10561C006A24C3F8782483F87C2483F87D241C4600
:10562C000AD13046FEF739FD30B12946184803F04F
:10563C00F7F83046FEF736FD1648154BC4F86C34B7
:10564C0000244FF47A730474447444608360124AE7
:10565C00124B1349036004F079FD1248124D047289
:10566C00447244600C4A1149056004F06FFD104807
:10567C00094A04724472446005600C49BDE87040EC
:10568C0004F064BDF4DB0320BCDB0320B8AF0D00D9
:10569C00C0DB0320A4E00320F0DA0320C4AF0D002C
:1056AC0083520D0078E00320ECAF0D0081520D0009
:1056BC00C8DB0320704710B52821044604F054FDC4
:1056CC00204610BD10B502F0C3FD084B1A68801AB5
:1056DC00074A90421C4608D903F006F810B1002086
:1056EC0003F012F802F0B4FD206010BD00E10320BD
:1056FC00005C260503F098BB014803F0A5BC00BF75
:10570C0004E1032010B5044C0146204605F0FAFADA
:10571C00001BC0B210BD00BF74DA03202DE9FF419D
:10572C0002F096FD144B1860684602F0E5FF009BF2
:10573C00124A03F11801174653F8040B42F8040BF4
:10574C008B42F9D1684603F0CDF90D4E0025785DFA
:10575C00FFF7D8FF07EB05080001C4B298F8010069
:10576C0006F8014FFFF7CEFF02352043182D30709D
:10577C00EDD104B0BDE8F08100E1032090E60320F8
:10578C00A7E60320FFF79EBF70B502F099FC104C02
:10579C00104B23600025283329460F4E63601822D6
:1057AC0004F11000A560E56005F07CFA20460B4C76
:1057BC000B49324604F0CAFC2946204603F004FC8F
:1057CC00324620460749BDE8704004F0BFBC00BF1C
:1057DC00D8E0032048B20D00F0DA032004E10320E6
:1057EC00C1560D00F38F0D0038B5074C0D4602461F
:1057FC000321204602F06AF92A4620460421BDE81E
:10580C00384002F063B900BF0CE1032001460148A7
:10581C0002F06EB90CE1032008B50121062004F05A
:10582C00D4FB642003F012FB0620002104F0CDFB16
:10583C006420BDE8084003F009BB000038B5214CDA
:10584C000121062004F0B0FBFFF7E6FFA37DE27D0B
:10585C001D485B2102F010FB20B903F097FD1B499A
:10586C0003F047FA03F092FD194903F02FFA03F005
:10587C008DFD0A22E17D054603F045FA284603F02A
:10588C002CFA03F083FD134903F020FA03F07EFD9C
:10589C000A22A17D054603F036FA284603F01DFACC
:1058AC000121094802F00EFA05210D20FFF79CFF9B
:1058BC00094B1878FFF7AAFF08490348BDE83840A0
:1058CC0002F0AEBA1CE603200CE103208CB00D00F4
:1058DC009DB00D00ABB00D0085DA0320BCB00D00FF
:1058EC0070B5054609480E4602F0CCF960B1084C7B
:1058FC002378B34207D822780649284605F0C7F921
:10590C002078C0B270BD002070BD00BF0CE1032038
:10591C0083E1032046E1032010B5044C2378012BCE
:10592C0003D1FFF78BFF0023237010BDF5DA0320A2
:10593C0008B502F0C5FB084B084A1A601122084949
:10594C001A7108225A719A7101220A700021197277
:10595C001F2159729A7208BD0CE10320F8B00D009A
:10596C0084E1032038B584690A4B036005467CB199
:10597C006368013B63605BB9236820469B6898476A
:10598C00A368013BA3601BB923682046DB689847DA
:10599C00284638BD9CB30D0010B50446FFF7E2FF56
:1059AC0020461C2104F0E0FB204610BD38B51D46F6
:1059BC00059B036300230446436302B1826419B15F
:1059CC0004F1380003F01CF9049B2365069BE06985
:1059DC00A4F84C50FF2BB8BFFF23A4F8543008B1E7
:1059EC00FEF759FBB4F85400FEF751FBE06138BDEB
:1059FC002DE9FF4104460025174698460E4604F053
:105A0C00DBF9E5610A4904F1380003F0B2F8FF2331
:105A1C0002930F2300932046A564CDF804803B46E7
:105A2C002A463146FFF7C2FF204604B0BDE8F0819C
:105A3C00DCB10D0010B50446204604F021F9002815
:105A4C00FAD0204603F0C5FFC0B210BD2DE9F047D7
:105A5C000546C4698846FFF7EDFF2070EB6993F8A3
:105A6C0000A04FF001090AF0F00A00274E46284624
:105A7C00FFF7E0FFEB69985500F07F0313FB09F388
:105A8C001F44741C0306A4B2BFB24FEAC91901D556
:105A9C002646ECE7631EBAF1300F88F8003013D1BC
:105AAC002846D5F81C80FFF7C5FF08F804002846E7
:105ABC00F41CD5F81C800236FFF7BCFFB6B2A4B2BA
:105ACC0008F80600022300E000231B1B9EB2A3195A
:105ADC009BB29F420BD92846FFF7ACFFB5F8543068
:105AEC00A34284BFEB6918550134A4B2EFE7B5F8B3
:105AFC005400A0422CBF20460020BDE8F087F7B52B
:105B0C0007468E461E461D46002402A905F07F035B
:105B1C002144ED0918BF43F08003013401F8043C23
:105B2C00E4B2002DF1D1C4F10403D11802F803E062
:105B3C00A54206DA2B1B01A81344285C58710135C9
:105B4C00F6E7721C2244384603F099FE054602F033
:105B5C007FFB013478623444A8B2231A584258416E
:105B6C0003B0F0BD10B5C369E0221A70C3690022FE
:105B7C005A7004460222C16903F081FE204604F0EB
:105B8C0067F802F065FB6062A06210BD0233F0B5ED
:105B9C009BB20D466C1A15F8016BA4B23EB1B0F86D
:105BAC0054709F4203D95C1CD654A3B2F2E7191B64
:105BBC000A44211202F8021C02F8014C1846F0BDEE
:105BCC0038B5054603F071FE002814BF01240024EB
:105BDC0002D1284604F03CF8204638BD70B5044686
:105BEC000E461546FFF7ECFF10B12046FFF7BAFF43
:105BFC00314604F1380003F003F80023A364A4F841
:105C0C004C5070BD2DE9F04387B0044689461746C9
:105C1C001E46DDF83880FFF7D3FF0546002840F01C
:105C2C00BD80A16C39B90346B4F84C20A16B204659
:105C3C0003F012FF09E0684603F03CFB2B46B4F876
:105C4C004C206946204603F089FF002800F0A28012
:105C5C00012323849DF84C30042B15D1524B18682A
:105C6C009A88ADF804200090E2699B7900988DF831
:105C7C000630531DC2F80500BDF804109DF806202F
:105C8C009A7199800C2312E0484BD4F81CC0186808
:105C9C0059681B7A6A4603C213706B4603CBCCF867
:105CAC000500CCF8091013788CF80D300E23B8F1E0
:105CBC00000F0AD09DF840209DF83C10520142F094
:105CCC00060242EAC102D2B200E002229DF848105C
:105CDC0009B902F0FD022FB116B942F0800201E0C1
:105CEC0042F0C002E169CA54226DE169581C1212DB
:105CFC000A549A1CE169206D88540333E2694946C1
:105D0C002046FFF743FFB8F1000F0BD00346E269C2
:105D1C0041462046FFF73AFFE269119903462046B7
:105D2C00FFF734FF67B10346E26939462046FFF7B7
:105D3C002DFF2EB10346E26931462046FFF726FFC0
:105D4C00431F9BB2E26910212046FFF7D8FE02F0F8
:105D5C007FFA4FF47A766062A062204603F090FFDF
:105D6C0040B902F075FAA36AC01A236D73439842C6
:105D7C00F3D90FE069462046FFF768FE042809D1E5
:105D8C00E369DE7836B902F063FA0125A06284F883
:105D9C002C6004E0204603F05BFF00E00025284661
:105DAC0007B0BDE8F08300BFDEB00D00E5B00D001C
:105DBC007FB50423059301230493002303930293DB
:105DCC00019300931A46FFF71DFF07B05DF804FB23
:105DDC002DE9F14F0D9E9DF828809DF82C509DF8D3
:105DEC00307004468B4691469A46FFF7E9FE002830
:105DFC004CD0B4F85420E069002104F053FF052383
:105E0C00E26959462046FFF7C1FE6B1E012B12D8E2
:105E1C00238CE26901339BB223841B121354411C63
:105E2C0089B2E369228C5A54023080B21EB1238CA1
:105E3C005A1C22843380002291B283188A459BB26B
:105E4C000AD9B4F854609E4202F1010204D919F83F
:105E5C000160E169CE54EFE7B8F1000F0CBF3021BF
:105E6C0031210FB141F00801022D02D141F00401A2
:105E7C0003E0012D08BF41F00201053BE2699BB232
:105E8C00204601B0BDE8F04FFFF739BE01B0BDE8C8
:105E9C00F08F1FB5089C0394002402949DF81C40BD
:105EAC0001949DF818400094FFF792FF04B010BDC8
:105EBC001FB50024029401940094FFF7EAFF04B08C
:105ECC0010BD38B504460D46FFF77AFE90B1E36974
:105EDC0062221A70E36902225A70E3692A129A70DC
:105EEC00E369DD700422E169204603F0C8FC003050
:105EFC0018BF012038BD38B504460D46FFF760FECB
:105F0C0090B1E36972221A70E36902225A70E36954
:105F1C002A129A70E369DD700422E169204603F0CD
:105F2C00AEFC003018BF012038BD2DE9F04F83B016
:105F3C0000AF0446FFF744FE8146002800F0F680CF
:105F4C0002F086F9226D4FF47A735343A26A821AD7
:105F5C009A42054603D8626A821A934217D294F881
:105F6C002C302BB1204603F073FE4FF00009DDE01E
:105F7C00E269C0211170E2695370E1690222204686
:105F8C0003F07DFC01236562A56284F82C30204669
:105F9C0003F076FE002800F0C980F91D2046FFF7BB
:105FAC0055FD0246002800F0C180E369A56218780F
:105FBC0000F0F00130297DD1D4F830B0BBF1000FE6
:105FCC0000F0B48097F807C003EB0C00EA46817828
:105FDC0090F801E001EB0E2E1FFA8EFE0EF1080177
:105FEC0021F00701ADEB010D684600218EB2B645DC
:105FFC0006D90CEB01061E44F67846540131F5E740
:10600C00002100F80E101E7806F00606022E0CF188
:10601C000301CCEB02021ED17144CEEB020213F849
:10602C0001801944053A497801EB08280CF1050167
:10603C0071441944D847E36940221A70E3695E70D1
:10604C00E3691FFA88F84FEA28229A70E369042260
:10605C0083F8038020E0042E24D17144CEEB02029D
:10606C0013F801801944053A497801EB08280CF122
:10607C00050171441944D847E36950221A70E36949
:10608C0002225A70E3691FFA88F84FEA28229A70A4
:10609C00E369324683F80380E169204603F0EFFBA5
:1060AC00656205E0033A7144CEEB02021944D8470D
:1060BC00D5463BE0502908D19978DB7803EB0121D8
:1060CC0089B22046FFF7FDFE30E040290CD0602954
:1060DC0008D19978DB7803EB012189B22046FFF7D0
:1060EC000AFF23E070290DD1616BF9B1042A1DD18F
:1060FC0010F0060F1AD19878DB7803EB002080B2F1
:10610C00884713E0902911D0C0290AD1D0221A70E7
:10611C00E36900225A70E1690222204603F0AFFBCA
:10612C0004E0D02904BF002384F82C3048460C37F7
:10613C00BD46BDE8F08F70B504460E461546FFF718
:10614C003FFDE8B1238C01339BB203B901232384B7
:10615C00238CE2691B125371E369228C9A71E269F8
:10616C00314607232046FFF711FDE3691D54031F39
:10617C00E26920469BB28221BDE87040FFF7BFBCAC
:10618C0070BD0022FFF7D7BF10B50446FFF718FD0E
:10619C0010B12046FFF7E6FCE06908B1FDF77BFF84
:1061AC0004F1380002F09EFC2046FFF7DBFB204692
:1061BC0010BD01F085BF01F083BF01F081BF10B5A8
:1061CC000446243000F09CFF28B104F50C70BDE8A7
:1061DC00104000F095BF10BD411E00F10A020020D6
:1061EC00430843EAC01011F8013F53FA80F08A4289
:1061FC00C0B2F5D1704738B5CB6804460D4623B90B
:10620C008968BDE8384000F008BC2422002104F065
:10621C0049FD102301202370A070AB68A360EB68CC
:10622C00236238BD2DE9F0470378202B00F10104DF
:10623C0001D12046F8E7704F886005462C1A2E468F
:10624C0015F8013B0BB32F2B01D1031917E05C2B75
:10625C0002D10020BDE8F087A3F12204E4B21D2C8A
:10626C0003D827FA04F4E407F3D403F0BF043C2C5E
:10627C00EFD0203B5E2BE1D9EBE72F2D05D11E464D
:10628C0013F8015B202DF8D1F9E716600319984239
:10629C00C0EB030809D013F8012D2E2AF7D0202AC1
:1062AC00F5D0B8F1FF0FD4DC01E04FF00008C1F8D5
:1062BC00048001F10C0301F11702202403F8014FB3
:1062CC009342FBD103461A1A13F8014B2E2CFAD029
:1062DC00202CF8D0B2FA82F4640908F1FF36731C52
:1062EC0007D100274FF0070E3D46BA464FF008097C
:1062FC0009E0835D2E2BF4D0013EF0E7835C202B6C
:10630C0004D1002401324245F8DB4BE02E2B02D1A4
:10631C00B242F6D103E0222B17D07C2B15D0A3F17F
:10632C002A0CBCF1050F01D82D2B0ED1A3F13A0C80
:10633C00BCF1050F09D9A3F15B0CBCF1020F04D918
:10634C00A3F1210CBCF15D0F02D9B2420ED149E090
:10635C00B24247D0754521D8A3F1610CBCF1190F9D
:10636C0008D8203BDBB249EA07070AE0754515D887
:10637C0000245F23A3F1410CBCF1190F98BF49EA2B
:10638C000A0A05F1010C5FFA8CFC0D44BCF1060FF6
:10639C006B7301D881F80CC06546B3E7BEF10A0FE8
:1063AC0017D100244B7B202B3FF453AF3CB11AEA9E
:1063BC00070F18BF02270F700120BDE8F0870B7B79
:1063CC000120087019447E234B7331238B73BDE875
:1063DC00F087B242E5DC32464FF00A0E08254FF04A
:1063EC0010098EE7BEF10A0FDBD032464FF00A0ED1
:1063FC0008254FF0100985E701010031F0B58BB08D
:10640C0000238DF804308DF8053003781907044605
:10641C0008D583789A0705D5016A29B1A06800F0E0
:10642C0060FF08B9002049E00121204600F0BCFAC9
:10643C0005460028F6D0FFF7CFFEE5262E70002388
:10644C0007462370A068FFF7BAFE0028EAD0E3786D
:10645C00002B33D0214601A8FFF7CDFE0028E1D058
:10646C000125E378AB42DDD3A188491B490101A882
:10647C0000F0CEFB0028D5D0002101A800F0ABFB2A
:10648C000028CFD0C37A0F2BCCD1027802F01F0397
:10649C009D42C7D1437BBB42C4D10670A16891F821
:1064AC00243043F0010381F82430530603D5A0684F
:1064BC00FFF785FE02E00135EDB2D2E70BB0F0BD7F
:1064CC002DE9F84391F80C9006460D4602247E27E0
:1064DC0001F10D086968AA6863189BB211449142D6
:1064EC0006D012F8010B03EB431343409BB2F6E7C3
:1064FC00B9F1030F28BF4FF0030909F10402D2B21E
:10650C0003F00F01A818013A0929D2B294BF303117
:10651C003731914541734FEA1313F1D305EB09035E
:10652C0000215F73304600F073FB0121304600F010
:10653C0052FB014628B97078B0FA80F04009BDE8EA
:10654C00F88303784BB1C37A1B07EED40B22404679
:10655C0004F08EFB0028E8D102E00120BDE8F883AE
:10656C000134A4B2642CB5D1BDE8F8832DE9F04F09
:10657C009B460B7889B013F0700F05900E46914630
:10658C0001D10020A0E1059B1B78002BF9D15368A9
:10659C00029313789B0700F08D81029B0D270C331F
:1065AC00B3FBF7F70137FFB20021304600F030FBA8
:1065BC004FF0000809F10D02CDF80C80434644461B
:1065CC004546CDF81080069272690793012130463A
:1065DC00C2F34F1A00F0FFFA079B20B97378002B17
:1065EC0000F09080CDE70278E52A00D042B9002C6B
:1065FC0008BFD046BC423CBF0134E4B222B981E0B2
:10660C00BC4238BF002403E0E52A01D10025DBE7BA
:10661C002E2AFBD0C17A0F2952D13DB95106D3D5C0
:10662C00437B039302F01F052B4607E0013BDBB2D3
:10663C009A42EBD1427B03999142E7D15A1E4FF01B
:10664C000D0C0CFB02FC029A6245DFD94FF0000ED8
:10665C00BEF1040F5FFA8EF204D800EB4E02B2F8D2
:10666C0001200CE00A2A95BF0EF1FF320EF1010257
:10667C0000EB420200EB420294BFD288928802994E
:10668C00614503D1002A18BF00259DE7FF2ABDD81C
:10669C00D2B2A2F141011929D9F8081011F80C1045
:1066AC0098BF20320CF1010AA1F1410C98BFD2B273
:1066BC00BCF1190F9CBF2031C9B29142A6D1FBE0AD
:1066CC000907A3D44DB1012B7FF45BAFFFF784FD19
:1066DC00039B83427FF455AF0FE00B22069907937F
:1066EC0004F0C6FA079B00287FF46EAF99F80020DF
:1066FC00D20702D50122049266E71BF4006F00F06A
:10670C00D1803EE71BF4007F3FF43BAF0BF003035B
:10671C00013B012B3FF635AF002C08BFD046BC42E5
:10672C0002D3049BCBB91FE00021304600F053FA92
:10673C0010B973785BB124E70134E4B2EFE7B368C6
:10674C001B79012BEDD81034E4B2A742E9D93046BD
:10675C0000F0EAF80028F2D113E749463046FFF77B
:10676C00AFFE00283FF40DAF4FEA4811304600F061
:10677C004FFA00283FF405AF7D1EEDB22C464FF0CA
:10678C00000A4FF00F0841E00021304600F023FAD8
:10679C00074600283FF4F5AEB26892F82430AC42BC
:1067AC0043F0010382F824300CBF44F0400222462F
:1067BC00027080F80B8080F80CA009F10D00039298
:1067CC00FFF70AFD039A787387F81AA087F81BA0C5
:1067DC0002F01F020D23013AD9F808E05A430023B6
:1067EC000299914215D91EF80210042B5FFA83FC12
:1067FC0003F1010013D807EB4303A3F801100D2894
:10680C0002F101020346EBD1013CE4B2002CBBD1F6
:10681C000EE014BF4FF0FF31002189B2E5E7BCF167
:10682C000A0F94BF07EB430307EB40039980E6E79D
:10683C00736921463046C3F34F1A00F0CCF9074672
:10684C0000283FF49EAE2022214604F02BFA4B4642
:10685C0053F80D2F3A605A687A601A893A819B7AFC
:10686C00BB7299F8003003F018033B73184B1B688C
:10687C002BB107F10E0107F11000984706E0212318
:10688C003B7428237B740823BC73FB733B8A7B8289
:10689C003B83FB89FB82B26892F8243043F00103FE
:1068AC0082F8243000955B4652463146059800F03C
:1068BC00F8F909E0012777E60EF1010EBEF10D0F94
:1068CC003FF482AED446C3E609B0BDE8F08F00BFFA
:1068DC0020E1032001F0F4BB01F0F2BB01F0F0BBAE
:1068EC0010B50C46017809B9002010BD11F06001FB
:1068FC0004D02F2323700023637006E000F054F8BB
:10690C000028F1D0214600F05EF8012010BD01F006
:10691C00D7BB8378016943F00403837000F1100244
:10692C00806800F0A3BC00002DE9F041037803F06F
:10693C002003044603F0FF050BB100262EE042694C
:10694C00184B9A42F9D8FFF7E4FF06460028F4D01A
:10695C002169A06800F01FFC0746A0680522394693
:10696C00243000F0F4FB80460028E6D029464FF492
:10697C00007204F097F90125A3681A79AA4209D983
:10698C004246E919186800F05FFF0028D5D00135A0
:10699C00EDB2F1E7636903EB422363613046BDE876
:1069AC00F08100BFFFFD1F0010B5044680680A4649
:1069BC002430A16900F0CBFB20B1A38803F00F03B6
:1069CC0000EB431010BDF0B50024451E08262346ED
:1069DC002E2715F8012F202A18D0082C02BFCF54CF
:1069EC005A1CD3B22A78A2F1410E08BF1026BEF170
:1069FC00190F06D890F80CE016EA0E0F1CBF2032C7
:106A0C00D2B203F1010ECA545FFA8EF301340B2C8F
:106A1C00DFD10022CA541846F0BD70B50478054683
:106A2C000E4684B92422214604F03CF9AE60F37979
:106A3C00102B03D0202B06D1402300E02023012073
:106A4C002B70A87070BD002070BD2DE9F74F037836
:106A5C000446894615464BB18278D10706D50CE021
:106A6C005A46216900F09DFB00283DDA637843F01B
:106A7C00020363704FF0FF3097E01A0703D5E36908
:106A8C0062699B1A07E09A0608D5A3681A8963699C
:106A9C00C3EB42139BB29D4228BF1D462E464FF0BE
:106AAC00000804F1100B002E35D022786369A06821
:106ABC0012F0200FC3F3080A4FEA532102D0036AE5
:106ACC0019441DE090F8058001EA0808BAF1000F9E
:106ADC0010D1B8F1000F0DD1002BC1D153064CBF12
:106AEC00036A236A236105E004D1237813F0700F45
:106AFC0011D1BBE72169A06800F04DFB08EB000148
:106B0C00A068BAF1000F35D1B6F5007F32D3C36A55
:106B1C00994202D12EE0A81B47E0B6F5806F1BD33B
:106B2C00227897064FEA562A06D40279C8EB02025D
:106B3C00D2B2924528BF924699424FEA4A2707D2D1
:106B4C00A06853464A46006800F03CFE60B98DE7E9
:106B5C005344994221D3F3E74A46006800F0EAFD1A
:106B6C00002883D04FF4007763693B44B9446361D8
:106B7C00F61B98E70022243000F0E9FA00283FF4D5
:106B8C0075AFCAF50077B74228BF374600EB0A014C
:106B9C003A46484604F07BF8E6E72430019100F0D1
:106BAC00AFFA01990028CBD160E703B0BDE8F08FB4
:106BBC0073B501220DF10701044646690569FFF71B
:106BCC0044FF012805BF9DF8070066614FF0FF30B8
:106BDC00256102B070BD37B54369C3F34315044654
:106BEC0005B169B901220DF107012046FFF72DFF10
:106BFC0040B2012801D0002008E063691F3300E097
:106C0C002033A0686361303000EB451003B030BD19
:106C1C002DE9F0410E46017807690446002939D068
:106C2C004569B5423AD00EB9066131E00B0703D580
:106C3C00C3699E422ED807E0880605D5A3681B8938
:106C4C00B6EB431F26D823E0D4F808E09EF80630B4
:106C5C006A1E03F10900731EC240C3409A4200D859
:106C6C004DB94A064CBFDEF82020226A22611D462F
:106C7C0004F110080AE09B1AF9E742462169A06862
:106C8C0000F08FFA002805F1FF3503DD002DF4D15B
:106C9C00666103E027610020BDE8F0810120BDE8BA
:106CAC00F081F8B50F4615460021242204461E46F5
:106CBC0003F0F8FFB868A06005F00F02A58000F1A2
:106CCC00300152013B6AE3601144CB7A1D074CD46E
:106CDC00831893F83B3003F017032370C97A11F033
:106CEC00180F04BF43F0080323709DF81830E370AD
:106CFC0006F00303012B09D0022B05D0002B34D155
:106D0C00710532D4012302E0032300E00223A370B7
:106D1C00A1788B0703D5237813F0110F25D14BB233
:106D2C0016F4005F06F0080114BF6FF07F07002710
:106D3C0019433943A170C36AA36102447505B2F8C3
:106D4C004410B2F84A3043EA014104D581B100F055
:106D5C00C8FA68B909E02162D36CE36173040CD5FD
:106D6C00E1692046FFF754FF38B900202070F8BDC8
:106D7C00A37843F00403A370F0E70120F8BD2DE9DC
:106D8C00F743037806460D46174653BB0B7813F0B2
:106D9C00700F26D04C6914F01F0422D1A04600219C
:106DAC002846D5F81490FFF716FFD0B10378C3B17D
:106DBC002E2B01D10024F2E7E52BFBD0C17A11F088
:106DCC00080F05D17CB1FFF707FA804509D10AE01D
:106DDC000F29EFD15906E2D503F01F0490F80D806E
:106DEC00DDE7002007E000943B46C9F34F1229462B
:106DFC003046FFF756FF03B0BDE8F08338B5037893
:106E0C0004460BB9012038BD83785A0723D50121DC
:106E1C00FFF7CAFD054628B9637843F00103637098
:106E2C00002038BD0378E52BF6D023781B0744BF30
:106E3C00E369C361238C4383638C8382094B1B6896
:106E4C002BB100F11601183098472B8B6B82A3786D
:106E5C0023F00403A370A068FFF7B1F90028DBD07E
:106E6C00D0E700BF20E1032010B50446FFF7C6FFB2
:106E7C000023237010BDF0B593B01F4600238DF88E
:106E8C0024308DF825300378019206460C460BB160
:106E9C0000203DE00B7813F0700FF9D013782F2BF6
:106EAC0012D1019B1A782F2A02D101330193F8E7F2
:106EBC00A1681AB93046FFF7B0FD29E009A8FFF721
:106ECC00ACFD0028E4D009AC01AA03A90198FFF796
:106EDC00A9F90028DCD0019B1B789BB1002303AAE5
:106EEC0021463046FFF742FB0028D1D035460FCD66
:106EFC0009AC0FC40FCD0FC42B6823603046FFF7CD
:106F0C00B3FFE0E73B4603AA21463046FFF72EFBD2
:106F1C0013B0F0BD00B58BB000238DF804308DF8A4
:106F2C0005300A460123014601A8FFF7A4FF10B162
:106F3C0001A8FFF763FA0BB05DF804FB2DE9F047ED
:106F4C000378894619070446904608D583789A0732
:106F5C0005D51B070BD5E169FFF75AFE38B96378E5
:106F6C0043F0010363704FF0FF30BDE8F0876369B5
:106F7C00DB439845F3D846464FF0000A6369002E70
:106F8C0000F08180A068427912EA5325C3F3080708
:106F9C001CD1DFB9216971B104F1100200F001F9C3
:106FAC000028DCDB40F08E802046FFF7B2FC002886
:106FBC0040F08880D3E7236A3BB92046FFF7A9FC51
:106FCC000028CCD02369236200E023612169A068EA
:106FDC0000F0E1F8291817B9B6F5007F21D2C7F5F2
:106FEC000075B54228BF354637B96369E2699342EB
:106FFC0034BF0122052200E00122A068243000F0F9
:10700C00A6F80028ABD038442A4649462F4403F052
:10701C003EFEB7F5007F30D1A068243000F070F848
:10702C0017E0B6F5806FA06815D30279521B730A6E
:10703C00D2B2934228BF1346C26A91424FEA43250B
:10704C0002D31A44914237D3A7684A46386800F0F5
:10705C006DFC90B983E7C36A994202BF4FF0FF33CE
:10706C0080F824A0C362A3684A46186800F0ECFBC1
:10707C0000283FF474AF4FF4007563692B446361CF
:10708C00A944761B7AE7E269934201D9E36102E0F5
:10709C000F4B1B681BB1A37843F00403A37094F946
:1070AC000230002B02DB4046BDE8F0872046FFF79C
:1070BC00A5FE0028F7D152E74FF0FF3280F824A04C
:1070CC00C262C1E72169A06800F065F8014683E758
:1070DC0020E1032000F0F4BF70B505460C460846CD
:1070EC0049B103F025FE2B68024621462846DB6891
:1070FC00BDE87040184770BD00F0E2BF00F0E0BF83
:10710C0070B50378DA0704461ED54368816800F130
:10711C000C063246186800F097FB054608B90025A6
:10712C0013E023789B0704D4237823F00103237006
:10713C000BE06368A068196932460144186800F0D6
:10714C0083FB0028F0D1EAE70125284670BD70B515
:10715C0083688B4204460E46154614D0FFF7D0FFC9
:10716C0008B9002070BD6B0703D500232370A660FF
:10717C0009E0636804F10C023146186800F0DAFA91
:10718C000028F2D1EDE72378204605F003051D43D6
:10719C0000F80C5B70BD8379406902399940084452
:1071AC007047012970B505460C46164602D84FF0BB
:1071BC00FF3070BDC3699942F9D8C379202B10D127
:1071CC008169022201EBD41100F50C70FFF7BFFFAF
:1071DC000028ECD004F07F0450F8243023F07043E6
:1071EC000FE0102BE3D18369C1F30721022219446C
:1071FC0000F50C70FFF7ABFF0028D8D0E4B230F8E4
:10720C001430EA6993429ABF33600120002070BDAC
:10721C00012938B50C46154601D8002038BDC36984
:10722C009942FAD8C379202B0ED18169032201EB44
:10723C00D41100F50C70FFF78AFF0028EDD004F094
:10724C007F0440F824500FE0102BE6D18369C1F382
:10725C0007210322194400F50C70FFF778FF002872
:10726C00DBD0E4B220F81450012038BD2DE9F341F5
:10727C00C4688C4205460E46904607D20C46002741
:10728C00EB6901349C4203D9CFB9EC680127F7E7CD
:10729C00A64214D001AA21462846FFF782FF0028F7
:1072AC000DDBEDD0019B002BEAD107B1EC606FF048
:1072BC00704221462846FFF7ABFF074608B9002766
:1072CC000BE016B9C8F8004007E0224631462846C4
:1072DC00FFF79EFF0028F5D1F1E7384602B0BDE874
:1072EC00F08173B505460C4601AA21462846FFF7E6
:1072FC0058FF061E01DA00200FE000222146284626
:10730C00FFF786FF0028F6D0EB689C429CBF04F187
:10731C00FF34EC60019C002EE6D102B070BD70B55C
:10732C00012304460022C3604FF0FF33C2710D46A7
:10733C00A06280F82420C362C4F8340280F83022A2
:10734C00C0F83832A1B104295DD811462430FFF7BA
:10735C00FEFE002857D000EB051393F8AE315B0608
:10736C0051D11B3500EB0515D5F80650002D4AD030
:10737C000022294604F12400FFF7E9FE002842D040
:10738C00B0F80B30B3F5007F3DD1037C022B3AD122
:10739C00C389002B37D0417B21714B1E63710023B5
:1073AC00A371092601238B4207D0013E2BD0A27971
:1073BC005B000132DBB2A271F5E7C28A02B9426A04
:1073CC002261C6892E44A661B0F81130238106EBE8
:1073DC0042012162B0F81120520102F2FF1201EBBE
:1073EC0062226261B0F8133003B9036AAD1A2B4400
:1073FC00A57923FA05F56B1CE36140F6F4739D4205
:10740C0003D80C23E371002070BD4FF6F4739D423A
:10741C0085BFC36A236210232023E371012070BD52
:10742C0000F04EBE00F04CBE00F04ABE70B50E4CE3
:10743C000E46154600F004FF2368C01A0B4B984209
:10744C0008D900F005FF0A4B186001F045F900F06F
:10745C00F7FE206000F0FCFE80B2801BA842D4BF77
:10746C000020012070BD00BF24E10320A086010094
:10747C0004E5032038B5057A04464DB9406800F0A0
:10748C007DFA63682946187D02F09FFD0123237263
:10749C0038BD10B5037A04466BB143680121187DE1
:1074AC0002F093FDFF21606800F09AFA606800F02A
:1074BC0079FA0023237210BDF8B504460D46164622
:1074CC0000F0C6FE87B2606800F06FFAFF286072A9
:1074DC0009D14FF47A7239462046FFF7A7FF0028EE
:1074EC00F1D055230BE0FE2801D0502307E03246A3
:1074FC002946606800F05EFA607230B16023204665
:10750C002370FFF7C6FF0020F8BD606800F04DFA4D
:10751C00606800F04AFA0120F8BD70B504460E46CA
:10752C0000F096FE85B2324629462046FFF77EFFD4
:10753C0030B9606800F039FAFF28F4D1012070BD31
:10754C00002070BDF7B5037A019204460D460BB9C5
:10755C00FFF790FF25B14FF496712046FFF7DDFF42
:10756C0045F04001606800F03BFA0DF107060DF1A3
:10757C00030716F80119606800F032FABE42F8D120
:10758C00002D0CBF95218721606800F029FA6068F6
:10759C0000F00BFA0B25606800F007FA0306607226
:1075AC0003D5013D15F0FF05F5D103B0F0BD70B565
:1075BC0004460D46164637210022FFF7C3FF32461C
:1075CC0029462046BDE87040FFF7BCBF2DE9F041CD
:1075DC0000250572057085724160044690461E4672
:1075EC0000F036FE41460746606800F0CBF9636850
:1075FC004F4A1D724FF00108DA605D7483F81080F9
:10760C002046FFF737FF63684146187D02F0DDFC2A
:10761C000A25FF216068013D00F0E2F915F0FF0535
:10762C00F7D163682946187D02F0CFFC0A250022A9
:10763C0011462046FFF786FF0128804612D0013DF7
:10764C0015F0FF0501D1202357E0FD21606800F003
:10765C00C7F94FF40278606800F0A7F9B8F1010897
:10766C00F9D1E4E74FF4D57208212046FFF76AFF01
:10767C00052802D184F80A800FE00425606800F028
:10768C0094F9013D15F0FF056072F7D1AA2802D1DB
:10769C000223A37201E025232FE0A37A022B0CBF57
:1076AC004FF080450025BFB22A4629212046FFF71E
:1076BC007EFF024648B14FF4FA6239462046FFF786
:1076CC00B5FE0028F0D0432317E0A37A022B0ED08E
:1076DC002046FFF7DEFE6368B0683479317B727B3D
:1076EC005A74D8601C7219740120BDE8F0813A21DB
:1076FC002046FFF727FF38B1372320462370FFF7CA
:10770C00C8FE0020BDE8F081606800F04EF900F082
:10771C00C000C02804BF0323A372606800F045F9C1
:10772C00606800F042F9606800F03FF9D0E700BFF4
:10773C0090D0030038B5837A032B18BF4902154645
:10774C000A4611210446FFF7FDFE10B130232370C9
:10775C000BE029464FF400722046FFF7ADFE0546BC
:10776C0018B12046FFF795FE03E02046FFF791FE87
:10777C000025284638BD10B5837A032B0A4618BF5E
:10778C004A0212210446FFF7DDFE30B131232046B8
:10779C002370FFF77EFE002010BD012010BD10B538
:1077AC0000220C210446FFF7CDFE30B128232046E1
:1077BC002370FFF76EFE002010BD2046FFF769FE18
:1077CC00012010BDF8B5054616461F46FFF7D3FF3E
:1077DC0098B10024A3B29F4206EB442108D94FF480
:1077EC0000722846FFF768FE01340028F2D104E04D
:1077FC002846BDE8F840FFF7D2BF0020F8BD38B5E9
:10780C0004461546406800F0EBF84FF40072294628
:10781C00606800F0E9F8FF21606800F0E1F8FF21F2
:10782C00606800F0DDF8606800F0BFF8607200F08E
:10783C001F00052806D0572320462370FFF729FE8A
:10784C00002038BD012038BD70B5837A032B18BFDA
:10785C00490215460A4618210446FFF773FE0646F0
:10786C0008B132231DE02A46FE212046FFF7C7FF50
:10787C00C0B14FF4FA612046FFF74FFE054608B938
:10788C005A230EE032460D212046FFF75BFE38B935
:10789C00606800F08AF818B92046FFF7FAFD05E099
:1078AC00292323702046FFF7F4FD0025284670BDE0
:1078BC0038B50D464FF4FA610446FFF72EFE10B9A9
:1078CC005B23237005E02A46FC212046FFF797FF37
:1078DC0018B92046FFF7DDFD002038BD10B5837ABE
:1078EC00032B0A4618BF4A0219210446FFF72AFE49
:1078FC0030B1332320462370FFF7CBFD002010BDA1
:10790C00012010BD38B54FF4FA610446FFF705FEAF
:10791C00054620B1FD21606800F062F801E05623B5
:10792C0023702046FFF7B5FD284638BDF8B505464F
:10793C0016461F46FFF7D2FF70B10024BC4206EB7F
:10794C004421284604D0FFF7B3FF28B10134F5E7F2
:10795C00BDE8F840FFF7D6BF2846FFF79AFD002098
:10796C00F8BD00F0ADBB00F0ABBB00F0A9BB000054
:10797C00014B01221A70704728E10320011D006899
:10798C0000F0A4BF10B504460175006800F052FF6A
:10799C00207D012102F008FB207D0121BDE8104073
:1079AC0002F013BB006800F078BFFF21006801F003
:1079BC0053B8000037B5084B00930025074C0068FE
:1079CC00257013460A46294601F04CF82378002B03
:1079DC00FCD0002003B030BD7D790D0028E10320E0
:1079EC00006801F039B8000037B5074B009300254B
:1079FC00064C0068257013462A4601F033F82378AC
:107A0C00002BFCD003B030BD7D790D0028E10320A4
:107A1C0000F056BB024B186803681B68184700BF80
:107A2C0040E1032008B50121007902F0CEFABDE84F
:107A3C00084001F0FDBC000010B5084C2368DB07C2
:107A4C000AD42046FCF729FB30B10121044800F090
:107A5C00E7FE2046FCF726FB014810BD2CE1032075
:107A6C0030E1032010B50446FFF7E6FF2146BDE8E0
:107A7C00104000F0F1BF10B5044601F0D7FCFFF741
:107A8C00DBFF002100F0F8FEFFF7D6FF012100F02C
:107A9C00E2FEFFF7D1FF182100F0BAFF2079002198
:107AAC00BDE8104002F091BA38B50C460546FFF718
:107ABC00E2FF04F07F00FFF7D5FF0020FFF7D2FFB5
:107ACC0004462846FFF7AEFF204638BD70B50E467B
:107ADC0015460446FFF7CFFF46F08000FFF7C2FFC4
:107AEC002846FFF7BFFF2046BDE87040FFF79ABF5E
:107AFC0010B5417211210446FFF7D6FF627A00F0EF
:107B0C00E0001F2A94BF024340F01F0211212046BF
:107B1C00BDE81040FFF7DABF10B5044649B10122A9
:107B2C002321FFF7D3FF23212046FFF7BDFF830757
:107B3C00F9D524212046FFF7B7FF4042401010BD75
:107B4C0038B5002914BF5D2255220C465A21054632
:107B5C00FFF7BCFF002C284614BF7C2270225C214E
:107B6C00BDE83840FFF7B2BF70B5284D2B788B427B
:107B7C0004460E4649D0042947D8DFE801F0342CDE
:107B8C00241203000121FFF78FFF00F0E30242F003
:107B9C000C0201212046FFF799FFA37A63B3012160
:107BAC000DE00121FFF780FF00F0E30242F010022C
:107BBC0001212046FFF78AFFA37AEBB10021204672
:107BCC00FFF7BEFF18E00121FFF76EFF00F0E302A4
:107BDC0042F008020CE00121FFF766FF00F0E3021F
:107BEC0042F0040204E00121FFF75EFF00F0E30223
:107BFC0001212046FFF76AFF2B782BB9272120465D
:107C0C00FFF752FF0306F7D52E7070BD84E10320F9
:107C1C00154A002310B51370144A1370144A1370CC
:107C2C00144A1370144A1370144A1370144A2821FE
:107C3C0013600446FFF738FF43070AD53D21204661
:107C4C00FFF732FF40F00402D2B23D212046FFF78D
:107C5C003DFF204625214022FFF738FF2046032117
:107C6C00BDE81040FFF780BF83E103203EE1032015
:107C7C003CE1032044E103203DE1032045E10320E6
:107C8C0038E1032010B5044601F0D0FB0B4B1A78F9
:107C9C00032A02D10A4A127852B91B78032B02D15B
:107CAC0001F0C6FB02E02046FFF7B2FF002010BD3A
:107CBC0020460121FFF758FF012010BD84E103206D
:107CCC0044E10320002910B50446817214BF0F2231
:107CDC001A221321FFF7FAFEA37A43B11121204691
:107CEC00FFF7E2FE00F01F0242F0600202E0627A4F
:107CFC0042F0800220461121BDE81040FFF7E6BE9D
:107D0C002DE9F0413D4B1B78032B044614D128215F
:107D1C00FFF7CAFE430717D40EE013783C2B04D8A8
:107D2C001378374ADBB20021D1542046FFF77AFE94
:107D3C0003212046FFF718FF00212046FFF7ECFE39
:107D4C00304B1860BDE8F08101212046FFF70CFF95
:107D5C002046FFF790FE0020FFF784FE0020FFF77F
:107D6C0081FE294D28702B78422B14D82B78DBB24E
:107D7C0000202B70FFF776FE244B227A187032B954
:107D8C001A78E179914202D01B78FF2B05D12B7820
:107D9C00022B02D90BE04223EAE7204600232B708A
:107DAC00FFF740FE2046BDE8F041FFF731BF164B10
:107DBC00174E1B78124F033BDBB200203370FFF7DA
:107DCC0051FE144B18700020FFF74CFE124A20F0A5
:107DDC007F03DBB2137000F04000104BC0B2187080
:107DEC00002331780A4ADDB28D4203F1010894D2A6
:107DFC000020FFF737FE43467855F2E784E1032075
:107E0C0046E1032038E1032044E103203CE1032058
:107E1C0083E103203EE1032045E103203DE1032003
:107E2C00F8B50D4601210446FFF79EFE8DB12046A4
:107E3C00FFF721FEBE20FFF715FE6E1E05F10F07A2
:107E4C0016F8010FFFF70EFEBE42F9D12046FFF7E0
:107E5C00E9FD3D212046FFF727FE20F00100002D13
:107E6C000CBF024640F00102D2B220463D21BDE8D3
:107E7C00F840FFF72BBE0000F0B58FB00D4604465E
:107E8C000021164603A82A221F4602F00BFF0123ED
:107E9C008DF80C3003238DF810308DF81530062337
:107EAC008DF8163033238DF8173007238DF81830E2
:107EBC0008238DF81A3009238DF81C3019238DF8FE
:107ECC001E3025238DF8203029238DF82230DC2319
:107EDC008DF823302E238DF8243088238DF825300F
:107EEC002F238DF826302D238DF8273037238DF84E
:107EFC002A3090238DF82B3038238DF82C303C23EE
:107F0C00042202218DF82E308F238DF80D208DF850
:107F1C000E108DF811108DF81220052140228DF8CD
:107F2C002F303D238DF813208DF814108DF821205F
:107F3C00422130228DF8303012238DF81F108DF82D
:107F4C0028208DF82D108DF831306F238DF83230BC
:107F5C001F2D4FF0FF038DF833208DF8343006D0F1
:107F6C002B2D06D0562D0CBFD922E42202E04E2236
:107F7C0000E06C221F2D8DF8192006D02B2D06D079
:107F8C00562D14BFC022002202E0C02200E0402285
:107F9C00012120798DF81B208DF8297002F004F84E
:107FAC00FFF74AFD00F046FC00F052F90546AA2204
:107FBC002F212046FFF78AFD2F212046FFF774FD65
:107FCC00AA2804D000F044F9401B3128EFD900F066
:107FDC003FF9401B31282DD800F03AF905465522BF
:107FEC002F212046FFF772FD2F212046FFF75CFD65
:107FFC00552821D000F02CF9401B3128EFD91BE07B
:10800C0000212046FFF70CFFA17A2046FFF75AFE0D
:10801C0001212046FFF7A8FD00F01AF9054627219B
:10802C002046FFF741FD03061BD500F011F9401B5C
:10803C0031281CD9002028E000F00AF9401B312817
:10804C00F8D80025EBB20EAA02EB4303013513F866
:10805C002C1CFF29D4D013F82B2C2046FFF736FD0F
:10806C00F0E700F0F5F8401B3128D8D9DDE7002304
:10807C000093A07906494FF0FF33012201F0AEF9CD
:10808C000028D7D0034BE6711C600FB0F0BD00BFC9
:10809C00217A0D0040E1032000F012B800F010B876
:1080AC0008B5024B1B689B68019308BD680203006E
:1080BC0008B5024B1B68DB68019308BD680203001E
:1080CC0008B5024B1B681B68019308BD2C0203000A
:1080DC0008B5024B1B689B68019308BD2C0203007A
:1080EC0008B5024B1B68DB68019308BD2C0203002A
:1080FC0008B5024B1B681B69019308BD2C020300D9
:10810C0008B5024B1B685B69019308BD2C02030088
:10811C0008B5024B1B689B69019308BD2C02030038
:10812C0008B5024B1B68DB69019308BD2C020300E8
:10813C0008B5024B1B681B6A019308BD2C02030097
:10814C0008B5024B1B685B6A019308BD2C02030047
:10815C0008B5024B1B681B68019308BD3002030075
:10816C0008B5024B1B689B68019308BD30020300E5
:10817C0008B5024B1B68DB68019308BD3002030095
:10818C0008B5024B1B681B69019308BD3002030044
:10819C0008B5024B1B685B69019308BD30020300F4
:1081AC0008B5024B1B68DB69019308BD3002030064
:1081BC0008B5024B1B681B6A019308BD3002030013
:1081CC0008B5024B1B685B6A019308BD30020300C3
:1081DC0008B5024B1B689B6A019308BD3002030073
:1081EC0008B5024B1B689B6B019308BD3002030062
:1081FC0008B5024B1B68DB6B019308BD3002030012
:10820C0008B5024B1B681B6C019308BD30020300C0
:10821C0008B5024B1B685B6C019308BD3002030070
:10822C0008B5024B1B685B69019308BD6C02030027
:10823C0008B5024B1B685B68019308BD180203006C
:10824C0008B5024B1B681B69019308BD180203009B
:10825C0008B5024B1B685B69019308BD180203004B
:10826C0008B5024B1B68DB69019308BD18020300BB
:10827C0008B5024B1B689B6A019308BD18020300EA
:10828C0008B5024B1B685B6C019308BD1802030018
:10829C0008B5024B1B689B6C019308BD18020300C8
:1082AC0008B5024B1B689B6D019308BD18020300B7
:1082BC0008B5024B1B689B68019308BD480203007C
:1082CC0008B5024B1B68DB68019308BD480203002C
:1082DC0008B5024B1B681B69019308BD48020300DB
:1082EC0008B5024B1B685B69019308BD480203008B
:1082FC0008B5024B1B68DB69019308BD48020300FB
:10830C0008B5024B1B681B6A019308BD48020300A9
:10831C0008B5024B1B685B6A019308BD4802030059
:10832C0008B5024B1B689B6A019308BD4802030009
:10833C0008B5024B1B68DB6A019308BD48020300B9
:10834C0008B5024B1B685B6C019308BD4802030027
:10835C0008B5024B1B689B6C019308BD48020300D7
:10836C0008B5024B1B681B6F019308BD4802030044
:10837C0008B5024B1B685B69019308BD64020300DE
:10838C0008B5024B1B681B6A019308BD640203000D
:10839C0008B5024B1B689B6A019308BD640203007D
:1083AC0008B5024B1B681B68019308BD3C02030017
:1083BC0008B5024B1B68DB68019308BD3C02030047
:1083CC0008B5024B1B681B69019308BD3C020300F6
:1083DC0008B5024B1B685B69019308BD3C020300A6
:1083EC0008B5024B1B689B69019308BD3C02030056
:1083FC0008B5024B1B68DB69019308BD3C02030006
:10840C0008B5024B1B681B6A019308BD3C020300B4
:10841C0008B5024B1B689B6A019308BD3C02030024
:10842C0008B5024B1B689B69019308BD2802030029
:10843C0008B5024B1B68DB69019308BD28020300D9
:10844C0008B5024B1B681B6A019308BD2802030088
:10845C0008B5024B1B685B6A019308BD2802030038
:10846C0008B5024B1B689B6A019308BD28020300E8
:10847C0008B5024B1B68DB6A019308BD2802030098
:10848C0008B5024B1B681B6B019308BD2802030047
:10849C0008B5024B1B685B6B019308BD28020300F7
:1084AC0008B5024B1B681B6C019308BD2802030026
:1084BC0008B5024B1B689B6C019308BD2802030096
:1084CC0008B5024B1B68DB6C019308BD2802030046
:1084DC0008B5024B1B681B6D019308BD28020300F5
:1084EC0008B5024B1B689B69019308BD3802030059
:1084FC0008B5024B1B68DB69019308BD3802030009
:10850C0008B5024B1B681B6A019308BD38020300B7
:10851C0008B5024B1B689B6A019308BD3802030027
:10852C0008B5024B1B681B6B019308BD3802030096
:10853C0008B5024B1B689B6B019308BD3802030006
:10854C0008B5024B1B681B68019308BD4C02030065
:10855C0008B5024B1B685B68019308BD4C02030015
:10856C0008B5024B1B681B69019308BD4C02030044
:10857C0008B5024B1B685B69019308BD4C020300F4
:10858C0008B5024B1B689B69019308BD4C020300A4
:10859C0008B5024B1B68DB69019308BD4C02030054
:1085AC0008B5024B1B681B6A019308BD4C02030003
:1085BC0008B5024B1B681B6D019308BD60020300DC
:1085CC0008B5024B1B681B68019308BD2002030011
:1085DC0008B5024B1B685B68019308BD20020300C1
:1085EC0008B5024B1B685B69019308BD20020300B0
:1085FC0008B5024B1B68DB6A019308BD200203001F
:10860C0008B5024B1B689B6D019308BD200203004B
:10861C0008B5034B1B68D3F88830019308BD0000E4
:10862C002002030008B5034B1B68D3F89430019368
:10863C0008BD00002002030008B5024B1B685B68F4
:10864C00019308BD4002030008B5024B1B689B68F0
:10865C00019308BD4002030008B5024B1B68DB68A0
:10866C00019308BD4002030008B5024B1B681B694F
:10867C00019308BD4002030008B5024B1B685B69FF
:10868C00019308BD4002030008B5024B1B689B69AF
:10869C00019308BD4002030008B5024B1B68DB695F
:1086AC00019308BD4002030008B5024B1B681B6A0E
:1086BC00019308BD4002030008B5024B1B681B6BFD
:1086CC00019308BD4002030008B5024B1B685B6BAD
:1086DC00019308BD4002030008B5024B1B689B6860
:1086EC00019308BD4402030008B5024B1B685B698B
:1086FC00019308BD4402030008B5024B1B68DB69FB
:10870C00019308BD4402030008B5024B1B68DB6AE9
:10871C00019308BD4402030008B5024B1B681B6B98
:10872C00019308BD4402030008B5024B1B68DB6BC8
:10873C00019308BD4402030008B5024B1B681B687B
:10874C00019308BD1C02030008B5024B1B685B6853
:10875C00019308BD1C02030008B5024B1B689B6803
:10876C00019308BD1C02030008B5024B1B68DB68B3
:10877C00019308BD1C02030008B5024B1B685B6A21
:10878C00019308BD1C02030008B5024B1B68DB6B90
:10879C00019308BD1C020300002211464068FFF73C
:1087AC0083BF002211464068FFF78EBF002240684D
:1087BC00FFF782BF002281F001014068FFF76CBF18
:1087CC0000231A4619464068FFF75EBF00231A467D
:1087DC0019464068FFF750BF002211464068FFF76A
:1087EC0043BF002211464068FFF72EBF0022022132
:1087FC004068FFF731BF00231A464068FFF71CBFE3
:10880C00024B03225A60024A1A60704788E1032027
:10881C0004B10D000021FFF7F3BC0021FFF7F8BCF9
:10882C0010B5044601700846FFF7BAFC00236360DC
:10883C00204610BD10B504460078FFF7EBFF48B991
:10884C0020784FF6FF71FFF783FC2078BDE81040CD
:10885C00FFF7E3BF10BD38B5044600780D46FFF7AF
:10886C00D9FF40B920782946FFF77AFC2078BDE87B
:10887C003840FFF7D2BF38BD38B5044600780D46F6
:10888C00FFF7C8FF40B920782946FFF771FC207824
:10889C00BDE83840FFF7C1BF38BD0078FFF7BDBF5A
:1088AC00400830B51860002418688842E5B206D933
:1088BC000134082C02D040081860F5E70725024B5C
:1088CC005B5D137030BD00BF30B10D002DE9F0437E
:1088DC0007468FB000780E46FFF79CFF002862DB3E
:1088EC003C781422002109A802F0DCF90B23204665
:1088FC00002209A9ADF82430FFF762FC9DF82D4049
:10890C0054B19DF82C5035B9DDF830809DF8349079
:10891C009DF8354003E00024A146A046012533799B
:10892C0005B1BBB99D420BD1B268424508D18DF857
:10893C0020908DF82140BDF82010B289914209D0C9
:10894C0053B1002438780194009423462246012127
:10895C00FFF74EFC002026E08DF80F30B1680A9826
:10896C0004AB0DF10F02FFF79BFF317905B1B1B9E3
:10897C00A94208D0002438780194747B337B9DF88D
:10898C000F200094E4E7B3684345F3D38DF82090AF
:10899C008DF82140BDF82020B3899A42EAD1049B7E
:1089AC004345E7D1D6E70FB0BDE8F0832DE9F041A0
:1089BC0088B000230446007802930E461746FFF752
:1089CC0029FF054600BB94F800800146142203A839
:1089DC0002F068F90B232A4603A94046ADF80C3087
:1089EC00FFF7EEFB02AB0DF1070207FB06F1049853
:1089FC008DF80750FFF754FF20789DF80710FFF70C
:108A0C00BFFB2078FFF709FF029808B0BDE8F081A2
:108A1C0038B5044600780D46FFF7FCFEC8B961680E
:108A2C0071B10C4BC25CAA4202D001300828F9D1BA
:108A3C000130C0B2C14001222046FFF7B7FF03E06E
:108A4C0029462078FFF79CFB2078BDE83840FFF7DB
:108A5C00E4BE38BD30B10D0008B50078FFF798FBC7
:108A6C00C0B208BD30B587B004460A9D00780095A9
:108A7C00FFF7AEFB3DB902A92078FFF7B1FB9DF8DB
:108A8C001430DB07F7D407B030BD0078FFF790BB8C
:108A9C0010B50446006818B1FFF756FE002323609A
:108AAC0010BD10B50446FFF7F3FF204610BD0000C3
:108ABC0010B5094C00204FF6FF732060A080A07108
:108ACC0020816381FFF784FD2046044A0449BDE8F8
:108ADC00104001F03BBB00BF90E10320F0DA032013
:108AEC00AF8A0D0010B504460068FFF72DFE204636
:108AFC0010BD10B50446006808B1FFF725FE002331
:108B0C002360A360636010BD38B504460D46006851
:108B1C000131FFF721FE10B184E82100012038BD9E
:108B2C0010B50368044613B143688B4207D2204644
:108B3C00FFF7EAFF20B1A3680BB92268137001207C
:108B4C0010BD70B50E46114604461546FFF7E8FFFA
:108B5C0018B92046FFF7CDFF09E02A463146A5603B
:108B6C00206802F094F82268A3680021D1542046B2
:108B7C0070BD38B500230446036043608360037303
:108B8C000D4639B1084602F0D3F829460246204674
:108B9C00FFF7D7FF204638BD38B5054600680C46B0
:108BAC0060B16A688B689A4206D3096802F0B8F81B
:108BBC00A368AB6000230AE0FFF7C6FD23682B60B7
:108BCC0063686B60A368AB60002323606360A36081
:108BDC0038BD884210B50B46044607D0096819B158
:108BEC009A68FFF7AEFF01E0FFF783FF204610BD48
:108BFC00884210B5044601D0FFF7CEFF204610BDC9
:108C0C0038B505460C4641B1084602F091F82146AC
:108C1C0002462846FFF795FF01E0FFF76AFF28465A
:108C2C0038BD70B504460E4609B9002070BD6AB156
:108C3C008368D5182946FFF773FF0028F5D0206804
:108C4C00A3683146184402F06BF8A560012070BD92
:108C5C0010B58A6809680446FFF7E3FF10B920468F
:108C6C00FFF747FF204610BD10B50446006808B159
:108C7C00FFF76EFB204610BD10B5064C00232046B6
:108C8C002360FFF75DFB2046034A0449BDE8104012
:108C9C0001F05CBA9CE10320F0DA0320758C0D0026
:108CAC00F8B506460D468F180024BD420CD033682B
:108CBC0015F8011B9B6830469847002801DB0444DB
:108CCC00F3E7002C08BF04462046F8BD08B5FEF7B4
:108CDC0003FA08BD03689B68184738B50D21054693
:108CEC00FFF7F8FF0A2104462846FFF7F3FF20445C
:108CFC0038BD38B50546FEF7EFF904462846FFF7B0
:108D0C00ECFF204438BD30B58BB00B4600218DF8FC
:108D1C002410012A98BF0A220DF12304B3FBF2F5AB
:108D2C0005FB123303F0FF03092B94BF30333733A9
:108D3C00DBB2214604F801392B46002DEED1FEF7AB
:108D4C00CBF90BB030BD0CB42DE9F04387B000AFBC
:108D5C0007F13804054654F8049B3C600E46234644
:108D6C004A461421381DFFF707FD132805D8391D75
:108D7C002846FEF7B1F9044613E000F1080323F08E
:108D8C000703E846ADEB030D411C23464A466846F3
:108D9C003C60FFF7F1FC69462846FEF79DF9044656
:108DAC00C5461EB12846FFF798FF044420461C37E1
:108DBC00BD46BDE8F04302B070470000014B024ACB
:108DCC001A607047A0E10320ABB10D0008B500207C
:108DDC00FFF7A2FC28B1FFF787FC80F00100C0B2BE
:108DEC0008BD012008BD10B50020FFF759FA044654
:108DFC0068B9FFF7E5FB01280BD12046FFF700FC13
:108E0C0038B9FFF7E3FF30B9FFF766FCF9E701204B
:108E1C0010BD002010BDFFF7D9FF0020FFF740FA6E
:108E2C00003018BF012010BD08B5FFF7DCFFBDE80E
:108E3C000840FFF715BA0000024B1A68024B1A6083
:108E4C00704700BF88DA0320A4E103200021FFF75C
:108E5C00C7BB10B50446FCF75CF9204610BD0000FA
:108E6C000348044A04490023836001F06FB900BF32
:108E7C00A8E10320F0DA03205F8E0D00007D70471F
:108E8C00037D1BB18369B3F1004F02D19FED050A3D
:108E9C00704707EE903A9FED047AF8EEE77A87EE8A
:108EAC00870A7047000000000000C842037D1BB118
:108EBC00036AB3F1004F02D19FED050A704707EE2C
:108ECC00903A9FED047AF8EEE77A87EE870A7047BE
:108EDC00000000000000C842037D7BB1436A002BF8
:108EEC000CDB07EE903ADFED076A9FED070AB8EE50
:108EFC00E77AC7EE267A27EE800A7047BFEE000AA3
:108F0C00704700BF00FF7F470000C842037D7BB164
:108F1C00C369002B0CDB07EE903ADFED076A9FED7F
:108F2C00070AB8EEE77AC7EE267A27EE800A704772
:108F3C00BFEE000A704700BF00FF7F470000C84229
:108F4C002DE9F04107460C4615462AB90368C9B20B
:108F5C009B68BDE8F0411847002907DA0A2A05D1B9
:108F6C002D21FFF7B7FE6142064601E0214600269F
:108F7C00EAB23846FFF7C7FE3044BDE8F08170B561
:108F8C000D4606460A2281682846FFF7D9FF2C2198
:108F9C0004462846FFF79EFE0A220444F168284640
:108FAC00FFF7CEFF204470BDA0F10400FFF7E7BF30
:108FBC00006800F088BB10B50446016002710AB16C
:108FCC00FFF7F6FF204610BD38B504460D4601F0FC
:108FDC0097F82A4601462046FFF7EDFF204638BD9C
:108FEC00006800F079BB10B5037904460BB1FFF7AC
:108FFC00F7FF204610BDF8B5044616461D460F4631
:10900C00FFF7D6FF2068362100F052FB206803687A
:10901C0039469B6898470121206800F04CFB0222DE
:10902C0036210123206800F02DFB206803685B6962
:10903C0098473070206803685B6998472870204611
:10904C00BDE8F840FFF7CCBF07B502AB002203F830
:10905C00012D8DF8062004210DF10602FFF7CBFF40
:10906C009DF8070001F02EFB0022094B01F090FB4C
:10907C0001F0A0FD9DF8063000EE103A07EE900AC4
:10908C00B8EEC00A37EE800A03B05DF804FB00BFEF
:10909C000000703F08B50C4B33B100F077F9036852
:1090AC001B699847002809DC084B63B100F06AFA89
:1090BC0003681B699847002803DC08BDAFF30080E8
:1090CC00F2E7AFF3008008BD0000000000000000D4
:1090DC0008B5FFF7DFFFFFF7BBF8014B186008BDC1
:1090EC0004E503200248034A0349121A01F0CFBDDC
:1090FC0000F4032004F4032040B50D0007B5002351
:10910C0000931A466FF07701FFF78CFA03B05DF805
:10911C0004FB000007B543880A2B08D0502B09D15B
:10912C00094B1B683BB103B05DF804EB1847FFF724
:10913C00E5FF06E0002300931A466FF07701FFF776
:10914C0071FA03B05DF804FBB8E1032038B5104C9C
:10915C00104D2368AB42104B0CBF012200221A7039
:10916C0002D0FFF7BFFF2560FFF762F8044601F05D
:10917C00A1FD0A4B13B12046AFF300800021074834
:10918C00FFF7D2FA00210648BDE83840FFF740BA95
:10919C0000F403201E1C279ABCE1032000000000F1
:1091AC0021910D00704710B51821044600F0DCFF2A
:1091BC00204610BDF0B5037D062B8DB00E4600F198
:1091CC0004074FF0000402D000F1080518E00CADC4
:1091DC00394605F8304D2F232A460A20FFF7C8F8E8
:1091EC00284601F0A5FD33680246DB682946304667
:1091FC0098470FE024B12E213046FFF76BFD044455
:10920C0015F8011D0A223046FFF77DFDBD420444CE
:10921C00F0D120460DB0F0BD10B5054B044611221F
:10922C0040F8043B002101F03DFD204610BD00BF7D
:10923C007CB20D000346074A10B543F8042B01F12C
:10924C00100251F8044B43F8044B9142F9D10A78BF
:10925C001A7010BD7CB20D00037D042B01D1406847
:10926C0008E0062B0AD1436853B9836843B9C36835
:10927C0033B90069003018BF0120704700207047D7
:10928C000120704710B59DF8084044EA032343EAD7
:10929C00024242EA016104234160037510BD37B5F7
:1092AC000D788B784A78C97800912946FFF7EAFF48
:1092BC0003B030BD10B5034B03600446FFF7EFFF5E
:1092CC00204610BD7CB20D0041747047704708B544
:1092DC000021007CFFF754F930EA200028BF4FF042
:1092EC00FF3008BD08B50121007CFFF749F930EAD1
:1092FC00200028BF4FF0FF3008BD08B5007CFFF7F9
:10930C0037F920EAE07008BD08B5007CFFF728F9B2
:10931C0020EAE07008BD007CFFF742B910B51421BB
:10932C00044600F021FF204610BD38B50446007CF1
:10933C000D46FFF71DF9002801DC607C28B1294699
:10934C00207CFFF725F920EAE07038BD10B5044603
:10935C00002363604FF47A73A360054B23600123F1
:10936C000846217463741146FFF7EAF8204610BDD5
:10937C0090B20D000022007CFFF7EAB810B5142261
:10938C000446002101F08EFC204610BD30B50E4D78
:10939C0087B001A8FFF7F2FF296811F0010410D182
:1093AC002846FAF77AFE60B101AA21460748FFF772
:1093BC00CDFF2846FAF776FE054A0649034800F029
:1093CC00C5FE024807B030BDC0E10320C4E1032054
:1093DC00F0DA0320D9920D0000470000F0B585B0FB
:1093EC001C460E4617460546FEF79AFE00208442A0
:1093FC004FF0040303908DF80C30A5BF9DF8283076
:10940C008DF80E30034603AB009332463B460649BB
:10941C00A8BF8DF80D402846FEF77AFEB0FA80F012
:10942C00400905B0F0BD00BFE5930D00FEF788BE06
:10943C00FEF77EBE002211464068FFF715B90022E8
:10944C0011464068FFF730B9002211464068FFF71B
:10945C003BB900224068FFF72FB9002281F00101CF
:10946C004068FFF719B900231A4619464068FFF700
:10947C000BB900231A4619464068FFF7FDB80022C5
:10948C0011464068FFF7E0B8002202214068FFF760
:10949C00E3B800231A464068FFF7CEB838B5084C3D
:1094AC0028252A460021204601F0FCFB4FF0FF3313
:1094BC006360044B258004225A60034A1A6038BD4D
:1094CC00E0E10320D8E10320C0B20D0070474174E5
:1094DC00704708B5007CFEF79BFF20EAE07008BDE2
:1094EC0008B5007CFEF76CFF20EAE07008BD08B5FB
:1094FC00007CFEF775FF30EA200028BF4FF0FF30EC
:10950C0008BD08B5007CFEF763FF30EA200028BFD9
:10951C004FF0FF3008BD007CFEF76ABF10B5142178
:10952C00044600F021FE204610BD70B5457C044673
:10953C000E4625B9007CFEF76BFF002805DD314691
:10954C00207CBDE87040FEF733BF284670BD00009C
:10955C0010B5044608461146002262604FF47A7238
:10956C00A260054A22600122207462741A46FEF73A
:10957C0017FF204610BD00BFF4B20D00007CFEF7B3
:10958C003FBF000038B50C4D296811F0010411D112
:10959C002846FAF782FD68B1084A094B094821466A
:1095AC00FFF7D6FF2846FAF77DFD074A074905481D
:1095BC0000F0CCFD034838BDA0E20320A4E2032058
:1095CC001CE2032008E20320F0DA0320D9940D00FA
:1095DC007047F8B5064615460C468F18BC4206D0A7
:1095EC00336814F8011B9B6830469847F6E7284609
:1095FC00F8BD0022007CFEF723BF0021007CFEF7A3
:10960C0027BF0021007CFEF72BBF0021007CFEF75A
:10961C002FBF0021007CFEF733BF10B51421044688
:10962C0000F0A2FD204610BD10B504460023636077
:10963C004FF47A73A360044B2174084623601146DF
:10964C00FEF72EFF204610BD24B30D0070B50C465E
:10965C0086B0142506462A46002101A801F022FBFB
:10966C0023788DF8083063680393E3680493002231
:10967C00237A307CADF8045001A90593FEF728FF3E
:10968C0006B070BD1FB500338DF800104FF06401AB
:10969C00039118BF0123694601928DF80830FFF73A
:1096AC00D5FF05B05DF804FB0022007CFEF7B8BEC8
:1096BC00C9B2FFF7F9BF0022007CFEF7B9BE00214A
:1096CC00007CFEF7E5BE08B50021007CFEF7F0FE3D
:1096DC00B0FA80F0400908BD08B50021007CFEF707
:1096EC00EFFEB0FA80F0400908BD00221146406838
:1096FC00FEF7DABF002211464068FEF7E5BF0022F4
:10970C004068FEF7D9BF002281F001014068FEF7E6
:10971C00C3BF00231A4601214068FEF7B5BF0023E2
:10972C001A4619464068FEF7A7BF0022114640684A
:10973C00FEF79ABF002211464068FEF785BF002253
:10974C0002214068FEF788BF00231A464068FEF7E6
:10975C0073BF38B5054688B104684CB1A3681BB11A
:10976C0003222146204698471021204600F0FCFC9D
:10977C0028461421BDE8384000F0F6BC38BD10B1C5
:10978C0003685B681847704710B503680446BBB1A3
:10979C005868FEF78DFD78B923685A7C12B9586861
:1097AC00FEF796FD23685868FEF79AFD20680023A3
:1097BC00236028B1FFF7CDFF206808B1FFF7C9FF80
:1097CC00204610BD38B50446D0F8C40108B1FAF7EC
:1097DC0062FCD4F8C00108B1FEF7BAFDD4F8BC5154
:1097EC0035B12846FFF7D0FF0421284600F0BCFC19
:1097FC00206808B1FFF7C3FF204638BD10B5044BF5
:10980C00044640F8083BFFF7DDFF204610BD00BFC3
:10981C004CB30D0038B50E4C0E4B236000250223C3
:10982C0004F5E4706360A560C4F8C451C4F8C85171
:10983C00FEF786FD084BC4F8CC5184F8D051236058
:10984C002046064A0649BDE8384000F07FBC00BF00
:10985C0028E3032000B40D004CB30D00F0DA032014
:10986C0009980D0037B502AC036804F8011DDD6BD7
:10987C0001224FF0FF332146A84703B030BD10B48E
:10988C000368DC6B4FF0FF33A4465DF8044B604774
:10989C0037B502AC036804F8011DDD6B2146134695
:1098AC000122A84703B030BD704738B543691A6828
:1098BC00002A044605DAB3F88620B3F884309A42BD
:1098CC0001D001250BE003681B699847002814BFE1
:1098DC000125002503D123682046DB6A98472846DA
:1098EC0038BD43691868C043C00F704770470020EB
:1098FC00704710B51421044600F036FC204610BD0C
:10990C00FAF7C7BB7FB5164600224260029203925B
:10991C005A1C04460D4608D04FF47A72B3FBF2F190
:10992C00029102FB11314A430392606908230093B0
:10993C0041F205026B4440F6FF710068FEF7D0FD62
:10994C00002808DB60690023324629460068FEF7D0
:10995C00E7FD002804DAFEF717FF036863600020B8
:10996C0004B070BD10B5036804469B689847A368A3
:10997C00013BA3602BB923682046DB68BDE810408F
:10998C00184710BD70B504464D69054B44F8043BAF
:10999C008C3506460FCD0FC42B682370304670BD36
:1099AC007CB20D0010B54369B3F88620B3F884304F
:1099BC009A42044605D06269B2F88430134418798F
:1099CC0010BD03681B6998470028F4D14FF0FF3095
:1099DC0010BD10B54369B3F88620B3F884309A42B1
:1099EC00044608D06269B2F88430591C1344A2F8BA
:1099FC008410187910BD03681B6998470028F1D1B1
:109A0C004FF0FF3010BDF8B543691746B3F8862008
:109A1C00B3F884309A4205460E4606D103681B699A
:109A2C00984710B94FF0FF3414E06969B1F88430ED
:109A3C00B1F88640E41ABC4228BF3C461944224681
:109A4C000431304601F023F96A69B2F884302344BA
:109A5C00A2F884302046F8BD2DE9F04398460368FF
:109A6C0093B0DB6A0D4606461746984712AB0024A6
:109A7C0043F8484D224621462846FEF719FB8146FD
:109A8C0000283DD1009B002B56D05B69002B53D096
:109A9C0006A8FFF7C1FB009B5C696378022B01D120
:109AAC00211D13E00A2B14D11122494601A801F003
:109ABC00F9F8A36833BBE36823BB4FF6FF70256945
:109ACC00FEF75EFC85421DD104F1140106A8FFF7D8
