:02000002D0002C
:1040000000400D0068C60D00000006000D0005010F
:084010000401E80500000000B6
:04401800F4BB0D00E8
:1040200009480A49884208B505D0094A824202D0A7
:10403000121A07F0CCF90748074A0021121A07F0B4
:10404000D1F9014808BD00BFD0D8032054C50D00E8
:10405000BCD90320BCD90320F0E7032070B505F0DC
:1040600003FB074C074BE41AA40800251E46A54293
:1040700004D056F8253098470135F8E770BD00BFE9
:1040800050C50D00ACC40D0000F0CABA08B500F070
:10409000C9FABDE8084005F0A9BA04F08FBD04F0E4
:1040A0008DBD04F093BD04F091BD0078B0FA80F0AE
:1040B0004009704701230370704700002DE9F84F55
:1040C000AB4FDFF8BC82DFF8BC9205468B469246C8
:1040D000D34580F0B28105EB0B030BF102045E784F
:1040E00015F80B30013BE4B2392B00F2A081DFE878
:1040F00013F03A007100820063009300A6004400B0
:104100005C0090019E019E019E019E019E019E0108
:10411000B400C800DC00F0000401180135014B01B7
:104120005D016F0181019E019E019E019E019E0124
:104130009E019E019E019E019E019E019E019E0187
:104140009E019E019E019E019E019E019E019E0177
:10415000BE00D200E600FA000E0122012C0154013B
:10416000660178019001012E40F06A812B5D032BDE
:1041700000F25D8188F8093059E1022E40F060813B
:104180002B5DFF2B05D12C4463780B2B00F24F8164
:1041900008E0002B40F04B812C4463780B2B00F29D
:1041A00046815B42C8F8043041E1012E40F048816D
:1041B0002B5D88F808303AE10C2E40F041812C4408
:1041C0006C4B2068616803C3A06818606A4B0122C9
:1041D0001A702CE1042E40F0338129192A5D4B78A6
:1041E0001B0403EB0263CA7813448A7803EB0223AF
:1041F000C8F810301BE1042E40F0228129192A5DF5
:104200004B781B0403EB0263CA7813448A7803EBF0
:104210000223C8F814300AE11F2E00F21181202277
:104220000021564807F0DEF832462919534807F0B6
:10423000CEF808EB0603002283F8242009E0022EC2
:1042400040F0FE802B192A5D5B7803EB0223A8F86F
:104250004430012389F80030E9E0022E40F0F0807C
:104260002B192A5D5B7803EB02237B80DFE0022EB3
:1042700040F0E6802B192A5D5B7803EB0223BB83B9
:10428000D5E0022E40F0DC802B192A5D5B7803EB31
:104290000223BB80CBE0022E40F0D2802B192A5D96
:1042A0005B7803EB0223FB83C1E0022E40F0C88061
:1042B0002B192A5D5B7803EB0223FB80B7E0022E0B
:1042C00040F0BE802B192A5D5B7803EB02233B8410
:1042D000ADE0022E40F0B4802B192A5D5B7803EB31
:1042E00002233B81A3E0022E40F0AA802B192A5D15
:1042F0005B7803EB02237B8499E0022E40F0A080E0
:104300002B192A5D5B7803EB02237B818FE0022E61
:1043100040F096802B192A5D5B7803EB0223BB8467
:1043200085E0022E40F08C802B192A5D5B7803EB30
:104330000223BB817BE0022E40F082802B192A5D94
:104340005B7803EB0223FB8471E0022E78D12B19FA
:104350002A5D5B7803EB02233B8568E0022E6FD178
:104360002B192A5D5B7803EB0223FB815FE000BF22
:1043700050E603201CE60320C1D9032028E60320D1
:1043800004E60320D0D80320022E59D12B192A5D30
:104390005B7803EB02233B8249E0022E50D12B19BC
:1043A0002A5D5B7803EB02237B8540E0022E47D138
:1043B0002B192A5D5B7803EB02237B8237E0022E08
:1043C0003ED12B192A5D5B7803EB0223BB852EE0DF
:1043D000022E35D12B192A5D5B7803EB0223BB82B9
:1043E00025E0022E2CD12B192A5D5B7803EB0223EA
:1043F000FB851CE0042E23D129192A5D4B781B0470
:1044000003EB0263CA7813448A7803EB0223BB618F
:104410000DE0042E14D129192A5D4B781B0403EBFF
:104420000263CA7813448A7803EB02233B63B31C0C
:104430000BEB03065FFA86FB4AE60120BDE8F88F26
:104440000020BDE8F88F00BF10B5421C0023C9B2A0
:10445000141AA14203DD12F8014B2344F8E7D8B245
:1044600010BD000010B5827C0AB9002010BD1332C7
:10447000D2B21321FFF722FE0028F6D0074C4821C4
:104480002046FFF7E1FF2070054C34212046FFF75E
:10449000DBFF044B20700120187010BD04E60320E0
:1044A00050E60320C0D90320427C0F2A03D0102AF3
:1044B00008D1FFF7D7BFC37C012B03D8024A0120E4
:1044C00013707047002070474CE60320F8B5344C59
:1044D00048220021204606F085FF0323314A63600D
:1044E000072323724FF4E16310685168E36023618E
:1044F0004FF41673636104F1180303C390681860E6
:10450000294B04F1240203F1100618685968154676
:1045100003C50833B3422A46F7D11B882B804821B4
:1045200040F25B731E48A4F84430FFF78DFF207003
:104530001E4C1F4F1F4E34220021204606F052FF12
:104540003C23E380FF23A383E3835A226384A38471
:10455000E38423856385A385E38534214FF4487381
:10456000204622842363FFF76FFF482220700C4906
:10457000384606F02CFF0FCC35460FC50FCC0FC5C3
:104580000FCC0FC523682B6048213846FFF75CFF2E
:10459000342138703046FFF757FF3070F8BD00BF48
:1045A000A8E60320E3D80320D1D80320CCE50320DC
:1045B00004E6032050E6032038B5437804463BB3B5
:1045C00002783C2A24D1034413F8013C3E2B1FD12E
:1045D000011D0C22104806F0EBFEC8B9A578412D4C
:1045E00010D1637C0D4A13B9A37C012B02D0137840
:1045F000013B05E01378E17C013BDBB2994208D036
:10460000137005E0532D03D12046FFF74DFF00B98D
:104610000025284638BD00BF9CE60320C2D90320F0
:1046200000F05CB800F006BC08B503F08BFF002179
:104630000120BDE8084004F01DBA000010B5214B70
:104640001B78012BC8B036D1684601F0D7F9012894
:1046500031D1FF2208A9684601F090F901282AD13A
:1046600005F022F9184904F083FD05F01DF96946AB
:10467000044604A804F0CFFC0499204604F078FD19
:1046800004A804F081FC9DF8211008A800F0F6FCB5
:1046900060B1684601F06CF9012803D105F004F916
:1046A0000A4906E005F000F9094902E005F0FCF8C6
:1046B000084904F070FD04F00DF8074B186048B08D
:1046C00010BD00BF55DA032008BC0D0014BC0D005E
:1046D00018BC0D0023BC0D00C4D9032008B505F09B
:1046E000E3F84FF4964105F0D3F801F055FA00F0E5
:1046F000C3FE00F06BFD01F0DFFA00F0F5FBBDE852
:10470000084001F06BB80000452330B543544B1C02
:10471000DBB25522C2540B4C8A1CD2B223688350A0
:10472000851863686B60A368AB60074B1A78541CEC
:104730001C7001F10E03DBB2C25401F10F00C0B2D4
:1047400030BD00BF9CE60320C3D903202DE9F84308
:104750000C4605469946174601F00AFA804601F0D4
:1047600009FAFE232B55A31CDBB21722EA54E31CE3
:10477000DBB20C22EA54474B221D03CBD2B205EB2D
:10478000020EA850CEF804101868CEF8080004F104
:104790001003DBB20222EA5404F11103DBB204225B
:1047A000EA5404F11203DBB24FEA182105F8038042
:1047B00004F11303DBB210EE106AE95404F11403A0
:1047C000DBB24FEA1841E95404F11503DBB24FEABA
:1047D000186805F8038004F11603DBB20D21E954D3
:1047E00004F11703DBB2310AEA5404F11803DBB217
:1047F0000720EE5404F11903DBB2E95404F11A0363
:10480000DBB2310CE95404F11B03DBB2360EEE547B
:1048100004F11C03DBB20F21E95404F11D03DBB2E8
:104820000121E9541C4B197804F11E03DBB2E95451
:104830001A4B196804F11F03DBB2E85404F120039A
:10484000DBB204F12500EA5404F12103DBB20A0AC9
:10485000E95404F12203DBB2C0B2EA5404F12303A9
:10486000DBB20A0CEA5404F12403DBB209EB0006C4
:10487000090EFD2EE95405DC4A463946284406F067
:10488000A6FDF0B22544C4F1FE0404446C70BDE8FA
:10489000F88300BF1CE603204CE60320B8DA0320AF
:1048A000F7B5194E01F064F93578012D074628D186
:1048B000164B984225D9164CFF220021204606F0BF
:1048C00091FDFD238DF804303C23237045225523B0
:1048D000022120468DF805508DF80650FFF714FF91
:1048E0000323014601AA2046FFF730FF3E23421C66
:1048F0002354D2B221463846627000F0CFFF002325
:10490000337003B0F0BD00BFEFD8032000E10B5EB1
:10491000F1E6032070B50D46064604F0C5FF0368B6
:104920001B699847C4B20CB9002419E0AC420CD8FA
:10493000354604F0B9FF03685B69984705F8010B39
:10494000AB1BDBB29C42F4D80AE0002504F0ACFFBC
:10495000036801355B699847EBB29C42F6D8E3E700
:10496000204670BDF8B5264CFF220021204606F0F7
:1049700039FDFF212046FFF7CDFF064600283ED037
:1049800004F092FF1F4904F0F3FB771E651E2744D5
:10499000BD420FD015F8013F0F2B04D804F084FF5F
:1049A000194904F0E5FB04F07FFF1022297804F098
:1049B000FCFBEDE704F078FF144904F0D9FB237801
:1049C000102B1CD1324602210D48FFF777FB01283E
:1049D0000ED10F4B0F4C187048212046FFF734FDC5
:1049E00020700D4C34212046FFF72EFD2070F8BDBD
:1049F00004F05AFF0949BDE8F84004F0CCBBF8BD0B
:104A0000F1E603202FBC0D004ABC0D004CBC0D008C
:104A1000C0D9032004E6032050E603204FBC0D005C
:104A200008B503F057FE054B1B68C01AB0F57A7F36
:104A300003D9BDE80840FFF701BE08BDC4D9032073
:104A40002DE9F7430646084606F0E4F804463046EA
:104A50000D4606F0DFF830A3D3E9002306F040F955
:104A600036A3D3E9002305F087FF06F04BFB06F0E1
:104A7000E3F80022304B05F07FFF25A3D3E90023A4
:104A800006460F462046294606F02AF922A3D3E916
:104A9000002305F073FF02460B463046394606F008
:104AA0001FF91FA3D3E9002306460F4620462946D7
:104AB00006F016F91CA3D3E9002305F05DFF1CA343
:104AC000D3E90023804689462046294606F008F9A6
:104AD00022462B4606F004F902460B46404649465C
:104AE00005F04CFF02460B463046394605F046FFBE
:104AF00006F008FB07EE900AFCEEE77ACDED017AAE
:104B0000BDF8040003B0BDE8F08300BFAFF3008040
:104B1000F168E388B5F8143F7B14AE47E17A843F2F
:104B200027C286A757CAA23F569FABADD85F0040A9
:104B30001D5EFFD203D6BABE0000394014AE47E175
:104B40007AD44340F8B54FF6FF7100250446467805
:104B5000AE4608460227B74225D214F807C0E3192B
:104B6000BA1CBCF1060F5B78D2B20FD0BCF10A0FB1
:104B700015D1022B13D104EB020EA05C9EF801208C
:104B800002EB002080B24FF0010E08E0022B06D1AC
:104B9000A518A15C6A7802EB012189B201259A1C53
:104BA000BB18DFB2D7E7074B4DB1BEF1000F06D0FF
:104BB000FF221A70FFF744FF034B1880F8BD002254
:104BC0001A70F8BD90DA0320B4DA032038B5054630
:104BD00022B90368C9B29B68984702E0D2B204F0D8
:104BE000E4FA0446284604F0CAFA204438BD00001E
:104BF00070B590B03D21684601F0B4F80546C8B3E1
:104C00001D4C012000F0F6FB6846FFF79BFFFF22DA
:104C10000021204606F0E6FB3C2323704522552365
:104C200002212046FFF770FD6A4601462B462046CA
:104C3000FFF78CFD451C3E23EDB22354657004F054
:104C400033FE0E4904F094FA04F02EFE064600F0FE
:104C50008FFF102201463046FFF7B8FF00F088FFB3
:104C6000074B984203D92A46214600F017FE002040
:104C700000F0C0FB10B070BDF1E603205FBC0D007A
:104C800000E10B5E2DE9F0415A4B1A78012A1F46CC
:104C900040F0AD8004F008FE5749584C04F068FA23
:104CA00004F002FE0A22617A054604F07EFA2846E4
:104CB00004F065FA04F0F8FD514904F059FA04F0E3
:104CC000F3FD0A222169FFF781FF04F0EDFD4D4954
:104CD00004F04EFA04F0E8FD0A226169FFF776FF5E
:104CE00004F0E2FD484904F043FA04F1170604F128
:104CF0002308254616F8013F0F2B04D804F0D4FDF5
:104D0000424904F035FA04F0CFFD1022317804F066
:104D10004CFAB045EED104F0C7FD3D4904F028FA45
:104D200004F0C2FD3B4904F023FA04F0BDFD3A490A
:104D300004F031FA04F0B8FD384904F019FA04F02F
:104D4000B3FD0A22B5F84410044604F02EFA2046BA
:104D500004F015FA04F0A8FD314904F009FA04F052
:104D6000A3FD6C68002C064604DA2D2104F004FA39
:104D7000614200E021460A22304604F016FA30462D
:104D800004F0FDF904F090FD264904F0F1F904F077
:104D90008BFD0A22297A044604F007FA204604F023
:104DA000EEF904F081FD204904F0E2F904F07CFD05
:104DB0000A22E968FFF70AFF04F076FD1B4904F0B8
:104DC000D7F904F071FD0A222978044604F0EDF9C0
:104DD000204604F0D4F9094800F022FA012804D151
:104DE00004F062FD124904F0D6F900233B70BDE8DF
:104DF000F08100BFC0D9032067BC0D0004E603208A
:104E000071BC0D0086BC0D0098BC0D004ABC0D00A5
:104E100057C00D00A8BC0D0028E60320B6BC0D004D
:104E2000C9BC0D00D4BC0D00E6BC0D00FABC0D00E1
:104E300005BD0D0008B5FFF795FDFFF723FF00F056
:104E4000DFFEFFF72DFDFFF7D3FE00F097F800F02F
:104E5000A5FFFFF7E5FDBDE8084000F0C3BA03F089
:104E600071BB00002DE9F041D31D23F0070300AF13
:104E7000ADEB030D6846904606F0A9FA04F014FD68
:104E8000164904F075F96C460025EEB2B0450FD90D
:104E9000A35D0F2B04D804F007FD114904F068F955
:104EA00004F002FD1022A15D04F07FF90135ECE76A
:104EB0002046FFF781FB054604F0F6FC094904F0A3
:104EC00057F904F0F1FC0A220446294604F06DF972
:104ED000204604F054F9BD46BDE8F08121BD0D0027
:104EE0004ABC0D0030BD0D0010B51E4C88B004A8A2
:104EF00003F044FE04A9204604F0CCF804A804F012
:104F000043F8194904A804F086F8684603F036FE11
:104F1000694604A804F0EEF80146144804F0ABF822
:104F2000684604F031F804A804F02EF8104904A8EB
:104F300004F071F8684603F021FE694604A804F005
:104F4000D9F801460B4804F096F8684604F01CF8BE
:104F500004A804F019F82168074801F06BF908B0BB
:104F600010BD00BFECD9032040BD0D00CCD90320FB
:104F700043BD0D00DCD90320FCD903202DE9F84303
:104F8000344B1A78012A00AF1D4639D13249E84620
:104F90000022501CD2B28B182F4E93F824400CB133
:104FA0000246F6E702F1080323F00703ADEB030D19
:104FB000013206F12401684606F009FA04F074FC97
:104FC000264904F0D5F804F06FFC694604F0D0F8E7
:104FD00004F06AFC224904F0CBF804F065FC0A22D4
:104FE000B6F84410814604F0E0F8484604F0C7F8EB
:104FF0006946B6F844201B4801F032F82C70C546CB
:105000001848194C01F01EF870B11648012501F03E
:10501000CEF92570154C2378C3B9154B1148196882
:1050200001F0F1FA257011E02070124C03F052FBF0
:105030002368C01A42F21073984207D90E4B0948F0
:10504000196801F0F7F803F045FB2060BD46BDE8A4
:10505000F88300BFD0D8032004E60320ADBC0D00C8
:10506000C1BC0D00FCD9032055DA032054DA03201B
:10507000CCD90320C8D90320ECD9032070B505464C
:105080000D480E4600F0DEFF044668B10B490A48A1
:10509000096833462A4601F04DF9094B064819685C
:1050A00001F0B1FA012070BD04F0FEFB054904F0E7
:1050B00072F8204670BD00BFFCD90320DCD9032064
:1050C000CCD9032046BD0D00F8B5194E194F1A4C26
:1050D0001A4D03F037FA3146384603F09CFF384644
:1050E000174F2246294605F0D9FA3146384603F0D3
:1050F00092FF3846134F2246294605F0CFFA314633
:10510000384603F088FF29460F4D2246384605F001
:10511000C5FA0E4B0E4940F25B72284600F0AAFE1B
:10512000224628460B49BDE8F84005F0B7BA00BF53
:1051300058C00D00ECD90320BCD90320898F0D0085
:10514000CCD90320DCD90320FCD90320654E0D0007
:1051500055BD0D000D660D0010B5074C03F0F2F9BA
:105160000649204603F057FF2046054A0549BDE899
:10517000104005F093BA00BF58DA032058C00D0064
:10518000BCD90320898F0D0010B592B048220021B0
:105190000446684606F026F905F0ECF9482269460F
:1051A000002003F0AFFA48216846FFF74DF99DF85B
:1051B0000030834206D148226946204606F007F9AE
:1051C000012000E0002012B010BD000010B592B028
:1051D0006846FFF7D9FF482104466846FFF734F9CF
:1051E00024B19DF80030834200D13BB904F05CFB50
:1051F000084903F0D0FFFFF769F909E004F054FB18
:10520000054903F0C8FF48226946044806F0DFF864
:1052100012B010BDF6BD0D000DBE0D0004E603205A
:1052200010B5044692B005F0A5F9482221460020A9
:1052300003F070FA6846FFF7A7FF9DF80000237897
:10524000C31A5842584112B010BD03F07BB9000098
:10525000024A136801331360704700BF84DA0320E9
:1052600003681847012A02D0022A02D004E0016034
:1052700002E00B6800B1036000207047436913B17E
:1052800083690C301847704713B50021044608465F
:1052900003F070FA02A90023204641F8043D03F010
:1052A00081FA019C0CB1012323710021012003F03C
:1052B00061FA2CB1236820469B689847002323712C
:1052C00002B010BD10B58368044613B10322014635
:1052D0009847204610BD0000F0B500258E461549C0
:1052E0000571856045610160044692E8030085B060
:1052F00002AF04F10C0687E8030096E8030082E899
:10530000030097E8030086E80300916860699060F5
:105310006161D168A069D060A1618DE82800064A6A
:105320002346714604F1080003F02CFA204605B02C
:10533000F0BD00BF40BE0D0089520D0007B580686A
:10534000002338B18DE80A00022103F033FAB0FAE5
:1053500080F0400903B05DF804FB000038B5104B45
:10536000036083680446A3B16FF000410022FFF799
:10537000E5FF0021A06803F035FA237903F0FF056B
:1053800013B103F0DFF9F8E72946A06803F002FA49
:10539000A56004F10C00FFF795FF204638BD00BF63
:1053A00040BE0D0010B50446FFF7D8FF20461C2173
:1053B00005F082F9204610BD73B5064614460D4629
:1053C00000222146FFF7BAFFB068002340B10193E5
:1053D00000952246194603F0EDF9B0FA80F0400935
:1053E00002B070BD024B0720197805F096B800BFD7
:1053F0004CE603200146072005F08FB808B50F20C2
:1054000005F0A4F8C0B208BD08B5FFF7F7FF084BD8
:1054100010B91A78013200E000221A701B78032BB1
:105420009FBF044A137883F00103137008BD00BFC7
:1054300091DA032089DA032007B50221052005F05F
:105440005BF80023009302224FF0FF33034905204D
:1054500004F052FA03B05DF804FB00BF51520D0096
:1054600008B5FFF7E9FF00226FF000410148FFF7A0
:10547000A3FF08BD68DA032010B502210F2005F054
:105480003BF800226FF000410B48FFF795FF0B4BF4
:105490000024012107201C7005F02EF82046FFF79C
:1054A000A9FF0121072005F027F8054B1C70BDE876
:1054B0001040FFF7D5BF00BF98DA032091DA032030
:1054C0004CE60320052004F03FBA000008B503F0C5
:1054D00037FF054B5B68C01801D5183002E017286C
:1054E000D8BF1838C0B208BD04E6032008B5FFF7DE
:1054F000EDFF264B1A7882420ED0254A127A82425C
:1055000003D1244A0121117005E020B9214A10700D
:10551000214A002111601870204B214A1B78A3B149
:10552000204BD3ED067A204BF8EE677A93ED007AA4
:10553000F4EEC77AF1EE10FA0ADD154BD9681B4B71
:105540001B68994204D9012303E0124B1B7813B95D
:105550000023137008BD164B1B78FF2BF8D1154B99
:105560001988104BD8888842F2D9188C8842EFD914
:10557000D3ED0C7A084BF8EE677A93ED007AF4EEEF
:10558000C77AF1EE10FADEDCE2E700BF92DA032020
:1055900004E6032088DA0320B8DA032089DA03203E
:1055A0004CE6032050E603208CDA032094DA032033
:1055B00090DA0320B4DA0320044B1B78012B044B50
:1055C0000ABF1A68002201321A6070474CE60320B5
:1055D00094DA032010B5FFF775FF174B1C68002203
:1055E0001A60FFF729FF204605F004FB0022134B49
:1055F00005F0A0FC05F086FDDFED117A114B07EEFA
:10560000100AC7EE276A93ED007A37EE267A83ED0B
:10561000007A0D4B1A780D4B32B1D3ED007A77EE4C
:10562000A67AC3ED007A01E000221A60FFF7C4FFFA
:10563000BDE81040FFF75ABF84DA03200000124093
:1056400000007042B8DA032089DA03208CDA0320E4
:105650002DE9FF41DFF87C80174F184C184E194D8B
:1056600002F070FF184B00936A4600234FF47A71E2
:10567000404602940397FFF72FFE6846FFF722FE8D
:1056800032462946404605F009F802940F4C104B6B
:1056900000936A4600234FF47A7120460397FFF780
:1056A0001BFE6846FFF70EFE32462946204604F0F0
:1056B000F5FF04B0BDE8F08161520D0065520D00A8
:1056C000BCD903205D530D0009540D0068DA032096
:1056D000D5550D0098DA0320037C03F00803024639
:1056E00003F0FF002BB1D36A506A181A48BF6FF05D
:1056F00000407047704770477FB5024608461379EF
:10570000956833B13DB90C4904B0BDE8704003F071
:105710002FBD0A4B00E00A4B167B0A4C0A49527B0C
:105720000292012E08BF214601910095074A0021EF
:1057300003F05BFD04B070BDA9BE0D0058C00D00A4
:1057400098BE0D00A1BE0D00A5BE0D00BFBE0D0090
:10575000103001F095BD103001F06CBC103001F03C
:105760002FBE083001F02CBE07B502AB012203F8B2
:10577000011D1030194601F023FE03B05DF804FB53
:1057800010B52C21044604F097FF204610BD10B53B
:105790003421044604F090FF204610BD07B502AB4B
:1057A000012203F8011D0830194601F009FE03B07B
:1057B0005DF804FB07B501220DF1070101F087FB3D
:1057C00001280CBF9DF807004FF0FF3003B05DF8D3
:1057D00004FB08B51030FFF7EDFF08BD7FB520488A
:1057E000037A13B1083001F081FD1E4C1E4B1F4A95
:1057F000009304F58C6600238DF804300292012595
:105800008DF80D300E226B4604F26C4130468DF857
:105810000C5002F01DF900B304F23C40266001F088
:1058200065FD2946204601F0BCFF014680B10D4CC4
:1058300004F23C452146284601F031FB68B194F85A
:105840003C3413F0700316BF094B18461D6005E089
:10585000204601F0A6FF0028E9D1002004B070BD69
:1058600078DF0320F4DA032054BE0D0080F0FA0242
:105870001CE0032007B50246D3B20193C2F307230D
:1058800000930846C2F307430349120E03F0AEF932
:1058900003B05DF804FB00BFDDBE0D002DE9F04153
:1058A00092B0884601A91746FFF7E4FF00238DF860
:1058B00024308DF8253006934FF47A730793244BE8
:1058C000059301AA44F202232249234E09A809ACF8
:1058D00001F013FD0FCC06F110050FC50FCC0FC55D
:1058E00023682B60069B7360079BB360089BF36083
:1058F00003F0DAFF194903F03BFC03F0D5FF01A9DF
:1059000003F036FC03F0D0FF154903F031FC03F03F
:10591000CBFF0A22394603F048FC347C5CB13A469E
:1059200041463046FFF71AFF03F0BEFF0D4903F072
:1059300032FC012404E003F0B7FF0B4903F02BFC19
:105940000A4801F0D3FC204612B0BDE8F08100BF48
:1059500060BE0D0030DF0320A4DF0320F2BE0D0087
:10596000FBBE0D0014BC0D001CBC0D00B4DF0320F9
:105970000146014801F010BD30DF03202DE9F04160
:105980008EB090464FF47A720392184A0192002327
:1059900002460F4605A816498DF8143005AC8DF85F
:1059A0001530029301F0A9FC0FCC124E06F1100540
:1059B0000FC50FCC0FC523682B60029B7360307C32
:1059C000039BB360049BF36060B13C46E31B9845C6
:1059D000094804DDFFF7EEFE04F8010BF6E701F0DD
:1059E00085FC01200EB0BDE8F08100BF60BE0D0057
:1059F00030DF0320A4DF0320B4DF032010B504460A
:105A0000FFF7ECFE08B9002010BD1049104A0968E4
:105A10001048002301F071FC0028F4D000220D4949
:105A20000D4801F0EEFB0C4801F060FC0022094932
:105A3000094801F0E6FB0028E5D02146064801F0C0
:105A400091F9054801F052FC012010BD1CE0032033
:105A500003BF0D0080DF0320D0DA032070B502F011
:105A600071FD274B274E642183F860142649C3F843
:105A70007014012183F874143168002211F00105BB
:105A8000DA7183F83C2483F83D2483F86A24C3F850
:105A9000782483F87C2483F87D241C460AD1304680
:105AA000FEF703FB30B12946184803F00BF93046E6
:105AB000FEF700FB1648154BC4F86C3400244FF475
:105AC0007A730474447444608360124A124B13491D
:105AD000036004F0E3FD1248124D04724472446006
:105AE0000C4A1149056004F0D9FD1048094A0472B6
:105AF0004472446005600C49BDE8704004F0CEBDBE
:105B0000F4DA0320BCDA032054BE0D00C0DA03200F
:105B1000A4DF0320BCD9032060BE0D00F7560D00A2
:105B200078DF032088BE0D00F5560D00C8DA03208B
:105B3000704710B52821044604F0BEFD204610BD74
:105B400010B502F0C7FD084B1A68801A074A904248
:105B50001C4608D903F00AF810B1002003F016F82B
:105B600002F0B8FD206010BD00E00320005C2605B7
:105B700003F0DEBB014803F0F5BC00BF04E00320E6
:105B800010B5044C0146204605F05CFC001BC0B279
:105B900010BD00BFF0D803202DE9FF4102F09AFDAF
:105BA000144B1860684602F0E9FF009B124A03F1AB
:105BB0001801174653F8040B42F8040B8B42F9D135
:105BC000684603F0E1F90D4E0025785DFFF7D8FF38
:105BD00007EB05080001C4B298F8010006F8014F70
:105BE000FFF7CEFF02352043182D3070EDD104B001
:105BF000BDE8F08100E0032084E603209BE603205B
:105C0000FFF79EBF70B502F09DFC104C104B236057
:105C10000025283329460F4E6360182204F1100036
:105C2000A560E56005F0DEFB20460B4C0B493246D3
:105C300004F034FD2946204603F054FC3246204649
:105C40000749BDE8704004F029BD00BFD8DF03203C
:105C5000C4C00D00BCD9032004E00320315B0D005B
:105C600003950D0038B5074C0D460246032120462A
:105C700002F06EF92A4620460421BDE8384002F0C1
:105C800067B900BF0CE003200146014802F072B979
:105C90000CE0032008B50121062004F03EFC64203E
:105CA00003F062FB0620002104F037FC6420BDE80D
:105CB000084003F059BB000038B5234C01210620F1
:105CC00004F01AFCFFF7E6FF94F8223094F8232042
:105CD0001E485B2102F012FB20B903F0E5FD1C49D0
:105CE00003F059FA03F0E0FD1A4903F041FA03F01A
:105CF000DBFD0A2294F82310054603F056FA2846E5
:105D000003F03DFA03F0D0FD134903F031FA03F03C
:105D1000CBFD0A2294F82210054603F046FA2846E5
:105D200003F02DFA0121094802F00EFA05210D2099
:105D3000FFF798FF094B1878FFF7A6FF08490348BB
:105D4000BDE8384002F0AEBA04E603200CE00320C0
:105D500005BF0D0016BF0D0029BF0D0001D903209E
:105D60003ABF0D0070B5054609480E4602F0CCF961
:105D700060B1084C2378B34207D8227806492846F8
:105D800005F025FB2078C0B270BD002070BD00BFBB
:105D90000CE0032083E0032046E0032010B5044C10
:105DA0002378012B03D1FFF787FF0023237010BD59
:105DB000C1D9032008B502F0C5FB084B084A1A6098
:105DC000112208491A7108225A719A7101220A7027
:105DD000002119721F2159729A7208BD0CE003202C
:105DE00074BF0D0084E0032038B584690A4B03605A
:105DF00005467CB16368013B63605BB9236820465C
:105E00009B689847A368013BA3601BB923682046A1
:105E1000DB689847284638BD18C20D0010B5044607
:105E2000FFF7E2FF20461C2104F046FC204610BD8F
:105E300038B51D46059B036300230446436302B146
:105E4000826419B104F1380003F02CF9049B236536
:105E5000069BE069A4F84C50FF2BB8BFFF23A4F8C1
:105E6000543008B1FEF71FF9B4F85400FEF717F9E3
:105E7000E06138BD2DE9FF410446002517469846EC
:105E80000E4604F041FAE5610A4904F1380003F0D6
:105E9000C2F8FF2302930F2300932046A564CDF898
:105EA00004803B462A463146FFF7C2FF204604B035
:105EB000BDE8F08158C00D0010B50446204604F03E
:105EC00087F90028FAD0204604F02BF8C0B210BDA4
:105ED0002DE9F0470546C4698846FFF7EDFF2070BD
:105EE000EB6993F800A04FF001090AF0F00A0027CF
:105EF0004E462846FFF7E0FFEB69985500F07F0318
:105F000013FB09F31F44741C0306A4B2BFB24FEA8B
:105F1000C91901D52646ECE7631EBAF1300F88F89F
:105F2000003013D12846D5F81C80FFF7C5FF08F8CC
:105F300004002846F41CD5F81C800236FFF7BCFF8D
:105F4000B6B2A4B208F80600022300E000231B1B2F
:105F50009EB2A3199BB29F420BD92846FFF7ACFF14
:105F6000B5F85430A34284BFEB6918550134A4B28C
:105F7000EFE7B5F85400A0422CBF20460020BDE852
:105F8000F087F7B507468E461E461D46002402A937
:105F900005F07F032144ED0918BF43F0800301346D
:105FA00001F8043CE4B2002DF1D1C4F10403D1188E
:105FB00002F803E0A54206DA2B1B01A81344285C73
:105FC00058710135F6E7721C2244384603F0FFFE93
:105FD000054602F07FFB013478623444A8B2231AEC
:105FE0005842584103B0F0BD10B5C369E0221A70A1
:105FF000C36900225A7004460222C16903F0E7FE19
:10600000204604F0CDF802F065FB6062A06210BD8E
:106010000233F0B59BB20D466C1A15F8016BA4B2B1
:106020003EB1B0F854709F4203D95C1CD654A3B261
:10603000F2E7191B0A44211202F8021C02F8014C73
:106040001846F0BD38B5054603F0D7FE002814BF4A
:106050000124002402D1284604F0A2F8204638BDCD
:1060600070B504460E461546FFF7ECFF10B120460A
:10607000FFF7BAFF314604F1380003F013F80023AC
:10608000A364A4F84C5070BD2DE9F04387B00446DA
:10609000894617461E46DDF83880FFF7D3FF0546D0
:1060A000002840F0BD80A16C39B90346B4F84C20FB
:1060B000A16B204603F078FF09E0684603F088FBF7
:1060C0002B46B4F84C206946204603F0EFFF002829
:1060D00000F0A280012323849DF84C30042B15D1BD
:1060E000524B18689A88ADF804200090E2699B79B9
:1060F00000988DF80630531DC2F80500BDF8041055
:106100009DF806209A7199800C2312E0484BD4F830
:106110001CC0186859681B7A6A4603C213706B4624
:1061200003CBCCF80500CCF8091013788CF80D30AF
:106130000E23B8F1000F0AD09DF840209DF83C10C6
:10614000520142F0060242EAC102D2B200E002224B
:106150009DF8481009B902F0FD022FB116B942F0BE
:10616000800201E042F0C002E169CA54226DE16997
:10617000581C12120A549A1CE169206D885403338A
:10618000E26949462046FFF743FFB8F1000F0BD004
:106190000346E26941462046FFF73AFFE26911995A
:1061A00003462046FFF734FF67B10346E2693946EC
:1061B0002046FFF72DFF2EB10346E2693146204607
:1061C000FFF726FF431F9BB2E26910212046FFF72D
:1061D000D8FE02F07FFA4FF47A766062A062204621
:1061E00003F0F6FF40B902F075FAA36AC01A236DF6
:1061F00073439842F3D90FE069462046FFF768FEE3
:10620000042809D1E369DE7836B902F063FA012582
:10621000A06284F82C6004E0204603F0C1FF00E097
:106220000025284607B0BDE8F08300BF5CBF0D0025
:1062300063BF0D007FB5042305930123049300235E
:1062400003930293019300931A46FFF71DFF07B0D3
:106250005DF804FB2DE9F14F0D9E9DF828809DF817
:106260002C509DF8307004468B4691469A46FFF7B5
:10627000E9FE00284CD0B4F85420E069002105F074
:10628000B1F80523E26959462046FFF7C1FE6B1EAF
:10629000012B12D8238CE26901339BB223841B1299
:1062A0001354411C89B2E369228C5A54023080B2E3
:1062B0001EB1238C5A1C22843380002291B2831891
:1062C0008A459BB20AD9B4F854609E4202F1010299
:1062D00004D919F80160E169CE54EFE7B8F1000F75
:1062E0000CBF302131210FB141F00801022D02D144
:1062F00041F0040103E0012D08BF41F00201053B1C
:10630000E2699BB2204601B0BDE8F04FFFF739BE0D
:1063100001B0BDE8F08F1FB5089C039400240294DF
:106320009DF81C4001949DF818400094FFF792FFDF
:1063300004B010BD1FB50024029401940094FFF72F
:10634000EAFF04B010BD38B504460D46FFF77AFEEB
:1063500090B1E36962221A70E36902225A70E3691C
:106360002A129A70E369DD700422E169204603F085
:106370002EFD003018BF012038BD38B504460D464B
:10638000FFF760FE90B1E36972221A70E36902229E
:106390005A70E3692A129A70E369DD700422E16998
:1063A000204603F014FD003018BF012038BD2DE950
:1063B000F04F83B000AF0446FFF744FE814600284B
:1063C00000F0F68002F086F9226D4FF47A735343A1
:1063D000A26A821A9A42054603D8626A821A9342D6
:1063E00017D294F82C302BB1204603F0D9FE4FF091
:1063F0000009DDE0E269C0211170E2695370E169D2
:106400000222204603F0E3FC01236562A56284F8C2
:106410002C30204603F0DCFE002800F0C980F91D76
:106420002046FFF755FD0246002800F0C180E369D1
:10643000A562187800F0F00130297DD1D4F830B091
:10644000BBF1000F00F0B48097F807C003EB0C001D
:10645000EA46817890F801E001EB0E2E1FFA8EFEDD
:106460000EF1080121F00701ADEB010D6846002196
:106470008EB2B64506D90CEB01061E44F67846549A
:106480000131F5E7002100F80E101E7806F006062F
:10649000022E0CF10301CCEB02021ED17144CEEBB3
:1064A000020213F801801944053A497801EB0828E3
:1064B0000CF1050171441944D847E36940221A7070
:1064C000E3695E70E3691FFA88F84FEA28229A7040
:1064D000E369042283F8038020E0042E24D1714470
:1064E000CEEB020213F801801944053A497801EB1A
:1064F00008280CF1050171441944D847E36950227A
:106500001A70E36902225A70E3691FFA88F84FEAA9
:1065100028229A70E369324683F80380E1692046B5
:1065200003F055FC656205E0033A7144CEEB0202CC
:106530001944D847D5463BE0502908D19978DB78F3
:1065400003EB012189B22046FFF7FDFE30E0402930
:106550000CD0602908D19978DB7803EB012189B24E
:106560002046FFF70AFF23E070290DD1616BF9B1D6
:10657000042A1DD110F0060F1AD19878DB7803EBAE
:10658000002080B2884713E0902911D0C0290AD199
:10659000D0221A70E36900225A70E1690222204673
:1065A00003F015FC04E0D02904BF002384F82C304C
:1065B00048460C37BD46BDE8F08F70B504460E4620
:1065C0001546FFF73FFDE8B1238C01339BB203B9B9
:1065D00001232384238CE2691B125371E369228C0B
:1065E0009A71E269314607232046FFF711FDE369FE
:1065F0001D54031FE26920469BB28221BDE8704012
:10660000FFF7BFBC70BD0022FFF7D7BF10B504462F
:10661000FFF718FD10B12046FFF7E6FCE06908B16E
:10662000FDF741FD04F1380002F0AEFC2046FFF713
:10663000DBFB204610BD01F085BF01F083BF01F0F8
:1066400081BF10B50446243000F09CFF28B104F54A
:106650000C70BDE8104000F095BF10BD411E00F168
:106660000A020020430843EAC01011F8013F53FA20
:1066700080F08A42C0B2F5D1704738B5CB68044685
:106680000D4623B98968BDE8384000F008BC2422D3
:10669000002104F0A7FE102301202370A070AB6836
:1066A000A360EB68236238BD2DE9F0470378202B07
:1066B00000F1010401D12046F8E7704F88600546DB
:1066C0002C1A2E4615F8013B0BB32F2B01D10319C1
:1066D00017E05C2B02D10020BDE8F087A3F1220473
:1066E000E4B21D2C03D827FA04F4E407F3D403F032
:1066F000BF043C2CEFD0203B5E2BE1D9EBE72F2DE4
:1067000005D11E4613F8015B202DF8D1F9E716607C
:1067100003199842C0EB030809D013F8012D2E2A63
:10672000F7D0202AF5D0B8F1FF0FD4DC01E04FF00C
:106730000008C1F8048001F10C0301F117022024C4
:1067400003F8014F9342FBD103461A1A13F8014B89
:106750002E2CFAD0202CF8D0B2FA82F4640908F179
:10676000FF36731C07D100274FF0070E3D46BA468F
:106770004FF0080909E0835D2E2BF4D0013EF0E7CD
:10678000835C202B04D1002401324245F8DB4BE02E
:106790002E2B02D1B242F6D103E0222B17D07C2B54
:1067A00015D0A3F12A0CBCF1050F01D82D2B0ED169
:1067B000A3F13A0CBCF1050F09D9A3F15B0CBCF1B4
:1067C000020F04D9A3F1210CBCF15D0F02D9B24232
:1067D0000ED149E0B24247D0754521D8A3F1610CF2
:1067E000BCF1190F08D8203BDBB249EA07070AE0E1
:1067F000754515D800245F23A3F1410CBCF1190F96
:1068000098BF49EA0A0A05F1010C5FFA8CFC0D44B5
:10681000BCF1060F6B7301D881F80CC06546B3E775
:10682000BEF10A0F17D100244B7B202B3FF453AF4E
:106830003CB11AEA070F18BF02270F700120BDE80C
:10684000F0870B7B0120087019447E234B733123A2
:106850008B73BDE8F087B242E5DC32464FF00A0E9A
:1068600008254FF010098EE7BEF10A0FDBD0324643
:106870004FF00A0E08254FF0100985E7010100319D
:10688000F0B58BB000238DF804308DF80530037817
:106890001907044608D583789A0705D5016A29B1F6
:1068A000A06800F060FF08B9002049E001212046FF
:1068B00000F0BCFA05460028F6D0FFF7CFFEE5262B
:1068C0002E70002307462370A068FFF7BAFE002849
:1068D000EAD0E378002B33D0214601A8FFF7CDFEA4
:1068E0000028E1D00125E378AB42DDD3A188491B24
:1068F000490101A800F0CEFB0028D5D0002101A855
:1069000000F0ABFB0028CFD0C37A0F2BCCD102789C
:1069100002F01F039D42C7D1437BBB42C4D1067026
:10692000A16891F8243043F0010381F82430530624
:1069300003D5A068FFF785FE02E00135EDB2D2E78E
:106940000BB0F0BD2DE9F84391F80C9006460D46CA
:1069500002247E2701F10D086968AA6863189BB2BA
:106960001144914206D012F8010B03EB431343404C
:106970009BB2F6E7B9F1030F28BF4FF0030909F105
:106980000402D2B203F00F01A818013A0929D2B2C9
:1069900094BF30313731914541734FEA1313F1D32E
:1069A00005EB090300215F73304600F073FB012102
:1069B000304600F052FB014628B97078B0FA80F0FA
:1069C0004009BDE8F88303784BB1C37A1B07EED4C6
:1069D0000B22404604F0ECFC0028E8D102E0012044
:1069E000BDE8F8830134A4B2642CB5D1BDE8F883C6
:1069F0002DE9F04F9B460B7889B013F0700F05908E
:106A00000E46914601D10020A0E1059B1B78002B8A
:106A1000F9D15368029313789B0700F08D81029B94
:106A20000D270C33B3FBF7F70137FFB200213046D7
:106A300000F030FB4FF0000809F10D02CDF80C809A
:106A4000434644464546CDF8108006927269079346
:106A500001213046C2F34F1A00F0FFFA079B20B91C
:106A60007378002B00F09080CDE70278E52A00D003
:106A700042B9002C08BFD046BC423CBF0134E4B24E
:106A800022B981E0BC4238BF002403E0E52A01D1ED
:106A90000025DBE72E2AFBD0C17A0F2952D13DB960
:106AA0005106D3D5437B039302F01F052B4607E025
:106AB000013BDBB29A42EBD1427B03999142E7D191
:106AC0005A1E4FF00D0C0CFB02FC029A6245DFD9F6
:106AD0004FF0000EBEF1040F5FFA8EF204D800EB07
:106AE0004E02B2F801200CE00A2A95BF0EF1FF32E7
:106AF0000EF1010200EB420200EB420294BFD28889
:106B000092880299614503D1002A18BF00259DE7AC
:106B1000FF2ABDD8D2B2A2F141011929D9F8081033
:106B200011F80C1098BF20320CF1010AA1F1410CB0
:106B300098BFD2B2BCF1190F9CBF2031C9B29142AB
:106B4000A6D1FBE00907A3D44DB1012B7FF45BAFC5
:106B5000FFF784FD039B83427FF455AF0FE00B22C8
:106B60000699079304F024FC079B00287FF46EAF7E
:106B700099F80020D20702D50122049266E71BF49F
:106B8000006F00F0D1803EE71BF4007F3FF43BAF85
:106B90000BF00303013B012B3FF635AF002C08BF80
:106BA000D046BC4202D3049BCBB91FE00021304643
:106BB00000F053FA10B973785BB124E70134E4B202
:106BC000EFE7B3681B79012BEDD81034E4B2A7428C
:106BD000E9D9304600F0EAF80028F2D113E7494637
:106BE0003046FFF7AFFE00283FF40DAF4FEA4811E3
:106BF000304600F04FFA00283FF405AF7D1EEDB29D
:106C00002C464FF0000A4FF00F0841E000213046BB
:106C100000F023FA074600283FF4F5AEB26892F878
:106C20002430AC4243F0010382F824300CBF44F01E
:106C300040022246027080F80B8080F80CA009F117
:106C40000D000392FFF70AFD039A787387F81AA0E4
:106C500087F81BA002F01F020D23013AD9F808E0C3
:106C60005A4300230299914215D91EF80210042BB1
:106C70005FFA83FC03F1010013D807EB4303A3F889
:106C800001100D2802F101020346EBD1013CE4B2F0
:106C9000002CBBD10EE014BF4FF0FF31002189B2B0
:106CA000E5E7BCF10A0F94BF07EB430307EB400392
:106CB0009980E6E7736921463046C3F34F1A00F026
:106CC000CCF9074600283FF49EAE2022214604F06E
:106CD00089FB4B4653F80D2F3A605A687A601A893F
:106CE0003A819B7ABB7299F8003003F018033B732A
:106CF000184B1B682BB107F10E0107F110009847E4
:106D000006E021233B7428237B740823BC73FB73A8
:106D10003B8A7B823B83FB89FB82B26892F82430FA
:106D200043F0010382F8243000955B465246314619
:106D3000059800F0F8F909E0012777E60EF1010E59
:106D4000BEF10D0F3FF482AED446C3E609B0BDE8F4
:106D5000F08F00BF20E0032001F0F4BB01F0F2BB94
:106D600001F0F0BB10B50C46017809B9002010BD48
:106D700011F0600104D02F2323700023637006E01C
:106D800000F054F80028F1D0214600F05EF8012010
:106D900010BD01F0D7BB8378016943F00403837011
:106DA00000F11002806800F0A3BC00002DE9F04162
:106DB000037803F02003044603F0FF050BB100261F
:106DC0002EE04269184B9A42F9D8FFF7E4FF0646D5
:106DD0000028F4D02169A06800F01FFC0746A068D5
:106DE00005223946243000F0F4FB80460028E6D026
:106DF00029464FF4007204F0F5FA0125A3681A79C8
:106E0000AA4209D94246E919186800F05FFF002834
:106E1000D5D00135EDB2F1E7636903EB422363613D
:106E20003046BDE8F08100BFFFFD1F0010B50446ED
:106E300080680A462430A16900F0CBFB20B1A3880A
:106E400003F00F0300EB431010BDF0B50024451E06
:106E5000082623462E2715F8012F202A18D0082CA3
:106E600002BFCF545A1CD3B22A78A2F1410E08BFF8
:106E70001026BEF1190F06D890F80CE016EA0E0F96
:106E80001CBF2032D2B203F1010ECA545FFA8EF356
:106E900001340B2CDFD10022CA541846F0BD70B566
:106EA000047805460E4684B92422214604F09AFA55
:106EB000AE60F379102B03D0202B06D1402300E0E5
:106EC000202301202B70A87070BD002070BD2DE91B
:106ED000F74F03780446894615464BB18278D107AF
:106EE00006D50CE05A46216900F09DFB00283DDAEA
:106EF000637843F0020363704FF0FF3097E01A07A6
:106F000003D5E36962699B1A07E09A0608D5A3686E
:106F10001A896369C3EB42139BB29D4228BF1D4689
:106F20002E464FF0000804F1100B002E35D02278C9
:106F30006369A06812F0200FC3F3080A4FEA5321D7
:106F400002D0036A19441DE090F8058001EA0808A0
:106F5000BAF1000F10D1B8F1000F0DD1002BC1D143
:106F600053064CBF036A236A236105E004D12378EA
:106F700013F0700F11D1BBE72169A06800F04DFB41
:106F800008EB0001A068BAF1000F35D1B6F5007F1B
:106F900032D3C36A994202D12EE0A81B47E0B6F56E
:106FA000806F1BD3227897064FEA562A06D40279BF
:106FB000C8EB0202D2B2924528BF924699424FEAEC
:106FC0004A2707D2A06853464A46006800F03CFEB4
:106FD00060B98DE75344994221D3F3E74A460068EC
:106FE00000F0EAFD002883D04FF4007763693B444A
:106FF000B9446361F61B98E70022243000F0E9FAF7
:1070000000283FF475AFCAF50077B74228BF37466E
:1070100000EB0A013A46484604F0D9F9E6E7243085
:10702000019100F0AFFA01990028CBD160E703B0DD
:10703000BDE8F08F73B501220DF1070104464669E2
:107040000569FFF744FF012805BF9DF80700666149
:107050004FF0FF30256102B070BD37B54369C3F30F
:107060004315044605B169B901220DF10701204617
:10707000FFF72DFF40B2012801D0002008E063692E
:107080001F3300E02033A0686361303000EB45100F
:1070900003B030BD2DE9F0410E4601780769044682
:1070A000002939D04569B5423AD00EB9066131E0C0
:1070B0000B0703D5C3699E422ED807E0880605D585
:1070C000A3681B89B6EB431F26D823E0D4F808E059
:1070D0009EF806306A1E03F10900731EC240C340C9
:1070E0009A4200D84DB94A064CBFDEF82020226AE9
:1070F00022611D4604F110080AE09B1AF9E7424696
:107100002169A06800F08FFA002805F1FF3503DD42
:10711000002DF4D1666103E027610020BDE8F08115
:107120000120BDE8F081F8B50F4615460021242264
:1071300004461E4604F056F9B868A06005F00F0238
:10714000A58000F1300152013B6AE3601144CB7A23
:107150001D074CD4831893F83B3003F017032370BA
:10716000C97A11F0180F04BF43F0080323709DF88B
:107170001830E37006F00303012B09D0022B05D071
:10718000002B34D1710532D4012302E0032300E047
:107190000223A370A1788B0703D5237813F0110F76
:1071A00025D14BB216F4005F06F0080114BF6FF052
:1071B0007F07002719433943A170C36AA3610244C2
:1071C0007505B2F84410B2F84A3043EA014104D5DB
:1071D00081B100F0C8FA68B909E02162D36CE361BB
:1071E00073040CD5E1692046FFF754FF38B900203D
:1071F0002070F8BDA37843F00403A370F0E70120EA
:10720000F8BD2DE9F743037806460D46174653BBF4
:107210000B7813F0700F26D04C6914F01F0422D1A4
:10722000A04600212846D5F81490FFF716FFD0B1EC
:107230000378C3B12E2B01D10024F2E7E52BFBD05C
:10724000C17A11F0080F05D17CB1FFF707FA80452C
:1072500009D10AE00F29EFD15906E2D503F01F0446
:1072600090F80D80DDE7002007E000943B46C9F36D
:107270004F1229463046FFF756FF03B0BDE8F083B2
:1072800038B5037804460BB9012038BD83785A0716
:1072900023D50121FFF7CAFD054628B9637843F0DD
:1072A00001036370002038BD0378E52BF6D0237806
:1072B0001B0744BFE369C361238C4383638C8382D0
:1072C000094B1B682BB100F11601183098472B8B26
:1072D0006B82A37823F00403A370A068FFF7B1F9D1
:1072E0000028DBD0D0E700BF20E0032010B5044623
:1072F000FFF7C6FF0023237010BDF0B593B01F4603
:1073000000238DF824308DF825300378019206464D
:107310000C460BB100203DE00B7813F0700FF9D054
:1073200013782F2B12D1019B1A782F2A02D1013307
:107330000193F8E7A1681AB93046FFF7B0FD29E0DC
:1073400009A8FFF7ACFD0028E4D009AC01AA03A905
:107350000198FFF7A9F90028DCD0019B1B789BB1AD
:10736000002303AA21463046FFF742FB0028D1D074
:1073700035460FCD09AC0FC40FCD0FC42B68236069
:107380003046FFF7B3FFE0E73B4603AA214630460D
:10739000FFF72EFB13B0F0BD00B58BB000238DF8C6
:1073A00004308DF805300A460123014601A8FFF795
:1073B000A4FF10B101A8FFF763FA0BB05DF804FB5E
:1073C0002DE9F0470378894619070446904608D509
:1073D00083789A0705D51B070BD5E169FFF75AFE9D
:1073E00038B9637843F0010363704FF0FF30BDE8B4
:1073F000F0876369DB439845F3D846464FF0000AAF
:107400006369002E00F08180A068427912EA53255A
:10741000C3F308071CD1DFB9216971B104F110026F
:1074200000F001F90028DCDB40F08E802046FFF7F9
:10743000B2FC002840F08880D3E7236A3BB920469D
:10744000FFF7A9FC0028CCD02369236200E0236168
:107450002169A06800F0E1F8291817B9B6F5007F96
:1074600021D2C7F50075B54228BF354637B96369E3
:10747000E269934234BF0122052200E00122A068A4
:10748000243000F0A6F80028ABD038442A464946FC
:107490002F4403F09CFFB7F5007F30D1A068243063
:1074A00000F070F817E0B6F5806FA06815D3027988
:1074B000521B730AD2B2934228BF1346C26A91424A
:1074C0004FEA432502D31A44914237D3A7684A466C
:1074D000386800F06DFC90B983E7C36A994202BF37
:1074E0004FF0FF3380F824A0C362A3684A461868AF
:1074F00000F0ECFB00283FF474AF4FF400756369B3
:107500002B446361A944761B7AE7E269934201D96F
:10751000E36102E00F4B1B681BB1A37843F0040347
:10752000A37094F90230002B02DB4046BDE8F087DF
:107530002046FFF7A5FE0028F7D152E74FF0FF32B3
:1075400080F824A0C262C1E72169A06800F065F854
:10755000014683E720E0032000F0F4BF70B5054644
:107560000C46084649B103F08DFF2B6802462146C0
:107570002846DB68BDE87040184770BD00F0E2BFE8
:1075800000F0E0BF70B50378DA0704461ED5436803
:10759000816800F10C063246186800F097FB05463A
:1075A00008B9002513E023789B0704D4237823F03F
:1075B000010323700BE06368A06819693246014437
:1075C000186800F083FB0028F0D1EAE7012528467F
:1075D00070BD70B583688B4204460E46154614D0C4
:1075E000FFF7D0FF08B9002070BD6B0703D500235B
:1075F0002370A66009E0636804F10C023146186844
:1076000000F0DAFA0028F2D1EDE72378204605F001
:1076100003051D4300F80C5B70BD83794069023996
:10762000994008447047012970B505460C46164636
:1076300002D84FF0FF3070BDC3699942F9D8C379C1
:10764000202B10D18169022201EBD41100F50C70BE
:10765000FFF7BFFF0028ECD004F07F0450F824307F
:1076600023F070430FE0102BE3D18369C1F30721AE
:107670000222194400F50C70FFF7ABFF0028D8D0A8
:10768000E4B230F81430EA6993429ABF33600120C3
:10769000002070BD012938B50C46154601D80020E0
:1076A00038BDC3699942FAD8C379202B0ED18169BC
:1076B000032201EBD41100F50C70FFF78AFF0028BC
:1076C000EDD004F07F0440F824500FE0102BE6D1F9
:1076D0008369C1F307210322194400F50C70FFF7F9
:1076E00078FF0028DBD0E4B220F81450012038BD28
:1076F0002DE9F341C4688C4205460E46904607D2F8
:107700000C460027EB6901349C4203D9CFB9EC68E1
:107710000127F7E7A64214D001AA21462846FFF721
:1077200082FF00280DDBEDD0019B002BEAD107B1D1
:10773000EC606FF0704221462846FFF7ABFF07462A
:1077400008B900270BE016B9C8F8004007E0224648
:1077500031462846FFF79EFF0028F5D1F1E738466D
:1077600002B0BDE8F08173B505460C4601AA21467A
:107770002846FFF758FF061E01DA00200FE000221E
:1077800021462846FFF786FF0028F6D0EB689C428A
:107790009CBF04F1FF34EC60019C002EE6D102B0E6
:1077A00070BD70B5012304460022C3604FF0FF3363
:1077B000C2710D46A06280F82420C362C4F834026E
:1077C00080F83022C0F83832A1B104295DD81146C2
:1077D0002430FFF7FEFE002857D000EB051393F886
:1077E000AE315B0651D11B3500EB0515D5F80650BF
:1077F000002D4AD00022294604F12400FFF7E9FEBB
:10780000002842D0B0F80B30B3F5007F3DD1037CA7
:10781000022B3AD1C389002B37D0417B21714B1EFB
:1078200063710023A371092601238B4207D0013E17
:107830002BD0A2795B000132DBB2A271F5E7C28ADC
:1078400002B9426A2261C6892E44A661B0F811309D
:10785000238106EB42012162B0F81120520102F2AD
:10786000FF1201EB62226261B0F8133003B9036AC0
:10787000AD1A2B44A57923FA05F56B1CE36140F69C
:10788000F4739D4203D80C23E371002070BD4FF6C2
:10789000F4739D4285BFC36A236210232023E371E2
:1078A000012070BD00F04EBE00F04CBE00F04ABE9C
:1078B00070B50E4C0E46154600F004FF2368C01A42
:1078C0000B4B984208D900F005FF0A4B186001F0F5
:1078D00045F900F0F7FE206000F0FCFE80B2801B4E
:1078E000A842D4BF0020012070BD00BF24E00320C7
:1078F000A0860100C4E4032038B5057A04464DB9DA
:10790000406800F07DFA63682946187D02F005FEA4
:107910000123237238BD10B5037A04466BB1436866
:107920000121187D02F0F9FDFF21606800F09AFA4C
:10793000606800F079FA0023237210BDF8B50446A0
:107940000D46164600F0C6FE87B2606800F06FFA7A
:10795000FF28607209D14FF47A7239462046FFF74A
:10796000A7FF0028F1D055230BE0FE2801D05023BB
:1079700007E032462946606800F05EFA607230B176
:10798000602320462370FFF7C6FF0020F8BD606823
:1079900000F04DFA606800F04AFA0120F8BD70B5B9
:1079A00004460E4600F096FE85B232462946204631
:1079B000FFF77EFF30B9606800F039FAFF28F4D194
:1079C000012070BD002070BDF7B5037A0192044616
:1079D0000D460BB9FFF790FF25B14FF49671204685
:1079E000FFF7DDFF45F04001606800F03BFA0DF164
:1079F00007060DF1030716F80119606800F032FA66
:107A0000BE42F8D1002D0CBF95218721606800F09F
:107A100029FA606800F00BFA0B25606800F007FA9D
:107A20000306607203D5013D15F0FF05F5D103B0E3
:107A3000F0BD70B504460D46164637210022FFF70B
:107A4000C3FF324629462046BDE87040FFF7BCBF61
:107A50002DE9F041002505720570857241600446EC
:107A600090461E4600F036FE41460746606800F02C
:107A7000CBF963684F4A1D724FF00108DA605D74FC
:107A800083F810802046FFF737FF63684146187D72
:107A900002F043FD0A25FF216068013D00F0E2F994
:107AA00015F0FF05F7D163682946187D02F035FD12
:107AB0000A25002211462046FFF786FF012880464E
:107AC00012D0013D15F0FF0501D1202357E0FD2123
:107AD000606800F0C7F94FF40278606800F0A7F919
:107AE000B8F10108F9D1E4E74FF4D5720821204636
:107AF000FFF76AFF052802D184F80A800FE0042509
:107B0000606800F094F9013D15F0FF056072F7D14F
:107B1000AA2802D10223A37201E025232FE0A37A31
:107B2000022B0CBF4FF080450025BFB22A46292109
:107B30002046FFF77EFF024648B14FF4FA6239460D
:107B40002046FFF7B5FE0028F0D0432317E0A37AC4
:107B5000022B0ED02046FFF7DEFE6368B068347952
:107B6000317B727B5A74D8601C7219740120BDE895
:107B7000F0813A212046FFF727FF38B1372320460E
:107B80002370FFF7C8FE0020BDE8F081606800F0B8
:107B90004EF900F0C000C02804BF0323A372606840
:107BA00000F045F9606800F042F9606800F03FF9C4
:107BB000D0E700BF90D0030038B5837A032B18BFFD
:107BC000490215460A4611210446FFF7FDFE10B191
:107BD000302323700BE029464FF400722046FFF754
:107BE000ADFE054618B12046FFF795FE03E020469E
:107BF000FFF791FE0025284638BD10B5837A032B88
:107C00000A4618BF4A0212210446FFF7DDFE30B1D2
:107C1000312320462370FFF77EFE002010BD012097
:107C200010BD10B500220C210446FFF7CDFE30B187
:107C3000282320462370FFF76EFE002010BD20464B
:107C4000FFF769FE012010BDF8B5054616461F4630
:107C5000FFF7D3FF98B10024A3B29F4206EB442163
:107C600008D94FF400722846FFF768FE0134002857
:107C7000F2D104E02846BDE8F840FFF7D2BF00206B
:107C8000F8BD38B504461546406800F0EBF84FF4EF
:107C900000722946606800F0E9F8FF21606800F092
:107CA000E1F8FF21606800F0DDF8606800F0BFF8DF
:107CB000607200F01F00052806D05723204623706D
:107CC000FFF729FE002038BD012038BD70B5837A4A
:107CD000032B18BF490215460A4618210446FFF730
:107CE00073FE064608B132231DE02A46FE212046D7
:107CF000FFF7C7FFC0B14FF4FA612046FFF74FFE10
:107D0000054608B95A230EE032460D212046FFF7FA
:107D10005BFE38B9606800F08AF818B92046FFF7B2
:107D2000FAFD05E0292323702046FFF7F4FD002526
:107D3000284670BD38B50D464FF4FA610446FFF78A
:107D40002EFE10B95B23237005E02A46FC21204655
:107D5000FFF797FF18B92046FFF7DDFD002038BD7B
:107D600010B5837A032B0A4618BF4A02192104462C
:107D7000FFF72AFE30B1332320462370FFF7CBFDF7
:107D8000002010BD012010BD38B54FF4FA61044643
:107D9000FFF705FE054620B1FD21606800F062F89E
:107DA00001E0562323702046FFF7B5FD284638BD75
:107DB000F8B5054616461F46FFF7D2FF70B10024FE
:107DC000BC4206EB4421284604D0FFF7B3FF28B19C
:107DD0000134F5E7BDE8F840FFF7D6BF2846FFF7C6
:107DE0009AFD0020F8BD00F0ADBB00F0ABBB00F089
:107DF000A9BB0000014B01221A70704728E0032044
:107E0000011D006800F0B4BF10B50446017500689C
:107E100000F062FF207D012102F06EFB207D012138
:107E2000BDE8104002F079BB006800F088BFFF2178
:107E3000006801F063B8000037B5084B00930025D7
:107E4000074C0068257013460A46294601F05CF885
:107E50002378002BFCD0002003B030BDF57D0D0051
:107E600028E00320006801F049B8000037B5074B4F
:107E700000930025064C0068257013462A4601F041
:107E800043F82378002BFCD003B030BDF57D0D0006
:107E900028E0032000F056BB024B186803681B68FB
:107EA000184700BF40E0032008B50121007902F027
:107EB00034FBBDE8084001F063BD000010B5084C7C
:107EC0002368DB070AD42046FCF7EFF830B1012124
:107ED000044800F0F7FE2046FCF7ECF8014810BD1E
:107EE0002CE0032030E0032010B50446FFF7E6FF46
:107EF0002146BDE8104001F001B810B5044601F07C
:107F00003DFDFFF7DBFF002100F008FFFFF7D6FF84
:107F1000012100F0F2FEFFF7D1FF182100F0CAFFA7
:107F200020790021BDE8104002F0F7BA38B50C46C0
:107F30000546FFF7E2FF04F07F00FFF7D5FF0020C2
:107F4000FFF7D2FF04462846FFF7AEFF204638BDB4
:107F500070B50E4615460446FFF7CFFF46F0800089
:107F6000FFF7C2FF2846FFF7BFFF2046BDE870407D
:107F7000FFF79ABF10B5417211210446FFF7D6FFF3
:107F8000627A00F0E0001F2A94BF024340F01F0213
:107F900011212046BDE81040FFF7DABF10B50446B6
:107FA00049B101222321FFF7D3FF23212046FFF708
:107FB000BDFF8307F9D524212046FFF7B7FF4042D4
:107FC000401010BD38B5002914BF5D2255220C4663
:107FD0005A210546FFF7BCFF002C284614BF7C221F
:107FE00070225C21BDE83840FFF7B2BF70B5284D64
:107FF0002B788B4204460E4649D0042947D8DFE847
:1080000001F0342C241203000121FFF78FFF00F050
:10801000E30242F00C0201212046FFF799FFA37A08
:1080200063B301210DE00121FFF780FF00F0E302BF
:1080300042F0100201212046FFF78AFFA37AEBB13C
:1080400000212046FFF7BEFF18E00121FFF76EFF79
:1080500000F0E30242F008020CE00121FFF766FFA6
:1080600000F0E30242F0040204E00121FFF75EFFAA
:1080700000F0E30201212046FFF76AFF2B782BB9BD
:1080800027212046FFF752FF0306F7D52E7070BD5B
:1080900084E00320154A002310B51370144A1370AE
:1080A000144A1370144A1370144A1370144A13704C
:1080B000144A282113600446FFF738FF43070AD506
:1080C0003D212046FFF732FF40F00402D2B23D21AD
:1080D0002046FFF73DFF204625214022FFF738FFCD
:1080E00020460321BDE81040FFF780BF83E0032056
:1080F0003EE003203CE0032044E003203DE0032079
:1081000045E0032038E0032010B5044601F036FCBA
:108110000B4B1A78032A02D10A4A127852B91B78FB
:10812000032B02D101F02CFC02E02046FFF7B2FF46
:10813000002010BD20460121FFF758FF012010BD8F
:1081400084E0032044E00320002910B50446817236
:1081500014BF0F221A221321FFF7FAFEA37A43B1AC
:1081600011212046FFF7E2FE00F01F0242F06002FC
:1081700002E0627A42F0800220461121BDE8104000
:10818000FFF7E6BE2DE9F0413D4B1B78032B04467B
:1081900014D12821FFF7CAFE430717D40EE0137845
:1081A0003C2B04D81378374ADBB20021D154204647
:1081B000FFF77AFE03212046FFF718FF0021204633
:1081C000FFF7ECFE304B1860BDE8F081012120463E
:1081D000FFF70CFF2046FFF790FE0020FFF784FE1C
:1081E0000020FFF781FE294D28702B78422B14D8F0
:1081F0002B78DBB200202B70FFF776FE244B227A1F
:10820000187032B91A78E179914202D01B78FF2BAD
:1082100005D12B78022B02D90BE04223EAE7204656
:1082200000232B70FFF740FE2046BDE8F041FFF72A
:1082300031BF164B174E1B78124F033BDBB20020A9
:108240003370FFF751FE144B18700020FFF74CFEFF
:10825000124A20F07F03DBB2137000F04000104B95
:10826000C0B21870002331780A4ADDB28D4203F1A2
:10827000010894D20020FFF737FE43467855F2E715
:1082800084E0032046E0032038E0032044E003209C
:108290003CE0032083E003203EE0032045E0032090
:1082A0003DE00320F8B50D4601210446FFF79EFE90
:1082B0008DB12046FFF721FEBE20FFF715FE6E1E92
:1082C00005F10F0716F8010FFFF70EFEBE42F9D1B8
:1082D0002046FFF7E9FD3D212046FFF727FE20F06D
:1082E0000100002D0CBF024640F00102D2B2204630
:1082F0003D21BDE8F840FFF72BBE0000F0B58FB080
:108300000D4604460021164603A82A221F4603F004
:1083100069F801238DF80C3003238DF810308DF8A7
:10832000153006238DF8163033238DF817300723C8
:108330008DF8183008238DF81A3009238DF81C3079
:1083400019238DF81E3025238DF8203029238DF830
:108350002230DC238DF823302E238DF8243088231F
:108360008DF825302F238DF826302D238DF82730DA
:1083700037238DF82A3090238DF82B3038238DF851
:108380002C303C23042202218DF82E308F238DF8CF
:108390000D208DF80E108DF811108DF8122005218A
:1083A00040228DF82F303D238DF813208DF81410C6
:1083B0008DF82120422130228DF8303012238DF8A3
:1083C0001F108DF828208DF82D108DF831306F2377
:1083D0008DF832301F2D4FF0FF038DF833208DF8CC
:1083E000343006D02B2D06D0562D0CBFD922E422D6
:1083F00002E04E2200E06C221F2D8DF8192006D0DD
:108400002B2D06D0562D14BFC022002202E0C02220
:1084100000E04022012120798DF81B208DF8297081
:1084200002F06AF8FFF74AFD00F056FC00F052F93E
:108430000546AA222F212046FFF78AFD2F2120463C
:10844000FFF774FDAA2804D000F044F9401B31283E
:10845000EFD900F03FF9401B31282DD800F03AF950
:10846000054655222F212046FFF772FD2F21204679
:10847000FFF75CFD552821D000F02CF9401B312876
:10848000EFD91BE000212046FFF70CFFA17A204620
:10849000FFF75AFE01212046FFF7A8FD00F01AF968
:1084A000054627212046FFF741FD03061BD500F0B6
:1084B00011F9401B31281CD9002028E000F00AF9EE
:1084C000401B3128F8D80025EBB20EAA02EB43037B
:1084D000013513F82C1CFF29D4D013F82B2C20467F
:1084E000FFF736FDF0E700F0F5F8401B3128D8D94A
:1084F000DDE700230093A07906494FF0FF33012206
:1085000001F0FAF90028D7D0034BE6711C600FB0D8
:10851000F0BD00BF997E0D0040E0032000F012B8CE
:1085200000F010B808B5024B1B689B68019308BDAA
:108530006802030008B5024B1B68DB68019308BDA5
:108540006802030008B5024B1B681B68019308BD55
:108550002C02030008B5024B1B689B68019308BD01
:108560002C02030008B5024B1B68DB68019308BDB1
:108570002C02030008B5024B1B681B69019308BD60
:108580002C02030008B5024B1B685B69019308BD10
:108590002C02030008B5024B1B689B69019308BDC0
:1085A0002C02030008B5024B1B68DB69019308BD70
:1085B0002C02030008B5024B1B681B6A019308BD1F
:1085C0002C02030008B5024B1B685B6A019308BDCF
:1085D0002C02030008B5024B1B681B68019308BD01
:1085E0003002030008B5024B1B689B68019308BD6D
:1085F0003002030008B5024B1B68DB68019308BD1D
:108600003002030008B5024B1B681B69019308BDCB
:108610003002030008B5024B1B685B69019308BD7B
:108620003002030008B5024B1B68DB69019308BDEB
:108630003002030008B5024B1B681B6A019308BD9A
:108640003002030008B5024B1B685B6A019308BD4A
:108650003002030008B5024B1B689B6A019308BDFA
:108660003002030008B5024B1B689B6B019308BDE9
:108670003002030008B5024B1B68DB6B019308BD99
:108680003002030008B5024B1B681B6C019308BD48
:108690003002030008B5024B1B685B6C019308BDF8
:1086A0003002030008B5024B1B685B69019308BDEB
:1086B0006C02030008B5024B1B685B68019308BDA0
:1086C0001802030008B5024B1B681B69019308BD23
:1086D0001802030008B5024B1B685B69019308BDD3
:1086E0001802030008B5024B1B68DB69019308BD43
:1086F0001802030008B5024B1B689B6A019308BD72
:108700001802030008B5024B1B685B6C019308BD9F
:108710001802030008B5024B1B689B6C019308BD4F
:108720001802030008B5024B1B689B6D019308BD3E
:108730001802030008B5024B1B689B68019308BD33
:108740004802030008B5024B1B68DB68019308BDB3
:108750004802030008B5024B1B681B69019308BD62
:108760004802030008B5024B1B685B69019308BD12
:108770004802030008B5024B1B68DB69019308BD82
:108780004802030008B5024B1B681B6A019308BD31
:108790004802030008B5024B1B685B6A019308BDE1
:1087A0004802030008B5024B1B689B6A019308BD91
:1087B0004802030008B5024B1B68DB6A019308BD41
:1087C0004802030008B5024B1B685B6C019308BDAF
:1087D0004802030008B5024B1B689B6C019308BD5F
:1087E0004802030008B5024B1B681B6F019308BDCC
:1087F0004802030008B5024B1B685B69019308BD82
:108800006402030008B5024B1B681B6A019308BD94
:108810006402030008B5024B1B689B6A019308BD04
:108820006402030008B5024B1B681B68019308BD76
:108830003C02030008B5024B1B68DB68019308BDCE
:108840003C02030008B5024B1B681B69019308BD7D
:108850003C02030008B5024B1B685B69019308BD2D
:108860003C02030008B5024B1B689B69019308BDDD
:108870003C02030008B5024B1B68DB69019308BD8D
:108880003C02030008B5024B1B681B6A019308BD3C
:108890003C02030008B5024B1B689B6A019308BDAC
:1088A0003C02030008B5024B1B689B69019308BD9D
:1088B0002802030008B5024B1B68DB69019308BD61
:1088C0002802030008B5024B1B681B6A019308BD10
:1088D0002802030008B5024B1B685B6A019308BDC0
:1088E0002802030008B5024B1B689B6A019308BD70
:1088F0002802030008B5024B1B68DB6A019308BD20
:108900002802030008B5024B1B681B6B019308BDCE
:108910002802030008B5024B1B685B6B019308BD7E
:108920002802030008B5024B1B681B6C019308BDAD
:108930002802030008B5024B1B689B6C019308BD1D
:108940002802030008B5024B1B68DB6C019308BDCD
:108950002802030008B5024B1B681B6D019308BD7C
:108960002802030008B5024B1B689B69019308BDF0
:108970003802030008B5024B1B68DB69019308BD90
:108980003802030008B5024B1B681B6A019308BD3F
:108990003802030008B5024B1B689B6A019308BDAF
:1089A0003802030008B5024B1B681B6B019308BD1E
:1089B0003802030008B5024B1B689B6B019308BD8E
:1089C0003802030008B5024B1B681B68019308BD01
:1089D0004C02030008B5024B1B685B68019308BD9D
:1089E0004C02030008B5024B1B681B69019308BDCC
:1089F0004C02030008B5024B1B685B69019308BD7C
:108A00004C02030008B5024B1B689B69019308BD2B
:108A10004C02030008B5024B1B68DB69019308BDDB
:108A20004C02030008B5024B1B681B6A019308BD8A
:108A30004C02030008B5024B1B681B6D019308BD77
:108A40006002030008B5024B1B681B68019308BD58
:108A50002002030008B5024B1B685B68019308BD48
:108A60002002030008B5024B1B685B69019308BD37
:108A70002002030008B5024B1B68DB6A019308BDA6
:108A80002002030008B5024B1B689B6D019308BDD3
:108A90002002030008B5034B1B68D3F8883001930C
:108AA00008BD00002002030008B5034B1B68D3F883
:108AB0009430019308BD00002002030008B5024B6A
:108AC0001B685B68019308BD4002030008B5024BB8
:108AD0001B689B68019308BD4002030008B5024B68
:108AE0001B68DB68019308BD4002030008B5024B18
:108AF0001B681B69019308BD4002030008B5024BC7
:108B00001B685B69019308BD4002030008B5024B76
:108B10001B689B69019308BD4002030008B5024B26
:108B20001B68DB69019308BD4002030008B5024BD6
:108B30001B681B6A019308BD4002030008B5024B85
:108B40001B681B6B019308BD4002030008B5024B74
:108B50001B685B6B019308BD4002030008B5024B24
:108B60001B689B68019308BD4402030008B5024BD3
:108B70001B685B69019308BD4402030008B5024B02
:108B80001B68DB69019308BD4402030008B5024B72
:108B90001B68DB6A019308BD4402030008B5024B61
:108BA0001B681B6B019308BD4402030008B5024B10
:108BB0001B68DB6B019308BD4402030008B5024B40
:108BC0001B681B68019308BD1C02030008B5024B1B
:108BD0001B685B68019308BD1C02030008B5024BCB
:108BE0001B689B68019308BD1C02030008B5024B7B
:108BF0001B68DB68019308BD1C02030008B5024B2B
:108C00001B689B69019308BD1C02030008B5024B59
:108C10001B685B6A019308BD1C02030008B5024B88
:108C20001B681B6B019308BD1C02030008B5024BB7
:108C30001B68DB6B019308BD1C0203000022114678
:108C40004068FFF773BF002211464068FFF77EBF00
:108C500000224068FFF772BF002281F001014068E6
:108C6000FFF75CBF00231A4619464068FFF74EBF66
:108C700000231A4619464068FFF740BF00221146FC
:108C80004068FFF733BF002211464068FFF71EBF60
:108C9000002202214068FFF721BF00231A464068E6
:108CA000FFF70CBF024B03225A60024A1A6070475A
:108CB00088E0032080BF0D000021FFF7E3BC002106
:108CC000FFF7E8BC10B5044601700846FFF7AAFCA0
:108CD00000236360204610BD10B504460078FFF7FE
:108CE000EBFF48B920784FF6FF71FFF773FC20784F
:108CF000BDE81040FFF7E3BF10BD38B5044600786B
:108D00000D46FFF7D9FF40B920782946FFF76AFCE6
:108D10002078BDE83840FFF7D2BF38BD38B50446EB
:108D200000780D46FFF7C8FF40B920782946FFF7C5
:108D300061FC2078BDE83840FFF7C1BF38BD00783E
:108D4000FFF7BDBF400830B518600024186888429E
:108D5000E5B206D90134082C02D040081860F5E7C6
:108D60000725024B5B5D137030BD00BFACBF0D002B
:108D70002DE9F04307468FB000780E46FFF79CFFC1
:108D8000002862DB3C781422002109A802F02AFBAB
:108D90000B232046002209A9ADF82430FFF752FC2E
:108DA0009DF82D4054B19DF82C5035B9DDF8308038
:108DB0009DF834909DF8354003E00024A146A0467C
:108DC0000125337905B1BBB99D420BD1B26842454B
:108DD00008D18DF820908DF82140BDF82010B2897F
:108DE000914209D053B1002438780194009423466D
:108DF00022460121FFF73EFC002026E08DF80F30CF
:108E0000B1680A9804AB0DF10F02FFF79BFF3179AF
:108E100005B1B1B9A94208D0002438780194747B17
:108E2000337B9DF80F200094E4E7B3684345F3D308
:108E30008DF820908DF82140BDF82020B3899A420A
:108E4000EAD1049B4345E7D1D6E70FB0BDE8F083F4
:108E50002DE9F04188B000230446007802930E46C5
:108E60001746FFF729FF054600BB94F8008001462E
:108E7000142203A802F0B6FA0B232A4603A940469F
:108E8000ADF80C30FFF7DEFB02AB0DF1070207FB7C
:108E900006F104988DF80750FFF754FF20789DF8ED
:108EA0000710FFF7AFFB2078FFF709FF029808B023
:108EB000BDE8F08138B5044600780D46FFF7FCFEAA
:108EC000C8B9616871B10C4BC25CAA4202D00130D2
:108ED0000828F9D10130C0B2C14001222046FFF775
:108EE000B7FF03E029462078FFF78CFB2078BDE828
:108EF0003840FFF7E4BE38BDACBF0D0008B50078C0
:108F0000FFF788FBC0B208BD30B587B004460A9DA4
:108F100000780095FFF79EFB3DB902A92078FFF786
:108F2000A1FB9DF81430DB07F7D407B030BD007803
:108F3000FFF780BB10B50446006818B1FFF746FE86
:108F40000023236010BD10B50446FFF7F3FF204651
:108F500010BD000010B5094C00204FF6FF732060D3
:108F6000A080A07120816381FFF774FD2046044A30
:108F70000449BDE8104001F091BB00BF90E0032020
:108F8000BCD90320478F0D0010B504460068FFF7D9
:108F90001DFE204610BD10B50446006808B1FFF75D
:108FA00015FE00232360A360636010BD38B504463E
:108FB0000D4600680131FFF711FE10B184E8210071
:108FC000012038BD10B50368044613B143688B42D5
:108FD00007D22046FFF7EAFF20B1A3680BB9226849
:108FE0001370012010BD70B50E461146044615469B
:108FF000FFF7E8FF18B92046FFF7CDFF09E02A4642
:109000003146A560206802F0E2F92268A3680021D9
:10901000D154204670BD38B5002304460360436038
:10902000836003730D4639B1084602F02BFA2946D6
:1090300002462046FFF7D7FF204638BD38B5054623
:1090400000680C4660B16A688B689A4206D309686A
:1090500002F010FAA368AB6000230AE0FFF7B6FD48
:1090600023682B6063686B60A368AB600023236098
:109070006360A36038BD884210B50B46044607D034
:10908000096819B19A68FFF7AEFF01E0FFF783FFA7
:10909000204610BD884210B5044601D0FFF7CEFF30
:1090A000204610BD38B505460C4641B1084602F0D1
:1090B000E9F9214602462846FFF795FF01E0FFF750
:1090C0006AFF284638BD70B504460E4609B900202F
:1090D00070BD6AB18368D5182946FFF773FF002871
:1090E000F5D02068A3683146184402F0C3F9A560A2
:1090F000012070BD10B58A6809680446FFF7E3FFD8
:1091000010B92046FFF747FF204610BD10B50446B2
:10911000006808B1FFF75EFB204610BD10B5064C95
:10912000002320462360FFF74DFB2046034A0449F5
:10913000BDE8104001F0B2BA9CE00320BCD9032086
:109140000D910D00F8B506460D468F180024BD425E
:109150000CD0336815F8011B9B68304698470028EF
:1091600001DB0444F3E7002C08BF04462046F8BDA9
:1091700008B5FEF7F3F908BD03689B68184738B5D2
:109180000D210546FFF7F8FF0A2104462846FFF7A0
:10919000F3FF204438BD38B50546FEF7DFF9044635
:1091A0002846FFF7ECFF204438BD30B58BB00B46A6
:1091B00000218DF82410012A98BF0A220DF1230402
:1091C000B3FBF2F505FB123303F0FF03092B94BF49
:1091D00030333733DBB2214604F801392B46002DFA
:1091E000EED1FEF7BBF90BB030BD0CB42DE9F04366
:1091F00087B000AF07F13804054654F8049B3C6083
:109200000E4623464A461421381DFFF7FFFC13285B
:1092100005D8391D2846FEF7A1F9044613E000F1F0
:10922000080323F00703E846ADEB030D411C23467A
:109230004A4668463C60FFF7E9FC69462846FEF767
:109240008DF90446C5461EB12846FFF798FF044431
:1092500020461C37BD46BDE8F04302B07047000011
:10926000014B024A1A607047A0E0032027C00D009E
:10927000F0B5144B144F1E68144B064418683B6835
:1092800006449E428BB01BD00AA801AD40F8286D61
:1092900001F096FF436903F26C73436104460FCCFF
:1092A0000FC50FCC0FC5D4F800E0C5F800E001AD44
:1092B0000FCD074C0FC40FCD0FC43E60C4F800E0C3
:1092C0000BB0F0BDD4E00320D0E00320CCE00320BD
:1092D000A4E0032008B50020FFF760FC28B1FFF7E9
:1092E00045FC80F00100C0B208BD012008BD10B5EA
:1092F0000020FFF717FA044668B9FFF7A3FB01281F
:109300000BD12046FFF7BEFB38B9FFF7E3FF30B9BA
:10931000FFF724FCF9E7012010BD002010BDFFF786
:10932000D9FF0020FFF7FEF9003018BF012010BD63
:1093300008B5FFF7DCFFBDE80840FFF7D3B9000030
:1093400008B5FFF7F5FFFFF793FF014B986808BDDD
:10935000A4E00320024B1A68024B1A60704700BF5A
:1093600004D90320C8E003200021FFF77BBB10B520
:109370000446FBF7A7FF204610BD00000348044A3F
:1093800004490023836001F089B900BFD8E00320BD
:10939000BCD903206F930D00007D7047037D1BB186
:1093A0008369B3F1004F02D19FED050A704707EEC4
:1093B000903A9FED047AF8EEE77A87EE870A7047D5
:1093C000000000000000C842037D1BB1036AB3F136
:1093D000004F02D19FED050A704707EE903A9FEDCE
:1093E000047AF8EEE77A87EE870A704700000000FB
:1093F0000000C842037D7BB1436A002B0CDB07EE03
:10940000903ADFED076A9FED070AB8EEE77AC7EEFC
:10941000267A27EE800A7047BFEE000A704700BF29
:1094200000FF7F470000C842037D7BB1C369002B6A
:109430000CDB07EE903ADFED076A9FED070AB8EE06
:10944000E77AC7EE267A27EE800A7047BFEE000A59
:10945000704700BF00FF7F470000C8422DE9F04180
:1094600007460C4615462AB90368C9B29B68BDE891
:10947000F0411847002907DA0A2A05D12D21FFF704
:109480007BFE6142064601E021460026EAB23846EC
:10949000FFF78BFE3044BDE8F08170B50D460646FF
:1094A0000A2281682846FFF7D9FF2C210446284666
:1094B000FFF762FE0A220444F1682846FFF7CEFF58
:1094C000204470BDA0F10400FFF7E7BF006800F082
:1094D000A2BB10B50446016002710AB1FFF7F6FFA6
:1094E000204610BD38B504460D4601F0B1F82A46B5
:1094F00001462046FFF7EDFF204638BD006800F02A
:1095000093BB10B5037904460BB1FFF7F7FF204674
:1095100010BDF8B5044616461D460F46FFF7D6FFA8
:109520002068362100F06CFB2068036839469B6890
:1095300098470121206800F066FB022236210123B2
:10954000206800F047FB206803685B69984730702B
:10955000206803685B69984728702046BDE8F8409A
:10956000FFF7CCBF07B502AB002203F8012D8DF841
:10957000062004210DF10602FFF7CBFF9DF807003E
:1095800001F048FB0022094B01F0AAFB01F0BAFDF3
:109590009DF8063000EE103A07EE900AB8EEC00AC9
:1095A00037EE800A03B05DF804FB00BF0000703F97
:1095B00008B50C4B33B100F077F903681B69984785
:1095C000002809DC084B63B100F084FA03681B69CA
:1095D0009847002803DC08BDAFF30080F2E7AFF343
:1095E000008008BD000000000000000008B5FFF783
:1095F000DFFFFFF76FF8014B186008BDC4E40320DC
:109600000248034A0349121A01F0E1BE00F40320A4
:1096100004F4032050C50D0007B5002300931A463B
:109620006FF07701FFF740FA03B05DF804FB00002C
:1096300007B543880A2B08D0502B09D1094B1B686A
:109640003BB103B05DF804EB1847FFF7E5FF06E018
:10965000002300931A466FF07701FFF725FA03B055
:109660005DF804FBE8E0032038B5104C104D23688A
:10967000AB42104B0CBF012200221A7002D0FFF740
:10968000BFFF2560FFF716F8044601F0B3FE0A4B52
:1096900013B12046AFF3008000210748FFF786FA98
:1096A00000210648BDE83840FFF7F4B900F4032074
:1096B0001E1C279AECE003200000000031960D00EC
:1096C000704710B51821044600F0F6FF204610BD83
:1096D000F0B5037D062B8DB00E4600F104074FF068
:1096E000000402D000F1080518E00CAD394605F879
:1096F000304D2F232A460A20FFF77CF8284601F038
:10970000C1FE33680246DB682946304698470FE0C1
:1097100024B12E213046FFF72FFD044415F8011D1A
:109720000A223046FFF741FDBD420444F0D12046F5
:109730000DB0F0BD10B5054B0446112240F8043BB6
:10974000002101F04FFE204610BD00BFF8C00D0003
:109750000346074A10B543F8042B01F1100251F8F3
:10976000044B43F8044B9142F9D10A781A7010BDAA
:10977000F8C00D00037D042B01D1406808E0062BE2
:109780000AD1436853B9836843B9C36833B90069E0
:10979000003018BF0120704700207047012070473B
:1097A00010B59DF8084044EA032343EA024242EA26
:1097B000016104234160037510BD37B50D788B78C6
:1097C0004A78C97800912946FFF7EAFF03B030BD17
:1097D00010B5034B03600446FFF7EFFF204610BDB2
:1097E000F8C00D0041747047704708B50021007C37
:1097F000FFF708F930EA200028BF4FF0FF3008BD1E
:1098000008B50121007CFFF7FDF830EA200028BFF1
:109810004FF0FF3008BD08B5007CFFF7EBF820EAF9
:10982000E07008BD08B5007CFFF7DCF820EAE070C6
:1098300008BD007CFFF7F6B810B51421044600F00F
:109840003BFF204610BD38B50446007C0D46FFF7AF
:10985000D1F8002801DC607C28B12946207CFFF784
:10986000D9F820EAE07038BD10B5044600236360E3
:109870004FF47A73A360054B2360012308462174DB
:1098800063741146FFF79EF8204610BD0CC10D0011
:109890000022007CFFF79EB810B514220446002178
:1098A00001F0A0FD204610BD30B50E4D87B001A8D7
:1098B000FFF7F2FF296811F0010410D12846FAF7EA
:1098C000F4FB60B101AA21460748FFF7CDFF284607
:1098D000FAF7F0FB054A0649034800F0DFFE0248AC
:1098E00007B030BDF0E00320F4E00320BCD9032032
:1098F000E9970D0000470000F0B585B01C460E4604
:1099000017460546FEF74EFE002084424FF0040342
:1099100003908DF80C30A5BF9DF828308DF80E30DF
:10992000034603AB009332463B460649A8BF8DF879
:109930000D402846FEF72EFEB0FA80F0400905B033
:10994000F0BD00BFF5980D00F8B50646FEF72AFEFB
:10995000074668B9084D55F826405CB12046FBF72C
:10996000B1FC1021204600F0A7FE45F8267001E06A
:109970000020F8BD0120F8BD08E10320FEF722BE5B
:10998000FEF718BE002211464068FFF7AFB800226C
:1099900011464068FFF7CAB8002211464068FFF739
:1099A000D5B800224068FFF7C9B8002281F0010154
:1099B0004068FFF7B3B800231A4619464068FFF71E
:1099C000A5B800231A4619464068FFF797B8002249
:1099D00011464068FFF77AB8002202214068FFF77D
:1099E0007DB800231A464068FFF768B838B5084CC0
:1099F00028252A460021204601F0F4FC4FF0FF33D1
:109A00006360044B258004225A60034A1A6038BD03
:109A1000A0E1032098E103203CC10D007047417490
:109A2000704708B5007CFEF735FF20EAE07008BDFE
:109A300008B5007CFEF706FF20EAE07008BD08B517
:109A4000007CFEF70FFF30EA200028BF4FF0FF3008
:109A500008BD08B5007CFEF7FDFE30EA200028BFF7
:109A60004FF0FF3008BD007CFEF704BF10B5142195
:109A7000044600F021FE204610BD70B5457C04462A
:109A80000E4625B9007CFEF705FF002805DD3146AE
:109A9000207CBDE87040FEF7CDBE284670BD0000BA
:109AA00010B5044608461146002262604FF47A72EF
:109AB000A260054A22600122207462741A46FEF7F1
:109AC000B1FE204610BD00BF70C10D00007CFEF746
:109AD000D9BE000038B50C4D296811F0010411D130
