:02000002D0002C
:1040000000400D00DCA50D00000006000D000501BC
:084010000401E80500000000B6
:04401800B89E0D0041
:10401C0009480A49884208B505D0094A824202D0AB
:10402C00121A05F0C6FE0748074A0021121A05F0BD
:10403C00CBFE014808BD00BF2CDD032044A50D00BC
:10404C009CDD03209CDD0320F0E7032070B504F019
:10405C00CBFA074C074BE41AA40800251E46A542D0
:10406C0004D056F8253098470135F8E770BD00BFED
:10407C0038A50D009CA40D0000F020B808B500F088
:10408C002AF8BDE8084004F071BA03F0B1BC03F0A3
:10409C00AFBC0078B0FA80F0400970470123037080
:1040AC00704710B5421C0023C9B2141AA14203DD9B
:1040BC0012F8014B2344F8E7D8B210BD08B500F054
:1040CC00F5FB00F05FF800F0CFFC00F01BFEBDE844
:1040DC00084002F069BC08B500F05EF800F0CCFCBA
:1040EC00BDE8084000F0D6BB08B503F08DF90021FF
:1040FC000120BDE8084003F0D7BB10B5044604F01E
:10410C0073FB2168BDE8104003F026BF1FB50B49B7
:10411C00684603F0B8FE6846FFF7EFFF684603F009
:10412C006BFE0749684603F0AEFE6846FFF7E5FFF5
:10413C00684603F061FE05B05DF804FBF29E0D00CD
:10414C0064A20D001FB510B1FFF7E0FF13E00B499F
:10415C00684603F098FE6846FFF7CFFF684603F009
:10416C004BFE0749684603F08EFE6846FFF7C5FF15
:10417C00684603F041FE05B05DF804FB059F0D0099
:10418C0064A20D0008B504F02FFB4FF49641BDE876
:10419C00084004F01DBB0000F0B589B0002301936A
:1041AC000293ADF80C3004F01FFB03681B699847B1
:1041BC0098B104F019FB03685B699847C4B204F02A
:1041CC0013FB03681B699847002800F0D58004F0A6
:1041DC000BFB03685B699847F1E704466EE0B24954
:1041EC0004A803F050FE04A8FFF787FF04A803F00F
:1041FC0003FEAE4904A803F046FE04A8FFF77DFFBA
:10420C0004A803F0F9FDA84904A803F03CFE04A897
:10421C00FFF773FF04A803F0EFFDA54904A803F012
:10422C0032FE04A8FFF769FF04A803F0E5FDA149DD
:10423C0004A803F028FE04A8FFF75FFF04A803F00E
:10424C00DBFD9D4904A803F01EFE04A8FFF755FFF3
:10425C0004A803F0D1FD994904A803F014FE04A8A6
:10426C00FFF74BFF04A803F0C7FD954904A803F022
:10427C000AFE04A8FFF741FF04A803F0BDFD914915
:10428C0004A803F000FE04A8FFF737FF04A803F00E
:10429C00B3FD8D4904A803F0F6FD04A8FFF72DFF2C
:1042AC0004A803F0A9FD804904A803F0ECFD04A8C0
:1042BC00FFF723FF04A803F09FFD0124834D2B7807
:1042CC00C3B1834B1A78834B1B789A4204D3FFF704
:1042DC001DFF00232B70012403F056F97E4B1B6845
:1042EC00C01A7E4B1B68984204D300200024FFF7B1
:1042FC0029FF2C707A4E3378002B30D0794B1A78FA
:10430C001D46794B02B10122784F1A7003F03CF92B
:10431C003B68C01A41F26F73984220D92D7855B181
:10432C0000F0BAFA724B18706E4B00221A7003F040
:10433C002BF9386013E000F0AFFA6E4B00280CBF7D
:10434C00012200221A7004D1694B1D78003518BF68
:10435C0001252846FFF7F6FE00232C463370664DE8
:10436C002B78002B00F0E88002F0C6FB0446FFF728
:10437C00E9FE00232B70DFE0A4F131000E2800F2DF
:10438C00D98001A353F820F0D1430D00EB430D006D
:10439C00F1430D006B440D0093440D0021450D00BD
:1043AC0041450D0041450D0041450D0041450D00B5
:1043BC0041450D0041450D0041450D0041450D00A5
:1043CC00EB410D004D4904A803F05DFD04A8FFF777
:1043DC0094FE04A803F010FD00F050F95FE000F02B
:1043EC0053FB6AE7052004F0E8FB3A4C4449207083
:1043FC0004A803F048FD04A8FFF77FFE04A803F00F
:10440C00FBFC0A22217804A803F061FD04A8FFF745
:10441C0074FE04A803F0F0FC3A4904A803F033FD41
:10442C0004A8FFF76AFE04A803F0E6FC364904A8CA
:10443C0003F029FD04A8FFF760FE04A803F0DCFCE0
:10444C00224B01221A7023785A1D4FF47A7353436E
:10445C00224A136003F098F81F4B18606AE02B494E
:10446C0004A803F010FD04A8FFF747FE04A803F00E
:10447C00C3FC1B4B01241C7003F086F81B4B18600B
:10448C00184B1C7056E0224904A803F0FCFC04A84D
:10449C00FFF733FE04A803F0AFFC00F07FFD0446E9
:1044AC00FFF750FE0AE700BFAC9F0D00E29E0D0027
:1044BC000C9F0D00189F0D00989F0D00CC9E0D00B9
:1044CC00BE9F0D00D59F0D00F69E0D00ACDD0320A8
:1044DC00B6DD0320AEDD0320A8DD0320A4DD032020
:1044EC00AFDD0320ADDD0320B5DD0320B0DD0320FF
:1044FC00A0DD0320A1DD0320B4DD0320289F0D00E7
:10450C00389F0D004C9F0D00559F0D00669F0D00B0
:10451C00769F0D000A4904A803F0B5FC04A8FFF728
:10452C00ECFD04A803F068FC064B01241C7002F09F
:10453C00CBFAC3E60024C1E6204609B0F0BD00BFAB
:10454C00889F0D00B4DD032002F05EBF13B502ACF2
:10455C0044F8040D04F012FD042221464FF480604F
:10456C0003F032F802B010BD30B591B03C220021FE
:10457C00054601A805F028FC04F000FD3C2201A929
:10458C00002003F019F83C2101A8FFF78AFD9DF8E3
:10459C00043083420CD101AC0FCC0FC50FCC0FC52E
:1045AC000FCC0FC594E8070085E80700012000E058
:1045BC00002011B030BD10B5044690B004F0DEFC04
:1045CC003C222146002002F0FFFF01A8FFF7CCFFA0
:1045DC009DF804002378C31A5842584110B010BDFE
:1045EC0030B58FB034220021054601A805F0ECFB54
:1045FC0004F0C4FC342201A94FF4007002F0DCFF7B
:10460C00342101A8FFF74DFD9DF8043083420AD1F7
:10461C0001AC0FCC0FC50FCC0FC50FCC0FC5236849
:10462C002B60012000E000200FB030BD10B5044617
:10463C008EB004F0A3FC342221464FF4007002F03B
:10464C00C3FF01A8FFF7CCFF9DF804002378C31A21
:10465C00584258410EB010BD37B502AC002344F897
:10466C00043D054604F08AFC042221464FF4806088
:10467C0002F0A2FF019B2B6003B030BDF0B5424AA3
:10468C00A5B01068516801AB03C3906818603F4B2C
:10469C0004AA03F1100701AE1546186859681446B0
:1046AC0003C40833BB422246F7D13C22002115A893
:1046BC0005F08AFB3422002108A805F085FB96E85A
:1046CC00070018AB83E8070095E80F001BAC84E8E3
:1046DC000F004FF0113541F211143C2115A8ADF823
:1046EC008C4016951795FFF7DCFC34218DF854009F
:1046FC0008A8ADF82240ADF83C40ADF82440ADF828
:10470C003E40ADF82640ADF84040ADF82840ADF83D
:10471C004240ADF82A40ADF84440ADF82C40ADF81D
:10472C004640ADF82E40ADF84840ADF84A40ADF8E3
:10473C003040ADF83240ADF84C40ADF83440ADF8F7
:10474C004E40149524AC0E95FFF7ABFC002344F8B7
:10475C00903D8DF820004FF0AA30FFF7F7FE204671
:10476C00FFF77AFF15A8FFF726FF08B9002009E02C
:10477C0008A8FFF75BFF0028F8D00098A0F1AA3337
:10478C005842584125B0F0BDE69F0D00F29F0D0038
:10479C0002F03ABE03681847012A02D0022A02D05E
:1047AC0004E0016002E00B6800B103600020704778
:1047BC00436913B183690C301847704713B5002156
:1047CC000446084602F030FF02A90023204641F8B7
:1047DC00043D02F041FF019C0CB101232371002127
:1047EC00012002F021FF2CB1236820469B689847DA
:1047FC000023237102B010BD10B58368044613B1B9
:10480C00032201469847204610BD07B58068002357
:10481C0038B18DE80A00022102F026FFB0FA80F0D0
:10482C00400903B05DF804FB38B5104B0360836896
:10483C000446A3B16FF000410022FFF7E6FF002110
:10484C00A06802F029FF237903F0FF0513B102F0F1
:10485C00D3FEF8E72946A06802F0F6FEA56004F145
:10486C000C00FFF7C9FF204638BD00BF0CA00D009F
:10487C0010B50446FFF7D8FF20461C2104F020FC9D
:10488C00204610BD024B0720197804F04ABB00BF2C
:10489C00B5DD0320FFF7F6BF08B5072004F05AFB7F
:1048AC00C0B208BD0146072004F03BBB13B5022182
:1048BC000520124C04F024FB002211462046FFF781
:1048CC00A4FFA06840B100236FF000428DE80C00FB
:1048DC0019461A4602F0C8FE094B00240121072094
:1048EC001C7004F00DFB2046FFF7DCFF01210720B4
:1048FC0004F006FB034B1C7002B010BDB8DD0320A6
:10490C00B6DD0320B5DD032008B5052004F022FB3D
:10491C00C0B208BD08B5FFF7F7FF044B10B91A7801
:10492C00013200E000221A7008BD00BFB6DD032082
:10493C0070B588B002F068FD194B049304AD194CA6
:10494C00194B236095E8030004F10C0202AE86E8D3
:10495C00030092E8030085E8030096E8030082E870
:10496C000300124A6261A26907920023104A237164
:10497C00A3600693A261019300930E4A23464FF461
:10498C007A7104F1080002F057FE2846FFF734FF55
:10499C00094A0A49204604F085FB08B070BD00BFE7
:1049AC0021490D00B8DD03200CA00D00A5470D001A
:1049BC00A1470D00C9470D009CDD032035480D00B3
:1049CC00704710B52821044604F07AFB204610BD30
:1049DC0010B502F0D9FD084B1A68801A074A9042AC
:1049EC001C4608D902F0DCFF10B1002002F0E0FFF9
:1049FC0002F0CAFD206010BDFCDD0320005C260522
:104A0C00014803F06FBD00BF00DE0320014803F036
:104A1C0053BD00BF00DE032030B58BB06846094C97
:104A2C00094903F069FF029BA36004AD039BE3609B
:104A3C000FCD10340FC495E8030084E803000BB0CD
:104A4C0030BD00BFD4DD0320E4E30320014803F0B4
:104A5C0061BC00BFD4DD0320024B00221146586814
:104A6C0002F05EBFE4E3032008B502F08DFD014BBC
:104A7C00186008BDFCDD032008B5FFF7A9FFBDE8F1
:104A8C000840FFF7C9BF000010B503F0ADFE374971
:104A9C0003F062FA03F0A8FE044603F0E3FB0A22DB
:104AAC000146204603F075FA204603F05CFA03F049
:104ABC009BFE2F4903F050FA03F096FE044602F0D9
:104ACC006FFF0A220146204603F063FA204603F0EA
:104ADC004AFA03F089FE274903F03EFA03F084FEFC
:104AEC000446FFF7B9FF0A220146204603F051FAAB
:104AFC00204603F038FA03F077FE1F4903F02CFA36
:104B0C0003F072FE0446FFF7A1FF0221204603F0DA
:104B1C002AFB03F069FE194903F01EFA03F064FE48
:104B2C000446FFF793FF0221204603F01CFB03F021
:104B3C005BFE134903F010FA03F056FE0446FFF730
:104B4C0065FF0221204603F00EFB03F04DFE0D49DC
:104B5C0003F002FA03F048FE0446FFF751FF20462B
:104B6C000221BDE8104003F0FEBA00BF18A00D00F2
:104B7C002AA00D003DA00D0050A00D0063A00D005B
:104B8C0076A00D0089A00D0070B502F03DFC104C14
:104B9C00104B23600025283329460F4E63601822E2
:104BAC0004F11000A560E56005F00EF920460B4CF1
:104BBC000B49324604F076FA2946204603F03CFCB9
:104BCC00324620460749BDE8704004F06BBA00BF7E
:104BDC00D4DD0320D0A20D009CDD032000DE0320D9
:104BEC00CD490D0063840D0002F00EBC037C03F074
:104BFC000803024603F0FF002BB1D36A506A181A5F
:104C0C0048BF6FF000407047704770477FB5024651
:104C1C0008461379956833B13DB90C4904B0BDE829
:104C2C00704003F099B90A4B00E00A4B167B0A4C12
:104C3C000A49527B0292012E08BF21460191009530
:104C4C00074A002103F09EFA04B070BDF9A00D00D4
:104C5C0065A20D00E8A00D00F1A00D00F5A00D005F
:104C6C000FA10D00103001F069B8103000F040BFFA
:104C7C00103001F003B9083001F000B907B502ABF0
:104C8C00012203F8011D1030194601F0F7F803B0AA
:104C9C005DF804FB10B52C21044604F011FA2046F3
:104CAC0010BD10B53421044604F00AFA204610BD9C
:104CBC0007B502AB012203F8011D0830194601F0BB
:104CCC00DDF803B05DF804FB07B501220DF1070117
:104CDC0000F05BFE01280CBF9DF807004FF0FF3081
:104CEC0003B05DF804FB08B51030FFF7EDFF08BD0D
:104CFC00037C13F0700F03D00021103000F028BF9C
:104D0C00704700007FB52048037A13B1083001F0DA
:104D1C004BF81E4C1E4B1F4A009304F58C66002367
:104D2C008DF80430029201258DF80D300E226B4661
:104D3C0004F26C4130468DF80C5001F0E7FB00B3E7
:104D4C0004F23C40266001F02FF82946204601F081
:104D5C0086FA014680B10D4C04F23C4521462846AA
:104D6C0000F0FBFD68B194F83C3413F0700316BFEF
:104D7C00094B18461D6005E0204601F070FA00282A
:104D8C00E9D1002004B070BDC4E2032040DE032052
:104D9C00A4A00D0080F0FA0224E3032007B502461C
:104DAC00D3B20193C2F3072300930846C2F307431F
:104DBC000349120E02F02CFE03B05DF804FB00BF99
:104DCC002DA10D00F0B593B00F4601A9FFF7E6FF3A
:104DDC0000238DF824308DF8253006934FF47A7328
:104DEC000793134B059301AA44F202231149124E67
:104DFC0009A809AC00F0DFFF0FCC06F110050FC5B8
:104E0C000FCC0FC523682B60069B7360307C079B0F
:104E1C00B360089BF36040B13946304603F0AFF8FD
:104E2C00A5F1200000F0C0FF012013B0F0BD00BFC1
:104E3C00B0A00D007CE20320F0E203200146014803
:104E4C0001F008B87CE203201FB5FFF75BFF08B93F
:104E5C00002023E01349144A09681448002300F089
:104E6C00AAFF0028F4D000221049114800F027FFB7
:104E7C0080B10D220021684604F0A6FF69460C485B
:104E8C0000F0CEFC0A4800F08FFF6946094800F09C
:104E9C00E1FFE8E70848FFF72BFF012005B05DF8BC
:104EAC0004FB00BF24E3032042A10D00CCE203204D
:104EBC001CDE03207CE20320F0E203202DE9F0410C
:104ECC008EB090464FF47A720392184A01920023E6
:104EDC0002460F4605A816498DF8143005AC8DF81E
:104EEC001530029300F067FF0FCC124E06F110053F
:104EFC000FC50FCC0FC523682B60029B7360307CF1
:104F0C00039BB360049BF36060B13C46E31B984584
:104F1C00094804DDFFF7D8FE04F8010BF6E700F0B2
:104F2C0043FF01200EB0BDE8F08100BFB0A00D0022
:104F3C007CE20320F0E2032000E3032010B50446DA
:104F4C00FFF7E0FE08B9002010BD1049104A0968AF
:104F5C001048002300F02FFF0028F4D000220D4948
:104F6C000D4800F0ACFE0C4800F01EFF0022094971
:104F7C00094800F0A4FE0028E5D02146064800F0C0
:104F8C004FFC054800F010FF012010BD24E3032066
:104F9C0042A10D00CCE203201CDE032010B5ADF5C0
:104FAC00087DFFF751FF08B9002033E01B4803F0E0
:104FBC0004FEFF220446742108A804F005FFFF221A
:104FCC0008A92046FFF7FEFE0028EDD069462046D2
:104FDC00FFF7E4FEFF2248A96846FFF76FFF0028A1
:104FEC00E2D0FF2248A908A804F0D4FE0028DBD1A7
:104FFC0004A8FFF7A3FF0028D6D00D2204A9684609
:10500C0004F0C8FE0028CFD104A8FFF717FF00302A
:10501C0018BF01200DF5087D10BD00BF004225789A
:10502C0070B502F0F1F9274B274E642183F8601418
:10503C002649C3F87014012183F8741431680022D6
:10504C0011F00105DA7183F83C2483F83D2483F8D0
:10505C006A24C3F8782483F87C2483F87D241C46C6
:10506C000AD13046FFF715F830B12946184802F03E
:10507C0023FD3046FFF712F81648154BC4F86C3474
:10508C0000244FF47A730474447444608360124AAD
:10509C00124B1349036004F005F81248124D0472C8
:1050AC00447244600C4A1149056003F0FBFF104840
:1050BC00094A04724472446005600C49BDE87040B2
:1050CC0003F0F0BF40DE032008DE0320A4A00D0097
:1050DC000CDE0320F0E203209CDD0320B0A00D00C9
:1050EC00174C0D00C4E20320D8A00D00154C0D0088
:1050FC0014DE032002F088B902F086B910B504461C
:10510C00243000F09DFF28B104F50C70BDE8104070
:10511C0000F096BF10BD411E00F10A0200204308AA
:10512C0043EAC01011F8013F53FA80F08A42C0B232
:10513C00F5D1704738B5CB6804460D4623B989685C
:10514C00BDE8384000F009BC2422002104F03CFEEC
:10515C00102301202370A070AB68A360EB6823625E
:10516C0038BD00002DE9F0470378202B00F1010435
:10517C0001D12046F8E7704F886005462C1A2E4660
:10518C0015F8013B0BB32F2B01D1031917E05C2B46
:10519C0002D10020BDE8F087A3F12204E4B21D2C5B
:1051AC0003D827FA04F4E407F3D403F0BF043C2C2F
:1051BC00EFD0203B5E2BE1D9EBE72F2D05D11E461E
:1051CC0013F8015B202DF8D1F9E71660031998420A
:1051DC00C0EB030809D013F8012D2E2AF7D0202A92
:1051EC00F5D0B8F1FF0FD4DC01E04FF00008C1F8A6
:1051FC00048001F10C0301F11702202403F8014F84
:10520C009342FBD103461A1A13F8014B2E2CFAD0F9
:10521C00202CF8D0B2FA82F4640908F1FF36731C22
:10522C0007D100274FF0070E3D46BA464FF008094C
:10523C0009E0835D2E2BF4D0013EF0E7835C202B3C
:10524C0004D1002401324245F8DB4BE02E2B02D175
:10525C00B242F6D103E0222B17D07C2B15D0A3F150
:10526C002A0CBCF1050F01D82D2B0ED1A3F13A0C51
:10527C00BCF1050F09D9A3F15B0CBCF1020F04D9E9
:10528C00A3F1210CBCF15D0F02D9B2420ED149E061
:10529C00B24247D0754521D8A3F1610CBCF1190F6E
:1052AC0008D8203BDBB249EA07070AE0754515D858
:1052BC0000245F23A3F1410CBCF1190F98BF49EAFC
:1052CC000A0A05F1010C5FFA8CFC0D44BCF1060FC7
:1052DC006B7301D881F80CC06546B3E7BEF10A0FB9
:1052EC0017D100244B7B202B3FF453AF3CB11AEA6F
:1052FC00070F18BF02270F700120BDE8F0870B7B4A
:10530C000120087019447E234B7331238B73BDE845
:10531C00F087B242E5DC32464FF00A0E08254FF01A
:10532C0010098EE7BEF10A0FDBD032464FF00A0EA1
:10533C0008254FF0100985E701010031F0B58BB05D
:10534C0000238DF804308DF80530037819070446D6
:10535C0008D583789A0705D5016A29B1A06800F0B1
:10536C0060FF08B9002049E00121204600F0BCFA9A
:10537C0005460028F6D0FFF7CEFEE5262E7000235A
:10538C0007462370A068FFF7B9FE0028EAD0E3783F
:10539C00002B33D0214601A8FFF7CCFE0028E1D02A
:1053AC000125E378AB42DDD3A188491B490101A853
:1053BC0000F0CEFB0028D5D0002101A800F0ABFBFB
:1053CC000028CFD0C37A0F2BCCD1027802F01F0368
:1053DC009D42C7D1437BBB42C4D10670A16891F8F2
:1053EC00243043F0010381F82430530603D5A06820
:1053FC00FFF784FE02E00135EDB2D2E70BB0F0BD51
:10540C002DE9F84391F80C9006460D4602247E27B0
:10541C0001F10D086968AA6863189BB211449142A6
:10542C0006D012F8010B03EB431343409BB2F6E793
:10543C00B9F1030F28BF4FF0030909F10402D2B2EE
:10544C0003F00F01A818013A0929D2B294BF3031E8
:10545C003731914541734FEA1313F1D305EB09032F
:10546C0000215F73304600F073FB0121304600F0E1
:10547C0052FB014628B97078B0FA80F04009BDE8BB
:10548C00F88303784BB1C37A1B07EED40B2240464A
:10549C0004F080FC0028E8D102E00120BDE8F8838C
:1054AC000134A4B2642CB5D1BDE8F8832DE9F04FDA
:1054BC009B460B7889B013F0700F05900E46914601
:1054CC0001D10020A0E1059B1B78002BF9D153687A
:1054DC00029313789B0700F08D81029B0D270C33F0
:1054EC00B3FBF7F70137FFB20021304600F030FB79
:1054FC004FF0000809F10D02CDF80C8043464446EC
:10550C004546CDF81080069272690793012130460A
:10551C00C2F34F1A00F0FFFA079B20B97378002BE7
:10552C0000F09080CDE70278E52A00D042B9002C3B
:10553C0008BFD046BC423CBF0134E4B222B981E082
:10554C00BC4238BF002403E0E52A01D10025DBE78B
:10555C002E2AFBD0C17A0F2952D13DB95106D3D591
:10556C00437B039302F01F052B4607E0013BDBB2A4
:10557C009A42EBD1427B03999142E7D15A1E4FF0EC
:10558C000D0C0CFB02FC029A6245DFD94FF0000EA9
:10559C00BEF1040F5FFA8EF204D800EB4E02B2F8A3
:1055AC0001200CE00A2A95BF0EF1FF320EF1010228
:1055BC0000EB420200EB420294BFD288928802991F
:1055CC00614503D1002A18BF00259DE7FF2ABDD8ED
:1055DC00D2B2A2F141011929D9F8081011F80C1016
:1055EC0098BF20320CF1010AA1F1410C98BFD2B244
:1055FC00BCF1190F9CBF2031C9B29142A6D1FBE07E
:10560C000907A3D44DB1012B7FF45BAFFFF783FDEA
:10561C00039B83427FF455AF0FE00B22069907934F
:10562C0004F0B8FB079B00287FF46EAF99F80020BC
:10563C00D20702D50122049266E71BF4006F00F03A
:10564C00D1803EE71BF4007F3FF43BAF0BF003032C
:10565C00013B012B3FF635AF002C08BFD046BC42B6
:10566C0002D3049BCBB91FE00021304600F053FA63
:10567C0010B973785BB124E70134E4B2EFE7B36897
:10568C001B79012BEDD81034E4B2A742E9D930468E
:10569C0000F0EAF80028F2D113E749463046FFF74C
:1056AC00AFFE00283FF40DAF4FEA4811304600F032
:1056BC004FFA00283FF405AF7D1EEDB22C464FF09B
:1056CC00000A4FF00F0841E00021304600F023FAA9
:1056DC00074600283FF4F5AEB26892F82430AC428D
:1056EC0043F0010382F824300CBF44F04002224600
:1056FC00027080F80B8080F80CA009F10D00039269
:10570C00FFF709FD039A787387F81AA087F81BA096
:10571C0002F01F020D23013AD9F808E05A43002386
:10572C000299914215D91EF80210042B5FFA83FCE2
:10573C0003F1010013D807EB4303A3F801100D2864
:10574C0002F101020346EBD1013CE4B2002CBBD1C7
:10575C000EE014BF4FF0FF31002189B2E5E7BCF138
:10576C000A0F94BF07EB430307EB40039980E6E76E
:10577C00736921463046C3F34F1A00F0CCF9074643
:10578C0000283FF49EAE2022214604F01DFB4B4620
:10579C0053F80D2F3A605A687A601A893A819B7ACD
:1057AC00BB7299F8003003F018033B73184B1B685D
:1057BC002BB107F10E0107F11000984706E02123E9
:1057CC003B7428237B740823BC73FB733B8A7B825A
:1057DC003B83FB89FB82B26892F8243043F00103CF
:1057EC0082F8243000955B4652463146059800F00D
:1057FC00F8F909E0012777E60EF1010EBEF10D0F65
:10580C003FF482AED446C3E609B0BDE8F08F00BFCA
:10581C0028E3032001F0F8BD01F0F6BD01F0F4BD62
:10582C0010B50C46017809B9002010BD11F06001CB
:10583C0004D02F2323700023637006E000F054F88B
:10584C000028F1D0214600F05EF8012010BD01F0D7
:10585C00DBBD8378016943F00403837000F110020F
:10586C00806800F0A3BC00002DE9F041037803F040
:10587C002003044603F0FF050BB100262EE042691D
:10588C00184B9A42F9D8FFF7E4FF06460028F4D0EB
:10589C002169A06800F01FFC0746A0680522394664
:1058AC00243000F0F4FB80460028E6D029464FF463
:1058BC00007204F089FA0125A3681A79AA4209D961
:1058CC004246E919186800F05FFF0028D5D0013571
:1058DC00EDB2F1E7636903EB422363613046BDE847
:1058EC00F08100BFFFFD1F0010B5044680680A461A
:1058FC002430A16900F0CBFB20B1A38803F00F0387
:10590C0000EB431010BDF0B50024451E08262346BD
:10591C002E2715F8012F202A18D0082C02BFCF549F
:10592C005A1CD3B22A78A2F1410E08BF1026BEF140
:10593C00190F06D890F80CE016EA0E0F1CBF203297
:10594C00D2B203F1010ECA545FFA8EF301340B2C60
:10595C00DFD10022CA541846F0BD70B50478054654
:10596C000E4684B92422214604F02EFAAE60F37957
:10597C00102B03D0202B06D1402300E02023012044
:10598C002B70A87070BD002070BD2DE9F74F037807
:10599C000446894615464BB18278D10706D50CE0F2
:1059AC005A46216900F09DFB00283DDA637843F0EC
:1059BC00020363704FF0FF3097E01A0703D5E369D9
:1059CC0062699B1A07E09A0608D5A3681A8963696D
:1059DC00C3EB42139BB29D4228BF1D462E464FF08F
:1059EC00000804F1100B002E35D022786369A068F2
:1059FC0012F0200FC3F3080A4FEA532102D0036AB6
:105A0C0019441DE090F8058001EA0808BAF1000F6E
:105A1C0010D1B8F1000F0DD1002BC1D153064CBFE2
:105A2C00036A236A236105E004D1237813F0700F15
:105A3C0011D1BBE72169A06800F04DFB08EB000118
:105A4C00A068BAF1000F35D1B6F5007F32D3C36A26
:105A5C00994202D12EE0A81B47E0B6F5806F1BD30C
:105A6C00227897064FEA562A06D40279C8EB02022E
:105A7C00D2B2924528BF924699424FEA4A2707D2A2
:105A8C00A06853464A46006800F03CFE60B98DE7BA
:105A9C005344994221D3F3E74A46006800F0EAFDEB
:105AAC00002883D04FF4007763693B44B9446361A9
:105ABC00F61B98E70022243000F0E9FA00283FF4A6
:105ACC0075AFCAF50077B74228BF374600EB0A011D
:105ADC003A46484604F06DF9E6E72430019100F0AF
:105AEC00AFFA01990028CBD160E703B0BDE8F08F85
:105AFC0073B501220DF10701044646690569FFF7EC
:105B0C0044FF012805BF9DF8070066614FF0FF3088
:105B1C00256102B070BD37B54369C3F34315044624
:105B2C0005B169B901220DF107012046FFF72DFFE0
:105B3C0040B2012801D0002008E063691F3300E067
:105B4C002033A0686361303000EB451003B030BDEA
:105B5C002DE9F0410E46017807690446002939D039
:105B6C004569B5423AD00EB9066131E00B0703D551
:105B7C00C3699E422ED807E0880605D5A3681B8909
:105B8C00B6EB431F26D823E0D4F808E09EF8063085
:105B9C006A1E03F10900731EC240C3409A4200D82A
:105BAC004DB94A064CBFDEF82020226A22611D4600
:105BBC0004F110080AE09B1AF9E742462169A06833
:105BCC0000F08FFA002805F1FF3503DD002DF4D12C
:105BDC00666103E027610020BDE8F0810120BDE88B
:105BEC00F081F8B50F4615460021242204461E46C6
:105BFC0004F0EAF8B868A06005F00F02A58000F187
:105C0C00300152013B6AE3601144CB7A1D074CD43E
:105C1C00831893F83B3003F017032370C97A11F003
:105C2C00180F04BF43F0080323709DF81830E3707D
:105C3C0006F00303012B09D0022B05D0002B34D125
:105C4C00710532D4012302E0032300E00223A37088
:105C5C00A1788B0703D5237813F0110F25D14BB204
:105C6C0016F4005F06F0080114BF6FF07F070027E1
:105C7C0019433943A170C36AA36102447505B2F894
:105C8C004410B2F84A3043EA014104D581B100F026
:105C9C00C8FA68B909E02162D36CE36173040CD5CE
:105CAC00E1692046FFF754FF38B900202070F8BD99
:105CBC00A37843F00403A370F0E70120F8BD2DE9AD
:105CCC00F743037806460D46174653BB0B7813F083
:105CDC00700F26D04C6914F01F0422D1A04600216D
:105CEC002846D5F81490FFF716FFD0B10378C3B14E
:105CFC002E2B01D10024F2E7E52BFBD0C17A11F059
:105D0C00080F05D17CB1FFF706FA804509D10AE0EE
:105D1C000F29EFD15906E2D503F01F0490F80D803E
:105D2C00DDE7002007E000943B46C9F34F122946FB
:105D3C003046FFF756FF03B0BDE8F08338B5037863
:105D4C0004460BB9012038BD83785A0723D50121AD
:105D5C00FFF7CAFD054628B9637843F00103637069
:105D6C00002038BD0378E52BF6D023781B0744BF01
:105D7C00E369C361238C4383638C8382094B1B6867
:105D8C002BB100F11601183098472B8B6B82A3783E
:105D9C0023F00403A370A068FFF7B0F90028DBD050
:105DAC00D0E700BF28E3032010B50446FFF7C6FF79
:105DBC000023237010BDF0B593B01F4600238DF85F
:105DCC0024308DF825300378019206460C460BB131
:105DDC0000203DE00B7813F0700FF9D013782F2BC7
:105DEC0012D1019B1A782F2A02D101330193F8E7C3
:105DFC00A1681AB93046FFF7B0FD29E009A8FFF7F2
:105E0C00ACFD0028E4D009AC01AA03A90198FFF766
:105E1C00A9F90028DCD0019B1B789BB1002303AAB5
:105E2C0021463046FFF742FB0028D1D035460FCD36
:105E3C0009AC0FC40FCD0FC42B6823603046FFF79D
:105E4C00B3FFE0E73B4603AA21463046FFF72EFBA3
:105E5C0013B0F0BD00B58BB000238DF804308DF875
:105E6C0005300A460123014601A8FFF7A4FF10B133
:105E7C0001A8FFF763FA0BB05DF804FB2DE9F047BE
:105E8C000378894619070446904608D583789A0703
:105E9C0005D51B070BD5E169FFF75AFE38B96378B6
:105EAC0043F0010363704FF0FF30BDE8F087636986
:105EBC00DB439845F3D846464FF0000A6369002E41
:105ECC0000F08180A068427912EA5325C3F30807D9
:105EDC001CD1DFB9216971B104F1100200F001F994
:105EEC000028DCDB40F08E802046FFF7B2FC002857
:105EFC0040F08880D3E7236A3BB92046FFF7A9FC22
:105F0C000028CCD02369236200E023612169A068BA
:105F1C0000F0E1F8291817B9B6F5007F21D2C7F5C2
:105F2C000075B54228BF354637B96369E2699342BB
:105F3C0034BF0122052200E00122A068243000F0C9
:105F4C00A6F80028ABD038442A4649462F4403F023
:105F5C0030FFB7F5007F30D1A068243000F070F826
:105F6C0017E0B6F5806FA06815D30279521B730A3F
:105F7C00D2B2934228BF1346C26A91424FEA4325DC
:105F8C0002D31A44914237D3A7684A46386800F0C6
:105F9C006DFC90B983E7C36A994202BF4FF0FF339F
:105FAC0080F824A0C362A3684A46186800F0ECFB92
:105FBC0000283FF474AF4FF4007563692B446361A0
:105FCC00A944761B7AE7E269934201D9E36102E0C6
:105FDC000F4B1B681BB1A37843F00403A37094F917
:105FEC000230002B02DB4046BDE8F0872046FFF76D
:105FFC00A5FE0028F7D152E74FF0FF3280F824A01D
:10600C00C262C1E72169A06800F065F8014683E728
:10601C0028E3032001F0F8B970B505460C46084694
:10602C0049B103F03BFF2B68024621462846DB684A
:10603C00BDE87040184770BD01F0E6B901F0E4B955
:10604C0070B50378DA0704461ED54368816800F101
:10605C000C063246186800F097FB054608B9002577
:10606C0013E023789B0704D4237823F001032370D7
:10607C000BE06368A068196932460144186800F0A7
:10608C0083FB0028F0D1EAE70125284670BD70B5E6
:10609C0083688B4204460E46154614D0FFF7D0FF9A
:1060AC0008B9002070BD6B0703D500232370A660D0
:1060BC0009E0636804F10C023146186800F0DAFA62
:1060CC000028F2D1EDE72378204605F003051D43A7
:1060DC0000F80C5B70BD8379406902399940084423
:1060EC007047012970B505460C46164602D84FF08C
:1060FC00FF3070BDC3699942F9D8C379202B10D1F8
:10610C008169022201EBD41100F50C70FFF7BFFF7F
:10611C000028ECD004F07F0450F8243023F07043B6
:10612C000FE0102BE3D18369C1F30721022219443C
:10613C0000F50C70FFF7ABFF0028D8D0E4B230F8B4
:10614C001430EA6993429ABF33600120002070BD7D
:10615C00012938B50C46154601D8002038BDC36955
:10616C009942FAD8C379202B0ED18169032201EB15
:10617C00D41100F50C70FFF78AFF0028EDD004F065
:10618C007F0440F824500FE0102BE6D18369C1F353
:10619C0007210322194400F50C70FFF778FF002843
:1061AC00DBD0E4B220F81450012038BD2DE9F341C6
:1061BC00C4688C4205460E46904607D20C46002712
:1061CC00EB6901349C4203D9CFB9EC680127F7E79E
:1061DC00A64214D001AA21462846FFF782FF0028C8
:1061EC000DDBEDD0019B002BEAD107B1EC606FF019
:1061FC00704221462846FFF7ABFF074608B9002737
:10620C000BE016B9C8F8004007E022463146284694
:10621C00FFF79EFF0028F5D1F1E7384602B0BDE844
:10622C00F08173B505460C4601AA21462846FFF7B6
:10623C0058FF061E01DA00200FE0002221462846F6
:10624C00FFF786FF0028F6D0EB689C429CBF04F158
:10625C00FF34EC60019C002EE6D102B070BD70B52D
:10626C00012304460022C3604FF0FF33C2710D4678
:10627C00A06280F82420C362C4F8340280F8302273
:10628C00C0F83832A1B104295DD811462430FFF78B
:10629C00FEFE002857D000EB051393F8AE315B06D9
:1062AC0051D11B3500EB0515D5F80650002D4AD001
:1062BC000022294604F12400FFF7E9FE002842D011
:1062CC00B0F80B30B3F5007F3DD1037C022B3AD1F3
:1062DC00C389002B37D0417B21714B1E6371002386
:1062EC00A371092601238B4207D0013E2BD0A27942
:1062FC005B000132DBB2A271F5E7C28A02B9426AD5
:10630C002261C6892E44A661B0F81130238106EBB8
:10631C0042012162B0F81120520102F2FF1201EB8E
:10632C0062226261B0F8133003B9036AAD1A2B44D0
:10633C00A57923FA05F56B1CE36140F6F4739D42D5
:10634C0003D80C23E371002070BD4FF6F4739D420B
:10635C0085BFC36A236210232023E371012070BD23
:10636C0001F052B801F050B801F04EB870B50E4CB7
:10637C000E46154601F000F92368C01A0B4B9842E3
:10638C0008D901F001F90A4B186001F001FB01F08A
:10639C00F3F8206001F0F8F880B2801BA842D4BF5B
:1063AC000020012070BD00BF2CE30320A08601005B
:1063BC0010E7032038B5057A04464DB9406800F063
:1063CC007DFA63682946187D02F0ABFD0123237228
:1063DC0038BD10B5037A04466BB143680121187DB2
:1063EC0002F09FFDFF21606800F09AFA606800F0EF
:1063FC0079FA0023237210BDF8B504460D461646F3
:10640C0001F0C2F887B2606800F06FFAFF28607282
:10641C0009D14FF47A7239462046FFF7A7FF0028BE
:10642C00F1D055230BE0FE2801D0502307E0324673
:10643C002946606800F05EFA607230B16023204635
:10644C002370FFF7C6FF0020F8BD606800F04DFA1E
:10645C00606800F04AFA0120F8BD70B504460E469B
:10646C0001F092F885B2324629462046FFF77EFFAE
:10647C0030B9606800F039FAFF28F4D1012070BD02
:10648C00002070BDF7B5037A019204460D460BB996
:10649C00FFF790FF25B14FF496712046FFF7DDFF13
:1064AC0045F04001606800F03BFA0DF107060DF174
:1064BC00030716F80119606800F032FABE42F8D1F1
:1064CC00002D0CBF95218721606800F029FA6068C7
:1064DC0000F00BFA0B25606800F007FA03066072F7
:1064EC0003D5013D15F0FF05F5D103B0F0BD70B536
:1064FC0004460D46164637210022FFF7C3FF3246ED
:10650C0029462046BDE87040FFF7BCBF2DE9F0419D
:10651C0000250572057085724160044690461E4642
:10652C0001F032F841460746606800F0CBF9636829
:10653C004F4A1D724FF00108DA605D7483F81080C9
:10654C002046FFF737FF63684146187D02F0E9FCEF
:10655C000A25FF216068013D00F0E2F915F0FF0506
:10656C00F7D163682946187D02F0DBFC0A2500226E
:10657C0011462046FFF786FF0128804612D0013DC8
:10658C0015F0FF0501D1202357E0FD21606800F0D4
:10659C00C7F94FF40278606800F0A7F9B8F1010868
:1065AC00F9D1E4E74FF4D57208212046FFF76AFFD2
:1065BC00052802D184F80A800FE00425606800F0F9
:1065CC0094F9013D15F0FF056072F7D1AA2802D1AC
:1065DC000223A37201E025232FE0A37A022B0CBF28
:1065EC004FF080450025BFB22A4629212046FFF7EF
:1065FC007EFF024648B14FF4FA6239462046FFF757
:10660C00B5FE0028F0D0432317E0A37A022B0ED05E
:10661C002046FFF7DEFE6368B0683479317B727B0D
:10662C005A74D8601C7219740120BDE8F0813A21AB
:10663C002046FFF727FF38B1372320462370FFF79A
:10664C00C8FE0020BDE8F081606800F04EF900F053
:10665C00C000C02804BF0323A372606800F045F992
:10666C00606800F042F9606800F03FF9D0E700BFC5
:10667C0090D0030038B5837A032B18BF4902154616
:10668C000A4611210446FFF7FDFE10B1302323709A
:10669C000BE029464FF400722046FFF7ADFE05468D
:1066AC0018B12046FFF795FE03E02046FFF791FE58
:1066BC000025284638BD10B5837A032B0A4618BF2F
:1066CC004A0212210446FFF7DDFE30B13123204689
:1066DC002370FFF77EFE002010BD012010BD10B509
:1066EC0000220C210446FFF7CDFE30B128232046B2
:1066FC002370FFF76EFE002010BD2046FFF769FEE9
:10670C00012010BDF8B5054616461F46FFF7D3FF0E
:10671C0098B10024A3B29F4206EB442108D94FF450
:10672C0000722846FFF768FE01340028F2D104E01D
:10673C002846BDE8F840FFF7D2BF0020F8BD38B5B9
:10674C0004461546406800F0EBF84FF400722946F9
:10675C00606800F0E9F8FF21606800F0E1F8FF21C3
:10676C00606800F0DDF8606800F0BFF8607200F05F
:10677C001F00052806D0572320462370FFF729FE5B
:10678C00002038BD012038BD70B5837A032B18BFAB
:10679C00490215460A4618210446FFF773FE0646C1
:1067AC0008B132231DE02A46FE212046FFF7C7FF21
:1067BC00C0B14FF4FA612046FFF74FFE054608B909
:1067CC005A230EE032460D212046FFF75BFE38B906
:1067DC00606800F08AF818B92046FFF7FAFD05E06A
:1067EC00292323702046FFF7F4FD0025284670BDB1
:1067FC0038B50D464FF4FA610446FFF72EFE10B97A
:10680C005B23237005E02A46FC212046FFF797FF07
:10681C0018B92046FFF7DDFD002038BD10B5837A8E
:10682C00032B0A4618BF4A0219210446FFF72AFE19
:10683C0030B1332320462370FFF7CBFD002010BD71
:10684C00012010BD38B54FF4FA610446FFF705FE80
:10685C00054620B1FD21606800F062F801E0562386
:10686C0023702046FFF7B5FD284638BDF8B5054620
:10687C0016461F46FFF7D2FF70B10024BC4206EB50
:10688C004421284604D0FFF7B3FF28B10134F5E7C3
:10689C00BDE8F840FFF7D6BF2846FFF79AFD002069
:1068AC00F8BD00F0B1BD00F0AFBD00F0ADBD000013
:1068BC00014B01221A70704730E30320011D006860
:1068CC0001F050B910B504460175006801F0FEF8EE
:1068DC00207D012102F014FB207D0121BDE8104038
:1068EC0002F01FBB006801F024B9FF21006801F021
:1068FC00FFB9000037B5084B00930025074C006822
:10690C00257013460A46294601F0F8F92378002B26
:10691C00FCD0002003B030BDBD680D0030E3032077
:10692C00006801F0E5B9000037B5074B009300256E
:10693C00064C0068257013462A4601F0DFF92378CF
:10694C00002BFCD003B030BDBD680D0030E303203C
:10695C0000F05ABD38B5074C0D46024603212046BF
:10696C0000F078F92A4620460421BDE8384000F0B2
:10697C0071B900BF34E303200146014800F07CB933
:10698C0034E3032008B50121062002F0CAFA642082
:10699C0001F07AFC0620002102F0C3FA6420BDE865
:1069AC00084001F071BC000010B50121062002F076
:1069BC00A7FA0E4CFFF7E6FF0D4B0E4A1B78127828
:1069CC002B21204600F0FCFB2046012100F05AFA56
:1069DC0005210D20FFF7BEFF074B1878FFF7CCFF02
:1069EC0020460649BDE8104000F0BEBB34E303204E
:1069FC0030DD032032DD03202EDD032044A10D0009
:106A0C0037B5084CD5B20023009302460B462046FE
:106A1C00294600F0B1FA204603B0BDE8304000F042
:106A2C0011BA00BF34E303202DE9F041064600AF54
:106A3C00214800F007FA0446B0B3DFF888801F49FC
:106A4C0098F8004098F8003098F80020073323F0AD
:106A5C0007036D46ADEB030D684603F0AAF99DF8EC
:106A6C0000303C2BE4B219D1023CE4B21DF80430E6
:106A7C003E2B13D198F800201049304603F099F9B9
:106A8C000D4800F081F820B100220D490A4800F0B1
:106A9C00A3FA094800F0D6F9012003E0064800F0FB
:106AAC00D1F90020AD4603E0034800F0CBF92046B5
:106ABC00BD46BDE8F08100BF34E3032052E3032060
:106ACC0065A20D008FE3032007B5094B18689A885F
:106ADC009B798DF80630074B0090ADF80420072108
:106AEC00B3F900206846FFF78BFF03B05DF804FB99
:106AFC0055A10D002CDD032010B5114A86B010688D
:106B0C00516812896B4603C31A80002303930493C4
:106B1C00ADF81430052403A8FFF786FF28B94FF40D
:106B2C007A7001F0B1FB013CF5D10A2203A9684649
:106B3C0003F030F9B0FA80F0400906B010BD00BF88
:106B4C005CA10D0008B500F05FFC084B084A1A6008
:106B5C00112208491A7102225A719A7101220A7083
:106B6C00002119721F2159729A7208BD34E3032057
:106B7C0070A10D0090E30320024B186803681B689A
:106B8C00184700BF4CE30320054B1B7803F0FF00B4
:106B9C0023B1044B1878FF3818BF0120704700BF91
:106BAC0049E3032048E3032008B50121007902F0F2
:106BBC00B8F9BDE8084001F069BE000038B5094DD0
:106BCC00296811F001040AD12846FDF762FA30B1A8
:106BDC002146054800F070FF2846FDF75FFA024891
:106BEC0038BD00BF08DE03200CDE032010B50446C0
:106BFC00FFF7E4FF2146BDE8104001F079B810B56D
:106C0C00044601F041FEFFF7D9FF002100F080FFA0
:106C1C00FFF7D4FF012100F06AFFFFF7CFFF182127
:106C2C0001F042F820790021BDE8104002F079B95A
:106C3C0038B50C460546FFF7E2FF04F07F00FFF77E
:106C4C00D5FF0020FFF7D2FF04462846FFF7ACFF24
:106C5C00204638BD70B50E4615460446FFF7CFFFEB
:106C6C0046F08000FFF7C2FF2846FFF7BFFF204623
:106C7C00BDE87040FFF798BF10B541721121044672
:106C8C00FFF7D6FF627A00F0E0001F2A94BF0243A0
:106C9C0040F01F0211212046BDE81040FFF7DABF7B
:106CAC0010B5044649B101222321FFF7D3FF23215C
:106CBC002046FFF7BDFF8307F9D524212046FFF7B7
:106CCC00B7FF4042401010BD38B5002914BF5D22FB
:106CDC0055220C465A210546FFF7BCFF002C2846CE
:106CEC0014BF7C2270225C21BDE83840FFF7B2BF94
:106CFC0070B5284D2B788B4204460E4649D004299A
:106D0C0047D8DFE801F0342C241203000121FFF7EF
:106D1C008FFF00F0E30242F00C0201212046FFF746
:106D2C0099FFA37A63B301210DE00121FFF780FFE6
:106D3C0000F0E30242F0100201212046FFF78AFF27
:106D4C00A37AEBB100212046FFF7BEFF18E001212A
:106D5C00FFF76EFF00F0E30242F008020CE00121A5
:106D6C00FFF766FF00F0E30242F0040204E00121A9
:106D7C00FFF75EFF00F0E30201212046FFF76AFFF8
:106D8C002B782BB927212046FFF752FF0306F7D5A6
:106D9C002E7070BD90E3032010B50B4B1B78032BAA
:106DAC0004460ED1094B1B7803F0FF014BB9FFF7DA
:106DBC0077FF5A3005DA20460121FFF799FF0120B1
:106DCC0010BD002010BD00BF90E3032050E3032052
:106DDC00154A002310B51370144A1370144A13701B
:106DEC00144A1370144A1370144A1370144A28214D
:106DFC0013600446FFF71CFF43070AD53D212046CC
:106E0C00FFF716FF40F00402D2B23D212046FFF7F7
:106E1C0021FF204625214022FFF71CFF204603219D
:106E2C00BDE81040FFF764BF8FE303204AE3032063
:106E3C0048E3032050E3032049E3032051E30320FC
:106E4C0044E3032010B5044601F01EFD0B4B1A78E9
:106E5C00032A02D10A4A127852B91B78032B02D1A9
:106E6C0001F014FD02E02046FFF7B2FF002010BD38
:106E7C0020460121FFF73CFF012010BD90E30320C9
:106E8C0050E30320002910B50446817214BF0F2271
:106E9C001A221321FFF7DEFEA37A43B111212046FB
:106EAC00FFF7C6FE00F01F0242F0600202E0627AB9
:106EBC0042F0800220461121BDE81040FFF7CABE07
:106ECC002DE9F84389460121044617461D469DF8D5
:106EDC0020609DF82480FFF70BFF27212046FFF749
:106EEC00A7FE0306F9D5002225212046FFF7B2FEA6
:106EFC003D2D204628BF3D25FFF781FE8020FFF762
:106F0C0075FEE81CC0B2FFF771FE4846FFF76EFE37
:106F1C00E079FFF76BFEB8F1000F04D08020FFF78B
:106F2C0065FE3E4604E00EB14020F8E73046F6E739
:106F3C00F31BDBB2AB4204D216F8010BFFF756FE83
:106F4C00F6E72046FFF730FE04212046FFF7D0FE7F
:106F5C0000F01AFB0546607901F0FCFF28B12046D1
:106F6C000121BDE8F843FFF7C3BE00F00DFB401B49
:106F7C00B0F57A7FEFD3F2E72DE9F3410D463D21D1
:106F8C001F4604461646FFF753FE40F00402D2B2E9
:106F9C003D212046FFF75EFE00F0F6FA80462046C3
:106FAC00FFF7FAFE50B900F0EFFAC8EB0000B0F5AD
:106FBC007A7F03D22046FFF745FFF0E700230193C9
:106FCC009DF82030009332463B4629462046FFF779
:106FDC0077FF02B0BDE8F0812DE9F347184B194C4F
:106FEC001E78276888463D2105469146FFF720FE0E
:106FFC0040F00402D2B23D212846FFF72BFE00F0F0
:10700C00C3FAF6B282462846FFF7C6FE50B900F026
:10701C00BBFACAEB0000B0F57A7F03D22846FFF723
:10702C0011FFF0E7002201238DE80C0031464B469E
:10703C0042462846FFF744FF276002B0BDE8F087C0
:10704C004AE3032044E303202DE9F0413D4B1B7838
:10705C00032B044614D12821FFF7EAFD430717D46C
:10706C000EE013783C2B04D81378374ADBB200219E
:10707C00D1542046FFF798FD03212046FFF738FE38
:10708C0000212046FFF70CFE304B1860BDE8F08164
:10709C0001212046FFF72CFE2046FFF7B0FD002013
:1070AC00FFF7A4FD0020FFF7A1FD294D28702B78D8
:1070BC00422B14D82B78DBB200202B70FFF796FDF7
:1070CC00244B227A187032B91A78E179914202D0A5
:1070DC001B78FF2B05D12B78022B02D90BE0422316
:1070EC00EAE7204600232B70FFF75EFD2046BDE843
:1070FC00F041FFF76DBE164B174E1B78124F033B3A
:10710C00DBB200203370FFF771FD144B18700020B8
:10711C00FFF76CFD124A20F07F03DBB2137000F016
:10712C004000104BC0B21870002331780A4ADDB20F
:10713C008D4203F1010894D20020FFF757FD43461E
:10714C007855F2E790E3032052E3032044E3032055
:10715C0050E3032048E303208FE303204AE303209A
:10716C0051E3032049E30320F8B50D460121044601
:10717C00FFF7BEFD8DB12046FFF741FDBE20FFF7A6
:10718C0035FD6E1E05F10F0716F8010FFFF72EFDEA
:10719C00BE42F9D12046FFF707FD3D212046FFF7FF
:1071AC0047FD20F00100002D0CBF024640F001020B
:1071BC00D2B220463D21BDE8F840FFF74BBD0000A0
:1071CC00F0B58FB00D4604460021164603A82A22BE
:1071DC001F4602F0F9FD01238DF80C3003238DF8C6
:1071EC0010308DF8153006238DF8163033238DF8BA
:1071FC00173007238DF8183008238DF81A3009231F
:10720C008DF81C3019238DF81E3025238DF8203075
:10721C0029238DF82230DC238DF823302E238DF892
:10722C00243088238DF825302F238DF826302D23FC
:10723C008DF8273037238DF82A3090238DF82B309A
:10724C0038238DF82C303C23042202218DF82E306B
:10725C008F238DF80D208DF80E108DF811108DF8F0
:10726C001220052140228DF82F303D238DF813205C
:10727C008DF814108DF82120422130228DF83030F9
:10728C0012238DF81F108DF828208DF82D108DF8F5
:10729C0031306F238DF832301F2D4FF0FF038DF8F6
:1072AC0033208DF8343006D02B2D06D0562D0CBF44
:1072BC00D922E42202E04E2200E06C221F2D8DF830
:1072CC00192006D02B2D06D0562D14BFC02200221B
:1072DC0002E0C02200E04022012120798DF81B2021
:1072EC008DF8297001F00CFEFFF768FC00F0EEFB46
:1072FC0000F04AF90546AA222F212046FFF7AAFCE6
:10730C002F212046FFF794FCAA2804D000F03CF96A
:10731C00401B3128EFD900F037F9401B31282DD80C
:10732C0000F032F9054655222F212046FFF792FC3A
:10733C002F212046FFF77CFC552821D000F024F9A2
:10734C00401B3128EFD91BE000212046FFF70CFF32
:10735C00A17A2046FFF796FD01212046FFF7C8FCD5
:10736C0000F012F9054627212046FFF761FC0306C1
:10737C001BD500F009F9401B31281CD9002028E04E
:10738C0000F002F9401B3128F8D80025EBB20EAA08
:10739C0002EB4303013513F82C1CFF29D4D013F84E
:1073AC002B2C2046FFF756FCF0E700F0EDF8401BC5
:1073BC003128D8D9DDE700230093A07906494FF096
:1073CC00FF33012201F038FA0028D7D0034BE671C5
:1073DC001C600FB0F0BD00BF856B0D004CE30320AB
:1073EC0000F012B800F010B808B5024B1B689B688F
:1073FC00019308BD6802030008B5024B1B68DB68EB
:10740C00019308BD6802030008B5024B1B681B689A
:10741C00019308BD2C02030008B5024B1B689B6846
:10742C00019308BD2C02030008B5024B1B68DB68F6
:10743C00019308BD2C02030008B5024B1B681B69A5
:10744C00019308BD2C02030008B5024B1B685B6955
:10745C00019308BD2C02030008B5024B1B689B6905
:10746C00019308BD2C02030008B5024B1B68DB69B5
:10747C00019308BD2C02030008B5024B1B681B6A64
:10748C00019308BD2C02030008B5024B1B685B6A14
:10749C00019308BD2C02030008B5024B1B681B6846
:1074AC00019308BD3002030008B5024B1B689B68B2
:1074BC00019308BD3002030008B5024B1B68DB6862
:1074CC00019308BD3002030008B5024B1B681B6911
:1074DC00019308BD3002030008B5024B1B685B69C1
:1074EC00019308BD3002030008B5024B1B68DB6931
:1074FC00019308BD3002030008B5024B1B681B6AE0
:10750C00019308BD3002030008B5024B1B685B6A8F
:10751C00019308BD3002030008B5024B1B689B6A3F
:10752C00019308BD3002030008B5024B1B689B6B2E
:10753C00019308BD3002030008B5024B1B68DB6BDE
:10754C00019308BD3002030008B5024B1B681B6C8D
:10755C00019308BD3002030008B5024B1B685B6C3D
:10756C00019308BD3002030008B5024B1B685B6831
:10757C00019308BD1802030008B5024B1B681B6978
:10758C00019308BD1802030008B5024B1B685B6928
:10759C00019308BD1802030008B5024B1B68DB6998
:1075AC00019308BD1802030008B5024B1B689B6AC7
:1075BC00019308BD1802030008B5024B1B685B6CF5
:1075CC00019308BD1802030008B5024B1B689B6CA5
:1075DC00019308BD1802030008B5024B1B689B6D94
:1075EC00019308BD1802030008B5024B1B689B6889
:1075FC00019308BD4802030008B5024B1B68DB6809
:10760C00019308BD4802030008B5024B1B681B69B7
:10761C00019308BD4802030008B5024B1B685B6967
:10762C00019308BD4802030008B5024B1B68DB69D7
:10763C00019308BD4802030008B5024B1B681B6A86
:10764C00019308BD4802030008B5024B1B685B6A36
:10765C00019308BD4802030008B5024B1B689B6AE6
:10766C00019308BD4802030008B5024B1B68DB6A96
:10767C00019308BD4802030008B5024B1B685B6C04
:10768C00019308BD4802030008B5024B1B689B6CB4
:10769C00019308BD4802030008B5024B1B681B6F21
:1076AC00019308BD4802030008B5024B1B685B69D7
:1076BC00019308BD6402030008B5024B1B681B68EC
:1076CC00019308BD3C02030008B5024B1B68DB6844
:1076DC00019308BD3C02030008B5024B1B681B69F3
:1076EC00019308BD3C02030008B5024B1B685B69A3
:1076FC00019308BD3C02030008B5024B1B689B6953
:10770C00019308BD3C02030008B5024B1B68DB6902
:10771C00019308BD3C02030008B5024B1B681B6AB1
:10772C00019308BD3C02030008B5024B1B689B6A21
:10773C00019308BD3C02030008B5024B1B689B6912
:10774C00019308BD2802030008B5024B1B68DB69D6
:10775C00019308BD2802030008B5024B1B681B6A85
:10776C00019308BD2802030008B5024B1B685B6A35
:10777C00019308BD2802030008B5024B1B689B6AE5
:10778C00019308BD2802030008B5024B1B68DB6A95
:10779C00019308BD2802030008B5024B1B681B6B44
:1077AC00019308BD2802030008B5024B1B685B6BF4
:1077BC00019308BD2802030008B5024B1B681B6C23
:1077CC00019308BD2802030008B5024B1B689B6C93
:1077DC00019308BD2802030008B5024B1B68DB6C43
:1077EC00019308BD2802030008B5024B1B681B6DF2
:1077FC00019308BD2802030008B5024B1B685B6CA3
:10780C00019308BD7402030008B5024B1B681B688A
:10781C00019308BD4C02030008B5024B1B685B6862
:10782C00019308BD4C02030008B5024B1B681B6991
:10783C00019308BD4C02030008B5024B1B685B6941
:10784C00019308BD4C02030008B5024B1B689B69F1
:10785C00019308BD4C02030008B5024B1B68DB69A1
:10786C00019308BD4C02030008B5024B1B681B6A50
:10787C00019308BD4C02030008B5024B1B681B6842
:10788C00019308BD2002030008B5024B1B685B681E
:10789C00019308BD2002030008B5024B1B685B690D
:1078AC00019308BD2002030008B5024B1B68DB6A7C
:1078BC00019308BD2002030008B5024B1B689B6DA9
:1078CC00019308BD2002030008B5034B1B68D3F8D5
:1078DC008830019308BD00002002030008B5034B5B
:1078EC001B68D3F89430019308BD000020020300FC
:1078FC0008B5024B1B685B68019308BD400203008E
:10790C0008B5024B1B689B68019308BD400203003D
:10791C0008B5024B1B68DB68019308BD40020300ED
:10792C0008B5024B1B681B69019308BD400203009C
:10793C0008B5024B1B685B69019308BD400203004C
:10794C0008B5024B1B689B69019308BD40020300FC
:10795C0008B5024B1B68DB69019308BD40020300AC
:10796C0008B5024B1B681B6A019308BD400203005B
:10797C0008B5024B1B681B6B019308BD400203004A
:10798C0008B5024B1B685B6B019308BD40020300FA
:10799C0008B5024B1B689B68019308BD44020300A9
:1079AC0008B5024B1B685B69019308BD44020300D8
:1079BC0008B5024B1B68DB6A019308BD4402030047
:1079CC0008B5024B1B681B6B019308BD44020300F6
:1079DC0008B5024B1B68DB6B019308BD4402030026
:1079EC0008B5024B1B681B68019308BD1C02030001
:1079FC0008B5024B1B685B68019308BD1C020300B1
:107A0C0008B5024B1B689B68019308BD1C02030060
:107A1C0008B5024B1B68DB68019308BD1C02030010
:107A2C0008B5024B1B685B6A019308BD1C0203007E
:107A3C00002211464068FFF793BF002211464068B0
:107A4C00FFF79EBF00224068FFF792BF002281F033
:107A5C0001014068FFF77CBF00231A4619464068B5
:107A6C00FFF76EBF00231A4619464068FFF760BF48
:107A7C00002211464068FFF753BF002211464068B0
:107A8C00FFF73EBF002202214068FFF741BF0023F1
:107A9C001A464068FFF72CBF024B03225A60024A79
:107AAC001A60704794E303207CA10D000021FFF7BE
:107ABC004BBD0021FFF750BD10B5044601700846C0
:107ACC00FFF712FD00236360204610BD10B504467D
:107ADC000078FFF7EBFF48B920784FF6FF71FFF7FE
:107AEC00DBFC2078BDE81040FFF7E3BF10BD38B5D4
:107AFC00044600780D46FFF7D9FF40B92078294697
:107B0C00FFF7D2FC2078BDE83840FFF7D2BF38BD74
:107B1C0038B5044600780D46FFF7C8FF40B9207809
:107B2C002946FFF7C9FC2078BDE83840FFF7C1BFF4
:107B3C0038BD0078FFF7BDBF400830B51860002491
:107B4C0018688842E5B206D90134082C02D04008E6
:107B5C001860F5E70725024B5B5D137030BD00BF65
:107B6C00A8A10D002DE9F04307468FB000780E4612
:107B7C00FFF79CFF002862DB3C781422002109A847
:107B8C0002F022F90B232046002209A9ADF824307B
:107B9C00FFF7BAFC9DF82D4054B19DF82C5035B927
:107BAC00DDF830809DF834909DF8354003E00024DA
:107BBC00A146A0460125337905B1BBB99D420BD135
:107BCC00B268424508D18DF820908DF82140BDF85F
:107BDC002010B289914209D053B100243878019415
:107BEC000094234622460121FFF7A6FC002026E044
:107BFC008DF80F30B1680A9804AB0DF10F02FFF746
:107C0C009BFF317905B1B1B9A94208D0002438786D
:107C1C000194747B337B9DF80F200094E4E7B368E8
:107C2C004345F3D38DF820908DF82140BDF82020EA
:107C3C00B3899A42EAD1049B4345E7D1D6E70FB00A
:107C4C00BDE8F0832DE9F04188B0002304460078AC
:107C5C0002930E461746FFF729FF054600BB94F822
:107C6C0000800146142203A802F0AEF80B232A462A
:107C7C0003A94046ADF80C30FFF746FC02AB0DF102
:107C8C00070207FB06F104988DF80750FFF754FF25
:107C9C0020789DF80710FFF717FC2078FFF709FFF5
:107CAC00029808B0BDE8F08138B5044600780D465E
:107CBC00FFF7FCFEC8B9616871B10C4BC25CAA42FB
:107CCC0002D001300828F9D10130C0B2C1400122E4
:107CDC002046FFF7B7FF03E029462078FFF7F4FBB7
:107CEC002078BDE83840FFF7E4BE38BDA8A10D00F0
:107CFC0008B50078FFF7F0FBC0B208BD30B587B00F
:107D0C0004460A9D00780095FFF706FC3DB902A9D0
:107D1C002078FFF709FC9DF81430DB07F7D407B087
:107D2C0030BD0078FFF7E8BB10B50446006818B109
:107D3C00FFF75EFE0023236010BD10B50446FFF76D
:107D4C00F3FF204610BD000010B5094C00204FF683
:107D5C00FF732060A080A07120816381FFF794FDE8
:107D6C002046044A0449BDE8104001F09BB900BF0D
:107D7C009CE303209CDD0320477D0D0010B50446D9
:107D8C0002F08CF8013823182046984206D202786B
:107D9C00197800F8011B03F80129F6E710BD70B53E
:107DAC000C46911E222920D82546294610B9234479
:107DBC0030220EE0B0FBF2F602FB1600C1B205F861
:107DCC00011B092894BF3031573105F8011C30468E
:107DDC00EBE7994202D201F8012BFAE70023204687
:107DEC000B70FFF7CBFF204670BD002070BD08B5AF
:107DFC000123FFF7D4FF08BD10B504460068FFF758
:107E0C00F7FD204610BD10B50446006808B1FFF719
:107E1C00EFFD00232360A360636010BD38B50446FA
:107E2C000D4600680131FFF7EBFD10B184E821002D
:107E3C00012038BD10B50368044613B143688B426A
:107E4C0007D22046FFF7EAFF20B1A3680BB92268DE
:107E5C001370012010BD70B50E4611460446154630
:107E6C00FFF7E8FF18B92046FFF7CDFF09E02A46D7
:107E7C003146A560206801F09CFF2268A3680021B0
:107E8C00D154204670BD38B50023044603604360CE
:107E9C00836003730D4639B1084601F0FFFF294694
:107EAC0002462046FFF7D7FF204638BD38B50546B9
:107EBC000C4641B1084601F0F1FF21460246284626
:107ECC00FFF7C9FF01E0FFF79EFF284638BD1FB53D
:107EDC000446002323606360A3602373084601A952
:107EEC00FFF785FF01A92046FFF7E0FF204604B00D
:107EFC0010BD10B50446006808B1FFF7C5FB20465D
:107F0C0010BD000010B5064C002320462360FFF77F
:107F1C00B3FB2046034A0449BDE8104001F0C2B847
:107F2C00A8E303209CDD0320FF7E0D00F8B5064678
:107F3C000D468F180024BD420CD0336815F8011B78
:107F4C009B6830469847002801DB0444F3E7002C7B
:107F5C0008BF04462046F8BD08B5FEF75DF808BD1D
:107F6C0003689B68184738B50D210546FFF7F8FFE5
:107F7C000A2104462846FFF7F3FF204438BD38B5E4
:107F8C000546FEF749F804462846FFF7ECFF204467
:107F9C0038BD30B58BB00B4600218DF82410012A6A
:107FAC0098BF0A220DF12304B3FBF2F505FB123343
:107FBC0003F0FF03092B94BF30333733DBB2214678
:107FCC0004F801392B46002DEED1FEF725F80BB045
:107FDC0030BD00002DE9F04757EC106B82460D4682
:107FEC0010EE102A3B4610EE100A394601F016FE30
:107FFC0008B14E4912E027F000494FF0FF324C4BCC
:10800C003046494601F00AFE68B94FF0FF32484B42
:10801C003046494601F0E4FD28B946495046FDF783
:10802C00FBFFBDE8F0874FF06042434B30463946CA
:10803C0001F0EAFD08B14149F0E74FF06042404BD6
:10804C003046394601F0C2FD0028F4D1002200234D
:10805C003046394601F0BAFD40B12D215046FFF7AC
:10806C007FFF07F1004304461F4600E004463549F4
:10807C004FF0000800205FFA88F39D4206D90022D9
:10808C00314B01F05BFC08F10108F4E732463B464A
:10809C0001F078F90F46064601F0FEFD0A22014672
:1080AC0080465046FFF775FF0444E5B3404601F0A7
:1080BC00A5FA02460B463046394601F061F90646F0
:1080CC000F4650462149FDF7A7FF044400221E4BE2
:1080DC003046394601F008FB06460F4601F0B4FD68
:1080EC00B0F1000907DA2D215046FFF739FFC9F12D
:1080FC000001804602E049464FF000080A22504633
:10810C00FFF747FF40440444484601F087FA024613
:10811C000B463046394601F033F9013D15F0FF05A9
:10812C0006460F46D2D12046BDE8F087B0A10D001F
:10813C00FFFFEF7FBAA10D00FFFFEF41B4A10D00CF
:10814C00FFFFEFC10000E03F00002440B8A10D008C
:10815C0038B5C9B20546FFF73DFF04462846FFF780
:10816C0002FF204438BD38B5044610EE100A0D4607
:10817C0001F066FA41EC100B29462046BDE8384068
:10818C00FFF7E6BF0CB42DE9F04387B000AF07F161
:10819C003804054654F8049B3C600E4623464A4678
:1081AC001421381DFFF73CFC132805D8391D28462F
:1081BC00FDF732FF044613E000F1080323F0070338
:1081CC00E846ADEB030D411C23464A4668463C602D
:1081DC00FFF726FC69462846FDF71EFF0446C546F8
:1081EC001EB12846FFF7BFFE044420461C37BD468F
:1081FC00BDE8F04302B07047014B024A1A60704769
:10820C00ACE3032031A20D0008B50020FFF7D8FB2A
:10821C0028B1FFF7C5FB80F00100C0B208BD0120FA
:10822C0008BD10B50020FFF7D7F9044668B9FFF771
:10823C0023FB01280BD12046FFF73EFB38B9FFF793
:10824C00E3FF30B9FFF7A4FBF9E7012010BD0020D4
:10825C0010BDFFF7D9FF0020FFF7BEF9003018BFA3
:10826C00012010BD08B5FFF7DCFFBDE80840FFF7A3
:10827C0093B90000024B1A68024B1A60704700BF9A
:10828C0034DD0320B0E303200021FFF705BB10B55C
:10829C000446FCF7B1FA204610BD00000348044A1E
:1082AC0004490023836000F0FDBE00BFB4E303204B
:1082BC009CDD03209B820D00007D7047037D1BB16C
:1082CC008369B3F1004F02D19FED050A704707EEA9
:1082DC00903A9FED047AF8EEE77A87EE870A7047BA
:1082EC00000000000000C842037D1BB1036AB3F11B
:1082FC00004F02D19FED050A704707EE903A9FEDB3
:10830C00047AF8EEE77A87EE870A704700000000DF
:10831C000000C842037D7BB1436A002B0CDB07EEE7
:10832C00903ADFED076A9FED070AB8EEE77AC7EEE1
:10833C00267A27EE800A7047BFEE000A704700BF0E
:10834C0000FF7F470000C842037D7BB1C369002B4F
:10835C000CDB07EE903ADFED076A9FED070AB8EEEB
:10836C00E77AC7EE267A27EE800A7047BFEE000A3E
:10837C00704700BF00FF7F470000C84230B50D4674
:10838C0000F110040FCD0FC495E8030084E803003E
:10839C00012030BD2DE9F04107460C4615462AB99F
:1083AC000368C9B29B68BDE8F0411847002907DA99
:1083BC000A2A05D12D21FFF7D3FD6142064601E0C3
:1083CC0021460026EAB23846FFF7E3FD3044BDE80B
:1083DC00F08170B50D4606460A2281682846FFF7E3
:1083EC00D9FF2C2104462846FFF7BAFD0A22044483
:1083FC00F1682846FFF7CEFF204470BDA0F10400C1
:10840C00FFF7E7BF090941EA001007EE900AB8EE42
:10841C00E70ADFED027A80EE270A70470000484435
:10842C00006800F0B8BB10B50446016002710AB1D7
:10843C00FFF7F6FF204610BD38B504460D4600F098
:10844C000BFE2A4601462046FFF7EDFF204638BDBD
:10845C00006800F0A9BB10B5037904460BB1FFF717
:10846C00F7FF204610BDF8B5044616461D460F46CC
:10847C00FFF7D6FF2068362100F082FB20680368E6
:10848C0039469B6898470121206800F07CFB02224A
:10849C0036210123206800F05DFB206803685B69CE
:1084AC0098473070206803685B69984728702046AD
:1084BC00BDE8F840FFF7CCBF07B502AB00228DF842
:1084CC00062003F8012D02210DF10602FFF7CBFF68
:1084DC009DF807109DF8060003B05DF804EBFFF75C
:1084EC0091BF000007B502AB002203F8012D8DF8F7
:1084FC00062004210DF10602FFF7B5FF9DF80700D9
:10850C0001F08CF80022094B01F0EEF801F0E4FBCD
:10851C009DF8063000EE103A07EE900AB8EEC00A4D
:10852C0037EE800A03B05DF804FB00BF0000703F1B
:10853C0008B50C4B33B100F057F903681B69984729
:10854C00002809DC084B63B100F084FA03681B694E
:10855C009847002803DC08BDAFF30080F2E7AFF3C7
:10856C00008008BD000000000000000008B5FFF707
:10857C00DFFFFFF709F8014B186008BD10E7032077
:10858C000248034A0349121A01F013BC00F40320F9
:10859C0004F4032040A50D0007B5002300931A46F0
:1085AC006FF07701FFF79AF903B05DF804FB000058
:1085BC0007B543880A2B08D0502B09D1094B1B68EF
:1085CC003BB103B05DF804EB1847FFF7E5FF06E09D
:1085DC00002300931A466FF07701FFF77FF903B081
:1085EC005DF804FBC4E3032038B5104C104D236830
:1085FC00AB42104B0CBF012200221A7002D0FFF7C5
:10860C00BFFF2560FEF7B0FF044601F0E5FB0A4B07
:10861C0013B12046AFF3008000210748FFF7D8F9CB
:10862C0000210648BDE83840FFF74EB900F403209E
:10863C001E1C279AC8E3032000000000BD850D0016
:10864C00704710B51821044600F03AFD204610BDC5
:10865C00F0B5037D062B8DB00E4600F104074FF0EC
:10866C00000402D000F1080518E00CAD394605F8FD
:10867C00304D2F232A460A20FFF716F8284601F022
:10868C000DFC33680246DB682946304698470FE0FC
:10869C0024B12E213046FFF763FC044415F8011D6C
:1086AC000A223046FFF775FCBD420444F0D1204647
:1086BC000DB0F0BD10B5054B0446112240F8043B3B
:1086CC00002101F081FB204610BD00BF04A30D006A
:1086DC000346074A10B543F8042B01F1100251F878
:1086EC00044B43F8044B9142F9D10A781A7010BD2F
:1086FC0004A30D0010B59DF8084044EA032343EA97
:10870C00024242EA016104234160037510BD37B592
:10871C000D788B784A78C97800912946FFF7EAFFE3
:10872C0003B030BD41747047704708B50021007C20
:10873C00FFF78AF830EA200028BF4FF0FF3008BD61
:10874C0008B50121007CFFF77FF830EA200028BF34
:10875C004FF0FF3008BD08B5007CFFF76DF820EA3C
:10876C00E07008BD08B5007CFFF75EF820EAE07009
:10877C0008BD007CFFF778B810B51421044600F052
:10878C009FFC204610BD38B50446007C0D46FFF713
:10879C0053F8002801DC607C28B12946207CFFF7C7
:1087AC005BF820EAE07038BD10B504460023636026
:1087BC004FF47A73A360054B2360012308462174A0
:1087CC0063741146FFF720F8204610BD18A30D0066
:1087DC000022007CFFF720B810B5142204460021BB
:1087EC0001F0F2FA204610BD30B50E4D87B001A84D
:1087FC00FFF7F2FF296811F0010410D12846FBF7AE
:10880C0048FC60B101AA21460748FFF7CDFF284676
:10881C00FBF744FC054A0649034800F043FC0248B8
:10882C0007B030BDCCE30320D0E303209CDD032054
:10883C0035870D0000470000F0B585B01C460E468C
:10884C0017460546FEF710FE002084424FF0040345
:10885C0003908DF80C30A5BF9DF828308DF80E30A4
:10886C00034603AB009332463B460649A8BF8DF83E
:10887C000D402846FEF7F0FDB0FA80F0400905B037
:10888C00F0BD00BF41880D00FEF7FEBDFEF7F4BD44
:10889C00002211464068FFF743B800221146406899
:1088AC00FFF75EB8002211464068FFF769B8002256
:1088BC004068FFF75DB8002281F001014068FFF7C6
:1088CC0047B800231A4619464068FFF739B8002309
:1088DC001A4619464068FFF72BB80022114640682B
:1088EC00FFF70EB8002202214068FFF711B80023F1
:1088FC001A464068FEF7FCBFF0B51B4B0360002521
:10890C000F462833182689B043608560C56032460F
:10891C0029460446103001F057FA2A462946786851
:10892C00FEF7FEFF08B9A0601BE02946324602A8FC
:10893C000095019501F048FA02A96846ADF8086067
:10894C00FEF75AFF10B10123A3600AE0009B019AC5
:10895C00A360E2600BB90223A36002A92046FFF7D3
:10896C000DFD204609B0F0BDD0A20D0038B5084C65
:10897C0028252A460021204601F026FA4FF0FF3325
:10898C006360044B258004225A60034A1A6038BD88
:10899C00ECE30320E4E3032048A30D00704741748B
:1089AC00704708B5007CFEF7BFFE20EAE07008BDFA
:1089BC0008B5007CFEF790FE20EAE07008BD08B513
:1089CC00007CFEF799FE30EA200028BF4FF0FF3004
:1089DC0008BD08B5007CFEF787FE30EA200028BFF2
:1089EC004FF0FF3008BD007CFEF78EBE10B5142191
:1089FC00044600F065FB204610BD70B5457C04466E
:108A0C000E4625B9007CFEF78FFE002805DD3146A9
:108A1C00207CBDE87040FEF757BE284670BD0000B4
:108A2C0010B5044608461146002262604FF47A7273
:108A3C00A260054A22600122207462741A46FEF775
:108A4C003BFE204610BD00BF7CA30D00007CFEF752
:108A5C0063BE000038B50C4D296811F0010411D12A
:108A6C002846FBF716FB68B1084A094B0948214612
:108A7C00FFF7D6FF2846FBF711FB074A07490548C5
:108A8C0000F010FB034838BDACE40320B0E4032035
:108A9C0028E4032014E403209CDD0320A9890D00A5
:108AAC007047F8B5064615460C468F18BC4206D0E2
:108ABC00336814F8011B9B6830469847F6E7284644
:108ACC00F8BD0022007CFEF747BE0021007CFEF7BB
:108ADC004BBE0021007CFEF74FBE0021007CFEF750
:108AEC0053BE0021007CFEF757BE10B5142104467E
:108AFC0000F0E6FA204610BD10B504460023636072
:108B0C004FF47A73A360044B21740846236011461A
:108B1C00FEF752FE204610BDACA30D0070B50C46FE
:108B2C0086B0142506462A46002101A801F04CF90E
:108B3C0023788DF8083063680393E368049300226C
:108B4C00237A307CADF8045001A90593FEF74CFE56
:108B5C0006B070BD1FB500338DF800104FF06401E6
:108B6C00039118BF0123694601928DF80830FFF775
:108B7C00D5FF05B05DF804FB0022007CFEF7DCBDE0
:108B8C00C9B2FFF7F9BF0022007CFEF7DDBD002162
:108B9C00007CFEF709BE08B50021007CFEF714FE30
:108BAC00B0FA80F0400908BD08B50021007CFEF742
:108BBC0013FEB0FA80F0400908BD10B5044630B180
:108BCC0001F032F990FBF4F303FB140010BD10BD5F
:108BDC00002211464068FEF7C3BE002211464068D1
:108BEC00FEF7CEBE00224068FEF7C2BE002281F026
:108BFC0001014068FEF7ACBE00231A460121406813
:108C0C00FEF79EBE00231A4619464068FEF790BE3A
:108C1C00002211464068FEF783BE002211464068D0
:108C2C00FEF76EBE002202214068FEF771BE0023E3
:108C3C001A464068FEF75CBE38B5054688B1046834
:108C4C004CB1A3681BB10322214620469847102142
:108C5C00204600F035FA28461421BDE8384000F0D3
:108C6C002FBA38BD10B103685B681847704710B550
:108C7C0003680446BBB15868FEF7B6FC78B92368A4
:108C8C005A7C12B95868FEF7BFFC23685868FEF787
:108C9C00C3FC20680023236028B1FFF7CDFF2068B8
:108CAC0008B1FFF7C9FF204610BD38B50446D0F80F
:108CBC00C40108B1FBF7EBF9D4F8C00108B1FEF719
:108CCC00E3FCD4F8BC5135B12846FFF7D0FF0421A2
:108CDC00284600F0F5F9206808B1FFF7C3FF2046DD
:108CEC0038BD000010B5044B044640F8083BFFF7B4
:108CFC00DCFF204610BD00BFD4A30D0038B50E4CD0
:108D0C000E4B23600025022304F5E4706360A5601C
:108D1C00C4F8C451C4F8C851FEF7AEFC084BC4F8F3
:108D2C00CC5184F8D05123602046064A0649BDE850
:108D3C00384000F0B7B900BF34E5032008A40D009B
:108D4C00D4A30D009CDD0320F18C0D0000231A46EA
:108D5C004068FEF7CDBD002202214068FEF7D8BD69
:108D6C00002211464068FEF7CBBD00221146406838
:108D7C00FEF7D6BD00231A4619464068FEF7D8BD4B
:108D8C0000231A4619464068FEF7DABD002281F02E
:108D9C0001014068FEF7DCBD00224068FEF7E8BD2B
:108DAC00002211464068FEF7EBBD002211464068D8
:108DBC00FEF7D6BD2DE9F043002495B016460D46BE
:108DCC000746FFF777FC214620220CA8009400F000
:108DDC00FBFF40230C9321466B460CAA3046FEF752
:108DEC000BFB0446002844D1024601216868FEF7BB
:108DFC0097FD0221804622466868FEF791FD009E91
:108E0C0081462146002E34D0002932D17368022BC2
:108E1C0002D00A2B09D02AE0B8F1000F27D07169D3
:108E2C0038460431FFF773FC20E0B9F1000F1ED077
:108E3C007469112201A800F0C7FF06238DF81430C5
:108E4C0001AD04F108031834186859682A4603C2A6
:108E5C000833A3421546F7D101A906A807ADFFF7C1
:108E6C0037FC0FCD3C1D0FC42B6823700121F66914
:108E7C00C8E70098FEF7B8FA384615B0BDE8F0839D
:108E8C00024B034A1A6000225A60704708E703201D
:108E9C0008A40D0070B5184E316811F00105044698
:108EAC000AD13046FBF7F5F830B129461348FEF7E6
:108EBC0003FE3046FBF7F2F81048FEF732FF28B1FC
:108ECC00A4F10B03022B01D8002070BD00F09EF81A
:108EDC00FFF75DFE08B1012CF6D9FFF7BBFDFFF7DC
:108EEC00B5FD18B1A4F10903012BEDD9232C8CBFCE
:108EFC000020012070BD00BF08DE03200CDE032023
:108F0C00232838B504460D460AD8FF2908D0FFF7A8
:108F1C00C1FF28B129462046BDE83840FEF77CBA8F
:108F2C0038BD38B504460D46FEF77EFAFF2810D042
:108F3C00062804D84D2323FA00F0C30709D4204691
:108F4C00FFF7A8FF28B129462046BDE83840FEF7B8
:108F5C0073BA38BD10B50446FEF766FA0438C0B2D1
:108F6C00012808D92046FFF795FF20B12046BDE81F
:108F7C001040FEF769BA002010BD000010B5074C78
:108F8C002368DB0708D42046FBF783F820B1FEF7F3
:108F9C000BFB2046FBF782F8014810BD14E70320B9
:108FAC0018E7032070B5044614252A46094E002103
:108FBC0000F00AFF258020253146A5602561284652
:108FCC0000F080F831466060284600F07BF8E060E5
:108FDC00204670BD34A40D0070B5044614252A46F5
:108FEC00094E002100F0F0FE258020253146A560B9
:108FFC002561284600F066F831466060284600F08E
:10900C0061F8E060204670BD34A40D0030B50E4D03
:10901C00296811F0010487B013D12846FBF739F801
:10902C0078B101A8FFF7BEFF01AA21460748FFF758
:10903C0063FD2846FBF732F8054A0649034800F061
:10904C0031F8024807B030BD1CE7032034E7032099
:10905C009CDD0320AD8A0D0010B50E4C2368DB0798
:10906C0086B013D42046FBF714F878B101A8FFF7AB
:10907C00B3FF01AA01210848FFF73EFD2046FBF78C
:10908C000DF8064A0649044800F00CF8024806B0F0
:10909C0010BD00BF48E7032020E703209CDD032020
:1090AC00AD8A0D000B460146184600F065BE000067
:1090BC00024B1868BFF35F8F704700BF4CE703206B
:1090CC00FAF7E3BF00F000B810B5002814BF04464F
:1090DC0001242046FEF784FC20B9FFF7E9FF08B114
:1090EC008047F6E710BD0000184B1A68D1075CBF2B
:1090FC0001221A60164B1A68D2075CBF01221A6053
:10910C00144B1A68D0075CBF01221A60124B1A6804
:10911C00D1075CBF01221A60104B1A68D2075CBFE2
:10912C0001221A600E4B1A68D0075CBF01221A602C
:10913C000C4B1A68D1075CBF01221A600A4B1A68E3
:10914C00D2075CBF01221A60704700BF6CE7032096
:10915C0068E7032064E7032060E703205CE7032053
:10916C0058E7032054E7032050E70320244B1A68E8
:10917C00D0075CBF01221A60224B1A68D1075CBF72
:10918C0001221A60204B1A68D2075CBF01221A60B8
:10919C001E4B1A68D0075CBF01221A601C4B1A6860
:1091AC00D1075CBF01221A601A4B1A68D2075CBF48
:1091BC0001221A60184B1A68D0075CBF01221A6092
:1091CC00164B1A68D1075CBF01221A60144B1A683F
:1091DC00D2075CBF01221A60124B1A68D0075CBF21
:1091EC0001221A60104B1A68D1075CBF01221A6069
:1091FC000E4B1A68D2075CBF01221A60704700BF81
:10920C009CE7032098E7032094E7032090E70320D2
:10921C008CE7032088E7032084E7032080E7032002
:10922C007CE7032078E7032074E7032070E7032032
:10923C00244B1A68D0075CBF01221A60224B1A68B3
:10924C00D1075CBF01221A60204B1A68D2075CBFA1
:10925C0001221A601E4B1A68D0075CBF01221A60EB
:10926C001C4B1A68D1075CBF01221A601A4B1A6892
:10927C00D2075CBF01221A60184B1A68D0075CBF7A
:10928C0001221A60164B1A68D1075CBF01221A60C2
:10929C00144B1A68D2075CBF01221A60124B1A6871
:1092AC00D0075CBF01221A60104B1A68D1075CBF53
:1092BC0001221A600E4B1A68D2075CBF01221A6099
:1092CC00704700BFCCE70320C8E70320C4E70320A6
:1092DC00C0E70320BCE70320B8E70320B4E7032072
:1092EC00B0E70320ACE70320A8E70320A4E70320A2
:1092FC00A0E70320184B1A68D1075CBF01221A6043
:10930C00164B1A68D2075CBF01221A60144B1A68FC
:10931C00D0075CBF01221A60124B1A68D1075CBFE0
:10932C0001221A60104B1A68D2075CBF01221A6026
:10933C000E4B1A68D0075CBF01221A600C4B1A68DE
:10934C00D1075CBF01221A600A4B1A68D2075CBFB6
:10935C0001221A60704700BFECE70320E8E7032006
:10936C00E4E70320E0E70320DCE70320D8E7032051
:10937C00D4E70320D0E7032081F0004102E000BFD6
:10938C0083F0004330B54FEA41044FEA430594EAB9
:10939C00050F08BF90EA020F1FBF54EA000C55EAF4
:1093AC00020C7FEA645C7FEA655C00F0E2804FEAC5
:1093BC005454D4EB5555B8BF6D420CDD2C4480EAA7
:1093CC00020281EA030382EA000083EA010180EAD7
:1093DC00020281EA0303362D88BF30BD11F0004F25
:1093EC004FEA01314FF4801C4CEA113102D040425B
:1093FC0061EB410113F0004F4FEA03334CEA133396
:10940C0002D0524263EB430394EA050F00F0A780AD
:10941C00A4F10104D5F1200E0DDB02FA0EFC22FAA8
:10942C0005F2801841F1000103FA0EF2801843FA9C
:10943C0005F359410EE0A5F120050EF1200E012A8D
:10944C0003FA0EFC28BF4CF0020C43FA05F3C018CB
:10945C0051EBE37101F0004507D54FF0000EDCF144
:10946C00000C7EEB00006EEB0101B1F5801F1BD3ED
:10947C00B1F5001F0CD349085FEA30004FEA3C0CF1
:10948C0004F101044FEA445212F5800F80F09A80E7
:10949C00BCF1004F08BF5FEA500C50F1000041EBEB
:1094AC00045141EA050130BD5FEA4C0C404141EBEF
:1094BC00010111F4801FA4F10104E9D191F0000F16
:1094CC0004BF01460020B1FA81F308BF2033A3F199
:1094DC000B03B3F120020CDA0C3208DD02F1140C90
:1094EC00C2F10C0201FA0CF021FA02F10CE002F1CB
:1094FC001402D8BFC2F1200C01FA02F120FA0CFCC4
:10950C00DCBF41EA0C019040E41AA2BF01EB04510C
:10951C00294330BD6FEA04041F3C1CDA0C340EDC0A
:10952C0004F11404C4F1200220FA04F001FA02F34D
:10953C0040EA030021FA04F345EA030130BDC4F10B
:10954C000C04C4F1200220FA02F001FA04F340EA00
:10955C000300294630BD21FA04F0294630BD94F0B1
:10956C00000F83F4801306BF81F480110134013D98
:10957C004EE77FEA645C18BF7FEA655C29D094EA09
:10958C00050F08BF90EA020F05D054EA000C04BF87
:10959C001946104630BD91EA030F1EBF0021002072
:1095AC0030BD5FEA545C05D14000494128BF41F011
:1095BC00004130BD14F580043CBF01F5801130BD75
:1095CC0001F0004545F0FE4141F470014FF0000000
:1095DC0030BD7FEA645C1ABF194610467FEA655CB1
:1095EC001CBF0B46024650EA013406BF52EA033553
:1095FC0091EA030F41F4002130BD00BF90F0000F41
:10960C0004BF0021704730B54FF4806404F132047C
:10961C004FF000054FF0000150E700BF90F0000F35
:10962C0004BF0021704730B54FF4806404F132045C
:10963C0010F0004548BF40424FF000013EE700BF2C
:10964C0042004FEAE2014FEA31014FEA02701FBFBC
:10965C0012F07F4393F07F4F81F06051704792F08E
:10966C00000F14BF93F07F4F704730B54FF4607408
:10967C0001F0004521F0004120E700BF50EA010253
:10968C0008BF704730B54FF000050AE050EA010200
:10969C0008BF704730B511F0004502D5404261EB70
:1096AC0041014FF4806404F132045FEA915C3FF4B1
:1096BC00DCAE4FF003025FEADC0C18BF03325FEA4A
:1096CC00DC0C18BF033202EBDC02C2F1200300FAFF
:1096DC0003FC20FA02F001FA03FE40EA0E0021FA24
:1096EC0002F11444C1E600BF70B54FF0FF0C4CF40E
:1096FC00E06C1CEA11541DBF1CEA135594EA0C0FC4
:10970C0095EA0C0F00F0DEF82C4481EA030621EAFE
:10971C004C5123EA4C5350EA013518BF52EA033539
:10972C0041F4801143F4801338D0A0FB02CE4FF0EB
:10973C000005E1FB02E506F00042E0FB03E54FF01B
:10974C000006E1FB03569CF0000F18BF4EF0010E13
:10975C00A4F1FF04B6F5007F64F5407404D25FEA0F
:10976C004E0E6D4146EB060642EAC62141EA5551C2
:10977C004FEAC52040EA5E504FEACE2EB4F1FD0C04
:10978C0088BFBCF5E06F1ED8BEF1004F08BF5FEA82
:10979C00500E50F1000041EB045170BD06F0004634
:1097AC0046EA010140EA020081EA0301B4EB5C04E1
:1097BC00C2BFD4EB0C0541EA045170BD41F48011D9
:1097CC004FF0000E013C00F3AB8014F1360FDEBFFE
:1097DC00002001F0004170BDC4F10004203C35DADA
:1097EC000C341BDC04F11404C4F1200500FA05F35D
:1097FC0020FA04F001FA05F240EA020001F00042FE
:10980C0021F0004110EBD37021FA04F642EB060173
:10981C005EEA430E08BF20EAD37070BDC4F10C049D
:10982C00C4F1200500FA04F320FA05F001FA04F261
:10983C0040EA020001F0004110EBD37041F100014D
:10984C005EEA430E08BF20EAD37070BDC4F1200558
:10985C0000FA05F24EEA020E20FA04F301FA05F2C0
:10986C0043EA020321FA04F001F0004121FA04F268
:10987C0020EA020000EBD3705EEA430E08BF20EA38
:10988C00D37070BD94F0000F0FD101F00046400072
:10989C0041EB010111F4801F08BF013CF7D041EAF4
:1098AC00060195F0000F18BF704703F000465200F8
:1098BC0043EB030313F4801F08BF013DF7D043EAC9
:1098CC000603704794EA0C0F0CEA135518BF95EA7F
:1098DC000C0F0CD050EA410618BF52EA4306D1D106
:1098EC0081EA030101F000414FF0000070BD50EA25
:1098FC00410606BF1046194652EA430619D094EAAF
:10990C000C0F02D150EA013613D195EA0C0F05D198
:10991C0052EA03361CBF104619460AD181EA0301EC
:10992C0001F0004141F0FE4141F470014FF00000A4
:10993C0070BD41F0FE4141F4780170BD70B54FF03F
:10994C00FF0C4CF4E06C1CEA11541DBF1CEA1355BF
:10995C0094EA0C0F95EA0C0F00F0A7F8A4EB0504A1
:10996C0081EA030E52EA03354FEA013100F0888098
:10997C004FEA03334FF0805545EA131343EA126361
:10998C004FEA022245EA111545EA10654FEA002616
:10999C000EF000419D4208BF964244F1FD0404F5CF
:1099AC00407402D25B084FEA3202B61A65EB03052B
:1099BC005B084FEA32024FF480104FF4002CB6EBE8
:1099CC00020E75EB030E22BFB61A754640EA0C0068
:1099DC005B084FEA3202B6EB020E75EB030E22BFA8
:1099EC00B61A754640EA5C005B084FEA3202B6EBE9
:1099FC00020E75EB030E22BFB61A754640EA9C00A8
:109A0C005B084FEA3202B6EB020E75EB030E22BF77
:109A1C00B61A754640EADC0055EA060E18D04FEA35
:109A2C00051545EA16754FEA06164FEAC30343EAD5
:109A3C0052734FEAC2025FEA1C1CC0D111F4801FA2
:109A4C000BD141EA00014FF000004FF0004CB6E79B
:109A5C0011F4801F04BF01430020B4F1FD0C88BF3A
:109A6C00BCF5E06F3FF6AFAEB5EB030C04BFB6EB45
:109A7C00020C5FEA500C50F1000041EB045170BD38
:109A8C000EF0004E4EEA113114EB5C04C2BFD4EB65
:109A9C000C0541EA045170BD41F480114FF0000EE9
:109AAC00013C90E645EA060E8DE60CEA135594EA65
:109ABC000C0F08BF95EA0C0F3FF43BAF94EA0C0F68
:109ACC000AD150EA01347FF434AF95EA0C0F7FF4DD
