:02000002D0002C
:1040000000400D00C09D0D00000006000D000501E0
:084010000401E80500000000B6
:0440180030960D00D1
:10401C0009480A49884208B505D0094A824202D0AB
:10402C00121A05F0BCFA0748074A0021121A05F0CB
:10403C00C1FA014808BD00BF60DA0320A49C0D0042
:10404C0054DB032054DB0320EDE7032070B503F0B1
:10405C0005FD074C074BE41AA40800251E46A54293
:10406C0004D056F8253098470135F8E770BD00BFED
:10407C009C9C0D00F89B0D0000F090BA08B500F068
:10408C0098FABDE8084003F0ABBC03F011B803F09C
:10409C000FB803F015B803F013B80078B0FA80F03D
:1040AC004009704701230370704700002DE9F04769
:1040BC00A84FDFF8AC92054688469246D04580F072
:1040CC00868105EB080308F102045E7815F80830C8
:1040DC00013BE4B2392B00F27481DFE813F03A00B3
:1040EC004F00600044007100830072017201720184
:1040FC007201720172017201720172018E00A200D2
:10410C00B600CA00DE00F2000E01170129014301BE
:10411C005501720172017201720172017201720118
:10412C0072017201720172017201720172017201EB
:10413C007201720172017201720172019800AC007D
:10414C00C000D400E800FC000501200132014C0144
:10415C006401012E40F03E812B5D032B00F2318176
:10416C0089F801302DE10C2E40F034812C447A4B2F
:10417C002068616803C3A068186022E1042E40F037
:10418C00298129192A5D4B781B0403EB0263CA7839
:10419C0013448A7803EB0223C9F8043011E1042E8E
:1041AC0040F0188129192A5D4B781B0403EB02633C
:1041BC00CA7813448A7803EB0223C9F8083000E16B
:1041CC001F2E00F2078120220021644805F0F2F92D
:1041DC0032462919614805F0E2F909EB0603002281
:1041EC001A76EEE0022E40F0F5802B192A5D5B78F2
:1041FC0003EB0223A9F83830E3E0022E40F0EA800A
:10420C002B192A5D5B7803EB02237B80D9E0022E0D
:10421C0040F0E0802B192A5D5B7803EB0223BB8313
:10422C00CFE0022E40F0D6802B192A5D5B7803EB91
:10423C000223BB80C5E0022E40F0CC802B192A5DF6
:10424C005B7803EB0223FB83BBE0022E40F0C280C1
:10425C002B192A5D5B7803EB0223FB80B1E0022E65
:10426C0040F0B8802B192A5D5B7803EB02233B846A
:10427C00A7E0022E40F0AE802B192A5D5B7803EB91
:10428C0002233B819DE0022E40F0A4802B192A5D75
:10429C005B7803EB02237B8493E0022E40F09A8040
:1042AC002B192A5D5B7803EB02237B8189E0022EBC
:1042BC0040F090802B192A5D5B7803EB0223BB84C2
:1042CC007FE0022E40F086802B192A5D5B7803EB91
:1042DC000223BB8175E0022E7CD12B192A5D5B7801
:1042EC0003EB0223FB846CE0022E73D12B192A5DA5
:1042FC005B7803EB02233B8563E0022E6AD12B191A
:10430C002A5D5B7803EB0223FB815AE0022E61D11C
:10431C002B192A5D5B7803EB02233B8251E0022EC2
:10432C0058D12B192A5D5B7803EB02237B8548E07F
:10433C00022E4FD12B192A5D5B7803EB02237B8273
:10434C003FE0022E46D12B192A5D5B7803EB02234A
:10435C00BB8536E07CE603204CE6032058E60320C0
:10436C0040E60320022E35D12B192A5D5B7803EB36
:10437C000223BB8225E0022E2CD12B192A5D5B78FF
:10438C0003EB0223FB851CE0042E23D129192A5DA3
:10439C004B781B0403EB0263CA7813448A7803EB53
:1043AC000223BB610DE0042E14D129192A5D4B7830
:1043BC001B0403EB0263CA7813448A7803EB0223D1
:1043CC003B63B31C08EB03065FFA86F876E6012024
:1043DC00BDE8F0870020BDE8F08700BF10B5421C97
:1043EC000023C9B2141AA14203DD12F8014B234475
:1043FC00F8E7D8B210BD000010B5827C0AB90020D5
:10440C0010BD1332D2B21321FFF750FE0028F6D0A4
:10441C00064C3C212046FFF7E1FF2070044C342170
:10442C002046FFF7DBFF2070012010BD40E6032083
:10443C007CE60320427C0F2A03D0102A08D1FFF718
:10444C00DBBFC37C012B03D8024A012013707047D9
:10445C0000207047C4DB0320F8B5304C3C2200210F
:10446C00204605F0A7F82E4AFF23106851686360B8
:10447C00A36004F10C0303C390681860294B04F18A
:10448C00180203F1100618685968154603C508335D
:10449C00B3422A46F7D11B882B803C2140F25B7338
:1044AC001E482387FFF79AFF20701F4C1B4E1F4F8F
:1044BC0034220021204605F07DF8FF2334212046CC
:1044CC00A383E38323846384A384E38423856385A8
:1044DC00A385E3852363FFF781FF20700FCE3D4654
:1044EC000FC50FCE0FC50FCE0FC596E8070085E898
:1044FC0007000FCC0E4E35460FC50FCC0FC50FCC99
:10450C000FC523682B603C213846FFF767FF342129
:10451C0038703046FFF762FF3070F8BDB0E603200C
:10452C0072DA032060DA032008E6032040E6032059
:10453C007CE6032038B5437804463BB302783C2A2A
:10454C0024D1034413F8013C3E2B1FD1011D0C2236
:10455C00104805F015F8C8B9A578412D10D1637C29
:10456C000D4A13B9A37C012B02D01378013B05E053
:10457C001378E17C013BDBB2994208D0137005E063
:10458C00532D03D12046FFF755FF00B900252846CF
:10459C0038BD00BF4CE6032058DB032008B503F000
:1045AC007DFB4FF4964103F06DFBBDE8084000F035
:1045BC0004B800F0DDB902F057BA08B500F0AAFC57
:1045CC0000F08CFA00F00AFDBDE8084000F0E0B9FC
:1045DC000B46452170B5C154591C0246C9B2552031
:1045EC0050540A4C9D1C03CCEDB2561950517160BD
:1045FC0007492068B0600878441C0C7003F10E0168
:10460C00C9B2505403F10F00C0B270BD4CE6032088
:10461C0059DB03202DE9F8430C4605469946904694
:10462C0000F070FC074600F06FFCFE232B55A31C1A
:10463C00DBB20222EA54E31CDBB20422EA54A318D4
:10464C00DBB2390AEF54631DDBB210EE106AE95489
:10465C00A31DDBB2390CE954E31DDBB23F0EEF5462
:10466C0004F10803DBB20D21E95404F10903DBB2B8
:10467C00310AEA5404F10A03DBB204F11700EE54D8
:10468C0004F10B03DBB2C0B2E95404F10C03DBB24E
:10469C00310CE95404F10D03DBB2360EEE5404F187
:1046AC000E03DBB20F21E9546318DBB20121E9548C
:1046BC001A4B197804F11003DBB209EB0006E9542C
:1046CC0004F11103DBB20721E95404F11203DBB24C
:1046DC0004F11601EA5404F11303DBB26122EA542B
:1046EC0004F11403DBB2AC22EA5404F11503DBB27F
:1046FC00BC22C9B2EA54FE2E4FF000036B5405DC09
:10470C004A464146284404F04AFFF0B22544C4F11D
:10471C00FE0404446C70BDE8F88300BFC4DB0320C6
:10472C0070B590B03D21684600F08CFC0546002821
:10473C003CD01F4C4FF480720021204604F03AFF0D
:10474C003C2323704522552302212046FFF740FFCE
:10475C002B4601466A462046FFF75CFF451C3E236C
:10476C00EDB22354657003F099FA124902F00CFF74
:10477C006B1E661E1C44A6420FD016F8013F0F2B71
:10478C0004D803F08BFA0C4902F0FEFE03F086FA13
:10479C001022317802F015FFEDE703F07FFA07499C
:1047AC0002F0F2FE2946024800F016F910B070BD76
:1047BC00EDE6032062960D0044960D0046960D0022
:1047CC00F7B5264B1D78012D1F4645D1244C4FF4CF
:1047DC0080720021204604F0EDFEFD238DF804309C
:1047EC003C23237045225523022120468DF8055089
:1047FC008DF80650FFF7ECFE01AA01460323204674
:10480C00FFF708FF451C3E23EDB22354657003F0FF
:10481C0045FA144902F0B8FE6B1E661E1C44A642F3
:10482C000FD016F8013F0F2B04D803F037FA0E49BE
:10483C0002F0AAFE03F032FA1022317802F0C1FE27
:10484C00EDE703F02BFA094902F09EFE29460448D5
:10485C0000F0C2F800233B7003B0F0BD7EDA0320F9
:10486C00EDE6032062960D0044960D0046960D0071
:10487C00F8B50C46064603F011FA03681B69984715
:10488C00C5B26DB3A54225D803F008FA22463146CD
:10489C0002F006FF03F002FA124902F075FE3446EC
:1048AC0023780F2B274604D803F0F8F90E4902F0B1
:1048BC006BFE03F0F3F901341022397802F081FE1B
:1048CC00A31BDBB29D42EBD803F0E8F9074902F0D9
:1048DC005BFE05E003F0E2F903685B699847F9E7D2
:1048EC002846F8BD49960D0044960D0046960D00DD
:1048FC0070B51B4C4FF480720021204604F05AFE18
:10490C0000212046FFF7B4FF064640B303F0C6F97A
:10491C00144902F039FE731E651E1C44A5420FD0CB
:10492C0015F8013F0F2B04D803F0B8F90E4902F02B
:10493C002BFE03F0B3F91022297802F042FEEDE7CA
:10494C0003F0ACF9094902F01FFE0548FFF7F2FD30
:10495C00324602210248BDE87040FFF7A7BB70BD8C
:10496C00EDE6032049960D0044960D0046960D0089
:10497C0008B5FFF7BDFF00F0D5FAFFF721FFFFF7F1
:10498C00CFFEBDE8084000F00BB802F06DB87047E0
:10499C000149024800F09EBD9DDA03205CDB032038
:1049AC0008B50A4800F0B2FC20B10848BDE8084040
:1049BC0000F04DBE03F072F9054902F0F8FD05490F
:1049CC000248BDE8084000F085BD00BF5CDB032059
:1049DC0064960D009DDA032070B505460C480E4612
:1049EC0000F094FC044658B133462A46094908485D
:1049FC0000F0F0FD0849064800F055FF012070BD9D
:104A0C0003F04CF9054902F0D2FD204670BD00BF01
:104A1C005CDB03207FDA0320B0DA032071960D00F3
:104A2C0010B502F021F8074C074A08491288084BC8
:104A3C00204600F083FB2046064A0749BDE810409B
:104A4C0004F00CB85CDB0320AEDA0320D2DA0320CE
:104A5C009B490D0054DB0320B9580D0010B5074CD1
:104A6C0002F002F80649204602F037FD2046054ABE
:104A7C000549BDE8104003F0F1BF00BFB4DB0320D3
:104A8C0040990D0054DB032059740D0030B591B0E2
:104A9C003C220021054601A804F08CFD03F04AFFDE
:104AAC003C2201A9002002F0BFF83C2101A8FFF72D
:104ABC0095FC9DF8043083420CD101AC0FCC0FC592
:104ACC000FCC0FC50FCC0FC594E8070085E8070085
:104ADC00012000E0002011B030BD000030B591B0D5
:104AEC0001A8FFF7D3FF3C21044601A8FFF776FC91
:104AFC0024B19DF80430834200D13BB903F0CEF8C9
:104B0C000C4902F054FDFFF7A7FC10E003F0C6F8C7
:104B1C0001AC0949094D02F04AFD0FCC0FC50FCC71
:104B2C000FC50FCC0FC594E8070085E8070011B03E
:104B3C0030BD00BF0F970D0026970D0040E60320F7
:104B4C0001F092BF03681847012A02D0022A02D052
:104B5C0004E0016002E00B6800B1036000207047C4
:104B6C00436913B183690C301847704713B50021A2
:104B7C000446084602F088F802A90023204641F8B2
:104B8C00043D02F099F8019C0CB101232371002122
:104B9C00012002F079F82CB1236820469B689847D5
:104BAC000023237102B010BD10B58368044613B105
:104BBC00032201469847204610BD07B580680023A4
:104BCC0038B18DE80A00022102F07EF8B0FA80F0CC
:104BDC00400903B05DF804FB38B5104B03608368E3
:104BEC000446A3B16FF000410022FFF7E6FF00215D
:104BFC00A06802F081F8237903F0FF0513B102F0ED
:104C0C002BF8F8E72946A06802F04EF8A56004F1ED
:104C1C000C00FFF7C9FF204638BD00BF5C970D00A4
:104C2C0010B50446FFF7D8FF20461C2103F024FFE3
:104C3C00204610BD08B50F2003F068FEC0B208BDB9
:104C4C0008B5FFF7F7FF044B10B91A78013200E0F2
:104C5C0000221A7008BD00BFC5DB032070B588B0F8
:104C6C0001F002FF194B049304AD194C194B23604E
:104C7C0095E8030004F10C0202AE86E8030092E80A
:104C8C00030085E8030096E8030082E80300124A5B
:104C9C006261A26907920023104A2371A3600693F4
:104CAC00A261019300930E4A23464FF47A7104F1EA
:104CBC00080001F0F1FF2846FFF776FF094A0A4980
:104CCC00204603F0CBFE08B070BD00BF4D4C0D006C
:104CDC00C8DB03205C970D00554B0D00514B0D00AC
:104CEC00794B0D0054DB0320E54B0D00037C03F0E6
:104CFC000803024603F0FF002BB1D36A506A181A5E
:104D0C0048BF6FF000407047704770477FB5024650
:104D1C0008461379956833B13DB90C4904B0BDE828
:104D2C00704002F031BC0A4B00E00A4B167B0A4C77
:104D3C000A49527B0292012E08BF2146019100952F
:104D4C00074A002102F05DFC04B070BDC5970D0050
:104D5C0040990D00B4970D00BD970D00C1970D0043
:104D6C00DB970D00103000F0F9BE103000F09ABE49
:104D7C00103000F029BF083000F026BF07B502AB99
:104D8C00012203F8011D1030194600F01DFF03B07D
:104D9C005DF804FB10B52C21044603F06DFE204693
:104DAC0010BD10B53421044603F066FE204610BD3C
:104DBC0007B502AB012203F8011D0830194600F0BB
:104DCC0003FF03B05DF804FB07B501220DF10701E9
:104DDC0000F0B5FD01280CBF9DF807004FF0FF3027
:104DEC0003B05DF804FB08B51030FFF7EDFF08BD0C
:104DFC0070B501F039FE274B274E642183F86014FF
:104E0C002649C3F87014012183F874143168002208
:104E1C0011F00105DA7183F83C2483F83D2483F802
:104E2C006A24C3F8782483F87C2483F87D241C46F8
:104E3C000AD13046FFF731F930B12946184802F053
:104E4C00A3F93046FFF72EF91648154BC4F86C340D
:104E5C0000244FF47A730474447444608360124ADF
:104E6C00124B1349036003F0F9FD1248124D047202
:104E7C00447244600C4A1149056003F0EFFD104880
:104E8C00094A04724472446005600C49BDE87040E4
:104E9C0003F0E4BD1CDC0320E4DB032070970D0061
:104EAC00E8DB0320CCE0032054DB03207C970D00CF
:104EBC00174D0D00A0E00320A4970D00154D0D001B
:104ECC00F0DB0320704710B52821044603F0D4FD15
:104EDC00204610BD10B501F08FFE084B1A68801AE1
:104EEC00074A90421C4608D902F0C2F810B10020C3
:104EFC0002F0C6F801F080FE206010BD28E103200E
:104F0C00005C260502F018BC014802F025BD00BF6C
:104F1C002CE1032008B501F06FFE014B186008BDB1
:104F2C0028E10320FFF7D6BF70B501F09DFD104CB2
:104F3C00104B23600025283329460F4E636018223E
:104F4C0004F11000A560E56004F034FB20460B4C26
:104F5C000B49324603F082FD2946204602F0BCFC88
:104F6C00324620460749BDE8704003F077BD00BFCC
:104F7C0000E10320AC990D0054DB03202CE103204D
:104F8C00D14E0D0003790D0038B5074C0D46024685
:104F9C000321204601F06EFA2A4620460421BDE882
:104FAC00384001F067BA00BF34E1032001460148E4
:104FBC0001F072BA34E1032008B50121062003F098
:104FCC008CFC642002F0CAFB0620002103F085FC57
:104FDC006420BDE8084002F0C1BB000008B5012107
:104FEC00062003F069FCFFF7E7FF104B104A1B7813
:104FFC00127810485B2101F013FC20B902F04EFE30
:10500C000D4902F0D4FA01210A4801F02FFB0521C9
:10501C000D20FFF7B9FF094B1878FFF7C7FF0849B8
:10502C000448BDE8084001F0CFBB00BFE6DA03201E
:10503C00E8DA032034E1032010980D00E4DA0320B1
:10504C0021980D0070B5054609480E4601F0EEFAA0
:10505C0060B1084C2378B34207D822780649284619
:10506C0004F09DFA2078C0B270BD002070BD00BF66
:10507C0034E10320A7E103206AE1032008B501F025
:10508C00F3FC084B084A1A60112208491A710822CD
:10509C005A719A7101220A70002119721F215972DA
:1050AC009A7208BD34E103205C980D00A8E103203E
:1050BC0038B584690A4B036005467CB16368013BD3
:1050CC0063605BB9236820469B689847A368013BE3
:1050DC00A3601BB923682046DB689847284638BD77
:1050EC00009B0D0010B50446FFF7E2FF20461C2183
:1050FC0003F0C2FC204610BD38B51D46059B03636A
:10510C0000230446436302B1826419B104F13800F0
:10511C0002F0F6F9049B2365069BE069A4F84C5059
:10512C00FF2BB8BFFF23A4F8543008B1FEF7B3FF30
:10513C00B4F85400FEF7ABFFE06138BD2DE9FF4138
:10514C0004460025174698460E4603F0BDFAE56165
:10515C000A4904F1380002F0C0F9FF2302930F232F
:10516C0000932046A564CDF804803B462A46314680
:10517C00FFF7C2FF204604B0BDE8F08140990D0056
:10518C0010B50446204603F003FA0028FAD0204656
:10519C0003F0A7F8C0B210BD2DE9F0470546C4696D
:1051AC008846FFF7EDFF2070EB6993F800A04FF0F5
:1051BC0001090AF0F00A00274E462846FFF7E0FFE7
:1051CC00EB69985500F07F0313FB09F31F44741C23
:1051DC000306A4B2BFB24FEAC91901D52646ECE7C3
:1051EC00631EBAF1300F88F8003013D12846D5F879
:1051FC001C80FFF7C5FF08F804002846F41CD5F8FE
:10520C001C800236FFF7BCFFB6B2A4B208F8060049
:10521C00022300E000231B1B9EB2A3199BB29F42EA
:10522C000BD92846FFF7ACFFB5F85430A34284BF26
:10523C00EB6918550134A4B2EFE7B5F85400A0425D
:10524C002CBF20460020BDE8F087F7B507468E46F8
:10525C001E461D46002402A905F07F032144ED09DA
:10526C0018BF43F08003013401F8043CE4B2002D74
:10527C00F1D1C4F10403D11802F803E0A54206DA17
:10528C002B1B01A81344285C58710135F6E7721CDE
:10529C002244384602F07BFF054601F0ADFC013498
:1052AC0078623444A8B2231A5842584103B0F0BD76
:1052BC0010B5C369E0221A70C36900225A70044603
:1052CC000222C16902F063FF204603F049F901F0A4
:1052DC0093FC6062A06210BD0233F0B59BB20D4628
:1052EC006C1A15F8016BA4B23EB1B0F854709F4221
:1052FC0003D95C1CD654A3B2F2E7191B0A44211241
:10530C0002F8021C02F8014C1846F0BD38B50546EF
:10531C0002F053FF002814BF0124002402D12846B8
:10532C0003F01EF9204638BD2DE9F04387B0044642
:10533C00894617461E46DDF83880FFF7E7FF05461D
:10534C00002840F0BD80A16C39B90346B4F84C205C
:10535C00A16B204603F008F809E0684602F032FC25
:10536C002B46B4F84C206946204603F07FF8002801
:10537C0000F0A280012323849DF84C30042B15D11E
:10538C00524B18689A88ADF804200090E2699B791A
:10539C0000988DF80630531DC2F80500BDF80410B6
:1053AC009DF806209A7199800C2312E0484BD4F892
:1053BC001CC0186859681B7A6A4603C213706B4686
:1053CC0003CBCCF80500CCF8091013788CF80D3011
:1053DC000E23B8F1000F0AD09DF840209DF83C1028
:1053EC00520142F0060242EAC102D2B200E00222AD
:1053FC009DF8481009B902F0FD022FB116B942F020
:10540C00800201E042F0C002E169CA54226DE169F8
:10541C00581C12120A549A1CE169206D88540333EB
:10542C00E26949462046FFF757FFB8F1000F0BD051
:10543C000346E26941462046FFF74EFFE2691199A7
:10544C0003462046FFF748FF67B10346E269394639
:10545C002046FFF741FF2EB10346E2693146204654
:10546C00FFF73AFF431F9BB2E26910212046FFF77A
:10547C00ECFE01F0C1FB4FF47A766062A06220462C
:10548C0003F086F840B901F0B7FBA36AC01A236D8C
:10549C0073439842F3D90FE069462046FFF77CFE30
:1054AC00042809D1E369DE7836B901F0A5FB0125A2
:1054BC00A06284F82C6004E0204603F051F800E070
:1054CC000025284607B0BDE8F08300BF43980D00C7
:1054DC004A980D007FB50423059301230493002300
:1054EC0003930293019300931A46FFF71DFF07B035
:1054FC005DF804FB2DE9F14F0D9E9DF828809DF879
:10550C002C509DF8307004468B4691469A46FFF716
:10551C00FDFE00284CD0B4F85420E069002104F0C2
:10552C0049F80523E26959462046FFF7D5FE6B1E64
:10553C00012B12D8238CE26901339BB223841B12FA
:10554C001354411C89B2E369228C5A54023080B244
:10555C001EB1238C5A1C22843380002291B28318F2
:10556C008A459BB20AD9B4F854609E4202F10102FA
:10557C0004D919F80160E169CE54EFE7B8F1000FD6
:10558C000CBF302131210FB141F00801022D02D1A5
:10559C0041F0040103E0012D08BF41F00201053B7D
:1055AC00E2699BB2204601B0BDE8F04FFFF74DBE5B
:1055BC0001B0BDE8F08F1FB5089C03940024029441
:1055CC009DF81C4001949DF818400094FFF792FF41
:1055DC0004B010BD1FB50024029401940094FFF791
:1055EC00EAFF04B010BD38B504460D46FFF78EFE39
:1055FC0090B1E36962221A70E36902225A70E3697E
:10560C002A129A70E369DD700422E169204602F0E7
:10561C00BEFD003018BF012038BD38B504460D461C
:10562C00FFF774FE90B1E36972221A70E3690222EB
:10563C005A70E3692A129A70E369DD700422E169F9
:10564C00204602F0A4FD003018BF012038BD2DE922
:10565C00F04F83B000AF0446FFF758FE8146002898
:10566C0000F0F68001F0C8FA226D4FF47A735343C0
:10567C00A26A821A9A42054603D8626A821A934237
:10568C0017D294F82C302BB1204602F069FF4FF062
:10569C000009DDE0E269C0211170E2695370E16933
:1056AC000222204602F073FD01236562A56284F894
:1056BC002C30204602F06CFF002800F0C980F91D48
:1056CC002046FFF769FD0246002800F0C180E3691F
:1056DC00A562187800F0F00130297DD1D4F830B0F3
:1056EC00BBF1000F00F0B48097F807C003EB0C007F
:1056FC00EA46817890F801E001EB0E2E1FFA8EFE3F
:10570C000EF1080121F00701ADEB010D68460021F7
:10571C008EB2B64506D90CEB01061E44F6784654FB
:10572C000131F5E7002100F80E101E7806F0060690
:10573C00022E0CF10301CCEB02021ED17144CEEB14
:10574C00020213F801801944053A497801EB082844
:10575C000CF1050171441944D847E36940221A70D1
:10576C00E3695E70E3691FFA88F84FEA28229A70A1
:10577C00E369042283F8038020E0042E24D17144D1
:10578C00CEEB020213F801801944053A497801EB7B
:10579C0008280CF1050171441944D847E3695022DB
:1057AC001A70E36902225A70E3691FFA88F84FEA0B
:1057BC0028229A70E369324683F80380E169204617
:1057CC0002F0E5FC656205E0033A7144CEEB02029F
:1057DC001944D847D5463BE0502908D19978DB7855
:1057EC0003EB012189B22046FFF7FDFE30E0402992
:1057FC000CD0602908D19978DB7803EB012189B2B0
:10580C002046FFF70AFF23E070290DD1616BF9B137
:10581C00042A1DD110F0060F1AD19878DB7803EB0F
:10582C00002080B2884713E0902911D0C0290AD1FA
:10583C00D0221A70E36900225A70E16902222046D4
:10584C0002F0A5FC04E0D02904BF002384F82C301E
:10585C0048460C37BD46BDE8F08F70B504460E4681
:10586C001546FFF753FDE8B1238C01339BB203B906
:10587C0001232384238CE2691B125371E369228C6C
:10588C009A71E269314607232046FFF725FDE3694B
:10589C001D54031FE26920469BB28221BDE8704073
:1058AC00FFF7D3BC70BD0022FFF7D7BF10B504467D
:1058BC00FFF72CFD10B12046FFF7FAFCE06908B1A8
:1058CC00FEF7E9FB04F1380001F0C0FD2046FFF7BC
:1058DC00EFFB204610BD01F0C7B801F0C5B801F0D0
:1058EC00C3B810B50446243000F050FA28B104F5C2
:1058FC000C70BDE8104000F049BA10BD01F0B4B80E
:10590C0001F0B2B801F0B0B801F0AEB8837801691B
:10591C0043F00403837000F11002806800F0ECBACD
:10592C0010B5044680680A462430A16900F055FA87
:10593C0020B1A38803F00F0300EB431010BD2DE939
:10594C00F74F03780446894615464BB18278D10748
:10595C0006D50CE05A46216900F069FA00283DDAB8
:10596C00637843F0020363704FF0FF3097E01A073F
:10597C0003D5E36962699B1A07E09A0608D5A36808
:10598C001A896369C3EB42139BB29D4228BF1D4623
:10599C002E464FF0000804F1100B002E35D0227863
:1059AC006369A06812F0200FC3F3080A4FEA532171
:1059BC0002D0036A19441DE090F8058001EA08083A
:1059CC00BAF1000F10D1B8F1000F0DD1002BC1D1DD
:1059DC0053064CBF036A236A236105E004D1237884
:1059EC0013F0700F11D1BBE72169A06800F019FA10
:1059FC0008EB0001A068BAF1000F35D1B6F5007FB5
:105A0C0032D3C36A994202D12EE0A81B47E0B6F507
:105A1C00806F1BD3227897064FEA562A06D4027958
:105A2C00C8EB0202D2B2924528BF924699424FEA85
:105A3C004A2707D2A06853464A46006800F0A7FBE5
:105A4C0060B98DE75344994221D3F3E74A46006885
:105A5C0000F055FB002883D04FF4007763693B447A
:105A6C00B9446361F61B98E70022243000F0B5F9C5
:105A7C0000283FF475AFCAF50077B74228BF374608
:105A8C0000EB0A013A46484603F089FDE6E724306C
:105A9C00019100F07BF901990028CBD160E703B0AC
:105AAC00BDE8F08F73B501220DF10701044646697C
:105ABC000569FFF744FF012805BF9DF807006661E3
:105ACC004FF0FF30256102B070BD2DE9F0410E465C
:105ADC00017807690446002939D04569B5423AD0A6
:105AEC000EB9066131E00B0703D5C3699E422ED86F
:105AFC0007E0880605D5A3681B89B6EB431F26D89B
:105B0C0023E0D4F808E09EF806306A1E03F1090081
:105B1C00731EC240C3409A4200D84DB94A064CBFCE
:105B2C00DEF82020226A22611D4604F110080AE0EA
:105B3C009B1AF9E742462169A06800F078F9002821
:105B4C0005F1FF3503DD002DF4D1666103E027611B
:105B5C000020BDE8F0810120BDE8F08138B5037864
:105B6C0004460BB9012038BD83785A0723D501218F
:105B7C00FFF7D6FE054628B9637843F0010363703E
:105B8C00002038BD0378E52BF6D023781B0744BFE3
:105B9C00E369C361238C4383638C8382094B1B6849
:105BAC002BB100F11601183098472B8B6B82A37820
:105BBC0023F00403A370A068FFF793FE0028DBD04A
:105BCC00D0E700BF44E103202DE9F0470378894674
:105BDC0019070446904608D583789A0705D51B0704
:105BEC000BD5E169FFF771FF38B9637843F0010316
:105BFC0063704FF0FF30BDE8F0876369DB43984575
:105C0C00F3D846464FF0000A6369002E00F08180FD
:105C1C00A068427912EA5325C3F308071CD1DFB9F7
:105C2C00216971B104F1100200F001F90028DCDBEC
:105C3C0040F08E802046FFF769FE002840F08880F7
:105C4C00D3E7236A3BB92046FFF760FE0028CCD08F
:105C5C002369236200E023612169A06800F0E1F868
:105C6C00291817B9B6F5007F21D2C7F50075B542D2
:105C7C0028BF354637B96369E269934234BF0122C4
:105C8C00052200E00122A068243000F0A6F80028CC
:105C9C00ABD038442A4649462F4403F080FCB7F574
:105CAC00007F30D1A068243000F070F817E0B6F512
:105CBC00806FA06815D30279521B730AD2B293423B
:105CCC0028BF1346C26A91424FEA432502D31A44B5
:105CDC00914237D3A7684A46386800F00CFB90B95C
:105CEC0083E7C36A994202BF4FF0FF3380F824A0C8
:105CFC00C362A3684A46186800F08BFA00283FF488
:105D0C0074AF4FF4007563692B446361A944761B2F
:105D1C007AE7E269934201D9E36102E00F4B1B6819
:105D2C001BB1A37843F00403A37094F90230002B49
:105D3C0002DB4046BDE8F0872046FFF70FFF002846
:105D4C00F7D152E74FF0FF3280F824A0C262C1E7CE
:105D5C002169A06800F065F8014683E744E103205F
:105D6C0000F082BE70B505460C46084649B103F0FA
:105D7C0051FC2B68024621462846DB68BDE8704082
:105D8C00184770BD00F070BE00F06EBE70B50378A1
:105D9C00DA0704461ED54368816800F10C063246CA
:105DAC00186800F036FA054608B9002513E0237888
:105DBC009B0704D4237823F0010323700BE0636862
:105DCC00A068196932460144186800F022FA0028CC
:105DDC00F0D1EAE70125284670BD70B583688B4287
:105DEC0004460E46154614D0FFF7D0FF08B9002024
:105DFC0070BD6B0703D500232370A66009E06368B0
:105E0C0004F10C023146186800F079F90028F2D13F
:105E1C00EDE72378204605F003051D4300F80C5BE5
:105E2C0070BD837940690239994008447047012953
:105E3C0070B505460C46164602D84FF0FF3070BDC3
:105E4C00C3699942F9D8C379202B10D181690222F8
:105E5C0001EBD41100F50C70FFF7BFFF0028ECD05C
:105E6C0004F07F0450F8243023F070430FE0102B23
:105E7C00E3D18369C1F307210222194400F50C70A8
:105E8C00FFF7ABFF0028D8D0E4B230F81430EA6941
:105E9C0093429ABF33600120002070BD012938B5B0
:105EAC000C46154601D8002038BDC3699942FAD872
:105EBC00C379202B0ED18169032201EBD41100F59B
:105ECC000C70FFF78AFF0028EDD004F07F0440F837
:105EDC0024500FE0102BE6D18369C1F30721032274
:105EEC00194400F50C70FFF778FF0028DBD0E4B202
:105EFC0020F81450012038BD2DE9F341C4688C42C0
:105F0C0005460E46904607D20C460027EB69013435
:105F1C009C4203D9CFB9EC680127F7E7A64214D00D
:105F2C0001AA21462846FFF782FF00280DDBEDD0A1
:105F3C00019B002BEAD107B1EC606FF07042214657
:105F4C002846FFF7ABFF074608B900270BE016B948
:105F5C00C8F8004007E0224631462846FFF79EFF6E
:105F6C000028F5D1F1E7384602B0BDE8F08100F029
:105F7C007BBD00F079BD00F077BD000070B50E4C14
:105F8C000E46154600F030FE2368C01A0B4B9842A3
:105F9C0008D900F031FE0A4B186001F061F800F0EE
:105FAC0023FE206000F028FE80B2801BA842D4BFE4
:105FBC000020012070BD00BF48E10320A086010035
:105FCC0028E5032038B5057A04464DB9406800F041
:105FDC00B9F963682946187D02F07FFC012323720E
:105FEC0038BD10B5037A04466BB143680121187DA6
:105FFC0002F073FCFF21606800F0C6F9606800F0E5
:10600C00A5F90023237210BDF8B504460D461646BB
:10601C0000F0F2FD87B2606800F09BF9FF28607217
:10602C0009D14FF47A7239462046FFF7A7FF0028B2
:10603C00F1D055230BE0FE2801D0502307E0324667
:10604C002946606800F08AF9607230B160232046FE
:10605C002370FFF7C6FF0020F8BD606800F079F9E7
:10606C00606800F076F90120F8BD70B504460E4664
:10607C0000F0C2FD85B2324629462046FFF77EFF6E
:10608C0030B9606800F065F9FF28F4D1012070BDCB
:10609C00002070BDF7B5037A019204460D460BB98A
:1060AC00FFF790FF25B14FF496712046FFF7DDFF07
:1060BC0045F04001606800F067F90DF107060DF13D
:1060CC00030716F80119606800F05EF9BE42F8D1BA
:1060DC00002D0CBF95218721606800F055F9606890
:1060EC0000F037F90B25606800F033F90306607295
:1060FC0003D5013D15F0FF05F5D103B0F0BD38B562
:10610C00837A032B18BF490215460A46112104460F
:10611C00FFF7C0FF10B1302323700BE029464FF47A
:10612C0000722046FFF770FF054618B12046FFF7B6
:10613C0058FF03E02046FFF754FF0025284638BDE2
:10614C0010B5837A032B0A4618BF4A021221044663
:10615C00FFF7A0FF30B1312320462370FFF741FF3A
:10616C00002010BD012010BD10B500220C210446EA
:10617C00FFF790FF30B1282320462370FFF731FF43
:10618C00002010BD2046FFF72CFF012010BDF8B5F4
:10619C00054616461F46FFF7D3FF98B10024A3B25D
:1061AC009F4206EB442108D94FF400722846FFF7B2
:1061BC002BFF01340028F2D104E02846BDE8F8405A
:1061CC00FFF7D2BF0020F8BD38B50446154640682D
:1061DC0000F0DAF84FF400722946606800F0D8F845
:1061EC00FF21606800F0D0F8FF21606800F0CCF867
:1061FC00606800F0AEF8607200F01F00052806D051
:10620C00572320462370FFF7ECFE002038BD0120F9
:10621C0038BD70B5837A032B18BF490215460A4660
:10622C0018210446FFF736FF064608B132231DE05D
:10623C002A46FE212046FFF7C7FFC0B14FF4FA6192
:10624C002046FFF712FF054608B95A230EE03246E6
:10625C000D212046FFF71EFF38B9606800F079F871
:10626C0018B92046FFF7BDFE05E029232370204610
:10627C00FFF7B7FE0025284670BD38B50D464FF424
:10628C00FA610446FFF7F1FE10B95B23237005E0B9
:10629C002A46FC212046FFF797FF18B92046FFF746
:1062AC00A0FE002038BD10B5837A032B0A4618BF18
:1062BC004A0219210446FFF7EDFE30B13323204684
:1062CC002370FFF78EFE002010BD012010BD38B5E5
:1062DC004FF4FA610446FFF7C8FE054620B1FD21D4
:1062EC00606800F051F801E0562323702046FFF758
:1062FC0078FE284638BDF8B5054616461F46FFF70A
:10630C00D2FF70B10024BC4206EB4421284604D0D5
:10631C00FFF7B3FF28B10134F5E7BDE8F840FFF70C
:10632C00D6BF2846FFF75DFE0020F8BD00F09CBBF1
:10633C0000F09ABB00F098BB014B01221A70704719
:10634C004CE10320011D006800F074BF006800F0F0
:10635C0058BFFF21006801F033B8000037B5084B77
:10636C0000930025074C0068257013460A46294601
:10637C0001F02CF82378002BFCD0002003B030BDAA
:10638C0045630D004CE10320006801F019B80000D2
:10639C0037B5074B00930025064C00682570134653
:1063AC002A4601F013F82378002BFCD003B030BD43
:1063BC0045630D004CE1032000F056BB024B1868FE
:1063CC0003681B68184700BF64E1032008B501216E
:1063DC00007902F082FABDE8084001F0B1BC00007F
:1063EC0010B5084C2368DB070AD42046FDF755FE90
:1063FC0030B10121044800F0C7FE2046FDF752FEE3
:10640C00014810BD50E1032054E1032010B50446AF
:10641C00FFF7E6FF2146BDE8104000F0D1BF10B5F4
:10642C00044601F08BFCFFF7DBFF002100F0D8FEE7
:10643C00FFF7D6FF012100F0C2FEFFF7D1FF1821B4
:10644C0000F09AFF20790021BDE8104002F045BA17
:10645C0038B50C460546FFF7E2FF04F07F00FFF766
:10646C00D5FF0020FFF7D2FF04462846FFF7AEFF0A
:10647C00204638BD70B50E4615460446FFF7CFFFD3
:10648C0046F08000FFF7C2FF2846FFF7BFFF20460B
:10649C00BDE87040FFF79ABF10B541721121044658
:1064AC00FFF7D6FF627A00F0E0001F2A94BF024388
:1064BC0040F01F0211212046BDE81040FFF7DABF63
:1064CC0010B5044649B101222321FFF7D3FF232144
:1064DC002046FFF7BDFF8307F9D524212046FFF79F
:1064EC00B7FF4042401010BD38B5002914BF5D22E3
:1064FC0055220C465A210546FFF7BCFF002C2846B6
:10650C0014BF7C2270225C21BDE83840FFF7B2BF7B
:10651C0070B5284D2B788B4204460E4649D0042981
:10652C0047D8DFE801F0342C241203000121FFF7D7
:10653C008FFF00F0E30242F00C0201212046FFF72E
:10654C0099FFA37A63B301210DE00121FFF780FFCE
:10655C0000F0E30242F0100201212046FFF78AFF0F
:10656C00A37AEBB100212046FFF7BEFF18E0012112
:10657C00FFF76EFF00F0E30242F008020CE001218D
:10658C00FFF766FF00F0E30242F0040204E0012191
:10659C00FFF75EFF00F0E30201212046FFF76AFFE0
:1065AC002B782BB927212046FFF752FF0306F7D58E
:1065BC002E7070BDA8E10320154A002310B513708E
:1065CC00144A1370144A1370144A1370144A13703B
:1065DC00144A1370144A282113600446FFF738FF3D
:1065EC0043070AD53D212046FFF732FF40F0040255
:1065FC00D2B23D212046FFF73DFF20462521402207
:10660C00FFF738FF20460321BDE81040FFF780BF9D
:10661C00A7E1032062E1032060E1032068E103208D
:10662C0061E1032069E103205CE1032010B504461D
:10663C0001F084FB0B4B1A78032A02D10A4A127818
:10664C0052B91B78032B02D101F07AFB02E02046F1
:10665C00FFF7B2FF002010BD20460121FFF758FFC5
:10666C00012010BDA8E1032068E10320002910B52A
:10667C000446817214BF0F221A221321FFF7FAFE6F
:10668C00A37A43B111212046FFF7E2FE00F01F026E
:10669C0042F0600202E0627A42F080022046112150
:1066AC00BDE81040FFF7E6BE2DE9F0413D4B1B78ED
:1066BC00032B044614D12821FFF7CAFE430717D435
:1066CC000EE013783C2B04D81378374ADBB2002148
:1066DC00D1542046FFF77AFE03212046FFF718FF1E
:1066EC0000212046FFF7ECFE304B1860BDE8F0812E
:1066FC0001212046FFF70CFF2046FFF790FE0020FB
:10670C00FFF784FE0020FFF781FE294D28702B78BF
:10671C00422B14D82B78DBB200202B70FFF776FEBF
:10672C00244B227A187032B91A78E179914202D04E
:10673C001B78FF2B05D12B78022B02D90BE04223BF
:10674C00EAE7204600232B70FFF740FE2046BDE809
:10675C00F041FFF731BF164B174E1B78124F033B1E
:10676C00DBB200203370FFF751FE144B1870002081
:10677C00FFF74CFE124A20F07F03DBB2137000F0DF
:10678C004000104BC0B21870002331780A4ADDB2B9
:10679C008D4203F1010894D20020FFF737FE4346E7
:1067AC007855F2E7A8E103206AE103205CE10320BD
:1067BC0068E1032060E10320A7E1032062E10320EC
:1067CC0069E1032061E10320F8B50D46012104467F
:1067DC00FFF79EFE8DB12046FFF721FEBE20FFF78E
:1067EC0015FE6E1E05F10F0716F8010FFFF70EFED2
:1067FC00BE42F9D12046FFF7E9FD3D212046FFF7C7
:10680C0027FE20F00100002D0CBF024640F00102D3
:10681C00D2B220463D21BDE8F840FFF72BBE000068
:10682C00F0B58FB00D4604460021164603A82A2267
:10683C001F4602F0BFFE01238DF80C3003238DF8A8
:10684C0010308DF8153006238DF8163033238DF863
:10685C00173007238DF8183008238DF81A300923C8
:10686C008DF81C3019238DF81E3025238DF820301F
:10687C0029238DF82230DC238DF823302E238DF83C
:10688C00243088238DF825302F238DF826302D23A6
:10689C008DF8273037238DF82A3090238DF82B3044
:1068AC0038238DF82C303C23042202218DF82E3015
:1068BC008F238DF80D208DF80E108DF811108DF89A
:1068CC001220052140228DF82F303D238DF8132006
:1068DC008DF814108DF82120422130228DF83030A3
:1068EC0012238DF81F108DF828208DF82D108DF89F
:1068FC0031306F238DF832301F2D4FF0FF038DF8A0
:10690C0033208DF8343006D02B2D06D0562D0CBFED
:10691C00D922E42202E04E2200E06C221F2D8DF8D9
:10692C00192006D02B2D06D0562D14BFC0220022C4
:10693C0002E0C02200E04022012120798DF81B20CA
:10694C008DF8297001F0B8FFFFF74AFD00F026FC26
:10695C0000F052F90546AA222F212046FFF78AFDA6
:10696C002F212046FFF774FDAA2804D000F044F92B
:10697C00401B3128EFD900F03FF9401B31282DD8AE
:10698C0000F03AF9054655222F212046FFF772FDFB
:10699C002F212046FFF75CFD552821D000F02CF963
:1069AC00401B3128EFD91BE000212046FFF70CFFDC
:1069BC00A17A2046FFF75AFE01212046FFF7A8FDD9
:1069CC0000F01AF9054627212046FFF741FD030682
:1069DC001BD500F011F9401B31281CD9002028E0F0
:1069EC0000F00AF9401B3128F8D80025EBB20EAAAA
:1069FC0002EB4303013513F82C1CFF29D4D013F8F8
:106A0C002B2C2046FFF736FDF0E700F0F5F8401B85
:106A1C003128D8D9DDE700230093A07906494FF03F
:106A2C00FF33012201F062F90028D7D0034BE67145
:106A3C001C600FB0F0BD00BFC9630D0064E1032002
:106A4C0000F012B800F010B808B5024B1B689B6838
:106A5C00019308BD6802030008B5024B1B68DB6894
:106A6C00019308BD6802030008B5024B1B681B6844
:106A7C00019308BD2C02030008B5024B1B689B68F0
:106A8C00019308BD2C02030008B5024B1B68DB68A0
:106A9C00019308BD2C02030008B5024B1B681B694F
:106AAC00019308BD2C02030008B5024B1B685B69FF
:106ABC00019308BD2C02030008B5024B1B689B69AF
:106ACC00019308BD2C02030008B5024B1B68DB695F
:106ADC00019308BD2C02030008B5024B1B681B6A0E
:106AEC00019308BD2C02030008B5024B1B685B6ABE
:106AFC00019308BD2C02030008B5024B1B681B68F0
:106B0C00019308BD3002030008B5024B1B689B685B
:106B1C00019308BD3002030008B5024B1B68DB680B
:106B2C00019308BD3002030008B5024B1B681B69BA
:106B3C00019308BD3002030008B5024B1B685B696A
:106B4C00019308BD3002030008B5024B1B68DB69DA
:106B5C00019308BD3002030008B5024B1B681B6A89
:106B6C00019308BD3002030008B5024B1B685B6A39
:106B7C00019308BD3002030008B5024B1B689B6AE9
:106B8C00019308BD3002030008B5024B1B689B6BD8
:106B9C00019308BD3002030008B5024B1B68DB6B88
:106BAC00019308BD3002030008B5024B1B681B6C37
:106BBC00019308BD3002030008B5024B1B685B6CE7
:106BCC00019308BD3002030008B5024B1B685B69DA
:106BDC00019308BD6C02030008B5024B1B685B688F
:106BEC00019308BD1802030008B5024B1B681B6912
:106BFC00019308BD1802030008B5024B1B685B69C2
:106C0C00019308BD1802030008B5024B1B68DB6931
:106C1C00019308BD1802030008B5024B1B689B6A60
:106C2C00019308BD1802030008B5024B1B685B6C8E
:106C3C00019308BD1802030008B5024B1B689B6D3D
:106C4C00019308BD1802030008B5024B1B689B6832
:106C5C00019308BD4802030008B5024B1B68DB68B2
:106C6C00019308BD4802030008B5024B1B681B6961
:106C7C00019308BD4802030008B5024B1B685B6911
:106C8C00019308BD4802030008B5024B1B68DB6981
:106C9C00019308BD4802030008B5024B1B681B6A30
:106CAC00019308BD4802030008B5024B1B685B6AE0
:106CBC00019308BD4802030008B5024B1B689B6A90
:106CCC00019308BD4802030008B5024B1B68DB6A40
:106CDC00019308BD4802030008B5024B1B685B6CAE
:106CEC00019308BD4802030008B5024B1B689B6C5E
:106CFC00019308BD4802030008B5024B1B681B6FCB
:106D0C00019308BD4802030008B5024B1B685B6980
:106D1C00019308BD6402030008B5024B1B681B6A93
:106D2C00019308BD6402030008B5024B1B689B6A03
:106D3C00019308BD6402030008B5024B1B681B6875
:106D4C00019308BD3C02030008B5024B1B68DB68CD
:106D5C00019308BD3C02030008B5024B1B681B697C
:106D6C00019308BD3C02030008B5024B1B685B692C
:106D7C00019308BD3C02030008B5024B1B689B69DC
:106D8C00019308BD3C02030008B5024B1B68DB698C
:106D9C00019308BD3C02030008B5024B1B681B6A3B
:106DAC00019308BD3C02030008B5024B1B689B6AAB
:106DBC00019308BD3C02030008B5024B1B689B699C
:106DCC00019308BD2802030008B5024B1B68DB6960
:106DDC00019308BD2802030008B5024B1B681B6A0F
:106DEC00019308BD2802030008B5024B1B685B6ABF
:106DFC00019308BD2802030008B5024B1B689B6A6F
:106E0C00019308BD2802030008B5024B1B68DB6A1E
:106E1C00019308BD2802030008B5024B1B681B6BCD
:106E2C00019308BD2802030008B5024B1B685B6B7D
:106E3C00019308BD2802030008B5024B1B681B6CAC
:106E4C00019308BD2802030008B5024B1B689B6C1C
:106E5C00019308BD2802030008B5024B1B68DB6CCC
:106E6C00019308BD2802030008B5024B1B681B6D7B
:106E7C00019308BD2802030008B5024B1B689B69EF
:106E8C00019308BD3802030008B5024B1B68DB698F
:106E9C00019308BD3802030008B5024B1B681B6A3E
:106EAC00019308BD3802030008B5024B1B689B6AAE
:106EBC00019308BD3802030008B5024B1B681B6B1D
:106ECC00019308BD3802030008B5024B1B689B6B8D
:106EDC00019308BD3802030008B5024B1B681B6800
:106EEC00019308BD4C02030008B5024B1B685B689C
:106EFC00019308BD4C02030008B5024B1B681B69CB
:106F0C00019308BD4C02030008B5024B1B685B697A
:106F1C00019308BD4C02030008B5024B1B689B692A
:106F2C00019308BD4C02030008B5024B1B68DB69DA
:106F3C00019308BD4C02030008B5024B1B681B6A89
:106F4C00019308BD4C02030008B5024B1B681B6D76
:106F5C00019308BD6002030008B5024B1B681B6857
:106F6C00019308BD2002030008B5024B1B685B6847
:106F7C00019308BD2002030008B5024B1B685B6936
:106F8C00019308BD2002030008B5024B1B689B6DE2
:106F9C00019308BD2002030008B5034B1B68D3F80E
:106FAC008830019308BD00002002030008B5034B94
:106FBC001B68D3F89430019308BD00002002030035
:106FCC0008B5024B1B685B68019308BD40020300C7
:106FDC0008B5024B1B689B68019308BD4002030077
:106FEC0008B5024B1B68DB68019308BD4002030027
:106FFC0008B5024B1B681B69019308BD40020300D6
:10700C0008B5024B1B685B69019308BD4002030085
:10701C0008B5024B1B689B69019308BD4002030035
:10702C0008B5024B1B68DB69019308BD40020300E5
:10703C0008B5024B1B681B6A019308BD4002030094
:10704C0008B5024B1B681B6B019308BD4002030083
:10705C0008B5024B1B685B6B019308BD4002030033
:10706C0008B5024B1B689B68019308BD44020300E2
:10707C0008B5024B1B685B69019308BD4402030011
:10708C0008B5024B1B68DB6A019308BD4402030080
:10709C0008B5024B1B681B6B019308BD440203002F
:1070AC0008B5024B1B68DB6B019308BD440203005F
:1070BC0008B5024B1B681B68019308BD1C0203003A
:1070CC0008B5024B1B685B68019308BD1C020300EA
:1070DC0008B5024B1B689B68019308BD1C0203009A
:1070EC0008B5024B1B685B6A019308BD1C020300C8
:1070FC0008B5024B1B68DB6B019308BD1C02030037
:10710C00002211464068FFF793BF002211464068E9
:10711C00FFF79EBF00224068FFF792BF002281F06C
:10712C0001014068FFF77CBF00231A4619464068EE
:10713C00FFF76EBF00231A4619464068FFF760BF81
:10714C00002211464068FFF753BF002211464068E9
:10715C00FFF73EBF002202214068FFF741BF00232A
:10716C001A464068FFF72CBF024B03225A60024AB2
:10717C001A607047ACE1032068980D000021FFF7FE
:10718C0013BD0021FFF718BD10B504460170084669
:10719C00FFF7DAFC00236360204610BD10B50446EF
:1071AC000078FFF7EBFF48B920784FF6FF71FFF737
:1071BC00A3FC2078BDE81040FFF7E3BF10BD38B545
:1071CC00044600780D46FFF7D9FF40B920782946D0
:1071DC00FFF79AFC2078BDE83840FFF7D2BF38BDE6
:1071EC0038B5044600780D46FFF7C8FF40B9207843
:1071FC002946FFF791FC2078BDE83840FFF7C1BF66
:10720C0038BD0078FFF7BDBF400830B518600024CA
:10721C0018688842E5B206D90134082C02D040081F
:10722C001860F5E70725024B5B5D137030BD00BF9E
:10723C0094980D002DE9F04307468FB000780E4668
:10724C00FFF79CFF002862DB3C781422002109A880
:10725C0002F0B0F90B232046002209A9ADF8243026
:10726C00FFF782FC9DF82D4054B19DF82C5035B998
:10727C00DDF830809DF834909DF8354003E0002413
:10728C00A146A0460125337905B1BBB99D420BD16E
:10729C00B268424508D18DF820908DF82140BDF898
:1072AC002010B289914209D053B10024387801944E
:1072BC000094234622460121FFF76EFC002026E0B5
:1072CC008DF80F30B1680A9804AB0DF10F02FFF77F
:1072DC009BFF317905B1B1B9A94208D000243878A7
:1072EC000194747B337B9DF80F200094E4E7B36822
:1072FC004345F3D38DF820908DF82140BDF8202024
:10730C00B3899A42EAD1049B4345E7D1D6E70FB043
:10731C00BDE8F0832DE9F04188B0002304460078E5
:10732C0002930E461746FFF729FF054600BB94F85B
:10733C0000800146142203A802F03CF90B232A46D4
:10734C0003A94046ADF80C30FFF70EFC02AB0DF173
:10735C00070207FB06F104988DF80750FFF754FF5E
:10736C0020789DF80710FFF7DFFB2078FFF709FF67
:10737C00029808B0BDE8F08138B5044600780D4697
:10738C00FFF7FCFEC8B9616871B10C4BC25CAA4234
:10739C0002D001300828F9D10130C0B2C14001221D
:1073AC002046FFF7B7FF03E029462078FFF7BCFB28
:1073BC002078BDE83840FFF7E4BE38BD94980D0046
:1073CC0008B50078FFF7B8FBC0B208BD30B587B080
:1073DC0004460A9D00780095FFF7CEFB3DB902A943
:1073EC002078FFF7D1FB9DF81430DB07F7D407B0FA
:1073FC0030BD0078FFF7B0BB10B50446006818B17B
:10740C00FFF75EFE0023236010BD10B50446FFF7A6
:10741C00F3FF204610BD000010B5094C00204FF6BC
:10742C00FF732060A080A07120816381FFF79CFD19
:10743C002046044A0449BDE8104001F00FBB00BFD0
:10744C00B4E1032054DB032017740D0010B504467F
:10745C000068FFF735FE204610BD10B504460068E5
:10746C0008B1FFF72DFE00232360A360636010BDFD
:10747C0038B504460D4600680131FFF729FE10B1FE
:10748C0084E82100012038BD10B50368044613B10F
:10749C0043688B4207D22046FFF7EAFF20B1A3686E
:1074AC000BB922681370012010BD70B50E46114641
:1074BC0004461546FFF7E8FF18B92046FFF7CDFF45
:1074CC0009E02A463146A560206802F068F8226877
:1074DC00A3680021D154204670BD38B50023044662
:1074EC0003604360836003730D4639B1084602F0B4
:1074FC0091F8294602462046FFF7D7FF204638BDB3
:10750C0038B505460C4641B1084602F083F82146D1
:10751C0002462846FFF7C9FF01E0FFF79EFF284609
:10752C0038BD10B50446006808B1FFF7DDFB2046F6
:10753C0010BD000010B5064C002320462360FFF759
:10754C00CBFB2046034A0449BDE8104001F086BA43
:10755C00C0E1032054DB03202F750D00F8B506465F
:10756C000D468F180024BD420CD0336815F8011B52
:10757C009B6830469847002801DB0444F3E7002C55
:10758C0008BF04462046F8BD08B5FEF7EBFB08BD66
:10759C0003689B68184738B50D210546FFF7F8FFBF
:1075AC000A2104462846FFF7F3FF204438BD38B5BE
:1075BC000546FEF7D7FB04462846FFF7ECFF2044B0
:1075CC0038BD30B58BB00B4600218DF82410012A44
:1075DC0098BF0A220DF12304B3FBF2F505FB12331D
:1075EC0003F0FF03092B94BF30333733DBB2214652
:1075FC0004F801392B46002DEED1FEF7B3FB0BB08E
:10760C0030BD0CB42DE9F04387B000AF07F138045E
:10761C00054654F8049B3C600E4623464A4614210A
:10762C00381DFFF75DFD132805D8391D2846FEF7D8
:10763C0099FB044613E000F1080323F00703E84626
:10764C00ADEB030D411C23464A4668463C60FFF7F0
:10765C0047FD69462846FEF785FB0446C5461EB124
:10766C002846FFF798FF044420461C37BD46BDE86A
:10767C00F04302B0704710B50446FFF7BDFAE06066
:10768C00236820465B699847002808DAFFF7B4FAAC
:10769C00E368C01AA3689842F2D34FF0FF3010BDD4
:1076AC002DE9F04180460D468F180C46BC42A4EBE8
:1076BC00050607D04046FFF7DEFF002802DB04F882
:1076CC00010BF3E73046BDE8F0810000014B024AA4
:1076DC001A607047C4E103200F990D0008B5002013
:1076EC00FFF7D6FC28B1FFF7C3FC80F00100C0B255
:1076FC0008BD012008BD10B50020FFF79DFA044617
:10770C0068B9FFF729FC01280BD12046FFF73CFC98
:10771C0038B9FFF7E3FF30B9FFF7A2FCF9E7012016
:10772C0010BD002010BDFFF7D9FF0020FFF784FA31
:10773C00003018BF012010BD08B5FFF7DCFFBDE815
:10774C000840FFF761BA0000024B1A68024B1A603E
:10775C00704700BFECDA0320C8E103200021FFF7DB
:10776C000BBC10B50446FDF71FFA204610BD0000F7
:10777C000348044A04490023836001F06FB900BF39
:10778C00CCE1032054DB03206F770D00007D7047A4
:10779C00037D1BB18369B3F1004F02D19FED050A44
:1077AC00704707EE903A9FED047AF8EEE77A87EE91
:1077BC00870A7047000000000000C842037D1BB11F
:1077CC00036AB3F1004F02D19FED050A704707EE33
:1077DC00903A9FED047AF8EEE77A87EE870A7047C5
:1077EC00000000000000C842037D7BB1436A002BFF
:1077FC000CDB07EE903ADFED076A9FED070AB8EE57
:10780C00E77AC7EE267A27EE800A7047BFEE000AA9
:10781C00704700BF00FF7F470000C842037D7BB16B
:10782C00C369002B0CDB07EE903ADFED076A9FED86
:10783C00070AB8EEE77AC7EE267A27EE800A704779
:10784C00BFEE000A704700BF00FF7F470000C84230
:10785C002DE9F04107460C4615462AB90368C9B212
:10786C009B68BDE8F0411847002907DA0A2A05D1C0
:10787C002D21FFF78DFE6142064601E021460026D0
:10788C00EAB23846FFF79DFE3044BDE8F08170B592
:10789C000D4606460A2281682846FFF7D9FF2C219F
:1078AC0004462846FFF774FE0A220444F168284671
:1078BC00FFF7CEFF204470BDA0F10400FFF7E7BF37
:1078CC00006800F088BB10B50446016002710AB173
:1078DC00FFF7F6FF204610BD38B504460D4601F003
:1078EC0097F82A4601462046FFF7EDFF204638BDA3
:1078FC00006800F079BB10B5037904460BB1FFF7B3
:10790C00F7FF204610BDF8B5044616461D460F4637
:10791C00FFF7D6FF2068362100F052FB2068036881
:10792C0039469B6898470121206800F04CFB0222E5
:10793C0036210123206800F02DFB206803685B6969
:10794C0098473070206803685B6998472870204618
:10795C00BDE8F840FFF7CCBF07B502AB002203F837
:10796C00012D8DF8062004210DF10602FFF7CBFF47
:10797C009DF8070001F02EFB0022094B01F090FB53
:10798C0001F0A0FD9DF8063000EE103A07EE900ACB
:10799C00B8EEC00A37EE800A03B05DF804FB00BFF6
:1079AC000000703F08B50C4B33B100F077F9036859
:1079BC001B699847002809DC084B63B100F06AFA90
:1079CC0003681B699847002803DC08BDAFF30080EF
:1079DC00F2E7AFF3008008BD0000000000000000DB
:1079EC0008B5FFF7DFFFFFF707F9014B186008BD7B
:1079FC0028E503200248034A0349121A01F0CFBDBF
:107A0C0000F4032004F40320A09C0D0007B5002310
:107A1C0000931A466FF07701FFF7C8FA03B05DF8D0
:107A2C0004FB000007B543880A2B08D0502B09D162
:107A3C00094B1B683BB103B05DF804EB1847FFF72B
:107A4C00E5FF06E0002300931A466FF07701FFF77D
:107A5C00ADFA03B05DF804FBDCE1032038B5104C43
:107A6C00104D2368AB42104B0CBF012200221A7040
:107A7C0002D0FFF7BFFF2560FFF7AEF8044601F018
:107A8C00A1FD0A4B13B12046AFF30080002107483B
:107A9C00FFF706FB00210648BDE83840FFF77CBA2B
:107AAC0000F403201E1C279AE0E1032000000000D4
:107ABC00317A0D00704710B51821044600F0DCFF38
:107ACC00204610BDF0B5037D062B8DB00E4600F19F
:107ADC0004074FF0000402D000F1080518E00CADCB
:107AEC00394605F8304D2F232A460A20FFF70CF9AA
:107AFC00284601F08FFD33680246DB682946304684
:107B0C0098470FE024B12E213046FFF741FD044485
:107B1C0015F8011D0A223046FFF753FDBD420444FF
:107B2C00F0D120460DB0F0BD10B5054B0446112226
:107B3C0040F8043B002101F03DFD204610BD00BF84
:107B4C00E0990D000346074A10B543F8042B01F1E8
:107B5C00100251F8044B43F8044B9142F9D10A78C6
:107B6C001A7010BDE0990D00037D042B01D1406803
:107B7C0008E0062B0AD1436853B9836843B9C3683C
:107B8C0033B90069003018BF0120704700207047DE
:107B9C000120704710B59DF8084044EA032343EADE
:107BAC00024242EA016104234160037510BD37B5FE
:107BBC000D788B784A78C97800912946FFF7EAFF4F
:107BCC0003B030BD10B5034B03600446FFF7EFFF65
:107BDC00204610BDE0990D0041747047704708B500
:107BEC000021007CFFF798F930EA200028BF4FF005
:107BFC00FF3008BD08B50121007CFFF78DF930EA94
:107C0C00200028BF4FF0FF3008BD08B5007CFFF7FF
:107C1C007BF920EAE07008BD08B5007CFFF76CF931
:107C2C0020EAE07008BD007CFFF786B910B514217E
:107C3C00044600F021FF204610BD38B50446007CF8
:107C4C000D46FFF761F9002801DC607C28B129465C
:107C5C00207CFFF769F920EAE07038BD10B50446C6
:107C6C00002363604FF47A73A360054B23600123F8
:107C7C000846217463741146FFF72EF9204610BD97
:107C8C00F4990D000022007CFFF72EB910B51422D8
:107C9C000446002101F08EFC204610BD30B50E4D7F
:107CAC0087B001A8FFF7F2FF296811F0010410D189
:107CBC002846FCF7F2F960B101AA21460748FFF704
:107CCC00CDFF2846FCF7EEF9054A0649034800F0BB
:107CDC00C5FE024807B030BDE4E10320E8E1032013
:107CEC0054DB0320E97B0D0000470000F0B585B0A4
:107CFC001C460E4617460546FEF7E6FE002084425B
:107D0C004FF0040303908DF80C30A5BF9DF828307C
:107D1C008DF80E30034603AB009332463B460649C2
:107D2C00A8BF8DF80D402846FEF7C6FEB0FA80F0CD
:107D3C00400905B0F0BD00BFF57C0D00FEF7D4BEC8
:107D4C00FEF7CABE002211464068FFF751B9002267
:107D5C0011464068FFF76CB9002211464068FFF7E6
:107D6C0077B900224068FFF76BB9002281F001015E
:107D7C004068FFF755B900231A4619464068FFF7CB
:107D8C0047B900231A4619464068FFF739B9002253
:107D9C0011464068FFF71CB9002202214068FFF72A
:107DAC001FB900231A464068FFF70AB938B5084CCA
:107DBC0028252A460021204601F0FCFB4FF0FF331A
:107DCC006360044B258004225A60034A1A6038BD54
:107DDC0004E20320FCE10320249A0D007047417457
:107DEC00704708B5007CFEF7DFFF20EAE07008BDA5
:107DFC0008B5007CFEF7B0FF20EAE07008BD08B5BE
:107E0C00007CFEF7B9FF30EA200028BF4FF0FF30AE
:107E1C0008BD08B5007CFEF7A7FF30EA200028BF9C
:107E2C004FF0FF3008BD007CFEF7AEBF10B514213B
:107E3C00044600F021FE204610BD70B5457C04467A
:107E4C000E4625B9007CFEF7AFFF002805DD314654
:107E5C00207CBDE87040FEF777BF284670BD00005F
:107E6C0010B5044608461146002262604FF47A723F
:107E7C00A260054A22600122207462741A46FEF741
:107E8C005BFF204610BD00BF589A0D00007CFEF72A
:107E9C0083BF000038B50C4D296811F0010411D1D5
:107EAC002846FCF7FAF868B1084A094B09482146FC
:107EBC00FFF7D6FF2846FCF7F5F8074A07490548AF
:107ECC0000F0CCFD034838BDC4E20320C8E2032017
:107EDC0040E203202CE2032054DB0320E97D0D005B
:107EEC007047F8B5064615460C468F18BC4206D0AE
:107EFC00336814F8011B9B6830469847F6E7284610
:107F0C00F8BD0022007CFEF767BF0021007CFEF765
:107F1C006BBF0021007CFEF76FBF0021007CFEF7D9
:107F2C0073BF0021007CFEF777BF10B51421044607
:107F3C0000F0A2FD204610BD10B50446002363607E
:107F4C004FF47A73A360044B2174084623601146E6
:107F5C00FEF772FF204610BD889A0D0070B50C46D6
:107F6C0086B0142506462A46002101A801F022FB02
:107F7C0023788DF8083063680393E3680493002238
:107F8C00237A307CADF8045001A90593FEF76CFF01
:107F9C0006B070BD1FB500338DF800104FF06401B2
:107FAC00039118BF0123694601928DF80830FFF741
:107FBC00D5FF05B05DF804FB0022007CFEF7FCBE8B
:107FCC00C9B2FFF7F9BF0022007CFEF7FDBE00210D
:107FDC00007CFEF729BF08B50021007CFEF734FFBA
:107FEC00B0FA80F0400908BD08B50021007CFEF70E
:107FFC0033FFB0FA80F0400908BD002211464068FA
:10800C00FFF716B8002211464068FFF721B800228E
:10801C004068FFF715B8002281F001014068FEF7B7
:10802C00FFBF00231A4601214068FEF7F1BF002371
:10803C001A4619464068FEF7E3BF00221146406815
:10804C00FEF7D6BF002211464068FEF7C1BF0022E2
:10805C0002214068FEF7C4BF00231A464068FEF7B1
:10806C00AFBF38B5054688B104684CB1A3681BB1E5
:10807C0003222146204698471021204600F0FCFCA4
:10808C0028461421BDE8384000F0F6BC38BD10B1CC
:10809C0003685B681847704710B503680446BBB1AA
:1080AC005868FEF7D1FD78B923685A7C12B9586824
:1080BC00FEF7DAFD23685868FEF7DEFD2068002322
:1080CC00236028B1FFF7CDFF206808B1FFF7C9FF87
:1080DC00204610BD38B50446D0F8C40108B1FBF7F2
:1080EC00DAFFD4F8C00108B1FEF7FEFDD4F8BC519C
:1080FC0035B12846FFF7D0FF0421284600F0BCFC20
:10810C00206808B1FFF7C3FF204638BD10B5044BFB
:10811C00044640F8083BFFF7DDFF204610BD00BFCA
:10812C00B09A0D0038B50E4C0E4B2360002502237F
:10813C0004F5E4706360A560C4F8C451C4F8C85178
:10814C00FEF7CAFD084BC4F8CC5184F8D05123601B
:10815C002046064A0649BDE8384000F07FBC00BF07
:10816C004CE30320649B0D00B09A0D0054DB0320FC
:10817C0019810D0037B502AC036804F8011DDD6BE5
:10818C0001224FF0FF332146A84703B030BD10B495
:10819C000368DC6B4FF0FF33A4465DF8044B60477B
:1081AC0037B502AC036804F8011DDD6B214613469C
:1081BC000122A84703B030BD704738B543691A682F
:1081CC00002A044605DAB3F88620B3F884309A42C4
:1081DC0001D001250BE003681B699847002814BFE8
:1081EC000125002503D123682046DB6A98472846E1
:1081FC0038BD43691868C043C00F704770470020F2
:10820C00704710B51421044600F036FC204610BD12
:10821C00FBF73FBF7FB516460022426002920392E5
:10822C005A1C04460D4608D04FF47A72B3FBF2F197
:10823C00029102FB11314A430392606908230093B7
:10824C0041F205026B4440F6FF710068FEF714FE24
:10825C00002808DB60690023324629460068FEF7D7
:10826C002BFE002804DAFEF743FF0368636000204E
:10827C0004B070BD10B5036804469B689847A368AA
:10828C00013BA3602BB923682046DB68BDE8104096
:10829C00184710BD70B504464D69054B44F8043BB6
:1082AC008C3506460FCD0FC42B682370304670BD3D
:1082BC00E0990D0010B54369B3F88620B3F884300B
:1082CC009A42044605D06269B2F884301344187996
:1082DC0010BD03681B6998470028F4D14FF0FF309C
:1082EC0010BD10B54369B3F88620B3F884309A42B8
:1082FC00044608D06269B2F88430591C1344A2F8C1
:10830C008410187910BD03681B6998470028F1D1B7
:10831C004FF0FF3010BDF8B543691746B3F886200F
:10832C00B3F884309A4205460E4606D103681B69A1
:10833C00984710B94FF0FF3414E06969B1F88430F4
:10834C00B1F88640E41ABC4228BF3C461944224688
:10835C000431304601F023F96A69B2F884302344C1
:10836C00A2F884302046F8BD2DE9F0439846036806
:10837C0093B0DB6A0D4606461746984712AB0024AD
:10838C0043F8484D224621462846FEF765FB8146B8
:10839C0000283DD1009B002B56D05B69002B53D09D
:1083AC0006A8FFF7C1FB009B5C696378022B01D127
:1083BC00211D13E00A2B14D11122494601A801F00A
:1083CC00F9F8A36833BBE36823BB4FF6FF7025694C
:1083DC00FEF7A2FC85421DD104F1140106A8FFF79B
:1083EC00E6FB06A8FFF7C0FB00282DD0336807ADCD
:1083FC00D3F82090184B0C930FCD0DAC0FC42B68F9
:10840C0023703A4643460CA93046C84781461BE0C8
:10841C00A14619E004F1080301AD18341868596835
:10842C002A4603C20833A3421546F7D1062301A9F5
:10843C000CA80DAD8DF81430FFF784FB0FCD07ACF5
:10844C000FC42B682370CCE70098FEF7FDFA484662
:10845C0013B0BDE8F08300BFE0990D004269002322
:10846C00A2F884304269A2F8863070472DE9F041B9
:10847C001E4603680C468AB0DB6A054617469847C9
:10848C00237DD5F81480042B0CBF02200A20062271
:10849C000121FEF719FDC8F800006B691B68002B61
:1084AC0018DB2846FFF7DAFFD6B1002303A9F0B298
:1084BC000393ADF81030FEF787FB58B968690623B3
:1084CC00009341F20B0203AB40F6FF710068FEF71C
:1084DC00D3FC28B12B682846DB6A002498473BE084
:1084EC001C263246002103A801F064F8237D8DF888
:1084FC000C60042B0CD1022338468DF80D30FEF79E
:10850C0013FCADF80E006068FEF706FC049013E057
:10851C000A2338468DF80D30FEF706FC05AEADF893
:10852C000E00231D04F1140718685968324603C263
:10853C000833BB421646F7D16B691C2203A9186895
:10854C00FEF7AAFC0028C5D104340FCC6D698C351C
:10855C000FC523682B70012420460AB0BDE8F081BA
:10856C0010B5436904461868002801DBFEF78CFC43
:10857C0063694FF0FF321A606069112200218C3060
:10858C0001F018F82046BDE81040FFF767BF000067
:10859C0030B54269B2F886308BB004461BB1B2F8E4
:1085AC0084209A4240D06369186800283FDBB3F8F6
:1085BC0086507F2D3BD8191DC5F180020823294414
:1085CC00FEF772FC00280CDD6369B3F886200AB94B
:1085DC00A3F884206269B2F886301844A2F88600A9
:1085EC0025E0FEF785FD03680B2B20D0FEF780FD00
:1085FC0003680B2B1BD02023002502930395FEF759
:10860C0077FD036801930E4B009302AA2B460D498C
:10861C003220FEF799FC63691868FEF735FC636934
:10862C004FF0FF321A6002E0FFF718FFBBE76269F8
:10863C00B2F88630B2F88400181A0BB030BD00BF07
:10864C004B9B0D00449B0D0010B5002304460160AC
:10865C00A0F88430A0F886308830FFF765FA204601
:10866C0010BD00004FF47A7270B500238260144A7A
:10867C0043600260436183610446A0200E46FBF711
:10868C0004FD054610B13146FFF7DEFF1420FBF761
:10869C00FCFC034628B1012242608260094A026058
:1086AC000561A0696561A36128B14368013B436022
:1086BC000BB9FFF7DFFD2046FFF7D0FE204670BD5B
:1086CC00009B0D00E49A0D0010B54FF0FF310446ED
:1086DC00FFF7C8FF204610BD10B5044600680028FF
:1086EC0001DBFEF7D1FB204610BD10B50469204616
:1086FC00FFF7F2FF24B12046BDE81040FBF7C9BCE0
:10870C0010BD00231A464068FEF75ABC0022022115
:10871C004068FEF765BC002211464068FEF758BC65
:10872C00002211464068FEF763BC00231A46194626
:10873C004068FEF765BC00231A4619464068FEF7F0
:10874C0067BC002281F001014068FEF769BC002281
:10875C004068FEF775BC002211464068FEF778BCF5
:10876C00002211464068FEF763BC2DE9F04300245B
:10877C0095B016460D460746FFF7D6F9214620223E
:10878C000CA8009400F016FF40230C9321466B4676
:10879C000CAA3046FEF760F90446002844D1024684
:1087AC0001216868FEF724FC022180462246686895
:1087BC00FEF71EFC009E81462146002E34D0002977
:1087CC0032D17368022B02D00A2B09D02AE0B8F1FF
:1087DC00000F27D0716938460431FFF7E8F920E023
:1087EC00B9F1000F1ED07469112201A800F0E2FE4D
:1087FC0006238DF8143001AD04F108031834186801
:10880C0059682A4603C20833A3421546F7D101A979
:10881C0006A807ADFFF796F90FCD3C1D0FC42B68CA
:10882C0023700121F669C8E70098FEF70DF9384668
:10883C0015B0BDE8F0830000024B034A1A60002219
:10884C005A60704720E50320649B0D0070B5184EEC
:10885C00316811F0010504460AD13046FBF71DFCC6
:10886C0030B129461348FEF78FFC3046FBF71AFC53
:10887C001048FEF7BEFD28B1A4F10B03022B01D862
:10888C00002070BD00F09EF8FFF7A1FB08B1012C91
:10889C00F6D9FFF7FFFAFFF7F9FA18B1A4F10903BB
:1088AC00012BEDD9232C8CBF0020012070BD00BF03
:1088BC00E4DB0320E8DB0320232838B504460D460F
:1088CC000AD8FF2908D0FFF7C1FF28B12946204656
:1088DC00BDE83840FEF7D0B838BD38B504460D4673
:1088EC00FEF7D2F8FF2810D0062804D84D2323FA1F
:1088FC0000F0C30709D42046FFF7A8FF28B129468A
:10890C002046BDE83840FEF7C7B838BD10B5044660
:10891C00FEF7BAF80438C0B2012808D92046FFF790
:10892C0095FF20B12046BDE81040FEF7BDB80020F1
:10893C0010BD000010B5074C2368DB0708D4204697
:10894C00FBF7ABFB20B1FEF767F92046FBF7AAFB60
:10895C00014810BD2CE5032030E5032070B504461A
:10896C0014252A46094E002100F024FE25802025DE
:10897C003146A5602561284600F080F831466060DC
:10898C00284600F07BF8E060204670BD909B0D00FF
:10899C0070B5044614252A46094E002100F00AFE43
:1089AC00258020253146A5602561284600F066F813
:1089BC0031466060284600F061F8E060204670BDEA
:1089CC00909B0D0030B50E4D296811F0010487B055
:1089DC0013D12846FBF761FB78B101A8FFF7BEFF66
:1089EC0001AA21460748FFF7A7FA2846FBF75AFBCE
:1089FC00054A0649034800F031F8024807B030BD7B
:108A0C0034E503204CE5032054DB0320ED7E0D0000
:108A1C0010B50E4C2368DB0786B013D42046FBF749
:108A2C003CFB78B101A8FFF7B3FF01AA012108486C
:108A3C00FFF782FA2046FBF735FB064A0649044845
:108A4C0000F00CF8024806B010BD00BF60E5032032
:108A5C0038E5032054DB0320ED7E0D000B46014668
:108A6C00184600F07FBD0000024B1868BFF35F8F03
:108A7C00704700BF64E50320FBF70BBB00F000B8A8
:108A8C0010B5002814BF044601242046FEF710FB45
:108A9C0020B9FFF7E9FF08B18047F6E710BD0000E9
:108AAC00184B1A68D1075CBF01221A60164B1A6862
:108ABC00D2075CBF01221A60144B1A68D0075CBF46
:108ACC0001221A60124B1A68D1075CBF01221A608E
:108ADC00104B1A68D2075CBF01221A600E4B1A6841
:108AEC00D0075CBF01221A600C4B1A68D1075CBF1F
:108AFC0001221A600A4B1A68D2075CBF01221A6065
:108B0C00704700BF84E5032080E503207CE503204B
:108B1C0078E5032074E5032070E503206CE5032061
:108B2C0068E50320244B1A68D0075CBF01221A6049
:108B3C00224B1A68D1075CBF01221A60204B1A68BD
:108B4C00D2075CBF01221A601E4B1A68D0075CBFAB
:108B5C0001221A601C4B1A68D1075CBF01221A60F3
:108B6C001A4B1A68D2075CBF01221A60184B1A689C
:108B7C00D0075CBF01221A60164B1A68D1075CBF84
:108B8C0001221A60144B1A68D2075CBF01221A60CA
:108B9C00124B1A68D0075CBF01221A60104B1A687E
:108BAC00D1075CBF01221A600E4B1A68D2075CBF5A
:108BBC0001221A60704700BFB4E50320B0E5032022
:108BCC00ACE50320A8E50320A4E50320A0E50320E1
:108BDC009CE5032098E5032094E5032090E5032011
:108BEC008CE5032088E50320244B1A68D0075CBF72
:108BFC0001221A60224B1A68D1075CBF01221A604D
:108C0C00204B1A68D2075CBF01221A601E4B1A68EF
:108C1C00D0075CBF01221A601C4B1A68D1075CBFDD
:108C2C0001221A601A4B1A68D2075CBF01221A6023
:108C3C00184B1A68D0075CBF01221A60164B1A68D1
:108C4C00D1075CBF01221A60144B1A68D2075CBFB3
:108C5C0001221A60124B1A68D0075CBF01221A60FD
:108C6C00104B1A68D1075CBF01221A600E4B1A68B0
:108C7C00D2075CBF01221A60704700BFE4E50320F5
:108C8C00E0E50320DCE50320D8E50320D4E5032050
:108C9C00D0E50320CCE50320C8E50320C4E5032080
:108CAC00C0E50320BCE50320B8E50320184B1A6887
:108CBC00D1075CBF01221A60164B1A68D2075CBF41
:108CCC0001221A60144B1A68D0075CBF01221A608B
:108CDC00124B1A68D1075CBF01221A60104B1A683C
:108CEC00D2075CBF01221A600E4B1A68D0075CBF1A
:108CFC0001221A600C4B1A68D1075CBF01221A6062
:108D0C000A4B1A68D2075CBF01221A60704700BF79
:108D1C0004E6032000E60320FCE50320F8E503202D
:108D2C00F4E50320F0E50320ECE50320E8E503205F
:108D3C0081F0004102E000BF83F0004330B54FEA00
:108D4C0041044FEA430594EA050F08BF90EA020F6D
:108D5C001FBF54EA000C55EA020C7FEA645C7FEA00
:108D6C00655C00F0E2804FEA5454D4EB5555B8BF23
:108D7C006D420CDD2C4480EA020281EA030382EA94
:108D8C00000083EA010180EA020281EA0303362D26
:108D9C0088BF30BD11F0004F4FEA01314FF4801CF9
:108DAC004CEA113102D0404261EB410113F0004F0B
:108DBC004FEA03334CEA133302D0524263EB4303C2
:108DCC0094EA050F00F0A780A4F10104D5F1200E60
:108DDC000DDB02FA0EFC22FA05F2801841F10001BB
:108DEC0003FA0EF2801843FA05F359410EE0A5F18F
:108DFC0020050EF1200E012A03FA0EFC28BF4CF0C0
:108E0C00020C43FA05F3C01851EBE37101F0004575
:108E1C0007D54FF0000EDCF1000C7EEB00006EEB82
:108E2C000101B1F5801F1BD3B1F5001F0CD349080C
:108E3C005FEA30004FEA3C0C04F101044FEA445263
:108E4C0012F5800F80F09A80BCF1004F08BF5FEAEA
:108E5C00500C50F1000041EB045141EA050130BDCA
:108E6C005FEA4C0C404141EB010111F4801FA4F16D
:108E7C000104E9D191F0000F04BF01460020B1FAC2
:108E8C0081F308BF2033A3F10B03B3F120020CDAFA
:108E9C000C3208DD02F1140CC2F10C0201FA0CF0D8
:108EAC0021FA02F10CE002F11402D8BFC2F1200C3D
:108EBC0001FA02F120FA0CFCDCBF41EA0C019040F3
:108ECC00E41AA2BF01EB0451294330BD6FEA04043C
:108EDC001F3C1CDA0C340EDC04F11404C4F1200227
:108EEC0020FA04F001FA02F340EA030021FA04F339
:108EFC0045EA030130BDC4F10C04C4F1200220FA90
:108F0C0002F001FA04F340EA0300294630BD21FACD
:108F1C0004F0294630BD94F0000F83F4801306BF93
:108F2C0081F480110134013D4EE77FEA645C18BF87
:108F3C007FEA655C29D094EA050F08BF90EA020F1E
:108F4C0005D054EA000C04BF1946104630BD91EA16
:108F5C00030F1EBF0021002030BD5FEA545C05D119
:108F6C004000494128BF41F0004130BD14F5800458
:108F7C003CBF01F5801130BD01F0004545F0FE41CC
:108F8C0041F470014FF0000030BD7FEA645C1ABF01
:108F9C00194610467FEA655C1CBF0B46024650EA38
:108FAC00013406BF52EA033591EA030F41F4002164
:108FBC0030BD00BF90F0000F04BF0021704730B5EA
:108FCC004FF4806404F132044FF000054FF00001BF
:108FDC0050E700BF90F0000F04BF0021704730B580
:108FEC004FF4806404F1320410F0004548BF404255
:108FFC004FF000013EE700BF42004FEAE2014FEAAA
:10900C0031014FEA02701FBF12F07F4393F07F4F84
:10901C0081F06051704792F0000F14BF93F07F4FB6
:10902C00704730B54FF4607401F0004521F00041F9
:10903C0020E700BF50EA010208BF704730B54FF07F
:10904C0000050AE050EA010208BF704730B511F084
:10905C00004502D5404261EB41014FF4806404F1BC
:10906C0032045FEA915C3FF4DCAE4FF003025FEA3E
:10907C00DC0C18BF03325FEADC0C18BF033202EBC6
:10908C00DC02C2F1200300FA03FC20FA02F001FA20
:10909C0003FE40EA0E0021FA02F11444C1E600BFBF
:1090AC0070B54FF0FF0C4CF4E06C1CEA11541DBF72
:1090BC001CEA135594EA0C0F95EA0C0F00F0DEF83D
:1090CC002C4481EA030621EA4C5123EA4C5350EA22
:1090DC00013518BF52EA033541F4801143F4801373
:1090EC0038D0A0FB02CE4FF00005E1FB02E506F004
:1090FC000042E0FB03E54FF00006E1FB03569CF059
:10910C00000F18BF4EF0010EA4F1FF04B6F5007F5E
:10911C0064F5407404D25FEA4E0E6D4146EB0606D0
:10912C0042EAC62141EA55514FEAC52040EA5E5059
:10913C004FEACE2EB4F1FD0C88BFBCF5E06F1ED803
:10914C00BEF1004F08BF5FEA500E50F1000041EB3A
:10915C00045170BD06F0004646EA010140EA0200E7
:10916C0081EA0301B4EB5C04C2BFD4EB0C0541EA09
:10917C00045170BD41F480114FF0000E013C00F31E
:10918C00AB8014F1360FDEBF002001F0004170BD42
:10919C00C4F10004203C35DA0C341BDC04F114045B
:1091AC00C4F1200500FA05F320FA04F001FA05F2E7
:1091BC0040EA020001F0004221F0004110EBD370B4
:1091CC0021FA04F642EB06015EEA430E08BF20EAE0
:1091DC00D37070BDC4F10C04C4F1200500FA04F383
:1091EC0020FA05F001FA04F240EA020001F0004115
:1091FC0010EBD37041F100015EEA430E08BF20EA88
:10920C00D37070BDC4F1200500FA05F24EEA020ECF
:10921C0020FA04F301FA05F243EA020321FA04F0FE
:10922C0001F0004121FA04F220EA020000EBD370B5
:10923C005EEA430E08BF20EAD37070BD94F0000FB5
:10924C000FD101F00046400041EB010111F4801FE9
:10925C0008BF013CF7D041EA060195F0000F18BF9A
:10926C00704703F00046520043EB030313F4801FD6
:10927C0008BF013DF7D043EA0603704794EA0C0F90
:10928C000CEA135518BF95EA0C0F0CD050EA4106A6
:10929C0018BF52EA4306D1D181EA030101F0004123
:1092AC004FF0000070BD50EA410606BF104619464B
:1092BC0052EA430619D094EA0C0F02D150EA013657
:1092CC0013D195EA0C0F05D152EA03361CBF104698
:1092DC0019460AD181EA030101F0004141F0FE4137
:1092EC0041F470014FF0000070BD41F0FE4141F4BB
:1092FC00780170BD70B54FF0FF0C4CF4E06C1CEABB
:10930C0011541DBF1CEA135594EA0C0F95EA0C0F6F
:10931C0000F0A7F8A4EB050481EA030E52EA03352A
:10932C004FEA013100F088804FEA03334FF080554B
:10933C0045EA131343EA12634FEA022245EA111578
:10934C0045EA10654FEA00260EF000419D4208BF29
:10935C00964244F1FD0404F5407402D25B084FEAD6
:10936C003202B61A65EB03055B084FEA32024FF482
:10937C0080104FF4002CB6EB020E75EB030E22BFDF
:10938C00B61A754640EA0C005B084FEA3202B6EB9F
:10939C00020E75EB030E22BFB61A754640EA5C004E
:1093AC005B084FEA3202B6EB020E75EB030E22BFDE
:1093BC00B61A754640EA9C005B084FEA3202B6EBDF
:1093CC00020E75EB030E22BFB61A754640EADC009E
:1093DC0055EA060E18D04FEA051545EA16754FEA00
:1093EC0006164FEAC30343EA52734FEAC2025FEA1E
:1093FC001C1CC0D111F4801F0BD141EA00014FF0AD
:10940C0000004FF0004CB6E711F4801F04BF01437D
:10941C000020B4F1FD0C88BFBCF5E06F3FF6AFAE99
:10942C00B5EB030C04BFB6EB020C5FEA500C50F129
:10943C00000041EB045170BD0EF0004E4EEA1131AC
:10944C0014EB5C04C2BFD4EB0C0541EA045170BDB3
:10945C0041F480114FF0000E013C90E645EA060EF7
:10946C008DE60CEA135594EA0C0F08BF95EA0C0F25
:10947C003FF43BAF94EA0C0F0AD150EA01347FF46D
:10948C0034AF95EA0C0F7FF425AF104619462CE744
:10949C0095EA0C0F06D152EA03353FF4FDAE1046A7
:1094AC00194622E750EA410618BF52EA43067FF4F8
:1094BC00C5AE50EA41047FF40DAF52EA43057FF488
:1094CC00EBAE12E74FEA4102B2F1E04324BFB3F531
:1094DC00001CDCF1FE5C0DD901F0004C4FEAC0021F
:1094EC004CEA5070B2F1004F40EB830008BF20F003
:1094FC000100704711F0804F21D113F13872BCBFBD
:10950C0001F00040704741F480114FEA5252C2F111
:10951C001802C2F1200C10FA0CF320FA02F018BF5A
:10952C0040F001004FEAC1234FEAD32303FA0CFCAD
:10953C0040EA0C0023FA02F34FEA4303CCE77FEA3C
:10954C00625307D150EA01331EBF4FF0FE4040F486
:10955C004000704701F0004040F0FE4040F4000035
:10956C00704700BF10B5054C13462CB10A46014696
:10957C000220AFF3008010BD204610BD000000009B
:10958C0010B501390244904207D010F8013B11F894
:10959C00014FA342F7D0181B10BD002010BD10B511
:1095AC00431E0A44914204D011F8014B03F8014FB9
:1095BC00F8E710BD02440346934202D003F8011BA6
:1095CC00FAE7704738B5124B1C68A36B0546D3B944
:1095DC001820FDF76DFD43F20E33A06303804AF6AD
:1095EC00CD33438041F2342383804EF26D63C380CC
:1095FC004DF6EC630381052343810B238381012208
:10960C000023C0E90423A36B00221D615A6138BDFD
:10961C0050DB0320034613F8012B002AFBD1181A48
:10962C00013870471D400D0059400D0085400D005C
:10963C0089400D000000000030007D0A00534552A7
:10964C0049414C20444154412053455454494E47C0
:10965C0053202D2D3E207B005265636F6E6E65632B
:10966C0074696E67005055424C4953482046414935
:10967C004C4544000A4465766963652049443A20A8
:10968C00000A54657374696E6720454550524F4DFE
:10969C003A000A507265737320627574746F6E2091
:1096AC00666F723A2000205365636F6E6473000A14
:1096BC0054657374696E6720427574746F6E3A00EA
:1096CC000A54657374696E672056616C76653A004E
:1096DC000A54657374696E67205344204361726445
:1096EC003A000A54657374696E6720526164696F3D
:1096FC003A000A556E6B6E6F776E20636F6D6D61FD
:10970C006E64005553494E472044454641554C54D0
:10971C002053455454494E4753005553494E472006
:10972C0053455454494E47532046524F4D204D45B6
:10973C004D4F525900746573742E62726F6B657263
:10974C002E636F6D000000000000000000000000A0
:10975C00E54B0D002D4C0D006D4B0D000000000075
:10976C0000000000194D0D0000000000000000007A
:10977C00174D0D00AF4D0D00894D0D007D4D0D00A9
:10978C00F94C0D00F34D0D00774D0D00714D0D0092
:10979C000000000000000000154D0D00A14D0D0053
:1097AC00BD4D0D00834D0D0064656661756C7420B4
:1097BC00004D5342004C5342003C53504953657486
:1097CC0074696E67732064656661756C743E003CE9
:1097DC0053504953657474696E6773202573256CF7
:1097EC0075202573204D4F444525643E00253032AD
:1097FC00582530325825303258253032582E4C4F9F
:10980C0047002F0052464D363920494E49542045C9
:10981C0052524F52004947482D52464D3639484313
:10982C00572D4B4559003C544553543E003C544530
:10983C0053543A4F4B3E0000044D5154540400060F
:10984C004D514973647003000000000000000000DB
:10985C00B5660D0000000000000000006B710D00EB
:10986C0061710D0057710D004D710D0041710D00AE
:10987C0035710D0029710D0021710D0017710D004E
:10988C000D710D0077870D00000810182028303856
:10989C00626175640053657269616C00536572692D
:1098AC00616C31007479706500706172616D006378
:1098BC006D6400696400686E64007374726D006698
:1098CC00696C74006C766C0061646448616E646CE5
:1098DC0065720072656D6F766548616E646C657259
:1098EC0000656E756D48616E646C657273004A53E9
:1098FC004F4E53747265616D4C6F6748616E646C4A
:10990C0065720061707000253031307520005D206B
:10991C00002C200028293A2000205B00636F64652E
:10992C00203D200025690064657461696C73203DDD
:10993C0020000D0A0066006C6E00666E00636F649A
:10994C00650064657461696C006E6F6E650074729D
:10995C0061636500696E666F007761726E00657297
:10996C00726F720070616E696300616C6C005A00FA
:10997C00252B3033643A253032750025592D256D51
:10998C002D25645425483A254D3A2553257A0061F6
:10999C00736374696D650000000000000000000036
:1099AC00D14E0D00D34E0D0099770D0029780D0086
:1099BC009D770D00F5770D00C9770D009B780D0094
:1099CC00FCFFFFFF00000000C5780D000000000048
:1099DC0000000000D17A0D00C17A0D00C37A0D0091
:1099EC000000000000000000E97B0D00397C0D0038
:1099FC00477C0D0069750D00257C0D00EB7B0D007F
:109A0C00017C0D00337C0D00177C0D00E57B0D00F7
:109A1C000000000000000000AF7D0D00A57D0D00D2
:109A2C009B7D0D00517D0D008F7D0D00837D0D0004
:109A3C00777D0D006F7D0D00657D0D005B7D0D004C
:109A4C0077870D000000000000000000E97D0D008C
:109A5C00397E0D00477E0D0069750D00FD7D0D00F2
:109A6C001F7E0D000B7E0D00337E0D00EB7D0D0077
:109A7C00EF7D0D000000000000000000ED7E0D00E9
:109A8C00377F0D000F7F0D00EF7E0D00177F0D004F
:109A9C001F7F0D00277F0D002F7F0D0000000000A1
:109AAC000000000065800D005B800D0051800D00F2
:109ABC0047800D003B800D002F800D0023800D0092
:109ACC001B800D0011800D0007800D0077870D00A5
