:02000002D0002C
:1040000000400D009C890D00000006000D00050118
:084010000401E80500000000B6
:044018000C830D0008
:10401C0009480A49884208B505D0094A824202D0AB
:10402C00121A04F029F90748074A0021121A04F061
:10403C002EF9014808BD00BF30DD032004890D00B6
:10404C00A0DD0320A0DD0320F0E7032070B502F013
:10405C005DFD074C074BE41AA40800251E46A5423B
:10406C0004D056F8253098470135F8E770BD00BFED
:10407C00FC880D005C880D0000F013B808B500F04A
:10408C001DF8BDE8084002F003BD01F0B7BF01F018
:10409C00B5BF0078B0FA80F0400970470123037077
:1040AC00704708B502F032FE4FF4964102F022FE42
:1040BC0000F032FBBDE8084000F098BB08B500F0FA
:1040CC0033FBBDE8084000F009B808B501F0BAFCB4
:1040DC0000210120BDE8084001F0ECBEF0B5D1B0E4
:1040EC003D21684600F0AEFB0546002800F0C58077
:1040FC0002F00CFE624902F0CBF902F007FE044616
:10410C0000F0D0FA0A220146204602F0D4F92046EB
:10411C0002F0C5F902F0FAFD5A4902F0B9F902F0C1
:10412C00F5FD044600F0F6FA0A220146204602F09C
:10413C00C2F9204602F0B3F902F0E8FD524902F050
:10414C00A7F902F0E3FD044600F0DCFA0A2201466E
:10415C00204602F0B0F9204602F0A1F902F0D6FD9B
:10416C004A4902F095F902F0D1FD044600F0C2FA7A
:10417C000221204602F089FA02F0C8FD444902F0FF
:10418C0087F902F0C3FD044600F0BAFA022120467A
:10419C0002F07BFA02F0BAFD3E4902F079F902F026
:1041AC00B5FD044600F086FA0221204602F06DFAB5
:1041BC0002F0ACFD384902F06BF902F0A7FD0446A1
:1041CC0000F072FA2046022102F05FFA00F06AFA5F
:1041DC00064600F069FA10AC310A10EE103A617123
:1041EC00310CA1710D212172190AA372E172190C03
:1041FC001B0E63730F23A3730123E373274B2671E9
:10420C001B782374FE22227007230222A27063748F
:10421C0004226123E270360E6272A274E3742A46A1
:10422C00AC231735E671217323756946BC23002630
:10423C000DF15700EDB26375A67504F01DF86570AD
:10424C0002F064FD164902F023F9F3B29D420FD936
:10425C00A75D0F2F04D802F059FD124902F018F98E
:10426C0002F054FD1022394602F025F90136ECE734
:10427C0002F04CFD0C4902F00BF951B0F0BD00BF3F
:10428C0020830D0034830D0047830D005A830D00ED
:10429C006D830D0080830D0093830D00B4DD03202E
:1042AC00A6830D00B6830D0024860D0001F0CABB59
:1042BC0010B5074C01F0C6FB0649204602F0A3F8E6
:1042CC002046054A0549BDE8104003F05DB900BF22
:1042DC00A4DD032025860D00A0DD032085630D00E1
:1042EC0001F0B0BB03681847012A02D0022A02D0A1
:1042FC0004E0016002E00B6800B10360002070472D
:10430C00436913B183690C301847704713B500210A
:10431C000446084601F08EFC02A90023204641F811
:10432C00043D01F09FFC019C0CB101232371002181
:10433C00012001F07FFC2CB1236820469B68984734
:10434C000023237102B010BD10B58368044613B16D
:10435C00032201469847204610BD07B5806800230C
:10436C0038B18DE80A00022101F084FCB0FA80F02B
:10437C00400903B05DF804FB38B5104B036083684B
:10438C000446A3B16FF000410022FFF7E6FF0021C5
:10439C00A06801F087FC237903F0FF0513B101F04D
:1043AC0031FCF8E72946A06801F054FCA56004F143
:1043BC000C00FFF7C9FF204638BD00BF50840D002C
:1043CC0010B50446FFF7D8FF20461C2103F0EAF88D
:1043DC00204610BD08B50F2003F042F8C0B208BD4E
:1043EC0008B5FFF7F7FF044B10B91A78013200E05B
:1043FC0000221A7008BD00BFB5DD032070B588B06F
:10440C0001F020FB194B049304AD194C194B23609C
:10441C0095E8030004F10C0202AE86E8030092E872
:10442C00030085E8030096E8030082E80300124AC3
:10443C006261A26907920023104A2371A36006935C
:10444C00A261019300930E4A23464FF47A7104F152
:10445C00080001F0F7FB2846FFF776FF094A0A49E6
:10446C00204603F091F808B070BD00BFED430D007D
:10447C00B8DD032050840D00F5420D00F1420D0013
:10448C0019430D00A0DD032085430D00037C03F0D0
:10449C000803024603F0FF002BB1D36A506A181AC6
:1044AC0048BF6FF000407047704770477FB50246B9
:1044BC0008461379956833B13DB90C4904B0BDE891
:1044CC00704001F0E5BF0A4B00E00A4B167B0A4C2A
:1044DC000A49527B0292012E08BF21460191009598
:1044EC00074A002102F0E0F804B070BDB9840D0059
:1044FC0025860D00A8840D00B1840D00B5840D0037
:10450C00CF840D00103000F017BB103000F0B7BA9C
:10451C00103000F047BB083000F044BB07B502ABCD
:10452C00012203F8011D1030194600F03BFB03B0CB
:10453C005DF804FB10B52C21044603F033F820463B
:10454C0010BD10B53421044603F02CF8204610BDE4
:10455C0007B502AB012203F8011D0830194600F023
:10456C0021FB03B05DF804FB07B501220DF1070137
:10457C0000F0D2F901280CBF9DF807004FF0FF3076
:10458C0003B05DF804FB08B51030FFF7EDFF08BD74
:10459C0070B501F057FA274B274E642183F860144D
:1045AC002649C3F87014012183F874143168002271
:1045BC0011F00105DA7183F83C2483F83D2483F86B
:1045CC006A24C3F8782483F87C2483F87D241C4661
:1045DC000AD13046FFF75DFD30B12946184801F08D
:1045EC0069FD3046FFF75AFD1648154BC4F86C347C
:1045FC0000244FF47A730474447444608360124A48
:10460C00124B1349036002F0BFFF1248124D0472A3
:10461C00447244600C4A1149056002F0B5FF104821
:10462C00094A04724472446005600C49BDE870404C
:10463C0002F0AABF0CDE0320D4DD032064840D003D
:10464C00D8DD0320BCE20320A0DD032070840D0024
:10465C00B7440D0090E2032098840D00B5440D0082
:10466C00E0DD0320704710B52821044602F09AFFC4
:10467C00204610BD10B501F0A5FA084B1A68801A37
:10468C00074A90421C4608D901F090FC10B100205A
:10469C0001F094FC01F096FA206010BD18E30320A1
:1046AC00005C260502F070B8014802F0ADB900BFFD
:1046BC001CE30320014802F091B900BF1CE3032066
:1046CC0030B58BB06846094C094902F0A7FB029B38
:1046DC00A36004AD039BE3600FCD10340FC495E8C9
:1046EC00030084E803000BB030BD00BFF0E20320F0
:1046FC00ECE30320014802F09FB800BFF0E2032076
:10470C00FFF7F8BF024B00221146586801F00EBCAF
:10471C00ECE3032001F04ABC08B501F053FA014B5D
:10472C00186008BD18E3032008B5FFF7A3FFBDE828
:10473C000840FFF7C5BF000070B501F083F9104CBD
:10474C00104B23600025283329460F4E6360182236
:10475C0004F11000A560E56003F099FD20460B4CB8
:10476C000B49324602F010FF2946204602F0F6F8BB
:10477C00324620460749BDE8704002F005BF00BF35
:10478C00F0E2032090860D00A0DD03201CE3032043
:10479C0071460D0087690D0038B5074C0D46024671
:1047AC000321204600F054FE2A4620460421BDE891
:1047BC00384000F04DBE00BF24E303200146014801
:1047CC0000F058BE24E3032008B50121062002F0B6
:1047DC002EFE642001F0EAFF0620002102F027FEE5
:1047EC006420BDE8084001F0E1BF000010B50121D4
:1047FC00062002F00BFE0E4CFFF7E6FF0D4B0E4AA7
:10480C001B7812785B21204600F0F8FF204601212E
:10481C0000F01AFF05210D20FFF7BEFF074B18789B
:10482C00FFF7CCFF20460649BDE8104000F0BABFA8
:10483C0024E3032032DD032034DD032030DD0320AC
:10484C0004850D0070B5054609480E4600F0DCFEE7
:10485C0060B1084C2378B34207D822780649284621
:10486C0003F00AFD2078C0B270BD002070BD00BFFF
:10487C0024E3032097E303205AE3032008B501F057
:10488C00E1F8084B084A1A60112208491A710822EB
:10489C005A719A7101220A70002119721F215972E2
:1048AC009A7208BD24E3032030850D0098E30320A1
:1048BC0001F0C8B801F0C6B801F0C4B810B5044690
:1048CC00243000F051FA28B104F50C70BDE810400A
:1048DC0000F04ABA10BD01F0B5B801F0B3B801F060
:1048EC00B1B801F0AFB88378016943F00403837069
:1048FC0000F11002806800F0EDBA10B50446806833
:10490C000A462430A16900F056FA20B1A38803F0BE
:10491C000F0300EB431010BD2DE9F74F037804464D
:10492C00894615464BB18278D10706D50CE05A461C
:10493C00216900F06AFA00283DDA637843F002033B
:10494C0063704FF0FF3097E01A0703D5E369626993
:10495C009B1A07E09A0608D5A3681A896369C3EB0A
:10496C0042139BB29D4228BF1D462E464FF00008B5
:10497C0004F1100B002E35D022786369A06812F078
:10498C00200FC3F3080A4FEA532102D0036A1944DB
:10499C001DE090F8058001EA0808BAF1000F10D16B
:1049AC00B8F1000F0DD1002BC1D153064CBF036AD7
:1049BC00236A236105E004D1237813F0700F11D121
:1049CC00BBE72169A06800F01AFA08EB0001A068A7
:1049DC00BAF1000F35D1B6F5007F32D3C36A9942D4
:1049EC0002D12EE0A81B47E0B6F5806F1BD32278CE
:1049FC0097064FEA562A06D40279C8EB0202D2B2C5
:104A0C00924528BF924699424FEA4A2707D2A0689E
:104A1C0053464A46006800F0A8FB60B98DE7534442
:104A2C00994221D3F3E74A46006800F056FB002870
:104A3C0083D04FF4007763693B44B9446361F61B40
:104A4C0098E70022243000F0B6F900283FF475AF47
:104A5C00CAF50077B74228BF374600EB0A013A4641
:104A6C00484603F009FCE6E72430019100F07CF99C
:104A7C0001990028CBD160E703B0BDE8F08F73B586
:104A8C0001220DF10701044646690569FFF744FF51
:104A9C00012805BF9DF8070066614FF0FF302561C6
:104AAC0002B070BD2DE9F0410E460178076904464D
:104ABC00002939D04569B5423AD00EB9066131E0CA
:104ACC000B0703D5C3699E422ED807E0880605D58F
:104ADC00A3681B89B6EB431F26D823E0D4F808E063
:104AEC009EF806306A1E03F10900731EC240C340D3
:104AFC009A4200D84DB94A064CBFDEF82020226AF3
:104B0C0022611D4604F110080AE09B1AF9E742469F
:104B1C002169A06800F079F9002805F1FF3503DD63
:104B2C00002DF4D1666103E027610020BDE8F0811F
:104B3C000120BDE8F081000038B5037804460BB9BC
:104B4C00012038BD83785A0723D50121FFF7D5FE04
:104B5C00054628B9637843F001036370002038BD23
:104B6C000378E52BF6D023781B0744BFE369C361B8
:104B7C00238C4383638C8382094B1B682BB100F11C
:104B8C001601183098472B8B6B82A37823F0040303
:104B9C00A370A068FFF792FE0028DBD0D0E700BF1F
:104BAC0034E303202DE9F0470378894619070446BE
:104BBC00904608D583789A0705D51B070BD5E16974
:104BCC00FFF770FF38B9637843F0010363704FF05F
:104BDC00FF30BDE8F0876369DB439845F3D8464660
:104BEC004FF0000A6369002E00F08180A0684279C2
:104BFC0012EA5325C3F308071CD1DFB9216971B13F
:104C0C0004F1100200F001F90028DCDB40F08E808A
:104C1C002046FFF768FE002840F08880D3E7236A1F
:104C2C003BB92046FFF75FFE0028CCD023692362F6
:104C3C0000E023612169A06800F0E1F8291817B998
:104C4C00B6F5007F21D2C7F50075B54228BF3546B1
:104C5C0037B96369E269934234BF0122052200E04F
:104C6C000122A068243000F0A6F80028ABD038440C
:104C7C002A4649462F4403F0FFFAB7F5007F30D19E
:104C8C00A068243000F070F817E0B6F5806FA068CB
:104C9C0015D30279521B730AD2B2934228BF134622
:104CAC00C26A91424FEA432502D31A44914237D348
:104CBC00A7684A46386800F00CFB90B983E7C36AD2
:104CCC00994202BF4FF0FF3380F824A0C362A3685F
:104CDC004A46186800F08BFA00283FF474AF4FF482
:104CEC00007563692B446361A944761B7AE7E2691A
:104CFC00934201D9E36102E00F4B1B681BB1A3780F
:104D0C0043F00403A37094F90230002B02DB4046FD
:104D1C00BDE8F0872046FFF70FFF0028F7D152E7D8
:104D2C004FF0FF3280F824A0C262C1E72169A0686D
:104D3C0000F065F8014683E734E3032000F082BEFF
:104D4C0070B505460C46084649B103F0D1FA2B68FC
:104D5C00024621462846DB68BDE87040184770BD06
:104D6C0000F070BE00F06EBE70B50378DA07044632
:104D7C001ED54368816800F10C063246186800F0B5
:104D8C0036FA054608B9002513E023789B0704D4AE
:104D9C00237823F0010323700BE06368A068196982
:104DAC0032460144186800F022FA0028F0D1EAE7F4
:104DBC000125284670BD70B583688B4204460E46AB
:104DCC00154614D0FFF7D0FF08B9002070BD6B0753
:104DDC0003D500232370A66009E0636804F10C027C
:104DEC003146186800F079F90028F2D1EDE7237804
:104DFC00204605F003051D4300F80C5B70BD83795C
:104E0C0040690239994008447047012970B505463C
:104E1C000C46164602D84FF0FF3070BDC36999425C
:104E2C00F9D8C379202B10D18169022201EBD4115E
:104E3C0000F50C70FFF7BFFF0028ECD004F07F04E6
:104E4C0050F8243023F070430FE0102BE3D183692A
:104E5C00C1F307210222194400F50C70FFF7ABFFD8
:104E6C000028D8D0E4B230F81430EA6993429ABFE3
:104E7C0033600120002070BD012938B50C46154661
:104E8C0001D8002038BDC3699942FAD8C379202BC8
:104E9C000ED18169032201EBD41100F50C70FFF7E0
:104EAC008AFF0028EDD004F07F0440F824500FE076
:104EBC00102BE6D18369C1F307210322194400F5B5
:104ECC000C70FFF778FF0028DBD0E4B220F8145008
:104EDC00012038BD2DE9F341C4688C4205460E46CD
:104EEC00904607D20C460027EB6901349C4203D94B
:104EFC00CFB9EC680127F7E7A64214D001AA2146E6
:104F0C002846FFF782FF00280DDBEDD0019B002B1C
:104F1C00EAD107B1EC606FF0704221462846FFF7EA
:104F2C00ABFF074608B900270BE016B9C8F80040DC
:104F3C0007E0224631462846FFF79EFF0028F5D1B0
:104F4C00F1E7384602B0BDE8F08100F07BBD00F01F
:104F5C0079BD00F077BD000070B50E4C0E461546BD
:104F6C0000F028FE2368C01A0B4B984208D900F0B9
:104F7C0029FE0A4B186001F011F800F01BFE2060AE
:104F8C0000F020FE80B2801BA842D4BF002001207C
:104F9C0070BD00BF38E30320A086010018E7032092
:104FAC0038B5057A04464DB9406800F0B9F9636824
:104FBC002946187D02F03BFA0123237238BD10B547
:104FCC00037A04466BB143680121187D02F02FFA75
:104FDC00FF21606800F0C6F9606800F0A5F90023B5
:104FEC00237210BDF8B504460D46164600F0EAFDD6
:104FFC0087B2606800F09BF9FF28607209D14FF40A
:10500C007A7239462046FFF7A7FF0028F1D05523C6
:10501C000BE0FE2801D0502307E032462946606899
:10502C0000F08AF9607230B1602320462370FFF7DC
:10503C00C6FF0020F8BD606800F079F9606800F0E8
:10504C0076F90120F8BD70B504460E4600F0BAFDA5
:10505C0085B2324629462046FFF77EFF30B960689C
:10506C0000F065F9FF28F4D1012070BD002070BD5F
:10507C00F7B5037A019204460D460BB9FFF790FF82
:10508C0025B14FF496712046FFF7DDFF45F0400146
:10509C00606800F067F90DF107060DF1030716F8CB
:1050AC000119606800F05EF9BE42F8D1002D0CBF0A
:1050BC0095218721606800F055F9606800F037F998
:1050CC000B25606800F033F90306607203D5013DCF
:1050DC0015F0FF05F5D103B0F0BD38B5837A032B7D
:1050EC0018BF490215460A4611210446FFF7C0FFB6
:1050FC0010B1302323700BE029464FF40072204688
:10510C00FFF770FF054618B12046FFF758FF03E084
:10511C002046FFF754FF0025284638BD10B5837A8A
:10512C00032B0A4618BF4A0212210446FFF7A0FFC0
:10513C0030B1312320462370FFF741FF002010BD12
:10514C00012010BD10B500220C210446FFF790FF82
:10515C0030B1282320462370FFF731FF002010BD0B
:10516C002046FFF72CFF012010BDF8B5054616466A
:10517C001F46FFF7D3FF98B10024A3B29F4206EB62
:10518C00442108D94FF400722846FFF72BFF013455
:10519C000028F2D104E02846BDE8F840FFF7D2BF62
:1051AC000020F8BD38B504461546406800F0DAF822
:1051BC004FF400722946606800F0D8F8FF2160684F
:1051CC0000F0D0F8FF21606800F0CCF8606800F0C7
:1051DC00AEF8607200F01F00052806D05723204659
:1051EC002370FFF7ECFE002038BD012038BD70B5F0
:1051FC00837A032B18BF490215460A461821044628
:10520C00FFF736FF064608B132231DE02A46FE2181
:10521C002046FFF7C7FFC0B14FF4FA612046FFF7F5
:10522C0012FF054608B95A230EE032460D212046DE
:10523C00FFF71EFF38B9606800F079F818B92046FE
:10524C00FFF7BDFE05E0292323702046FFF7B7FECC
:10525C000025284670BD38B50D464FF4FA6104465A
:10526C00FFF7F1FE10B95B23237005E02A46FC2101
:10527C002046FFF797FF18B92046FFF7A0FE002045
:10528C0038BD10B5837A032B0A4618BF4A02192180
:10529C000446FFF7EDFE30B1332320462370FFF7B1
:1052AC008EFE002010BD012010BD38B54FF4FA6100
:1052BC000446FFF7C8FE054620B1FD21606800F0EA
:1052CC0051F801E0562323702046FFF778FE28465C
:1052DC0038BDF8B5054616461F46FFF7D2FF70B12C
:1052EC000024BC4206EB4421284604D0FFF7B3FF50
:1052FC0028B10134F5E7BDE8F840FFF7D6BF2846E2
:10530C00FFF75DFE0020F8BD00F09CBB00F09ABBDF
:10531C0000F098BB014B01221A7070473CE303204C
:10532C00011D006800F01CBF006800F000BFFF21E9
:10533C00006800F0DBBF000037B5084B0093002578
:10534C00074C0068257013460A46294600F0D4FF26
:10535C002378002BFCD0002003B030BD21530D006E
:10536C003CE30320006800F0C1BF000037B5074BD9
:10537C0000930025064C0068257013462A4600F061
:10538C00BBFF2378002BFCD003B030BD21530D00A4
:10539C003CE3032000F056BB024B186803681B6803
:1053AC00184700BF54E3032008B50121007902F02F
:1053BC003EF8BDE8084001F0FBBC000010B5084CFD
:1053CC002368DB070AD42046FEF763FE30B10121C7
:1053DC00044800F06FFE2046FEF760FE014810BD49
:1053EC0040E3032044E3032010B50446FFF7E6FF37
:1053FC002146BDE8104000F079BF10B5044601F01D
:10540C00D5FCFFF7DBFF002100F080FEFFF7D6FF95
:10541C00012100F06AFEFFF7D1FF182100F042FFD6
:10542C0020790021BDE8104002F001B838B50C46D7
:10543C000546FFF7E2FF04F07F00FFF7D5FF0020E1
:10544C00FFF7D2FF04462846FFF7AEFF204638BDD3
:10545C0070B50E4615460446FFF7CFFF46F08000A8
:10546C00FFF7C2FF2846FFF7BFFF2046BDE870409C
:10547C00FFF79ABF10B5417211210446FFF7D6FF12
:10548C00627A00F0E0001F2A94BF024340F01F0232
:10549C0011212046BDE81040FFF7DABF10B50446D5
:1054AC0049B101222321FFF7D3FF23212046FFF727
:1054BC00BDFF8307F9D524212046FFF7B7FF4042F3
:1054CC00401010BD38B5002914BF5D2255220C4682
:1054DC005A210546FFF7BCFF002C284614BF7C223E
:1054EC0070225C21BDE83840FFF7B2BF70B5284D83
:1054FC002B788B4204460E4649D0042947D8DFE866
:10550C0001F0342C241203000121FFF78FFF00F06F
:10551C00E30242F00C0201212046FFF799FFA37A27
:10552C0063B301210DE00121FFF780FF00F0E302DE
:10553C0042F0100201212046FFF78AFFA37AEBB15B
:10554C0000212046FFF7BEFF18E00121FFF76EFF98
:10555C0000F0E30242F008020CE00121FFF766FFC5
:10556C0000F0E30242F0040204E00121FFF75EFFC9
:10557C0000F0E30201212046FFF76AFF2B782BB9DC
:10558C0027212046FFF752FF0306F7D52E7070BD7A
:10559C0098E30320154A002310B51370144A1370B6
:1055AC00144A1370144A1370144A1370144A13706B
:1055BC00144A282113600446FFF738FF43070AD525
:1055CC003D212046FFF732FF40F00402D2B23D21CC
:1055DC002046FFF73DFF204625214022FFF738FFEC
:1055EC0020460321BDE81040FFF780BF97E303205E
:1055FC0052E3032050E3032058E3032051E303203C
:10560C0059E303204CE3032010B5044601F0CEFB14
:10561C000B4B1A78032A02D10A4A127852B91B781A
:10562C00032B02D101F0C4FB02E02046FFF7B2FFCE
:10563C00002010BD20460121FFF758FF012010BDAE
:10564C0098E3032058E30320002910B50446817227
:10565C0014BF0F221A221321FFF7FAFEA37A43B1CB
:10566C0011212046FFF7E2FE00F01F0242F060021B
:10567C0002E0627A42F0800220461121BDE810401F
:10568C00FFF7E6BE2DE9F0413D4B1B78032B04469A
:10569C0014D12821FFF7CAFE430717D40EE0137864
:1056AC003C2B04D81378374ADBB20021D154204666
:1056BC00FFF77AFE03212046FFF718FF0021204652
:1056CC00FFF7ECFE304B1860BDE8F081012120465D
:1056DC00FFF70CFF2046FFF790FE0020FFF784FE3B
:1056EC000020FFF781FE294D28702B78422B14D80F
:1056FC002B78DBB200202B70FFF776FE244B227A3E
:10570C00187032B91A78E179914202D01B78FF2BCC
:10571C0005D12B78022B02D90BE04223EAE7204675
:10572C0000232B70FFF740FE2046BDE8F041FFF749
:10573C0031BF164B174E1B78124F033BDBB20020C8
:10574C003370FFF751FE144B18700020FFF74CFE1E
:10575C00124A20F07F03DBB2137000F04000104BB4
:10576C00C0B21870002331780A4ADDB28D4203F1C1
:10577C00010894D20020FFF737FE43467855F2E734
:10578C0098E303205AE303204CE3032058E303205F
:10579C0050E3032097E3032052E3032059E3032053
:1057AC0051E30320F8B50D4601210446FFF79EFE98
:1057BC008DB12046FFF721FEBE20FFF715FE6E1EB1
:1057CC0005F10F0716F8010FFFF70EFEBE42F9D1D7
:1057DC002046FFF7E9FD3D212046FFF727FE20F08C
:1057EC000100002D0CBF024640F00102D2B220464F
:1057FC003D21BDE8F840FFF72BBE0000F0B58FB09F
:10580C000D4604460021164603A82A221F4602F024
:10581C003EFD01238DF80C3003238DF810308DF8EC
:10582C00153006238DF8163033238DF817300723E7
:10583C008DF8183008238DF81A3009238DF81C3098
:10584C0019238DF81E3025238DF8203029238DF84F
:10585C002230DC238DF823302E238DF8243088233E
:10586C008DF825302F238DF826302D238DF82730F9
:10587C0037238DF82A3090238DF82B3038238DF870
:10588C002C303C23042202218DF82E308F238DF8EE
:10589C000D208DF80E108DF811108DF812200521A9
:1058AC0040228DF82F303D238DF813208DF81410E5
:1058BC008DF82120422130228DF8303012238DF8C2
:1058CC001F108DF828208DF82D108DF831306F2396
:1058DC008DF832301F2D4FF0FF038DF833208DF8EB
:1058EC00343006D02B2D06D0562D0CBFD922E422F5
:1058FC0002E04E2200E06C221F2D8DF8192006D0FC
:10590C002B2D06D0562D14BFC022002202E0C0223F
:10591C0000E04022012120798DF81B208DF82970A0
:10592C0001F074FDFFF74AFD00F0CEFB00F04AF9E0
:10593C000546AA222F212046FFF78AFD2F2120465B
:10594C00FFF774FDAA2804D000F03CF9401B312865
:10595C00EFD900F037F9401B31282DD800F032F97F
:10596C00054655222F212046FFF772FD2F21204698
:10597C00FFF75CFD552821D000F024F9401B31289D
:10598C00EFD91BE000212046FFF70CFFA17A20463F
:10599C00FFF75AFE01212046FFF7A8FD00F012F98F
:1059AC00054627212046FFF741FD03061BD500F0D5
:1059BC0009F9401B31281CD9002028E000F002F91D
:1059CC00401B3128F8D80025EBB20EAA02EB43039A
:1059DC00013513F82C1CFF29D4D013F82B2C20469E
:1059EC00FFF736FDF0E700F0EDF8401B3128D8D971
:1059FC00DDE700230093A07906494FF0FF33012225
:105A0C0001F0ACF90028D7D0034BE6711C600FB045
:105A1C00F0BD00BFA5530D0054E3032000F012B8F5
:105A2C0000F010B808B5024B1B689B68019308BDC9
:105A3C006802030008B5024B1B68DB68019308BDC4
:105A4C006802030008B5024B1B681B68019308BD74
:105A5C002C02030008B5024B1B689B68019308BD20
:105A6C002C02030008B5024B1B68DB68019308BDD0
:105A7C002C02030008B5024B1B681B69019308BD7F
:105A8C002C02030008B5024B1B685B69019308BD2F
:105A9C002C02030008B5024B1B689B69019308BDDF
:105AAC002C02030008B5024B1B68DB69019308BD8F
:105ABC002C02030008B5024B1B681B6A019308BD3E
:105ACC002C02030008B5024B1B685B6A019308BDEE
:105ADC002C02030008B5024B1B681B68019308BD20
:105AEC003002030008B5024B1B689B68019308BD8C
:105AFC003002030008B5024B1B68DB68019308BD3C
:105B0C003002030008B5024B1B681B69019308BDEA
:105B1C003002030008B5024B1B685B69019308BD9A
:105B2C003002030008B5024B1B68DB69019308BD0A
:105B3C003002030008B5024B1B681B6A019308BDB9
:105B4C003002030008B5024B1B685B6A019308BD69
:105B5C003002030008B5024B1B689B6A019308BD19
:105B6C003002030008B5024B1B689B6B019308BD08
:105B7C003002030008B5024B1B68DB6B019308BDB8
:105B8C003002030008B5024B1B681B6C019308BD67
:105B9C003002030008B5024B1B685B6C019308BD17
:105BAC003002030008B5024B1B685B68019308BD0B
:105BBC001802030008B5024B1B681B69019308BD52
:105BCC001802030008B5024B1B685B69019308BD02
:105BDC001802030008B5024B1B68DB69019308BD72
:105BEC001802030008B5024B1B689B6D019308BD9E
:105BFC001802030008B5024B1B689B68019308BD93
:105C0C004802030008B5024B1B68DB68019308BD12
:105C1C004802030008B5024B1B681B69019308BDC1
:105C2C004802030008B5024B1B685B69019308BD71
:105C3C004802030008B5024B1B68DB69019308BDE1
:105C4C004802030008B5024B1B681B6A019308BD90
:105C5C004802030008B5024B1B685B6A019308BD40
:105C6C004802030008B5024B1B689B6A019308BDF0
:105C7C004802030008B5024B1B68DB6A019308BDA0
:105C8C004802030008B5024B1B685B6C019308BD0E
:105C9C004802030008B5024B1B689B6C019308BDBE
:105CAC004802030008B5024B1B681B6F019308BD2B
:105CBC004802030008B5024B1B685B69019308BDE1
:105CCC006402030008B5024B1B681B68019308BDF6
:105CDC003C02030008B5024B1B68DB68019308BD4E
:105CEC003C02030008B5024B1B681B69019308BDFD
:105CFC003C02030008B5024B1B685B69019308BDAD
:105D0C003C02030008B5024B1B689B69019308BD5C
:105D1C003C02030008B5024B1B68DB69019308BD0C
:105D2C003C02030008B5024B1B681B6A019308BDBB
:105D3C003C02030008B5024B1B689B6A019308BD2B
:105D4C003C02030008B5024B1B689B69019308BD1C
:105D5C002802030008B5024B1B68DB69019308BDE0
:105D6C002802030008B5024B1B681B6A019308BD8F
:105D7C002802030008B5024B1B685B6A019308BD3F
:105D8C002802030008B5024B1B689B6A019308BDEF
:105D9C002802030008B5024B1B68DB6A019308BD9F
:105DAC002802030008B5024B1B681B6B019308BD4E
:105DBC002802030008B5024B1B685B6B019308BDFE
:105DCC002802030008B5024B1B681B6C019308BD2D
:105DDC002802030008B5024B1B689B6C019308BD9D
:105DEC002802030008B5024B1B68DB6C019308BD4D
:105DFC002802030008B5024B1B681B6D019308BDFC
:105E0C002802030008B5024B1B685B6C019308BDAC
:105E1C007402030008B5024B1B681B68019308BD94
:105E2C004C02030008B5024B1B685B68019308BD6C
:105E3C004C02030008B5024B1B681B69019308BD9B
:105E4C004C02030008B5024B1B685B69019308BD4B
:105E5C004C02030008B5024B1B689B69019308BDFB
:105E6C004C02030008B5024B1B68DB69019308BDAB
:105E7C004C02030008B5024B1B681B6A019308BD5A
:105E8C004C02030008B5024B1B681B68019308BD4C
:105E9C002002030008B5024B1B685B68019308BD28
:105EAC002002030008B5024B1B685B69019308BD17
:105EBC002002030008B5024B1B68DB6A019308BD86
:105ECC002002030008B5024B1B689B6D019308BDB3
:105EDC002002030008B5034B1B68D3F888300193EC
:105EEC0008BD00002002030008B5034B1B68D3F863
:105EFC009430019308BD00002002030008B5024B4A
:105F0C001B685B68019308BD4002030008B5024B97
:105F1C001B689B68019308BD4002030008B5024B47
:105F2C001B68DB68019308BD4002030008B5024BF7
:105F3C001B681B69019308BD4002030008B5024BA6
:105F4C001B685B69019308BD4002030008B5024B56
:105F5C001B689B69019308BD4002030008B5024B06
:105F6C001B68DB69019308BD4002030008B5024BB6
:105F7C001B681B6A019308BD4002030008B5024B65
:105F8C001B681B6B019308BD4002030008B5024B54
:105F9C001B685B6B019308BD4002030008B5024B04
:105FAC001B689B68019308BD4402030008B5024BB3
:105FBC001B685B69019308BD4402030008B5024BE2
:105FCC001B68DB6A019308BD4402030008B5024B51
:105FDC001B681B6B019308BD4402030008B5024B00
:105FEC001B68DB6B019308BD4402030008B5024B30
:105FFC001B681B68019308BD1C02030008B5024B0B
:10600C001B685B68019308BD1C02030008B5024BBA
:10601C001B689B68019308BD1C02030008B5024B6A
:10602C001B685B6A019308BD1C0203000022114629
:10603C004068FFF79BBF002211464068FFF7A6BFE0
:10604C0000224068FFF79ABF002281F001014068EE
:10605C00FFF784BF00231A4619464068FFF776BF46
:10606C0000231A4619464068FFF768BF0022114604
:10607C004068FFF75BBF002211464068FFF746BF40
:10608C00002202214068FFF749BF00231A464068EE
:10609C00FFF734BF024B03225A60024A1A60704762
:1060AC009CE303203C850D000021FFF76BBD002114
:1060BC00FFF770BD10B5044601700846FFF732FDBE
:1060CC0000236360204610BD10B504460078FFF72E
:1060DC00EBFF48B920784FF6FF71FFF7FBFC2078F7
:1060EC00BDE81040FFF7E3BF10BD38B5044600789B
:1060FC000D46FFF7D9FF40B920782946FFF7F2FC8F
:10610C002078BDE83840FFF7D2BF38BD38B504461B
:10611C0000780D46FFF7C8FF40B920782946FFF7F5
:10612C00E9FC2078BDE83840FFF7C1BF38BD0078E6
:10613C00FFF7BDBF400830B51860002418688842CE
:10614C00E5B206D90134082C02D040081860F5E7F6
:10615C000725024B5B5D137030BD00BF68850D00D9
:10616C002DE9F04307468FB000780E46FFF79CFFF1
:10617C00002862DB3C781422002109A802F087F881
:10618C000B232046002209A9ADF82430FFF7DAFCD6
:10619C009DF82D4054B19DF82C5035B9DDF8308068
:1061AC009DF834909DF8354003E00024A146A046AC
:1061BC000125337905B1BBB99D420BD1B26842457B
:1061CC0008D18DF820908DF82140BDF82010B289AF
:1061DC00914209D053B1002438780194009423469D
:1061EC0022460121FFF7C6FC002026E08DF80F3077
:1061FC00B1680A9804AB0DF10F02FFF79BFF3179E0
:10620C0005B1B1B9A94208D0002438780194747B47
:10621C00337B9DF80F200094E4E7B3684345F3D338
:10622C008DF820908DF82140BDF82020B3899A423A
:10623C00EAD1049B4345E7D1D6E70FB0BDE8F08324
:10624C002DE9F04188B000230446007802930E46F5
:10625C001746FFF729FF054600BB94F8008001465E
:10626C00142203A802F013F80B232A4603A9404674
:10627C00ADF80C30FFF766FC02AB0DF1070207FB23
:10628C0006F104988DF80750FFF754FF20789DF81D
:10629C000710FFF737FC2078FFF709FF029808B0CA
:1062AC00BDE8F08138B5044600780D46FFF7FCFEDA
:1062BC00C8B9616871B10C4BC25CAA4202D0013002
:1062CC000828F9D10130C0B2C14001222046FFF7A5
:1062DC00B7FF03E029462078FFF714FC2078BDE8CF
:1062EC003840FFF7E4BE38BD68850D0008B500786E
:1062FC00FFF710FCC0B208BD30B587B004460A9D4C
:10630C0000780095FFF726FC3DB902A92078FFF72D
:10631C0029FC9DF81430DB07F7D407B030BD0078AA
:10632C00FFF708BC10B50446006818B1FFF766FE0D
:10633C000023236010BD10B50446FFF7F3FF204681
:10634C0010BD000010B5094C00204FF6FF73206003
:10635C00A080A07120816381FFF79CFD2046044A38
:10636C000449BDE8104001F00FB900BFA4E30320BD
:10637C00A0DD032043630D0010B504460068FFF751
:10638C003DFE204610BD10B50446006808B1FFF76D
:10639C0035FE00232360A360636010BD38B504464E
:1063AC000D4600680131FFF731FE10B184E8210081
:1063BC00012038BD10B50368044613B143688B4205
:1063CC0007D22046FFF7EAFF20B1A3680BB9226879
:1063DC001370012010BD70B50E46114604461546CB
:1063EC00FFF7E8FF18B92046FFF7CDFF09E02A4672
:1063FC003146A560206801F03FFF2268A3680021A8
:10640C00D154204670BD38B5002304460360436068
:10641C00836003730D4639B1084601F069FF2946C4
:10642C0002462046FFF7D7FF204638BD10B504467C
:10643C00006808B1FFF72EFC204610BD10B5064CC5
:10644C00002320462360FFF71DFC2046034A044925
:10645C00BDE8104001F098B8B0E30320A0DD0320A4
:10646C0039640D00F8B506460D468F180024BD4260
:10647C000CD0336815F8011B9B68304698470028F0
:10648C0001DB0444F3E7002C08BF04462046F8BDAA
:10649C0008B5FEF755FC08BD03689B68184738B56E
:1064AC000D210546FFF7F8FF0A2104462846FFF7A1
:1064BC00F3FF204438BD30B58BB00B4600218DF86E
:1064CC002410012A98BF0A220DF12304B3FBF2F524
:1064DC0005FB123303F0FF03092B94BF3033373322
:1064EC00DBB2214604F801392B46002DEED1FEF724
:1064FC0027FC0BB030BD00002DE9F04757EC106BBA
:10650C0082460D4610EE102A3B4610EE100A394614
:10651C0001F0F6FD08B14E4912E027F000494FF0AA
:10652C00FF324C4B3046494601F0EAFD68B94FF05A
:10653C00FF32484B3046494601F0C4FD28B9464964
:10654C005046FEF7FDFBBDE8F0874FF06042434B31
:10655C003046394601F0CAFD08B14149F0E74FF029
:10656C006042404B3046394601F0A2FD0028F4D180
:10657C00002200233046394601F09AFD40B12D210E
:10658C005046FFF789FF07F1004304461F4600E021
:10659C00044635494FF0000800205FFA88F39D420D
:1065AC0006D90022314B01F03BFC08F10108F4E75D
:1065BC0032463B4601F058F90F46064601F0DEFD27
:1065CC000A22014680465046FFF775FF0444E5B3A6
:1065DC00404601F085FA02460B463046394601F03A
:1065EC0041F906460F4650462149FEF7A9FB0444E3
:1065FC0000221E4B3046394601F0E8FA06460F469B
:10660C0001F094FDB0F1000907DA2D215046FFF797
:10661C0043FFC9F10001804602E049464FF00008F3
:10662C000A225046FFF747FF40440444484601F015
:10663C0067FA02460B463046394601F013F9013D24
:10664C0015F0FF0506460F46D2D12046BDE8F0876F
:10665C0070850D00FFFFEF7F7A850D00FFFFEF4186
:10666C0074850D00FFFFEFC10000E03F00002440E7
:10667C0078850D0038B5C9B20546FFF73DFF0446D5
:10668C002846FFF70CFF204438BD38B5044610EE01
:10669C00100A0D4601F046FA41EC100B2946204633
:1066AC00BDE83840FFF7E6BF0CB42DE9F04387B0E6
:1066BC0000AF07F13804054654F8049B3C600E46C5
:1066CC0023464A461421381DFFF7A8FC132805D889
:1066DC00391D2846FEF734FB044613E000F108038D
:1066EC0023F00703E846ADEB030D411C23464A4655
:1066FC0068463C60FFF792FC69462846FEF720FB93
:10670C000446C5461EB12846FFF7C9FE0444204680
:10671C001C37BD46BDE8F04302B07047014B024A3E
:10672C001A607047B4E30320F1850D0008B5002012
:10673C00FFF74CFC28B1FFF739FC80F00100C0B228
:10674C0008BD012008BD10B50020FFF74BFA044628
:10675C0068B9FFF797FB01280BD12046FFF7B2FB76
:10676C0038B9FFF7E3FF30B9FFF718FCF9E7012060
:10677C0010BD002010BDFFF7D9FF0020FFF732FA43
:10678C00003018BF012010BD08B5FFF7DCFFBDE8D5
:10679C000840FFF71FBA0000024B1A68024B1A6040
:1067AC00704700BF38DD0320B8E303200021FFF75A
:1067BC0079BB10B50446FDF7C7FD204610BD00009F
:1067CC000348044A04490023836000F0DDBE00BF87
:1067DC00BCE30320A0DD0320BF670D00007D7047E4
:1067EC00037D1BB18369B3F1004F02D19FED050A04
:1067FC00704707EE903A9FED047AF8EEE77A87EE51
:10680C00870A7047000000000000C842037D1BB1DE
:10681C00036AB3F1004F02D19FED050A704707EEF2
:10682C00903A9FED047AF8EEE77A87EE870A704784
:10683C00000000000000C842037D7BB1436A002BBE
:10684C000CDB07EE903ADFED076A9FED070AB8EE16
:10685C00E77AC7EE267A27EE800A7047BFEE000A69
:10686C00704700BF00FF7F470000C842037D7BB12B
:10687C00C369002B0CDB07EE903ADFED076A9FED46
:10688C00070AB8EEE77AC7EE267A27EE800A704739
:10689C00BFEE000A704700BF00FF7F470000C842F0
:1068AC0030B50D4600F110040FCD0FC495E8030070
:1068BC0084E80300012030BD2DE9F04107460C4669
:1068CC0015462AB90368C9B29B68BDE8F041184760
:1068DC00002907DA0A2A05D12D21FFF7DDFD6142D7
:1068EC00064601E021460026EAB23846FFF7E3FDF2
:1068FC003044BDE8F08170B50D4606460A22816829
:10690C002846FFF7D9FF2C2104462846FFF7C4FD83
:10691C000A220444F1682846FFF7CEFF204470BDDC
:10692C00A0F10400FFF7E7BF090941EA001007EEE8
:10693C00900AB8EEE70ADFED027A80EE270A70477C
:10694C0000004844006800F0B8BB10B50446016074
:10695C0002710AB1FFF7F6FF204610BD38B50446A8
:10696C000D4600F0EBFD2A4601462046FFF7EDFFF1
:10697C00204638BD006800F0A9BB10B50379044669
:10698C000BB1FFF7F7FF204610BDF8B504461646CD
:10699C001D460F46FFF7D6FF2068362100F082FB1C
:1069AC002068036839469B6898470121206800F0ED
:1069BC007CFB022236210123206800F05DFB20685D
:1069CC0003685B6998473070206803685B69984777
:1069DC0028702046BDE8F840FFF7CCBF07B502ABE6
:1069EC0000228DF8062003F8012D02210DF106027C
:1069FC00FFF7CBFF9DF807109DF8060003B05DF87C
:106A0C0004EBFFF791BF000007B502AB002203F8BF
:106A1C00012D8DF8062004210DF10602FFF7B5FFBC
:106A2C009DF8070001F06CF80022094B01F0CEF83C
:106A3C0001F0C4FB9DF8063000EE103A07EE900A08
:106A4C00B8EEC00A37EE800A03B05DF804FB00BF55
:106A5C000000703F08B50C4B33B100F057F90368D8
:106A6C001B699847002809DC084B63B100F084FAD5
:106A7C0003681B699847002803DC08BDAFF300804E
:106A8C00F2E7AFF3008008BD00000000000000003A
:106A9C0008B5FFF7DFFFFFF795F8014B186008BD4D
:106AAC0018E703200248034A0349121A01F0E4BB19
:106ABC0000F4032004F4032000890D0007B5002323
:106ACC0000931A466FF07701FFF70EFA03B05DF8EA
:106ADC0004FB000007B543880A2B08D0502B09D1C2
:106AEC00094B1B683BB103B05DF804EB1847FFF78B
:106AFC00E5FF06E0002300931A466FF07701FFF7DD
:106B0C00F3F903B05DF804FBCCE3032038B5104C6B
:106B1C00104D2368AB42104B0CBF012200221A709F
:106B2C0002D0FFF7BFFF2560FFF73CF8044601F0E9
:106B3C00B7FB0A4B13B12046AFF300800021074886
:106B4C00FFF74CFA00210648BDE83840FFF7C2B900
:106B5C0000F403201E1C279AD0E303200000000041
:106B6C00E16A0D00704710B51821044600F01AFDBB
:106B7C00204610BDF0B5037D062B8DB00E4600F1FE
:106B8C0004074FF0000402D000F1080518E00CAD2A
:106B9C00394605F8304D2F232A460A20FFF78AF88C
:106BAC00284601F0A5FB33680246DB6829463046CF
:106BBC0098470FE024B12E213046FFF76DFC0444BA
:106BCC0015F8011D0A223046FFF775FCBD4204443E
:106BDC00F0D120460DB0F0BD10B5054B0446112286
:106BEC0040F8043B002101F052FB204610BD00BFD1
:106BFC00C4860D000346074A10B543F8042B01F177
:106C0C00100251F8044B43F8044B9142F9D10A7825
:106C1C001A7010BDC4860D0010B59DF8084044EAEA
:106C2C00032343EA024242EA0161042341600375F3
:106C3C0010BD37B50D788B784A78C9780091294604
:106C4C00FFF7EAFF03B030BD41747047704708B5D9
:106C5C000021007CFFF7FEF830EA200028BF4FF03F
:106C6C00FF3008BD08B50121007CFFF7F3F830EACE
:106C7C00200028BF4FF0FF3008BD08B5007CFFF79F
:106C8C00E1F820EAE07008BD08B5007CFFF7D2F807
:106C9C0020EAE07008BD007CFFF7ECB810B51421B9
:106CAC00044600F07FFC204610BD38B50446007C3D
:106CBC000D46FFF7C7F8002801DC607C28B1294697
:106CCC00207CFFF7CFF820EAE07038BD10B5044601
:106CDC00002363604FF47A73A360054B2360012398
:106CEC000846217463741146FFF794F8204610BDD2
:106CFC00D8860D000022007CFFF794B810B5142242
:106D0C000446002101F0C3FA204610BD30B50E4DEB
:106D1C0087B001A8FFF7F2FF296811F0010410D128
:106D2C002846FDF7B6F960B101AA21460748FFF7DE
:106D3C00CDFF2846FDF7B2F9054A0649034800F095
:106D4C0023FC024807B030BDD4E30320D8E3032072
:106D5C00A0DD0320596C0D0000470000F0B585B094
:106D6C001C460E4617460546FEF79CFE0020844244
:106D7C004FF0040303908DF80C30A5BF9DF828301C
:106D8C008DF80E30034603AB009332463B46064962
:106D9C00A8BF8DF80D402846FEF77CFEB0FA80F0B7
:106DAC00400905B0F0BD00BF656D0D00FEF78ABE51
:106DBC00FEF780BE002211464068FFF7B7B80022EC
:106DCC0011464068FFF7D2B8002211464068FFF721
:106DDC00DDB800224068FFF7D1B8002281F0010134
:106DEC004068FFF7BBB800231A4619464068FFF706
:106DFC00ADB800231A4619464068FFF79FB8002229
:106E0C0011464068FFF782B8002202214068FFF764
:106E1C0085B800231A464068FFF770B8F0B51B4BD5
:106E2C00036000250F462833182689B0436085601F
:106E3C00C560324629460446103001F028FA2A462D
:106E4C0029467868FFF772F808B9A0601BE029465C
:106E5C00324602A80095019501F019FA02A968467C
:106E6C00ADF80860FEF7CEFF10B10123A3600AE075
:106E7C00009B019AA360E2600BB90223A36002A9F4
:106E8C002046FFF70DFD204609B0F0BD90860D00A1
:106E9C0038B5084C28252A460021204601F0F7F980
:106EAC004FF0FF336360044B258004225A60034A81
:106EBC001A6038BDF4E30320ECE3032008870D00CF
:106ECC0070474174704708B5007CFEF733FF20EA29
:106EDC00E07008BD08B5007CFEF704FF20EAE07006
:106EEC0008BD08B5007CFEF70DFF30EA200028BF76
:106EFC004FF0FF3008BD08B5007CFEF7FBFE30EA12
:106F0C00200028BF4FF0FF3008BD007CFEF702BF09
:106F1C0010B51421044600F045FB204610BD70B599
:106F2C00457C04460E4625B9007CFEF703FF00287D
:106F3C0005DD3146207CBDE87040FEF7CBBE28460F
:106F4C0070BD000010B50446084611460022626070
:106F5C004FF47A72A260054A226001222074627496
:106F6C001A46FEF7AFFE204610BD00BF3C870D0051
:106F7C00007CFEF7D7BE000038B50C4D296811F027
:106F8C00010411D12846FDF784F868B1084A094B71
:106F9C0009482146FFF7D6FF2846FDF77FF8074A38
:106FAC000749054800F0F0FA034838BDB4E4032063
:106FBC00B8E4032030E403201CE40320A0DD03200C
:106FCC00CD6E0D007047F8B5064615460C468F1869
:106FDC00BC4206D0336814F8011B9B6830469847B6
:106FEC00F6E72846F8BD0022007CFEF7BBBE002168
:106FFC00007CFEF7BFBE0021007CFEF7C3BE002163
:10700C00007CFEF7C7BE0021007CFEF7CBBE10B59E
:10701C001421044600F0C6FA204610BD10B50446F3
:10702C00002363604FF47A73A360044B2174084609
:10703C0023601146FEF7C6FE204610BD6C870D007E
:10704C0070B50C4686B0142506462A46002101A8C8
:10705C0001F01DF923788DF8083063680393E36819
:10706C0004930022237A307CADF8045001A90593D7
:10707C00FEF7C0FE06B070BD1FB500338DF80010D2
:10708C004FF06401039118BF0123694601928DF8FA
:10709C000830FFF7D5FF05B05DF804FB0022007C3B
:1070AC00FEF750BEC9B2FFF7F9BF0022007CFEF715
:1070BC0051BE0021007CFEF77DBE08B50021007C8E
:1070CC00FEF788FEB0FA80F0400908BD08B5002133
:1070DC00007CFEF787FEB0FA80F0400908BD002264
:1070EC0011464068FEF742BF002211464068FEF789
:1070FC004DBF00224068FEF741BF002281F0010124
:10710C004068FEF72BBF00231A4601214068FEF7AA
:10711C001DBF00231A4619464068FEF70FBF002218
:10712C0011464068FEF702BF002211464068FEF788
:10713C00EDBE002202214068FEF7F0BE00231A4685
:10714C004068FEF7DBBE38B5054688B104684CB123
:10715C00A3681BB1032221462046984710212046E4
:10716C0000F020FA28461421BDE8384000F01ABA85
:10717C0038BD10B103685B681847704710B50368D9
:10718C000446BBB15868FEF735FD78B923685A7CC4
:10719C0012B95868FEF73EFD23685868FEF742FDA9
:1071AC0020680023236028B1FFF7CDFF206808B1C9
:1071BC00FFF7C9FF204610BD38B50446D0F8C4010E
:1071CC0008B1FCF764FFD4F8C00108B1FEF762FD0A
:1071DC00D4F8BC5135B12846FFF7D0FF042128461E
:1071EC0000F0E0F9206808B1FFF7C3FF204638BD76
:1071FC0010B5044B044640F8083BFFF7DDFF204672
:10720C0010BD00BF94870D0038B50E4C0E4B23609B
:10721C000025022304F5E4706360A560C4F8C45132
:10722C00C4F8C851FEF72EFD084BC4F8CC5184F8B5
:10723C00D05123602046064A0649BDE8384000F08C
:10724C00A3B900BF3CE50320C8870D0094870D004F
:10725C00A0DD0320FD710D0000231A464068FEF7E7
:10726C004DBE002202214068FEF758BE0022114696
:10727C004068FEF74BBE002211464068FEF756BE32
:10728C0000231A4619464068FEF758BE00231A46DA
:10729C0019464068FEF75ABE002281F00101406891
:1072AC00FEF75CBE00224068FEF768BE0022114665
:1072BC004068FEF76BBE002211464068FEF756BED2
:1072CC002DE9F043002495B016460D460746FFF70E
:1072DC0083FC214620220CA8009400F0D8FF402308
:1072EC000C9321466B460CAA3046FEF7A3FB0446D2
:1072FC00002844D1024601216868FEF717FE0221DE
:10730C00804622466868FEF711FE009E81462146A3
:10731C00002E34D0002932D17368022B02D00A2BF4
:10732C0009D02AE0B8F1000F27D071693846043132
:10733C00FFF77FFC20E0B9F1000F1ED07469112219
:10734C0001A800F0A4FF06238DF8143001AD04F160
:10735C0008031834186859682A4603C20833A34234
:10736C001546F7D101A906A807ADFFF743FC0FCDD1
:10737C003C1D0FC42B6823700121F669C8E70098E7
:10738C00FEF750FB384615B0BDE8F083024B034ABC
:10739C001A6000225A60704710E70320C8870D005E
:1073AC0070B5184E316811F0010504460AD130460B
:1073BC00FCF76FFE30B129461348FEF77BFE3046D2
:1073CC00FCF76CFE1048FEF7AAFF28B1A4F10B03E2
:1073DC00022B01D8002070BD00F08AF8FFF769FE7F
:1073EC0008B1012CF6D9FFF7C7FDFFF7C1FD18B1A5
:1073FC00A4F10903012BEDD9232C8CBF0020012013
:10740C0070BD00BFD4DD0320D8DD0320232838B5A0
:10741C0004460D460AD8FF2908D0FFF7C1FF28B152
:10742C0029462046BDE83840FEF714BB38BD38B5B8
:10743C0004460D46FEF716FBFF2810D0062804D88C
:10744C004D2323FA00F0C30709D42046FFF7A8FF09
:10745C0028B129462046BDE83840FEF70BBB38BDA5
:10746C0010B50446FEF7FEFA0438C0B2012808D95C
:10747C002046FFF795FF20B12046BDE81040FEF7EF
:10748C0001BB002010BD000070B5044614252A462F
:10749C00094E002100F0FBFE258020253146A56019
:1074AC002561284600F080F831466060284600F0DF
:1074BC007BF8E060204670BDF4870D0070B5044683
:1074CC0014252A46094E002100F0E1FE25802025D6
:1074DC003146A5602561284600F066F831466060AB
:1074EC00284600F061F8E060204670BDF4870D007E
:1074FC0030B50E4D296811F0010487B013D1284620
:10750C00FCF7C7FD78B101A8FFF7BEFF01AA214621
:10751C000748FFF783FD2846FCF7C0FD054A0649DE
:10752C00034800F031F8024807B030BD1CE70320D7
:10753C0034E70320A0DD0320D16F0D0010B50E4CF5
:10754C002368DB0786B013D42046FCF7A2FD78B184
:10755C0001A8FFF7B3FF01AA01210848FFF75EFD60
:10756C002046FCF79BFD064A0649044800F00CF83F
:10757C00024806B010BD00BF48E7032020E70320F7
:10758C00A0DD0320D16F0D000B460146184600F01C
:10759C0065BE0000024B1868BFF35F8F704700BFD9
:1075AC004CE70320FCF771BD00F000B810B50028C3
:1075BC0014BF044601242046FEF718FD20B9FFF73E
:1075CC00E9FF08B18047F6E710BD0000184B1A68B8
:1075DC00D1075CBF01221A60164B1A68D2075CBF38
:1075EC0001221A60144B1A68D0075CBF01221A6082
:1075FC00124B1A68D1075CBF01221A60104B1A6833
:10760C00D2075CBF01221A600E4B1A68D0075CBF10
:10761C0001221A600C4B1A68D1075CBF01221A6058
:10762C000A4B1A68D2075CBF01221A60704700BF70
:10763C006CE7032068E7032064E7032060E703207E
:10764C005CE7032058E7032054E7032050E70320AE
:10765C00244B1A68D0075CBF01221A60224B1A68AF
:10766C00D1075CBF01221A60204B1A68D2075CBF9D
:10767C0001221A601E4B1A68D0075CBF01221A60E7
:10768C001C4B1A68D1075CBF01221A601A4B1A688E
:10769C00D2075CBF01221A60184B1A68D0075CBF76
:1076AC0001221A60164B1A68D1075CBF01221A60BE
:1076BC00144B1A68D2075CBF01221A60124B1A686D
:1076CC00D0075CBF01221A60104B1A68D1075CBF4F
:1076DC0001221A600E4B1A68D2075CBF01221A6095
:1076EC00704700BF9CE7032098E7032094E7032032
:1076FC0090E703208CE7032088E7032084E703202E
:10770C0080E703207CE7032078E7032074E703205D
:10771C0070E70320244B1A68D0075CBF01221A6063
:10772C00224B1A68D1075CBF01221A60204B1A68E1
:10773C00D2075CBF01221A601E4B1A68D0075CBFCF
:10774C0001221A601C4B1A68D1075CBF01221A6017
:10775C001A4B1A68D2075CBF01221A60184B1A68C0
:10776C00D0075CBF01221A60164B1A68D1075CBFA8
:10777C0001221A60144B1A68D2075CBF01221A60EE
:10778C00124B1A68D0075CBF01221A60104B1A68A2
:10779C00D1075CBF01221A600E4B1A68D2075CBF7E
:1077AC0001221A60704700BFCCE70320C8E7032012
:1077BC00C4E70320C0E70320BCE70320B8E703209D
:1077CC00B4E70320B0E70320ACE70320A8E70320CD
:1077DC00A4E70320A0E70320184B1A68D1075CBF6D
:1077EC0001221A60164B1A68D2075CBF01221A607C
:1077FC00144B1A68D0075CBF01221A60124B1A682E
:10780C00D1075CBF01221A60104B1A68D2075CBF0B
:10781C0001221A600E4B1A68D0075CBF01221A6055
:10782C000C4B1A68D1075CBF01221A600A4B1A680C
:10783C00D2075CBF01221A60704700BFECE703203F
:10784C00E8E70320E4E70320E0E70320DCE703207C
:10785C00D8E70320D4E70320D0E7032081F00041D0
:10786C0002E000BF83F0004330B54FEA41044FEA19
:10787C00430594EA050F08BF90EA020F1FBF54EAB4
:10788C00000C55EA020C7FEA645C7FEA655C00F050
:10789C00E2804FEA5454D4EB5555B8BF6D420CDD21
:1078AC002C4480EA020281EA030382EA000083EAA4
:1078BC00010180EA020281EA0303362D88BF30BD44
:1078CC0011F0004F4FEA01314FF4801C4CEA11319A
:1078DC0002D0404261EB410113F0004F4FEA0333F9
:1078EC004CEA133302D0524263EB430394EA050F84
:1078FC0000F0A780A4F10104D5F1200E0DDB02FAF3
:10790C000EFC22FA05F2801841F1000103FA0EF286
:10791C00801843FA05F359410EE0A5F120050EF14C
:10792C00200E012A03FA0EFC28BF4CF0020C43FA7D
:10793C0005F3C01851EBE37101F0004507D54FF08A
:10794C00000EDCF1000C7EEB00006EEB0101B1F5DA
:10795C00801F1BD3B1F5001F0CD349085FEA300020
:10796C004FEA3C0C04F101044FEA445212F5800F2B
:10797C0080F09A80BCF1004F08BF5FEA500C50F1C8
:10798C00000041EB045141EA050130BD5FEA4C0CAB
:10799C00404141EB010111F4801FA4F10104E9D134
:1079AC0091F0000F04BF01460020B1FA81F308BF2B
:1079BC002033A3F10B03B3F120020CDA0C3208DDF7
:1079CC0002F1140CC2F10C0201FA0CF021FA02F1D2
:1079DC000CE002F11402D8BFC2F1200C01FA02F142
:1079EC0020FA0CFCDCBF41EA0C019040E41AA2BF67
:1079FC0001EB0451294330BD6FEA04041F3C1CDA2F
:107A0C000C340EDC04F11404C4F1200220FA04F04E
:107A1C0001FA02F340EA030021FA04F345EA0301F8
:107A2C0030BDC4F10C04C4F1200220FA02F001FABA
:107A3C0004F340EA0300294630BD21FA04F029463C
:107A4C0030BD94F0000F83F4801306BF81F48011D5
:107A5C000134013D4EE77FEA645C18BF7FEA655C48
:107A6C0029D094EA050F08BF90EA020F05D054EA1A
:107A7C00000C04BF1946104630BD91EA030F1EBF1F
:107A8C000021002030BD5FEA545C05D14000494123
:107A9C0028BF41F0004130BD14F580043CBF01F516
:107AAC00801130BD01F0004545F0FE4141F47001FC
:107ABC004FF0000030BD7FEA645C1ABF19461046D7
:107ACC007FEA655C1CBF0B46024650EA013406BFD8
:107ADC0052EA033591EA030F41F4002130BD00BF97
:107AEC0090F0000F04BF0021704730B54FF4806454
:107AFC0004F132044FF000054FF0000150E700BFD5
:107B0C0090F0000F04BF0021704730B54FF4806433
:107B1C0004F1320410F0004548BF40424FF0000120
:107B2C003EE700BF42004FEAE2014FEA31014FEA63
:107B3C0002701FBF12F07F4393F07F4F81F06051B2
:107B4C00704792F0000F14BF93F07F4F704730B521
:107B5C004FF4607401F0004521F0004120E700BFB4
:107B6C0050EA010208BF704730B54FF000050AE03B
:107B7C0050EA010208BF704730B511F0004502D53C
:107B8C00404261EB41014FF4806404F132045FEA3E
:107B9C00915C3FF4DCAE4FF003025FEADC0C18BFE3
:107BAC0003325FEADC0C18BF033202EBDC02C2F1D9
:107BBC00200300FA03FC20FA02F001FA03FE40EA6B
:107BCC000E0021FA02F11444C1E600BF70B54FF06B
:107BDC00FF0C4CF4E06C1CEA11541DBF1CEA13554D
:107BEC0094EA0C0F95EA0C0F00F0DEF82C4481EAB5
:107BFC00030621EA4C5123EA4C5350EA013518BFD5
:107C0C0052EA033541F4801143F4801338D0A0FBC1
:107C1C0002CE4FF00005E1FB02E506F00042E0FB6E
:107C2C0003E54FF00006E1FB03569CF0000F18BF74
:107C3C004EF0010EA4F1FF04B6F5007F64F540741C
:107C4C0004D25FEA4E0E6D4146EB060642EAC621AF
:107C5C0041EA55514FEAC52040EA5E504FEACE2E1C
:107C6C00B4F1FD0C88BFBCF5E06F1ED8BEF1004F1F
:107C7C0008BF5FEA500E50F1000041EB045170BD9B
:107C8C0006F0004646EA010140EA020081EA0301DF
:107C9C00B4EB5C04C2BFD4EB0C0541EA045170BDDB
:107CAC0041F480114FF0000E013C00F3AB8014F155
:107CBC00360FDEBF002001F0004170BDC4F100049E
:107CCC00203C35DA0C341BDC04F11404C4F120051F
:107CDC0000FA05F320FA04F001FA05F240EA02007A
:107CEC0001F0004221F0004110EBD37021FA04F6B0
:107CFC0042EB06015EEA430E08BF20EAD37070BD6A
:107D0C00C4F10C04C4F1200500FA04F320FA05F0C8
:107D1C0001FA04F240EA020001F0004110EBD370CA
:107D2C0041F100015EEA430E08BF20EAD37070BD3A
:107D3C00C4F1200500FA05F24EEA020E20FA04F313
:107D4C0001FA05F243EA020321FA04F001F00041C2
:107D5C0021FA04F220EA020000EBD3705EEA430E33
:107D6C0008BF20EAD37070BD94F0000F0FD101F062
:107D7C000046400041EB010111F4801F08BF013C9B
:107D8C00F7D041EA060195F0000F18BF704703F0D9
:107D9C000046520043EB030313F4801F08BF013D60
:107DAC00F7D043EA0603704794EA0C0F0CEA13551C
:107DBC0018BF95EA0C0F0CD050EA410618BF52EAD6
:107DCC004306D1D181EA030101F000414FF00000DC
:107DDC0070BD50EA410606BF1046194652EA4306EA
:107DEC0019D094EA0C0F02D150EA013613D195EA5E
:107DFC000C0F05D152EA03361CBF104619460AD1A6
:107E0C0081EA030101F0004141F0FE4141F47001AF
:107E1C004FF0000070BD41F0FE4141F4780170BD9F
:107E2C0070B54FF0FF0C4CF4E06C1CEA11541DBF04
:107E3C001CEA135594EA0C0F95EA0C0F00F0A7F806
:107E4C00A4EB050481EA030E52EA03354FEA013133
:107E5C0000F088804FEA03334FF0805545EA131346
:107E6C0043EA12634FEA022245EA111545EA10650E
:107E7C004FEA00260EF000419D4208BF964244F1A5
:107E8C00FD0404F5407402D25B084FEA3202B61AC4
:107E9C0065EB03055B084FEA32024FF480104FF498
:107EAC00002CB6EB020E75EB030E22BFB61A75460C
:107EBC0040EA0C005B084FEA3202B6EB020E75EB9F
:107ECC00030E22BFB61A754640EA5C005B084FEA07
:107EDC003202B6EB020E75EB030E22BFB61A7546D4
:107EEC0040EA9C005B084FEA3202B6EB020E75EBDF
:107EFC00030E22BFB61A754640EADC0055EA060EA0
:107F0C0018D04FEA051545EA16754FEA06164FEAE2
:107F1C00C30343EA52734FEAC2025FEA1C1CC0D18E
:107F2C0011F4801F0BD141EA00014FF000004FF01B
:107F3C00004CB6E711F4801F04BF01430020B4F1DC
:107F4C00FD0C88BFBCF5E06F3FF6AFAEB5EB030C94
:107F5C0004BFB6EB020C5FEA500C50F1000041EB91
:107F6C00045170BD0EF0004E4EEA113114EB5C045E
:107F7C00C2BFD4EB0C0541EA045170BD41F4801131
:107F8C004FF0000E013C90E645EA060E8DE60CEA39
:107F9C00135594EA0C0F08BF95EA0C0F3FF43BAF56
:107FAC0094EA0C0F0AD150EA01347FF434AF95EA0D
:107FBC000C0F7FF425AF104619462CE795EA0C0FF1
:107FCC0006D152EA03353FF4FDAE1046194622E7BE
:107FDC0050EA410618BF52EA43067FF4C5AE50EA98
:107FEC0041047FF40DAF52EA43057FF4EBAE12E788
:107FFC004FF0FF3C06E000BF4FF0010C02E000BF69
:10800C004FF0010C4DF804CD4FEA410C7FEA6C5C4B
:10801C004FEA430C18BF7FEA6C5C1BD001B050EAEE
:10802C00410C0CBF52EA430C91EA030F02BF90EAD9
:10803C00020F0020704710F1000F91EA030F58BF98
:10804C00994208BF90422CBFD8176FEAE37040F0FA
:10805C00010070474FEA410C7FEA6C5C02D150EA98
:10806C00013C07D14FEA430C7FEA6C5CD6D152EA53
:10807C00033CD3D05DF8040B704700BF8446104618
:10808C0062468C461946634600E000BF01B5FFF717
:10809C00B7FF002848BF10F1000F01BD4DF808EDE7
:1080AC00FFF7F4FF0CBF012000205DF808FB00BFB8
:1080BC004DF808EDFFF7EAFF34BF012000205DF812
:1080CC0008FB00BF4DF808EDFFF7E0FF94BF01205F
:1080DC0000205DF808FB00BF4DF808EDFFF7CEFF60
:1080EC0094BF012000205DF808FB00BF4DF808ED9F
:1080FC00FFF7C4FF34BF012000205DF808FB00BF70
:10810C004FEA410C7FEA6C5C02D150EA013C0AD187
:10811C004FEA430C7FEA6C5C02D152EA033C02D179
:10812C004FF0000070474FF0010070474FEA4102DA
:10813C0012F5001215D211D56FF47873B3EB6252AD
:10814C0012D94FEAC12343F0004343EA505311F0D4
:10815C00004F23FA02F018BF404270474FF0000066
:10816C00704750EA013005D111F0004008BF6FF0A4
:10817C00004070474FF00000704700BF4A0011D21A
:10818C0012F5001211D20DD56FF47873B3EB625265
:10819C000ED44FEAC12343F0004343EA505323FA71
:1081AC0002F070474FF00000704750EA013002D1E6
:1081BC004FF0FF3070474FF0000070474FEA41021C
:1081CC00B2F1E04324BFB3F5001CDCF1FE5C0DD929
:1081DC0001F0004C4FEAC0024CEA5070B2F1004F73
:1081EC0040EB830008BF20F00100704711F0804F76
:1081FC0021D113F13872BCBF01F00040704741F43B
:10820C0080114FEA5252C2F11802C2F1200C10FA3E
:10821C000CF320FA02F018BF40F001004FEAC12322
:10822C004FEAD32303FA0CFC40EA0C0023FA02F3C6
:10823C004FEA4303CCE77FEA625307D150EA01339C
:10824C001EBF4FF0FE4040F44000704701F000406C
:10825C0040F0FE4040F40000704700BF10B5054CE4
:10826C0013462CB10A4601460220AFF3008010BD24
:10827C00204610BD0000000010B5431E0A44914278
:10828C0004D011F8014B03F8014FF8E710BD02447C
:10829C000346934202D003F8011BFAE77047000033
:1082AC0038B5124B1C68A36B0546D3B91820FDF7E3
:1082BC009DFE43F20E33A06303804AF6CD33438018
:1082CC0041F2342383804EF26D63C3804DF6EC6330
:1082DC000381052343810B23838101220023C0E901
:1082EC000423A36B00221D615A6138BD9CDD032061
:1082FC00034613F8012B002AFBD1181A01387047DA
:10830C001D400D0059400D0085400D0089400D00A9
:10831C00000000000A556E69782054696D653A209A
:10832C002020202020202000636C6F756420737443
:10833C00617475733A2020202020006E6574776F6D
:10834C00726B207374617475733A2020200073690A
:10835C00676E616C20737472656E6774683A202066
:10836C00007369676E616C207175616C6974793A20
:10837C00202020004261747465727920566F6C74F1
:10838C006167653A202000426174746572792053EC
:10839C004F433A20202020202000444154412054B7
:1083AC004F2053544F52453A200030000A44657612
:1083BC006963652049443A20000A54657374696EF8
:1083CC006720454550524F4D3A000A507265737301
:1083DC0020627574746F6E20666F723A20002053A1
:1083EC0065636F6E6473000A54657374696E6720FD
:1083FC00427574746F6E3A000A54657374696E67D3
:10840C002056616C76653A000A54657374696E6720
:10841C0020534420436172643A000A5465737469B2
:10842C006E6720526164696F3A000A556E6B6E6F0D
:10843C00776E20636F6D6D616E640000000000004C
:10844C000000000085430D00CD430D000D430D00D1
:10845C000000000000000000B9440D000000000006
:10846C0000000000B7440D004F450D0029450D00DC
:10847C001D450D0099440D0093450D0017450D0049
:10848C0011450D000000000000000000B5440D0077
:10849C0041450D005D450D0023450D006465666189
:1084AC00756C7420004D5342004C5342003C5350A9
:1084BC004953657474696E67732064656661756C85
:1084CC00743E003C53504953657474696E67732055
:1084DC002573256C75202573204D4F444525643E2E
:1084EC00002530325825303258253032582530325C
:1084FC00582E4C4F47002F004947482D52464D36B9
:10850C00394843572D4B4559003C544553543E0074
:10851C003C544553543A4F4B3E00000000000000C1
:10852C000000000091560D0000000000000000004B
:10853C0097600D008D600D0083600D0079600D005B
:10854C006D600D0061600D0055600D004D600D00FB
:10855C0043600D0039600D00CD720D00000810183D
:10856C00202830386E616E006F7666002E00696EC2
:10857C006600626175640053657269616C005365D5
:10858C007269616C31007479706500706172616D33
:10859C0000636D6400696400686E64007374726DCE
:1085AC000066696C74006C766C0061646448616E82
:1085BC00646C65720072656D6F766548616E646C93
:1085CC00657200656E756D48616E646C65727300E2
:1085DC004A534F4E53747265616D4C6F6748616EB0
:1085EC00646C65720061707000253031307520004C
:1085FC005D20002564002C200028293A2000205BF7
:10860C0000636F6465203D2000256900646574611A
:10861C00696C73203D20000D0A006C6E00666E00C4
:10862C00636F64650064657461696C006E6F6E6580
:10863C0000747261636500696E666F007761726EBB
:10864C00006572726F720070616E696300616C6CB0
:10865C00005A00252B3033643A25303275002559E9
:10866C002D256D2D25645425483A254D3A25532545
:10867C007A0061736374696D65000000000000008E
:10868C000000000071460D0073460D00E9670D00F7
:10869C0079680D00ED670D0045680D0019680D0037
:1086AC0003690D00FCFFFFFF000000002D690D00A9
:1086BC000000000000000000816B0D00716B0D00CC
:1086CC00736B0D000000000000000000596C0D00E1
:1086DC00A96C0D00B76C0D0071640D00956C0D004C
:1086EC005B6C0D00716C0D00A36C0D00876C0D00A4
:1086FC00556C0D0000000000000000001F6E0D0006
:10870C00156E0D000B6E0D00C16D0D00FF6D0D0093
:10871C00F36D0D00E76D0D00DF6D0D00D56D0D00D7
:10872C00CB6D0D00CD720D000000000000000000AC
:10873C00CD6E0D001D6F0D002B6F0D0071640D00C3
:10874C00E16E0D00036F0D00EF6E0D00176F0D0045
:10875C00CF6E0D00D36E0D00000000000000000075
:10876C00D16F0D001B700D00F36F0D00D36F0D005A
:10877C00FB6F0D0003700D000B700D0013700D00DE
:10878C00000000000000000049710D003F710D0059
:10879C0035710D002B710D001F710D0013710D0043
:1087AC0007710D00FF700D00F5700D00EB700D00E2
:1087BC00CD720D00000000000000000065720D007D
:1087CC006F720D0079720D0083720D008D720D00A9
:1087DC0099720D00A5720D00B1720D00B9720D00E9
:1087EC00C3720D00CD720D000000000000000000EF
:1087FC00000000000000000000000000000000006D
:10880C00000000000000000000000000000000005C
:10881C00000000000000000000000000000000004C
:10882C00000000000000000000000000000000003C
:10883C00000000000000000000000000000000002C
:10884C0000000000000000000000000043000000D9
:10885C00D7400D00B9420D00BD420D00ED420D0098
:10886C0009440D009D450D0045470D0089480D003C
:10887C00BD480D00C1480D00C5480D00E3480D0072
:10888C00E7480D00EB480D00EF480D00494D0D0079
:10889C006D4D0D00714D0D00574F0D005B4F0D00D0
:1088AC005F4F0D0015530D0019530D001D530D0096
:1088BC00A1530D00295A0D002D5A0D00A1600D0079
:1088CC0051630D0049640D0029670D00A5670D006B
:1088DC00CD670D009D6E0D0015720D0099730D0086
:1088EC00D9750D005D760D0021770D00E5770D0033
:0488FC000000000078
:048900000000000073
:108904000A006400070000007E860D0000000000DD
:10891400F8870D0018880D0038880D00000000004D
:1089240000000000000000000000000058880D0056
:108934000000000000000000000000000000000033
:108944000000000000000000000000000000000023
:108954000000000000000000000000000000000013
:108964000000000000000000000000003CDD0320C7
:10897400FFFFFFFF00000102030405060708090AC0
:108984000B0C0D0E0F101112131415161718191ABB
:088994001B1C1D1E1F20280002
:04899C0078563412C3
:04000003D000401CCD
:00000001FF
