:02000002D0002C
:1040000000400D00B4980D00000006000D000501F1
:084010000401E80500000000B6
:04401800F0910D0016
:10401C0009480A49884208B505D0094A824202D0AB
:10402C00121A05F062F80748074A0021121A05F027
:10403C0067F8014808BD00BF94DD032024980D00EB
:10404C00FCDD0320FCDD0320F0E7032070B503F05A
:10405C0095FC074C074BE41AA40800251E46A54204
:10406C0004D056F8253098470135F8E770BD00BFED
:10407C0014980D0084970D0000F020B808B500F0DE
:10408C0028F8BDE8084003F03BBC02F0F7BE02F094
:10409C00F5BE0078B0FA80F0400970470123037038
:1040AC00704710B5421C0023C9B2141AA14203DD9B
:1040BC0012F8014B2344F8E7D8B210BD08B500F054
:1040CC00C5FB00F05DF800F09FFCBDE8084000F077
:1040DC00E9BD08B500F05EF800F09EFCBDE80840B4
:1040EC0000F0A8BB08B502F015FC00210120BDE8CA
:1040FC00084002F01FBE10B5044603F03FFD2168D6
:10410C00BDE8104003F0F6B81FB50B49684603F044
:10411C0088F86846FFF7EFFF684603F03BF807495D
:10412C00684603F07EF86846FFF7E5FF684603F043
:10413C0031F805B05DF804FBFB920D004C950D00B9
:10414C001FB510B1FFF7E0FF13E00B49684603F011
:10415C0068F86846FFF7CFFF684603F01BF807497D
:10416C00684603F05EF86846FFF7C5FF684603F043
:10417C0011F805B05DF804FB2A920D004C950D006A
:10418C0008B503F0FBFC4FF49641BDE8084003F082
:10419C00E9BC0000F0B589B0002301930293ADF89F
:1041AC000C3003F0EBFC03681B69984798B103F0E3
:1041BC00E5FC03685B699847C4B203F0DFFC036855
:1041CC001B699847002800F0C18003F0D7FC0368F6
:1041DC005B699847F1E7044664E0AA4904A803F038
:1041EC0020F804A8FFF787FF04A802F0D3FFA64924
:1041FC0004A803F016F804A8FFF77DFF04A802F04A
:10420C00C9FFA04904A803F00CF804A8FFF773FF3A
:10421C0004A802F0BFFF9D4904A803F002F804A80B
:10422C00FFF769FF04A802F0B5FF994904A802F052
:10423C00F8FF04A8FFF75FFF04A802F0ABFF954955
:10424C0004A802F0EEFF04A8FFF755FF04A802F043
:10425C00A1FF914904A802F0E4FF04A8FFF74BFF6B
:10426C0004A802F097FF8D4904A802F0DAFF04A815
:10427C00FFF741FF04A802F08DFF894904A802F062
:10428C00D0FF04A8FFF737FF04A802F083FF7D4995
:10429C0004A802F0C6FF04A8FFF72DFF04A802F043
:1042AC0079FF01247F4D2B78C3B17F4B1A787F4B5C
:1042BC001B789A4204D3FFF727FF00232B700124AD
:1042CC0002F0B0FB7A4B1B68C01A7A4B1B68984201
:1042DC0004D300200024FFF733FF2C70764E337884
:1042EC00002B00F0CB80754B1A781D46744B02B135
:1042FC000122744F1A7002F095FB3B68C01A41F210
:10430C006F73984240F2BA802D7855B100F094FA50
:10431C006D4B1870694B00221A7002F083FB3860E9
:10432C00ACE000F089FA694B00280CBF0122002296
:10433C001A7004D1644B1D78003518BF012528462E
:10434C00FFF7FEFE00232C46337097E0A4F13100FA
:10435C000E2800F2918001A353F820F0A5430D0024
:10436C00BF430D00C5430D003F440D0065440D00D7
:10437C0085440D0085440D0085440D0085440D00D9
:10438C0085440D0085440D0085440D0085440D00C9
:10439C0085440D00E7410D004D4904A802F041FF92
:1043AC0004A8FFF7A8FE04A802F0F4FE00F036F90A
:1043BC005EE000F039FB74E7052003F09AFD3B4CFE
:1043CC004449207004A802F02CFF04A8FFF793FEC8
:1043DC0004A802F0DFFE0A22217804A802F045FFAF
:1043EC0004A8FFF788FE04A802F0D4FE3A4904A8FA
:1043FC0002F017FF04A8FFF77EFE04A802F0CAFE25
:10440C00364904A802F00DFF04A8FFF774FE04A8B7
:10441C0002F0C0FE234B01221A7023785A1D4FF470
:10442C007A735343234A136002F0FCFA204B186052
:10443C0022E02B4904A802F0F4FE04A8FFF75BFE6F
:10444C0004A802F0A7FE1C4B01241C7002F0EAFA2F
:10445C001C4B1860194B1C70224904A802F0E1FE99
:10446C0004A8FFF748FE04A802F094FE00F066FDD5
:10447C000446FFF765FE15E7002413E7204609B054
:10448C00F0BD00BFC1920D001A920D0031920D00CB
:10449C003D920D00AD920D0004920D00D3920D00D3
:1044AC00EA920D000CDE032015DE03200EDE032045
:1044BC0008DE032004DE03200FDE03200DDE0320C4
:1044CC0014DE032010DE032000DE032001DE0320B7
:1044DC004D920D005D920D0071920D007A920D00BF
:1044EC008B920D009B920D0002F014BA13B502AC26
:1044FC0044F8040D03F0DEFE042221464FF48060E4
:10450C0002F0B0FA02B010BD30B591B03C220021DF
:10451C00054601A804F0F4FD03F0CCFE3C2201A9F1
:10452C00002002F097FA3C2101A8FFF7BAFD9DF894
:10453C00043083420CD101AC0FCC0FC50FCC0FC58E
:10454C000FCC0FC594E8070085E80700012000E0B8
:10455C00002011B030BD10B5044690B003F0AAFE97
:10456C003C222146002002F07DFA01A8FFF7CCFF87
:10457C009DF804002378C31A5842584110B010BD5E
:10458C0030B58FB034220021054601A804F0B8FDE7
:10459C0003F090FE342201A94FF4007002F05AFA95
:1045AC00342101A8FFF77DFD9DF8043083420AD128
:1045BC0001AC0FCC0FC50FCC0FC50FCC0FC52368AA
:1045CC002B60012000E000200FB030BD10B5044678
:1045DC008EB003F06FFE342221464FF4007002F0CF
:1045EC0041FA01A8FFF7CCFF9DF804002378C31A09
:1045FC00584258410EB010BD37B502AC002344F8F8
:10460C00043D054603F056FE042221464FF480601B
:10461C0002F020FA019B2B6003B030BDF0B5424A8A
:10462C00A5B01068516801AB03C3906818603F4B8C
:10463C0004AA03F1100701AE154618685968144610
:10464C0003C40833BB422246F7D13C22002115A8F3
:10465C0004F056FD3422002108A804F051FD96E820
:10466C00070018AB83E8070095E80F001BAC84E843
:10467C000F004FF0113541F211143C2115A8ADF883
:10468C008C4016951795FFF70CFD34218DF85400CE
:10469C0008A8ADF82240ADF83C40ADF82440ADF888
:1046AC003E40ADF82640ADF84040ADF82840ADF89E
:1046BC004240ADF82A40ADF84440ADF82C40ADF87E
:1046CC004640ADF82E40ADF84840ADF84A40ADF844
:1046DC003040ADF83240ADF84C40ADF83440ADF858
:1046EC004E40149524AC0E95FFF7DBFC002344F8E8
:1046FC00903D8DF820004FF0AA30FFF7F7FE2046D2
:10470C00FFF77AFF15A8FFF726FF08B9002009E08C
:10471C0008A8FFF75BFF0028F8D00098A0F1AA3397
:10472C005842584125B0F0BDFF920D000B930D007F
:10473C0002F0F0B803681847012A02D0022A02D00E
:10474C0004E0016002E00B6800B1036000207047D8
:10475C00436913B183690C301847704713B50021B6
:10476C000446084602F0AEF902A90023204641F89F
:10477C00043D02F0BFF9019C0CB10123237100210F
:10478C00012002F09FF92CB1236820469B689847C2
:10479C000023237102B010BD10B58368044613B119
:1047AC00032201469847204610BD07B580680023B8
:1047BC0038B18DE80A00022102F0A4F9B0FA80F0B9
:1047CC00400903B05DF804FB38B5104B03608368F7
:1047DC000446A3B16FF000410022FFF7E6FF002171
:1047EC00A06802F0A7F9237903F0FF0513B102F0DA
:1047FC0051F9F8E72946A06802F074F9A56004F1B4
:10480C000C00FFF7C9FF204638BD00BF24930D00F4
:10481C0010B50446FFF7D8FF20461C2103F0ECFD31
:10482C00204610BD024B0720197803F016BD00BFBF
:10483C0014DE0320FFF7F6BF08B5072003F026FDB2
:10484C00C0B208BD0146072003F007BD13B5022115
:10485C000520124C03F0F0FC002211462046FFF715
:10486C00A4FFA06840B100236FF000428DE80C005B
:10487C0019461A4602F046F9094B0024012107207B
:10488C001C7003F0D9FC2046FFF7DCFF0121072048
:10489C0003F0D2FC034B1C7002B010BD18DE0320D9
:1048AC0015DE032014DE032008B5052003F0EEFC12
:1048BC00C0B208BD08B5FFF7F7FF044B10B91A7862
:1048CC00013200E000221A7008BD00BF15DE032083
:1048DC0070B588B002F01EF8194B049304AD194C56
:1048EC00194B236095E8030004F10C0202AE86E834
:1048FC00030092E8030085E8030096E8030082E8D1
:10490C000300124A6261A26907920023104A2371C4
:10491C00A3600693A261019300930E4A23464FF4C1
:10492C007A7104F1080002F0D5F82846FFF734FF3D
:10493C00094A0A49204603F051FD08B070BD00BF7A
:10494C00C1480D0018DE032024930D0045470D00CF
:10495C0041470D0069470D00FCDD0320D5470D00D4
:10496C00704710B52821044603F046FD204610BDC3
:10497C0010B502F057F8084B1A68801A074A904293
:10498C001C4608D902F052FA10B1002002F056FA77
:10499C0002F048F8206010BD5CDE0320005C2605A8
:1049AC00014802F069BF00BF60DE0320014802F03D
:1049BC004DBF00BF60DE032030B58BB06846094C9C
:1049CC00094903F035F9029BA36004AD039BE36036
:1049DC000FCD10340FC495E8030084E803000BB02E
:1049EC0030BD00BF34DE0320E4E30320014802F0B5
:1049FC005BBE00BF34DE0320024B00221146586818
:104A0C0002F0D4B9E4E3032008B502F00BF8014B33
:104A1C00186008BD5CDE032008B5FFF7A9FFBDE8F0
:104A2C000840FFF7C9BF000010B503F0A7F83749DD
:104A3C0002F060FC03F0A2F8044602F0E1FD0A2249
:104A4C000146204602F073FC204602F05AFC03F0AB
:104A5C0095F82F4902F04EFC03F090F8044602F052
:104A6C00E5F90A220146204602F061FC204602F0DC
:104A7C0048FC03F083F8274902F03CFC03F07EF875
:104A8C000446FFF7B9FF0A220146204602F04FFC0C
:104A9C00204602F036FC03F071F81F4902F02AFCA4
:104AAC0003F06CF80446FFF7A1FF0221204602F048
:104ABC0028FD03F063F8194902F01CFC03F05EF8C2
:104ACC000446FFF793FF0221204602F01AFD03F083
:104ADC0055F8134902F00EFC03F050F80446FFF7AA
:104AEC0065FF0221204602F00CFD03F047F80D494A
:104AFC0002F000FC03F042F80446FFF751FF204699
:104B0C000221BDE8104002F0FCBC00BF30930D0048
:104B1C0042930D0055930D0068930D007B930D008F
:104B2C008E930D00A1930D0070B501F0F3FE104CA7
:104B3C00104B23600025283329460F4E6360182242
:104B4C0004F11000A560E56004F0DAFA20460B4C85
:104B5C000B49324603F042FC2946204602F036FE51
:104B6C00324620460749BDE8704003F037BC00BF11
:104B7C0034DE0320B8950D00FCDD032060DE03203D
:104B8C006D490D00F7770D0001F0C4BE037C03F0F6
:104B9C000803024603F0FF002BB1D36A506A181ABF
:104BAC0048BF6FF000407047704770477FB50246B2
:104BBC0008461379956833B13DB90C4904B0BDE88A
:104BCC00704002F097BB0A4B00E00A4B167B0A4C74
:104BDC000A49527B0292012E08BF21460191009591
:104BEC00074A002102F09CFC04B070BD11940D002A
:104BFC004D950D0000940D0009940D000D940D00C1
:104C0C0027940D00103001F069B8103000F040BF4F
:104C1C00103001F003B9083001F000B907B502AB50
:104C2C00012203F8011D1030194601F0F7F803B00A
:104C3C005DF804FB10B52C21044603F0DDFB204687
:104C4C0010BD10B53421044603F0D6FB204610BD30
:104C5C0007B502AB012203F8011D0830194601F01B
:104C6C00DDF803B05DF804FB07B501220DF1070177
:104C7C0000F05BFE01280CBF9DF807004FF0FF30E1
:104C8C0003B05DF804FB08B51030FFF7EDFF08BD6D
:104C9C00037C13F0700F03D00021103000F028BFFC
:104CAC00704700007FB52048037A13B1083001F03B
:104CBC004BF81E4C1E4B1F4A009304F58C660023C8
:104CCC008DF80430029201258DF80D300E226B46C2
:104CDC0004F26C4130468DF80C5001F0E7FB00B348
:104CEC0004F23C40266001F02FF82946204601F0E2
:104CFC0086FA014680B10D4C04F23C45214628460B
:104D0C0000F0FBFD68B194F83C3413F0700316BF4F
:104D1C00094B18461D6005E0204601F070FA00288A
:104D2C00E9D1002004B070BD24E30320A0DE0320F1
:104D3C00BC930D0080F0FA0284E3032007B5024611
:104D4C00D3B20193C2F3072300930846C2F307437F
:104D5C000349120E02F0A2F803B05DF804FB00BF89
:104D6C0045940D00F0B593B00F4601A9FFF7E6FF8F
:104D7C0000238DF824308DF8253006934FF47A7388
:104D8C000793134B059301AA44F202231149124EC7
:104D9C0009A809AC00F0DFFF0FCC06F110050FC518
:104DAC000FCC0FC523682B60069B7360307C079B70
:104DBC00B360089BF36040B13946304602F0ADFA5F
:104DCC00A5F1200000F0C0FF012013B0F0BD00BF22
:104DDC00C8930D00DCE2032050E303200146014898
:104DEC0001F008B8DCE203201FB5FFF75BFF08B940
:104DFC00002023E01349144A09681448002300F0EA
:104E0C00AAFF0028F4D000221049114800F027FF17
:104E1C0080B10D220021684604F072F969460C48F5
:104E2C0000F0CEFC0A4800F08FFF6946094800F0FC
:104E3C00E1FFE8E70848FFF72BFF012005B05DF81C
:104E4C0004FB00BF84E303205A940D002CE30320E1
:104E5C007CDE0320DCE2032050E303202DE9F0414B
:104E6C008EB090464FF47A720392184A0192002346
:104E7C0002460F4605A816498DF8143005AC8DF87E
:104E8C001530029300F067FF0FCC124E06F110059F
:104E9C000FC50FCC0FC523682B60029B7360307C51
:104EAC00039BB360049BF36060B13C46E31B9845E5
:104EBC00094804DDFFF7D8FE04F8010BF6E700F013
:104ECC0043FF01200EB0BDE8F08100BFC8930D0078
:104EDC00DCE2032050E3032060E3032010B504461A
:104EEC00FFF7E0FE08B9002010BD1049104A096810
:104EFC001048002300F02FFF0028F4D000220D49A9
:104F0C000D4800F0ACFE0C4800F01EFF00220949D1
:104F1C00094800F0A4FE0028E5D02146064800F020
:104F2C004FFC054800F010FF012010BD84E3032066
:104F3C005A940D002CE303207CDE032010B5ADF554
:104F4C00087DFFF751FF08B9002033E01B4802F041
:104F5C00D0FFFF220446742108A804F0D1F8FF22E8
:104F6C0008A92046FFF7FEFE0028EDD06946204632
:104F7C00FFF7E4FEFF2248A96846FFF76FFF002801
:104F8C00E2D0FF2248A908A804F0A0F80028DBD141
:104F9C0004A8FFF7A3FF0028D6D00D2204A9684669
:104FAC0004F094F80028CFD104A8FFF717FF0030C5
:104FBC0018BF01200DF5087D10BD00BF00422578FB
:104FCC0070B501F0A7FC274B274E642183F86014C1
:104FDC002649C3F87014012183F874143168002237
:104FEC0011F00105DA7183F83C2483F83D2483F831
:104FFC006A24C3F8782483F87C2483F87D241C4627
:10500C000AD13046FFF745F830B12946184801F06F
:10501C0099FF3046FFF742F81648154BC4F86C342C
:10502C0000244FF47A730474447444608360124A0D
:10503C00124B1349036003F0D1F91248124D04725C
:10504C00447244600C4A1149056003F0C7F91048DA
:10505C00094A04724472446005600C49BDE8704012
:10506C0003F0BCB9A0DE032068DE0320BC930D0066
:10507C006CDE032050E30320FCDD0320C8930D00FD
:10508C00B74B0D0024E30320F0930D00B54B0D003E
:10509C0074DE032001F03EBC01F03CBC10B50446AC
:1050AC00243000F09DFF28B104F50C70BDE81040D1
:1050BC0000F096BF10BD411E00F10A02002043080B
:1050CC0043EAC01011F8013F53FA80F08A42C0B293
:1050DC00F5D1704738B5CB6804460D4623B98968BD
:1050EC00BDE8384000F009BC2422002104F008F887
:1050FC00102301202370A070AB68A360EB682362BF
:10510C0038BD00002DE9F0470378202B00F1010495
:10511C0001D12046F8E7704F886005462C1A2E46C0
:10512C0015F8013B0BB32F2B01D1031917E05C2BA6
:10513C0002D10020BDE8F087A3F12204E4B21D2CBB
:10514C0003D827FA04F4E407F3D403F0BF043C2C8F
:10515C00EFD0203B5E2BE1D9EBE72F2D05D11E467E
:10516C0013F8015B202DF8D1F9E71660031998426A
:10517C00C0EB030809D013F8012D2E2AF7D0202AF2
:10518C00F5D0B8F1FF0FD4DC01E04FF00008C1F806
:10519C00048001F10C0301F11702202403F8014FE4
:1051AC009342FBD103461A1A13F8014B2E2CFAD05A
:1051BC00202CF8D0B2FA82F4640908F1FF36731C83
:1051CC0007D100274FF0070E3D46BA464FF00809AD
:1051DC0009E0835D2E2BF4D0013EF0E7835C202B9D
:1051EC0004D1002401324245F8DB4BE02E2B02D1D6
:1051FC00B242F6D103E0222B17D07C2B15D0A3F1B1
:10520C002A0CBCF1050F01D82D2B0ED1A3F13A0CB1
:10521C00BCF1050F09D9A3F15B0CBCF1020F04D949
:10522C00A3F1210CBCF15D0F02D9B2420ED149E0C1
:10523C00B24247D0754521D8A3F1610CBCF1190FCE
:10524C0008D8203BDBB249EA07070AE0754515D8B8
:10525C0000245F23A3F1410CBCF1190F98BF49EA5C
:10526C000A0A05F1010C5FFA8CFC0D44BCF1060F27
:10527C006B7301D881F80CC06546B3E7BEF10A0F19
:10528C0017D100244B7B202B3FF453AF3CB11AEACF
:10529C00070F18BF02270F700120BDE8F0870B7BAA
:1052AC000120087019447E234B7331238B73BDE8A6
:1052BC00F087B242E5DC32464FF00A0E08254FF07B
:1052CC0010098EE7BEF10A0FDBD032464FF00A0E02
:1052DC0008254FF0100985E701010031F0B58BB0BE
:1052EC0000238DF804308DF8053003781907044637
:1052FC0008D583789A0705D5016A29B1A06800F012
:10530C0060FF08B9002049E00121204600F0BCFAFA
:10531C0005460028F6D0FFF7CEFEE5262E700023BA
:10532C0007462370A068FFF7B9FE0028EAD0E3789F
:10533C00002B33D0214601A8FFF7CCFE0028E1D08A
:10534C000125E378AB42DDD3A188491B490101A8B3
:10535C0000F0CEFB0028D5D0002101A800F0ABFB5B
:10536C000028CFD0C37A0F2BCCD1027802F01F03C8
:10537C009D42C7D1437BBB42C4D10670A16891F852
:10538C00243043F0010381F82430530603D5A06880
:10539C00FFF784FE02E00135EDB2D2E70BB0F0BDB1
:1053AC002DE9F84391F80C9006460D4602247E2711
:1053BC0001F10D086968AA6863189BB21144914207
:1053CC0006D012F8010B03EB431343409BB2F6E7F4
:1053DC00B9F1030F28BF4FF0030909F10402D2B24F
:1053EC0003F00F01A818013A0929D2B294BF303149
:1053FC003731914541734FEA1313F1D305EB090390
:10540C0000215F73304600F073FB0121304600F041
:10541C0052FB014628B97078B0FA80F04009BDE81B
:10542C00F88303784BB1C37A1B07EED40B224046AA
:10543C0003F04CFE0028E8D102E00120BDE8F8831F
:10544C000134A4B2642CB5D1BDE8F8832DE9F04F3A
:10545C009B460B7889B013F0700F05900E46914661
:10546C0001D10020A0E1059B1B78002BF9D15368DA
:10547C00029313789B0700F08D81029B0D270C3350
:10548C00B3FBF7F70137FFB20021304600F030FBD9
:10549C004FF0000809F10D02CDF80C80434644464C
:1054AC004546CDF81080069272690793012130466B
:1054BC00C2F34F1A00F0FFFA079B20B97378002B48
:1054CC0000F09080CDE70278E52A00D042B9002C9C
:1054DC0008BFD046BC423CBF0134E4B222B981E0E3
:1054EC00BC4238BF002403E0E52A01D10025DBE7EC
:1054FC002E2AFBD0C17A0F2952D13DB95106D3D5F2
:10550C00437B039302F01F052B4607E0013BDBB204
:10551C009A42EBD1427B03999142E7D15A1E4FF04C
:10552C000D0C0CFB02FC029A6245DFD94FF0000E09
:10553C00BEF1040F5FFA8EF204D800EB4E02B2F803
:10554C0001200CE00A2A95BF0EF1FF320EF1010288
:10555C0000EB420200EB420294BFD288928802997F
:10556C00614503D1002A18BF00259DE7FF2ABDD84D
:10557C00D2B2A2F141011929D9F8081011F80C1076
:10558C0098BF20320CF1010AA1F1410C98BFD2B2A4
:10559C00BCF1190F9CBF2031C9B29142A6D1FBE0DE
:1055AC000907A3D44DB1012B7FF45BAFFFF783FD4B
:1055BC00039B83427FF455AF0FE00B2206990793B0
:1055CC0003F084FD079B00287FF46EAF99F8002050
:1055DC00D20702D50122049266E71BF4006F00F09B
:1055EC00D1803EE71BF4007F3FF43BAF0BF003038D
:1055FC00013B012B3FF635AF002C08BFD046BC4217
:10560C0002D3049BCBB91FE00021304600F053FAC3
:10561C0010B973785BB124E70134E4B2EFE7B368F7
:10562C001B79012BEDD81034E4B2A742E9D93046EE
:10563C0000F0EAF80028F2D113E749463046FFF7AC
:10564C00AFFE00283FF40DAF4FEA4811304600F092
:10565C004FFA00283FF405AF7D1EEDB22C464FF0FB
:10566C00000A4FF00F0841E00021304600F023FA09
:10567C00074600283FF4F5AEB26892F82430AC42ED
:10568C0043F0010382F824300CBF44F04002224660
:10569C00027080F80B8080F80CA009F10D000392C9
:1056AC00FFF709FD039A787387F81AA087F81BA0F7
:1056BC0002F01F020D23013AD9F808E05A430023E7
:1056CC000299914215D91EF80210042B5FFA83FC43
:1056DC0003F1010013D807EB4303A3F801100D28C5
:1056EC0002F101020346EBD1013CE4B2002CBBD128
:1056FC000EE014BF4FF0FF31002189B2E5E7BCF199
:10570C000A0F94BF07EB430307EB40039980E6E7CE
:10571C00736921463046C3F34F1A00F0CCF90746A3
:10572C0000283FF49EAE2022214603F0E9FC4B46B4
:10573C0053F80D2F3A605A687A601A893A819B7A2D
:10574C00BB7299F8003003F018033B73184B1B68BD
:10575C002BB107F10E0107F11000984706E0212349
:10576C003B7428237B740823BC73FB733B8A7B82BA
:10577C003B83FB89FB82B26892F8243043F001032F
:10578C0082F8243000955B4652463146059800F06D
:10579C00F8F909E0012777E60EF1010EBEF10D0FC5
:1057AC003FF482AED446C3E609B0BDE8F08F00BF2B
:1057BC0088E3032001F0AEB801F0ACB801F0AAB850
:1057CC0010B50C46017809B9002010BD11F060012C
:1057DC0004D02F2323700023637006E000F054F8EC
:1057EC000028F1D0214600F05EF8012010BD01F038
:1057FC0091B88378016943F00403837000F11002BF
:10580C00806800F0A3BC00002DE9F041037803F0A0
:10581C002003044603F0FF050BB100262EE042697D
:10582C00184B9A42F9D8FFF7E4FF06460028F4D04B
:10583C002169A06800F01FFC0746A06805223946C4
:10584C00243000F0F4FB80460028E6D029464FF4C3
:10585C00007203F055FC0125A3681A79AA4209D9F4
:10586C004246E919186800F05FFF0028D5D00135D1
:10587C00EDB2F1E7636903EB422363613046BDE8A7
:10588C00F08100BFFFFD1F0010B5044680680A467A
:10589C002430A16900F0CBFB20B1A38803F00F03E7
:1058AC0000EB431010BDF0B50024451E082623461E
:1058BC002E2715F8012F202A18D0082C02BFCF5400
:1058CC005A1CD3B22A78A2F1410E08BF1026BEF1A1
:1058DC00190F06D890F80CE016EA0E0F1CBF2032F8
:1058EC00D2B203F1010ECA545FFA8EF301340B2CC1
:1058FC00DFD10022CA541846F0BD70B504780546B5
:10590C000E4684B92422214603F0FAFBAE60F379EB
:10591C00102B03D0202B06D1402300E020230120A4
:10592C002B70A87070BD002070BD2DE9F74F037867
:10593C000446894615464BB18278D10706D50CE052
:10594C005A46216900F09DFB00283DDA637843F04C
:10595C00020363704FF0FF3097E01A0703D5E36939
:10596C0062699B1A07E09A0608D5A3681A896369CD
:10597C00C3EB42139BB29D4228BF1D462E464FF0EF
:10598C00000804F1100B002E35D022786369A06852
:10599C0012F0200FC3F3080A4FEA532102D0036A16
:1059AC0019441DE090F8058001EA0808BAF1000FCF
:1059BC0010D1B8F1000F0DD1002BC1D153064CBF43
:1059CC00036A236A236105E004D1237813F0700F76
:1059DC0011D1BBE72169A06800F04DFB08EB000179
:1059EC00A068BAF1000F35D1B6F5007F32D3C36A87
:1059FC00994202D12EE0A81B47E0B6F5806F1BD36D
:105A0C00227897064FEA562A06D40279C8EB02028E
:105A1C00D2B2924528BF924699424FEA4A2707D202
:105A2C00A06853464A46006800F03CFE60B98DE71A
:105A3C005344994221D3F3E74A46006800F0EAFD4B
:105A4C00002883D04FF4007763693B44B944636109
:105A5C00F61B98E70022243000F0E9FA00283FF406
:105A6C0075AFCAF50077B74228BF374600EB0A017D
:105A7C003A46484603F039FBE6E72430019100F042
:105A8C00AFFA01990028CBD160E703B0BDE8F08FE5
:105A9C0073B501220DF10701044646690569FFF74C
:105AAC0044FF012805BF9DF8070066614FF0FF30E9
:105ABC00256102B070BD37B54369C3F34315044685
:105ACC0005B169B901220DF107012046FFF72DFF41
:105ADC0040B2012801D0002008E063691F3300E0C8
:105AEC002033A0686361303000EB451003B030BD4B
:105AFC002DE9F0410E46017807690446002939D09A
:105B0C004569B5423AD00EB9066131E00B0703D5B1
:105B1C00C3699E422ED807E0880605D5A3681B8969
:105B2C00B6EB431F26D823E0D4F808E09EF80630E5
:105B3C006A1E03F10900731EC240C3409A4200D88A
:105B4C004DB94A064CBFDEF82020226A22611D4660
:105B5C0004F110080AE09B1AF9E742462169A06893
:105B6C0000F08FFA002805F1FF3503DD002DF4D18C
:105B7C00666103E027610020BDE8F0810120BDE8EB
:105B8C00F081F8B50F4615460021242204461E4626
:105B9C0003F0B6FAB868A06005F00F02A58000F11A
:105BAC00300152013B6AE3601144CB7A1D074CD49F
:105BBC00831893F83B3003F017032370C97A11F064
:105BCC00180F04BF43F0080323709DF81830E370DE
:105BDC0006F00303012B09D0022B05D0002B34D186
:105BEC00710532D4012302E0032300E00223A370E9
:105BFC00A1788B0703D5237813F0110F25D14BB265
:105C0C0016F4005F06F0080114BF6FF07F07002741
:105C1C0019433943A170C36AA36102447505B2F8F4
:105C2C004410B2F84A3043EA014104D581B100F086
:105C3C00C8FA68B909E02162D36CE36173040CD52E
:105C4C00E1692046FFF754FF38B900202070F8BDF9
:105C5C00A37843F00403A370F0E70120F8BD2DE90D
:105C6C00F743037806460D46174653BB0B7813F0E3
:105C7C00700F26D04C6914F01F0422D1A0460021CD
:105C8C002846D5F81490FFF716FFD0B10378C3B1AE
:105C9C002E2B01D10024F2E7E52BFBD0C17A11F0B9
:105CAC00080F05D17CB1FFF706FA804509D10AE04F
:105CBC000F29EFD15906E2D503F01F0490F80D809F
:105CCC00DDE7002007E000943B46C9F34F1229465C
:105CDC003046FFF756FF03B0BDE8F08338B50378C4
:105CEC0004460BB9012038BD83785A0723D501210E
:105CFC00FFF7CAFD054628B9637843F001036370CA
:105D0C00002038BD0378E52BF6D023781B0744BF61
:105D1C00E369C361238C4383638C8382094B1B68C7
:105D2C002BB100F11601183098472B8B6B82A3789E
:105D3C0023F00403A370A068FFF7B0F90028DBD0B0
:105D4C00D0E700BF88E3032010B50446FFF7C6FF79
:105D5C000023237010BDF0B593B01F4600238DF8BF
:105D6C0024308DF825300378019206460C460BB191
:105D7C0000203DE00B7813F0700FF9D013782F2B27
:105D8C0012D1019B1A782F2A02D101330193F8E723
:105D9C00A1681AB93046FFF7B0FD29E009A8FFF752
:105DAC00ACFD0028E4D009AC01AA03A90198FFF7C7
:105DBC00A9F90028DCD0019B1B789BB1002303AA16
:105DCC0021463046FFF742FB0028D1D035460FCD97
:105DDC0009AC0FC40FCD0FC42B6823603046FFF7FE
:105DEC00B3FFE0E73B4603AA21463046FFF72EFB04
:105DFC0013B0F0BD00B58BB000238DF804308DF8D6
:105E0C0005300A460123014601A8FFF7A4FF10B193
:105E1C0001A8FFF763FA0BB05DF804FB2DE9F0471E
:105E2C000378894619070446904608D583789A0763
:105E3C0005D51B070BD5E169FFF75AFE38B9637816
:105E4C0043F0010363704FF0FF30BDE8F0876369E6
:105E5C00DB439845F3D846464FF0000A6369002EA1
:105E6C0000F08180A068427912EA5325C3F3080739
:105E7C001CD1DFB9216971B104F1100200F001F9F4
:105E8C000028DCDB40F08E802046FFF7B2FC0028B7
:105E9C0040F08880D3E7236A3BB92046FFF7A9FC82
:105EAC000028CCD02369236200E023612169A0681B
:105EBC0000F0E1F8291817B9B6F5007F21D2C7F523
:105ECC000075B54228BF354637B96369E26993421C
:105EDC0034BF0122052200E00122A068243000F02A
:105EEC00A6F80028ABD038442A4649462F4403F084
:105EFC00FCF8B7F5007F30D1A068243000F070F8C2
:105F0C0017E0B6F5806FA06815D30279521B730A9F
:105F1C00D2B2934228BF1346C26A91424FEA43253C
:105F2C0002D31A44914237D3A7684A46386800F026
:105F3C006DFC90B983E7C36A994202BF4FF0FF33FF
:105F4C0080F824A0C362A3684A46186800F0ECFBF2
:105F5C0000283FF474AF4FF4007563692B44636100
:105F6C00A944761B7AE7E269934201D9E36102E026
:105F7C000F4B1B681BB1A37843F00403A37094F977
:105F8C000230002B02DB4046BDE8F0872046FFF7CD
:105F9C00A5FE0028F7D152E74FF0FF3280F824A07D
:105FAC00C262C1E72169A06800F065F8014683E789
:105FBC0088E3032000F0AEBC70B505460C460846DD
:105FCC0049B103F007F92B68024621462846DB68E5
:105FDC00BDE87040184770BD00F09CBC00F09ABC46
:105FEC0070B50378DA0704461ED54368816800F162
:105FFC000C063246186800F097FB054608B90025D8
:10600C0013E023789B0704D4237823F00103237037
:10601C000BE06368A068196932460144186800F007
:10602C0083FB0028F0D1EAE70125284670BD70B546
:10603C0083688B4204460E46154614D0FFF7D0FFFA
:10604C0008B9002070BD6B0703D500232370A66030
:10605C0009E0636804F10C023146186800F0DAFAC2
:10606C000028F2D1EDE72378204605F003051D4307
:10607C0000F80C5B70BD8379406902399940084483
:10608C007047012970B505460C46164602D84FF0EC
:10609C00FF3070BDC3699942F9D8C379202B10D158
:1060AC008169022201EBD41100F50C70FFF7BFFFE0
:1060BC000028ECD004F07F0450F8243023F0704317
:1060CC000FE0102BE3D18369C1F30721022219449D
:1060DC0000F50C70FFF7ABFF0028D8D0E4B230F815
:1060EC001430EA6993429ABF33600120002070BDDE
:1060FC00012938B50C46154601D8002038BDC369B6
:10610C009942FAD8C379202B0ED18169032201EB75
:10611C00D41100F50C70FFF78AFF0028EDD004F0C5
:10612C007F0440F824500FE0102BE6D18369C1F3B3
:10613C0007210322194400F50C70FFF778FF0028A3
:10614C00DBD0E4B220F81450012038BD2DE9F34126
:10615C00C4688C4205460E46904607D20C46002772
:10616C00EB6901349C4203D9CFB9EC680127F7E7FE
:10617C00A64214D001AA21462846FFF782FF002828
:10618C000DDBEDD0019B002BEAD107B1EC606FF079
:10619C00704221462846FFF7ABFF074608B9002797
:1061AC000BE016B9C8F8004007E0224631462846F5
:1061BC00FFF79EFF0028F5D1F1E7384602B0BDE8A5
:1061CC00F08173B505460C4601AA21462846FFF717
:1061DC0058FF061E01DA00200FE000222146284657
:1061EC00FFF786FF0028F6D0EB689C429CBF04F1B9
:1061FC00FF34EC60019C002EE6D102B070BD70B58E
:10620C00012304460022C3604FF0FF33C2710D46D8
:10621C00A06280F82420C362C4F8340280F83022D3
:10622C00C0F83832A1B104295DD811462430FFF7EB
:10623C00FEFE002857D000EB051393F8AE315B0639
:10624C0051D11B3500EB0515D5F80650002D4AD061
:10625C000022294604F12400FFF7E9FE002842D071
:10626C00B0F80B30B3F5007F3DD1037C022B3AD153
:10627C00C389002B37D0417B21714B1E63710023E6
:10628C00A371092601238B4207D0013E2BD0A279A2
:10629C005B000132DBB2A271F5E7C28A02B9426A35
:1062AC002261C6892E44A661B0F81130238106EB19
:1062BC0042012162B0F81120520102F2FF1201EBEF
:1062CC0062226261B0F8133003B9036AAD1A2B4431
:1062DC00A57923FA05F56B1CE36140F6F4739D4236
:1062EC0003D80C23E371002070BD4FF6F4739D426C
:1062FC0085BFC36A236210232023E371012070BD84
:10630C0000F008BB00F006BB00F004BB70B50E4CEF
:10631C000E46154600F07EFB2368C01A0B4B9842C4
:10632C0008D900F07FFB0A4B186000F077FD00F0F5
:10633C0071FB206000F076FB80B2801BA842D4BFBA
:10634C000020012070BD00BF8CE30320A08601005B
:10635C0010E7032038B5057A04464DB9406800F0C3
:10636C007DFA63682946187D01F077FF01232372BB
:10637C0038BD10B5037A04466BB143680121187D12
:10638C0001F06BFFFF21606800F09AFA606800F082
:10639C0079FA0023237210BDF8B504460D46164653
:1063AC0000F040FB87B2606800F06FFAFF28607263
:1063BC0009D14FF47A7239462046FFF7A7FF00281F
:1063CC00F1D055230BE0FE2801D0502307E03246D4
:1063DC002946606800F05EFA607230B16023204696
:1063EC002370FFF7C6FF0020F8BD606800F04DFA7F
:1063FC00606800F04AFA0120F8BD70B504460E46FC
:10640C0000F010FB85B2324629462046FFF77EFF8E
:10641C0030B9606800F039FAFF28F4D1012070BD62
:10642C00002070BDF7B5037A019204460D460BB9F6
:10643C00FFF790FF25B14FF496712046FFF7DDFF73
:10644C0045F04001606800F03BFA0DF107060DF1D4
:10645C00030716F80119606800F032FABE42F8D151
:10646C00002D0CBF95218721606800F029FA606827
:10647C0000F00BFA0B25606800F007FA0306607257
:10648C0003D5013D15F0FF05F5D103B0F0BD70B596
:10649C0004460D46164637210022FFF7C3FF32464D
:1064AC0029462046BDE87040FFF7BCBF2DE9F041FE
:1064BC0000250572057085724160044690461E46A3
:1064CC0000F0B0FA41460746606800F0CBF963680B
:1064DC004F4A1D724FF00108DA605D7483F810802A
:1064EC002046FFF737FF63684146187D01F0B5FE83
:1064FC000A25FF216068013D00F0E2F915F0FF0567
:10650C00F7D163682946187D01F0A7FE0A25002201
:10651C0011462046FFF786FF0128804612D0013D28
:10652C0015F0FF0501D1202357E0FD21606800F034
:10653C00C7F94FF40278606800F0A7F9B8F10108C8
:10654C00F9D1E4E74FF4D57208212046FFF76AFF32
:10655C00052802D184F80A800FE00425606800F059
:10656C0094F9013D15F0FF056072F7D1AA2802D10C
:10657C000223A37201E025232FE0A37A022B0CBF88
:10658C004FF080450025BFB22A4629212046FFF74F
:10659C007EFF024648B14FF4FA6239462046FFF7B7
:1065AC00B5FE0028F0D0432317E0A37A022B0ED0BF
:1065BC002046FFF7DEFE6368B0683479317B727B6E
:1065CC005A74D8601C7219740120BDE8F0813A210C
:1065DC002046FFF727FF38B1372320462370FFF7FB
:1065EC00C8FE0020BDE8F081606800F04EF900F0B4
:1065FC00C000C02804BF0323A372606800F045F9F3
:10660C00606800F042F9606800F03FF9D0E700BF25
:10661C0090D0030038B5837A032B18BF4902154676
:10662C000A4611210446FFF7FDFE10B130232370FA
:10663C000BE029464FF400722046FFF7ADFE0546ED
:10664C0018B12046FFF795FE03E02046FFF791FEB8
:10665C000025284638BD10B5837A032B0A4618BF8F
:10666C004A0212210446FFF7DDFE30B131232046E9
:10667C002370FFF77EFE002010BD012010BD10B569
:10668C0000220C210446FFF7CDFE30B12823204612
:10669C002370FFF76EFE002010BD2046FFF769FE49
:1066AC00012010BDF8B5054616461F46FFF7D3FF6F
:1066BC0098B10024A3B29F4206EB442108D94FF4B1
:1066CC0000722846FFF768FE01340028F2D104E07E
:1066DC002846BDE8F840FFF7D2BF0020F8BD38B51A
:1066EC0004461546406800F0EBF84FF4007229465A
:1066FC00606800F0E9F8FF21606800F0E1F8FF2124
:10670C00606800F0DDF8606800F0BFF8607200F0BF
:10671C001F00052806D0572320462370FFF729FEBB
:10672C00002038BD012038BD70B5837A032B18BF0B
:10673C00490215460A4618210446FFF773FE064621
:10674C0008B132231DE02A46FE212046FFF7C7FF81
:10675C00C0B14FF4FA612046FFF74FFE054608B969
:10676C005A230EE032460D212046FFF75BFE38B966
:10677C00606800F08AF818B92046FFF7FAFD05E0CA
:10678C00292323702046FFF7F4FD0025284670BD11
:10679C0038B50D464FF4FA610446FFF72EFE10B9DA
:1067AC005B23237005E02A46FC212046FFF797FF68
:1067BC0018B92046FFF7DDFD002038BD10B5837AEF
:1067CC00032B0A4618BF4A0219210446FFF72AFE7A
:1067DC0030B1332320462370FFF7CBFD002010BDD2
:1067EC00012010BD38B54FF4FA610446FFF705FEE1
:1067FC00054620B1FD21606800F062F801E05623E7
:10680C0023702046FFF7B5FD284638BDF8B5054680
:10681C0016461F46FFF7D2FF70B10024BC4206EBB0
:10682C004421284604D0FFF7B3FF28B10134F5E723
:10683C00BDE8F840FFF7D6BF2846FFF79AFD0020C9
:10684C00F8BD00F067B800F065B800F063B8000060
:10685C00014B01221A70704790E30320011D006860
:10686C0000F0A4BB10B504460175006800F074FB81
:10687C00207D012101F0E0FC207D0121BDE81040CC
:10688C0001F0EBBC006800F078BBFF21006800F061
:10689C00FDBB000037B5084B00930025074C006882
:1068AC00257013460A46294600F0F6FB2378002B88
:1068BC00FCD0002003B030BD5D680D0090E30320D8
:1068CC00006800F0E3BB000037B5074B00930025D0
:1068DC00064C0068257013462A4600F0DDFB237831
:1068EC00002BFCD003B030BD5D680D0090E303209D
:1068FC0000F010B808B5024B1B689B68019308BDEB
:10690C006802030008B5024B1B68DB68019308BDE5
:10691C006802030008B5024B1B681B68019308BD95
:10692C002C02030008B5024B1B689B68019308BD41
:10693C002C02030008B5024B1B68DB68019308BDF1
:10694C002C02030008B5024B1B681B69019308BDA0
:10695C002C02030008B5024B1B685B69019308BD50
:10696C002C02030008B5024B1B681B68019308BD81
:10697C003002030008B5024B1B685B69019308BD2C
:10698C003002030008B5024B1B68DB69019308BD9C
:10699C003002030008B5024B1B681B6A019308BD4B
:1069AC003002030008B5024B1B685B6A019308BDFB
:1069BC003002030008B5024B1B689B6A019308BDAB
:1069CC003002030008B5024B1B689B6B019308BD9A
:1069DC003002030008B5024B1B68DB6B019308BD4A
:1069EC003002030008B5024B1B681B6C019308BDF9
:1069FC003002030008B5024B1B685B6C019308BDA9
:106A0C003002030008B5024B1B685B68019308BD9C
:106A1C001802030008B5024B1B681B69019308BDE3
:106A2C001802030008B5024B1B685B69019308BD93
:106A3C001802030008B5024B1B68DB69019308BD03
:106A4C001802030008B5024B1B689B6A019308BD32
:106A5C001802030008B5024B1B685B6C019308BD60
:106A6C001802030008B5024B1B689B6C019308BD10
:106A7C001802030008B5024B1B689B6D019308BDFF
:106A8C001802030008B5024B1B689B68019308BDF4
:106A9C004802030008B5024B1B68DB68019308BD74
:106AAC004802030008B5024B1B681B69019308BD23
:106ABC004802030008B5024B1B685B69019308BDD3
:106ACC004802030008B5024B1B68DB69019308BD43
:106ADC004802030008B5024B1B681B6A019308BDF2
:106AEC004802030008B5024B1B685B6A019308BDA2
:106AFC004802030008B5024B1B689B6A019308BD52
:106B0C004802030008B5024B1B68DB6A019308BD01
:106B1C004802030008B5024B1B685B6C019308BD6F
:106B2C004802030008B5024B1B689B6C019308BD1F
:106B3C004802030008B5024B1B681B6F019308BD8C
:106B4C004802030008B5024B1B685B69019308BD42
:106B5C006402030008B5024B1B681B68019308BD57
:106B6C003C02030008B5024B1B68DB68019308BDAF
:106B7C003C02030008B5024B1B681B69019308BD5E
:106B8C003C02030008B5024B1B685B69019308BD0E
:106B9C003C02030008B5024B1B689B69019308BDBE
:106BAC003C02030008B5024B1B68DB69019308BD6E
:106BBC003C02030008B5024B1B681B6A019308BD1D
:106BCC003C02030008B5024B1B689B6A019308BD8D
:106BDC003C02030008B5024B1B689B69019308BD7E
:106BEC002802030008B5024B1B68DB69019308BD42
:106BFC002802030008B5024B1B681B6A019308BDF1
:106C0C002802030008B5024B1B685B6A019308BDA0
:106C1C002802030008B5024B1B689B6A019308BD50
:106C2C002802030008B5024B1B68DB6A019308BD00
:106C3C002802030008B5024B1B681B6B019308BDAF
:106C4C002802030008B5024B1B685B6B019308BD5F
:106C5C002802030008B5024B1B681B6C019308BD8E
:106C6C002802030008B5024B1B689B6C019308BDFE
:106C7C002802030008B5024B1B68DB6C019308BDAE
:106C8C002802030008B5024B1B681B6D019308BD5D
:106C9C002802030008B5024B1B685B6C019308BD0E
:106CAC007402030008B5024B1B681B68019308BDF6
:106CBC004C02030008B5024B1B685B68019308BDCE
:106CCC004C02030008B5024B1B681B69019308BDFD
:106CDC004C02030008B5024B1B685B69019308BDAD
:106CEC004C02030008B5024B1B689B69019308BD5D
:106CFC004C02030008B5024B1B68DB69019308BD0D
:106D0C004C02030008B5024B1B681B6A019308BDBB
:106D1C004C02030008B5024B1B681B68019308BDAD
:106D2C002002030008B5024B1B685B68019308BD89
:106D3C002002030008B5024B1B68DB6A019308BDF7
:106D4C002002030008B5024B1B689B6D019308BD24
:106D5C002002030008B5034B1B68D3F8883001935D
:106D6C0008BD00002002030008B5034B1B68D3F8D4
:106D7C009430019308BD00002002030008B5024BBB
:106D8C001B685B68019308BD4002030008B5024B09
:106D9C001B689B68019308BD4002030008B5024BB9
:106DAC001B68DB68019308BD4002030008B5024B69
:106DBC001B681B69019308BD4002030008B5024B18
:106DCC001B685B69019308BD4002030008B5024BC8
:106DDC001B689B69019308BD4002030008B5024B78
:106DEC001B68DB69019308BD4002030008B5024B28
:106DFC001B681B6A019308BD4002030008B5024BD7
:106E0C001B681B6B019308BD4002030008B5024BC5
:106E1C001B685B6B019308BD4002030008B5024B75
:106E2C001B689B68019308BD4402030008B5024B24
:106E3C001B685B69019308BD4402030008B5024B53
:106E4C001B68DB6A019308BD4402030008B5024BC2
:106E5C001B681B6B019308BD4402030008B5024B71
:106E6C001B68DB6B019308BD4402030008B5024BA1
:106E7C001B681B68019308BD1C02030008B5024B7C
:106E8C001B685B68019308BD1C02030008B5024B2C
:106E9C001B689B68019308BD1C02030008B5024BDC
:106EAC001B68DB68019308BD1C02030008B5024B8C
:106EBC001B685B6A019308BD1C020300002211468B
:106ECC004068FFF793BF002211464068FFF79EBF52
:106EDC0000224068FFF792BF002281F00101406858
:106EEC00FFF77CBF00231A4619464068FFF76EBFB8
:106EFC0000231A4619464068FFF760BF002211466E
:106F0C004068FFF753BF002211464068FFF73EBFB1
:106F1C00002202214068FFF741BF00231A46406857
:106F2C00FFF72CBF024B03225A60024A1A607047CB
:106F3C0094E3032064940D000021FFF753BD00215E
:106F4C00FFF758BD10B5044601700846FFF71AFD4F
:106F5C0000236360204610BD10B504460078FFF78F
:106F6C00EBFF48B920784FF6FF71FFF7FBFC207858
:106F7C00BDE81040FFF7E3BF10BD0078FFF7DFBF9F
:106F8C00400830B51860002418688842E5B206D96C
:106F9C000134082C02D040081860F5E70725024B95
:106FAC005B5D137030BD00BF90940D002DE9F04374
:106FBC0007468FB000780E46FFF7BEFF002862DB55
:106FCC003C781422002109A802F09AF80B232046E1
:106FDC00002209A9ADF82430FFF7E4FC9DF82D4000
:106FEC0054B19DF82C5035B9DDF830809DF83490B3
:106FFC009DF8354003E00024A146A04601253379D5
:10700C0005B1BBB99D420BD1B268424508D18DF890
:10701C0020908DF82140BDF82010B289914209D002
:10702C0053B1002438780194009423462246012160
:10703C00FFF7D0FC002026E08DF80F30B1680A98DD
:10704C0004AB0DF10F02FFF79BFF317905B1B1B91C
:10705C00A94208D0002438780194747B337B9DF8C6
:10706C000F200094E4E7B3684345F3D38DF82090E8
:10707C008DF82140BDF82020B3899A42EAD1049BB7
:10708C004345E7D1D6E70FB0BDE8F08308B50078EB
:10709C00FFF770FCC0B208BD30B587B004460A9D3E
:1070AC0000780095FFF786FC3DB902A92078FFF720
:1070BC0089FC9DF81430DB07F7D407B030BD00789D
:1070CC00FFF768BC10B50446006818B1FFF7D6FE90
:1070DC000023236010BD10B50446FFF7F3FF2046D4
:1070EC0010BD000010B5094C00204FF6FF73206056
:1070FC00A080A07120816381FFF714FE2046044A12
:10710C000449BDE8104001F069B900BF9CE30320BD
:10711C00FCDD0320E3700D0010B5044602F05AF8B4
:10712C00013823182046984206D20278197800F8C4
:10713C00011B03F80129F6E710BD70B50C46911E32
:10714C00222920D82546294610B9234430220EE0A6
:10715C00B0FBF2F602FB1600C1B205F8011B0928C0
:10716C0094BF3031573105F8011C3046EBE799429A
:10717C0002D201F8012BFAE7002320460B70FFF72F
:10718C00CBFF204670BD002070BD08B50123FFF772
:10719C00D4FF08BD10B504460068FFF76FFE20460B
:1071AC0010BD10B50446006808B1FFF767FE002358
:1071BC002360A360636010BD38B504460D460068BB
:1071CC000131FFF763FE10B184E82100012038BDC6
:1071DC0010B50368044613B143688B4207D22046AE
:1071EC00FFF7EAFF20B1A3680BB9226813700120E6
:1071FC0010BD70B50E46114604461546FFF7E8FF64
:10720C0018B92046FFF7CDFF09E02A463146A560A4
:10721C00206801F06AFF2268A3680021D15420463F
:10722C0070BD38B50023044603604360836003736C
:10723C000D4639B1084601F0CDFF294602462046DD
:10724C00FFF7D7FF204638BD38B505460C4641B18F
:10725C00084601F0BFFF214602462846FFF7C9FF4A
:10726C0001E0FFF79EFF284638BD1FB504460023FA
:10727C0023606360A3602373084601A9FFF785FFB1
:10728C0001A92046FFF7E0FF204604B010BD10B561
:10729C000446006808B1FFF745FC204610BD00000D
:1072AC0010B5064C002320462360FFF733FC204624
:1072BC00034A0449BDE8104001F090B8A8E303204C
:1072CC00FCDD03209B720D00F8B506460D468F18A9
:1072DC000024BD420CD0336815F8011B9B68304666
:1072EC009847002801DB0444F3E7002C08BF044650
:1072FC002046F8BD08B5FEF75FFE08BD03689B6825
:10730C00184738B50D210546FFF7F8FF0A2104464A
:10731C002846FFF7F3FF204438BD38B50546FEF785
:10732C004BFE04462846FFF7ECFF204438BD30B531
:10733C008BB00B4600218DF82410012A98BF0A222D
:10734C000DF12304B3FBF2F505FB123303F0FF033D
:10735C00092B94BF30333733DBB2214604F80139A3
:10736C002B46002DEED1FEF727FE0BB030BD0000F2
:10737C002DE9F04757EC106B82460D4610EE102AA3
:10738C003B4610EE100A394601F0E4FD08B14E49B7
:10739C0012E027F000494FF0FF324C4B3046494683
:1073AC0001F0D8FD68B94FF0FF32484B30464946E2
:1073BC0001F0B2FD28B946495046FEF7FDFDBDE887
:1073CC00F0874FF06042434B3046394601F0B8FD30
:1073DC0008B14149F0E74FF06042404B3046394626
:1073EC0001F090FD0028F4D10022002330463946EC
:1073FC0001F088FD40B12D215046FFF77FFF07F1CA
:10740C00004304461F4600E0044635494FF000088F
:10741C0000205FFA88F39D4206D90022314B01F01F
:10742C0029FC08F10108F4E732463B4601F046F925
:10743C000F46064601F0CCFD0A2201468046504616
:10744C00FFF775FF0444E5B3404601F073FA0246BA
:10745C000B463046394601F02FF906460F4650468A
:10746C002149FEF7A9FD044400221E4B3046394643
:10747C0001F0D6FA06460F4601F082FDB0F1000984
:10748C0007DA2D215046FFF739FFC9F1000180467C
:10749C0002E049464FF000080A225046FFF747FF2A
:1074AC0040440444484601F055FA02460B46304627
:1074BC00394601F001F9013D15F0FF0506460F466E
:1074CC00D2D12046BDE8F08798940D00FFFFEF7FE6
:1074DC00A2940D00FFFFEF419C940D00FFFFEFC144
:1074EC000000E03F00002440A0940D0038B5C9B264
:1074FC000546FFF73DFF04462846FFF702FF2044F0
:10750C0038BD38B5044610EE100A0D4601F034FAB9
:10751C0041EC100B29462046BDE83840FFF7E6BF8A
:10752C000CB42DE9F04387B000AF07F138040546E1
:10753C0054F8049B3C600E4623464A461421381DE1
:10754C00FFF7B4FC132805D8391D2846FEF734FD87
:10755C00044613E000F1080323F00703E846ADEB03
:10756C00030D411C23464A4668463C60FFF79EFCCF
:10757C0069462846FEF720FD0446C5461EB128463E
:10758C00FFF7BFFE044420461C37BD46BDE8F04360
:10759C0002B07047014B024A1A607047ACE30320FB
:1075AC0019950D0008B50020FFF750FC28B1FFF726
:1075BC003DFC80F00100C0B208BD012008BD10B533
:1075CC000020FFF757FA044668B9FFF7A3FB012820
:1075DC000BD12046FFF7B6FB38B9FFF7E3FF30B904
:1075EC00FFF71CFCF9E7012010BD002010BDFFF7D0
:1075FC00D9FF0020FFF73EFA003018BF012010BD64
:10760C0008B5FFF7DCFFBDE80840FFF713BA000030
:10761C00024B1A68024B1A60704700BF94DD0320BE
:10762C00B0E3032010B50446FDF7B6F8204610BDB4
:10763C000348044A04490023836000F0CFBE00BF16
:10764C00B4E30320FCDD032031760D00007D704790
:10765C00037D1BB18369B3F1004F02D19FED050A85
:10766C00704707EE903A9FED047AF8EEE77A87EED2
:10767C00870A7047000000000000C842037D1BB160
:10768C00036AB3F1004F02D19FED050A704707EE74
:10769C00903A9FED047AF8EEE77A87EE870A704706
:1076AC00000000000000C842037D7BB1436A002B40
:1076BC000CDB07EE903ADFED076A9FED070AB8EE98
:1076CC00E77AC7EE267A27EE800A7047BFEE000AEB
:1076DC00704700BF00FF7F470000C842037D7BB1AD
:1076EC00C369002B0CDB07EE903ADFED076A9FEDC8
:1076FC00070AB8EEE77AC7EE267A27EE800A7047BB
:10770C00BFEE000A704700BF00FF7F470000C84271
:10771C0030B50D4600F110040FCD0FC495E80300F1
:10772C0084E80300012030BD2DE9F04107460C46EA
:10773C0015462AB90368C9B29B68BDE8F0411847E1
:10774C00002907DA0A2A05D12D21FFF7D7FD61425E
:10775C00064601E021460026EAB23846FFF7E7FD6F
:10776C003044BDE8F08170B50D4606460A228168AA
:10777C002846FFF7D9FF2C2104462846FFF7BEFD0B
:10778C000A220444F1682846FFF7CEFF204470BD5E
:10779C00A0F10400FFF7E7BF090941EA001007EE6A
:1077AC00900AB8EEE70ADFED027A80EE270A7047FE
:1077BC0000004844006800F08ABB10B50446016024
:1077CC0002710AB1FFF7F6FF204610BD38B504462A
:1077DC000D4600F0DDFD2A4601462046FFF7EDFF81
:1077EC00204638BD006800F07BBB10B50379044619
:1077FC000BB1FFF7F7FF204610BDF8B5044616464F
:10780C001D460F46FFF7D6FF2068362100F054FBCB
:10781C002068036839469B6898470121206800F06E
:10782C004EFB022236210123206800F02FFB20683A
:10783C0003685B6998473070206803685B699847F8
:10784C0028702046BDE8F840FFF7CCBF07B502AB67
:10785C0000228DF8062003F8012D02210DF10602FD
:10786C00FFF7CBFF9DF807109DF8060003B05DF8FD
:10787C0004EBFFF791BF000007B502AB002203F841
:10788C00012D8DF8062004210DF10602FFF7B5FF3E
:10789C009DF8070001F05EF80022094B01F0C0F8DA
:1078AC0001F0B6FB9DF8063000EE103A07EE900A98
:1078BC00B8EEC00A37EE800A03B05DF804FB00BFD7
:1078CC000000703F08B50C4B33B100F057F903685A
:1078DC001B699847002809DC084B63B100F056FA85
:1078EC0003681B699847002803DC08BDAFF30080D0
:1078FC00F2E7AFF3008008BD0000000000000000BC
:10790C0008B5FFF7DFFFFFF78DF8014B186008BDD6
:10791C0010E703200248034A0349121A01F0E5BBA1
:10792C0000F4032004F4032020980D0007B5002375
:10793C0000931A466FF07701FFF716FA03B05DF863
:10794C0004FB000007B543880A2B08D0502B09D143
:10795C00094B1B683BB103B05DF804EB1847FFF70C
:10796C00E5FF06E0002300931A466FF07701FFF75E
:10797C00FBF903B05DF804FBC4E3032038B5104CED
:10798C00104D2368AB42104B0CBF012200221A7021
:10799C0002D0FFF7BFFF2560FFF734F8044601F073
:1079AC00B7FB0A4B13B12046AFF300800021074808
:1079BC00FFF754FA00210648BDE83840FFF7CAB972
:1079CC0000F403201E1C279AC8E3032000000000CB
:1079DC0051790D00704710B51821044600F00CFDCC
:1079EC00204610BDF0B5037D062B8DB00E4600F180
:1079FC0004074FF0000402D000F1080518E00CADAC
:107A0C00394605F8304D2F232A460A20FFF79AF8FD
:107A1C00284601F0DFFB33680246DB682946304616
:107A2C0098470FE024B12E213046FFF767FC044441
:107A3C0015F8011D0A223046FFF779FCBD420444BB
:107A4C00F0D120460DB0F0BD10B5054B0446112207
:107A5C0040F8043B002101F053FB204610BD00BF51
:107A6C00EC950D000346074A10B543F8042B01F1C1
:107A7C00100251F8044B43F8044B9142F9D10A78A7
:107A8C001A7010BDEC950D0010B59DF8084044EA35
:107A9C00032343EA024242EA016104234160037575
:107AAC0010BD37B50D788B784A78C9780091294686
:107ABC00FFF7EAFF03B030BD41747047704708B55B
:107ACC000021007CFFF70EF930EA200028BF4FF0B0
:107ADC00FF3008BD08B50121007CFFF703F930EA3F
:107AEC00200028BF4FF0FF3008BD08B5007CFFF721
:107AFC00F1F820EAE07008BD08B5007CFFF7E2F869
:107B0C0020EAE07008BD007CFFF7FCB810B514212A
:107B1C00044600F071FC204610BD38B50446007CCC
:107B2C000D46FFF7D7F8002801DC607C28B1294608
:107B3C00207CFFF7DFF820EAE07038BD10B5044672
:107B4C00002363604FF47A73A360054B2360012319
:107B5C000846217463741146FFF7A4F8204610BD43
:107B6C0000960D000022007CFFF7A4B810B514227B
:107B7C000446002101F0C4FA204610BD30B50E4D6C
:107B8C0087B001A8FFF7F2FF296811F0010410D1AA
:107B9C002846FCF77EFA60B101AA21460748FFF798
:107BAC00CDFF2846FCF77AFA054A0649034800F04F
:107BBC0015FC024807B030BDCCE30320D0E3032012
:107BCC00FCDD0320C97A0D00002211464068FFF746
:107BDC00EDB8002211464068FFF708B900221146A3
:107BEC004068FFF713B900224068FFF707B900227D
:107BFC0081F001014068FFF7F1B800231A461946DD
:107C0C004068FFF7E3B800231A4619464068FFF7AF
:107C1C00D5B8002211464068FFF7B8B800220221FF
:107C2C004068FFF7BBB800231A464068FFF7A6B8B8
:107C3C00F0B51B4B036000250F462833182689B07E
:107C4C0043608560C560324629460446103001F019
:107C5C0057FA2A4629467868FFF7A8F808B9A060B1
:107C6C001BE02946324602A80095019501F048FA1E
:107C7C0002A96846ADF80860FFF70CF810B10123B3
:107C8C00A3600AE0009B019AA360E2600BB9022397
:107C9C00A36002A92046FFF73BFD204609B0F0BDCA
:107CAC00B8950D0038B5084C28252A4600212046E9
:107CBC0001F026FA4FF0FF336360044B2580042259
:107CCC005A60034A1A6038BDECE30320E4E3032056
:107CDC0030960D0070474174704708B5007CFEF774
:107CEC0071FF20EAE07008BD08B5007CFEF742FF8A
:107CFC0020EAE07008BD08B5007CFEF74BFF30EAC7
:107D0C00200028BF4FF0FF3008BD08B5007CFEF7FF
:107D1C0039FF30EA200028BF4FF0FF3008BD007C4F
:107D2C00FEF740BF10B51421044600F065FB204659
:107D3C0010BD70B5457C04460E4625B9007CFEF797
:107D4C0041FF002805DD3146207CBDE87040FEF780
:107D5C0009BF284670BD000010B504460846114600
:107D6C00002262604FF47A72A260054A22600122FE
:107D7C00207462741A46FEF7EDFE204610BD00BF5B
:107D8C0064960D00007CFEF715BF000038B50C4D55
:107D9C00296811F0010411D12846FCF77AF968B171
:107DAC00084A094B09482146FFF7D6FF2846FCF73D
:107DBC0075F9074A0749054800F010FB034838BD20
:107DCC00ACE40320B0E4032028E4032014E40320F3
:107DDC00FCDD0320E17C0D007047F8B50646154626
:107DEC000C468F18BC4206D0336814F8011B9B68F4
:107DFC0030469847F6E72846F8BD0022007CFEF78F
:107E0C00F9BE0021007CFEF7FDBE0021007CFEF7D0
:107E1C0001BF0021007CFEF705BF0021007CFEF7AE
:107E2C0009BF10B51421044600F0E6FA204610BD37
:107E3C0010B50446002363604FF47A73A360044BBF
:107E4C002174084623601146FEF704FF204610BD3E
:107E5C0094960D0070B50C4686B0142506462A463D
:107E6C00002101A801F04CF923788DF808306368E3
:107E7C000393E36804930022237A307CADF804501A
:107E8C0001A90593FEF7FEFE06B070BD1FB50033C9
:107E9C008DF800104FF06401039118BF012369465F
:107EAC0001928DF80830FFF7D5FF05B05DF804FBA3
:107EBC000022007CFEF78EBEC9B2FFF7F9BF00228C
:107ECC00007CFEF78FBE0021007CFEF7BBBE08B520
:107EDC000021007CFEF7C6FEB0FA80F0400908BD18
:107EEC0008B50021007CFEF7C5FEB0FA80F0400911
:107EFC0008BD10B5044630B101F032F990FBF4F333
:107F0C0003FB140010BD10BD002211464068FEF7A3
:107F1C006DBF002211464068FEF778BF0022406812
:107F2C00FEF76CBF002281F001014068FEF756BFDE
:107F3C0000231A4601214068FEF748BF00231A4669
:107F4C0019464068FEF73ABF002211464068FEF71A
:107F5C002DBF002211464068FEF718BF00220221F7
:107F6C004068FEF71BBF00231A464068FEF706BFA9
:107F7C0038B5054688B104684CB1A3681BB103221F
:107F8C002146204698471021204600F035FA284615
:107F9C001421BDE8384000F02FBA38BD10B1036889
:107FAC005B681847704710B503680446BBB1586846
:107FBC00FEF768FD78B923685A7C12B95868FEF749
:107FCC0071FD23685868FEF775FD20680023236057
:107FDC0028B1FFF7CDFF206808B1FFF7C9FF204695
:107FEC0010BD38B50446D0F8C40108B1FCF74FF801
:107FFC00D4F8C00108B1FEF795FDD4F8BC5135B1E9
:10800C002846FFF7D0FF0421284600F0F5F9206838
:10801C0008B1FFF7C3FF204638BD000010B5044B74
:10802C00044640F8083BFFF7DCFF204610BD00BFBC
:10803C00BC960D0038B50E4C0E4B23600025022368
:10804C0004F5E4706360A560C4F8C451C4F8C85169
:10805C00FEF760FD084BC4F8CC5184F8D051236076
:10806C002046064A0649BDE8384000F0B7B900BFC3
:10807C0034E50320F0960D00BC960D00FCDD0320CA
:10808C0029800D0000231A464068FEF777BE0022B7
:10809C0002214068FEF782BE002211464068FEF7BE
:1080AC0075BE002211464068FEF780BE00231A46BA
:1080BC0019464068FEF782BE00231A4619464068EE
:1080CC00FEF784BE002281F001014068FEF786BEF7
:1080DC0000224068FEF792BE002211464068FEF76F
:1080EC0095BE002211464068FEF780BE2DE9F04394
:1080FC00002495B016460D460746FFF7A5FC214611
:10810C0020220CA8009400F0FBFF40230C93214686
:10811C006B460CAA3046FEF7F5FB0446002844D10A
:10812C00024601216868FEF741FE02218046224684
:10813C006868FEF73BFE009E81462146002E34D037
:10814C00002932D17368022B02D00A2B09D02AE005
:10815C00B8F1000F27D0716938460431FFF7A1FC44
:10816C0020E0B9F1000F1ED07469112201A800F0B3
:10817C00C7FF06238DF8143001AD04F10803183441
:10818C00186859682A4603C20833A3421546F7D12A
:10819C0001A906A807ADFFF765FC0FCD3C1D0FC468
:1081AC002B6823700121F669C8E70098FEF7A2FB43
:1081BC00384615B0BDE8F083024B034A1A60002222
:1081CC005A60704708E70320F0960D0070B5184E02
:1081DC00316811F0010504460AD13046FBF759FF0E
:1081EC0030B129461348FEF7ADFE3046FBF756FF7B
:1081FC001048FEF764FF28B1A4F10B03022B01D841
:10820C00002070BD00F09EF8FFF75DFE08B1012C58
:10821C00F6D9FFF7BBFDFFF7B5FD18B1A4F10903C3
:10822C00012BEDD9232C8CBF0020012070BD00BF89
:10823C0068DE03206CDE0320232838B504460D4687
:10824C000AD8FF2908D0FFF7C1FF28B129462046DC
:10825C00BDE83840FEF766BB38BD38B504460D4660
:10826C00FEF768FBFF2810D0062804D84D2323FA0C
:10827C0000F0C30709D42046FFF7A8FF28B1294610
:10828C002046BDE83840FEF75DBB38BD10B504464E
:10829C00FEF750FB0438C0B2012808D92046FFF77E
:1082AC0095FF20B12046BDE81040FEF753BB0020DF
:1082BC0010BD000010B5074C2368DB0708D420461E
:1082CC00FBF7E7FE20B1FEF7BDFB2046FBF7E6FE11
:1082DC00014810BD14E7032018E7032070B50446CD
:1082EC0014252A46094E002100F00AFF258020257E
:1082FC003146A5602561284600F080F83146606063
:10830C00284600F07BF8E060204670BD1C970D00FD
:10831C0070B5044614252A46094E002100F0F0FEE3
:10832C00258020253146A5602561284600F066F899
:10833C0031466060284600F061F8E060204670BD70
:10834C001C970D0030B50E4D296811F0010487B053
:10835C0013D12846FBF79DFE78B101A8FFF7BEFFAD
:10836C0001AA21460748FFF763FD2846FBF796FE56
:10837C00054A0649034800F031F8024807B030BD01
:10838C001CE7032034E70320FCDD0320E57D0D0012
:10839C0010B50E4C2368DB0786B013D42046FBF7D0
:1083AC0078FE78B101A8FFF7B3FF01AA01210848B4
:1083BC00FFF73EFD2046FBF771FE064A06490448CE
:1083CC0000F00CF8024806B010BD00BF48E70320CF
:1083DC0020E70320FCDD0320E57D0D000B46014664
:1083EC00184600F065BE0000024B1868BFF35F8FA3
:1083FC00704700BF4CE70320FBF747BE00F000B806
:10840C0010B5002814BF044601242046FEF72EFDAB
:10841C0020B9FFF7E9FF08B18047F6E710BD00006F
:10842C00184B1A68D1075CBF01221A60164B1A68E8
:10843C00D2075CBF01221A60144B1A68D0075CBFCC
:10844C0001221A60124B1A68D1075CBF01221A6014
:10845C00104B1A68D2075CBF01221A600E4B1A68C7
:10846C00D0075CBF01221A600C4B1A68D1075CBFA5
:10847C0001221A600A4B1A68D2075CBF01221A60EB
:10848C00704700BF6CE7032068E7032064E7032014
:10849C0060E703205CE7032058E7032054E7032040
:1084AC0050E70320244B1A68D0075CBF01221A60E6
:1084BC00224B1A68D1075CBF01221A60204B1A6844
:1084CC00D2075CBF01221A601E4B1A68D0075CBF32
:1084DC0001221A601C4B1A68D1075CBF01221A607A
:1084EC001A4B1A68D2075CBF01221A60184B1A6823
:1084FC00D0075CBF01221A60164B1A68D1075CBF0B
:10850C0001221A60144B1A68D2075CBF01221A6050
:10851C00124B1A68D0075CBF01221A60104B1A6804
:10852C00D1075CBF01221A600E4B1A68D2075CBFE0
:10853C0001221A60704700BF9CE7032098E70320D4
:10854C0094E7032090E703208CE7032088E70320BF
:10855C0084E7032080E703207CE7032078E70320EF
:10856C0074E7032070E70320244B1A68D0075CBF24
:10857C0001221A60224B1A68D1075CBF01221A60D3
:10858C00204B1A68D2075CBF01221A601E4B1A6876
:10859C00D0075CBF01221A601C4B1A68D1075CBF64
:1085AC0001221A601A4B1A68D2075CBF01221A60AA
:1085BC00184B1A68D0075CBF01221A60164B1A6858
:1085CC00D1075CBF01221A60144B1A68D2075CBF3A
:1085DC0001221A60124B1A68D0075CBF01221A6084
:1085EC00104B1A68D1075CBF01221A600E4B1A6837
:1085FC00D2075CBF01221A60704700BFCCE7032092
:10860C00C8E70320C4E70320C0E70320BCE703202E
:10861C00B8E70320B4E70320B0E70320ACE703205E
:10862C00A8E70320A4E70320A0E70320184B1A684F
:10863C00D1075CBF01221A60164B1A68D2075CBFC7
:10864C0001221A60144B1A68D0075CBF01221A6011
:10865C00124B1A68D1075CBF01221A60104B1A68C2
:10866C00D2075CBF01221A600E4B1A68D0075CBFA0
:10867C0001221A600C4B1A68D1075CBF01221A60E8
:10868C000A4B1A68D2075CBF01221A60704700BF00
:10869C00ECE70320E8E70320E4E70320E0E703200E
:1086AC00DCE70320D8E70320D4E70320D0E703203E
:1086BC0081F0004102E000BF83F0004330B54FEA87
:1086CC0041044FEA430594EA050F08BF90EA020FF4
:1086DC001FBF54EA000C55EA020C7FEA645C7FEA87
:1086EC00655C00F0E2804FEA5454D4EB5555B8BFAA
:1086FC006D420CDD2C4480EA020281EA030382EA1B
:10870C00000083EA010180EA020281EA0303362DAC
:10871C0088BF30BD11F0004F4FEA01314FF4801C7F
:10872C004CEA113102D0404261EB410113F0004F91
:10873C004FEA03334CEA133302D0524263EB430348
:10874C0094EA050F00F0A780A4F10104D5F1200EE6
:10875C000DDB02FA0EFC22FA05F2801841F1000141
:10876C0003FA0EF2801843FA05F359410EE0A5F115
:10877C0020050EF1200E012A03FA0EFC28BF4CF046
:10878C00020C43FA05F3C01851EBE37101F00045FC
:10879C0007D54FF0000EDCF1000C7EEB00006EEB09
:1087AC000101B1F5801F1BD3B1F5001F0CD3490893
:1087BC005FEA30004FEA3C0C04F101044FEA4452EA
:1087CC0012F5800F80F09A80BCF1004F08BF5FEA71
:1087DC00500C50F1000041EB045141EA050130BD51
:1087EC005FEA4C0C404141EB010111F4801FA4F1F4
:1087FC000104E9D191F0000F04BF01460020B1FA49
:10880C0081F308BF2033A3F10B03B3F120020CDA80
:10881C000C3208DD02F1140CC2F10C0201FA0CF05E
:10882C0021FA02F10CE002F11402D8BFC2F1200CC3
:10883C0001FA02F120FA0CFCDCBF41EA0C01904079
:10884C00E41AA2BF01EB0451294330BD6FEA0404C2
:10885C001F3C1CDA0C340EDC04F11404C4F12002AD
:10886C0020FA04F001FA02F340EA030021FA04F3BF
:10887C0045EA030130BDC4F10C04C4F1200220FA16
:10888C0002F001FA04F340EA0300294630BD21FA54
:10889C0004F0294630BD94F0000F83F4801306BF1A
:1088AC0081F480110134013D4EE77FEA645C18BF0E
:1088BC007FEA655C29D094EA050F08BF90EA020FA5
:1088CC0005D054EA000C04BF1946104630BD91EA9D
:1088DC00030F1EBF0021002030BD5FEA545C05D1A0
:1088EC004000494128BF41F0004130BD14F58004DF
:1088FC003CBF01F5801130BD01F0004545F0FE4153
:10890C0041F470014FF0000030BD7FEA645C1ABF87
:10891C00194610467FEA655C1CBF0B46024650EABE
:10892C00013406BF52EA033591EA030F41F40021EA
:10893C0030BD00BF90F0000F04BF0021704730B570
:10894C004FF4806404F132044FF000054FF0000145
:10895C0050E700BF90F0000F04BF0021704730B506
:10896C004FF4806404F1320410F0004548BF4042DB
:10897C004FF000013EE700BF42004FEAE2014FEA30
:10898C0031014FEA02701FBF12F07F4393F07F4F0B
:10899C0081F06051704792F0000F14BF93F07F4F3D
:1089AC00704730B54FF4607401F0004521F0004180
:1089BC0020E700BF50EA010208BF704730B54FF006
:1089CC0000050AE050EA010208BF704730B511F00B
:1089DC00004502D5404261EB41014FF4806404F143
:1089EC0032045FEA915C3FF4DCAE4FF003025FEAC5
:1089FC00DC0C18BF03325FEADC0C18BF033202EB4D
:108A0C00DC02C2F1200300FA03FC20FA02F001FAA6
:108A1C0003FE40EA0E0021FA02F11444C1E600BF45
:108A2C0070B54FF0FF0C4CF4E06C1CEA11541DBFF8
:108A3C001CEA135594EA0C0F95EA0C0F00F0DEF8C3
:108A4C002C4481EA030621EA4C5123EA4C5350EAA8
:108A5C00013518BF52EA033541F4801143F48013F9
:108A6C0038D0A0FB02CE4FF00005E1FB02E506F08A
:108A7C000042E0FB03E54FF00006E1FB03569CF0DF
:108A8C00000F18BF4EF0010EA4F1FF04B6F5007FE5
:108A9C0064F5407404D25FEA4E0E6D4146EB060657
:108AAC0042EAC62141EA55514FEAC52040EA5E50E0
:108ABC004FEACE2EB4F1FD0C88BFBCF5E06F1ED88A
:108ACC00BEF1004F08BF5FEA500E50F1000041EBC1
:108ADC00045170BD06F0004646EA010140EA02006E
:108AEC0081EA0301B4EB5C04C2BFD4EB0C0541EA90
:108AFC00045170BD41F480114FF0000E013C00F3A5
:108B0C00AB8014F1360FDEBF002001F0004170BDC8
:108B1C00C4F10004203C35DA0C341BDC04F11404E1
:108B2C00C4F1200500FA05F320FA04F001FA05F26D
:108B3C0040EA020001F0004221F0004110EBD3703A
:108B4C0021FA04F642EB06015EEA430E08BF20EA66
:108B5C00D37070BDC4F10C04C4F1200500FA04F309
:108B6C0020FA05F001FA04F240EA020001F000419B
:108B7C0010EBD37041F100015EEA430E08BF20EA0E
:108B8C00D37070BDC4F1200500FA05F24EEA020E56
:108B9C0020FA04F301FA05F243EA020321FA04F085
:108BAC0001F0004121FA04F220EA020000EBD3703C
:108BBC005EEA430E08BF20EAD37070BD94F0000F3C
:108BCC000FD101F00046400041EB010111F4801F70
:108BDC0008BF013CF7D041EA060195F0000F18BF21
:108BEC00704703F00046520043EB030313F4801F5D
:108BFC0008BF013DF7D043EA0603704794EA0C0F17
:108C0C000CEA135518BF95EA0C0F0CD050EA41062C
:108C1C0018BF52EA4306D1D181EA030101F00041A9
:108C2C004FF0000070BD50EA410606BF10461946D1
:108C3C0052EA430619D094EA0C0F02D150EA0136DD
:108C4C0013D195EA0C0F05D152EA03361CBF10461E
:108C5C0019460AD181EA030101F0004141F0FE41BD
:108C6C0041F470014FF0000070BD41F0FE4141F441
:108C7C00780170BD70B54FF0FF0C4CF4E06C1CEA41
:108C8C0011541DBF1CEA135594EA0C0F95EA0C0FF6
:108C9C0000F0A7F8A4EB050481EA030E52EA0335B1
:108CAC004FEA013100F088804FEA03334FF08055D2
:108CBC0045EA131343EA12634FEA022245EA1115FF
:108CCC0045EA10654FEA00260EF000419D4208BFB0
:108CDC00964244F1FD0404F5407402D25B084FEA5D
:108CEC003202B61A65EB03055B084FEA32024FF409
:108CFC0080104FF4002CB6EB020E75EB030E22BF66
:108D0C00B61A754640EA0C005B084FEA3202B6EB25
:108D1C00020E75EB030E22BFB61A754640EA5C00D4
:108D2C005B084FEA3202B6EB020E75EB030E22BF64
:108D3C00B61A754640EA9C005B084FEA3202B6EB65
:108D4C00020E75EB030E22BFB61A754640EADC0024
:108D5C0055EA060E18D04FEA051545EA16754FEA86
:108D6C0006164FEAC30343EA52734FEAC2025FEAA4
:108D7C001C1CC0D111F4801F0BD141EA00014FF033
:108D8C0000004FF0004CB6E711F4801F04BF014304
:108D9C000020B4F1FD0C88BFBCF5E06F3FF6AFAE20
:108DAC00B5EB030C04BFB6EB020C5FEA500C50F1B0
:108DBC00000041EB045170BD0EF0004E4EEA113133
:108DCC0014EB5C04C2BFD4EB0C0541EA045170BD3A
:108DDC0041F480114FF0000E013C90E645EA060E7E
:108DEC008DE60CEA135594EA0C0F08BF95EA0C0FAC
:108DFC003FF43BAF94EA0C0F0AD150EA01347FF4F4
:108E0C0034AF95EA0C0F7FF425AF104619462CE7CA
:108E1C0095EA0C0F06D152EA03353FF4FDAE10462D
:108E2C00194622E750EA410618BF52EA43067FF47E
:108E3C00C5AE50EA41047FF40DAF52EA43057FF40E
:108E4C00EBAE12E74FF0FF3C06E000BF4FF0010C19
:108E5C0002E000BF4FF0010C4DF804CD4FEA410C7D
:108E6C007FEA6C5C4FEA430C18BF7FEA6C5C1BD04A
:108E7C0001B050EA410C0CBF52EA430C91EA030FCB
:108E8C0002BF90EA020F0020704710F1000F91EA28
:108E9C00030F58BF994208BF90422CBFD8176FEAF6
:108EAC00E37040F0010070474FEA410C7FEA6C5CC4
:108EBC0002D150EA013C07D14FEA430C7FEA6C5CCB
:108ECC00D6D152EA033CD3D05DF8040B704700BFF7
:108EDC008446104662468C461946634600E000BF45
:108EEC0001B5FFF7B7FF002848BF10F1000F01BD17
:108EFC004DF808EDFFF7F4FF0CBF012000205DF8E2
:108F0C0008FB00BF4DF808EDFFF7EAFF34BF012066
:108F1C0000205DF808FB00BF4DF808EDFFF7E0FFFF
:108F2C0094BF012000205DF808FB00BF4DF808ED50
:108F3C00FFF7CEFF94BF012000205DF808FB00BFB7
:108F4C004DF808EDFFF7C4FF34BF012000205DF899
:108F5C0008FB00BF4FEA410C7FEA6C5C02D150EA7F
:108F6C00013C0AD14FEA430C7FEA6C5C02D152EA15
:108F7C00033C02D14FF0000070474FF001007047E6
:108F8C004FEA410212F5001215D211D56FF4787325
:108F9C00B3EB625212D94FEAC12343F0004343EAC8
:108FAC00505311F0004F23FA02F018BF40427047A3
:108FBC004FF00000704750EA013005D111F000402D
:108FCC0008BF6FF0004070474FF00000704700BFC3
:108FDC004A0011D212F5001211D20DD56FF478732C
:108FEC00B3EB62520ED44FEAC12343F0004343EA81
:108FFC00505323FA02F070474FF00000704750EACC
:10900C00013002D14FF0FF3070474FF00000704735
:10901C004FEA4102B2F1E04324BFB3F5001CDCF18E
:10902C00FE5C0DD901F0004C4FEAC0024CEA5070C6
:10903C00B2F1004F40EB830008BF20F001007047F5
:10904C0011F0804F21D113F13872BCBF01F00040F8
:10905C00704741F480114FEA5252C2F11802C2F12A
:10906C00200C10FA0CF320FA02F018BF40F00100AB
:10907C004FEAC1234FEAD32303FA0CFC40EA0C005D
:10908C0023FA02F34FEA4303CCE77FEA625307D19A
:10909C0050EA01331EBF4FF0FE4040F440007047D1
:1090AC0001F0004040F0FE4040F40000704700BF6B
:1090BC0010B5054C13462CB10A4601460220AFF3FD
:1090CC00008010BD204610BD0000000010B5013915
:1090DC000244904207D010F8013B11F8014FA34213
:1090EC00F7D0181B10BD002010BD10B5431E0A444C
:1090FC00914204D011F8014B03F8014FF8E710BD71
:10910C0002440346934202D003F8011BFAE770476E
:10911C0038B5124B1C68A36B0546D3B91820FDF764
:10912C00A5FE43F20E33A06303804AF6CD33438091
:10913C0041F2342383804EF26D63C3804DF6EC63B1
:10914C000381052343810B23838101220023C0E982
:10915C000423A36B00221D615A6138BDF8DD032086
:10916C00194B10B51C68A36BD3B91820FDF77EFE04
:10917C0043F20E33A06303804AF6CD33438041F2B1
:10918C00342383804EF26D63C3804DF6EC63038110
:10919C00052343810B23838101220023C0E904238F
:1091AC00A16B0A4C0B694869094A5C4302FB0040FD
:1091BC00A3FB02230132034443F10003C1E904235E
:1091CC0023F0004010BD00BFF8DD03202DF45158F2
:1091DC002D7F954C034613F8012B002AFBD1181A4E
:1091EC00013870471D400D0059400D0085400D00A1
:1091FC0089400D0000000000332E2054657374204C
:10920C00427574746F6E2050726573730A0049470F
:10921C004820536869656C6420546573740020455C
:10922C0052524F52003F2E204F7074696F6E730A6A
:10923C0000312E205465737420454550524F4D0A11
:10924C00000A54657374696E6720666C6173683AC2
:10925C00000A507265737320627574746F6E2066A9
:10926C006F723A2000205365636F6E6473000A546A
:10927C00657374696E6720427574746F6E3A000A78
:10928C0054657374696E672056616C76653A000A92
:10929C0054657374696E6720534420436172643A59
:1092AC0000322E2054657374204465766963652002
:1092BC004150490A000A2A2A2A2A2A2A2A2A2A2A10
:1092CC002A2A2A2A2A0A00342E205465737420561E
:1092DC00616C766520436F6E74726F6C0A00352E6C
:1092EC00205465737420534420436172640A002037
:1092FC004F4B00E00FCE689A754705E79A0E37740E
:10930C006573742E62726F6B65722E636F6D0000E5
:10931C000000000000000000D5470D001D480D00A6
:10932C005D470D000A556E69782054696D653A20C9
:10933C00202020202000636C6F756420737461748E
:10934C0075733A2020202020006E6574776F726B45
:10935C00207374617475733A202020007369676EF2
:10936C00616C20737472656E6774683A20200073A8
:10937C0069676E616C207175616C6974793A202033
:10938C0020004261747465727920566F6C74616749
:10939C00653A2020004261747465727920534F4302
:1093AC003A202020202020000000000000000000B7
:1093BC00B94B0D000000000000000000B74B0D0081
:1093CC004F4C0D00294C0D001D4C0D00994B0D0000
:1093DC00934C0D00174C0D00114C0D0000000000BB
:1093EC0000000000B54B0D00414C0D005D4C0D0014
:1093FC00234C0D0064656661756C7420004D5342FE
:10940C00004C5342003C53504953657474696E6769
:10941C00732064656661756C743E003C535049530F
:10942C00657474696E6773202573256C75202573BC
:10943C00204D4F444525643E0025303258253032AE
:10944C005825303258253032582E4C4F47002F00BB
:10945C000000000000000000276F0D001D6F0D00C4
:10946C00136F0D00096F0D00FD6E0D00F16E0D00F8
:10947C00E56E0D00DD6E0D00D36E0D00C96E0D0096
:10948C00F9800D0000081018202830386E616E002D
:10949C006F7666002E00696E66006261756400531B
:1094AC00657269616C0053657269616C3100747925
:1094BC00706500706172616D00636D6400696400B9
:1094CC00686E64007374726D0066696C74006C76FF
:1094DC006C0061646448616E646C65720072656DE9
:1094EC006F766548616E646C657200656E756D486B
:1094FC00616E646C657273004A534F4E537472659F
:10950C00616D4C6F6748616E646C65720061707060
:10951C0000253031307520005D20002564002C20A2
:10952C000028293A2000205B00636F6465203D20F1
:10953C000025690064657461696C73203D20000D21
:10954C000A006C6E00666E00636F6465006465747F
:10955C0061696C006E6F6E650074726163650069A1
:10956C006E666F007761726E006572726F7200705A
:10957C00616E696300616C6C005A00252B3033649A
:10958C003A253032750025592D256D2D256454252D
:10959C00483A254D3A2553257A0061736374696DF9
:1095AC006500000000000000000000006D490D0087
:1095BC006F490D0059760D00E9760D005D760D00B2
:1095CC00B5760D0089760D0073770D00FCFFFFFF5B
:1095DC00000000009D770D0000000000000000005E
:1095EC00F1790D00E1790D00E3790D000000000028
:1095FC0000000000C97A0D00197B0D00277B0D00BF
:10960C00D5720D00057B0D00CB7A0D00E17A0D00B3
:10961C00137B0D00F77A0D00C57A0D0000000000D9
:10962C0000000000337C0D00297C0D001F7C0D0018
:10963C00D57B0D00137C0D00077C0D00FB7B0D0012
:10964C00F37B0D00E97B0D00DF7B0D00F9800D0035
:10965C000000000000000000E17C0D00317D0D00D9
:10966C003F7D0D00D5720D00F57C0D00177D0D00B2
:10967C00037D0D002B7D0D00E37C0D00E77C0D00C0
:10968C000000000000000000E57D0D002F7E0D00A5
:10969C00077E0D00E77D0D000F7E0D00177E0D007F
:1096AC001F7E0D00277E0D00000000000000000052
:1096BC00737F0D00697F0D005F7F0D00557F0D00DE
:1096CC00497F0D003D7F0D00317F0D00297F0D007E
:1096DC001F7F0D00157F0D00F9800D0000000000AC
:1096EC000000000091800D009B800D00A5800D00F6
:1096FC00AF800D00B9800D00C5800D00D1800D002C
:10970C00DD800D00E5800D00EF800D00F9800D006F
:10971C00000000000000000000000000000000003D
:10972C00000000000000000000000000000000002D
:10973C00000000000000000000000000000000001D
:10974C00000000000000000000000000000000000D
:10975C0000000000000000000000000000000000FD
:10976C0000000000000000000000000000000000ED
:10977C000000000043000000F1400D00F5440D0016
:10978C003D470D00DD480D00354B0D00954B0D0090
:10979C00CD4F0D00A1500D00A5500D00C1570D006F
:1097AC00C5570D00C9570D00FB570D00C15F0D00CB
:1097BC00E55F0D00E95F0D000D630D0011630D00F9
:1097CC0015630D004F680D0053680D0057680D00B0
:1097DC00FD680D00316F0D00F1700D00AD720D00C4
:1097EC00A1750D001D760D003D760D00B17C0D00B0
:1097FC0041800D00C5810D002D840D00B1840D003C
:10980C0075850D0039860D00000000000000000079
:04981C000000000048
:049820000000000044
:10982400A6950D000000000020970D0040970D0044
:1098340060970D0000000000000000000000000020
:109844000000000080970D000000000000000000F0
:109854000000000000000000000000000000000004
:1098640000000000000000000000000000000000F4
:1098740000000000000000000000000000000000E4
:089884000000000098DD032044
:10988C00FFFFFFFF00000102030405060708090A99
:10989C000B0C0D0E0F101112131415161718191A94
:0898AC001B1C1D1E1F202800DB
:0498B400785634129C
:04000003D000401CCD
:00000001FF
