:02000002D0002C
:1040000000400D009CDD0D00000006000D000501C4
:084010000401E80500000000B6
:0440180020CF0D00A8
:1040200009480A49884208B505D0094A824202D0A7
:10403000121A07F024FE0748074A0021121A07F057
:1040400029FE014808BD00BFE8D6032064DC0D004E
:10405000F8D70320F8D70320F0E7032070B505F068
:1040600039FE074C074BE41AA40800251E46A5425A
:1040700004D056F8253098470135F8E770BD00BFE9
:104080005CDC0D00B8DB0D0000F00ABB08B500F0E9
:1040900009FBBDE8084005F0DFBD04F029BF04F0CE
:1040A00027BF04F02DBF04F02BBF0078B0FA80F0DA
:1040B0004009704701230370704700002DE9F84F55
:1040C000B04FDFF8D8A2DFF8D88205468B4691467C
:1040D000CB4580F0DB8105EB0B030BF102045E782E
:1040E00015F80B30013BE4B2392B00F2C981DFE84F
:1040F00013F03A007100820063009300CF00440087
:104100005C00B901A600BC00C701C701C701C70117
:10411000DA00EE00020116012A013E016B01740172
:1041200086019801AA01C701C701C701C701C701DC
:10413000C701C701C701C701C701C701C701C7013F
:10414000C701C701C701C701C701C701C701C7012F
:10415000E400F8000C0120013401590162017D01E5
:104160008F01A101B901012E40F093812B5D032B3A
:1041700000F286818AF8093082E1022E40F08981BE
:104180002B5DFF2B05D12C4463780B2B00F278813B
:1041900008E0002B40F074812C4463780B2B00F274
:1041A0006F815B42CAF804306AE1012E40F07181F0
:1041B0002B5D8AF8083063E10C2E40F06A812C44B4
:1041C000714B2068616803C3A06818606F4B0122BF
:1041D0001A7055E1042E40F05C8129192A5D4B7854
:1041E0001B0403EB0263CA7813448A7803EB0223AF
:1041F000CAF8103044E1042E40F04B8129192A5DA1
:104200004B781B0403EB0263CA7813448A7803EBF0
:104210000223CAF8143033E13F2E00F23A814022E3
:1042200000215B4807F036FD32462919584807F04F
:1042300026FD0AEB0603002283F8242011E01F2E3E
:1042400000F2278120220021524807F023FD324648
:104250002919504807F013FD0AEB0603002283F8E2
:104260006620012388F800300AE11F2E00F2118138
:1042700020220021484807F00DFD32462919464802
:1042800007F0FDFC0AEB0603002283F88620E8E72E
:10429000022E40F0FE802B192A5D5B7803EB02238F
:1042A000AAF86430DDE7022E40F0F3802B192A5D76
:1042B0005B7803EB02237B80E2E0022E40F0E98092
:1042C0002B192A5D5B7803EB0223BB83D8E0022E17
:1042D00040F0DF802B192A5D5B7803EB0223BB8063
:1042E000CEE0022E40F0D5802B192A5D5B7803EBDF
:1042F0000223FB83C4E0022E40F0CB802B192A5D01
:104300005B7803EB0223FB80BAE0022E40F0C18011
:104310002B192A5D5B7803EB02233B84B0E0022E6D
:1043200040F0B7802B192A5D5B7803EB02233B81B9
:10433000A6E0022E40F0AD802B192A5D5B7803EBDE
:1043400002237B849CE0022E40F0A3802B192A5D7F
:104350005B7803EB02237B8192E0022E40F0998090
:104360002B192A5D5B7803EB0223BB8488E0022EC5
:1043700040F08F802B192A5D5B7803EB0223BB8111
:104380007EE000BFF0E503205CE50320FDD70320BD
:1043900068E50320AAE50320CAE5032044E50320DD
:1043A000F0D60320022E74D12B192A5D5B7803EB23
:1043B0000223FB8464E0022E6BD12B192A5D5B780B
:1043C00003EB02233B855BE0022E62D12B192A5DB1
:1043D0005B7803EB0223FB8152E0022E59D12B19AB
:1043E0002A5D5B7803EB02233B8249E0022E50D129
:1043F0002B192A5D5B7803EB02237B8540E0022EBC
:1044000047D12B192A5D5B7803EB02237B8237E0CF
:10441000022E3ED12B192A5D5B7803EB0223BB856C
:104420002EE0022E35D12B192A5D5B7803EB022397
:10443000BB8225E0022E2CD12B192A5D5B7803EB81
:104440000223FB851CE0042E23D129192A5D4B7819
:104450001B0403EB0263CA7813448A7803EB02233C
:10446000BB610DE0042E14D129192A5D4B781B0481
:1044700003EB0263CA7813448A7803EB02233B639D
:10448000B31C0BEB03065FFA86FB21E60120BDE8B7
:10449000F88F0020BDE8F88F10B5421C0023C9B288
:1044A000141AA14203DD12F8014B2344F8E7D8B2F5
:1044B00010BD000010B5827C0AB9002010BD133277
:1044C000D2B21321FFF7FAFD0028F6D0074CA8213D
:1044D0002046FFF7E1FF2070054C34212046FFF70E
:1044E000DBFF044B20700120187010BD44E5032051
:1044F000F0E50320FCD70320427C0F2A03D0102ACA
:1045000008D1FFF7D7BFC37C012B03D8024A012093
:104510001370704700207047ECE50320F8B53D4C60
:10452000A8220021204607F0B5FB03236360072380
:10453000394A23724FF4E163E36023614FF4167349
:1045400010685168636140F25B73A4F8643004F151
:10455000180303C390681860304B04F1240203F180
:10456000200618685968154603C50833B3422A4621
:10457000F7D118682A4A286013682A4DC4F86630B3
:104580005368294A6B601368C4F8863053686B62BD
:104590009368AB62A821A5F16600FFF77DFF20704C
:1045A000224C234F234E34220021204607F072FB79
:1045B0003C23E3806423A361FF23A383E3835A2284
:1045C0006384A384E38423856385A385E385342101
:1045D0004FF44873204622842363FFF75DFFA5F163
:1045E00066012070A822384607F049FB0FCC3546FB
:1045F0000FC50FCC0FC50FCC0FC523682B60A821AA
:104600003846FFF749FF342138703046FFF744FF42
:104610003070F8BD48E6032015D70320F1D60320FB
:10462000E8D60320AEE6032021D703200CE50320C3
:1046300044E50320F0E5032038B5437804463BB356
:1046400002783C2A24D1034413F8013C3E2B1FD1AD
:10465000011D0C22104807F003FBC8B9A578412DB5
:1046600010D1637C0D4A13B9A37C012B02D01378BF
:10467000013B05E01378E17C013BDBB2994208D0B5
:10468000137005E0532D03D12046FFF735FF00B925
:104690000025284638BD00BF3CE60320FED7032096
:1046A00000F05CB800F058BC08B504F0E5F8002153
:1046B0000120BDE8084004F077BB000010B5214B95
:1046C0001B78012BC8B036D1684601F021FB0128C8
:1046D00031D1FF2208A9684601F0DAFA01282AD16F
:1046E00005F018FC184904F0F5FE05F013FC6946C6
:1046F000044604A804F041FE0499204604F0EAFEB2
:1047000004A804F0F3FD9DF8211008A800F0A4FD12
:1047100060B1684601F0B6FA012803D105F0FAFB52
:104720000A4906E005F0F6FB094902E005F0F2FB54
:10473000084904F0E2FE04F067F9074B186048B03E
:1047400010BD00BF91D8032034CF0D0040CF0D0025
:1047500044CF0D004FCF0D0000D8032008B505F061
:10476000D9FB4FF4964105F0C9FB01F09FFB00F027
:10477000DFFF00F053FE01F029FC00F047FCBDE82C
:10478000084001F0B5B90000452330B543544B1C37
:10479000DBB25522C2540B4C8A1CD2B22368835020
:1047A000851863686B60A368AB60074B1A78541C6C
:1047B0001C7001F10E03DBB2C25401F10F00C0B254
:1047C00030BD00BF3CE60320FFD703202DE9F843AE
:1047D0000C4605469946174601F054FB804601F009
:1047E00053FBFE232B55A31CDBB21722EA54E31C18
:1047F000DBB20C22EA54474B221D03CBD2B205EBAD
:10480000020EA850CEF804101868CEF8080004F183
:104810001003DBB20222EA5404F11103DBB20422DA
:10482000EA5404F11203DBB24FEA182105F80380C1
:1048300004F11303DBB210EE106AE95404F114031F
:10484000DBB24FEA1841E95404F11503DBB24FEA39
:10485000186805F8038004F11603DBB20D21E95452
:1048600004F11703DBB2310AEA5404F11803DBB296
:104870000720EE5404F11903DBB2E95404F11A03E2
:10488000DBB2310CE95404F11B03DBB2360EEE54FB
:1048900004F11C03DBB20F21E95404F11D03DBB268
:1048A0000121E9541C4B197804F11E03DBB2E954D1
:1048B0001A4B196804F11F03DBB2E85404F120031A
:1048C000DBB204F12500EA5404F12103DBB20A0A49
:1048D000E95404F12203DBB2C0B2EA5404F1230329
:1048E000DBB20A0CEA5404F12403DBB209EB000644
:1048F000090EFD2EE95405DC4A463946284407F0E6
:10490000BEF9F0B22544C4F1FE0404446C70BDE865
:10491000F88300BF5CE50320ECE50320F4D8032016
:10492000F7B5194E01F0AEFA3578012D074628D1BA
:10493000164B984225D9164CFF220021204607F03D
:10494000A9F9FD238DF804303C232370452255231B
:10495000022120468DF805508DF80650FFF714FF10
:104960000323014601AA2046FFF730FF3E23421CE5
:104970002354D2B221463846627001F019F900235F
:10498000337003B0F0BD00BF2DD7032000E10B5EF4
:10499000F1E6032070B50D46064605F0BBFA036844
:1049A0001B699847C4B20CB9002419E0AC420CD87A
:1049B000354605F0AFFA03685B69984705F8010BC7
:1049C000AB1BDBB29C42F4D80AE0002505F0A2FA4A
:1049D000036801355B699847EBB29C42F6D8E3E780
:1049E000204670BDF8B5264CFF220021204607F076
:1049F00051F9FF212046FFF7CDFF064600283ED0A3
:104A000005F088FA1F4904F065FD771E651E2744EE
:104A1000BD420FD015F8013F0F2B04D805F07AFAEC
:104A2000194904F057FD05F075FA1022297804F0B1
:104A30006EFDEDE705F06EFA144904F04BFD2378A6
:104A4000102B1CD1324602210D48FFF737FB0128FD
:104A50000ED10F4B0F4C1870A8212046FFF71CFDFC
:104A600020700D4C34212046FFF716FD2070F8BD54
:104A700005F050FA0949BDE8F84004F03EBDF8BD24
:104A8000F1E603205BCF0D0076CF0D0078CF0D004F
:104A9000FCD7032044E50320F0E503207BCF0D0085
:104AA00008B503F0B1FF054B1B68C01AB0F57A7F5B
:104AB00003D9BDE80840FFF701BE08BD00D80320B8
:104AC0002DE970432DED028B064682B0084606F0B4
:104AD000D7FB044630460D4606F0D2FB42A3D3E98D
:104AE000002306F033FC42A3D3E9002306F07AFA50
:104AF00006F024FF40A3D3E90023064629462046BA
:104B000006F024FC3EA3D3E9002306F06BFA3EA393
:104B1000D3E90023804689462046294606F016FC44
:104B200022462B4606F012FC02460B4640464946FA
:104B300006F05AFA36A3D3E9002380468946204678
:104B4000294606F003FC28A3D3E9002306F04CFA1B
:104B5000044630460D4606F0A5FB00221E4B06F02B
:104B600041FA02460B462046294606F0EFFB024674
:104B70000B464046494606F037FA06F0DFFE08EEDF
:104B8000100A05F0C7F9154904F0A4FC05F0C2F9B4
:104B900000EE106A022104F099FD05F0BBF91049FE
:104BA00004F098FC05F0B6F9B0EE480A022104F0D2
:104BB0008DFD05F0AFF90B4904F09FFCFCEEC87ABF
:104BC000CDED017ABDF8040002B0BDEC028BBDE86A
:104BD000708300BFAFF30080000039408BCF0D0021
:104BE00099CF0D00A6CF0D007B14AE47E17A843F2C
:104BF00014AE47E17AD4434027C286A757CAA23FE2
:104C0000569FABADD85F00401D5EFFD203D6BABE43
:104C1000F168E388B5F8143FF8B54FF6FF71002549
:104C200004464678AE4608460227B74223D214F817
:104C300007C0E319BA1CBCF1060F5B78D2B20DD0E5
:104C4000BCF10A0F13D1022B11D1A018A25C40783D
:104C500002EB002080B24FF0010E08E0022B06D1DB
:104C6000A118A25C497802EB012189B201259A1CA6
:104C7000BB18DFB2D9E7074B4DB1BEF1000F06D02C
:104C8000FF221A70FFF71CFF034B1880F8BD0022AB
:104C90001A70F8BDCCD80320F0D8032038B50546EB
:104CA00022B90368C9B29B68984702E0D2B204F007
:104CB0002EFC0446284604F014FC204438BD0000B5
:104CC00070B590B03D21684601F0D6F90546C8B3ED
:104CD0001D4C012000F0EAFC6846FFF79DFFFF2213
:104CE0000021204606F0D6FF3C23237045225523A1
:104CF00002212046FFF748FD6A4601462B46204622
:104D0000FFF764FD451C3E23EDB22354657005F0AA
:104D100001F90E4904F0DEFB05F0FCF8064601F04F
:104D2000B1F8102201463046FFF7B8FF01F0AAF8AB
:104D3000074B984203D92A46214600F039FF00204C
:104D400000F0B4FC10B070BDF1E60320A8CF0D0058
:104D500000E10B5E2DE9F041694B1A78012A1F46EC
:104D600040F0CB8005F0D6F86649674C04F0B2FB02
:104D700005F0D0F80A22617A054604F0C8FB2846FF
:104D800004F0AFFB05F0C6F8604904F0A3FB05F0A2
:104D9000C1F80A222169FFF781FF05F0BBF85C49E1
:104DA00004F098FB05F0B6F80A226169FFF776FF78
:104DB00005F0B0F8574904F08DFB04F1170604F133
:104DC0002308254616F8013F0F2B04D805F0A2F85A
:104DD000514904F07FFB05F09DF81022317804F072
:104DE00096FBB045EED105F095F84C4904F072FB06
:104DF00005F090F84A4904F06DFB05F08BF849493D
:104E000004F07BFB05F086F8474904F063FB05F0EE
:104E100081F80A22B5F86410044604F078FB2046B5
:104E200004F05FFB05F076F8404904F053FB05F011
:104E300071F83F4904F061FB05F06CF83D4904F05E
:104E400049FB05F067F83C4904F057FB05F062F8B0
:104E50003A4904F03FFB05F05DF86C68002C06460B
:104E600004DA2D2104F03AFB614200E021460A22D7
:104E7000304604F04CFB304604F033FB05F04AF8B2
:104E80002F4904F027FB05F045F80A22297A044649
:104E900004F03DFB204604F024FB05F03BF82949D3
:104EA00004F018FB05F036F80A22E968FFF7F6FE71
:104EB00005F030F8244904F00DFB05F02BF80A2228
:104EC0002978044604F023FB204604F00AFB0E4830
:104ED00000F069FA012804D105F01CF81B4904F020
:104EE0000CFB1B4800F0F8FA012804D105F012F879
:104EF000184904F002FB00233B70BDE8F08100BFBD
:104F0000FCD70320B0CF0D0044E50320BACF0D003D
:104F1000CFCF0D00E1CF0D0076CF0D0085D40D0071
:104F2000F1CF0D0068E50320FFCF0D0012D00D007A
:104F3000AAE5032022D00D00CAE5032032D00D00DF
:104F40003DD00D004FD00D0063D00D006ED00D0090
:104F5000F0E5032091D00D0008B5FFF743FDFFF702
:104F6000F9FE00F0D7FFFFF7DBFCFFF7A9FE00F02A
:104F700097F801F09DF8FFF793FDBDE8084000F0B9
:104F80008DBB03F079BC00002DE9F041D31D23F067
:104F9000070300AFADEB030D6846904606F06FFEC9
:104FA00004F0B8FF164904F095FA6C460025EEB2FD
:104FB000B0450FD9A35D0F2B04D804F0ABFF114906
:104FC00004F088FA04F0A6FF1022A15D04F09FFA15
:104FD0000135ECE72046FFF72FFB054604F09AFF6A
:104FE000094904F077FA04F095FF0A22044629469D
:104FF00004F08DFA204604F074FABD46BDE8F08155
:10500000B7D00D0076CF0D00C6D00D0010B51E4CE8
:1050100088B004A803F04CFF04A9204604F0ECF982
:1050200004A804F063F9194904A804F0A6F9684635
:1050300003F03EFF694604A804F00EFA0146144846
:1050400004F0CBF9684604F051F904A804F04EF9D5
:10505000104904A804F091F9684603F029FF694655
:1050600004A804F0F9F901460B4804F0B6F96846C3
:1050700004F03CF904A804F039F92168074801F06C
:1050800063FA08B010BD00BF28D80320D6D00D00A9
:1050900008D80320D9D00D0018D8032038D8032011
:1050A0002DE9F8435D4B1A78012A00AF1D4639D12E
:1050B0005B49E8460022501CD2B28B18584E93F838
:1050C00024400CB10246F6E702F1080323F007037F
:1050D000ADEB030D013206F12401684606F0CFFD69
:1050E00004F018FF4F4904F0F5F904F013FF694686
:1050F00004F0F0F904F00EFF4B4904F0EBF904F072
:1051000009FF0A22B6F86410814604F000FA484606
:1051100004F0E7F96946B6F86420444801F02AF93A
:105120002C70C5464148424C01F016F9064678B14C
:105130003E48012501F0D4FA25703E4C2378002B1F
:1051400068D13D4B3948196801F0F6FB257061E0E4
:1051500020703A4C03F058FC2368C01A42F21073D6
:10516000984257D92E496D46F2B28B1806F1010EBE
:1051700093F866302A480BB17646F5E75E1CDBB241
:10518000C11891F8861009B13346F7E702F108011A
:1051900021F00701ADEB010D03F10108083323F005
:1051A00007036E460132ADEB030D2549304606F08C
:1051B00066FD42462349DFF89C80684606F05FFDA5
:1051C00004F0A8FE204904F085F904F0A3FED8F805
:1051D000001004F07FF904F09DFE1C4904F07AF9F8
:1051E00004F098FE314604F075F904F093FE184976
:1051F00004F070F904F08EFE694604F07EF96B4607
:105200003246D8F80010094801F0AEF903F0FCFB73
:105210002060AD46BD46BDE8F88300BFF0D6032050
:1052200044E50320F6CF0D000AD00D0038D8032046
:1052300091D8032090D8032008D8032004D8032055
:10524000AAE50320CAE50320DCD00D0016D00D002E
:1052500026D00D0028D8032070B505460D480E460F
:1052600001F07AF8044668B10B490A4809683346E8
:105270002A4601F0F8F9094B0648196801F05CFB71
:10528000012070BD04F046FE054904F036F92046C1
:1052900070BD00BF38D8032018D8032008D80320D9
:1052A000EAD00D00F8B5194E194F1A4C1A4D03F0FB
:1052B000E3FA3146384604F060F83846174F224684
:1052C000294605F021FD3146384604F056F83846A7
:1052D000134F2246294605F017FD3146384604F0A3
:1052E0004CF829460F4D2246384605F00DFD0E4B71
:1052F0000E4940F25B72284600F046FF22462846DF
:105300000B49BDE8F84005F0FFBC00BF86D40D0096
:1053100028D80320F8D70320ED920D0008D80320E9
:1053200018D8032038D80320894F0D00F9D00D007C
:105330003F690D0010B5074C03F09EFA0649204660
:1053400004F01BF82046054A0549BDE8104005F069
:10535000DBBC00BF94D8032086D40D00F8D703200F
:10536000ED920D0010B5AAB0A822002104466846AF
:1053700006F090FC05F034FCA8226946002003F0FA
:105380005BFBA8216846FFF787F89DF80030834251
:1053900006D1A8226946204606F071FC012000E0F3
:1053A00000202AB010BD10B50446AAB005F018FCC4
:1053B000A8222146002003F047FB6846FFF7D2FFF2
:1053C0009DF800002378C31A584258412AB010BDF6
:1053D00030B58FB034220021054601A806F05AFCF2
:1053E00005F0FEFB342201A94FF4007003F024FB0A
:1053F000342101A8FFF750F89DF8043083420AD108
:1054000001AC0FCC0FC50FCC0FC50FCC0FC5236857
:105410002B60012000E000200FB030BD30B5B9B0E6
:105420000EA8FFF79FFFA82104460EA8FFF734F847
:1054300024B19DF83830834200D153B904F06AFD9D
:105440001E4904F05AF8FFF769F81D4B01221A7043
:1054500009E004F05FFD1B4904F04FF8A8220EA9F3
:10546000194806F00CFC01A8FFF7B2FF34210446EE
:1054700001A8FFF711F824B19DF80430834200D150
:1054800053B904F047FD114904F037F8FFF746F827
:105490000B4B01221A700EE004F03CFD01AC0C49EC
:1054A0000C4D04F02AF80FCC0FC50FCC0FC50FCC54
:1054B0000FC523682B6039B030BD00BFACD10D00E3
:1054C000FCD70320C3D10D0044E50320DED10D003D
:1054D000F7D10D00F0E5032010B504468EB005F0BD
:1054E0007FFB342221464FF4007003F0ADFA01A88F
:1054F000FFF76EFF9DF804002378C31A5842584105
:105500000EB010BD03F0B8B9024A1368013313603E
:10551000704700BFC0D8032003681847012A02D093
:10552000022A02D004E0016002E00B6800B10360CF
:1055300000207047436913B183690C3018477047E6
:1055400013B500210446084603F0AEFA02A9002371
:10555000204641F8043D03F0BFFA019C0CB1012341
:1055600023710021012003F09FFA2CB1236820460B
:105570009B6898470023237102B010BD10B5836863
:10558000044613B1032201469847204610BD00008F
:10559000F0B500258E4615490571856045610160AD
:1055A000044692E8030085B002AF04F10C0687E8D8
:1055B000030096E8030082E8030097E8030086E80A
:1055C00003009168606990606161D168A069D060F2
:1055D000A1618DE82800064A2346714604F10800BF
:1055E00003F06AFA204605B0F0BD00BF2CD20D00D2
:1055F00041550D0007B58068002338B18DE80A00D9
:10560000022103F071FAB0FA80F0400903B05DF8AE
:1056100004FB000038B5104B036083680446A3B157
:105620006FF000410022FFF7E5FF0021A06803F0C2
:1056300073FA237903F0FF0513B103F01DFAF8E7BD
:105640002946A06803F040FAA56004F10C00FFF7BA
:1056500095FF204638BD00BF2CD20D0010B5044682
:10566000FFF7D8FF20461C2105F05CFB204610BD4B
:1056700073B5064614460D4600222146FFF7BAFFD1
:10568000B068002340B1019300952246194603F00B
:105690002BFAB0FA80F0400902B070BD024B07202F
:1056A000197805F070BA00BFECE503200146072029
:1056B00005F069BA08B50F2005F07EFAC0B208BD42
:1056C00008B5FFF7F7FF084B10B91A78013200E070
:1056D00000221A701B78022B81BF044A137883F0D2
:1056E0000103137008BD00BFCDD80320C5D8032027
:1056F00007B50221052005F035FA002300930222A8
:105700004FF0FF330349052004F02CFC03B05DF893
:1057100004FB00BF09550D0008B5FFF7E9FF0022A3
:105720006FF000410148FFF7A3FF08BDA4D8032094
:1057300010B502210F2005F015FA00226FF000418C
:105740000B48FFF795FF0B4B0024012107201C702D
:1057500005F008FA2046FFF7A9FF0121072005F010
:1057600001FA054B1C70BDE81040FFF7D5BF00BF24
:10577000D4D80320CDD80320ECE50320052004F085
:1057800019BC000008B504F011F9054B5B68C0189E
:1057900001D5183002E01828C8BF1838C0B208BDBB
:1057A00044E50320F0B585B0FFF7ECFF384B1A78DD
:1057B000824204461D462DD0364B1B7A834209D1C6
:1057C000354B01221A7004F0EAF8074604F0A2FBF8
:1057D00032490BE0E8B9304B1870314B00221A60A7
:1057E00004F0DDF8074604F095FB2E4903F072FE45
:1057F00004F090FB2C4B2D491B6806463A46684640
:1058000004F07AF80099304603F077FE684603F01A
:105810006DFD2C70264B27491A78C2B1264AD2ED6D
:10582000067A264AF8EE677A92ED007AF4EEC77AA5
:10583000F1EE10FA07DD174AD068214A126890424B
:1058400001D9012320E000221A700A701DE0124BDA
:105850001B78C3B11B4B1B78FF2B14D11A4B1A8832
:10586000154BD88890420ED9188C90420BD9D3EDA5
:105870000C7A0B4BF8EE677A93ED007AF4EEC77A68
:10588000F1EE10FADDDC00230B7005B0F0BD00BFB7
:10589000CED8032044E50320C4D8032038D20D001D
:1058A000F4D8032052D20D0040D7032014DF032088
:1058B000C5D80320ECE50320F0E50320C8D8032079
:1058C000D0D80320CCD80320F0D80320044B1B7879
:1058D000012B044B0ABF1A68002201321A6070477C
:1058E000ECE50320D0D8032010B5FFF747FF174B96
:1058F0001C6800221A60FFF7FBFE204605F0B0FC92
:105900000022134B05F04CFE06F018F8DFED117A7B
:10591000114B07EE100AC7EE276A93ED007A37EEB7
:10592000267A83ED007A0D4B1A780D4B32B1D3ED08
:10593000007A77EEA67AC3ED007A01E000221A60C1
:10594000FFF7C4FFBDE81040FFF72CBFC0D803200D
:105950000000124000007042F4D80320C5D8032094
:10596000C8D803202DE9FF41DFF87C80174F184C81
:10597000184E194D02F080FF184B00936A46002321
:105980004FF47A71404602940397FFF701FE684690
:10599000FFF7F4FD32462946404605F0B5F902947A
:1059A0000F4C104B00936A4600234FF47A71204647
:1059B0000397FFF7EDFD6846FFF7E0FD3246294605
:1059C000204605F0A1F904B0BDE8F08119550D009D
:1059D0001D550D00F8D7032015560D00C1560D00BA
:1059E000A4D80320E9580D00D4D80320037C03F089
:1059F0000803024603F0FF002BB1D36A506A181A5D
:105A000048BF6FF000407047704770477FB502464F
:105A100008461379956833B13DB90C4904B0BDE827
:105A2000704003F057BD0A4B00E00A4B167B0A4C4E
:105A30000A49527B0292012E08BF2146019100952E
:105A4000074A002103F051FE04B070BDC9D20D0019
:105A500086D40D00B8D20D00C1D20D00C5D20D0004
:105A6000DFD20D00103001F0A5BD103001F07CBC7C
:105A7000103001F03FBE083001F03CBE07B502AB6C
:105A8000012203F8011D1030194601F033FE03B066
:105A90005DF804FB10B52C21044605F043F92046BF
:105AA00010BD10B53421044605F03CF9204610BD68
:105AB00007B502AB012203F8011D0830194601F0B9
:105AC00019FE03B05DF804FB07B501220DF10701D3
:105AD00001F097FB01280CBF9DF807004FF0FF3045
:105AE00003B05DF804FB08B51030FFF7EDFF08BD0B
:105AF0007FB52048037A13B1083001F091FD1E4CA8
:105B00001E4B1F4A009304F58C6600238DF8043069
:105B1000029201258DF80D300E226B4604F26C4185
:105B200030468DF80C5002F02DF900B304F23C40E1
:105B3000266001F075FD2946204601F0CCFF0146A4
:105B400080B10D4C04F23C452146284601F041FB52
:105B500068B194F83C3413F0700316BF094B184633
:105B60001D6005E0204601F0B6FF0028E9D10020C5
:105B700004B070BDB4DD032030D9032074D20D0011
:105B800080F0FA0258DE032007B50246D3B2019333
:105B9000C2F3072300930846C2F307430349120EDA
:105BA00003F0BEF903B05DF804FB00BFFDD20D00A9
:105BB0002DE9F04192B0884601A91746FFF7E4FFAE
:105BC00000238DF824308DF8253006934FF47A7336
:105BD0000793244B059301AA44F202232249234E42
:105BE00009A809AC01F023FD0FCC06F110050FC583
:105BF0000FCC0FC523682B60069B7360079BB360B7
:105C0000089BF36004F086F9194903F063FC04F083
:105C100081F901A903F05EFC04F07CF9154903F059
:105C200059FC04F077F90A22394603F070FC347C01
:105C30005CB13A4641463046FFF71AFF04F06AF974
:105C40000D4903F05AFC012404E004F063F90B4908
:105C500003F053FC0A4801F0E3FC204612B0BDE813
:105C6000F08100BF80D20D006CDD0320E0DD032059
:105C700012D30D001BD30D0040CF0D0048CF0D00F7
:105C8000F0DD03200146014801F020BD6CDD03205A
:105C90002DE9F0418EB090464FF47A720392184A83
:105CA0000192002302460F4605A816498DF81430CC
:105CB00005AC8DF81530029301F0B9FC0FCC124EF3
:105CC00006F110050FC50FCC0FC523682B60029B92
:105CD0007360307C039BB360049BF36060B13C460F
:105CE000E31B9845094804DDFFF7EEFE04F8010BBD
:105CF000F6E701F095FC01200EB0BDE8F08100BF91
:105D000080D20D006CDD0320E0DD0320F0DD0320F8
:105D100010B50446FFF7ECFE08B9002010BD10498D
:105D2000104A09681048002301F081FC0028F4D0D3
:105D300000220D490D4801F0FEFB0C4801F070FCFB
:105D400000220949094801F0F6FB0028E5D0214668
:105D5000064801F0A1F9054801F062FC012010BDE0
:105D600058DE032023D30D00BCDD03200CD9032013
:105D700070B502F081FD274B274E642183F8601433
:105D80002649C3F87014012183F874143168002285
:105D900011F00105DA7183F83C2483F83D2483F87F
:105DA0006A24C3F8782483F87C2483F87D241C4675
:105DB0000AD13046FEF779F930B12946184803F088
:105DC00033F93046FEF776F91648154BC4F86C34B3
:105DD00000244FF47A730474447444608360124A5C
:105DE000124B1349036004F08FFF1248124D0472E6
:105DF000447244600C4A1149056004F085FF104864
:105E0000094A04724472446005600C49BDE8704060
:105E100004F07ABF30D90320F8D8032074D20D00E3
:105E2000FCD80320E0DD0320F8D7032080D20D004A
:105E30000B5A0D00B4DD0320A8D20D00095A0D0045
:105E400004D90320704710B52821044604F06AFFE6
:105E5000204610BD10B502F0D7FD084B1A68801A15
:105E6000074A90421C4608D903F01AF810B10020E6
:105E700003F026F802F0C8FD206010BD3CDE0320D0
:105E8000005C260503F08BBD014803F0A1BE00BFF6
:105E900040DE032010B5044C0146204605F02AFFE1
:105EA000001BC0B210BD00BF2ED703202DE9FF415B
:105EB00002F0AAFD144B1860684602F0F9FF009B3F
:105EC000124A03F11801174653F8040B42F8040B69
:105ED0008B42F9D1684603F009FA0D4E0025785D32
:105EE000FFF7D8FF07EB05080001C4B298F80100DE
:105EF00006F8014FFFF7CEFF02352043182D307012
:105F0000EDD104B0BDE8F0813CDE032024E603209F
:105F10003BE60320FFF79EBF70B502F0ADFC104CCE
:105F2000104B23600025283329460F4E636018224A
:105F300004F11000A560E56005F0ACFE20460B4CB6
:105F40000B49324604F0E0FE2946204603F000FEED
:105F5000324620460749BDE8704004F0D5BE00BF78
:105F600014DE0320F0D40D00F8D7032040DE032018
:105F7000455E0D006F9B0D0038B5074C0D4602467F
:105F80000321204602F07EF92A4620460421BDE87E
:105F9000384002F077B900BF48DE032001460148CF
:105FA00002F082B948DE032008B50121062004F082
:105FB000EAFD642003F00EFD0620002104F0E3FD5D
:105FC0006420BDE8084003F005BD000038B5234C4F
:105FD0000121062004F0C6FDFFF7E6FF94F8223009
:105FE00094F823201E485B2102F022FB20B903F025
:105FF00091FF1C4903F081FA03F08CFF1A4903F06A
:1060000069FA03F087FF0A2294F82310054603F08B
:106010007EFA284603F065FA03F07CFF134903F08B
:1060200059FA03F077FF0A2294F82210054603F08C
:106030006EFA284603F055FA0121094802F01EFACB
:1060400005210D20FFF798FF094B1878FFF7A6FFF1
:1060500008490348BDE8384002F0BEBA44E50320D1
:1060600048DE032025D30D0036D30D0049D30D00A3
:106070003FD703205AD30D0070B5054609480E4698
:1060800002F0DCF960B1084C2378B34207D82278DB
:106090000649284605F0F3FD2078C0B270BD002007
:1060A00070BD00BF48DE0320BFDE032082DE032078
:1060B00010B5044C2378012B03D1FFF787FF002391
:1060C000237010BDFDD7032008B502F0D5FB084BA7
:1060D000084A1A60112208491A7108225A719A71E5
:1060E00001220A70002119721F2159729A7208BD8B
:1060F00048DE032094D30D00C0DE032038B5846948
:106100000A4B036005467CB16368013B63605BB981
:10611000236820469B689847A368013BA3601BB98E
:1061200023682046DB689847284638BD44D60D00D2
:1061300010B50446FFF7E2FF20461C2104F0F2FDF3
:10614000204610BD38B51D46059B03630023044659
:10615000436302B1826419B104F1380003F054F9C9
:10616000049B2365069BE069A4F84C50FF2BB8BF45
:10617000FF23A4F8543008B1FDF795FFB4F854009C
:10618000FDF78DFFE06138BD2DE9FF410446002594
:10619000174698460E4604F0EDFBE5610A4904F106
:1061A000380003F0EAF8FF2302930F230093204600
:1061B000A564CDF804803B462A463146FFF7C2FF6E
:1061C000204604B0BDE8F08186D40D0010B5044629
:1061D000204604F033FB0028FAD0204604F0D7F91B
:1061E000C0B210BD2DE9F0470546C4698846FFF7E7
:1061F000EDFF2070EB6993F800A04FF001090AF061
:10620000F00A00274E462846FFF7E0FFEB69985555
:1062100000F07F0313FB09F31F44741C0306A4B2B0
:10622000BFB24FEAC91901D52646ECE7631EBAF1A1
:10623000300F88F8003013D12846D5F81C80FFF7BE
:10624000C5FF08F804002846F41CD5F81C80023667
:10625000FFF7BCFFB6B2A4B208F80600022300E0C4
:1062600000231B1B9EB2A3199BB29F420BD9284649
:10627000FFF7ACFFB5F85430A34284BFEB69185563
:106280000134A4B2EFE7B5F85400A0422CBF204679
:106290000020BDE8F087F7B507468E461E461D462E
:1062A000002402A905F07F032144ED0918BF43F043
:1062B0008003013401F8043CE4B2002DF1D1C4F1B3
:1062C0000403D11802F803E0A54206DA2B1B01A84B
:1062D0001344285C58710135F6E7721C2244384695
:1062E00004F0ABF8054602F08FFB013478623444C9
:1062F000A8B2231A5842584103B0F0BD10B5C36983
:10630000E0221A70C36900225A7004460222C16951
:1063100004F093F8204604F079FA02F075FB60620D
:10632000A06210BD0233F0B59BB20D466C1A15F891
:10633000016BA4B23EB1B0F854709F4203D95C1C0B
:10634000D654A3B2F2E7191B0A44211202F8021C28
:1063500002F8014C1846F0BD38B5054604F083F844
:10636000002814BF0124002402D1284604F04EFA6C
:10637000204638BD70B504460E461546FFF7ECFFC3
:1063800010B12046FFF7BAFF314604F1380003F0A0
:106390003BF80023A364A4F84C5070BD2DE9F043F2
:1063A00087B00446894617461E46DDF83880FFF759
:1063B000D3FF0546002840F0BD80A16C39B90346E3
:1063C000B4F84C20A16B204604F024F909E068469B
:1063D00003F034FD2B46B4F84C206946204604F007
:1063E0009BF9002800F0A280012323849DF84C3003
:1063F000042B15D1524B18689A88ADF804200090F0
:10640000E2699B7900988DF80630531DC2F80500AB
:10641000BDF804109DF806209A7199800C2312E0B3
:10642000484BD4F81CC0186859681B7A6A4603C2E6
:1064300013706B4603CBCCF80500CCF80910137829
:106440008CF80D300E23B8F1000F0AD09DF84020D3
:106450009DF83C10520142F0060242EAC102D2B25B
:1064600000E002229DF8481009B902F0FD022FB1A8
:1064700016B942F0800201E042F0C002E169CA545C
:10648000226DE169581C12120A549A1CE169206DB0
:1064900088540333E26949462046FFF743FFB8F1C9
:1064A000000F0BD00346E26941462046FFF73AFF52
:1064B000E269119903462046FFF734FF67B10346AE
:1064C000E26939462046FFF72DFF2EB10346E26907
:1064D00031462046FFF726FF431F9BB2E269102199
:1064E0002046FFF7D8FE02F08FFA4FF47A7660620A
:1064F000A062204604F0A2F940B902F085FAA36A2E
:10650000C01A236D73439842F3D90FE069462046C1
:10651000FFF768FE042809D1E369DE7836B902F096
:1065200073FA0125A06284F82C6004E0204604F090
:106530006DF900E00025284607B0BDE8F08300BFF4
:106540007CD30D0083D30D007FB504230593012375
:106550000493002303930293019300931A46FFF7D9
:106560001DFF07B05DF804FB10B586B00424059448
:106570000124049400240394029401940094FFF7EE
:106580000DFF06B010BD2DE9F14F0D9E9DF828803E
:106590009DF82C509DF8307004468B4691469A46E3
:1065A000FFF7DAFE00284CD0B4F85420E06900214F
:1065B00005F070FB0523E26959462046FFF7B2FE5D
:1065C0006B1E012B12D8238CE26901339BB223840A
:1065D0001B121354411C89B2E369228C5A540230B5
:1065E00080B21EB1238C5A1C22843380002291B2C7
:1065F00083188A459BB20AD9B4F854609E4202F1CE
:10660000010204D919F80160E169CE54EFE7B8F14D
:10661000000F0CBF302131210FB141F00801022DD4
:1066200002D141F0040103E0012D08BF41F0020155
:10663000053BE2699BB2204601B0BDE8F04FFFF791
:106640002ABE01B0BDE8F08F1FB5089C039400245A
:1066500002949DF81C4001949DF818400094FFF7A7
:1066600092FF04B010BD1FB5002402940194009461
:10667000FFF7EAFF04B010BD38B504460D46FFF73A
:106680006BFE90B1E36962221A70E36902225A70CC
:10669000E3692A129A70E369DD700422E1692046F9
:1066A00003F0CBFE003018BF012038BD38B50446DA
:1066B0000D46FFF751FE90B1E36972221A70E3694B
:1066C00002225A70E3692A129A70E369DD7004228B
:1066D000E169204603F0B1FE003018BF012038BD4B
:1066E0002DE9F04F83B000AF0446FFF735FE814639
:1066F000002800F0F68002F087F9226D4FF47A73DB
:106700005343A26A821A9A42054603D8626A821AE1
:10671000934217D294F82C302BB1204604F076F82F
:106720004FF00009DDE0E269C0211170E2695370A9
:10673000E1690222204603F080FE01236562A56222
:1067400084F82C30204604F079F8002800F0C98045
:10675000F91D2046FFF746FD0246002800F0C180E3
:10676000E369A562187800F0F00130297DD1D4F8F2
:1067700030B0BBF1000F00F0B48097F807C003EB16
:106780000C00EA46817890F801E001EB0E2E1FFA2A
:106790008EFE0EF1080121F00701ADEB010D6846F8
:1067A00000218EB2B64506D90CEB01061E44F678E0
:1067B00046540131F5E7002100F80E101E7806F06E
:1067C0000606022E0CF10301CCEB02021ED171442D
:1067D000CEEB020213F801801944053A497801EB27
:1067E00008280CF1050171441944D847E369402297
:1067F0001A70E3695E70E3691FFA88F84FEA28228D
:106800009A70E369042283F8038020E0042E24D1E7
:106810007144CEEB020213F801801944053A49781D
:1068200001EB08280CF1050171441944D847E369CC
:1068300050221A70E36902225A70E3691FFA88F83D
:106840004FEA28229A70E369324683F80380E169AF
:10685000204603F0F2FD656205E0033A7144CEEB99
:1068600002021944D847D5463BE0502908D199780F
:10687000DB7803EB012189B22046FFF7FDFE30E013
:1068800040290CD0602908D19978DB7803EB0121ED
:1068900089B22046FFF70AFF23E070290DD1616B12
:1068A000F9B1042A1DD110F0060F1AD19878DB78BF
:1068B00003EB002080B2884713E0902911D0C02953
:1068C0000AD1D0221A70E36900225A70E1690222CB
:1068D000204603F0B2FD04E0D02904BF002384F871
:1068E0002C3048460C37BD46BDE8F08F70B50446E5
:1068F0000E461546FFF730FDE8B1238C01339BB2FD
:1069000003B901232384238CE2691B125371E369C9
:10691000228C9A71E269314607232046FFF702FD77
:10692000E3691D54031FE26920469BB28221BDE842
:106930007040FFF7B0BC70BD0022FFF7D7BF10B5A5
:106940000446FFF709FD10B12046FFF7D7FCE069C8
:1069500008B1FDF7A8FB04F1380002F0C7FC20469F
:10696000FFF7CCFB204610BD01F086BF01F084BFCD
:1069700001F082BF10B50446243000F09DFF28B11D
:1069800004F50C70BDE8104000F096BF10BD411E2C
:1069900000F10A020020430843EAC01011F8013F49
:1069A00053FA80F08A42C0B2F5D1704738B5CB684F
:1069B00004460D4623B98968BDE8384000F009BC9B
:1069C0002422002105F066F9102301202370A07015
:1069D000AB68A360EB68236238BD00002DE9F04787
:1069E0000378202B00F1010401D12046F8E7704F15
:1069F000886005462C1A2E4615F8013B0BB32F2B49
:106A000001D1031917E05C2B02D10020BDE8F0870B
:106A1000A3F12204E4B21D2C03D827FA04F4E407FE
:106A2000F3D403F0BF043C2CEFD0203B5E2BE1D924
:106A3000EBE72F2D05D11E4613F8015B202DF8D171
:106A4000F9E7166003199842C0EB030809D013F860
:106A5000012D2E2AF7D0202AF5D0B8F1FF0FD4DC73
:106A600001E04FF00008C1F8048001F10C0301F1CE
:106A70001702202403F8014F9342FBD103461A1A50
:106A800013F8014B2E2CFAD0202CF8D0B2FA82F455
:106A9000640908F1FF36731C07D100274FF0070E79
:106AA0003D46BA464FF0080909E0835D2E2BF4D02D
:106AB000013EF0E7835C202B04D1002401324245E3
:106AC000F8DB4BE02E2B02D1B242F6D103E0222BB1
:106AD00017D07C2B15D0A3F12A0CBCF1050F01D8DF
:106AE0002D2B0ED1A3F13A0CBCF1050F09D9A3F15E
:106AF0005B0CBCF1020F04D9A3F1210CBCF15D0FBA
:106B000002D9B2420ED149E0B24247D0754521D8F0
:106B1000A3F1610CBCF1190F08D8203BDBB249EAA4
:106B200007070AE0754515D800245F23A3F1410C3F
:106B3000BCF1190F98BF49EA0A0A05F1010C5FFA86
:106B40008CFC0D44BCF1060F6B7301D881F80CC0AE
:106B50006546B3E7BEF10A0F17D100244B7B202B0B
:106B60003FF453AF3CB11AEA070F18BF02270F706A
:106B70000120BDE8F0870B7B0120087019447E23BB
:106B80004B7331238B73BDE8F087B242E5DC3246AC
:106B90004FF00A0E08254FF010098EE7BEF10A0FDC
:106BA000DBD032464FF00A0E08254FF0100985E77A
:106BB00001010031F0B58BB000238DF804308DF861
:106BC000053003781907044608D583789A0705D558
:106BD000016A29B1A06800F060FF08B9002049E00F
:106BE0000121204600F0BCFA05460028F6D0FFF748
:106BF000CEFEE5262E70002307462370A068FFF71F
:106C0000B9FE0028EAD0E378002B33D0214601A852
:106C1000FFF7CCFE0028E1D00125E378AB42DDD3BD
:106C2000A188491B490101A800F0CEFB0028D5D05E
:106C3000002101A800F0ABFB0028CFD0C37A0F2BB6
:106C4000CCD1027802F01F039D42C7D1437BBB42E7
:106C5000C4D10670A16891F8243043F0010381F893
:106C60002430530603D5A068FFF784FE02E0013507
:106C7000EDB2D2E70BB0F0BD2DE9F84391F80C90DE
:106C800006460D4602247E2701F10D086968AA68B0
:106C900063189BB21144914206D012F8010B03EB2A
:106CA000431343409BB2F6E7B9F1030F28BF4FF0FF
:106CB000030909F10402D2B203F00F01A818013A46
:106CC0000929D2B294BF30313731914541734FEA2F
:106CD0001313F1D305EB090300215F73304600F075
:106CE00073FB0121304600F052FB014628B9707851
:106CF000B0FA80F04009BDE8F88303784BB1C37A5D
:106D00001B07EED40B22404604F0AAFF0028E8D16E
:106D100002E00120BDE8F8830134A4B2642CB5D1AF
:106D2000BDE8F8832DE9F04F9B460B7889B013F04E
:106D3000700F05900E46914601D10020A0E1059B01
:106D40001B78002BF9D15368029313789B0700F04E
:106D50008D81029B0D270C33B3FBF7F70137FFB290
:106D60000021304600F030FB4FF0000809F10D0221
:106D7000CDF80C80434644464546CDF81080069237
:106D80007269079301213046C2F34F1A00F0FFFAEF
:106D9000079B20B97378002B00F09080CDE7027834
:106DA000E52A00D042B9002C08BFD046BC423CBF07
:106DB0000134E4B222B981E0BC4238BF002403E0D0
:106DC000E52A01D10025DBE72E2AFBD0C17A0F2965
:106DD00052D13DB95106D3D5437B039302F01F0531
:106DE0002B4607E0013BDBB29A42EBD1427B039991
:106DF0009142E7D15A1E4FF00D0C0CFB02FC029A97
:106E00006245DFD94FF0000EBEF1040F5FFA8EF23B
:106E100004D800EB4E02B2F801200CE00A2A95BF1C
:106E20000EF1FF320EF1010200EB420200EB4202D2
:106E300094BFD28892880299614503D1002A18BF75
:106E400000259DE7FF2ABDD8D2B2A2F14101192940
:106E5000D9F8081011F80C1098BF20320CF1010A73
:106E6000A1F1410C98BFD2B2BCF1190F9CBF2031E7
:106E7000C9B29142A6D1FBE00907A3D44DB1012BC1
:106E80007FF45BAFFFF783FD039B83427FF455AF35
:106E90000FE00B220699079304F0E2FE079B0028FF
:106EA0007FF46EAF99F80020D20702D50122049238
:106EB00066E71BF4006F00F0D1803EE71BF4007F13
:106EC0003FF43BAF0BF00303013B012B3FF635AF23
:106ED000002C08BFD046BC4202D3049BCBB91FE0B4
:106EE0000021304600F053FA10B973785BB124E703
:106EF0000134E4B2EFE7B3681B79012BEDD810340D
:106F0000E4B2A742E9D9304600F0EAF80028F2D10D
:106F100013E749463046FFF7AFFE00283FF40DAFB8
:106F20004FEA4811304600F04FFA00283FF405AF11
:106F30007D1EEDB22C464FF0000A4FF00F0841E0E5
:106F40000021304600F023FA074600283FF4F5AE52
:106F5000B26892F82430AC4243F0010382F8243046
:106F60000CBF44F040022246027080F80B8080F88B
:106F70000CA009F10D000392FFF709FD039A787345
:106F800087F81AA087F81BA002F01F020D23013A10
:106F9000D9F808E05A4300230299914215D91EF806
:106FA0000210042B5FFA83FC03F1010013D807EBF6
:106FB0004303A3F801100D2802F101020346EBD1AF
:106FC000013CE4B2002CBBD10EE014BF4FF0FF3106
:106FD000002189B2E5E7BCF10A0F94BF07EB430338
:106FE00007EB40039980E6E7736921463046C3F317
:106FF0004F1A00F0CCF9074600283FF49EAE20223D
:10700000214604F047FE4B4653F80D2F3A605A686C
:107010007A601A893A819B7ABB7299F8003003F042
:1070200018033B73184B1B682BB107F10E0107F1D6
:107030001000984706E021233B7428237B74082323
:10704000BC73FB733B8A7B823B83FB89FB82B26808
:1070500092F8243043F0010382F8243000955B4617
:1070600052463146059800F0F8F909E0012777E625
:107070000EF1010EBEF10D0F3FF482AED446C3E611
:1070800009B0BDE8F08F00BF5CDE032001F0F4BB67
:1070900001F0F2BB01F0F0BB10B50C46017809B964
:1070A000002010BD11F0600104D02F2323700023B5
:1070B000637006E000F054F80028F1D0214600F09B
:1070C0005EF8012010BD01F0D7BB8378016943F061
:1070D0000403837000F11002806800F0A3BC00007C
:1070E0002DE9F041037803F02003044603F0FF0587
:1070F0000BB100262EE04269184B9A42F9D8FFF7EF
:10710000E4FF06460028F4D02169A06800F01FFCC7
:107110000746A06805223946243000F0F4FB80467B
:107120000028E6D029464FF4007204F0B3FD012593
:10713000A3681A79AA4209D94246E919186800F0E9
:107140005FFF0028D5D00135EDB2F1E7636903EBAD
:10715000422363613046BDE8F08100BFFFFD1F00A0
:1071600010B5044680680A462430A16900F0CBFBC4
:1071700020B1A38803F00F0300EB431010BDF0B55E
:107180000024451E082623462E2715F8012F202A05
:1071900018D0082C02BFCF545A1CD3B22A78A2F1BF
:1071A000410E08BF1026BEF1190F06D890F80CE06A
:1071B00016EA0E0F1CBF2032D2B203F1010ECA54E0
:1071C0005FFA8EF301340B2CDFD10022CA5418462B
:1071D000F0BD70B5047805460E4684B924222146D8
:1071E00004F058FDAE60F379102B03D0202B06D1AC
:1071F000402300E0202301202B70A87070BD0020E8
:1072000070BD2DE9F74F03780446894615464BB10A
:107210008278D10706D50CE05A46216900F09DFB23
:1072200000283DDA637843F0020363704FF0FF30CB
:1072300097E01A0703D5E36962699B1A07E09A068B
:1072400008D5A3681A896369C3EB42139BB29D42B8
:1072500028BF1D462E464FF0000804F1100B002EEB
:1072600035D022786369A06812F0200FC3F3080AB2
:107270004FEA532102D0036A19441DE090F80580BB
:1072800001EA0808BAF1000F10D1B8F1000F0DD1D2
:10729000002BC1D153064CBF036A236A236105E06A
:1072A00004D1237813F0700F11D1BBE72169A068D6
:1072B00000F04DFB08EB0001A068BAF1000F35D1DA
:1072C000B6F5007F32D3C36A994202D12EE0A81BE3
:1072D00047E0B6F5806F1BD3227897064FEA562A0F
:1072E00006D40279C8EB0202D2B2924528BF924678
:1072F00099424FEA4A2707D2A06853464A46006897
:1073000000F03CFE60B98DE75344994221D3F3E786
:107310004A46006800F0EAFD002883D04FF4007769
:1073200063693B44B9446361F61B98E7002224304B
:1073300000F0E9FA00283FF475AFCAF50077B742CC
:1073400028BF374600EB0A013A46484604F097FC4E
:10735000E6E72430019100F0AFFA01990028CBD183
:1073600060E703B0BDE8F08F73B501220DF10701AE
:10737000044646690569FFF744FF012805BF9DF8EB
:10738000070066614FF0FF30256102B070BD37B570
:107390004369C3F34315044605B169B901220DF1F0
:1073A00007012046FFF72DFF40B2012801D0002041
:1073B00008E063691F3300E02033A0686361303068
:1073C00000EB451003B030BD2DE9F0410E460178C9
:1073D00007690446002939D04569B5423AD00EB94B
:1073E000066131E00B0703D5C3699E422ED807E042
:1073F000880605D5A3681B89B6EB431F26D823E072
:10740000D4F808E09EF806306A1E03F10900731EE6
:10741000C240C3409A4200D84DB94A064CBFDEF87C
:107420002020226A22611D4604F110080AE09B1AFE
:10743000F9E742462169A06800F08FFA002805F1BB
:10744000FF3503DD002DF4D1666103E027610020E4
:10745000BDE8F0810120BDE8F081F8B50F46154682
:107460000021242204461E4604F014FCB868A060E3
:1074700005F00F02A58000F1300152013B6AE36084
:107480001144CB7A1D074CD4831893F83B3003F09A
:1074900017032370C97A11F0180F04BF43F00803D3
:1074A00023709DF81830E37006F00303012B09D018
:1074B000022B05D0002B34D1710532D4012302E018
:1074C000032300E00223A370A1788B0703D5237860
:1074D00013F0110F25D14BB216F4005F06F008012E
:1074E00014BF6FF07F07002719433943A170C36AA7
:1074F000A36102447505B2F84410B2F84A3043EA79
:10750000014104D581B100F0C8FA68B909E02162EF
:10751000D36CE36173040CD5E1692046FFF754FF97
:1075200038B900202070F8BDA37843F00403A3709D
:10753000F0E70120F8BD2DE9F743037806460D4634
:10754000174653BB0B7813F0700F26D04C6914F01C
:107550001F0422D1A04600212846D5F81490FFF739
:1075600016FFD0B10378C3B12E2B01D10024F2E76E
:10757000E52BFBD0C17A11F0080F05D17CB1FFF7E4
:1075800006FA804509D10AE00F29EFD15906E2D564
:1075900003F01F0490F80D80DDE7002007E0009461
:1075A0003B46C9F34F1229463046FFF756FF03B05A
:1075B000BDE8F08338B5037804460BB9012038BD27
:1075C00083785A0723D50121FFF7CAFD054628B95C
:1075D000637843F001036370002038BD0378E52B26
:1075E000F6D023781B0744BFE369C361238C438330
:1075F000638C8382094B1B682BB100F11601183094
:1076000098472B8B6B82A37823F00403A370A068A8
:10761000FFF7B0F90028DBD0D0E700BF5CDE032025
:1076200010B50446FFF7C6FF0023237010BDF0B568
:1076300093B01F4600238DF824308DF82530037851
:10764000019206460C460BB100203DE00B7813F08A
:10765000700FF9D013782F2B12D1019B1A782F2A93
:1076600002D101330193F8E7A1681AB93046FFF758
:10767000B0FD29E009A8FFF7ACFD0028E4D009AC73
:1076800001AA03A90198FFF7A9F90028DCD0019B02
:107690001B789BB1002303AA21463046FFF742FB2B
:1076A0000028D1D035460FCD09AC0FC40FCD0FC483
:1076B0002B6823603046FFF7B3FFE0E73B4603AAA1
:1076C00021463046FFF72EFB13B0F0BD00B58BB05E
:1076D00000238DF804308DF805300A460123014659
:1076E00001A8FFF7A4FF10B101A8FFF763FA0BB0E0
:1076F0005DF804FB2DE9F047037889461907044635
:10770000904608D583789A0705D51B070BD5E16904
:10771000FFF75AFE38B9637843F0010363704FF006
:10772000FF30BDE8F0876369DB439845F3D84646F0
:107730004FF0000A6369002E00F08180A068427952
:1077400012EA5325C3F308071CD1DFB9216971B1CF
:1077500004F1100200F001F90028DCDB40F08E801B
:107760002046FFF7B2FC002840F08880D3E7236A68
:107770003BB92046FFF7A9FC0028CCD0236923623F
:1077800000E023612169A06800F0E1F8291817B929
:10779000B6F5007F21D2C7F50075B54228BF354642
:1077A00037B96369E269934234BF0122052200E0E0
:1077B0000122A068243000F0A6F80028ABD038449D
:1077C0002A4649462F4404F05AFAB7F5007F30D1D3
:1077D000A068243000F070F817E0B6F5806FA0685C
:1077E00015D30279521B730AD2B2934228BF1346B3
:1077F000C26A91424FEA432502D31A44914237D3D9
:10780000A7684A46386800F06DFC90B983E7C36A00
:10781000994202BF4FF0FF3380F824A0C362A368EF
:107820004A46186800F0ECFB00283FF474AF4FF4B0
:10783000007563692B446361A944761B7AE7E269AA
:10784000934201D9E36102E00F4B1B681BB1A3789F
:1078500043F00403A37094F90230002B02DB40468E
:10786000BDE8F0872046FFF7A5FE0028F7D152E7D4
:107870004FF0FF3280F824A0C262C1E72169A068FE
:1078800000F065F8014683E75CDE032000F0F4BFFA
:1078900070B505460C46084649B104F05FFF2B68F9
:1078A000024621462846DB68BDE87040184770BD97
:1078B00000F0E2BF00F0E0BF70B50378DA070446DD
:1078C0001ED54368816800F10C063246186800F046
:1078D00097FB054608B9002513E023789B0704D4DD
:1078E000237823F0010323700BE06368A068196913
:1078F00032460144186800F083FB0028F0D1EAE723
:107900000125284670BD70B583688B4204460E463B
:10791000154614D0FFF7D0FF08B9002070BD6B07E3
:1079200003D500232370A66009E0636804F10C020C
:107930003146186800F0DAFA0028F2D1EDE7237832
:10794000204605F003051D4300F80C5B70BD8379EC
:1079500040690239994008447047012970B50546CD
:107960000C46164602D84FF0FF3070BDC3699942ED
:10797000F9D8C379202B10D18169022201EBD411EF
:1079800000F50C70FFF7BFFF0028ECD004F07F0477
:1079900050F8243023F070430FE0102BE3D18369BB
:1079A000C1F307210222194400F50C70FFF7ABFF69
:1079B0000028D8D0E4B230F81430EA6993429ABF74
:1079C00033600120002070BD012938B50C461546F2
:1079D00001D8002038BDC3699942FAD8C379202B59
:1079E0000ED18169032201EBD41100F50C70FFF771
:1079F0008AFF0028EDD004F07F0440F824500FE007
:107A0000102BE6D18369C1F307210322194400F545
:107A10000C70FFF778FF0028DBD0E4B220F8145098
:107A2000012038BD2DE9F341C4688C4205460E465D
:107A3000904607D20C460027EB6901349C4203D9DB
:107A4000CFB9EC680127F7E7A64214D001AA214676
:107A50002846FFF782FF00280DDBEDD0019B002BAD
:107A6000EAD107B1EC606FF0704221462846FFF77B
:107A7000ABFF074608B900270BE016B9C8F800406D
:107A800007E0224631462846FFF79EFF0028F5D141
:107A9000F1E7384602B0BDE8F08173B505460C4603
:107AA00001AA21462846FFF758FF061E01DA0020EA
:107AB0000FE0002221462846FFF786FF0028F6D077
:107AC000EB689C429CBF04F1FF34EC60019C002EEB
:107AD000E6D102B070BD70B5012304460022C36038
:107AE0004FF0FF33C2710D46A06280F82420C362BC
:107AF000C4F8340280F83022C0F83832A1B1042929
:107B00005DD811462430FFF7FEFE002857D000EB69
:107B1000051393F8AE315B0651D11B3500EB05150B
:107B2000D5F80650002D4AD00022294604F1240041
:107B3000FFF7E9FE002842D0B0F80B30B3F5007F24
:107B40003DD1037C022B3AD1C389002B37D0417B36
:107B500021714B1E63710023A371092601238B42FF
:107B600007D0013E2BD0A2795B000132DBB2A271BB
:107B7000F5E7C28A02B9426A2261C6892E44A6612B
:107B8000B0F81130238106EB42012162B0F81120D8
:107B9000520102F2FF1201EB62226261B0F813306F
:107BA00003B9036AAD1A2B44A57923FA05F56B1CBA
:107BB000E36140F6F4739D4203D80C23E371002087
:107BC00070BD4FF6F4739D4285BFC36A23621023D4
:107BD0002023E371012070BD00F04EBE00F04CBECA
:107BE00000F04ABE70B50E4C0E46154600F004FF7C
:107BF0002368C01A0B4B984208D900F005FF0A4BC6
:107C0000186001F045F900F0F7FE206000F0FCFE7E
:107C100080B2801BA842D4BF0020012070BD00BFED
:107C200060DE0320A086010004E3032038B5057A56
:107C300004464DB9406800F07DFA63682946187D16
:107C400002F0A1FF0123237238BD10B5037A044668
:107C50006BB143680121187D02F095FFFF21606838
:107C600000F09AFA606800F079FA0023237210BDE0
:107C7000F8B504460D46164600F0C6FE87B26068A9
:107C800000F06FFAFF28607209D14FF47A7239461A
:107C90002046FFF7A7FF0028F1D055230BE0FE2870
:107CA00001D0502307E032462946606800F05EFAB2
:107CB000607230B1602320462370FFF7C6FF0020BA
:107CC000F8BD606800F04DFA606800F04AFA0120E3
:107CD000F8BD70B504460E4600F096FE85B23246F9
:107CE00029462046FFF77EFF30B9606800F039FA78
:107CF000FF28F4D1012070BD002070BDF7B5037AD4
:107D0000019204460D460BB9FFF790FF25B14FF4E1
:107D100096712046FFF7DDFF45F04001606800F0F6
:107D20003BFA0DF107060DF1030716F8011960681B
:107D300000F032FABE42F8D1002D0CBF9521872108
:107D4000606800F029FA606800F00BFA0B256068A3
:107D500000F007FA0306607203D5013D15F0FF0538
:107D6000F5D103B0F0BD70B504460D461646372177
:107D70000022FFF7C3FF324629462046BDE8704087
:107D8000FFF7BCBF2DE9F041002505720570857233
:107D90004160044690461E4600F036FE41460746C6
:107DA000606800F0CBF963684F4A1D724FF001081C
:107DB000DA605D7483F810802046FFF737FF636850
:107DC0004146187D02F0DFFE0A25FF216068013D73
:107DD00000F0E2F915F0FF05F7D163682946187D38
:107DE00002F0D1FE0A25002211462046FFF786FF49
:107DF0000128804612D0013D15F0FF0501D1202356
:107E000057E0FD21606800F0C7F94FF40278606820
:107E100000F0A7F9B8F10108F9D1E4E74FF4D57201
:107E200008212046FFF76AFF052802D184F80A805E
:107E30000FE00425606800F094F9013D15F0FF059E
:107E40006072F7D1AA2802D10223A37201E0252390
:107E50002FE0A37A022B0CBF4FF080450025BFB264
:107E60002A4629212046FFF77EFF024648B14FF4FB
:107E7000FA6239462046FFF7B5FE0028F0D04323CA
:107E800017E0A37A022B0ED02046FFF7DEFE6368D0
:107E9000B0683479317B727B5A74D8601C72197463
:107EA0000120BDE8F0813A212046FFF727FF38B1D5
:107EB000372320462370FFF7C8FE0020BDE8F0817D
:107EC000606800F04EF900F0C000C02804BF032332
:107ED000A372606800F045F9606800F042F96068DC
:107EE00000F03FF9D0E700BF90D0030038B5837AA7
:107EF000032B18BF490215460A4611210446FFF715
:107F0000FDFE10B1302323700BE029464FF40072C0
:107F10002046FFF7ADFE054618B12046FFF795FE57
:107F200003E02046FFF791FE0025284638BD10B536
:107F3000837A032B0A4618BF4A0212210446FFF730
:107F4000DDFE30B1312320462370FFF77EFE002096
:107F500010BD012010BD10B500220C210446FFF712
:107F6000CDFE30B1282320462370FFF76EFE00209F
:107F700010BD2046FFF769FE012010BDF8B505468B
:107F800016461F46FFF7D3FF98B10024A3B29F42C5
:107F900006EB442108D94FF400722846FFF768FE2B
:107FA00001340028F2D104E02846BDE8F840FFF78C
:107FB000D2BF0020F8BD38B504461546406800F031
:107FC000EBF84FF400722946606800F0E9F8FF21F1
:107FD000606800F0E1F8FF21606800F0DDF860689B
:107FE00000F0BFF8607200F01F00052806D057238C
:107FF00020462370FFF729FE002038BD012038BD40
:1080000070B5837A032B18BF490215460A4618211A
:108010000446FFF773FE064608B132231DE02A46E8
:10802000FE212046FFF7C7FFC0B14FF4FA6120469A
:10803000FFF74FFE054608B95A230EE032460D21E0
:108040002046FFF75BFE38B9606800F08AF818B97F
:108050002046FFF7FAFD05E0292323702046FFF7AD
:10806000F4FD0025284670BD38B50D464FF4FA6181
:108070000446FFF72EFE10B95B23237005E02A4665
:10808000FC212046FFF797FF18B92046FFF7DDFDDA
:10809000002038BD10B5837A032B0A4618BF4A0268
:1080A00019210446FFF72AFE30B1332320462370FE
:1080B000FFF7CBFD002010BD012010BD38B54FF4F7
:1080C000FA610446FFF705FE054620B1FD21606810
:1080D00000F062F801E0562323702046FFF7B5FD5B
:1080E000284638BDF8B5054616461F46FFF7D2FFAD
:1080F00070B10024BC4206EB4421284604D0FFF7AF
:10810000B3FF28B10134F5E7BDE8F840FFF7D6BF6B
:108110002846FFF79AFD0020F8BD00F0ADBB00F047
:10812000ABBB00F0A9BB0000014B01221A707047E5
:1081300064DE0320011D006800F0CCBF10B50446CA
:108140000175006800F07AFF207D012102F00AFD30
:10815000207D0121BDE8104002F015BD006800F04F
:10816000A0BFFF21006801F07BB8000037B5084BC5
:1081700000930025074C0068257013460A462946DF
:1081800001F074F82378002BFCD0002003B030BD40
:1081900029810D0064DE0320006801F061B8000051
:1081A00037B5074B00930025064C00682570134631
:1081B0002A4601F05BF82378002BFCD003B030BDD9
:1081C00029810D0064DE032000F056BB024B1868C5
:1081D00003681B68184700BF7CDE032008B5012137
:1081E000007902F0D0FCBDE8084001F0FFBE0000BD
:1081F00010B5084C2368DB070AD42046FBF755FF6F
:1082000030B10121044800F00FFF2046FBF752FF78
:10821000014810BD68DE03206CDE032010B5044663
:10822000FFF7E6FF2146BDE8104001F019B810B590
:10823000044601F0D9FEFFF7DBFF002100F020FF2C
:10824000FFF7D6FF012100F00AFFFFF7D1FF182149
:1082500000F0E2FF20790021BDE8104002F093BC5D
:1082600038B50C460546FFF7E2FF04F07F00FFF744
:10827000D5FF0020FFF7D2FF04462846FFF7AEFFE8
:10828000204638BD70B50E4615460446FFF7CFFFB1
:1082900046F08000FFF7C2FF2846FFF7BFFF2046E9
:1082A000BDE87040FFF79ABF10B541721121044636
:1082B000FFF7D6FF627A00F0E0001F2A94BF024366
:1082C00040F01F0211212046BDE81040FFF7DABF41
:1082D00010B5044649B101222321FFF7D3FF232122
:1082E0002046FFF7BDFF8307F9D524212046FFF77D
:1082F000B7FF4042401010BD38B5002914BF5D22C1
:1083000055220C465A210546FFF7BCFF002C284693
:1083100014BF7C2270225C21BDE83840FFF7B2BF59
:1083200070B5284D2B788B4204460E4649D004295F
:1083300047D8DFE801F0342C241203000121FFF7B5
:108340008FFF00F0E30242F00C0201212046FFF70C
:1083500099FFA37A63B301210DE00121FFF780FFAC
:1083600000F0E30242F0100201212046FFF78AFFED
:10837000A37AEBB100212046FFF7BEFF18E00121F0
:10838000FFF76EFF00F0E30242F008020CE001216B
:10839000FFF766FF00F0E30242F0040204E001216F
:1083A000FFF75EFF00F0E30201212046FFF76AFFBE
:1083B0002B782BB927212046FFF752FF0306F7D56C
:1083C0002E7070BDC0DE0320154A002310B5137057
:1083D000144A1370144A1370144A1370144A137019
:1083E000144A1370144A282113600446FFF738FF1B
:1083F00043070AD53D212046FFF732FF40F0040233
:10840000D2B23D212046FFF73DFF204625214022E4
:10841000FFF738FF20460321BDE81040FFF780BF7B
:10842000BFDE03207ADE032078DE032080DE032017
:1084300079DE032081DE032074DE032010B50446BC
:1084400001F0D2FD0B4B1A78032A02D10A4A1278A6
:1084500052B91B78032B02D101F0C8FD02E020467F
:10846000FFF7B2FF002010BD20460121FFF758FFA3
:10847000012010BDC0DE032080DE0320002910B5DE
:108480000446817214BF0F221A221321FFF7FAFE4D
:10849000A37A43B111212046FFF7E2FE00F01F024C
:1084A00042F0600202E0627A42F08002204611212E
:1084B000BDE81040FFF7E6BE2DE9F0413D4B1B78CB
:1084C000032B044614D12821FFF7CAFE430717D413
:1084D0000EE013783C2B04D81378374ADBB2002126
:1084E000D1542046FFF77AFE03212046FFF718FFFC
:1084F00000212046FFF7ECFE304B1860BDE8F0810C
:1085000001212046FFF70CFF2046FFF790FE0020D8
:10851000FFF784FE0020FFF781FE294D28702B789D
:10852000422B14D82B78DBB200202B70FFF776FE9D
:10853000244B227A187032B91A78E179914202D02C
:108540001B78FF2B05D12B78022B02D90BE042239D
:10855000EAE7204600232B70FFF740FE2046BDE8E7
:10856000F041FFF731BF164B174E1B78124F033BFC
:10857000DBB200203370FFF751FE144B187000205F
:10858000FFF74CFE124A20F07F03DBB2137000F0BD
:108590004000104BC0B21870002331780A4ADDB297
:1085A0008D4203F1010894D20020FFF737FE4346C5
:1085B0007855F2E7C0DE032082DE032074DE03205C
:1085C00080DE032078DE0320BFDE03207ADE032076
:1085D00081DE032079DE0320F8B50D460121044633
:1085E000FFF79EFE8DB12046FFF721FEBE20FFF76C
:1085F00015FE6E1E05F10F0716F8010FFFF70EFEB0
:10860000BE42F9D12046FFF7E9FD3D212046FFF7A4
:1086100027FE20F00100002D0CBF024640F00102B1
:10862000D2B220463D21BDE8F840FFF72BBE000046
:10863000F0B58FB00D4604460021164603A82A2245
:108640001F4603F027FB01238DF80C3003238DF820
:1086500010308DF8153006238DF8163033238DF841
:10866000173007238DF8183008238DF81A300923A6
:108670008DF81C3019238DF81E3025238DF82030FD
:1086800029238DF82230DC238DF823302E238DF81A
:10869000243088238DF825302F238DF826302D2384
:1086A0008DF8273037238DF82A3090238DF82B3022
:1086B00038238DF82C303C23042202218DF82E30F3
:1086C0008F238DF80D208DF80E108DF811108DF878
:1086D0001220052140228DF82F303D238DF81320E4
:1086E0008DF814108DF82120422130228DF8303081
:1086F00012238DF81F108DF828208DF82D108DF87D
:1087000031306F238DF832301F2D4FF0FF038DF87D
:1087100033208DF8343006D02B2D06D0562D0CBFCB
:10872000D922E42202E04E2200E06C221F2D8DF8B7
:10873000192006D02B2D06D0562D14BFC0220022A2
:1087400002E0C02200E04022012120798DF81B20A8
:108750008DF8297002F006FAFFF74AFD00F06EFC72
:1087600000F052F90546AA222F212046FFF78AFD84
:108770002F212046FFF774FDAA2804D000F044F909
:10878000401B3128EFD900F03FF9401B31282DD88C
:1087900000F03AF9054655222F212046FFF772FDD9
:1087A0002F212046FFF75CFD552821D000F02CF941
:1087B000401B3128EFD91BE000212046FFF70CFFBA
:1087C000A17A2046FFF75AFE01212046FFF7A8FDB7
:1087D00000F01AF9054627212046FFF741FD030660
:1087E0001BD500F011F9401B31281CD9002028E0CE
:1087F00000F00AF9401B3128F8D80025EBB20EAA88
:1088000002EB4303013513F82C1CFF29D4D013F8D5
:108810002B2C2046FFF736FDF0E700F0F5F8401B63
:108820003128D8D9DDE700230093A07906494FF01D
:10883000FF33012201F096FB0028D7D0034BE671ED
:108840001C600FB0F0BD00BFCD810D007CDE0320A9
:1088500000F012B800F010B808B5024B1B689B6816
:10886000019308BD6802030008B5024B1B68DB6872
:10887000019308BD6802030008B5024B1B681B6822
:10888000019308BD2C02030008B5024B1B689B68CE
:10889000019308BD2C02030008B5024B1B68DB687E
:1088A000019308BD2C02030008B5024B1B681B692D
:1088B000019308BD2C02030008B5024B1B685B69DD
:1088C000019308BD2C02030008B5024B1B689B698D
:1088D000019308BD2C02030008B5024B1B68DB693D
:1088E000019308BD2C02030008B5024B1B681B6AEC
:1088F000019308BD2C02030008B5024B1B685B6A9C
:10890000019308BD2C02030008B5024B1B681B68CD
:10891000019308BD3002030008B5024B1B689B6839
:10892000019308BD3002030008B5024B1B68DB68E9
:10893000019308BD3002030008B5024B1B681B6998
:10894000019308BD3002030008B5024B1B685B6948
:10895000019308BD3002030008B5024B1B68DB69B8
:10896000019308BD3002030008B5024B1B681B6A67
:10897000019308BD3002030008B5024B1B685B6A17
:10898000019308BD3002030008B5024B1B689B6AC7
:10899000019308BD3002030008B5024B1B689B6BB6
:1089A000019308BD3002030008B5024B1B68DB6B66
:1089B000019308BD3002030008B5024B1B681B6C15
:1089C000019308BD3002030008B5024B1B685B6CC5
:1089D000019308BD3002030008B5024B1B685B69B8
:1089E000019308BD6C02030008B5024B1B685B686D
:1089F000019308BD1802030008B5024B1B681B69F0
:108A0000019308BD1802030008B5024B1B685B699F
:108A1000019308BD1802030008B5024B1B68DB690F
:108A2000019308BD1802030008B5024B1B689B6A3E
:108A3000019308BD1802030008B5024B1B685B6C6C
:108A4000019308BD1802030008B5024B1B689B6C1C
:108A5000019308BD1802030008B5024B1B689B6D0B
:108A6000019308BD1802030008B5024B1B689B6800
:108A7000019308BD4802030008B5024B1B68DB6880
:108A8000019308BD4802030008B5024B1B681B692F
:108A9000019308BD4802030008B5024B1B685B69DF
:108AA000019308BD4802030008B5024B1B68DB694F
:108AB000019308BD4802030008B5024B1B681B6AFE
:108AC000019308BD4802030008B5024B1B685B6AAE
:108AD000019308BD4802030008B5024B1B689B6A5E
:108AE000019308BD4802030008B5024B1B68DB6A0E
:108AF000019308BD4802030008B5024B1B685B6C7C
:108B0000019308BD4802030008B5024B1B689B6C2B
:108B1000019308BD4802030008B5024B1B681B6F98
:108B2000019308BD4802030008B5024B1B685B694E
:108B3000019308BD6402030008B5024B1B681B6A61
:108B4000019308BD6402030008B5024B1B689B6AD1
:108B5000019308BD6402030008B5024B1B681B6843
:108B6000019308BD3C02030008B5024B1B68DB689B
:108B7000019308BD3C02030008B5024B1B681B694A
:108B8000019308BD3C02030008B5024B1B685B69FA
:108B9000019308BD3C02030008B5024B1B689B69AA
:108BA000019308BD3C02030008B5024B1B68DB695A
:108BB000019308BD3C02030008B5024B1B681B6A09
:108BC000019308BD3C02030008B5024B1B689B6A79
:108BD000019308BD3C02030008B5024B1B689B696A
:108BE000019308BD2802030008B5024B1B68DB692E
:108BF000019308BD2802030008B5024B1B681B6ADD
:108C0000019308BD2802030008B5024B1B685B6A8C
:108C1000019308BD2802030008B5024B1B689B6A3C
:108C2000019308BD2802030008B5024B1B68DB6AEC
:108C3000019308BD2802030008B5024B1B681B6B9B
:108C4000019308BD2802030008B5024B1B685B6B4B
:108C5000019308BD2802030008B5024B1B681B6C7A
:108C6000019308BD2802030008B5024B1B689B6CEA
:108C7000019308BD2802030008B5024B1B68DB6C9A
:108C8000019308BD2802030008B5024B1B681B6D49
:108C9000019308BD2802030008B5024B1B689B69BD
:108CA000019308BD3802030008B5024B1B68DB695D
:108CB000019308BD3802030008B5024B1B681B6A0C
:108CC000019308BD3802030008B5024B1B689B6A7C
:108CD000019308BD3802030008B5024B1B681B6BEB
:108CE000019308BD3802030008B5024B1B689B6B5B
:108CF000019308BD3802030008B5024B1B681B68CE
:108D0000019308BD4C02030008B5024B1B685B6869
:108D1000019308BD4C02030008B5024B1B681B6998
:108D2000019308BD4C02030008B5024B1B685B6948
:108D3000019308BD4C02030008B5024B1B689B69F8
:108D4000019308BD4C02030008B5024B1B68DB69A8
:108D5000019308BD4C02030008B5024B1B681B6A57
:108D6000019308BD4C02030008B5024B1B681B6D44
:108D7000019308BD6002030008B5024B1B681B6825
:108D8000019308BD2002030008B5024B1B685B6815
:108D9000019308BD2002030008B5024B1B685B6904
:108DA000019308BD2002030008B5024B1B68DB6A73
:108DB000019308BD2002030008B5024B1B689B6DA0
:108DC000019308BD2002030008B5034B1B68D3F8CC
:108DD0008830019308BD00002002030008B5034B52
:108DE0001B68D3F89430019308BD000020020300F3
:108DF00008B5024B1B685B68019308BD4002030085
:108E000008B5024B1B689B68019308BD4002030034
:108E100008B5024B1B68DB68019308BD40020300E4
:108E200008B5024B1B681B69019308BD4002030093
:108E300008B5024B1B685B69019308BD4002030043
:108E400008B5024B1B689B69019308BD40020300F3
:108E500008B5024B1B68DB69019308BD40020300A3
:108E600008B5024B1B681B6A019308BD4002030052
:108E700008B5024B1B681B6B019308BD4002030041
:108E800008B5024B1B685B6B019308BD40020300F1
:108E900008B5024B1B689B68019308BD44020300A0
:108EA00008B5024B1B685B69019308BD44020300CF
:108EB00008B5024B1B68DB69019308BD440203003F
:108EC00008B5024B1B68DB6A019308BD440203002E
:108ED00008B5024B1B681B6B019308BD44020300DD
:108EE00008B5024B1B68DB6B019308BD440203000D
:108EF00008B5024B1B681B68019308BD1C020300E8
:108F000008B5024B1B685B68019308BD1C02030097
:108F100008B5024B1B689B68019308BD1C02030047
:108F200008B5024B1B68DB68019308BD1C020300F7
:108F300008B5024B1B681B69019308BD1C020300A6
:108F400008B5024B1B689B69019308BD1C02030016
:108F500008B5024B1B68DB69019308BD1C020300C6
:108F600008B5024B1B681B6A019308BD1C02030075
:108F700008B5024B1B685B6A019308BD1C02030025
:108F800008B5024B1B681B6B019308BD1C02030054
:108F900008B5024B1B68DB6B019308BD1C02030084
:108FA000002211464068FFF75BBF0022114640686F
:108FB000FFF766BF00224068FFF75ABF002281F02A
:108FC00001014068FFF744BF00231A461946406874
:108FD000FFF736BF00231A4619464068FFF728BF3F
:108FE000002211464068FFF71BBF0022114640686F
:108FF000FFF706BF002202214068FFF709BF0023E8
:109000001A464068FFF7F4BE024B03225A60024A38
:109010001A607047C4DE0320A0D30D000021FFF7C3
:10902000CBBC0021FFF7D0BC10B504460170084648
:10903000FFF792FC00236360204610BD10B5044684
:109040000078FFF7EBFF48B920784FF6FF71FFF784
:109050005BFC2078BDE81040FFF7E3BF10BD38B5DA
:10906000044600780D46FFF7D9FF40B9207829461D
:10907000FFF752FC2078BDE83840FFF7D2BF38BD7B
:1090800038B5044600780D46FFF7C8FF40B9207890
:109090002946FFF749FC2078BDE83840FFF7C1BFFB
:1090A00038BD0078FFF7BDBF400830B51860002418
:1090B00018688842E5B206D90134082C02D040086D
:1090C0001860F5E70725024B5B5D137030BD00BFEC
:1090D000CCD30D002DE9F04307468FB000780E4643
:1090E000FFF79CFF002862DB3C781422002109A8CE
:1090F00002F0D0FD0B232046002209A9ADF8243050
:10910000FFF73AFC9DF82D4054B19DF82C5035B92D
:10911000DDF830809DF834909DF8354003E0002460
:10912000A146A0460125337905B1BBB99D420BD1BB
:10913000B268424508D18DF820908DF82140BDF8E5
:109140002010B289914209D053B10024387801949B
:109150000094234622460121FFF726FC002026E04A
:109160008DF80F30B1680A9804AB0DF10F02FFF7CC
:109170009BFF317905B1B1B9A94208D000243878F4
:109180000194747B337B9DF80F200094E4E7B3686F
:109190004345F3D38DF820908DF82140BDF8202071
:1091A000B3899A42EAD1049B4345E7D1D6E70FB091
:1091B000BDE8F0832DE9F04188B000230446007833
:1091C00002930E461746FFF729FF054600BB94F8A9
:1091D00000800146142203A802F05CFD0B232A46FE
:1091E00003A94046ADF80C30FFF7C6FB02AB0DF10A
:1091F000070207FB06F104988DF80750FFF754FFAC
:1092000020789DF80710FFF797FB2078FFF709FFFC
:10921000029808B0BDE8F08138B5044600780D46E4
:10922000FFF7FCFEC8B9616871B10C4BC25CAA4281
:1092300002D001300828F9D10130C0B2C14001226A
:109240002046FFF7B7FF03E029462078FFF774FBBD
:109250002078BDE83840FFF7E4BE38BDCCD30D0020
:1092600008B50078FFF770FBC0B208BD30B587B015
:1092700004460A9D00780095FFF786FB3DB902A9D8
:109280002078FFF789FB9DF81430DB07F7D407B08F
:1092900030BD0078FFF768BB10B50446006818B110
:1092A000FFF72EFE0023236010BD10B50446FFF724
:1092B000F3FF204610BD000010B5094C00204FF60A
:1092C000FF732060A080A07120816381FFF75CFDA7
:1092D0002046044A0449BDE8104001F015BD00BF16
:1092E000CCDE0320F8D70320AB920D0010B5044666
:1092F0000068FFF705FE204610BD10B50446006863
:1093000008B1FFF7FDFD00232360A360636010BD7B
:1093100038B504460D4600680131FFF7F9FD10B17C
:1093200084E82100012038BD10B50368044613B15C
:1093300043688B4207D22046FFF7EAFF20B1A368BB
:109340000BB922681370012010BD70B50E4611468E
:1093500004461546FFF7E8FF18B92046FFF7CDFF92
:1093600009E02A463146A560206802F088FC2268A0
:10937000A3680021D154204670BD38B500230446AF
:1093800003604360836003730D4639B1084603F000
:10939000E5F9294602462046FFF7D7FF204638BDAB
:1093A00038B5054600680C4660B16A688B689A4219
:1093B00006D3096802F0B6FCA368AB6000230AE09C
:1093C000FFF79EFD23682B6063686B60A368AB604A
:1093D000002323606360A36038BD884210B50B464C
:1093E000044607D0096819B19A68FFF7AEFF01E09B
:1093F000FFF783FF204610BD884210B5044601D018
:10940000FFF7CEFF204610BD38B505460C4641B1EA
:10941000084603F0A3F9214602462846FFF795FFC8
:1094200001E0FFF76AFF284638BD70B504460E46D6
:1094300009B9002070BD6AB18368D5182946FFF7C5
:1094400073FF0028F5D02068A3683146184402F065
:1094500069FCA560012070BD10B58A6809680446E2
:10946000FFF7E3FF10B92046FFF747FF204610BD86
:1094700010B50446006808B1FFF746FB204610BD52
:1094800010B5064C002320462360FFF735FB20462D
:10949000034A0449BDE8104001F036BCD8DE032081
:1094A000F8D7032071940D00F8B506460D468F18C5
:1094B0000024BD420CD0336815F8011B9B68304670
:1094C0009847002801DB0444F3E7002C08BF04465A
:1094D0002046F8BD08B5FEF7DBF908BD03689B68B8
:1094E000184738B50D210546FFF7F8FF0A21044655
:1094F0002846FFF7F3FF204438BD38B50546FEF790
:10950000C7F904462846FFF7ECFF204438BD30B5C4
:109510008BB00B4600218DF82410012A98BF0A2237
:109520000DF12304B3FBF2F505FB123303F0FF0347
:10953000092B94BF30333733DBB2214604F80139AD
:109540002B46002DEED1FEF7A3F90BB030BD000085
:109550002DE9F04757EC106B82460D4610EE102AAD
:109560003B4610EE100A394602F08AF908B14E491E
:1095700012E027F000494FF0FF324C4B304649468D
:1095800002F07EF968B94FF0FF32484B3046494649
:1095900002F058F928B946495046FEF779F9BDE876
:1095A000F0874FF06042434B3046394602F05EF997
:1095B00008B14149F0E74FF06042404B3046394630
:1095C00002F036F90028F4D1002200233046394653
:1095D00002F02EF940B12D215046FFF77FFF07F131
:1095E000004304461F4600E0044635494FF000089A
:1095F00000205FFA88F39D4206D90022314B01F02A
:10960000CFFF08F10108F4E732463B4601F0ECFCDD
:109610000F46064602F072F90A220146804650467D
:10962000FFF775FF0444E5B3404601F019FE02461A
:109630000B463046394601F0D5FC06460F465046EB
:109640002149FEF725F9044400221E4B30463946D5
:1096500001F07CFE06460F4602F028F9B0F1000941
:1096600007DA2D215046FFF739FFC9F10001804686
:1096700002E049464FF000080A225046FFF747FF34
:1096800040440444484601F0FBFD02460B46304688
:10969000394601F0A7FC013D15F0FF0506460F46CF
:1096A000D2D12046BDE8F087D4D30D00FFFFEF7F75
:1096B000DED30D00FFFFEF41D8D30D00FFFFEFC158
:1096C0000000E03F00002440DCD30D0038B5044624
:1096D00010EE100ACDB201F0E5FD41EC100B294669
:1096E0002046BDE83840FFF733BF0CB42DE9F04306
:1096F00087B000AF07F13804054654F8049B3C607E
:109700000E4623464A461421381DFFF731FC132824
:1097100005D8391D2846FEF7BBF8044613E000F1D2
:10972000080323F00703E846ADEB030D411C234675
:109730004A4668463C60FFF71BFC69462846FEF730
:10974000A7F80446C5461EB12846FFF7CAFE0444E2
:1097500020461C37BD46BDE8F04302B0704700000C
:10976000014B024A1A607047DCDE032055D40D001D
:10977000F0B5144B144F1E68144B064418683B6830
:1097800006449E428BB01BD00AA801AD40F8286D5C
:1097900002F06EF9436903F26C73436104460FCC27
:1097A0000FC50FCC0FC5D4F800E0C5F800E001AD3F
:1097B0000FCD074C0FC40FCD0FC43E60C4F800E0BE
:1097C0000BB0F0BD10DF03200CDF032008DF032007
:1097D000E0DE032008B50020FFF77AFB28B1FFF791
:1097E0005FFB80F00100C0B208BD012008BD000091
:1097F00037B50E4B1B6819440D4B1B68044602A875
:10980000194440F8041D02F033F902F0E7F8054668
:1098100002F0A4FF2844002300F8013C294620461A
:10982000FFF7ABFD204603B030BD00BF10DF0320C3
:1098300008DF03202DE9F047A4B014AC07468946A1
:10984000204611463F221D4602F0A5FF0023204678
:109850008DF88F3002F082FF804625B9244903A895
:1098600002F060FA13E03C2195FBF1F2002AB8BF48
:10987000524292FBF1F301FB132200924FF4616319
:109880001C4A95FBF3F3102103A8FFF761FB254663
:109890002E1B08F1FF3AB2451BD92B78252B16D188
:1098A0006B787A2B13D103A802F058FF804630441E
:1098B000C6EB0A02A91C204402F0E1F9424603A9C2
:1098C000284602F0DCF9204602F048FF80460135C8
:1098D000DEE74B462246322107A802F08BFA07A9A1
:1098E0003846FFF74AFD384624B0BDE8F08700BF90
:1098F0007DDB0D00BED40D00F7B5054601921C4678
:1099000013B9124B1C682CB1114B2046196802F098
:10991000FFF920B901992846FFF76AFF13E00D4FC0
:10992000019A3B680C4E1A44336802A8134440F86D
:10993000043D02F09DF83A68336801461344284616
:109940002246FFF777FF284603B0F0BD04DF03206F
:1099500040D7032010DF032008DF032010B50020CC
:10996000FFF77AF8044668B9FFF706FA01280BD129
:109970002046FFF721FA38B9FFF72CFF30B9FFF77F
:1099800087FAF9E7012010BD002010BDFFF722FF84
:109990000020FFF761F8003018BF012010BD08B5A6
:1099A000FFF7DCFFBDE80840FFF736B808B5FFF762
:1099B000F6FFFFF7DDFE014B986808BDE0DE0320EF
:1099C000024B1A68024B1A60704700BF40D7032051
:1099D00004DF03200021FFF7DFB910B50446FBF7D1
:1099E000CDFD204610BD00000348044A0449002371
:1099F000836001F089B900BF18DF0320F8D7032086
:109A0000DB990D00007D7047037D1BB18369B3F1C5
:109A1000004F02D19FED050A704707EE903A9FED87
:109A2000047AF8EEE77A87EE870A704700000000B4
:109A30000000C842037D1BB1036AB3F1004F02D19D
:109A40009FED050A704707EE903A9FED047AF8EE15
:109A5000E77A87EE870A7047000000000000C842DE
:109A6000037D7BB1436A002B0CDB07EE903ADFED00
:109A7000076A9FED070AB8EEE77AC7EE267A27EE67
:109A8000800A7047BFEE000A704700BF00FF7F47A3
:109A90000000C842037D7BB1C369002B0CDB07EEDD
:109AA000903ADFED076A9FED070AB8EEE77AC7EE56
:109AB000267A27EE800A7047BFEE000A704700BF83
:109AC00000FF7F470000C8422DE9F04107460C46E1
:109AD00015462AB90368C9B29B68BDE8F04118472A
