:02000002D0002C
:1040000000400D0044770D00000006000D00050182
:084010000401E80500000000B6
:04401800A4710D0082
:10401C0009480A49884208B505D0094A824202D0AB
:10402C00121A03F03BF80748074A0021121A03F052
:10403C0040F8014808BD00BFB4E20320B4760D007F
:10404C001CE303201CE30320F0E7032070B501F010
:10405C007DFC074C074BE41AA40800251E46A5421C
:10406C0004D056F8253098470135F8E770BD00BFED
:10407C00B0760D0064760D0000F020B808B500F0A5
:10408C0026F8BDE8084001F023BC00F0DDBF00F0CD
:10409C00DBBF0078B0FA80F0400970470123037051
:1040AC00704710B5421C0023C9B2141AA14203DD9B
:1040BC0012F8014B2344F8E7D8B210BD08B500F054
:1040CC00A7FB00F05BF8BDE8084000F07FBC08B52A
:1040DC0000F05EF800F082FCBDE8084000F08CBBFC
:1040EC0008B500F045FD00210120BDE8084000F0B6
:1040FC0007BF10B5044601F029FD2168BDE810404A
:10410C0001F024B91FB50B49684601F0A6F86846C2
:10411C00FFF7EFFF684601F059F80749684601F0D0
:10412C009CF86846FFF7E5FF684601F04FF805B0CC
:10413C005DF804FB8C720D002C740D001FB510B1D2
:10414C00FFF7E0FF13E00B49684601F086F868467C
:10415C00FFF7CFFF684601F039F80749684601F0D0
:10416C007CF86846FFF7C5FF684601F02FF805B0EC
:10417C005DF804FBCE710D002C740D0008B501F038
:10418C00E5FC4FF49641BDE8084001F0D3BC0000BB
:10419C00F0B589B0002301930293ADF80C3001F017
:1041AC00D5FC03681B69984790B101F0CFFC0368FC
:1041BC005B699847C4B201F0C9FC03681B69984756
:1041CC0000286AD001F0C2FC03685B699847F2E7EB
:1041DC0004460EE09E4904A801F03FF804A8FFF73E
:1041EC0088FF04A800F0F2FF00F0FAF90446FFF78C
:1041FC00A5FF984D2B78C3B1974B1A78974B1B782A
:10420C009A4204D3FFF77EFF00232B70012400F0A9
:10421C00EFFC934B1B68C01A924B1B68984204D35B
:10422C0000200024FFF78AFF2C708F4E3378002B70
:10423C0000F00B818D4B1A781D468D4B02B101227B
:10424C008C4F1A7000F0D4FC3B68C01A41F26F73AB
:10425C00984240F2FA802D7855B100F0CFFA864B97
:10426C001870824B00221A7000F0C2FC3860ECE02F
:10427C0000F0C4FA814B00280CBF012200221A70F6
:10428C0004D17D4B1D78003518BF01252846FFF75A
:10429C0055FF00232C463370D7E0A4F131000E28D3
:1042AC0000F2D18001A353F820F000BFE1410D00D2
:1042BC00AB430D00B3430D002D440D0053440D00D2
:1042CC0053440D0053440D0053440D0053440D0052
:1042DC0053440D0053440D0053440D0053440D0042
:1042EC0053440D00F5420D00654904A800F0B5FFDC
:1042FC0004A8FFF7FEFE04A800F068FF614904A8BB
:10430C0000F0ABFF04A8FFF7F4FE04A800F05EFF7A
:10431C005B4904A800F0A1FF04A8FFF7EAFE04A87B
:10432C0000F054FF584904A800F097FF04A8FFF7C9
:10433C00E0FE04A800F04AFF544904A800F08DFFE9
:10434C0004A8FFF7D6FE04A800F040FF504904A8CB
:10435C0000F083FF04A8FFF7CCFE04A800F036FFA2
:10436C004C4904A800F079FF04A8FFF7C2FE04A88A
:10437C0000F02CFF484904A800F06FFF04A8FFF7D9
:10438C00B8FE04A800F022FF3D4904A800F065FF28
:10439C0004A8FFF7AEFE04A800F018FF01E000F03F
:1043AC0025FB012425E7052001F08BFD2B4C3B4917
:1043BC00207004A800F051FF04A8FFF79AFE04A88F
:1043CC0000F004FF0A22217804A800F06AFF04A878
:1043DC00FFF78FFE04A800F0F9FE314904A800F0A5
:1043EC003CFF04A8FFF785FE04A800F0EFFE2D4962
:1043FC0004A800F032FF04A8FFF77BFE04A800F02D
:10440C00E5FE144B01221A7023785A1D4FF47A736F
:10441C005343144A136000F0EBFB114B186012E08D
:10442C00214904A800F019FF04A8FFF762FE04A8B4
:10443C0000F0CCFE0C4B01241C7000F0D9FB0D4B92
:10444C0018600A4B1C700024D3E6204609B0F0BD5E
:10445C00F1710D002DE3032035E303202EE303203F
:10446C0028E3032024E303202FE303202CE3032081
:10447C0034E3032030E3032020E3032021E3032073
:10448C0063720D0053720D00D5710D00E1710D00BA
:10449C003F720D00B8710D0075720D0001720D00A8
:1044AC0015720D001E720D002F720D0000F060BB16
:1044BC0013B502AC44F8040D01F0E4FE04222146CD
:1044CC004FF4806000F0B4FB02B010BD30B591B079
:1044DC003C220021054601A802F0EBFD01F0D2FEC2
:1044EC003C2201A9002000F09BFB3C2101A8FFF716
:1044FC00D8FD9DF8043083420CD101AC0FCC0FC514
:10450C000FCC0FC50FCC0FC594E8070085E807004A
:10451C00012000E0002011B030BD10B5044690B071
:10452C0001F0B0FE3C222146002000F081FB01A8E6
:10453C00FFF7CCFF9DF804002378C31A584258416A
:10454C0010B010BD30B58FB034220021054601A843
:10455C0002F0AFFD01F096FE342201A94FF4007079
:10456C0000F05EFB342101A8FFF79BFD9DF80430A1
:10457C0083420AD101AC0FCC0FC50FCC0FC50FCCA9
:10458C000FC523682B60012000E000200FB030BD68
:10459C0010B504468EB001F075FE342221464FF45E
:1045AC00007000F045FB01A8FFF7CCFF9DF804005C
:1045BC002378C31A584258410EB010BD37B502AC1F
:1045CC00002344F8043D054601F05CFE042221461C
:1045DC004FF4806000F024FB019B2B6003B030BDD6
:1045EC00F0B5424AA5B01068516801AB03C390689E
:1045FC0018603F4B04AA03F1100701AE154618686A
:10460C005968144603C40833BB422246F7D13C22F6
:10461C00002115A802F04DFD3422002108A802F05B
:10462C0048FD96E8070018AB83E8070095E80F00F3
:10463C001BAC84E80F004FF0113541F211143C21F2
:10464C0015A8ADF88C4016951795FFF72AFD342167
:10465C008DF8540008A8ADF82240ADF83C40ADF8F8
:10466C002440ADF83E40ADF82640ADF84040ADF8E2
:10467C002840ADF84240ADF82A40ADF84440ADF8C2
:10468C002C40ADF84640ADF82E40ADF84840ADF8A2
:10469C004A40ADF83040ADF83240ADF84C40ADF882
:1046AC003440ADF84E40149524AC0E95FFF7F9FC50
:1046BC00002344F8903D8DF820004FF0AA30FFF70E
:1046CC00F7FE2046FFF77AFF15A8FFF726FF08B97B
:1046DC00002009E008A8FFF75BFF0028F8D000983D
:1046EC00A0F1AA335842584125B0F0BD90720D008C
:1046FC009C720D0000F03CBA03681847012A02D0E6
:10470C00022A02D004E0016002E00B6800B10360F1
:10471C0000207047436913B183690C301847704708
:10472C0013B500210446084600F0B2FA02A9002392
:10473C00204641F8043D00F0C3FA019C0CB1012362
:10474C0023710021012000F0A3FA2CB1236820462C
:10475C009B6898470023237102B010BD10B5836885
:10476C00044613B1032201469847204610BD07B5F5
:10477C008068002338B18DE80A00022100F0A8FA05
:10478C00B0FA80F0400903B05DF804FB38B5104B6B
:10479C00036083680446A3B16FF000410022FFF769
:1047AC00E6FF0021A06800F0ABFA237903F0FF05C7
:1047BC0013B100F055FAF8E72946A06800F078FA32
:1047CC00A56004F10C00FFF7C9FF204638BD00BFFF
:1047DC00B4720D0010B50446FFF7D8FF20461C211B
:1047EC0001F0F2FD204610BD024B0720197801F0B4
:1047FC001CBD00BF34E30320FFF7F6BF08B507204C
:10480C0001F02CFDC0B208BD0146072001F00DBD22
:10481C0013B502210520124C01F0F6FC00221146C2
:10482C002046FFF7A4FFA06840B100236FF00042C0
:10483C008DE80C0019461A4600F04AFA094B002480
:10484C00012107201C7001F0DFFC2046FFF7DCFF84
:10485C000121072001F0D8FC034B1C7002B010BDE5
:10486C0038E3032035E3032034E3032008B50520A7
:10487C0001F0F4FCC0B208BD08B5FFF7F7FF044B1C
:10488C0010B91A78013200E000221A7008BD00BF7E
:10489C0035E3032070B588B000F06AF9194B049326
:1048AC0004AD194C194B236095E8030004F10C027C
:1048BC0002AE86E8030092E8030085E8030096E860
:1048CC00030082E80300124A6261A2690792002386
:1048DC00104A2371A3600693A261019300930E4AC0
:1048EC0023464FF47A7104F1080000F0D9F92846F8
:1048FC00FFF734FF094A0A49204601F057FD08B07A
:10490C0070BD00BF85480D0038E30320B4720D0064
:10491C0009470D0005470D002D470D001CE3032032
:10492C0099470D00704710B52821044601F04CFD45
:10493C00204610BD10B500F05BF9084B1A68801AC0
:10494C00074A90421C4608D900F056FB10B10020D3
:10495C0000F05AFB00F04CF9206010BD7CE3032002
:10496C00005C2605014800F06FBF00BF80E3032008
:10497C00014800F053BF00BF80E3032030B58BB07B
:10498C006846094C094901F03BF9029BA36004AD50
:10499C00039BE3600FCD10340FC495E8030084E84B
:1049AC0003000BB030BD00BF54E30320D8E3032059
:1049BC00014800F061BE00BF54E30320024B00220B
:1049CC001146586800F0D8BAD8E3032008B500F0B7
:1049DC000FF9014B186008BD7CE3032008B5FFF705
:1049EC00A9FFBDE80840FFF7C9BF000010B501F0F2
:1049FC00ADF8374900F0AAFC01F0A8F8044600F025
:104A0C00E7FD0A220146204600F0B3FC204600F0E8
:104A1C00A4FC01F09BF82F4900F098FC01F096F8EB
:104A2C00044600F0E9FA0A220146204600F0A1FCF7
:104A3C00204600F092FC01F089F8274900F086FC32
:104A4C0001F084F80446FFF7B9FF0A22014620461C
:104A5C0000F08FFC204600F080FC01F077F81F4935
:104A6C0000F074FC01F072F80446FFF7A1FF02217C
:104A7C00204600F068FD01F069F8194900F066FC69
:104A8C0001F064F80446FFF793FF0221204600F082
:104A9C005AFD01F05BF8134900F058FC01F056F890
:104AAC000446FFF765FF0221204600F04CFD01F0A3
:104ABC004DF80D4900F04AFC01F048F80446FFF7A8
:104ACC0051FF20460221BDE8104000F03CBD00BF64
:104ADC00C0720D00D2720D00E5720D00F8720D005F
:104AEC000B730D001E730D0031730D0070B500F0CB
:104AFC003FF8104C104B23600025283329460F4EED
:104B0C006360182204F11000A560E56002F0D1FA90
:104B1C0020460B4C0B49324601F048FC29462046F6
:104B2C0000F03CFE324620460749BDE8704001F0DB
:104B3C003DBC00BF54E3032098740D001CE303201C
:104B4C0080E3032031490D00C7570D0000F010B869
:104B5C0008B5024B1B689B68019308BD68020300F3
:104B6C0008B5024B1B68DB68019308BD68020300A3
:104B7C0008B5024B1B681B68019308BD2C0203008F
:104B8C0008B5024B1B689B68019308BD2C020300FF
:104B9C0008B5024B1B68DB68019308BD2C020300AF
:104BAC0008B5024B1B681B69019308BD2C0203005E
:104BBC0008B5024B1B685B69019308BD2C0203000E
:104BCC0008B5024B1B68DB69019308BD300203007A
:104BDC0008B5024B1B681B6A019308BD3002030029
:104BEC0008B5024B1B685B68019308BD18020300F3
:104BFC0008B5024B1B685B69019308BD18020300E2
:104C0C0008B5024B1B68DB69019308BD1802030051
:104C1C0008B5024B1B689B6A019308BD1802030080
:104C2C0008B5024B1B685B6C019308BD18020300AE
:104C3C0008B5024B1B689B6C019308BD180203005E
:104C4C0008B5024B1B689B6D019308BD180203004D
:104C5C0008B5024B1B689B68019308BD4802030012
:104C6C0008B5024B1B68DB68019308BD48020300C2
:104C7C0008B5024B1B681B69019308BD4802030071
:104C8C0008B5024B1B685B69019308BD4802030021
:104C9C0008B5024B1B68DB69019308BD4802030091
:104CAC0008B5024B1B681B6A019308BD4802030040
:104CBC0008B5024B1B685B6A019308BD48020300F0
:104CCC0008B5024B1B689B6A019308BD48020300A0
:104CDC0008B5024B1B68DB6A019308BD4802030050
:104CEC0008B5024B1B685B6C019308BD48020300BE
:104CFC0008B5024B1B689B6C019308BD480203006E
:104D0C0008B5024B1B681B6F019308BD48020300DA
:104D1C0008B5024B1B685B69019308BD6402030074
:104D2C0008B5024B1B681B68019308BD3C020300CD
:104D3C0008B5024B1B68DB68019308BD3C020300FD
:104D4C0008B5024B1B681B69019308BD3C020300AC
:104D5C0008B5024B1B685B69019308BD3C0203005C
:104D6C0008B5024B1B689B69019308BD3C0203000C
:104D7C0008B5024B1B68DB69019308BD3C020300BC
:104D8C0008B5024B1B681B6A019308BD3C0203006B
:104D9C0008B5024B1B689B6A019308BD3C020300DB
:104DAC0008B5024B1B689B69019308BD28020300E0
:104DBC0008B5024B1B68DB69019308BD2802030090
:104DCC0008B5024B1B681B6A019308BD280203003F
:104DDC0008B5024B1B685B6A019308BD28020300EF
:104DEC0008B5024B1B689B6A019308BD280203009F
:104DFC0008B5024B1B68DB6A019308BD280203004F
:104E0C0008B5024B1B681B6B019308BD28020300FD
:104E1C0008B5024B1B685B6B019308BD28020300AD
:104E2C0008B5024B1B681B6C019308BD28020300DC
:104E3C0008B5024B1B689B6C019308BD280203004C
:104E4C0008B5024B1B68DB6C019308BD28020300FC
:104E5C0008B5024B1B681B6D019308BD28020300AB
:104E6C0008B5024B1B685B6C019308BD7402030010
:104E7C0008B5024B1B681B68019308BD4C0203006C
:104E8C0008B5024B1B685B68019308BD4C0203001C
:104E9C0008B5024B1B681B69019308BD4C0203004B
:104EAC0008B5024B1B685B69019308BD4C020300FB
:104EBC0008B5024B1B689B69019308BD4C020300AB
:104ECC0008B5024B1B68DB69019308BD4C0203005B
:104EDC0008B5024B1B681B6A019308BD4C0203000A
:104EEC0008B5024B1B681B68019308BD2002030028
:104EFC0008B5024B1B685B68019308BD20020300D8
:104F0C0008B5024B1B68DB6A019308BD2002030045
:104F1C0008B5024B1B689B6D019308BD2002030072
:104F2C0008B5034B1B68D3F88830019308BD00000B
:104F3C002002030008B5034B1B68D3F8943001938F
:104F4C0008BD00002002030008B5024B1B685B681B
:104F5C00019308BD4002030008B5024B1B689B6817
:104F6C00019308BD4002030008B5024B1B68DB68C7
:104F7C00019308BD4002030008B5024B1B681B6976
:104F8C00019308BD4002030008B5024B1B685B6926
:104F9C00019308BD4002030008B5024B1B689B69D6
:104FAC00019308BD4002030008B5024B1B68DB6986
:104FBC00019308BD4002030008B5024B1B681B6A35
:104FCC00019308BD4002030008B5024B1B681B6B24
:104FDC00019308BD4002030008B5024B1B685B6BD4
:104FEC00019308BD4002030008B5024B1B689B6887
:104FFC00019308BD4402030008B5024B1B685B69B2
:10500C00019308BD4402030008B5024B1B68DB6A20
:10501C00019308BD4402030008B5024B1B681B6BCF
:10502C00019308BD4402030008B5024B1B68DB6BFF
:10503C00019308BD4402030008B5024B1B681B68B2
:10504C00019308BD1C02030008B5024B1B685B688A
:10505C00019308BD1C02030008B5024B1B689B683A
:10506C00019308BD1C020300002211464068FFF7A3
:10507C00A3BF002211464068FFF7AEBF0022406874
:10508C00FFF7A2BF002281F001014068FFF78CBF3F
:10509C0000231A4619464068FFF77EBF00231A46C4
:1050AC0019464068FFF770BF002211464068FFF7B1
:1050BC0063BF002211464068FFF74EBF0022022159
:1050CC004068FFF751BF00231A464068FFF73CBF0A
:1050DC00024B03225A60024A1A60704788E303208D
:1050EC004C730D0010B5044601700846FFF768FDBF
:1050FC0000236360204610BD0078FFF769BD10B532
:10510C000446006818B1FFF79FFF0023236010BD11
:10511C0010B50446FFF7F3FF204610BD10B5094C3F
:10512C0000204FF6FF732060A080A0712081638166
:10513C00FFF7DEFE2046044A0449BDE8104001F0AA
:10514C0035B900BF90E303201CE303201D510D0073
:10515C0010B5044602F018F801382318204698427E
:10516C0006D20278197800F8011B03F80129F6E73A
:10517C0010BD70B50C46911E222920D82546294613
:10518C0010B9234430220EE0B0FBF2F602FB1600FD
:10519C00C1B205F8011B092894BF3031573105F80D
:1051AC00011C3046EBE7994202D201F8012BFAE7D9
:1051BC00002320460B70FFF7CBFF204670BD00206C
:1051CC0070BD08B50123FFF7D4FF08BD10B5044628
:1051DC000068FFF739FF204610BD10B50446006883
:1051EC0008B1FFF731FF00232360A360636010BD9B
:1051FC0038B504460D4600680131FFF72DFF10B19C
:10520C0084E82100012038BD10B50368044613B1B1
:10521C0043688B4207D22046FFF7EAFF20B1A36810
:10522C000BB922681370012010BD70B50E461146E3
:10523C0004461546FFF7E8FF18B92046FFF7CDFFE7
:10524C0009E02A463146A560206801F027FF226854
:10525C00A3680021D154204670BD38B50023044604
:10526C0003604360836003730D4639B1084601F057
:10527C008BFF294602462046FFF7D7FF204638BD54
:10528C0038B505460C4641B1084601F07DFF214674
:10529C0002462846FFF7C9FF01E0FFF79EFF2846AC
:1052AC0038BD1FB50446002323606360A3602373DD
:1052BC00084601A9FFF785FF01A92046FFF7E0FF8B
:1052CC00204604B010BD10B50446006808B1FFF7C5
:1052DC000FFD204610BD000010B5064C00232046E3
:1052EC002360FFF7FDFC2046034A0449BDE810404B
:1052FC0001F05CB89CE303201CE30320D3520D00A7
:10530C00F8B506460D468F180024BD420CD0336804
:10531C0015F8011B9B6830469847002801DB0444B4
:10532C00F3E7002C08BF04462046F8BD70B50546CF
:10533C000C46084649B101F027FF2B68024621466E
:10534C002846DB68BDE87040184770BD08B5FFF70C
:10535C00EDFF08BD03689B68184738B50D2105465D
:10536C00FFF7F8FF0A2104462846FFF7F3FF204415
:10537C0038BD30B58BB00B4600218DF82410012AB6
:10538C0098BF0A220DF12304B3FBF2F505FB12338F
:10539C0003F0FF03092B94BF30333733DBB22146C4
:1053AC0004F801392B46002DEED1FFF7BFFF0BB0EF
:1053BC0030BD00002DE9F04757EC106B82460D46CE
:1053CC0010EE102A3B4610EE100A394601F0AAFDE9
:1053DC0008B14E4912E027F000494FF0FF324C4B18
:1053EC003046494601F09EFD68B94FF0FF32484BFC
:1053FC003046494601F078FD28B946495046FFF73A
:10540C0095FFBDE8F0874FF06042434B304639467C
:10541C0001F07EFD08B14149F0E74FF06042404B8E
:10542C003046394601F056FD0028F4D10022002305
:10543C003046394601F04EFD40B12D215046FFF764
:10544C0089FF07F1004304461F4600E00446354936
:10545C004FF0000800205FFA88F39D4206D9002225
:10546C00314B01F0EFFB08F10108F4E732463B4603
:10547C0001F00CF90F46064601F092FD0A22014696
:10548C0080465046FFF775FF0444E5B3404601F0F3
:10549C0039FA02460B463046394601F0F5F8064615
:1054AC000F4650462149FFF741FF044400221E4B92
:1054BC003046394601F09CFA06460F4601F048FD8D
:1054CC00B0F1000907DA2D215046FFF743FFC9F16F
:1054DC000001804602E049464FF000080A2250467F
:1054EC00FFF747FF40440444484601F01BFA0246CC
:1054FC000B463046394601F0C7F8013D15F0FF0563
:10550C0006460F46D2D12046BDE8F08778730D00D1
:10551C00FFFFEF7F82730D00FFFFEF417C730D00E7
:10552C00FFFFEFC10000E03F0000244080730D003E
:10553C0038B5C9B20546FFF73DFF04462846FFF7CC
:10554C000CFF204438BD38B5044610EE100A0D4649
:10555C0001F0FAF941EC100B29462046BDE8384021
:10556C00FFF7E6BF014B024A1A607047A0E3032025
:10557C00F9730D0008B50020FFF74EFD28B1FFF7B9
:10558C003BFD80F00100C0B208BD012008BD10B584
:10559C000020FFF755FB044668B9FFF7A1FC012872
:1055AC000BD12046FFF7B4FC38B9FFF7E3FF30B955
:1055BC00FFF71AFDF9E7012010BD002010BDFFF721
:1055CC00D9FF0020FFF73CFB003018BF012010BDB5
:1055DC0008B5FFF7DCFFBDE80840FFF711BB000082
:1055EC00024B1A68024B1A60704700BFB4E20320EA
:1055FC00A4E3032010B50446FFF7B0F8204610BD15
:10560C000348044A04490023836000F0CFBE00BF66
:10561C00A8E303201CE3032001560D00007D704716
:10562C00037D1BB18369B3F1004F02D19FED050AD5
:10563C00704707EE903A9FED047AF8EEE77A87EE22
:10564C00870A7047000000000000C842037D1BB1B0
:10565C00036AB3F1004F02D19FED050A704707EEC4
:10566C00903A9FED047AF8EEE77A87EE870A704756
:10567C00000000000000C842037D7BB1436A002B90
:10568C000CDB07EE903ADFED076A9FED070AB8EEE8
:10569C00E77AC7EE267A27EE800A7047BFEE000A3B
:1056AC00704700BF00FF7F470000C842037D7BB1FD
:1056BC00C369002B0CDB07EE903ADFED076A9FED18
:1056CC00070AB8EEE77AC7EE267A27EE800A70470B
:1056DC00BFEE000A704700BF00FF7F470000C842C2
:1056EC0030B50D4600F110040FCD0FC495E8030042
:1056FC0084E80300012030BD2DE9F04107460C463B
:10570C0015462AB90368C9B29B68BDE8F041184731
:10571C00002907DA0A2A05D12D21FFF71BFE614269
:10572C00064601E021460026EAB23846FFF721FE84
:10573C003044BDE8F08170B50D4606460A228168FA
:10574C002846FFF7D9FF2C2104462846FFF702FE16
:10575C000A220444F1682846FFF7CEFF204470BDAE
:10576C00A0F10400FFF7E7BF090941EA001007EEBA
:10577C00900AB8EEE70ADFED027A80EE270A70474E
:10578C0000004844006800F08ABB10B50446016074
:10579C0002710AB1FFF7F6FF204610BD38B504467A
:1057AC000D4600F0DDFD2A4601462046FFF7EDFFD1
:1057BC00204638BD006800F07BBB10B50379044669
:1057CC000BB1FFF7F7FF204610BDF8B5044616469F
:1057DC001D460F46FFF7D6FF2068362100F054FB1C
:1057EC002068036839469B6898470121206800F0BF
:1057FC004EFB022236210123206800F02FFB20688B
:10580C0003685B6998473070206803685B69984748
:10581C0028702046BDE8F840FFF7CCBF07B502ABB7
:10582C0000228DF8062003F8012D02210DF106024D
:10583C00FFF7CBFF9DF807109DF8060003B05DF84D
:10584C0004EBFFF791BF000007B502AB002203F891
:10585C00012D8DF8062004210DF10602FFF7B5FF8E
:10586C009DF8070001F05EF80022094B01F0C0F82A
:10587C0001F0B6FB9DF8063000EE103A07EE900AE8
:10588C00B8EEC00A37EE800A03B05DF804FB00BF27
:10589C000000703F08B50C4B33B100F057F90368AA
:1058AC001B699847002809DC084B63B100F056FAD5
:1058BC0003681B699847002803DC08BDAFF3008020
:1058CC00F2E7AFF3008008BD00000000000000000C
:1058DC0008B5FFF7DFFFFFF78BF9014B186008BD28
:1058EC0010E703200248034A0349121A01F0D6BB01
:1058FC0000F4032004F40320B0760D0007B5002358
:10590C0000931A466FF07701FFF714FB03B05DF8B4
:10591C0004FB000007B543880A2B08D0502B09D193
:10592C00094B1B683BB103B05DF804EB1847FFF75C
:10593C00E5FF06E0002300931A466FF07701FFF7AE
:10594C00F9FA03B05DF804FBB8E3032038B5104C4A
:10595C00104D2368AB42104B0CBF012200221A7071
:10596C0002D0FFF7BFFF2560FFF73AF9044601F0BC
:10597C00A9FB0A4B13B12046AFF300800021074866
:10598C00FFF752FB00210648BDE83840FFF7C8BAC4
:10599C0000F403201E1C279ABCE303200000000027
:1059AC0021590D00704710B51821044600F00CFD6C
:1059BC00204610BDF0B5037D062B8DB00E4600F1D0
:1059CC0004074FF0000402D000F1080518E00CADFC
:1059DC00394605F8304D2F232A460A20FFF798F94F
:1059EC00284601F0D1FB33680246DB682946304675
:1059FC0098470FE024B12E213046FFF7ABFC04444E
:105A0C0015F8011D0A223046FFF7B3FCBD420444D1
:105A1C00F0D120460DB0F0BD10B5054B0446112257
:105A2C0040F8043B002101F044FB204610BD00BFB0
:105A3C00CC740D000346074A10B543F8042B01F152
:105A4C00100251F8044B43F8044B9142F9D10A78F7
:105A5C001A7010BDCC740D0010B59DF8084044EAC6
:105A6C00032343EA024242EA0161042341600375C5
:105A7C0010BD37B50D788B784A78C97800912946D6
:105A8C00FFF7EAFF03B030BD41747047704708B5AB
:105A9C000021007CFFF70CFA30EA200028BF4FF001
:105AAC00FF3008BD08B50121007CFFF701FA30EA90
:105ABC00200028BF4FF0FF3008BD08B5007CFFF771
:105ACC00EFF920EAE07008BD08B5007CFFF7E0F9BB
:105ADC0020EAE07008BD007CFFF7FAB910B514217C
:105AEC00044600F071FC204610BD38B50446007C1D
:105AFC000D46FFF7D5F9002801DC607C28B129465A
:105B0C00207CFFF7DDF920EAE07038BD10B50446C3
:105B1C00002363604FF47A73A360054B2360012369
:105B2C000846217463741146FFF7A2F9204610BD94
:105B3C00E0740D000022007CFFF7A2B910B514220E
:105B4C000446002101F0B5FA204610BD30B50E4DCB
:105B5C0087B001A8FFF7F2FF296811F0010410D1FA
:105B6C002846FEF796FA60B101AA21460748FFF7CE
:105B7C00CDFF2846FEF792FA054A0649034800F085
:105B8C0015FC024807B030BDC0E30320C4E303207A
:105B9C001CE30320995A0D00002211464068FFF7C0
:105BAC00EBB9002211464068FFF706BA00221146F5
:105BBC004068FFF711BA00224068FFF705BA0022CF
:105BCC0081F001014068FFF7EFB900231A4619462E
:105BDC004068FFF7E1B900231A4619464068FFF701
:105BEC00D3B9002211464068FFF7B6B90022022152
:105BFC004068FFF7B9B900231A464068FFF7A4B90B
:105C0C00F0B51B4B036000250F462833182689B0CE
:105C1C0043608560C560324629460446103001F069
:105C2C0048FA2A4629467868FFF7A6F908B9A06011
:105C3C001BE02946324602A80095019501F039FA7D
:105C4C0002A96846ADF80860FFF70AF910B1012304
:105C5C00A3600AE0009B019AA360E2600BB90223E7
:105C6C00A36002A92046FFF73BFD204609B0F0BD1A
:105C7C0098740D0038B5084C28252A46002120467A
:105C8C0001F017FA4FF0FF336360044B25800422B8
:105C9C005A60034A1A6038BDE0E30320D8E30320BE
:105CAC0010750D0070474174704708B5007CFFF704
:105CBC006FF820EAE07008BD08B5007CFFF740F8EB
:105CCC0020EAE07008BD08B5007CFFF749F830EA1F
:105CDC00200028BF4FF0FF3008BD08B5007CFFF74F
:105CEC0037F830EA200028BF4FF0FF3008BD007CA9
:105CFC00FFF73EB810B51421044600F065FB2046B2
:105D0C0010BD70B5457C04460E4625B9007CFFF7E6
:105D1C003FF8002805DD3146207CBDE87040FFF7D8
:105D2C0007B8284670BD000010B504460846114659
:105D3C00002262604FF47A72A260054A226001224E
:105D4C00207462741A46FEF7EBFF204610BD00BFAC
:105D5C0044750D00007CFFF713B8000038B50C4DEE
:105D6C00296811F0010411D12846FEF792F968B1A7
:105D7C00084A094B09482146FFF7D6FF2846FEF78B
:105D8C008DF9074A0749054800F010FB034838BD58
:105D9C00A0E40320A4E403201CE4032008E4032073
:105DAC001CE30320B15C0D007047F8B506461546A0
:105DBC000C468F18BC4206D0336814F8011B9B6844
:105DCC0030469847F6E72846F8BD0022007CFEF7DF
:105DDC00F7BF0021007CFEF7FBBF0021007CFEF723
:105DEC00FFBF0021007CFFF703B80021007CFFF708
:105DFC0007B810B51421044600F0E6FA204610BD91
:105E0C0010B50446002363604FF47A73A360044B0F
:105E1C002174084623601146FFF702F8204610BD96
:105E2C0074750D0070B50C4686B0142506462A46CE
:105E3C00002101A801F03DF923788DF80830636842
:105E4C000393E36804930022237A307CADF804506A
:105E5C0001A90593FEF7FCFF06B070BD1FB500331A
:105E6C008DF800104FF06401039118BF01236946AF
:105E7C0001928DF80830FFF7D5FF05B05DF804FBF3
:105E8C000022007CFEF78CBFC9B2FFF7F9BF0022DD
:105E9C00007CFEF78DBF0021007CFEF7B9BF08B572
:105EAC000021007CFEF7C4FFB0FA80F0400908BD69
:105EBC0008B50021007CFEF7C3FFB0FA80F0400962
:105ECC0008BD10B5044630B101F024F990FBF4F391
:105EDC0003FB140010BD10BD002211464068FFF7F3
:105EEC006BB8002211464068FFF776B80022406874
:105EFC00FFF76AB8002281F001014068FFF754B83F
:105F0C0000231A4601214068FFF746B800231A46C1
:105F1C0019464068FFF738B8002211464068FFF771
:105F2C002BB8002211464068FFF716B80022022158
:105F3C004068FFF719B800231A464068FFF704B809
:105F4C0038B5054688B104684CB1A3681BB103226F
:105F5C002146204698471021204600F035FA284665
:105F6C001421BDE8384000F02FBA38BD10B10368D9
:105F7C005B681847704710B503680446BBB1586896
:105F8C00FEF766FE78B923685A7C12B95868FEF79A
:105F9C006FFE23685868FEF773FE206800232360A9
:105FAC0028B1FFF7CDFF206808B1FFF7C9FF2046E5
:105FBC0010BD38B50446D0F8C40108B1FEF767F837
:105FCC00D4F8C00108B1FEF793FED4F8BC5135B13A
:105FDC002846FFF7D0FF0421284600F0F5F9206889
:105FEC0008B1FFF7C3FF204638BD000010B5044BC5
:105FFC00044640F8083BFFF7DCFF204610BD00BF0D
:10600C009C750D0038B50E4C0E4B236000250223F9
:10601C0004F5E4706360A560C4F8C451C4F8C851B9
:10602C00FEF75EFE084BC4F8CC5184F8D0512360C7
:10603C002046064A0649BDE8384000F0B7B900BF13
:10604C0028E50320D0750D009C750D001CE3032082
:10605C00F95F0D0000231A464068FEF775BF002259
:10606C0002214068FEF780BF002211464068FEF70F
:10607C0073BF002211464068FEF77EBF00231A460C
:10608C0019464068FEF780BF00231A46194640683F
:10609C00FEF782BF002281F001014068FEF784BF49
:1060AC0000224068FEF790BF002211464068FEF7C0
:1060BC0093BF002211464068FEF77EBF2DE9F043E6
:1060CC00002495B016460D460746FFF7A5FC214661
:1060DC0020220CA8009400F0ECFF40230C932146E6
:1060EC006B460CAA3046FEF73BFD0446002844D113
:1060FC00024601216868FEF73FFF022180462246D6
:10610C006868FEF739FF009E81462146002E34D088
:10611C00002932D17368022B02D00A2B09D02AE055
:10612C00B8F1000F27D0716938460431FFF7A1FC94
:10613C0020E0B9F1000F1ED07469112201A800F003
:10614C00B8FF06238DF8143001AD04F108031834A0
:10615C00186859682A4603C20833A3421546F7D17A
:10616C0001A906A807ADFFF765FC0FCD3C1D0FC4B8
:10617C002B6823700121F669C8E70098FEF7E8FC4C
:10618C00384615B0BDE8F083024B034A1A60002272
:10619C005A607047FCE60320D0750D0070B5184EA0
:1061AC00316811F0010504460AD13046FDF771FF44
:1061BC0030B129461348FEF795FF3046FDF76EFFC8
:1061CC001048FEF799FF28B1A4F10B03022B01D85C
:1061DC00002070BD00F09EF8FFF75DFE08B1012CA9
:1061EC00F6D9FFF7BBFDFFF7B5FD18B1A4F1090314
:1061FC00012BEDD9232C8CBF0020012070BD00BFDA
:10620C0004E7032008E70320232838B504460D468D
:10621C000AD8FF2908D0FFF7C1FF28B1294620462C
:10622C00BDE83840FEF7ACBC38BD38B504460D4669
:10623C00FEF7AEFCFF2810D0062804D84D2323FA15
:10624C0000F0C30709D42046FFF7A8FF28B1294660
:10625C002046BDE83840FEF7A3BC38BD10B5044657
:10626C00FEF796FC0438C0B2012808D92046FFF787
:10627C0095FF20B12046BDE81040FEF799BC0020E8
:10628C0010BD000010B5074C2368DB0708D420466E
:10629C00FDF7FFFE20B1FEF7BBFC2046FDF7FEFE2E
:1062AC00014810BD14E7032018E7032070B504461D
:1062BC0014252A46094E002100F0FBFE25802025DE
:1062CC003146A5602561284600F080F831466060B3
:1062DC00284600F07BF8E060204670BDFC750D0090
:1062EC0070B5044614252A46094E002100F0E1FE43
:1062FC00258020253146A5602561284600F066F8EA
:10630C0031466060284600F061F8E060204670BDC0
:10631C00FC750D0030B50E4D296811F0010487B0E5
:10632C0013D12846FDF7B5FE78B101A8FFF7BEFFE3
:10633C0001AA21460748FFF763FD2846FDF7AEFE8C
:10634C00054A0649034800F031F8024807B030BD51
:10635C001CE7032034E703201CE30320B55D0D008C
:10636C0010B50E4C2368DB0786B013D42046FDF71E
:10637C0090FE78B101A8FFF7B3FF01AA01210848EC
:10638C00FFF73EFD2046FDF789FE064A0649044804
:10639C0000F00CF8024806B010BD00BF48E703201F
:1063AC0020E703201CE30320B55D0D000B460146DE
:1063BC00184600F065BE0000024B1868BFF35F8FF3
:1063CC00704700BF4CE70320FDF75FBE00F000B83C
:1063DC0010B5002814BF044601242046FEF72CFEFD
:1063EC0020B9FFF7E9FF08B18047F6E710BD0000C0
:1063FC00184B1A68D1075CBF01221A60164B1A6839
:10640C00D2075CBF01221A60144B1A68D0075CBF1C
:10641C0001221A60124B1A68D1075CBF01221A6064
:10642C00104B1A68D2075CBF01221A600E4B1A6817
:10643C00D0075CBF01221A600C4B1A68D1075CBFF5
:10644C0001221A600A4B1A68D2075CBF01221A603B
:10645C00704700BF6CE7032068E7032064E7032064
:10646C0060E703205CE7032058E7032054E7032090
:10647C0050E70320244B1A68D0075CBF01221A6036
:10648C00224B1A68D1075CBF01221A60204B1A6894
:10649C00D2075CBF01221A601E4B1A68D0075CBF82
:1064AC0001221A601C4B1A68D1075CBF01221A60CA
:1064BC001A4B1A68D2075CBF01221A60184B1A6873
:1064CC00D0075CBF01221A60164B1A68D1075CBF5B
:1064DC0001221A60144B1A68D2075CBF01221A60A1
:1064EC00124B1A68D0075CBF01221A60104B1A6855
:1064FC00D1075CBF01221A600E4B1A68D2075CBF31
:10650C0001221A60704700BF9CE7032098E7032024
:10651C0094E7032090E703208CE7032088E703200F
:10652C0084E7032080E703207CE7032078E703203F
:10653C0074E7032070E70320244B1A68D0075CBF74
:10654C0001221A60224B1A68D1075CBF01221A6023
:10655C00204B1A68D2075CBF01221A601E4B1A68C6
:10656C00D0075CBF01221A601C4B1A68D1075CBFB4
:10657C0001221A601A4B1A68D2075CBF01221A60FA
:10658C00184B1A68D0075CBF01221A60164B1A68A8
:10659C00D1075CBF01221A60144B1A68D2075CBF8A
:1065AC0001221A60124B1A68D0075CBF01221A60D4
:1065BC00104B1A68D1075CBF01221A600E4B1A6887
:1065CC00D2075CBF01221A60704700BFCCE70320E2
:1065DC00C8E70320C4E70320C0E70320BCE703207F
:1065EC00B8E70320B4E70320B0E70320ACE70320AF
:1065FC00A8E70320A4E70320A0E70320184B1A68A0
:10660C00D1075CBF01221A60164B1A68D2075CBF17
:10661C0001221A60144B1A68D0075CBF01221A6061
:10662C00124B1A68D1075CBF01221A60104B1A6812
:10663C00D2075CBF01221A600E4B1A68D0075CBFF0
:10664C0001221A600C4B1A68D1075CBF01221A6038
:10665C000A4B1A68D2075CBF01221A60704700BF50
:10666C00ECE70320E8E70320E4E70320E0E703205E
:10667C00DCE70320D8E70320D4E70320D0E703208E
:10668C0081F0004102E000BF83F0004330B54FEAD7
:10669C0041044FEA430594EA050F08BF90EA020F44
:1066AC001FBF54EA000C55EA020C7FEA645C7FEAD7
:1066BC00655C00F0E2804FEA5454D4EB5555B8BFFA
:1066CC006D420CDD2C4480EA020281EA030382EA6B
:1066DC00000083EA010180EA020281EA0303362DFD
:1066EC0088BF30BD11F0004F4FEA01314FF4801CD0
:1066FC004CEA113102D0404261EB410113F0004FE2
:10670C004FEA03334CEA133302D0524263EB430398
:10671C0094EA050F00F0A780A4F10104D5F1200E36
:10672C000DDB02FA0EFC22FA05F2801841F1000191
:10673C0003FA0EF2801843FA05F359410EE0A5F165
:10674C0020050EF1200E012A03FA0EFC28BF4CF096
:10675C00020C43FA05F3C01851EBE37101F000454C
:10676C0007D54FF0000EDCF1000C7EEB00006EEB59
:10677C000101B1F5801F1BD3B1F5001F0CD34908E3
:10678C005FEA30004FEA3C0C04F101044FEA44523A
:10679C0012F5800F80F09A80BCF1004F08BF5FEAC1
:1067AC00500C50F1000041EB045141EA050130BDA1
:1067BC005FEA4C0C404141EB010111F4801FA4F144
:1067CC000104E9D191F0000F04BF01460020B1FA99
:1067DC0081F308BF2033A3F10B03B3F120020CDAD1
:1067EC000C3208DD02F1140CC2F10C0201FA0CF0AF
:1067FC0021FA02F10CE002F11402D8BFC2F1200C14
:10680C0001FA02F120FA0CFCDCBF41EA0C019040C9
:10681C00E41AA2BF01EB0451294330BD6FEA040412
:10682C001F3C1CDA0C340EDC04F11404C4F12002FD
:10683C0020FA04F001FA02F340EA030021FA04F30F
:10684C0045EA030130BDC4F10C04C4F1200220FA66
:10685C0002F001FA04F340EA0300294630BD21FAA4
:10686C0004F0294630BD94F0000F83F4801306BF6A
:10687C0081F480110134013D4EE77FEA645C18BF5E
:10688C007FEA655C29D094EA050F08BF90EA020FF5
:10689C0005D054EA000C04BF1946104630BD91EAED
:1068AC00030F1EBF0021002030BD5FEA545C05D1F0
:1068BC004000494128BF41F0004130BD14F580042F
:1068CC003CBF01F5801130BD01F0004545F0FE41A3
:1068DC0041F470014FF0000030BD7FEA645C1ABFD8
:1068EC00194610467FEA655C1CBF0B46024650EA0F
:1068FC00013406BF52EA033591EA030F41F400213B
:10690C0030BD00BF90F0000F04BF0021704730B5C0
:10691C004FF4806404F132044FF000054FF0000195
:10692C0050E700BF90F0000F04BF0021704730B556
:10693C004FF4806404F1320410F0004548BF40422B
:10694C004FF000013EE700BF42004FEAE2014FEA80
:10695C0031014FEA02701FBF12F07F4393F07F4F5B
:10696C0081F06051704792F0000F14BF93F07F4F8D
:10697C00704730B54FF4607401F0004521F00041D0
:10698C0020E700BF50EA010208BF704730B54FF056
:10699C0000050AE050EA010208BF704730B511F05B
:1069AC00004502D5404261EB41014FF4806404F193
:1069BC0032045FEA915C3FF4DCAE4FF003025FEA15
:1069CC00DC0C18BF03325FEADC0C18BF033202EB9D
:1069DC00DC02C2F1200300FA03FC20FA02F001FAF7
:1069EC0003FE40EA0E0021FA02F11444C1E600BF96
:1069FC0070B54FF0FF0C4CF4E06C1CEA11541DBF49
:106A0C001CEA135594EA0C0F95EA0C0F00F0DEF813
:106A1C002C4481EA030621EA4C5123EA4C5350EAF8
:106A2C00013518BF52EA033541F4801143F4801349
:106A3C0038D0A0FB02CE4FF00005E1FB02E506F0DA
:106A4C000042E0FB03E54FF00006E1FB03569CF02F
:106A5C00000F18BF4EF0010EA4F1FF04B6F5007F35
:106A6C0064F5407404D25FEA4E0E6D4146EB0606A7
:106A7C0042EAC62141EA55514FEAC52040EA5E5030
:106A8C004FEACE2EB4F1FD0C88BFBCF5E06F1ED8DA
:106A9C00BEF1004F08BF5FEA500E50F1000041EB11
:106AAC00045170BD06F0004646EA010140EA0200BE
:106ABC0081EA0301B4EB5C04C2BFD4EB0C0541EAE0
:106ACC00045170BD41F480114FF0000E013C00F3F5
:106ADC00AB8014F1360FDEBF002001F0004170BD19
:106AEC00C4F10004203C35DA0C341BDC04F1140432
:106AFC00C4F1200500FA05F320FA04F001FA05F2BE
:106B0C0040EA020001F0004221F0004110EBD3708A
:106B1C0021FA04F642EB06015EEA430E08BF20EAB6
:106B2C00D37070BDC4F10C04C4F1200500FA04F359
:106B3C0020FA05F001FA04F240EA020001F00041EB
:106B4C0010EBD37041F100015EEA430E08BF20EA5E
:106B5C00D37070BDC4F1200500FA05F24EEA020EA6
:106B6C0020FA04F301FA05F243EA020321FA04F0D5
:106B7C0001F0004121FA04F220EA020000EBD3708C
:106B8C005EEA430E08BF20EAD37070BD94F0000F8C
:106B9C000FD101F00046400041EB010111F4801FC0
:106BAC0008BF013CF7D041EA060195F0000F18BF71
:106BBC00704703F00046520043EB030313F4801FAD
:106BCC0008BF013DF7D043EA0603704794EA0C0F67
:106BDC000CEA135518BF95EA0C0F0CD050EA41067D
:106BEC0018BF52EA4306D1D181EA030101F00041FA
:106BFC004FF0000070BD50EA410606BF1046194622
:106C0C0052EA430619D094EA0C0F02D150EA01362D
:106C1C0013D195EA0C0F05D152EA03361CBF10466E
:106C2C0019460AD181EA030101F0004141F0FE410D
:106C3C0041F470014FF0000070BD41F0FE4141F491
:106C4C00780170BD70B54FF0FF0C4CF4E06C1CEA91
:106C5C0011541DBF1CEA135594EA0C0F95EA0C0F46
:106C6C0000F0A7F8A4EB050481EA030E52EA033501
:106C7C004FEA013100F088804FEA03334FF0805522
:106C8C0045EA131343EA12634FEA022245EA11154F
:106C9C0045EA10654FEA00260EF000419D4208BF00
:106CAC00964244F1FD0404F5407402D25B084FEAAD
:106CBC003202B61A65EB03055B084FEA32024FF459
:106CCC0080104FF4002CB6EB020E75EB030E22BFB6
:106CDC00B61A754640EA0C005B084FEA3202B6EB76
:106CEC00020E75EB030E22BFB61A754640EA5C0025
:106CFC005B084FEA3202B6EB020E75EB030E22BFB5
:106D0C00B61A754640EA9C005B084FEA3202B6EBB5
:106D1C00020E75EB030E22BFB61A754640EADC0074
:106D2C0055EA060E18D04FEA051545EA16754FEAD6
:106D3C0006164FEAC30343EA52734FEAC2025FEAF4
:106D4C001C1CC0D111F4801F0BD141EA00014FF083
:106D5C0000004FF0004CB6E711F4801F04BF014354
:106D6C000020B4F1FD0C88BFBCF5E06F3FF6AFAE70
:106D7C00B5EB030C04BFB6EB020C5FEA500C50F100
:106D8C00000041EB045170BD0EF0004E4EEA113183
:106D9C0014EB5C04C2BFD4EB0C0541EA045170BD8A
:106DAC0041F480114FF0000E013C90E645EA060ECE
:106DBC008DE60CEA135594EA0C0F08BF95EA0C0FFC
:106DCC003FF43BAF94EA0C0F0AD150EA01347FF444
:106DDC0034AF95EA0C0F7FF425AF104619462CE71B
:106DEC0095EA0C0F06D152EA03353FF4FDAE10467E
:106DFC00194622E750EA410618BF52EA43067FF4CF
:106E0C00C5AE50EA41047FF40DAF52EA43057FF45E
:106E1C00EBAE12E74FF0FF3C06E000BF4FF0010C69
:106E2C0002E000BF4FF0010C4DF804CD4FEA410CCD
:106E3C007FEA6C5C4FEA430C18BF7FEA6C5C1BD09A
:106E4C0001B050EA410C0CBF52EA430C91EA030F1B
:106E5C0002BF90EA020F0020704710F1000F91EA78
:106E6C00030F58BF994208BF90422CBFD8176FEA46
:106E7C00E37040F0010070474FEA410C7FEA6C5C14
:106E8C0002D150EA013C07D14FEA430C7FEA6C5C1B
:106E9C00D6D152EA033CD3D05DF8040B704700BF47
:106EAC008446104662468C461946634600E000BF95
:106EBC0001B5FFF7B7FF002848BF10F1000F01BD67
:106ECC004DF808EDFFF7F4FF0CBF012000205DF832
:106EDC0008FB00BF4DF808EDFFF7EAFF34BF0120B7
:106EEC0000205DF808FB00BF4DF808EDFFF7E0FF50
:106EFC0094BF012000205DF808FB00BF4DF808EDA1
:106F0C00FFF7CEFF94BF012000205DF808FB00BF07
:106F1C004DF808EDFFF7C4FF34BF012000205DF8E9
:106F2C0008FB00BF4FEA410C7FEA6C5C02D150EACF
:106F3C00013C0AD14FEA430C7FEA6C5C02D152EA65
:106F4C00033C02D14FF0000070474FF00100704736
:106F5C004FEA410212F5001215D211D56FF4787375
:106F6C00B3EB625212D94FEAC12343F0004343EA18
:106F7C00505311F0004F23FA02F018BF40427047F3
:106F8C004FF00000704750EA013005D111F000407D
:106F9C0008BF6FF0004070474FF00000704700BF13
:106FAC004A0011D212F5001211D20DD56FF478737C
:106FBC00B3EB62520ED44FEAC12343F0004343EAD1
:106FCC00505323FA02F070474FF00000704750EA1C
:106FDC00013002D14FF0FF3070474FF00000704786
:106FEC004FEA4102B2F1E04324BFB3F5001CDCF1DF
:106FFC00FE5C0DD901F0004C4FEAC0024CEA507017
:10700C00B2F1004F40EB830008BF20F00100704745
:10701C0011F0804F21D113F13872BCBF01F0004048
:10702C00704741F480114FEA5252C2F11802C2F17A
:10703C00200C10FA0CF320FA02F018BF40F00100FB
:10704C004FEAC1234FEAD32303FA0CFC40EA0C00AD
:10705C0023FA02F34FEA4303CCE77FEA625307D1EA
:10706C0050EA01331EBF4FF0FE4040F44000704721
:10707C0001F0004040F0FE4040F40000704700BFBB
:10708C0010B5054C13462CB10A4601460220AFF34D
:10709C00008010BD204610BD0000000010B5431E3E
:1070AC000A44914204D011F8014B03F8014FF8E760
:1070BC0010BD02440346934202D003F8011BFAE7C9
:1070CC007047000038B5124B1C68A36B0546D3B94A
:1070DC001820FDF7B1FF43F20E33A06303804AF68C
:1070EC00CD33438041F2342383804EF26D63C380F1
:1070FC004DF6EC630381052343810B23838101222D
:10710C000023C0E90423A36B00221D615A6138BD22
:10711C0018E30320194B10B51C68A36BD3B91820C6
:10712C00FDF78AFF43F20E33A06303804AF6CD339A
:10713C00438041F2342383804EF26D63C3804DF65D
:10714C00EC630381052343810B23838101220023FC
:10715C00C0E90423A16B0A4C0B694869094A5C43DA
:10716C0002FB0040A3FB02230132034443F1000362
:10717C00C1E9042323F0004010BD00BF18E3032035
:10718C002DF451582D7F954C034613F8012B002AF2
:10719C00FBD1181A013870471D400D0059400D00E5
:1071AC0085400D0089400D0000000000332E205456
:1071BC0065737420427574746F6E205072657373AE
:1071CC000A00204552524F52003F2E204F707469D6
:1071DC006F6E730A00312E20546573742045455030
:1071EC00524F4D0A000A54657374696E6720666CC1
:1071FC006173683A000A5072657373206275747417
:10720C006F6E20666F723A2000205365636F6E6458
:10721C0073000A54657374696E6720427574746FD9
:10722C006E3A000A54657374696E672056616C7609
:10723C00653A00322E205465737420446576696378
:10724C0065204150490A0049474820536869656CDC
:10725C00642054657374000A2A2A2A2A2A2A2A2AA4
:10726C002A2A2A2A2A2A2A0A00342E2054657374C0
:10727C002056616C766520436F6E74726F6C0A00D9
:10728C00204F4B00E00FCE689A754705E79A0E37F2
:10729C00746573742E62726F6B65722E636F6D0002
:1072AC00000000000000000099470D00E1470D00B0
:1072BC0021470D000A556E69782054696D653A2096
:1072CC00202020202000636C6F756420737461741F
:1072DC0075733A2020202020006E6574776F726BD6
:1072EC00207374617475733A202020007369676E83
:1072FC00616C20737472656E6774683A2020007339
:10730C0069676E616C207175616C6974793A2020C3
:10731C0020004261747465727920566F6C746167D9
:10732C00653A2020004261747465727920534F4392
:10733C003A20202020202000000000000000000047
:10734C00D3500D00C9500D00BF500D00B5500D00AD
:10735C00A9500D009D500D0091500D0089500D004D
:10736C007F500D0075500D00C9600D006E616E00F0
:10737C006F7666002E00696E66006261756400535C
:10738C00657269616C0053657269616C3100747966
:10739C00706500706172616D00636D6400696400FA
:1073AC00686E64007374726D0066696C74006C7640
:1073BC006C0061646448616E646C65720072656D2A
:1073CC006F766548616E646C657200656E756D48AC
:1073DC00616E646C657273004A534F4E53747265E0
:1073EC00616D4C6F6748616E646C657200617070A2
:1073FC0000253031307520005D20002564002C20E4
:10740C000028293A2000205B00636F6465203D2032
:10741C000025690064657461696C73203D20000D62
:10742C000A006C6E00666E00636F646500646574C0
:10743C0061696C006E6F6E650074726163650069E2
:10744C006E666F007761726E006572726F7200709B
:10745C00616E696300616C6C005A00252B303364DB
:10746C003A253032750025592D256D2D256454256E
:10747C00483A254D3A2553257A0061736374696D3A
:10748C0065000000000000000000000031490D0004
:10749C0033490D0029560D00B9560D002D560D001F
:1074AC0085560D0059560D0043570D00FCFFFFFF8C
:1074BC00000000006D570D000000000000000000EF
:1074CC00C1590D00B1590D00B3590D000000000059
:1074DC0000000000995A0D00E95A0D00F75A0D00F2
:1074EC000D530D00D55A0D009B5A0D00B15A0D00CD
:1074FC00E35A0D00C75A0D00955A0D00000000000C
:10750C0000000000035C0D00F95B0D00EF5B0D004B
:10751C00A55B0D00E35B0D00D75B0D00CB5B0D0095
:10752C00C35B0D00B95B0D00AF5B0D00C9600D00B6
:10753C000000000000000000B15C0D00015D0D00BA
:10754C000F5D0D000D530D00C55C0D00E75C0D00CB
:10755C00D35C0D00FB5C0D00B35C0D00B75C0D0043
:10756C000000000000000000B55D0D00FF5D0D0087
:10757C00D75D0D00B75D0D00DF5D0D00E75D0D0003
:10758C00EF5D0D00F75D0D00000000000000000035
:10759C00435F0D00395F0D002F5F0D00255F0D005F
:1075AC00195F0D000D5F0D00015F0D00F95E0D0000
:1075BC00EF5E0D00E55E0D00C9600D0000000000DF
:1075CC000000000061600D006B600D0075600D0027
:1075DC007F600D0089600D0095600D00A1600D00AD
:1075EC00AD600D00B5600D00BF600D00C9600D00F1
:1075FC00000000000000000000000000000000007F
:10760C00000000000000000000000000000000006E
:10761C00000000000000000000000000000000005E
:10762C00000000000000000000000000000000004E
:10763C00000000000000000000000000000000003E
:10764C00000000000000000000000000000000002E
:10765C000000000043000000ED400D00B9440D0097
:10766C0001470D00A1480D00F94A0D00594B0D00C2
:10767C00DD500D0029510D00E5520D0071550D0026
:10768C00ED550D000D560D00815C0D0011600D00C7
:10769C0095610D00FD630D0081640D0045650D00C5
:0476AC0009660D005E
:0476B00000000000D6
:1076B40086740D000000000000760D0020760D0099
:1076C40040760D00000000000000000000000000F3
:1076D4000000000060760D000000000000000000C3
:1076E4000000000000000000000000000000000096
:1076F4000000000000000000000000000000000086
:107704000000000000000000000000000000000075
:0877140000000000B8E20320B0
:10771C00FFFFFFFF00000102030405060708090A2A
:10772C000B0C0D0E0F101112131415161718191A25
:08773C001B1C1D1E1F2028006C
:04774400785634122D
:04000003D000401CCD
:00000001FF
